{
  "contractName": "Co2s",
  "abi": [
    {
      "inputs": [
        {
          "internalType": "address",
          "name": "_contract",
          "type": "address"
        },
        {
          "internalType": "uint256",
          "name": "_percent",
          "type": "uint256"
        },
        {
          "internalType": "address",
          "name": "_mlq",
          "type": "address"
        }
      ],
      "stateMutability": "nonpayable",
      "type": "constructor"
    },
    {
      "anonymous": false,
      "inputs": [
        {
          "indexed": true,
          "internalType": "address",
          "name": "owner",
          "type": "address"
        },
        {
          "indexed": true,
          "internalType": "address",
          "name": "spender",
          "type": "address"
        },
        {
          "indexed": false,
          "internalType": "uint256",
          "name": "value",
          "type": "uint256"
        }
      ],
      "name": "Approval",
      "type": "event"
    },
    {
      "anonymous": false,
      "inputs": [
        {
          "indexed": true,
          "internalType": "address",
          "name": "from",
          "type": "address"
        },
        {
          "indexed": true,
          "internalType": "address",
          "name": "to",
          "type": "address"
        },
        {
          "indexed": false,
          "internalType": "uint256",
          "name": "value",
          "type": "uint256"
        }
      ],
      "name": "Transfer",
      "type": "event"
    },
    {
      "inputs": [
        {
          "internalType": "address",
          "name": "owner",
          "type": "address"
        },
        {
          "internalType": "address",
          "name": "spender",
          "type": "address"
        }
      ],
      "name": "allowance",
      "outputs": [
        {
          "internalType": "uint256",
          "name": "",
          "type": "uint256"
        }
      ],
      "stateMutability": "view",
      "type": "function",
      "constant": true
    },
    {
      "inputs": [
        {
          "internalType": "address",
          "name": "spender",
          "type": "address"
        },
        {
          "internalType": "uint256",
          "name": "amount",
          "type": "uint256"
        }
      ],
      "name": "approve",
      "outputs": [
        {
          "internalType": "bool",
          "name": "",
          "type": "bool"
        }
      ],
      "stateMutability": "nonpayable",
      "type": "function"
    },
    {
      "inputs": [
        {
          "internalType": "address",
          "name": "account",
          "type": "address"
        }
      ],
      "name": "balanceOf",
      "outputs": [
        {
          "internalType": "uint256",
          "name": "",
          "type": "uint256"
        }
      ],
      "stateMutability": "view",
      "type": "function",
      "constant": true
    },
    {
      "inputs": [
        {
          "internalType": "uint256",
          "name": "",
          "type": "uint256"
        }
      ],
      "name": "bonds",
      "outputs": [
        {
          "internalType": "uint256",
          "name": "id",
          "type": "uint256"
        },
        {
          "internalType": "address",
          "name": "adr",
          "type": "address"
        },
        {
          "internalType": "uint256",
          "name": "amount",
          "type": "uint256"
        },
        {
          "internalType": "uint256",
          "name": "region",
          "type": "uint256"
        },
        {
          "internalType": "uint256",
          "name": "stamp",
          "type": "uint256"
        },
        {
          "internalType": "uint256",
          "name": "duration",
          "type": "uint256"
        },
        {
          "internalType": "uint256",
          "name": "co2",
          "type": "uint256"
        }
      ],
      "stateMutability": "view",
      "type": "function",
      "constant": true
    },
    {
      "inputs": [],
      "name": "decimals",
      "outputs": [
        {
          "internalType": "uint8",
          "name": "",
          "type": "uint8"
        }
      ],
      "stateMutability": "view",
      "type": "function",
      "constant": true
    },
    {
      "inputs": [
        {
          "internalType": "address",
          "name": "spender",
          "type": "address"
        },
        {
          "internalType": "uint256",
          "name": "subtractedValue",
          "type": "uint256"
        }
      ],
      "name": "decreaseAllowance",
      "outputs": [
        {
          "internalType": "bool",
          "name": "",
          "type": "bool"
        }
      ],
      "stateMutability": "nonpayable",
      "type": "function"
    },
    {
      "inputs": [
        {
          "internalType": "address",
          "name": "spender",
          "type": "address"
        },
        {
          "internalType": "uint256",
          "name": "addedValue",
          "type": "uint256"
        }
      ],
      "name": "increaseAllowance",
      "outputs": [
        {
          "internalType": "bool",
          "name": "",
          "type": "bool"
        }
      ],
      "stateMutability": "nonpayable",
      "type": "function"
    },
    {
      "inputs": [
        {
          "internalType": "address",
          "name": "",
          "type": "address"
        },
        {
          "internalType": "uint256",
          "name": "",
          "type": "uint256"
        }
      ],
      "name": "myBondedCo2",
      "outputs": [
        {
          "internalType": "uint256",
          "name": "",
          "type": "uint256"
        }
      ],
      "stateMutability": "view",
      "type": "function",
      "constant": true
    },
    {
      "inputs": [
        {
          "internalType": "address",
          "name": "",
          "type": "address"
        }
      ],
      "name": "myBonds",
      "outputs": [
        {
          "internalType": "uint256",
          "name": "",
          "type": "uint256"
        }
      ],
      "stateMutability": "view",
      "type": "function",
      "constant": true
    },
    {
      "inputs": [],
      "name": "name",
      "outputs": [
        {
          "internalType": "string",
          "name": "",
          "type": "string"
        }
      ],
      "stateMutability": "view",
      "type": "function",
      "constant": true
    },
    {
      "inputs": [],
      "name": "symbol",
      "outputs": [
        {
          "internalType": "string",
          "name": "",
          "type": "string"
        }
      ],
      "stateMutability": "view",
      "type": "function",
      "constant": true
    },
    {
      "inputs": [],
      "name": "totalSupply",
      "outputs": [
        {
          "internalType": "uint256",
          "name": "",
          "type": "uint256"
        }
      ],
      "stateMutability": "view",
      "type": "function",
      "constant": true
    },
    {
      "inputs": [
        {
          "internalType": "address",
          "name": "recipient",
          "type": "address"
        },
        {
          "internalType": "uint256",
          "name": "amount",
          "type": "uint256"
        }
      ],
      "name": "transfer",
      "outputs": [
        {
          "internalType": "bool",
          "name": "",
          "type": "bool"
        }
      ],
      "stateMutability": "nonpayable",
      "type": "function"
    },
    {
      "inputs": [
        {
          "internalType": "address",
          "name": "sender",
          "type": "address"
        },
        {
          "internalType": "address",
          "name": "recipient",
          "type": "address"
        },
        {
          "internalType": "uint256",
          "name": "amount",
          "type": "uint256"
        }
      ],
      "name": "transferFrom",
      "outputs": [
        {
          "internalType": "bool",
          "name": "",
          "type": "bool"
        }
      ],
      "stateMutability": "nonpayable",
      "type": "function"
    },
    {
      "inputs": [
        {
          "internalType": "uint256",
          "name": "_trees",
          "type": "uint256"
        },
        {
          "internalType": "uint256",
          "name": "_region",
          "type": "uint256"
        },
        {
          "internalType": "uint256",
          "name": "_duration",
          "type": "uint256"
        }
      ],
      "name": "growTrees",
      "outputs": [
        {
          "internalType": "bool",
          "name": "",
          "type": "bool"
        }
      ],
      "stateMutability": "payable",
      "type": "function",
      "payable": true
    },
    {
      "inputs": [
        {
          "internalType": "uint256",
          "name": "_trees",
          "type": "uint256"
        },
        {
          "internalType": "uint256",
          "name": "_b",
          "type": "uint256"
        }
      ],
      "name": "growMoreTrees",
      "outputs": [
        {
          "internalType": "bool",
          "name": "",
          "type": "bool"
        }
      ],
      "stateMutability": "payable",
      "type": "function",
      "payable": true
    },
    {
      "inputs": [
        {
          "internalType": "uint256",
          "name": "_trees",
          "type": "uint256"
        },
        {
          "internalType": "uint256",
          "name": "_b",
          "type": "uint256"
        }
      ],
      "name": "growLessTrees",
      "outputs": [
        {
          "internalType": "bool",
          "name": "",
          "type": "bool"
        }
      ],
      "stateMutability": "payable",
      "type": "function",
      "payable": true
    },
    {
      "inputs": [
        {
          "internalType": "uint256",
          "name": "_m",
          "type": "uint256"
        }
      ],
      "name": "releaseFreeCo2",
      "outputs": [
        {
          "internalType": "bool",
          "name": "",
          "type": "bool"
        }
      ],
      "stateMutability": "nonpayable",
      "type": "function"
    },
    {
      "inputs": [
        {
          "internalType": "uint256",
          "name": "_eth",
          "type": "uint256"
        },
        {
          "internalType": "uint256",
          "name": "_co2",
          "type": "uint256"
        },
        {
          "internalType": "uint256",
          "name": "_tree",
          "type": "uint256"
        }
      ],
      "name": "withdraw",
      "outputs": [
        {
          "internalType": "bool",
          "name": "",
          "type": "bool"
        }
      ],
      "stateMutability": "nonpayable",
      "type": "function"
    }
  ],
  "bytecode": "0x60806040523480156200001157600080fd5b50604051620035ad380380620035ad833981810160405281019062000037919062000256565b6040518060400160405280600c81526020017f436172626f6e20746f6b656e00000000000000000000000000000000000000008152506040518060400160405280600381526020017f434f3200000000000000000000000000000000000000000000000000000000008152508160039081620000b4919062000522565b508060049081620000c6919062000522565b5050506d013b8b5b5056e16b3be04000000060078190555082600560006101000a81548173ffffffffffffffffffffffffffffffffffffffff021916908373ffffffffffffffffffffffffffffffffffffffff1602179055508160118190555080600660006101000a81548173ffffffffffffffffffffffffffffffffffffffff021916908373ffffffffffffffffffffffffffffffffffffffff16021790555033600a60006101000a81548173ffffffffffffffffffffffffffffffffffffffff021916908373ffffffffffffffffffffffffffffffffffffffff16021790555050505062000609565b600080fd5b600073ffffffffffffffffffffffffffffffffffffffff82169050919050565b6000620001e382620001b6565b9050919050565b620001f581620001d6565b81146200020157600080fd5b50565b6000815190506200021581620001ea565b92915050565b6000819050919050565b62000230816200021b565b81146200023c57600080fd5b50565b600081519050620002508162000225565b92915050565b600080600060608486031215620002725762000271620001b1565b5b6000620002828682870162000204565b935050602062000295868287016200023f565b9250506040620002a88682870162000204565b9150509250925092565b600081519050919050565b7f4e487b7100000000000000000000000000000000000000000000000000000000600052604160045260246000fd5b7f4e487b7100000000000000000000000000000000000000000000000000000000600052602260045260246000fd5b600060028204905060018216806200033457607f821691505b6020821081036200034a5762000349620002ec565b5b50919050565b60008190508160005260206000209050919050565b60006020601f8301049050919050565b600082821b905092915050565b600060088302620003b47fffffffffffffffffffffffffffffffffffffffffffffffffffffffffffffffff8262000375565b620003c0868362000375565b95508019841693508086168417925050509392505050565b6000819050919050565b600062000403620003fd620003f7846200021b565b620003d8565b6200021b565b9050919050565b6000819050919050565b6200041f83620003e2565b620004376200042e826200040a565b84845462000382565b825550505050565b600090565b6200044e6200043f565b6200045b81848462000414565b505050565b5b8181101562000483576200047760008262000444565b60018101905062000461565b5050565b601f821115620004d2576200049c8162000350565b620004a78462000365565b81016020851015620004b7578190505b620004cf620004c68562000365565b83018262000460565b50505b505050565b600082821c905092915050565b6000620004f760001984600802620004d7565b1980831691505092915050565b6000620005128383620004e4565b9150826002028217905092915050565b6200052d82620002b2565b67ffffffffffffffff811115620005495762000548620002bd565b5b6200055582546200031b565b6200056282828562000487565b600060209050601f8311600181146200059a576000841562000585578287015190505b62000591858262000504565b86555062000601565b601f198416620005aa8662000350565b60005b82811015620005d457848901518255600182019150602085019450602081019050620005ad565b86831015620005f45784890151620005f0601f891682620004e4565b8355505b6001600288020188555050505b505050505050565b612f9480620006196000396000f3fe6080604052600436106101145760003560e01c806383f21a74116100a0578063a9059cbb11610064578063a9059cbb14610420578063b059fe1f1461045d578063c54722d51461049a578063dd62ed3e146104ca578063f654ac251461050757610114565b806383f21a741461030e578063879125af1461033e57806395d89b411461037b578063a41fe49f146103a6578063a457c2d7146103e357610114565b8063313ce567116100e7578063313ce567146101e9578063339092001461021457806339509351146102515780635f1c17c01461028e57806370a08231146102d157610114565b806306fdde0314610119578063095ea7b31461014457806318160ddd1461018157806323b872dd146101ac575b600080fd5b34801561012557600080fd5b5061012e610537565b60405161013b9190612230565b60405180910390f35b34801561015057600080fd5b5061016b600480360381019061016691906122eb565b6105c9565b6040516101789190612346565b60405180910390f35b34801561018d57600080fd5b506101966105e7565b6040516101a39190612370565b60405180910390f35b3480156101b857600080fd5b506101d360048036038101906101ce919061238b565b6105f1565b6040516101e09190612346565b60405180910390f35b3480156101f557600080fd5b506101fe6106e9565b60405161020b91906123fa565b60405180910390f35b34801561022057600080fd5b5061023b600480360381019061023691906122eb565b6106f2565b6040516102489190612370565b60405180910390f35b34801561025d57600080fd5b50610278600480360381019061027391906122eb565b610717565b6040516102859190612346565b60405180910390f35b34801561029a57600080fd5b506102b560048036038101906102b09190612415565b6107c3565b6040516102c89796959493929190612451565b60405180910390f35b3480156102dd57600080fd5b506102f860048036038101906102f391906124c0565b610835565b6040516103059190612370565b60405180910390f35b610328600480360381019061032391906124ed565b61087d565b6040516103359190612346565b60405180910390f35b34801561034a57600080fd5b50610365600480360381019061036091906124c0565b610b70565b6040516103729190612370565b60405180910390f35b34801561038757600080fd5b50610390610b88565b60405161039d9190612230565b60405180910390f35b3480156103b257600080fd5b506103cd60048036038101906103c8919061252d565b610c1a565b6040516103da9190612346565b60405180910390f35b3480156103ef57600080fd5b5061040a600480360381019061040591906122eb565b610f16565b6040516104179190612346565b60405180910390f35b34801561042c57600080fd5b50610447600480360381019061044291906122eb565b611001565b6040516104549190612346565b60405180910390f35b34801561046957600080fd5b50610484600480360381019061047f9190612415565b61101f565b6040516104919190612346565b60405180910390f35b6104b460048036038101906104af919061252d565b6111a1565b6040516104c19190612346565b60405180910390f35b3480156104d657600080fd5b506104f160048036038101906104ec9190612580565b61166f565b6040516104fe9190612370565b60405180910390f35b610521600480360381019061051c91906124ed565b6116f6565b60405161052e9190612346565b60405180910390f35b606060038054610546906125ef565b80601f0160208091040260200160405190810160405280929190818152602001828054610572906125ef565b80156105bf5780601f10610594576101008083540402835291602001916105bf565b820191906000526020600020905b8154815290600101906020018083116105a257829003601f168201915b5050505050905090565b60006105dd6105d6611aa3565b8484611aab565b6001905092915050565b6000600254905090565b60006105fe848484611c74565b6000600160008673ffffffffffffffffffffffffffffffffffffffff1673ffffffffffffffffffffffffffffffffffffffff1681526020019081526020016000206000610649611aa3565b73ffffffffffffffffffffffffffffffffffffffff1673ffffffffffffffffffffffffffffffffffffffff168152602001908152602001600020549050828110156106c9576040517f08c379a00000000000000000000000000000000000000000000000000000000081526004016106c090612692565b60405180910390fd5b6106dd856106d5611aa3565b858403611aab565b60019150509392505050565b60006012905090565b600d602052816000526040600020602052806000526040600020600091509150505481565b60006107b9610724611aa3565b848460016000610732611aa3565b73ffffffffffffffffffffffffffffffffffffffff1673ffffffffffffffffffffffffffffffffffffffff16815260200190815260200160002060008873ffffffffffffffffffffffffffffffffffffffff1673ffffffffffffffffffffffffffffffffffffffff168152602001908152602001600020546107b491906126e1565b611aab565b6001905092915050565b600e81815481106107d357600080fd5b90600052602060002090600702016000915090508060000154908060010160009054906101000a900473ffffffffffffffffffffffffffffffffffffffff16908060020154908060030154908060040154908060050154908060060154905087565b60008060008373ffffffffffffffffffffffffffffffffffffffff1673ffffffffffffffffffffffffffffffffffffffff168152602001908152602001600020549050919050565b600066038d7ea4c68000836108929190612737565b34101561089e57600080fd5b6000670de0b6b3a7640000846108b49190612737565b9050600e600d60003373ffffffffffffffffffffffffffffffffffffffff1673ffffffffffffffffffffffffffffffffffffffff1681526020019081526020016000206000600c60003373ffffffffffffffffffffffffffffffffffffffff1673ffffffffffffffffffffffffffffffffffffffff168152602001908152602001600020548152602001908152602001600020548154811061095957610958612791565b5b90600052602060002090600702016002015481111561097757600080fd5b80600e848154811061098c5761098b612791565b5b906000526020600020906007020160020160008282546109ac91906127c0565b925050819055508060056109c09190612737565b600e84815481106109d4576109d3612791565b5b906000526020600020906007020160060160008282546109f491906127c0565b925050819055506000610a15826011546064610a109190612823565b611ef3565b9050600560009054906101000a900473ffffffffffffffffffffffffffffffffffffffff1673ffffffffffffffffffffffffffffffffffffffff1663a9059cbb338385610a6291906127c0565b6040518363ffffffff1660e01b8152600401610a7f9291906128b3565b6020604051808303816000875af1158015610a9e573d6000803e3d6000fd5b505050506040513d601f19601f82011682018060405250810190610ac29190612908565b50600560009054906101000a900473ffffffffffffffffffffffffffffffffffffffff1673ffffffffffffffffffffffffffffffffffffffff1663a9059cbb30836040518363ffffffff1660e01b8152600401610b209291906128b3565b6020604051808303816000875af1158015610b3f573d6000803e3d6000fd5b505050506040513d601f19601f82011682018060405250810190610b639190612908565b5060019250505092915050565b600c6020528060005260406000206000915090505481565b606060048054610b97906125ef565b80601f0160208091040260200160405190810160405280929190818152602001828054610bc3906125ef565b8015610c105780601f10610be557610100808354040283529160200191610c10565b820191906000526020600020905b815481529060010190602001808311610bf357829003601f168201915b5050505050905090565b6000600a60009054906101000a900473ffffffffffffffffffffffffffffffffffffffff1673ffffffffffffffffffffffffffffffffffffffff163373ffffffffffffffffffffffffffffffffffffffff1614610c7657600080fd5b610c7f30610835565b670de0b6b3a764000084610c939190612737565b1115610c9e57600080fd5b600560009054906101000a900473ffffffffffffffffffffffffffffffffffffffff1673ffffffffffffffffffffffffffffffffffffffff166370a08231306040518263ffffffff1660e01b8152600401610cf99190612935565b602060405180830381865afa158015610d16573d6000803e3d6000fd5b505050506040513d601f19601f82011682018060405250810190610d3a9190612965565b670de0b6b3a764000083610d4e9190612737565b1115610d5957600080fd5b47670de0b6b3a764000085610d6e9190612737565b1115610d7957600080fd5b610db8600a60009054906101000a900473ffffffffffffffffffffffffffffffffffffffff16670de0b6b3a764000085610db39190612737565b611001565b50600560009054906101000a900473ffffffffffffffffffffffffffffffffffffffff1673ffffffffffffffffffffffffffffffffffffffff1663a9059cbb600a60009054906101000a900473ffffffffffffffffffffffffffffffffffffffff16670de0b6b3a764000085610e2e9190612737565b6040518363ffffffff1660e01b8152600401610e4b9291906128b3565b6020604051808303816000875af1158015610e6a573d6000803e3d6000fd5b505050506040513d601f19601f82011682018060405250810190610e8e9190612908565b50600a60009054906101000a900473ffffffffffffffffffffffffffffffffffffffff1673ffffffffffffffffffffffffffffffffffffffff166108fc670de0b6b3a764000086610edf9190612737565b9081150290604051600060405180830381858888f19350505050158015610f0a573d6000803e3d6000fd5b50600190509392505050565b60008060016000610f25611aa3565b73ffffffffffffffffffffffffffffffffffffffff1673ffffffffffffffffffffffffffffffffffffffff16815260200190815260200160002060008573ffffffffffffffffffffffffffffffffffffffff1673ffffffffffffffffffffffffffffffffffffffff16815260200190815260200160002054905082811015610fe2576040517f08c379a0000000000000000000000000000000000000000000000000000000008152600401610fd990612a04565b60405180910390fd5b610ff6610fed611aa3565b85858403611aab565b600191505092915050565b600061101561100e611aa3565b8484611c74565b6001905092915050565b600080600d60003373ffffffffffffffffffffffffffffffffffffffff1673ffffffffffffffffffffffffffffffffffffffff168152602001908152602001600020600084815260200190815260200160002054905060008061108183611f24565b9150915081670de0b6b3a7640000111561109a57600080fd5b81600e84815481106110af576110ae612791565b5b906000526020600020906007020160060160008282546110cf91906127c0565b9250508190555042600e84815481106110eb576110ea612791565b5b906000526020600020906007020160040181905550600061111a8260115460646111159190612823565b611ef3565b905080600e858154811061113157611130612791565b5b9060005260206000209060070201600501600082825461115191906126e1565b92505081905550600061117284601154606461116d9190612823565b611ef3565b905061118933828661118491906127c0565b61202e565b611193308261202e565b600195505050505050919050565b6000655af3107a4000846111b59190612737565b3410156111f7576040517f08c379a00000000000000000000000000000000000000000000000000000000081526004016111ee90612a70565b60405180910390fd5b600560009054906101000a900473ffffffffffffffffffffffffffffffffffffffff1673ffffffffffffffffffffffffffffffffffffffff166370a08231336040518263ffffffff1660e01b81526004016112529190612935565b602060405180830381865afa15801561126f573d6000803e3d6000fd5b505050506040513d601f19601f820116820180604052508101906112939190612965565b8411156112d5576040517f08c379a00000000000000000000000000000000000000000000000000000000081526004016112cc90612adc565b60405180910390fd5b6009546007546112e591906127c0565b670de0b6b3a76400008560056112fb9190612737565b6113059190612737565b1115611346576040517f08c379a000000000000000000000000000000000000000000000000000000000815260040161133d90612b48565b60405180910390fd5b600e6040518060e0016040528060105481526020013373ffffffffffffffffffffffffffffffffffffffff168152602001670de0b6b3a76400008761138b9190612737565b8152602001858152602001428152602001848152602001670de0b6b3a76400008760056113b89190612737565b6113c29190612737565b81525090806001815401808255809150506001900390600052602060002090600702016000909190919091506000820151816000015560208201518160010160006101000a81548173ffffffffffffffffffffffffffffffffffffffff021916908373ffffffffffffffffffffffffffffffffffffffff16021790555060408201518160020155606082015181600301556080820151816004015560a0820151816005015560c082015181600601555050670de0b6b3a76400008460056114899190612737565b6114939190612737565b600960008282546114a491906126e1565b92505081905550601054600d60003373ffffffffffffffffffffffffffffffffffffffff1673ffffffffffffffffffffffffffffffffffffffff1681526020019081526020016000206000600c60003373ffffffffffffffffffffffffffffffffffffffff1673ffffffffffffffffffffffffffffffffffffffff16815260200190815260200160002054815260200190815260200160002081905550600c60003373ffffffffffffffffffffffffffffffffffffffff1673ffffffffffffffffffffffffffffffffffffffff168152602001908152602001600020600081548092919061159190612b68565b9190505550600560009054906101000a900473ffffffffffffffffffffffffffffffffffffffff1673ffffffffffffffffffffffffffffffffffffffff166323b872dd3330670de0b6b3a7640000886115ea9190612737565b6040518463ffffffff1660e01b815260040161160893929190612bb0565b6020604051808303816000875af1158015611627573d6000803e3d6000fd5b505050506040513d601f19601f8201168201806040525081019061164b9190612908565b506010600081548092919061165f90612b68565b9190505550600190509392505050565b6000600160008473ffffffffffffffffffffffffffffffffffffffff1673ffffffffffffffffffffffffffffffffffffffff16815260200190815260200160002060008373ffffffffffffffffffffffffffffffffffffffff1673ffffffffffffffffffffffffffffffffffffffff16815260200190815260200160002054905092915050565b6000655af3107a40008361170a9190612737565b34101561171657600080fd5b600560009054906101000a900473ffffffffffffffffffffffffffffffffffffffff1673ffffffffffffffffffffffffffffffffffffffff166370a08231336040518263ffffffff1660e01b81526004016117719190612935565b602060405180830381865afa15801561178e573d6000803e3d6000fd5b505050506040513d601f19601f820116820180604052508101906117b29190612965565b8311156117be57600080fd5b6000670de0b6b3a7640000846117d49190612737565b90506009546007546117e691906127c0565b8160056117f39190612737565b11156117fe57600080fd5b6000816118316064600e878154811061181a57611819612791565b5b906000526020600020906007020160020154611ef3565b61183b9190612737565b905081600e858154811061185257611851612791565b5b9060005260206000209060070201600201600082825461187291906126e1565b925050819055508160056118869190612737565b600e858154811061189a57611899612791565b5b906000526020600020906007020160060160008282546118ba91906126e1565b9250508190555080600e85815481106118d6576118d5612791565b5b9060005260206000209060070201600501546118f29190612737565b600e858154811061190657611905612791565b5b9060005260206000209060070201600501600082825461192691906126e1565b9250508190555060006119478360115460646119429190612823565b611ef3565b9050600560009054906101000a900473ffffffffffffffffffffffffffffffffffffffff1673ffffffffffffffffffffffffffffffffffffffff1663a9059cbb30838661199491906127c0565b6040518363ffffffff1660e01b81526004016119b19291906128b3565b6020604051808303816000875af11580156119d0573d6000803e3d6000fd5b505050506040513d601f19601f820116820180604052508101906119f49190612908565b50600560009054906101000a900473ffffffffffffffffffffffffffffffffffffffff1673ffffffffffffffffffffffffffffffffffffffff1663a9059cbb30836040518363ffffffff1660e01b8152600401611a529291906128b3565b6020604051808303816000875af1158015611a71573d6000803e3d6000fd5b505050506040513d601f19601f82011682018060405250810190611a959190612908565b506001935050505092915050565b600033905090565b600073ffffffffffffffffffffffffffffffffffffffff168373ffffffffffffffffffffffffffffffffffffffff1603611b1a576040517f08c379a0000000000000000000000000000000000000000000000000000000008152600401611b1190612c59565b60405180910390fd5b600073ffffffffffffffffffffffffffffffffffffffff168273ffffffffffffffffffffffffffffffffffffffff1603611b89576040517f08c379a0000000000000000000000000000000000000000000000000000000008152600401611b8090612ceb565b60405180910390fd5b80600160008573ffffffffffffffffffffffffffffffffffffffff1673ffffffffffffffffffffffffffffffffffffffff16815260200190815260200160002060008473ffffffffffffffffffffffffffffffffffffffff1673ffffffffffffffffffffffffffffffffffffffff168152602001908152602001600020819055508173ffffffffffffffffffffffffffffffffffffffff168373ffffffffffffffffffffffffffffffffffffffff167f8c5be1e5ebec7d5bd14f71427d1e84f3dd0314c0f7b2291e5b200ac8c7c3b92583604051611c679190612370565b60405180910390a3505050565b600073ffffffffffffffffffffffffffffffffffffffff168373ffffffffffffffffffffffffffffffffffffffff1603611ce3576040517f08c379a0000000000000000000000000000000000000000000000000000000008152600401611cda90612d7d565b60405180910390fd5b600073ffffffffffffffffffffffffffffffffffffffff168273ffffffffffffffffffffffffffffffffffffffff1603611d52576040517f08c379a0000000000000000000000000000000000000000000000000000000008152600401611d4990612e0f565b60405180910390fd5b611d5d83838361218d565b60008060008573ffffffffffffffffffffffffffffffffffffffff1673ffffffffffffffffffffffffffffffffffffffff16815260200190815260200160002054905081811015611de3576040517f08c379a0000000000000000000000000000000000000000000000000000000008152600401611dda90612ea1565b60405180910390fd5b8181036000808673ffffffffffffffffffffffffffffffffffffffff1673ffffffffffffffffffffffffffffffffffffffff16815260200190815260200160002081905550816000808573ffffffffffffffffffffffffffffffffffffffff1673ffffffffffffffffffffffffffffffffffffffff1681526020019081526020016000206000828254611e7691906126e1565b925050819055508273ffffffffffffffffffffffffffffffffffffffff168473ffffffffffffffffffffffffffffffffffffffff167fddf252ad1be2c89b69c2b068fc378daa952ba7f163c4a11628f55a4df523b3ef84604051611eda9190612370565b60405180910390a3611eed848484612192565b50505050565b6000808284611f029190612ec1565b9050828185611f1191906127c0565b611f1b9190612823565b91505092915050565b600080600061016d6018603c80600e8881548110611f4557611f44612791565b5b906000526020600020906007020160050154611f619190612737565b611f6b9190612737565b611f759190612737565b611f7f9190612737565b90506000600e8581548110611f9757611f96612791565b5b90600052602060002090600702016004015442611fb491906127c0565b9050600081611fcc68056bc75e2d6310000085611ef3565b611fd69190612737565b905060008161201368056bc75e2d63100000600e8a81548110611ffc57611ffb612791565b5b906000526020600020906007020160060154611ef3565b61201d9190612737565b905080839550955050505050915091565b600073ffffffffffffffffffffffffffffffffffffffff168273ffffffffffffffffffffffffffffffffffffffff160361209d576040517f08c379a000000000000000000000000000000000000000000000000000000000815260040161209490612f3e565b60405180910390fd5b6120a96000838361218d565b80600260008282546120bb91906126e1565b92505081905550806000808473ffffffffffffffffffffffffffffffffffffffff1673ffffffffffffffffffffffffffffffffffffffff168152602001908152602001600020600082825461211091906126e1565b925050819055508173ffffffffffffffffffffffffffffffffffffffff16600073ffffffffffffffffffffffffffffffffffffffff167fddf252ad1be2c89b69c2b068fc378daa952ba7f163c4a11628f55a4df523b3ef836040516121759190612370565b60405180910390a361218960008383612192565b5050565b505050565b505050565b600081519050919050565b600082825260208201905092915050565b60005b838110156121d15780820151818401526020810190506121b6565b838111156121e0576000848401525b50505050565b6000601f19601f8301169050919050565b600061220282612197565b61220c81856121a2565b935061221c8185602086016121b3565b612225816121e6565b840191505092915050565b6000602082019050818103600083015261224a81846121f7565b905092915050565b600080fd5b600073ffffffffffffffffffffffffffffffffffffffff82169050919050565b600061228282612257565b9050919050565b61229281612277565b811461229d57600080fd5b50565b6000813590506122af81612289565b92915050565b6000819050919050565b6122c8816122b5565b81146122d357600080fd5b50565b6000813590506122e5816122bf565b92915050565b6000806040838503121561230257612301612252565b5b6000612310858286016122a0565b9250506020612321858286016122d6565b9150509250929050565b60008115159050919050565b6123408161232b565b82525050565b600060208201905061235b6000830184612337565b92915050565b61236a816122b5565b82525050565b60006020820190506123856000830184612361565b92915050565b6000806000606084860312156123a4576123a3612252565b5b60006123b2868287016122a0565b93505060206123c3868287016122a0565b92505060406123d4868287016122d6565b9150509250925092565b600060ff82169050919050565b6123f4816123de565b82525050565b600060208201905061240f60008301846123eb565b92915050565b60006020828403121561242b5761242a612252565b5b6000612439848285016122d6565b91505092915050565b61244b81612277565b82525050565b600060e082019050612466600083018a612361565b6124736020830189612442565b6124806040830188612361565b61248d6060830187612361565b61249a6080830186612361565b6124a760a0830185612361565b6124b460c0830184612361565b98975050505050505050565b6000602082840312156124d6576124d5612252565b5b60006124e4848285016122a0565b91505092915050565b6000806040838503121561250457612503612252565b5b6000612512858286016122d6565b9250506020612523858286016122d6565b9150509250929050565b60008060006060848603121561254657612545612252565b5b6000612554868287016122d6565b9350506020612565868287016122d6565b9250506040612576868287016122d6565b9150509250925092565b6000806040838503121561259757612596612252565b5b60006125a5858286016122a0565b92505060206125b6858286016122a0565b9150509250929050565b7f4e487b7100000000000000000000000000000000000000000000000000000000600052602260045260246000fd5b6000600282049050600182168061260757607f821691505b60208210810361261a576126196125c0565b5b50919050565b7f45524332303a207472616e7366657220616d6f756e742065786365656473206160008201527f6c6c6f77616e6365000000000000000000000000000000000000000000000000602082015250565b600061267c6028836121a2565b915061268782612620565b604082019050919050565b600060208201905081810360008301526126ab8161266f565b9050919050565b7f4e487b7100000000000000000000000000000000000000000000000000000000600052601160045260246000fd5b60006126ec826122b5565b91506126f7836122b5565b9250827fffffffffffffffffffffffffffffffffffffffffffffffffffffffffffffffff0382111561272c5761272b6126b2565b5b828201905092915050565b6000612742826122b5565b915061274d836122b5565b9250817fffffffffffffffffffffffffffffffffffffffffffffffffffffffffffffffff0483118215151615612786576127856126b2565b5b828202905092915050565b7f4e487b7100000000000000000000000000000000000000000000000000000000600052603260045260246000fd5b60006127cb826122b5565b91506127d6836122b5565b9250828210156127e9576127e86126b2565b5b828203905092915050565b7f4e487b7100000000000000000000000000000000000000000000000000000000600052601260045260246000fd5b600061282e826122b5565b9150612839836122b5565b925082612849576128486127f4565b5b828204905092915050565b6000819050919050565b600061287961287461286f84612257565b612854565b612257565b9050919050565b600061288b8261285e565b9050919050565b600061289d82612880565b9050919050565b6128ad81612892565b82525050565b60006040820190506128c860008301856128a4565b6128d56020830184612361565b9392505050565b6128e58161232b565b81146128f057600080fd5b50565b600081519050612902816128dc565b92915050565b60006020828403121561291e5761291d612252565b5b600061292c848285016128f3565b91505092915050565b600060208201905061294a6000830184612442565b92915050565b60008151905061295f816122bf565b92915050565b60006020828403121561297b5761297a612252565b5b600061298984828501612950565b91505092915050565b7f45524332303a2064656372656173656420616c6c6f77616e63652062656c6f7760008201527f207a65726f000000000000000000000000000000000000000000000000000000602082015250565b60006129ee6025836121a2565b91506129f982612992565b604082019050919050565b60006020820190508181036000830152612a1d816129e1565b9050919050565b7f6e6f7420656e6f7567682066756e647320666f72206173736574000000000000600082015250565b6000612a5a601a836121a2565b9150612a6582612a24565b602082019050919050565b60006020820190508181036000830152612a8981612a4d565b9050919050565b7f696e73756666696369656e742062616c616e6365000000000000000000000000600082015250565b6000612ac66014836121a2565b9150612ad182612a90565b602082019050919050565b60006020820190508181036000830152612af581612ab9565b9050919050565b7f696e73756666696369656e7420737570706c7900000000000000000000000000600082015250565b6000612b326013836121a2565b9150612b3d82612afc565b602082019050919050565b60006020820190508181036000830152612b6181612b25565b9050919050565b6000612b73826122b5565b91507fffffffffffffffffffffffffffffffffffffffffffffffffffffffffffffffff8203612ba557612ba46126b2565b5b600182019050919050565b6000606082019050612bc56000830186612442565b612bd260208301856128a4565b612bdf6040830184612361565b949350505050565b7f45524332303a20617070726f76652066726f6d20746865207a65726f2061646460008201527f7265737300000000000000000000000000000000000000000000000000000000602082015250565b6000612c436024836121a2565b9150612c4e82612be7565b604082019050919050565b60006020820190508181036000830152612c7281612c36565b9050919050565b7f45524332303a20617070726f766520746f20746865207a65726f20616464726560008201527f7373000000000000000000000000000000000000000000000000000000000000602082015250565b6000612cd56022836121a2565b9150612ce082612c79565b604082019050919050565b60006020820190508181036000830152612d0481612cc8565b9050919050565b7f45524332303a207472616e736665722066726f6d20746865207a65726f20616460008201527f6472657373000000000000000000000000000000000000000000000000000000602082015250565b6000612d676025836121a2565b9150612d7282612d0b565b604082019050919050565b60006020820190508181036000830152612d9681612d5a565b9050919050565b7f45524332303a207472616e7366657220746f20746865207a65726f206164647260008201527f6573730000000000000000000000000000000000000000000000000000000000602082015250565b6000612df96023836121a2565b9150612e0482612d9d565b604082019050919050565b60006020820190508181036000830152612e2881612dec565b9050919050565b7f45524332303a207472616e7366657220616d6f756e742065786365656473206260008201527f616c616e63650000000000000000000000000000000000000000000000000000602082015250565b6000612e8b6026836121a2565b9150612e9682612e2f565b604082019050919050565b60006020820190508181036000830152612eba81612e7e565b9050919050565b6000612ecc826122b5565b9150612ed7836122b5565b925082612ee757612ee66127f4565b5b828206905092915050565b7f45524332303a206d696e7420746f20746865207a65726f206164647265737300600082015250565b6000612f28601f836121a2565b9150612f3382612ef2565b602082019050919050565b60006020820190508181036000830152612f5781612f1b565b905091905056fea2646970667358221220fab2a22f306d114fad7528570c7e38030a007f23ea1021fd2635617dd2ff726264736f6c634300080f0033",
  "immutableReferences": {},
  "source": "// SPDX-License-Identifier: GPL-3.0\n// // // // // // // // // // // // // // // // // // // // // // // // // // // // // // // // // // // // // // // // // // // // // // // // // // // // // // // // // // // // //\n//\n//              .d8888.  .d88b.  db    db d888888b d88888b d888888b db    db\n//              88'  YP .8P  88. `8b  d8'   `88'   88'     `~~88~~' `8b  d8'\n//              `8bo.   88  d'88  `8bd8'     88    88ooooo    88     `8bd8'\n//                `Y8b. 88 d' 88  .dPYb.     88    88~~~~~    88       88\n//              db   8D `88  d8' .8P  Y8.   .88.   88.        88       88\n//              `8888Y'  `Y88P'  YP    YP Y888888P Y88888P    YP       YP\n//\n// // // // // // // // // // // // // // // // // // // // // // // // // // // // // // // // // // // // // // // // // // // // // // // // // // // // // // // // // // // // //\n//                                                                                                                                                                                  //\n//      @dev            ::              stereoIII6.dao                                                                                                                                          //\n//      @msg            ::              type.stereo@pm.me                                                                                                                                    //\n//      @github         ::              @stereoIII6\n//      @twitter        ::              @stereoIII6                                                                                                                                              //\n//                                                                                                                                                                                  //\n// // // // // // // // // // // // // // // // // // // // // // // // // // // // // // // // // // // // // // // // // // // // // // // // // // // // // // // // // // // // //\n//                                                                                                                                                                                  //\n//      @dev            ::              Juan Xavier Valverde                                                                                                                                    //\n//      @msg            ::              juanxaviervm@hotmail.com                                                                                                                               //\n//      @twitter        ::              @JuanXavier                                                                                                                                             //\n//      @github         ::              @JuanXavier                                                                                                                                             //\n//                                                                                                                                                                                  //                                                                                                                                                                                 //\n// // // // // // // // // // // // // // // // // // // // // // // // // // // // // // // // // // // // // // // // // // // // // // // // // // // // // // // // // // // // //\n//  *   *   *   *   *   *   *   *   *   *   *   *   *   *   *   *   *   *   *   *   *   *   *   *   *   *   *   *   *   *   *   *   *   *   *   *   *   *   *   *   *   *   *   *   //\n// // // // // // // // // // // // // // // // // // // // // // // // // // // // // // // // // // // // // // // // // // // // // // // // // // // // // // // // // // // // //\n//                                                                                                                                                                                  //\n//                                                                                                                                                                                  //\n//      @title          ::              s0xiety Connect                                                                                                                             //\n//      @description    ::              decentral s0xiety                                                                                                                           //\n//      @version        ::              0.0.1                                                                                                                                       //\n//      @purpose        ::              Refer friennds on the blockchain                                                                                                            //\n//                                                                                                                                                                                  //\n//                                                                                                                                                                                  //\n//                                                                                                                                                                                  //\n//                                                                                                                                                                                  //\n//                                                                                                                                                                                  //\n// // // // // // // // // // // // // // // // // // // // // // // // // // // // // // // // // // // // // // // // // // // // // // // // // // // // // // // // // // // // //\n//  *   *   *   *   *   *   *   *   *   *   *   *   *   *   *   *   *   *   *   *   *   *   *   *   *   *   *   *   *   *   *   *   *   *   *   *   *   *   *   *   *   *   *   *   //\n// // // // // // // // // // // // // // // // // // // // // // // // // // // // // // // // // // // // // // // // // // // // // // // // // // // // // // // // // // // // //\n/*\n\n MOCK USER TAG ::: \"{'name':'s0x user','email':'type.stereo@pm.me','image':'https://ipfs.io/ipfs/QmXNciGvGJGRV2HHE82oLoicvwatB8sqsydxn7P3NSP1nW'}\"\n\n*/\n\n/* \n\nINSTRUCTIONS \n\n*/\npragma solidity ^0.8.7;\n\n// Open Zeppelin Imports\nimport \"@openzeppelin/contracts/utils/Counters.sol\";\nimport \"@openzeppelin/contracts/utils/Strings.sol\";\n\nimport \"@openzeppelin/contracts/token/ERC20/ERC20.sol\";\nimport \"@openzeppelin/contracts/token/ERC20/IERC20.sol\";\n\n// import \"@openzeppelin/contracts/token/ERC721/extensions/ERC721URIStorage.sol\";\nimport \"@openzeppelin/contracts/token/ERC721/ERC721.sol\";\nimport \"@openzeppelin/contracts/token/ERC721/IERC721.sol\";\n\nimport \"@openzeppelin/contracts/token/ERC1155/ERC1155.sol\";\n\n// mathematical function for conglomerate\ncontract MathFnx {\n    // division function for solidity\n    function divide(uint256 _a, uint256 _b) internal pure returns (uint256) {\n        uint256 rem = _a % _b;\n        return ((_a - rem) / _b);\n    }\n\n    // generates unique id nr\n    function uniqID(string memory _inf) internal pure returns (uint256) {\n        bytes32 BHash = keccak256(abi.encode(_inf));\n        return uint256(BHash);\n    }\n\n    // gives back the smaller wallet address\n    function smaller(address _a, address _b)\n        internal\n        pure\n        returns (address s, address l)\n    {\n        if (_a < _b) {\n            s = _a;\n            l = _b;\n        } else if (_a > _b) {\n            s = _b;\n            l = _a;\n        }\n    }\n}\n\n// user data storage for conglomerate\ncontract Users {\n    address private s0x; // s0x admin\n\n    constructor() {\n        s0x = msg.sender; // admin initialization\n        makeUser(\n            s0x,\n            '{\"name\":\"s0x admin\",\"email\":\"type.stereo@pm.me\",\"image\":\"https://ipfs.io/ipfs/QmXNciGvGJGRV2HHE82oLoicvwatB8sqsydxn7P3NSP1nW\"}',\n            99\n        ); // admin user account setup\n    }\n\n    struct Impact {\n        uint256 action;\n        uint256 connection;\n        uint256 liquidity;\n    }\n    // user profile array // user# => dias%\n    mapping(address => bytes) public users;\n    mapping(address => bool) private isUser;\n    // role // user# => role$\n    mapping(address => uint256) private roles;\n    // only admin allowed function modifier\n    mapping(address => Impact) public impx;\n    modifier isAdmin() {\n        require(msg.sender == s0x);\n        _;\n    }\n\n    // takes address , dias , and role to create and store a user profile in user mapping\n    function makeUser(\n        address _adr,\n        bytes memory _dias,\n        uint256 _r\n    ) internal returns (bool) {\n        users[_adr] = _dias;\n        roles[_adr] = _r;\n        impx[_adr] = Impact(0, 0, 0);\n        return true;\n    }\n\n    // takes dias to create guest user profile\n    function createUserAccount(string memory _dias, address _user)\n        external\n        returns (bool)\n    {\n        return makeUser(_user, bytes(_dias), 2);\n    }\n\n    // takes address , dias , and role to admin edit and store a user profile in user mapping\n    function adminEditUser(\n        address _adr,\n        string memory _dias,\n        uint256 _r\n    ) external isAdmin returns (bool) {\n        return makeUser(_adr, bytes(_dias), _r);\n    }\n\n    // takes address , dias , and role to edit and store your user profile in user mapping\n    function editUser(string memory _dias) external returns (bool) {\n        return makeUser(msg.sender, bytes(_dias), 2);\n    }\n\n    // shows user dias by address input\n    function showUser(address _adr) external view returns (string memory) {\n        return string(users[_adr]);\n    }\n\n    function showImpx(address _adr)\n        external\n        view\n        returns (\n            uint256,\n            uint256,\n            uint256\n        )\n    {\n        return (impx[_adr].action, impx[_adr].connection, impx[_adr].liquidity);\n    }\n\n    // shows role by address input\n    function getRole(address _adr) external view returns (uint256) {\n        return roles[_adr];\n    }\n\n    function isU(address _adr) external view returns (bool) {\n        return isUser[_adr];\n    }\n}\n\ncontract Friends is MathFnx {\n    Users private user;\n    // frenz // you# => frenz# => isfriend?\n    mapping(address => mapping(address => bool)) public frenz; // people following you\n    // degenz // you# => degenz# => isfriend?\n    mapping(address => mapping(address => bool)) public degenz; // people you follow\n    // connection bool // smaller# => bigger# => friends$ // friends : $0=unrelated, $1=hype, $2=nest\n    uint256 c;\n    mapping(address => mapping(address => uint256)) public connection;\n    mapping(address => uint256) public frenzCount;\n    mapping(address => uint256) public degenzCount;\n    mapping(address => mapping(uint256 => address)) public frenzByCount;\n    // user degenerated you\n    modifier degenerated(address _adr) {\n        require(degenz[msg.sender][_adr] == true || msg.sender == _adr); // do you follow or is it yourself\n        _;\n    }\n    // user frenzonned you\n    modifier frenzoned(address _adr) {\n        require(frenz[_adr][msg.sender] || msg.sender == _adr); // is he following or is it yourself\n        _;\n    }\n\n    constructor(address _usrAdr) {\n        user = Users(_usrAdr);\n        c = 1;\n    }\n\n    function showMe() external view returns (string memory) {\n        return user.showUser(msg.sender);\n    }\n\n    function showYou(address _adr) external view returns (string memory) {\n        return user.showUser(_adr);\n    }\n\n    function getRole(address _adr) external view returns (uint256) {\n        return user.getRole(_adr);\n    }\n\n    function follow(address _adr, address _sender) external returns (uint256) {\n        degenz[_adr][_sender] = true;\n        degenzCount[_adr]++;\n        frenz[_sender][_adr] = true;\n        frenzByCount[_sender][frenzCount[_sender]] = _adr;\n        frenzCount[_sender]++;\n        (address s, address l) = smaller(_adr, _sender);\n        if (connection[s][l] == 0) {\n            connection[s][l] = c;\n            c++;\n            return (connection[s][l]);\n        } else return (connection[s][l]);\n    }\n\n    function doShowStatus(address _adr, address _sender)\n        external\n        view\n        returns (\n            uint256,\n            bool,\n            bool,\n            address,\n            address\n        )\n    {\n        (address s, address l) = smaller(_adr, _sender);\n        return (\n            connection[s][l],\n            frenz[_sender][_adr],\n            degenz[_sender][_adr],\n            s,\n            l\n        );\n    }\n\n    function doFrenzCount(address _adr) external view returns (uint256) {\n        return frenzCount[_adr];\n    }\n\n    function doDegenzCount(address _adr) external view returns (uint256) {\n        return degenzCount[_adr];\n    }\n\n    function doShowFrenz(address _adr, uint256 _c)\n        external\n        view\n        returns (address)\n    {\n        return frenzByCount[_adr][_c];\n    }\n\n    function isFrenz(address _a, address _b) external view returns (bool) {\n        return frenz[_a][_b];\n    }\n}\n\n// groups contract stores groupmembers , posts and comments inside the group on chain\ncontract Groups is MathFnx {\n    Users private user; // user contract reference\n    Friends private friend; // friend contract reference\n    address public owner; // owner address\n    string public name; // group name\n    uint256 private m; // member count\n    uint256 private state; // 0-private (no invite), 1-bothchecked, 2-ulike, 3-likeu, 4-bothcheckedofulike, 5-public, 9-secret, 99-admin\n    mapping(uint256 => address) public members; // address by id\n    mapping(address => uint256) public mNum; // id by address\n    uint256 private c; // content count\n    mapping(address => uint256) public myContent; // content count by address\n    mapping(address => mapping(uint256 => bytes)) public content; // content by address => myContent counter\n    mapping(uint256 => bytes) public cntnt; // contentt by cid\n    mapping(uint256 => uint256) public r; // replys by cntnt id c\n    mapping(uint256 => mapping(uint256 => bytes)) public replys; // replys by cid => rply id => reply content\n    mapping(address => uint256) public myRplyCount; // reply count  by useraddress\n    mapping(address => mapping(uint256 => bytes)) public myReplys; // reply content by address and myrplycount\n    mapping(address => bool) public invite;\n\n    constructor(\n        address _user,\n        address _friend,\n        bytes memory _name,\n        uint256 _state,\n        address _o\n    ) {\n        state = _state;\n        user = Users(_user);\n        friend = Friends(_friend);\n        owner = _o;\n        name = string(_name);\n    }\n\n    function addUser(address _adr) external returns (address) {\n        if (state == 0)\n            require(m < 2); // private state one allows 2 users only\n            // require(user.isU(msg.sender) == true);\n            // require(user.isU(_adr) == true);\n        else if (state == 1) {\n            require(friend.isFrenz(owner, _adr));\n            require(friend.isFrenz(_adr, owner));\n        } // only degenz&frenz allowed\n        /*\n        else if(state == 2) {\n          require(friend.isFrenz(owner, _adr));  \n        } // only frenz people you like\n        else if(state == 3) {\n          require(friend.isFrenz(_adr, owner));  \n        } // only degenz people who like you\n        else if(state == 4) {\n            require(friend.isFrenz(msg.sender, _adr));\n            require(friend.isFrenz(_adr, msg.sender));\n        } // only degenz&frenz allowed\n\n        else if(state == 9) require(invite[_adr] == true);\n        else if(state == 99) require(friend.getRole(msg.sender) == 99);\n        */\n        members[m] = _adr;\n        mNum[_adr] = m;\n        m++;\n        return _adr;\n    }\n\n    function removeUser(address _adr) external returns (address) {\n        require(state != 0);\n        members[mNum[_adr]] = 0x0000000000000000000000000000000000000000;\n        mNum[_adr] = 0;\n        return _adr;\n    }\n\n    function addContent(string memory _cnt) external returns (string memory) {\n        content[msg.sender][myContent[msg.sender]] = bytes(_cnt);\n        myContent[msg.sender]++;\n        cntnt[c] = bytes(_cnt);\n        c++;\n        return _cnt;\n    }\n\n    function addReplyToContent(string memory _rply, uint256 _c)\n        external\n        returns (uint256)\n    {\n        replys[_c][r[_c]] = bytes(_rply);\n        myReplys[msg.sender][myRplyCount[msg.sender]] = bytes(_rply);\n        myRplyCount[msg.sender]++;\n        return r[_c]++;\n    }\n}\n\n// allows users to create groups\ncontract s0xFactory is Users, MathFnx {\n    Friends public friends;\n    Groups public groups;\n    MLQ public mlq;\n    address private fAdr;\n    mapping(address => uint256) public groupCount;\n    mapping(address => mapping(uint256 => address)) public groupByCount;\n\n    constructor(address _mlq) Users() MathFnx() {\n        mlq = MLQ(_mlq);\n        friends = new Friends(address(this));\n        fAdr = address(friends);\n    }\n\n    function createGroup(string memory _name, uint256 _state)\n        external\n        returns (address)\n    {\n        groups = new Groups(\n            address(this),\n            fAdr,\n            bytes(_name),\n            _state,\n            msg.sender\n        );\n        groupByCount[msg.sender][groupCount[msg.sender]] = address(groups);\n        groupCount[msg.sender]++;\n        return address(groups);\n    }\n\n    function createConvo(\n        address _to,\n        address _from,\n        string memory _msg\n    ) external returns (address) {\n        (address s, address l) = smaller(_to, _from);\n        return makeConvo(s, l, _msg, _from);\n    }\n\n    function makeConvo(\n        address _s,\n        address _l,\n        string memory _name,\n        address _from\n    ) internal returns (address) {\n        groups = new Groups(address(this), fAdr, bytes(_name), 0, _from);\n        groupByCount[_s][groupCount[_s]] = address(groups);\n        groupByCount[_l][groupCount[_l]] = address(groups);\n        groupCount[_s]++;\n        groupCount[_l]++;\n        groups.addUser(_s);\n        groups.addUser(_l);\n        return address(groups);\n    }\n\n    function followAdr(address _adr) external returns (uint256) {\n        return friends.follow(_adr, msg.sender);\n    }\n\n    function showFrenz(address _adr, uint256 _c)\n        external\n        view\n        returns (address)\n    {\n        return friends.doShowFrenz(_adr, _c);\n    }\n\n    function countFrenz(address _adr) external view returns (uint256) {\n        return friends.doFrenzCount(_adr);\n    }\n\n    function countDegenz(address _adr) external view returns (uint256) {\n        return friends.doDegenzCount(_adr);\n    }\n\n    function showStatus(address _adr)\n        external\n        view\n        returns (\n            uint256,\n            bool,\n            bool,\n            address,\n            address\n        )\n    {\n        return friends.doShowStatus(_adr, msg.sender);\n    }\n}\n\n// mlq library\nlibrary mlqLib {\n    uint256 public constant mlqRate = 100;\n    uint256 public constant mlqDig = 10**18;\n    uint256 public constant maxSupply = 3 * 10**9 * mlqDig;\n    uint256 public constant pubSupply = 1 * 10**9 * mlqDig;\n    uint256 public constant poolReserve = 1 * 10**9 * mlqDig;\n    uint256 public constant circReserve = 1 * 10**9 * mlqDig;\n}\n\n// mlq token contract\ncontract MLQ is ERC20, MathFnx {\n    using mlqLib for *;\n    address private admin;\n    uint256 public rate;\n    uint256 public pubSupply;\n    mapping(address => uint256) public mlqBalance;\n\n    constructor() ERC20(\"Milquidity Token\", \"MLQ\") {\n        admin = msg.sender;\n        setRate(mlqLib.mlqRate);\n        setSupply(mlqLib.pubSupply);\n    }\n\n    function setRate(uint256 _newRate) internal returns (uint256) {\n        rate = _newRate;\n        return rate;\n    }\n\n    function setSupply(uint256 _newSupply) internal returns (uint256) {\n        pubSupply = _newSupply;\n        return pubSupply;\n    }\n\n    function buyMlq(uint256 _amnt) external payable returns (uint256) {\n        uint256 amnt = mlqLib.mlqDig * _amnt;\n        require(pubSupply >= amnt);\n        require(divide(msg.value, 100) >= amnt);\n        _mint(msg.sender, amnt);\n        mlqBalance[msg.sender] = amnt;\n        pubSupply -= amnt;\n        return amnt;\n    }\n\n    function mlqBal(address _adr) external view returns (uint256) {\n        return mlqBalance[_adr];\n    }\n\n    function withdraw(uint256 _amnt) external returns (uint256) {\n        uint256 amnt = mlqLib.mlqDig * _amnt;\n        require(admin == msg.sender);\n        require(mlqBalance[address(this)] >= amnt);\n        transferFrom(address(this), admin, amnt);\n        return amnt;\n    }\n\n    function flush() external returns (uint256) {\n        require(admin == msg.sender);\n        transferFrom(address(this), admin, mlqBalance[address(this)]);\n        payable(admin).transfer(address(this).balance);\n        return address(this).balance;\n    }\n}\n\ncontract USDC is ERC20 {\n    constructor() ERC20(\"US Dollar Coin\", \"USDC\") {}\n\n    function dropUSDC() external {\n        _mint(msg.sender, 100 * 10**18);\n    }\n}\n\n// any coin tokeen contract\ncontract COIN is ERC20, MathFnx {\n    using mlqLib for *;\n    address private admin;\n    uint256 public rate;\n    uint256 public pubSupply;\n    uint256 public maxSupply;\n    string public title;\n    mapping(address => uint256) public coinBalance;\n\n    constructor(\n        string memory _name,\n        string memory _sym,\n        uint256 _rate,\n        uint256 _supply,\n        address _admin\n    ) ERC20(_name, _sym) {\n        admin = _admin;\n        setRate(_rate);\n        maxSupply = _supply;\n        title = _name;\n    }\n\n    function setRate(uint256 _newRate) internal returns (uint256) {\n        rate = _newRate;\n        return rate;\n    }\n\n    function getRate() external view returns (uint256) {\n        return rate;\n    }\n\n    function getMax() external view returns (uint256) {\n        return maxSupply;\n    }\n\n    function getName() external view returns (string memory) {\n        return title;\n    }\n\n    function getMinted() external view returns (uint256) {\n        return pubSupply;\n    }\n\n    function buyMlq(uint256 _amnt) external payable returns (uint256) {\n        uint256 amnt = mlqLib.mlqDig * _amnt;\n        require(pubSupply >= amnt);\n        require(divide(msg.value, 100) >= amnt);\n        _mint(msg.sender, amnt);\n        coinBalance[msg.sender] = amnt;\n        pubSupply += amnt;\n        return amnt;\n    }\n\n    function coinBal(address _adr) external view returns (uint256) {\n        return coinBalance[_adr];\n    }\n\n    function withdraw(uint256 _amnt) external returns (uint256) {\n        uint256 amnt = mlqLib.mlqDig * _amnt;\n        require(admin == msg.sender);\n        require(coinBalance[address(this)] >= amnt);\n        transferFrom(address(this), admin, amnt);\n        return amnt;\n    }\n\n    function flush() external returns (uint256) {\n        require(admin == msg.sender);\n        transferFrom(address(this), admin, coinBalance[address(this)]);\n        payable(admin).transfer(address(this).balance);\n        return address(this).balance;\n    }\n}\n\ncontract s0xPool is MathFnx {\n    COIN public coin;\n    COIN public main;\n    COIN public sec;\n    COIN public pool;\n    uint256 p;\n    struct Pool {\n        uint256 id;\n        address pool;\n        address main;\n        uint256 ethByMain;\n        uint256 mainMax;\n        address sec;\n        uint256 ethBySec;\n        uint256 secMax;\n        uint256 distrib;\n        uint256 xRate;\n    }\n    uint256 t;\n    struct Token {\n        uint256 id;\n        string name;\n        address adr;\n        uint256 maxSupply;\n        uint256 mintedSupply;\n        uint256 priceInEth;\n    }\n    uint256 s;\n    struct Safe {\n        uint256 id;\n        address user;\n        address token;\n        uint256 safeBalance;\n    }\n    mapping(uint256 => Pool) public poolz;\n    mapping(uint256 => Token) public tokenz;\n    mapping(uint256 => Safe) public safez;\n\n    function addToken(address _token) external returns (address) {\n        coin = COIN(_token);\n        tokenz[t] = Token(\n            t,\n            coin.getName(),\n            address(coin),\n            coin.getMax(),\n            coin.getMinted(),\n            coin.getRate()\n        );\n        t++;\n        return address(coin);\n    }\n\n    function createToken(\n        string memory _name,\n        string memory _sym,\n        uint256 _rate,\n        uint256 _max\n    ) external returns (address) {\n        coin = new COIN(_name, _sym, _rate, _max, msg.sender);\n        tokenz[t] = Token(t, _name, address(coin), _max, 0, _rate);\n        t++;\n        return address(coin);\n    }\n\n    function createPool(\n        address _main,\n        address _sec,\n        string memory _name,\n        string memory _psym\n    ) external returns (address) {\n        // get token contracts\n        main = COIN(_main);\n        sec = COIN(_sec);\n        // detect currency eth value per token\n        uint256 mEthPrice = divide(10**18, main.getRate()); // example // 10^18 / 100 = 10^16\n        uint256 sEthPrice = divide(10**18, sec.getRate()); // example // 10^18 / 100000 = 10^13\n        // detect dif ratio\n        uint256 dRate; // difference ratio\n        if (sEthPrice < mEthPrice)\n            dRate = divide(mEthPrice, sEthPrice); // example // 10^16 / 10^13 = 1000\n        else dRate = divide(sEthPrice, mEthPrice); // example // null\n        uint256 xRate;\n        xRate =\n            ((mEthPrice * main.getMax()) + (sEthPrice * sec.getMax())) /\n            100;\n        pool = new COIN(_name, _psym, xRate, 100 * 10**18, msg.sender); // example // 100 * 10^18\n        poolz[p] = Pool(\n            p,\n            address(pool),\n            _main,\n            mEthPrice,\n            divide(main.getMax(), 3),\n            _sec,\n            sEthPrice,\n            divide(sec.getMax(), 3),\n            0,\n            xRate\n        );\n\n        p++;\n        /*\n\n        // 0xbd5b354220B250DF257ed5e988Fe8FE81CdB6235 MLQ\n        // 0x7e54D10fda1dBAf0aA2eB842942B3B924fcfd947 LYX\n\n        mlq 10000000000000000eth * 1000000mlq\n        lyx 10000000000000eth * 1000000000lyx\n        shk 600000000000000000000eth * 100shk\n\n        */\n        return address(coin);\n    }\n\n    function addMilquidity(uint256 _p, uint256 _mIn)\n        external\n        returns (\n            uint256,\n            uint256,\n            uint256\n        )\n    {\n        main = COIN(poolz[_p].main);\n        sec = COIN(poolz[_p].sec);\n        coin = COIN(poolz[_p].pool);\n        // uint256 weth = 10**18;\n        return (_mIn, 0, 0);\n    }\n}\n\ncontract Trees is ERC20, MathFnx {\n    uint256 maxSupply;\n    uint256 rate;\n    uint256 availSupply;\n    address author;\n    Friends private friends;\n    ERC20 usdc;\n    MLQ mlq;\n\n    constructor(address _con, address _mlq)\n        ERC20(\"Impact Tree Token\", \"IMPCTrees\")\n    {\n        maxSupply = 5000000000000 * 10**18;\n        author = msg.sender;\n        usdc = ERC20(_con);\n        mlq = MLQ(_mlq);\n    }\n\n    modifier isAdmin() {\n        require(msg.sender == author);\n        _;\n    }\n\n    function buyTreeERC20(uint256 _trees) external payable returns (bool) {\n        require(usdc.balanceOf(msg.sender) >= 100 * _trees * 94 * 10**15);\n        require(availSupply < maxSupply);\n        usdc.transferFrom(\n            msg.sender,\n            0x8cF3c63Be0BC3d1478496B6449316babD225F78a,\n            100 * _trees * 94 * 10**15\n        );\n        availSupply += msg.value * 10000;\n        _mint(msg.sender, _trees * 10**18);\n        return true;\n    }\n\n    function buyTreeMLQ(uint256 _trees) external payable returns (bool) {\n        require(\n            mlq.balanceOf(msg.sender) >= rate / (100 * _trees * 94 * 10**15)\n        );\n        require(availSupply < maxSupply);\n        mlq.transferFrom(\n            msg.sender,\n            0x8cF3c63Be0BC3d1478496B6449316babD225F78a,\n            rate / (100 * _trees * 94 * 10**15)\n        );\n        availSupply += msg.value * 10000;\n        _mint(msg.sender, _trees * 10**18);\n        return true;\n    }\n\n    function donateTrees(uint256 _amount) external isAdmin returns (bool) {\n        require(balanceOf(msg.sender) > _amount * 10**18);\n        _burn(msg.sender, _amount * 10**18);\n        return true;\n    }\n\n    function approveContract(address _contract) external returns (bool) {\n        approve(_contract, balanceOf(msg.sender));\n        return true;\n    }\n\n    function setERC20(address _usdc) external isAdmin returns (bool) {\n        usdc = ERC20(_usdc);\n        return true;\n    }\n\n    function setMLQ(address _mlq) external isAdmin returns (bool) {\n        mlq = MLQ(_mlq);\n        return true;\n    }\n\n    function approveUSDC(uint256 _amnt) external returns (bool) {\n        return usdc.approve(address(this), _amnt);\n    }\n\n    function trimTrees(uint256 _newPrice) external returns (uint256) {\n        rate = _newPrice;\n        return rate;\n    }\n\n    function withdraw(uint256 _eth, uint256 _tree)\n        external\n        isAdmin\n        returns (bool)\n    {\n        require(_tree * 10**18 <= balanceOf(address(this)));\n        require(_eth * 10**18 <= address(this).balance);\n        transfer(payable(author), _tree * 10**18);\n        payable(author).transfer(_eth * 10**18);\n        return true;\n    }\n}\n\ncontract Co2s is ERC20, MathFnx {\n    IERC20 internal trees;\n    MLQ mlq;\n    uint256 maxSupply;\n    uint256 rate;\n    uint256 availSupply;\n    address author;\n    Friends private friends;\n    struct Bond {\n        uint256 id;\n        address adr;\n        uint256 amount;\n        uint256 region;\n        uint256 stamp;\n        uint256 duration;\n        uint256 co2;\n    }\n\n    mapping(address => uint256) public myBonds;\n    mapping(address => mapping(uint256 => uint256)) public myBondedCo2;\n\n    Bond[] public bonds;\n    uint256 c;\n    uint256 b;\n    uint256 per;\n\n    constructor(\n        address _contract,\n        uint256 _percent,\n        address _mlq\n    ) ERC20(\"Carbon token\", \"CO2\") {\n        maxSupply = 25000000000000 * 10**18;\n        trees = IERC20(_contract);\n        per = _percent;\n        mlq = MLQ(_mlq);\n        author = msg.sender;\n    }\n\n    modifier isAdmin() {\n        require(msg.sender == author);\n        _;\n    }\n\n    function growTrees(\n        uint256 _trees,\n        uint256 _region,\n        uint256 _duration\n    ) external payable returns (bool) {\n        require(msg.value >= _trees * 10**14, \"not enough funds for asset\");\n        require(_trees <= trees.balanceOf(msg.sender), \"insufficient balance\");\n        require(\n            5 * _trees * 10**18 <= maxSupply - availSupply,\n            \"insufficient supply\"\n        );\n        bonds.push(\n            Bond(\n                b,\n                msg.sender,\n                _trees * 10**18,\n                _region,\n                block.timestamp,\n                _duration,\n                5 * _trees * 10**18\n            )\n        );\n        availSupply += 5 * _trees * 10**18;\n        myBondedCo2[msg.sender][myBonds[msg.sender]] = b;\n        myBonds[msg.sender]++;\n        trees.transferFrom(msg.sender, payable(address(this)), _trees * 10**18);\n        b++;\n        return true;\n    }\n\n    function growMoreTrees(uint256 _trees, uint256 _b)\n        external\n        payable\n        returns (bool)\n    {\n        require(msg.value >= _trees * 10**14);\n        require(_trees <= trees.balanceOf(msg.sender));\n        uint256 treez = _trees * 10**18;\n        require(5 * treez <= maxSupply - availSupply);\n        uint256 p = divide(100, bonds[_b].amount) * treez;\n        bonds[_b].amount += treez;\n        bonds[_b].co2 += 5 * treez;\n        bonds[_b].duration += bonds[_b].duration * p;\n        uint256 fee = divide(treez, (100 / per));\n        trees.transfer(payable(address(this)), treez - fee);\n        trees.transfer(payable(address(this)), fee);\n        return true;\n    }\n\n    function growLessTrees(uint256 _trees, uint256 _b)\n        external\n        payable\n        returns (bool)\n    {\n        require(msg.value >= _trees * 10**15);\n        uint256 treez = _trees * 10**18;\n        require(\n            treez <= bonds[myBondedCo2[msg.sender][myBonds[msg.sender]]].amount\n        );\n        bonds[_b].amount -= treez;\n        bonds[_b].co2 -= 5 * treez;\n        uint256 fee = divide(treez, (100 / per));\n        trees.transfer(payable(msg.sender), treez - fee);\n        trees.transfer(payable(address(this)), fee);\n        return true;\n    }\n\n    function calcFreeCo2(uint256 _b) internal view returns (uint256, uint256) {\n        uint256 total = bonds[_b].duration * 60 * 60 * 24 * 365;\n        uint256 passed = block.timestamp - bonds[_b].stamp;\n        uint256 pDur = divide(100 * 10**18, total) * passed;\n        uint256 freeCo2 = divide(100 * 10**18, bonds[_b].co2) * pDur;\n        return (freeCo2, passed);\n    }\n\n    function releaseFreeCo2(uint256 _m) external returns (bool) {\n        uint256 _b = myBondedCo2[msg.sender][_m]; // get b_id\n        (uint256 free, uint256 passed) = calcFreeCo2(_b); // get free co2 & passed time\n        require(1 * 10**18 <= free); // check amount\n        bonds[_b].co2 -= free; // edit bonds data subtract\n        bonds[_b].stamp = block.timestamp;\n        uint256 addTime = divide(passed, (100 / per));\n        bonds[_b].duration += addTime;\n\n        uint256 fee = divide(free, (100 / per));\n        _mint(msg.sender, (free - fee)); // mint free co2\n        _mint(address(this), fee);\n        return true;\n    }\n\n    function withdraw(\n        uint256 _eth,\n        uint256 _co2,\n        uint256 _tree\n    ) external isAdmin returns (bool) {\n        require(_co2 * 10**18 <= balanceOf(address(this)));\n        require(_tree * 10**18 <= trees.balanceOf(address(this)));\n        require(_eth * 10**18 <= address(this).balance);\n        transfer(payable(author), _co2 * 10**18);\n        trees.transfer(payable(author), _tree * 10**18);\n        payable(author).transfer(_eth * 10**18);\n        return true;\n    }\n}\n\ncontract GardenPool is ERC1155, MathFnx {\n    IERC20 internal TR3EZ;\n    IERC20 internal CO2;\n    IERC20 internal lowC;\n    IERC20 internal highC;\n    address author;\n    uint256 private per;\n    uint256 public collectedFees;\n    struct Garden {\n        uint256 id;\n        address low;\n        uint256 lowTotal;\n        address high;\n        bytes description;\n        uint256 low4high;\n        uint256 maxSize;\n        uint256 currentSize;\n    }\n    Garden[] public gardens;\n    uint256 g;\n\n    constructor(\n        address _trees,\n        address _co2,\n        uint256 _percent\n    ) ERC1155(\"IMgardens\") {\n        author = msg.sender;\n        TR3EZ = IERC20(_trees);\n        CO2 = IERC20(_co2);\n        per = _percent;\n    }\n\n    modifier isAdmin() {\n        require(msg.sender == author);\n        _;\n    }\n\n    function createGarden(\n        string memory _name,\n        address _hi,\n        address _lo\n    ) external returns (bool) {\n        _setURI(_name);\n        _mint(address(this), g, 100 * 10**6, bytes(_name)); // 1 : 10 000 // 100 000 weth : 1 000 000 000 trees = 100% // 1 weth : 10 000 trees = 0,001% of max pool size\n        gardens.push(\n            Garden(g, _hi, 1000000000, _lo, bytes(_name), 10000, 100000, 0)\n        );\n        g++;\n        return true;\n    }\n\n    function addliquidity(uint256 _id, uint256 _low)\n        external\n        payable\n        returns (bool)\n    {\n        uint256 low = _low * 10**6;\n        uint256 high = gardens[_id].low4high * low;\n        lowC = IERC20(gardens[_id].low);\n        highC = IERC20(gardens[_id].high);\n        require(lowC.balanceOf(msg.sender) >= low);\n        require(highC.balanceOf(msg.sender) >= high);\n        lowC.transferFrom(msg.sender, address(this), low);\n        highC.transferFrom(msg.sender, address(this), high);\n        uint256 gardenDrops = divide(100 * 10**6, gardens[_id].lowTotal) * low;\n        safeTransferFrom(\n            address(this),\n            msg.sender,\n            gardens[_id].id,\n            gardenDrops,\n            gardens[_id].description\n        );\n        gardens[_id].currentSize += gardenDrops;\n        return true;\n    }\n\n    function removeLiquidity(uint256 _id, uint256 _gardenDrops)\n        external\n        payable\n        returns (bool)\n    {\n        uint256 low = divide(100 * 10**6, gardens[_id].lowTotal) * _gardenDrops;\n        uint256 high = low * gardens[_id].low4high;\n        lowC = IERC20(gardens[_id].low);\n        highC = IERC20(gardens[_id].high);\n        require(lowC.balanceOf(address(this)) >= low);\n        require(highC.balanceOf(address(this)) >= high);\n        lowC.transferFrom(address(this), msg.sender, low);\n        highC.transferFrom(address(this), msg.sender, high);\n        safeTransferFrom(\n            msg.sender,\n            address(this),\n            gardens[_id].id,\n            _gardenDrops,\n            gardens[_id].description\n        );\n        gardens[_id].currentSize -= _gardenDrops;\n        return true;\n    }\n\n    function swapLowHigh(uint256 _id, uint256 _low)\n        external\n        payable\n        returns (bool)\n    {\n        uint256 low = _low * 10**6;\n        lowC = IERC20(gardens[_id].low);\n        highC = IERC20(gardens[_id].high);\n        require(lowC.balanceOf(msg.sender) >= low);\n        uint256 fee = divide(100 * 10**6, low) * (100 / per);\n        uint256 get = gardens[_id].low4high * (low - fee);\n        require(highC.balanceOf(address(this)) >= get);\n        lowC.transferFrom(msg.sender, address(this), low);\n        highC.transferFrom(address(this), msg.sender, get);\n        collectedFees += fee;\n        return true;\n    }\n\n    function swapHighLow(uint256 _id, uint256 _high)\n        external\n        payable\n        returns (bool)\n    {\n        uint256 high = _high * 10**6;\n        lowC = IERC20(gardens[_id].low);\n        highC = IERC20(gardens[_id].high);\n        require(highC.balanceOf(msg.sender) >= high);\n        uint256 fee = divide(100 * 10**6, high) * (100 / per);\n        uint256 get = divide(high - fee, gardens[_id].low4high);\n        require(highC.balanceOf(address(this)) >= get);\n        highC.transferFrom(msg.sender, address(this), high);\n        lowC.transferFrom(address(this), msg.sender, get);\n        collectedFees += fee;\n        return true;\n    }\n\n    function waterGardens(uint256 _id) external payable returns (uint256) {\n        lowC = IERC20(gardens[_id].low);\n        highC = IERC20(gardens[_id].high);\n        uint256 lBal = lowC.balanceOf(address(this));\n        uint256 hBal = highC.balanceOf(address(this));\n        uint256 rRatio = divide(hBal, lBal);\n        uint256 eRatio = divide(gardens[_id].low4high, 1);\n        uint256 difRatio = divide(100, eRatio) * rRatio;\n        return difRatio;\n    }\n}\n",
  "sourcePath": "/Users/iii6/Documents/GitHub/ourPlanet/contracts/s0x.sol",
  "compiler": {
    "name": "solc",
    "version": "0.8.15+commit.e14f2714.Emscripten.clang"
  },
  "schemaVersion": "3.4.8",
  "updatedAt": "2022-07-27T19:36:38.197Z",
  "networkType": "ethereum",
  "devdoc": {
    "kind": "dev",
    "methods": {
      "allowance(address,address)": {
        "details": "See {IERC20-allowance}."
      },
      "approve(address,uint256)": {
        "details": "See {IERC20-approve}. Requirements: - `spender` cannot be the zero address."
      },
      "balanceOf(address)": {
        "details": "See {IERC20-balanceOf}."
      },
      "decimals()": {
        "details": "Returns the number of decimals used to get its user representation. For example, if `decimals` equals `2`, a balance of `505` tokens should be displayed to a user as `5.05` (`505 / 10 ** 2`). Tokens usually opt for a value of 18, imitating the relationship between Ether and Wei. This is the value {ERC20} uses, unless this function is overridden; NOTE: This information is only used for _display_ purposes: it in no way affects any of the arithmetic of the contract, including {IERC20-balanceOf} and {IERC20-transfer}."
      },
      "decreaseAllowance(address,uint256)": {
        "details": "Atomically decreases the allowance granted to `spender` by the caller. This is an alternative to {approve} that can be used as a mitigation for problems described in {IERC20-approve}. Emits an {Approval} event indicating the updated allowance. Requirements: - `spender` cannot be the zero address. - `spender` must have allowance for the caller of at least `subtractedValue`."
      },
      "increaseAllowance(address,uint256)": {
        "details": "Atomically increases the allowance granted to `spender` by the caller. This is an alternative to {approve} that can be used as a mitigation for problems described in {IERC20-approve}. Emits an {Approval} event indicating the updated allowance. Requirements: - `spender` cannot be the zero address."
      },
      "name()": {
        "details": "Returns the name of the token."
      },
      "symbol()": {
        "details": "Returns the symbol of the token, usually a shorter version of the name."
      },
      "totalSupply()": {
        "details": "See {IERC20-totalSupply}."
      },
      "transfer(address,uint256)": {
        "details": "See {IERC20-transfer}. Requirements: - `recipient` cannot be the zero address. - the caller must have a balance of at least `amount`."
      },
      "transferFrom(address,address,uint256)": {
        "details": "See {IERC20-transferFrom}. Emits an {Approval} event indicating the updated allowance. This is not required by the EIP. See the note at the beginning of {ERC20}. Requirements: - `sender` and `recipient` cannot be the zero address. - `sender` must have a balance of at least `amount`. - the caller must have allowance for ``sender``'s tokens of at least `amount`."
      }
    },
    "version": 1
  },
  "userdoc": {
    "kind": "user",
    "methods": {},
    "version": 1
  }
}