{
  "contractName": "Co2s",
  "abi": [
    {
      "inputs": [
        {
          "internalType": "address",
          "name": "_contract",
          "type": "address"
        },
        {
          "internalType": "uint256",
          "name": "_percent",
          "type": "uint256"
        },
        {
          "internalType": "address",
          "name": "_mlq",
          "type": "address"
        }
      ],
      "stateMutability": "nonpayable",
      "type": "constructor"
    },
    {
      "anonymous": false,
      "inputs": [
        {
          "indexed": true,
          "internalType": "address",
          "name": "owner",
          "type": "address"
        },
        {
          "indexed": true,
          "internalType": "address",
          "name": "spender",
          "type": "address"
        },
        {
          "indexed": false,
          "internalType": "uint256",
          "name": "value",
          "type": "uint256"
        }
      ],
      "name": "Approval",
      "type": "event"
    },
    {
      "anonymous": false,
      "inputs": [
        {
          "indexed": true,
          "internalType": "uint256",
          "name": "id",
          "type": "uint256"
        },
        {
          "indexed": false,
          "internalType": "address",
          "name": "sender",
          "type": "address"
        },
        {
          "indexed": false,
          "internalType": "address",
          "name": "home",
          "type": "address"
        },
        {
          "indexed": false,
          "internalType": "uint256",
          "name": "num",
          "type": "uint256"
        },
        {
          "indexed": false,
          "internalType": "bytes",
          "name": "message",
          "type": "bytes"
        },
        {
          "indexed": false,
          "internalType": "uint256",
          "name": "stamp",
          "type": "uint256"
        }
      ],
      "name": "Log",
      "type": "event"
    },
    {
      "anonymous": false,
      "inputs": [
        {
          "indexed": true,
          "internalType": "address",
          "name": "from",
          "type": "address"
        },
        {
          "indexed": true,
          "internalType": "address",
          "name": "to",
          "type": "address"
        },
        {
          "indexed": false,
          "internalType": "uint256",
          "name": "value",
          "type": "uint256"
        }
      ],
      "name": "Transfer",
      "type": "event"
    },
    {
      "anonymous": false,
      "inputs": [
        {
          "indexed": true,
          "internalType": "uint256",
          "name": "id",
          "type": "uint256"
        },
        {
          "indexed": false,
          "internalType": "address",
          "name": "sender",
          "type": "address"
        },
        {
          "indexed": false,
          "internalType": "address",
          "name": "home",
          "type": "address"
        },
        {
          "indexed": false,
          "internalType": "uint256",
          "name": "num",
          "type": "uint256"
        },
        {
          "indexed": false,
          "internalType": "bytes",
          "name": "message",
          "type": "bytes"
        },
        {
          "indexed": false,
          "internalType": "uint256",
          "name": "stamp",
          "type": "uint256"
        }
      ],
      "name": "Wait",
      "type": "event"
    },
    {
      "stateMutability": "nonpayable",
      "type": "fallback"
    },
    {
      "inputs": [
        {
          "internalType": "address",
          "name": "owner",
          "type": "address"
        },
        {
          "internalType": "address",
          "name": "spender",
          "type": "address"
        }
      ],
      "name": "allowance",
      "outputs": [
        {
          "internalType": "uint256",
          "name": "",
          "type": "uint256"
        }
      ],
      "stateMutability": "view",
      "type": "function"
    },
    {
      "inputs": [
        {
          "internalType": "address",
          "name": "spender",
          "type": "address"
        },
        {
          "internalType": "uint256",
          "name": "amount",
          "type": "uint256"
        }
      ],
      "name": "approve",
      "outputs": [
        {
          "internalType": "bool",
          "name": "",
          "type": "bool"
        }
      ],
      "stateMutability": "nonpayable",
      "type": "function"
    },
    {
      "inputs": [
        {
          "internalType": "address",
          "name": "_contract",
          "type": "address"
        },
        {
          "internalType": "uint256",
          "name": "_amnt",
          "type": "uint256"
        }
      ],
      "name": "approveTokenAmount",
      "outputs": [
        {
          "internalType": "bool",
          "name": "",
          "type": "bool"
        }
      ],
      "stateMutability": "nonpayable",
      "type": "function"
    },
    {
      "inputs": [
        {
          "internalType": "address",
          "name": "_contract",
          "type": "address"
        }
      ],
      "name": "approveTokens",
      "outputs": [
        {
          "internalType": "bool",
          "name": "",
          "type": "bool"
        }
      ],
      "stateMutability": "nonpayable",
      "type": "function"
    },
    {
      "inputs": [],
      "name": "author",
      "outputs": [
        {
          "internalType": "address",
          "name": "",
          "type": "address"
        }
      ],
      "stateMutability": "view",
      "type": "function"
    },
    {
      "inputs": [],
      "name": "availSupply",
      "outputs": [
        {
          "internalType": "uint256",
          "name": "",
          "type": "uint256"
        }
      ],
      "stateMutability": "view",
      "type": "function"
    },
    {
      "inputs": [
        {
          "internalType": "address",
          "name": "account",
          "type": "address"
        }
      ],
      "name": "balanceOf",
      "outputs": [
        {
          "internalType": "uint256",
          "name": "",
          "type": "uint256"
        }
      ],
      "stateMutability": "view",
      "type": "function"
    },
    {
      "inputs": [
        {
          "internalType": "uint256",
          "name": "",
          "type": "uint256"
        }
      ],
      "name": "bonds",
      "outputs": [
        {
          "internalType": "uint256",
          "name": "id",
          "type": "uint256"
        },
        {
          "internalType": "address",
          "name": "adr",
          "type": "address"
        },
        {
          "internalType": "uint256",
          "name": "amount",
          "type": "uint256"
        },
        {
          "internalType": "uint256",
          "name": "region",
          "type": "uint256"
        },
        {
          "internalType": "uint256",
          "name": "stamp",
          "type": "uint256"
        },
        {
          "internalType": "uint256",
          "name": "duration",
          "type": "uint256"
        },
        {
          "internalType": "uint256",
          "name": "co2",
          "type": "uint256"
        }
      ],
      "stateMutability": "view",
      "type": "function"
    },
    {
      "inputs": [
        {
          "internalType": "address",
          "name": "_to",
          "type": "address"
        },
        {
          "internalType": "uint256",
          "name": "_role",
          "type": "uint256"
        }
      ],
      "name": "changeRole",
      "outputs": [
        {
          "internalType": "bool",
          "name": "",
          "type": "bool"
        }
      ],
      "stateMutability": "nonpayable",
      "type": "function"
    },
    {
      "inputs": [],
      "name": "decimals",
      "outputs": [
        {
          "internalType": "uint8",
          "name": "",
          "type": "uint8"
        }
      ],
      "stateMutability": "view",
      "type": "function"
    },
    {
      "inputs": [
        {
          "internalType": "address",
          "name": "spender",
          "type": "address"
        },
        {
          "internalType": "uint256",
          "name": "subtractedValue",
          "type": "uint256"
        }
      ],
      "name": "decreaseAllowance",
      "outputs": [
        {
          "internalType": "bool",
          "name": "",
          "type": "bool"
        }
      ],
      "stateMutability": "nonpayable",
      "type": "function"
    },
    {
      "inputs": [
        {
          "internalType": "address",
          "name": "spender",
          "type": "address"
        },
        {
          "internalType": "uint256",
          "name": "addedValue",
          "type": "uint256"
        }
      ],
      "name": "increaseAllowance",
      "outputs": [
        {
          "internalType": "bool",
          "name": "",
          "type": "bool"
        }
      ],
      "stateMutability": "nonpayable",
      "type": "function"
    },
    {
      "inputs": [
        {
          "internalType": "address",
          "name": "",
          "type": "address"
        }
      ],
      "name": "isUser",
      "outputs": [
        {
          "internalType": "bool",
          "name": "",
          "type": "bool"
        }
      ],
      "stateMutability": "view",
      "type": "function"
    },
    {
      "inputs": [
        {
          "internalType": "string",
          "name": "_data",
          "type": "string"
        }
      ],
      "name": "makeU",
      "outputs": [
        {
          "internalType": "bool",
          "name": "",
          "type": "bool"
        }
      ],
      "stateMutability": "nonpayable",
      "type": "function"
    },
    {
      "inputs": [],
      "name": "maxSupply",
      "outputs": [
        {
          "internalType": "uint256",
          "name": "",
          "type": "uint256"
        }
      ],
      "stateMutability": "view",
      "type": "function"
    },
    {
      "inputs": [
        {
          "internalType": "address",
          "name": "",
          "type": "address"
        },
        {
          "internalType": "uint256",
          "name": "",
          "type": "uint256"
        }
      ],
      "name": "myBondedCo2",
      "outputs": [
        {
          "internalType": "uint256",
          "name": "",
          "type": "uint256"
        }
      ],
      "stateMutability": "view",
      "type": "function"
    },
    {
      "inputs": [
        {
          "internalType": "address",
          "name": "",
          "type": "address"
        }
      ],
      "name": "myBonds",
      "outputs": [
        {
          "internalType": "uint256",
          "name": "",
          "type": "uint256"
        }
      ],
      "stateMutability": "view",
      "type": "function"
    },
    {
      "inputs": [],
      "name": "name",
      "outputs": [
        {
          "internalType": "string",
          "name": "",
          "type": "string"
        }
      ],
      "stateMutability": "view",
      "type": "function"
    },
    {
      "inputs": [
        {
          "internalType": "address",
          "name": "",
          "type": "address"
        }
      ],
      "name": "role",
      "outputs": [
        {
          "internalType": "uint256",
          "name": "",
          "type": "uint256"
        }
      ],
      "stateMutability": "view",
      "type": "function"
    },
    {
      "inputs": [],
      "name": "showU",
      "outputs": [
        {
          "internalType": "string",
          "name": "",
          "type": "string"
        },
        {
          "internalType": "uint256",
          "name": "",
          "type": "uint256"
        }
      ],
      "stateMutability": "view",
      "type": "function"
    },
    {
      "inputs": [],
      "name": "symbol",
      "outputs": [
        {
          "internalType": "string",
          "name": "",
          "type": "string"
        }
      ],
      "stateMutability": "view",
      "type": "function"
    },
    {
      "inputs": [],
      "name": "totalSupply",
      "outputs": [
        {
          "internalType": "uint256",
          "name": "",
          "type": "uint256"
        }
      ],
      "stateMutability": "view",
      "type": "function"
    },
    {
      "inputs": [
        {
          "internalType": "address",
          "name": "recipient",
          "type": "address"
        },
        {
          "internalType": "uint256",
          "name": "amount",
          "type": "uint256"
        }
      ],
      "name": "transfer",
      "outputs": [
        {
          "internalType": "bool",
          "name": "",
          "type": "bool"
        }
      ],
      "stateMutability": "nonpayable",
      "type": "function"
    },
    {
      "inputs": [
        {
          "internalType": "address",
          "name": "sender",
          "type": "address"
        },
        {
          "internalType": "address",
          "name": "recipient",
          "type": "address"
        },
        {
          "internalType": "uint256",
          "name": "amount",
          "type": "uint256"
        }
      ],
      "name": "transferFrom",
      "outputs": [
        {
          "internalType": "bool",
          "name": "",
          "type": "bool"
        }
      ],
      "stateMutability": "nonpayable",
      "type": "function"
    },
    {
      "inputs": [
        {
          "internalType": "address",
          "name": "",
          "type": "address"
        }
      ],
      "name": "uData",
      "outputs": [
        {
          "internalType": "bytes",
          "name": "",
          "type": "bytes"
        }
      ],
      "stateMutability": "view",
      "type": "function"
    },
    {
      "inputs": [
        {
          "internalType": "address",
          "name": "_contract",
          "type": "address"
        }
      ],
      "name": "withdrawToken",
      "outputs": [
        {
          "internalType": "bool",
          "name": "",
          "type": "bool"
        }
      ],
      "stateMutability": "nonpayable",
      "type": "function"
    },
    {
      "inputs": [
        {
          "internalType": "uint256",
          "name": "_trees",
          "type": "uint256"
        },
        {
          "internalType": "uint256",
          "name": "_region",
          "type": "uint256"
        },
        {
          "internalType": "uint256",
          "name": "_duration",
          "type": "uint256"
        }
      ],
      "name": "growTrees",
      "outputs": [
        {
          "internalType": "bool",
          "name": "",
          "type": "bool"
        }
      ],
      "stateMutability": "payable",
      "type": "function"
    },
    {
      "inputs": [
        {
          "internalType": "uint256",
          "name": "_trees",
          "type": "uint256"
        },
        {
          "internalType": "uint256",
          "name": "_b",
          "type": "uint256"
        }
      ],
      "name": "growMoreTrees",
      "outputs": [
        {
          "internalType": "bool",
          "name": "",
          "type": "bool"
        }
      ],
      "stateMutability": "payable",
      "type": "function"
    },
    {
      "inputs": [
        {
          "internalType": "uint256",
          "name": "_trees",
          "type": "uint256"
        },
        {
          "internalType": "uint256",
          "name": "_b",
          "type": "uint256"
        }
      ],
      "name": "growLessTrees",
      "outputs": [
        {
          "internalType": "bool",
          "name": "",
          "type": "bool"
        }
      ],
      "stateMutability": "payable",
      "type": "function"
    },
    {
      "inputs": [
        {
          "internalType": "uint256",
          "name": "_m",
          "type": "uint256"
        }
      ],
      "name": "releaseFreeCo2",
      "outputs": [
        {
          "internalType": "bool",
          "name": "",
          "type": "bool"
        }
      ],
      "stateMutability": "nonpayable",
      "type": "function"
    },
    {
      "inputs": [
        {
          "internalType": "uint256",
          "name": "_eth",
          "type": "uint256"
        },
        {
          "internalType": "uint256",
          "name": "_co2",
          "type": "uint256"
        },
        {
          "internalType": "uint256",
          "name": "_tree",
          "type": "uint256"
        }
      ],
      "name": "withdraw",
      "outputs": [
        {
          "internalType": "bool",
          "name": "",
          "type": "bool"
        }
      ],
      "stateMutability": "nonpayable",
      "type": "function"
    }
  ],
  "bytecode": "0x6080604052731cd6f4d329d38043a6bdb3665c3a7b06f79b5242600560006101000a81548173ffffffffffffffffffffffffffffffffffffffff021916908373ffffffffffffffffffffffffffffffffffffffff160217905550670de0b6b3a7640000600b553480156200007257600080fd5b506040516200503138038062005031833981810160405281019062000098919062000411565b6040518060400160405280600c81526020017f436172626f6e20746f6b656e00000000000000000000000000000000000000008152506040518060400160405280600381526020017f434f3200000000000000000000000000000000000000000000000000000000008152508160039081620001159190620006dd565b508060049081620001279190620006dd565b505050600560009054906101000a900473ffffffffffffffffffffffffffffffffffffffff1673ffffffffffffffffffffffffffffffffffffffff163373ffffffffffffffffffffffffffffffffffffffff16146200018557600080fd5b6063600660003373ffffffffffffffffffffffffffffffffffffffff1673ffffffffffffffffffffffffffffffffffffffff1681526020019081526020016000208190555060405180606001604052806036815260200162004ffb60369139600760003373ffffffffffffffffffffffffffffffffffffffff1673ffffffffffffffffffffffffffffffffffffffff168152602001908152602001600020908162000231919062000834565b506d013b8b5b5056e16b3be04000000060088190555082601060006101000a81548173ffffffffffffffffffffffffffffffffffffffff021916908373ffffffffffffffffffffffffffffffffffffffff16021790555081601681905550600f547f5c155e8f37136295b53ae72fb3c0f568542d008fa91b541061b2d58d80d2657f3330856040518060400160405280601081526020017f636f6e74726163742063726561746564000000000000000000000000000000008152504260405162000300959493929190620009d6565b60405180910390a280600d60006101000a81548173ffffffffffffffffffffffffffffffffffffffff021916908373ffffffffffffffffffffffffffffffffffffffff160217905550600f60008154809291906200035e9062000a69565b919050555050505062000ab6565b600080fd5b600073ffffffffffffffffffffffffffffffffffffffff82169050919050565b60006200039e8262000371565b9050919050565b620003b08162000391565b8114620003bc57600080fd5b50565b600081519050620003d081620003a5565b92915050565b6000819050919050565b620003eb81620003d6565b8114620003f757600080fd5b50565b6000815190506200040b81620003e0565b92915050565b6000806000606084860312156200042d576200042c6200036c565b5b60006200043d86828701620003bf565b93505060206200045086828701620003fa565b92505060406200046386828701620003bf565b9150509250925092565b600081519050919050565b7f4e487b7100000000000000000000000000000000000000000000000000000000600052604160045260246000fd5b7f4e487b7100000000000000000000000000000000000000000000000000000000600052602260045260246000fd5b60006002820490506001821680620004ef57607f821691505b602082108103620005055762000504620004a7565b5b50919050565b60008190508160005260206000209050919050565b60006020601f8301049050919050565b600082821b905092915050565b6000600883026200056f7fffffffffffffffffffffffffffffffffffffffffffffffffffffffffffffffff8262000530565b6200057b868362000530565b95508019841693508086168417925050509392505050565b6000819050919050565b6000620005be620005b8620005b284620003d6565b62000593565b620003d6565b9050919050565b6000819050919050565b620005da836200059d565b620005f2620005e982620005c5565b8484546200053d565b825550505050565b600090565b62000609620005fa565b62000616818484620005cf565b505050565b5b818110156200063e5762000632600082620005ff565b6001810190506200061c565b5050565b601f8211156200068d5762000657816200050b565b620006628462000520565b8101602085101562000672578190505b6200068a620006818562000520565b8301826200061b565b50505b505050565b600082821c905092915050565b6000620006b26000198460080262000692565b1980831691505092915050565b6000620006cd83836200069f565b9150826002028217905092915050565b620006e8826200046d565b67ffffffffffffffff81111562000704576200070362000478565b5b620007108254620004d6565b6200071d82828562000642565b600060209050601f83116001811462000755576000841562000740578287015190505b6200074c8582620006bf565b865550620007bc565b601f19841662000765866200050b565b60005b828110156200078f5784890151825560018201915060208501945060208101905062000768565b86831015620007af5784890151620007ab601f8916826200069f565b8355505b6001600288020188555050505b505050505050565b600081519050919050565b60008190508160005260206000209050919050565b601f8211156200082f57620007f981620007cf565b620008048462000520565b8101602085101562000814578190505b6200082c620008238562000520565b8301826200061b565b50505b505050565b6200083f82620007c4565b67ffffffffffffffff8111156200085b576200085a62000478565b5b620008678254620004d6565b62000874828285620007e4565b600060209050601f831160018114620008ac576000841562000897578287015190505b620008a38582620006bf565b86555062000913565b601f198416620008bc86620007cf565b60005b82811015620008e657848901518255600182019150602085019450602081019050620008bf565b8683101562000906578489015162000902601f8916826200069f565b8355505b6001600288020188555050505b505050505050565b620009268162000391565b82525050565b6200093781620003d6565b82525050565b600082825260208201905092915050565b60005b838110156200096e57808201518184015260208101905062000951565b838111156200097e576000848401525b50505050565b6000601f19601f8301169050919050565b6000620009a282620007c4565b620009ae81856200093d565b9350620009c08185602086016200094e565b620009cb8162000984565b840191505092915050565b600060a082019050620009ed60008301886200091b565b620009fc60208301876200091b565b62000a0b60408301866200092c565b818103606083015262000a1f818562000995565b905062000a3060808301846200092c565b9695505050505050565b7f4e487b7100000000000000000000000000000000000000000000000000000000600052601160045260246000fd5b600062000a7682620003d6565b91507fffffffffffffffffffffffffffffffffffffffffffffffffffffffffffffffff820362000aab5762000aaa62000a3a565b5b600182019050919050565b6145358062000ac66000396000f3fe6080604052600436106101dc5760003560e01c806383f21a7411610102578063a9059cbb11610095578063d590f8c911610064578063d590f8c9146107c9578063d5abeb0114610806578063dd62ed3e14610831578063f654ac251461086e576101dd565b8063a9059cbb146106e2578063b059fe1f1461071f578063b7187e351461075c578063c54722d514610799576101dd565b80639f5215dd116100d15780639f5215dd14610612578063a41fe49f1461063d578063a457c2d71461067a578063a6c3e6b9146106b7576101dd565b806383f21a741461053d578063879125af1461056d57806389476069146105aa57806395d89b41146105e7576101dd565b8063274daa351161017a578063395093511161014957806339509351146104435780634209fff1146104805780635f1c17c0146104bd57806370a0823114610500576101dd565b8063274daa351461037257806328a223481461039e578063313ce567146103db5780633390920014610406576101dd565b806318160ddd116101b657806318160ddd1461029057806323b872dd146102bb578063255ec557146102f8578063268b522714610335576101dd565b806306fdde03146101eb578063095ea7b3146102165780630acfd58e14610253576101dd565b5b3480156101e957600080fd5b005b3480156101f757600080fd5b5061020061089e565b60405161020d91906131a5565b60405180910390f35b34801561022257600080fd5b5061023d6004803603810190610238919061326f565b610930565b60405161024a91906132ca565b60405180910390f35b34801561025f57600080fd5b5061027a6004803603810190610275919061326f565b61094e565b60405161028791906132ca565b60405180910390f35b34801561029c57600080fd5b506102a5610a20565b6040516102b291906132f4565b60405180910390f35b3480156102c757600080fd5b506102e260048036038101906102dd919061330f565b610a2a565b6040516102ef91906132ca565b60405180910390f35b34801561030457600080fd5b5061031f600480360381019061031a919061326f565b610b22565b60405161032c91906132ca565b60405180910390f35b34801561034157600080fd5b5061035c60048036038101906103579190613497565b610c10565b60405161036991906132ca565b60405180910390f35b34801561037e57600080fd5b50610387610d05565b6040516103959291906134e0565b60405180910390f35b3480156103aa57600080fd5b506103c560048036038101906103c09190613510565b610e1c565b6040516103d291906132ca565b60405180910390f35b3480156103e757600080fd5b506103f0610fa4565b6040516103fd9190613559565b60405180910390f35b34801561041257600080fd5b5061042d6004803603810190610428919061326f565b610fad565b60405161043a91906132f4565b60405180910390f35b34801561044f57600080fd5b5061046a6004803603810190610465919061326f565b610fd2565b60405161047791906132ca565b60405180910390f35b34801561048c57600080fd5b506104a760048036038101906104a29190613510565b61107e565b6040516104b491906132ca565b60405180910390f35b3480156104c957600080fd5b506104e460048036038101906104df9190613574565b61109e565b6040516104f797969594939291906135b0565b60405180910390f35b34801561050c57600080fd5b5061052760048036038101906105229190613510565b611110565b60405161053491906132f4565b60405180910390f35b6105576004803603810190610552919061361f565b611158565b60405161056491906132ca565b60405180910390f35b34801561057957600080fd5b50610594600480360381019061058f9190613510565b6114da565b6040516105a191906132f4565b60405180910390f35b3480156105b657600080fd5b506105d160048036038101906105cc9190613510565b6114f2565b6040516105de91906132ca565b60405180910390f35b3480156105f357600080fd5b506105fc61171e565b60405161060991906131a5565b60405180910390f35b34801561061e57600080fd5b506106276117b0565b60405161063491906132f4565b60405180910390f35b34801561064957600080fd5b50610664600480360381019061065f919061365f565b6117b6565b60405161067191906132ca565b60405180910390f35b34801561068657600080fd5b506106a1600480360381019061069c919061326f565b611b6b565b6040516106ae91906132ca565b60405180910390f35b3480156106c357600080fd5b506106cc611c56565b6040516106d991906136b2565b60405180910390f35b3480156106ee57600080fd5b506107096004803603810190610704919061326f565b611c7c565b60405161071691906132ca565b60405180910390f35b34801561072b57600080fd5b5061074660048036038101906107419190613574565b611c9a565b60405161075391906132ca565b60405180910390f35b34801561076857600080fd5b50610783600480360381019061077e9190613510565b611eab565b6040516107909190613722565b60405180910390f35b6107b360048036038101906107ae919061365f565b611f4b565b6040516107c091906132ca565b60405180910390f35b3480156107d557600080fd5b506107f060048036038101906107eb9190613510565b6124a8565b6040516107fd91906132f4565b60405180910390f35b34801561081257600080fd5b5061081b6124c0565b60405161082891906132f4565b60405180910390f35b34801561083d57600080fd5b5061085860048036038101906108539190613744565b6124c6565b60405161086591906132f4565b60405180910390f35b6108886004803603810190610883919061361f565b61254d565b60405161089591906132ca565b60405180910390f35b6060600380546108ad906137b3565b80601f01602080910402602001604051908101604052809291908181526020018280546108d9906137b3565b80156109265780601f106108fb57610100808354040283529160200191610926565b820191906000526020600020905b81548152906001019060200180831161090957829003601f168201915b5050505050905090565b600061094461093d612989565b8484612991565b6001905092915050565b60006063600660003373ffffffffffffffffffffffffffffffffffffffff1673ffffffffffffffffffffffffffffffffffffffff16815260200190815260200160002054146109d2576040517f08c379a00000000000000000000000000000000000000000000000000000000081526004016109c990613830565b60405180910390fd5b81600660008573ffffffffffffffffffffffffffffffffffffffff1673ffffffffffffffffffffffffffffffffffffffff168152602001908152602001600020819055506001905092915050565b6000600254905090565b6000610a37848484612b5a565b6000600160008673ffffffffffffffffffffffffffffffffffffffff1673ffffffffffffffffffffffffffffffffffffffff1681526020019081526020016000206000610a82612989565b73ffffffffffffffffffffffffffffffffffffffff1673ffffffffffffffffffffffffffffffffffffffff16815260200190815260200160002054905082811015610b02576040517f08c379a0000000000000000000000000000000000000000000000000000000008152600401610af9906138c2565b60405180910390fd5b610b1685610b0e612989565b858403612991565b60019150509392505050565b600082600c60006101000a81548173ffffffffffffffffffffffffffffffffffffffff021916908373ffffffffffffffffffffffffffffffffffffffff160217905550600c60009054906101000a900473ffffffffffffffffffffffffffffffffffffffff1673ffffffffffffffffffffffffffffffffffffffff1663095ea7b330846040518363ffffffff1660e01b8152600401610bc29291906138e2565b6020604051808303816000875af1158015610be1573d6000803e3d6000fd5b505050506040513d601f19601f82011682018060405250810190610c059190613937565b506001905092915050565b60006001600e60003373ffffffffffffffffffffffffffffffffffffffff1673ffffffffffffffffffffffffffffffffffffffff16815260200190815260200160002060006101000a81548160ff0219169083151502179055506001600660003373ffffffffffffffffffffffffffffffffffffffff1673ffffffffffffffffffffffffffffffffffffffff1681526020019081526020016000208190555081600760003373ffffffffffffffffffffffffffffffffffffffff1673ffffffffffffffffffffffffffffffffffffffff1681526020019081526020016000209081610cfb9190613b10565b5060019050919050565b60606000600760003373ffffffffffffffffffffffffffffffffffffffff1673ffffffffffffffffffffffffffffffffffffffff168152602001908152602001600020600660003373ffffffffffffffffffffffffffffffffffffffff1673ffffffffffffffffffffffffffffffffffffffff16815260200190815260200160002054818054610d94906137b3565b80601f0160208091040260200160405190810160405280929190818152602001828054610dc0906137b3565b8015610e0d5780601f10610de257610100808354040283529160200191610e0d565b820191906000526020600020905b815481529060010190602001808311610df057829003601f168201915b50505050509150915091509091565b600081600c60006101000a81548173ffffffffffffffffffffffffffffffffffffffff021916908373ffffffffffffffffffffffffffffffffffffffff160217905550600c60009054906101000a900473ffffffffffffffffffffffffffffffffffffffff1673ffffffffffffffffffffffffffffffffffffffff1663095ea7b330600c60009054906101000a900473ffffffffffffffffffffffffffffffffffffffff1673ffffffffffffffffffffffffffffffffffffffff166370a08231336040518263ffffffff1660e01b8152600401610ef991906136b2565b602060405180830381865afa158015610f16573d6000803e3d6000fd5b505050506040513d601f19601f82011682018060405250810190610f3a9190613bf7565b6040518363ffffffff1660e01b8152600401610f579291906138e2565b6020604051808303816000875af1158015610f76573d6000803e3d6000fd5b505050506040513d601f19601f82011682018060405250810190610f9a9190613937565b5060019050919050565b60006012905090565b6012602052816000526040600020602052806000526040600020600091509150505481565b6000611074610fdf612989565b848460016000610fed612989565b73ffffffffffffffffffffffffffffffffffffffff1673ffffffffffffffffffffffffffffffffffffffff16815260200190815260200160002060008873ffffffffffffffffffffffffffffffffffffffff1673ffffffffffffffffffffffffffffffffffffffff1681526020019081526020016000205461106f9190613c53565b612991565b6001905092915050565b600e6020528060005260406000206000915054906101000a900460ff1681565b601381815481106110ae57600080fd5b90600052602060002090600702016000915090508060000154908060010160009054906101000a900473ffffffffffffffffffffffffffffffffffffffff16908060020154908060030154908060040154908060050154908060060154905087565b60008060008373ffffffffffffffffffffffffffffffffffffffff1673ffffffffffffffffffffffffffffffffffffffff168152602001908152602001600020549050919050565b600066038d7ea4c680008361116d9190613ca9565b34101561117957600080fd5b6000670de0b6b3a76400008461118f9190613ca9565b90506013601260003373ffffffffffffffffffffffffffffffffffffffff1673ffffffffffffffffffffffffffffffffffffffff1681526020019081526020016000206000601160003373ffffffffffffffffffffffffffffffffffffffff1673ffffffffffffffffffffffffffffffffffffffff168152602001908152602001600020548152602001908152602001600020548154811061123457611233613d03565b5b90600052602060002090600702016002015481111561125257600080fd5b806013848154811061126757611266613d03565b5b906000526020600020906007020160020160008282546112879190613d32565b9250508190555080600561129b9190613ca9565b601384815481106112af576112ae613d03565b5b906000526020600020906007020160060160008282546112cf9190613d32565b9250508190555060006112f08260165460646112eb9190613d95565b612dd9565b9050601060009054906101000a900473ffffffffffffffffffffffffffffffffffffffff1673ffffffffffffffffffffffffffffffffffffffff1663a9059cbb33838561133d9190613d32565b6040518363ffffffff1660e01b815260040161135a929190613e1b565b6020604051808303816000875af1158015611379573d6000803e3d6000fd5b505050506040513d601f19601f8201168201806040525081019061139d9190613937565b50601060009054906101000a900473ffffffffffffffffffffffffffffffffffffffff1673ffffffffffffffffffffffffffffffffffffffff1663a9059cbb30836040518363ffffffff1660e01b81526004016113fb929190613e1b565b6020604051808303816000875af115801561141a573d6000803e3d6000fd5b505050506040513d601f19601f8201168201806040525081019061143e9190613937565b50600f547f5c155e8f37136295b53ae72fb3c0f568542d008fa91b541061b2d58d80d2657f3330886040518060400160405280601881526020017f74726565732072656d6f7665642066726f6d207374616b650000000000000000815250426040516114ae959493929190613e44565b60405180910390a2600f60008154809291906114c990613e9e565b919050555060019250505092915050565b60116020528060005260406000206000915090505481565b60006063600660003373ffffffffffffffffffffffffffffffffffffffff1673ffffffffffffffffffffffffffffffffffffffff1681526020019081526020016000205414611576576040517f08c379a000000000000000000000000000000000000000000000000000000000815260040161156d90613830565b60405180910390fd5b81600c60006101000a81548173ffffffffffffffffffffffffffffffffffffffff021916908373ffffffffffffffffffffffffffffffffffffffff160217905550600c60009054906101000a900473ffffffffffffffffffffffffffffffffffffffff1673ffffffffffffffffffffffffffffffffffffffff1663a9059cbb600560009054906101000a900473ffffffffffffffffffffffffffffffffffffffff16600c60009054906101000a900473ffffffffffffffffffffffffffffffffffffffff1673ffffffffffffffffffffffffffffffffffffffff166370a08231306040518263ffffffff1660e01b815260040161167391906136b2565b602060405180830381865afa158015611690573d6000803e3d6000fd5b505050506040513d601f19601f820116820180604052508101906116b49190613bf7565b6040518363ffffffff1660e01b81526004016116d19291906138e2565b6020604051808303816000875af11580156116f0573d6000803e3d6000fd5b505050506040513d601f19601f820116820180604052508101906117149190613937565b5060019050919050565b60606004805461172d906137b3565b80601f0160208091040260200160405190810160405280929190818152602001828054611759906137b3565b80156117a65780601f1061177b576101008083540402835291602001916117a6565b820191906000526020600020905b81548152906001019060200180831161178957829003601f168201915b5050505050905090565b60095481565b60006063600660003373ffffffffffffffffffffffffffffffffffffffff1673ffffffffffffffffffffffffffffffffffffffff168152602001908152602001600020541461183a576040517f08c379a000000000000000000000000000000000000000000000000000000000815260040161183190613830565b60405180910390fd5b61184330611110565b670de0b6b3a7640000846118579190613ca9565b111561186257600080fd5b601060009054906101000a900473ffffffffffffffffffffffffffffffffffffffff1673ffffffffffffffffffffffffffffffffffffffff166370a08231306040518263ffffffff1660e01b81526004016118bd91906136b2565b602060405180830381865afa1580156118da573d6000803e3d6000fd5b505050506040513d601f19601f820116820180604052508101906118fe9190613bf7565b670de0b6b3a7640000836119129190613ca9565b111561191d57600080fd5b47670de0b6b3a7640000856119329190613ca9565b111561193d57600080fd5b61197c600560009054906101000a900473ffffffffffffffffffffffffffffffffffffffff16670de0b6b3a7640000856119779190613ca9565b611c7c565b50601060009054906101000a900473ffffffffffffffffffffffffffffffffffffffff1673ffffffffffffffffffffffffffffffffffffffff1663a9059cbb600560009054906101000a900473ffffffffffffffffffffffffffffffffffffffff16670de0b6b3a7640000856119f29190613ca9565b6040518363ffffffff1660e01b8152600401611a0f929190613e1b565b6020604051808303816000875af1158015611a2e573d6000803e3d6000fd5b505050506040513d601f19601f82011682018060405250810190611a529190613937565b50600560009054906101000a900473ffffffffffffffffffffffffffffffffffffffff1673ffffffffffffffffffffffffffffffffffffffff166108fc670de0b6b3a764000086611aa39190613ca9565b9081150290604051600060405180830381858888f19350505050158015611ace573d6000803e3d6000fd5b50600f547f5c155e8f37136295b53ae72fb3c0f568542d008fa91b541061b2d58d80d2657f33306103e76040518060400160405280601881526020017f636f6e74726163742066756e642062616c616e6365732030000000000000000081525042604051611b40959493929190613f21565b60405180910390a2600f6000815480929190611b5b90613e9e565b9190505550600190509392505050565b60008060016000611b7a612989565b73ffffffffffffffffffffffffffffffffffffffff1673ffffffffffffffffffffffffffffffffffffffff16815260200190815260200160002060008573ffffffffffffffffffffffffffffffffffffffff1673ffffffffffffffffffffffffffffffffffffffff16815260200190815260200160002054905082811015611c37576040517f08c379a0000000000000000000000000000000000000000000000000000000008152600401611c2e90613fed565b60405180910390fd5b611c4b611c42612989565b85858403612991565b600191505092915050565b600560009054906101000a900473ffffffffffffffffffffffffffffffffffffffff1681565b6000611c90611c89612989565b8484612b5a565b6001905092915050565b600080601260003373ffffffffffffffffffffffffffffffffffffffff1673ffffffffffffffffffffffffffffffffffffffff1681526020019081526020016000206000848152602001908152602001600020549050600080611cfc83612e0a565b9150915081670de0b6b3a76400001115611d1557600080fd5b8160138481548110611d2a57611d29613d03565b5b90600052602060002090600702016006016000828254611d4a9190613d32565b925050819055504260138481548110611d6657611d65613d03565b5b9060005260206000209060070201600401819055506000611d95826016546064611d909190613d95565b612dd9565b90508060138581548110611dac57611dab613d03565b5b90600052602060002090600702016005016000828254611dcc9190613c53565b925050819055506000611ded846016546064611de89190613d95565b612dd9565b9050611e04338286611dff9190613d32565b612fa3565b611e0e3082612fa3565b600f547f5c155e8f37136295b53ae72fb3c0f568542d008fa91b541061b2d58d80d2657f3330876040518060400160405280600f81526020017f6672656520636f32206d696e746564000000000000000000000000000000000081525042604051611e7d959493929190613e44565b60405180910390a2600f6000815480929190611e9890613e9e565b9190505550600195505050505050919050565b60076020528060005260406000206000915090508054611eca906137b3565b80601f0160208091040260200160405190810160405280929190818152602001828054611ef6906137b3565b8015611f435780601f10611f1857610100808354040283529160200191611f43565b820191906000526020600020905b815481529060010190602001808311611f2657829003601f168201915b505050505081565b6000655af3107a400084611f5f9190613ca9565b341015611fa1576040517f08c379a0000000000000000000000000000000000000000000000000000000008152600401611f9890614059565b60405180910390fd5b601060009054906101000a900473ffffffffffffffffffffffffffffffffffffffff1673ffffffffffffffffffffffffffffffffffffffff166370a08231336040518263ffffffff1660e01b8152600401611ffc91906136b2565b602060405180830381865afa158015612019573d6000803e3d6000fd5b505050506040513d601f19601f8201168201806040525081019061203d9190613bf7565b84111561207f576040517f08c379a0000000000000000000000000000000000000000000000000000000008152600401612076906140c5565b60405180910390fd5b60095460085461208f9190613d32565b670de0b6b3a76400008560056120a59190613ca9565b6120af9190613ca9565b11156120f0576040517f08c379a00000000000000000000000000000000000000000000000000000000081526004016120e790614131565b60405180910390fd5b60136040518060e0016040528060155481526020013373ffffffffffffffffffffffffffffffffffffffff168152602001670de0b6b3a7640000876121359190613ca9565b8152602001858152602001428152602001848152602001670de0b6b3a76400008760056121629190613ca9565b61216c9190613ca9565b81525090806001815401808255809150506001900390600052602060002090600702016000909190919091506000820151816000015560208201518160010160006101000a81548173ffffffffffffffffffffffffffffffffffffffff021916908373ffffffffffffffffffffffffffffffffffffffff16021790555060408201518160020155606082015181600301556080820151816004015560a0820151816005015560c082015181600601555050670de0b6b3a76400008460056122339190613ca9565b61223d9190613ca9565b6009600082825461224e9190613c53565b92505081905550601554601260003373ffffffffffffffffffffffffffffffffffffffff1673ffffffffffffffffffffffffffffffffffffffff1681526020019081526020016000206000601160003373ffffffffffffffffffffffffffffffffffffffff1673ffffffffffffffffffffffffffffffffffffffff16815260200190815260200160002054815260200190815260200160002081905550601160003373ffffffffffffffffffffffffffffffffffffffff1673ffffffffffffffffffffffffffffffffffffffff168152602001908152602001600020600081548092919061233b90613e9e565b9190505550601060009054906101000a900473ffffffffffffffffffffffffffffffffffffffff1673ffffffffffffffffffffffffffffffffffffffff166323b872dd3330670de0b6b3a7640000886123949190613ca9565b6040518463ffffffff1660e01b81526004016123b293929190614151565b6020604051808303816000875af11580156123d1573d6000803e3d6000fd5b505050506040513d601f19601f820116820180604052508101906123f59190613937565b506015600081548092919061240990613e9e565b9190505550600f547f5c155e8f37136295b53ae72fb3c0f568542d008fa91b541061b2d58d80d2657f3330876040518060400160405280600c81526020017f7472656573207374616b656400000000000000000000000000000000000000008152504260405161247d959493929190613e44565b60405180910390a2600f600081548092919061249890613e9e565b9190505550600190509392505050565b60066020528060005260406000206000915090505481565b60085481565b6000600160008473ffffffffffffffffffffffffffffffffffffffff1673ffffffffffffffffffffffffffffffffffffffff16815260200190815260200160002060008373ffffffffffffffffffffffffffffffffffffffff1673ffffffffffffffffffffffffffffffffffffffff16815260200190815260200160002054905092915050565b6000655af3107a4000836125619190613ca9565b34101561256d57600080fd5b601060009054906101000a900473ffffffffffffffffffffffffffffffffffffffff1673ffffffffffffffffffffffffffffffffffffffff166370a08231336040518263ffffffff1660e01b81526004016125c891906136b2565b602060405180830381865afa1580156125e5573d6000803e3d6000fd5b505050506040513d601f19601f820116820180604052508101906126099190613bf7565b83111561261557600080fd5b6000670de0b6b3a76400008461262b9190613ca9565b905060095460085461263d9190613d32565b81600561264a9190613ca9565b111561265557600080fd5b60008161268860646013878154811061267157612670613d03565b5b906000526020600020906007020160020154612dd9565b6126929190613ca9565b905081601385815481106126a9576126a8613d03565b5b906000526020600020906007020160020160008282546126c99190613c53565b925050819055508160056126dd9190613ca9565b601385815481106126f1576126f0613d03565b5b906000526020600020906007020160060160008282546127119190613c53565b92505081905550806013858154811061272d5761272c613d03565b5b9060005260206000209060070201600501546127499190613ca9565b6013858154811061275d5761275c613d03565b5b9060005260206000209060070201600501600082825461277d9190613c53565b92505081905550600061279e8360165460646127999190613d95565b612dd9565b9050601060009054906101000a900473ffffffffffffffffffffffffffffffffffffffff1673ffffffffffffffffffffffffffffffffffffffff1663a9059cbb3083866127eb9190613d32565b6040518363ffffffff1660e01b8152600401612808929190613e1b565b6020604051808303816000875af1158015612827573d6000803e3d6000fd5b505050506040513d601f19601f8201168201806040525081019061284b9190613937565b50601060009054906101000a900473ffffffffffffffffffffffffffffffffffffffff1673ffffffffffffffffffffffffffffffffffffffff1663a9059cbb30836040518363ffffffff1660e01b81526004016128a9929190613e1b565b6020604051808303816000875af11580156128c8573d6000803e3d6000fd5b505050506040513d601f19601f820116820180604052508101906128ec9190613937565b50600f547f5c155e8f37136295b53ae72fb3c0f568542d008fa91b541061b2d58d80d2657f3330896040518060400160405280601581526020017f74726565732061646465656420746f207374616b6500000000000000000000008152504260405161295c959493929190613e44565b60405180910390a2600f600081548092919061297790613e9e565b91905055506001935050505092915050565b600033905090565b600073ffffffffffffffffffffffffffffffffffffffff168373ffffffffffffffffffffffffffffffffffffffff1603612a00576040517f08c379a00000000000000000000000000000000000000000000000000000000081526004016129f7906141fa565b60405180910390fd5b600073ffffffffffffffffffffffffffffffffffffffff168273ffffffffffffffffffffffffffffffffffffffff1603612a6f576040517f08c379a0000000000000000000000000000000000000000000000000000000008152600401612a669061428c565b60405180910390fd5b80600160008573ffffffffffffffffffffffffffffffffffffffff1673ffffffffffffffffffffffffffffffffffffffff16815260200190815260200160002060008473ffffffffffffffffffffffffffffffffffffffff1673ffffffffffffffffffffffffffffffffffffffff168152602001908152602001600020819055508173ffffffffffffffffffffffffffffffffffffffff168373ffffffffffffffffffffffffffffffffffffffff167f8c5be1e5ebec7d5bd14f71427d1e84f3dd0314c0f7b2291e5b200ac8c7c3b92583604051612b4d91906132f4565b60405180910390a3505050565b600073ffffffffffffffffffffffffffffffffffffffff168373ffffffffffffffffffffffffffffffffffffffff1603612bc9576040517f08c379a0000000000000000000000000000000000000000000000000000000008152600401612bc09061431e565b60405180910390fd5b600073ffffffffffffffffffffffffffffffffffffffff168273ffffffffffffffffffffffffffffffffffffffff1603612c38576040517f08c379a0000000000000000000000000000000000000000000000000000000008152600401612c2f906143b0565b60405180910390fd5b612c43838383613102565b60008060008573ffffffffffffffffffffffffffffffffffffffff1673ffffffffffffffffffffffffffffffffffffffff16815260200190815260200160002054905081811015612cc9576040517f08c379a0000000000000000000000000000000000000000000000000000000008152600401612cc090614442565b60405180910390fd5b8181036000808673ffffffffffffffffffffffffffffffffffffffff1673ffffffffffffffffffffffffffffffffffffffff16815260200190815260200160002081905550816000808573ffffffffffffffffffffffffffffffffffffffff1673ffffffffffffffffffffffffffffffffffffffff1681526020019081526020016000206000828254612d5c9190613c53565b925050819055508273ffffffffffffffffffffffffffffffffffffffff168473ffffffffffffffffffffffffffffffffffffffff167fddf252ad1be2c89b69c2b068fc378daa952ba7f163c4a11628f55a4df523b3ef84604051612dc091906132f4565b60405180910390a3612dd3848484613107565b50505050565b6000808284612de89190614462565b9050828185612df79190613d32565b612e019190613d95565b91505092915050565b600080600061016d6018603c8060138881548110612e2b57612e2a613d03565b5b906000526020600020906007020160050154612e479190613ca9565b612e519190613ca9565b612e5b9190613ca9565b612e659190613ca9565b9050600060138581548110612e7d57612e7c613d03565b5b90600052602060002090600702016004015442612e9a9190613d32565b9050600081612eb268056bc75e2d6310000085612dd9565b612ebc9190613ca9565b9050600081612ef968056bc75e2d6310000060138a81548110612ee257612ee1613d03565b5b906000526020600020906007020160060154612dd9565b612f039190613ca9565b9050600f547f5c155e8f37136295b53ae72fb3c0f568542d008fa91b541061b2d58d80d2657f3330846040518060400160405280601381526020017f6672656520636f322063616c63756c617465640000000000000000000000000081525042604051612f74959493929190613e44565b60405180910390a2600f6000815480929190612f8f90613e9e565b919050555080839550955050505050915091565b600073ffffffffffffffffffffffffffffffffffffffff168273ffffffffffffffffffffffffffffffffffffffff1603613012576040517f08c379a0000000000000000000000000000000000000000000000000000000008152600401613009906144df565b60405180910390fd5b61301e60008383613102565b80600260008282546130309190613c53565b92505081905550806000808473ffffffffffffffffffffffffffffffffffffffff1673ffffffffffffffffffffffffffffffffffffffff16815260200190815260200160002060008282546130859190613c53565b925050819055508173ffffffffffffffffffffffffffffffffffffffff16600073ffffffffffffffffffffffffffffffffffffffff167fddf252ad1be2c89b69c2b068fc378daa952ba7f163c4a11628f55a4df523b3ef836040516130ea91906132f4565b60405180910390a36130fe60008383613107565b5050565b505050565b505050565b600081519050919050565b600082825260208201905092915050565b60005b8381101561314657808201518184015260208101905061312b565b83811115613155576000848401525b50505050565b6000601f19601f8301169050919050565b60006131778261310c565b6131818185613117565b9350613191818560208601613128565b61319a8161315b565b840191505092915050565b600060208201905081810360008301526131bf818461316c565b905092915050565b6000604051905090565b600080fd5b600080fd5b600073ffffffffffffffffffffffffffffffffffffffff82169050919050565b6000613206826131db565b9050919050565b613216816131fb565b811461322157600080fd5b50565b6000813590506132338161320d565b92915050565b6000819050919050565b61324c81613239565b811461325757600080fd5b50565b60008135905061326981613243565b92915050565b60008060408385031215613286576132856131d1565b5b600061329485828601613224565b92505060206132a58582860161325a565b9150509250929050565b60008115159050919050565b6132c4816132af565b82525050565b60006020820190506132df60008301846132bb565b92915050565b6132ee81613239565b82525050565b600060208201905061330960008301846132e5565b92915050565b600080600060608486031215613328576133276131d1565b5b600061333686828701613224565b935050602061334786828701613224565b92505060406133588682870161325a565b9150509250925092565b600080fd5b600080fd5b7f4e487b7100000000000000000000000000000000000000000000000000000000600052604160045260246000fd5b6133a48261315b565b810181811067ffffffffffffffff821117156133c3576133c261336c565b5b80604052505050565b60006133d66131c7565b90506133e2828261339b565b919050565b600067ffffffffffffffff8211156134025761340161336c565b5b61340b8261315b565b9050602081019050919050565b82818337600083830152505050565b600061343a613435846133e7565b6133cc565b90508281526020810184848401111561345657613455613367565b5b613461848285613418565b509392505050565b600082601f83011261347e5761347d613362565b5b813561348e848260208601613427565b91505092915050565b6000602082840312156134ad576134ac6131d1565b5b600082013567ffffffffffffffff8111156134cb576134ca6131d6565b5b6134d784828501613469565b91505092915050565b600060408201905081810360008301526134fa818561316c565b905061350960208301846132e5565b9392505050565b600060208284031215613526576135256131d1565b5b600061353484828501613224565b91505092915050565b600060ff82169050919050565b6135538161353d565b82525050565b600060208201905061356e600083018461354a565b92915050565b60006020828403121561358a576135896131d1565b5b60006135988482850161325a565b91505092915050565b6135aa816131fb565b82525050565b600060e0820190506135c5600083018a6132e5565b6135d260208301896135a1565b6135df60408301886132e5565b6135ec60608301876132e5565b6135f960808301866132e5565b61360660a08301856132e5565b61361360c08301846132e5565b98975050505050505050565b60008060408385031215613636576136356131d1565b5b60006136448582860161325a565b92505060206136558582860161325a565b9150509250929050565b600080600060608486031215613678576136776131d1565b5b60006136868682870161325a565b93505060206136978682870161325a565b92505060406136a88682870161325a565b9150509250925092565b60006020820190506136c760008301846135a1565b92915050565b600081519050919050565b600082825260208201905092915050565b60006136f4826136cd565b6136fe81856136d8565b935061370e818560208601613128565b6137178161315b565b840191505092915050565b6000602082019050818103600083015261373c81846136e9565b905092915050565b6000806040838503121561375b5761375a6131d1565b5b600061376985828601613224565b925050602061377a85828601613224565b9150509250929050565b7f4e487b7100000000000000000000000000000000000000000000000000000000600052602260045260246000fd5b600060028204905060018216806137cb57607f821691505b6020821081036137de576137dd613784565b5b50919050565b7f796f75277265206e6f742061646d696e00000000000000000000000000000000600082015250565b600061381a601083613117565b9150613825826137e4565b602082019050919050565b600060208201905081810360008301526138498161380d565b9050919050565b7f45524332303a207472616e7366657220616d6f756e742065786365656473206160008201527f6c6c6f77616e6365000000000000000000000000000000000000000000000000602082015250565b60006138ac602883613117565b91506138b782613850565b604082019050919050565b600060208201905081810360008301526138db8161389f565b9050919050565b60006040820190506138f760008301856135a1565b61390460208301846132e5565b9392505050565b613914816132af565b811461391f57600080fd5b50565b6000815190506139318161390b565b92915050565b60006020828403121561394d5761394c6131d1565b5b600061395b84828501613922565b91505092915050565b60008190508160005260206000209050919050565b60006020601f8301049050919050565b600082821b905092915050565b6000600883026139c67fffffffffffffffffffffffffffffffffffffffffffffffffffffffffffffffff82613989565b6139d08683613989565b95508019841693508086168417925050509392505050565b6000819050919050565b6000613a0d613a08613a0384613239565b6139e8565b613239565b9050919050565b6000819050919050565b613a27836139f2565b613a3b613a3382613a14565b848454613996565b825550505050565b600090565b613a50613a43565b613a5b818484613a1e565b505050565b5b81811015613a7f57613a74600082613a48565b600181019050613a61565b5050565b601f821115613ac457613a9581613964565b613a9e84613979565b81016020851015613aad578190505b613ac1613ab985613979565b830182613a60565b50505b505050565b600082821c905092915050565b6000613ae760001984600802613ac9565b1980831691505092915050565b6000613b008383613ad6565b9150826002028217905092915050565b613b19826136cd565b67ffffffffffffffff811115613b3257613b3161336c565b5b613b3c82546137b3565b613b47828285613a83565b600060209050601f831160018114613b7a5760008415613b68578287015190505b613b728582613af4565b865550613bda565b601f198416613b8886613964565b60005b82811015613bb057848901518255600182019150602085019450602081019050613b8b565b86831015613bcd5784890151613bc9601f891682613ad6565b8355505b6001600288020188555050505b505050505050565b600081519050613bf181613243565b92915050565b600060208284031215613c0d57613c0c6131d1565b5b6000613c1b84828501613be2565b91505092915050565b7f4e487b7100000000000000000000000000000000000000000000000000000000600052601160045260246000fd5b6000613c5e82613239565b9150613c6983613239565b9250827fffffffffffffffffffffffffffffffffffffffffffffffffffffffffffffffff03821115613c9e57613c9d613c24565b5b828201905092915050565b6000613cb482613239565b9150613cbf83613239565b9250817fffffffffffffffffffffffffffffffffffffffffffffffffffffffffffffffff0483118215151615613cf857613cf7613c24565b5b828202905092915050565b7f4e487b7100000000000000000000000000000000000000000000000000000000600052603260045260246000fd5b6000613d3d82613239565b9150613d4883613239565b925082821015613d5b57613d5a613c24565b5b828203905092915050565b7f4e487b7100000000000000000000000000000000000000000000000000000000600052601260045260246000fd5b6000613da082613239565b9150613dab83613239565b925082613dbb57613dba613d66565b5b828204905092915050565b6000613de1613ddc613dd7846131db565b6139e8565b6131db565b9050919050565b6000613df382613dc6565b9050919050565b6000613e0582613de8565b9050919050565b613e1581613dfa565b82525050565b6000604082019050613e306000830185613e0c565b613e3d60208301846132e5565b9392505050565b600060a082019050613e5960008301886135a1565b613e6660208301876135a1565b613e7360408301866132e5565b8181036060830152613e8581856136e9565b9050613e9460808301846132e5565b9695505050505050565b6000613ea982613239565b91507fffffffffffffffffffffffffffffffffffffffffffffffffffffffffffffffff8203613edb57613eda613c24565b5b600182019050919050565b6000819050919050565b6000613f0b613f06613f0184613ee6565b6139e8565b613239565b9050919050565b613f1b81613ef0565b82525050565b600060a082019050613f3660008301886135a1565b613f4360208301876135a1565b613f506040830186613f12565b8181036060830152613f6281856136e9565b9050613f7160808301846132e5565b9695505050505050565b7f45524332303a2064656372656173656420616c6c6f77616e63652062656c6f7760008201527f207a65726f000000000000000000000000000000000000000000000000000000602082015250565b6000613fd7602583613117565b9150613fe282613f7b565b604082019050919050565b6000602082019050818103600083015261400681613fca565b9050919050565b7f6e6f7420656e6f7567682066756e647320666f72206173736574000000000000600082015250565b6000614043601a83613117565b915061404e8261400d565b602082019050919050565b6000602082019050818103600083015261407281614036565b9050919050565b7f696e73756666696369656e742062616c616e6365000000000000000000000000600082015250565b60006140af601483613117565b91506140ba82614079565b602082019050919050565b600060208201905081810360008301526140de816140a2565b9050919050565b7f696e73756666696369656e7420737570706c7900000000000000000000000000600082015250565b600061411b601383613117565b9150614126826140e5565b602082019050919050565b6000602082019050818103600083015261414a8161410e565b9050919050565b600060608201905061416660008301866135a1565b6141736020830185613e0c565b61418060408301846132e5565b949350505050565b7f45524332303a20617070726f76652066726f6d20746865207a65726f2061646460008201527f7265737300000000000000000000000000000000000000000000000000000000602082015250565b60006141e4602483613117565b91506141ef82614188565b604082019050919050565b60006020820190508181036000830152614213816141d7565b9050919050565b7f45524332303a20617070726f766520746f20746865207a65726f20616464726560008201527f7373000000000000000000000000000000000000000000000000000000000000602082015250565b6000614276602283613117565b91506142818261421a565b604082019050919050565b600060208201905081810360008301526142a581614269565b9050919050565b7f45524332303a207472616e736665722066726f6d20746865207a65726f20616460008201527f6472657373000000000000000000000000000000000000000000000000000000602082015250565b6000614308602583613117565b9150614313826142ac565b604082019050919050565b60006020820190508181036000830152614337816142fb565b9050919050565b7f45524332303a207472616e7366657220746f20746865207a65726f206164647260008201527f6573730000000000000000000000000000000000000000000000000000000000602082015250565b600061439a602383613117565b91506143a58261433e565b604082019050919050565b600060208201905081810360008301526143c98161438d565b9050919050565b7f45524332303a207472616e7366657220616d6f756e742065786365656473206260008201527f616c616e63650000000000000000000000000000000000000000000000000000602082015250565b600061442c602683613117565b9150614437826143d0565b604082019050919050565b6000602082019050818103600083015261445b8161441f565b9050919050565b600061446d82613239565b915061447883613239565b92508261448857614487613d66565b5b828206905092915050565b7f45524332303a206d696e7420746f20746865207a65726f206164647265737300600082015250565b60006144c9601f83613117565b91506144d482614493565b602082019050919050565b600060208201905081810360008301526144f8816144bc565b905091905056fea2646970667358221220396c932bc71c2545b80f0fcb175b2dccc8d4f99fe77c24ac5fa9315be7e5a6bf64736f6c634300080f00337b22757365726e616d65223a224073746572656f69696936222c22656d61696c223a22747970652e73746572656f40706d2e6d65227d",
  "immutableReferences": {},
  "source": "// SPDX-License-Identifier: GPL-3.0\n// // // // // // // // // // // // // // // // // // // // // // // // // // // // // // // // // // // // // // // // // // // // // // // // // // // // // // // // // // // // //\n//   \n//                                                 \n//      \n//      \n//\n// // // // // // // // // // // // // // // // // // // // // // // // // // // // // // // // // // // // // // // // // // // // // // // // // // // // // // // // // // // // //\n//                                                                                                                                                                                  //\n//                                                                                                                                                                                  //\n//                                                                                                                                                                                  //\n//                                                                                                                                                                                  //\n//                                                                                                                                                                                  //\n//      @artist ::          stereoIII6.eth                                                                                                                                          //\n//      @msg ::             stereoIII6.eth.chat                                                                                                                                     //\n//      @github ::          stereoIII6                                                                                                                                              //\n//                                                                                                                                                                                  //\n//      @dev ::             stereoIII6.eth                                                                                                                                          //\n//      @msg ::             stereoIII6.eth.chat                                                                                                                                     //\n//      @github ::          stereoIII6                                                                                                                                              //\n//                                                                                                                                                                                  //\n//      @author ::          stereoIII6.eth                                                                                                                                          //\n//      @msg ::             stereoIII6.eth.chat                                                                                                                                     //\n//      @github ::          stereoIII6                                                                                                                                              //\n//                                                                                                                                                                                  //\n//                                                                                                                                                                                  //\n//                                                                                                                                                                                  //\n// // // // // // // // // // // // // // // // // // // // // // // // // // // // // // // // // // // // // // // // // // // // // // // // // // // // // // // // // // // // //\n//                                                                                                                                                                                  //\n// // // // // // // // // // // // // // // // // // // // // // // // // // // // // // // // // // // // // // // // // // // // // // // // // // // // // // // // // // // // //\n//                                                                                                                                                                                  //\n//                                                                                                                                                                                  //\n//      @title ::           safe contract                                                                                                                                           //\n//      @description ::     Decentral Social Network Experiment                                                                                                                     //\n//      @version ::         0.0.1                                                                                                                                                   //\n//      @purpose ::         Bring real life into the Blockchain                                                                                                                     //\n//                                                                                                                                                                                  //\n//                                                                                                                                                                                  //\n//                                                                                                                                                                                  //\n//                                                                                                                                                                                  //\n//                                                                                                                                                                                  //\n// // // // // // // // // // // // // // // // // // // // // // // // // // // // // // // // // // // // // // // // // // // // // // // // // // // // // // // // // // // // //\n\npragma solidity ^0.8.0;\n\n// Open Zeppelin Imports\nimport \"@openzeppelin/contracts/token/ERC20/ERC20.sol\";\nimport \"@openzeppelin/contracts/token/ERC20/IERC20.sol\";\n\n// import \"@openzeppelin/contracts/token/ERC721/IERC721.sol\";\n// import \"@openzeppelin/contracts/token/ERC721/ERC721.sol\";\n\nimport \"@openzeppelin/contracts/token/ERC1155/ERC1155.sol\";\n// import \"@openzeppelin/contracts/token/ERC1155/IERC1155.sol\";\n\n// Chainlink Imports\n// import \"@chainlink/contracts/src/v0.8/VRFConsumerBase.sol\";\n\ncontract Init{\n    address public author = 0x1Cd6F4D329D38043a6bDB3665c3a7b06F79B5242;\n    mapping(address => uint256) public role;\n    mapping(address => bytes) public uData;\n    uint256 public maxSupply;\n    uint256 public availSupply;\n    uint256 rate;\n    uint256 digits = 1 * 10 ** 18;\n    IERC20 internal Token;\n    IERC20 internal MLQ;\n    mapping(address => bool) public isUser;\n    event Log(uint256 indexed id, address sender, address home, uint256 num, bytes message, uint256 stamp);\n    event Wait(uint256 indexed id, address sender, address home, uint256 num, bytes message, uint256 stamp);\n    uint256 logs;\n    modifier isAdmin() {\n        require(role[msg.sender] == 99, \"you're not admin\");\n        _;\n    }\n    modifier isOwner() {\n        require(author == msg.sender, \"you're not owner\");\n        _;\n    }\n    function changeRole(address _to, uint256 _role) external isAdmin() returns(bool){\n        role[_to] = _role;\n        return true;\n    }\n    function makeU(string memory _data) external returns(bool){\n        isUser[msg.sender] = true;\n        role[msg.sender] = 1;\n        uData[msg.sender] = bytes(_data);\n        return true;\n    }\n    function showU() external view returns(string memory, uint256){\n        return(string(uData[msg.sender]),role[msg.sender]);\n    }\n    function approveTokens(address _contract) external returns(bool){\n        Token = IERC20(_contract);\n        Token.approve(address(this),Token.balanceOf(msg.sender));\n        return true;\n    }\n    function approveTokenAmount(address _contract, uint256 _amnt) external returns(bool){\n        Token = IERC20(_contract);\n        Token.approve(address(this),_amnt);\n        return true;\n    }\n    function withdrawToken(address _contract) external isAdmin() returns(bool){\n        Token = IERC20(_contract);  \n        Token.transfer(author,Token.balanceOf(address(this)));\n        return true;\n    }\n    function divide(uint256 _a, uint256 _b) internal pure returns(uint256 res){\n        uint256 rem = _a % _b;\n        res = (_a - rem) / _b;\n    }\n    fallback() external{\n\n    }\n}\n\ncontract Trees is ERC20, Init{\n\n    constructor(address _mlq) ERC20(\"Impact Tree Token\", \"IMPCTrees\"){\n        require(msg.sender == author);\n        role[msg.sender] = 99;\n        uData[msg.sender] = bytes('{\"username\":\"@stereoiii6\",\"email\":\"type.stereo@pm.me\"}');\n        maxSupply = 5000000000000 * 10 ** 18;\n        emit Log(logs,msg.sender,address(this),999,bytes(\"contract created\"),block.timestamp);\n        rate = 35;\n        logs++;\n        MLQ = IERC20(_mlq);   \n    }\n\n    function plantTree(uint256 _amount) external payable returns(bool){\n        require(msg.value >= _amount * rate * 10 ** 12);\n        require(availSupply < maxSupply);\n        availSupply += msg.value*10000;\n        _mint(msg.sender, _amount * 10 ** 18);\n        emit Log(logs,msg.sender,address(this),_amount,bytes(\"trees minted\"),block.timestamp);\n        logs++;\n        return true;\n    }\n\n    function plantTreeMLQ(uint256 _amount) external payable returns(bool){\n        require(MLQ.balanceOf(msg.sender) >= 100 * _amount * rate * 10 ** 12);\n        require(availSupply < maxSupply);\n        MLQ.transferFrom(msg.sender,address(this), 100 * _amount * rate * 10 ** 12);\n        availSupply += msg.value*10000;\n        _mint(msg.sender, _amount * 10 ** 18);\n        emit Log(logs,msg.sender,address(this),_amount,bytes(\"trees minted\"),block.timestamp);\n        logs++;\n        return true;\n    }\n\n    function donateTrees(uint256 _amount) external returns(bool){\n        require(balanceOf(msg.sender) > _amount * 10 ** 18);\n        _burn(msg.sender, _amount * 10 ** 18);\n        emit Log(logs,msg.sender,address(this),_amount,bytes(\"trees burned\"),block.timestamp);\n        logs++;\n        return true;\n    }\n\n    function approveContract(address _contract) external returns(bool){\n        approve(_contract, balanceOf(msg.sender));\n        emit Log(logs,msg.sender,_contract,999,bytes(\"approve contract\"),block.timestamp);\n        logs++;\n        return true;\n    }\n\n    function trimTreesl(uint256 _newPrice) isAdmin() external returns(bool){\n        rate = _newPrice;\n        return true;\n    }\n\n    function withdraw(uint256 _eth, uint256 _tree) isAdmin() external returns(bool){\n        require(_tree * 10 ** 18 <= balanceOf(address(this)));\n        require(_eth * 10 ** 18 <= address(this).balance);\n        transfer(payable(author), _tree * 10 ** 18);\n        payable(author).transfer(_eth * 10 ** 18);\n        emit Log(logs,msg.sender,address(this),_tree,bytes(\"contract withdraw\"),block.timestamp);\n        logs++;\n        return true;\n    }\n}\n\ncontract Co2s is ERC20, Init {\n\n    IERC20 internal trees;\n\n    struct Bond{\n        uint256 id;\n        address adr;\n        uint256 amount;\n        uint256 region;\n        uint256 stamp;\n        uint256 duration;\n        uint256 co2;\n    }\n\n    mapping(address => uint256) public myBonds;\n    mapping(address => mapping(uint256 => uint256)) public myBondedCo2;\n\n    Bond[] public bonds;\n    uint256 c;\n    uint256 b;\n    uint256 per;\n    constructor(address _contract, uint256 _percent, address _mlq) ERC20(\"Carbon token\", \"CO2\"){\n        require(msg.sender == author);\n        role[msg.sender] = 99;\n        uData[msg.sender] = bytes('{\"username\":\"@stereoiii6\",\"email\":\"type.stereo@pm.me\"}');\n        maxSupply = 25000000000000 * 10 ** 18;\n        trees = IERC20(_contract);  \n        per = _percent;\n        emit Log(logs,msg.sender,address(this),_percent,bytes(\"contract created\"),block.timestamp);\n        MLQ = IERC20(_mlq);  \n        logs++;\n    }\n\n    function growTrees(uint256 _trees, uint256 _region, uint256 _duration) external payable returns(bool){\n        require(msg.value >= _trees * 10 ** 14 , \"not enough funds for asset\");\n        require(_trees <= trees.balanceOf(msg.sender), \"insufficient balance\");\n        require(5 * _trees * 10 ** 18 <= maxSupply - availSupply, \"insufficient supply\");\n        bonds.push(Bond(b ,msg.sender ,_trees * 10 ** 18 ,_region ,block.timestamp ,_duration ,5 * _trees * 10 ** 18));\n        availSupply += 5 * _trees * 10 ** 18;  \n        myBondedCo2[msg.sender][myBonds[msg.sender]] = b;\n        myBonds[msg.sender]++;\n        trees.transferFrom(msg.sender,payable(address(this)), _trees * 10 ** 18);\n        b++;\n        emit Log(logs,msg.sender,address(this),_trees,bytes(\"trees staked\"),block.timestamp);\n        logs++;\n        return true;\n    }\n\n    function growMoreTrees(uint256 _trees, uint256 _b) external payable returns(bool){\n        require(msg.value >= _trees * 10 ** 14);\n        require(_trees <= trees.balanceOf(msg.sender));\n        uint256 treez = _trees * 10 ** 18;\n        require(5 * treez <= maxSupply - availSupply);\n        uint256 p = divide(100,bonds[_b].amount) * treez;\n        bonds[_b].amount += treez;\n        bonds[_b].co2 += 5 * treez;\n        bonds[_b].duration += bonds[_b].duration * p;\n        uint256 fee = divide(treez,(100/per));\n        trees.transfer(payable(address(this)), treez - fee);\n        trees.transfer(payable(address(this)), fee);\n        emit Log(logs,msg.sender,address(this),_trees,bytes(\"trees addeed to stake\"),block.timestamp);\n        logs++;\n        return true;\n    }\n\n    function growLessTrees(uint256 _trees, uint256 _b) external payable returns(bool){\n        require(msg.value >= _trees * 10 ** 15);\n        uint256 treez = _trees * 10 ** 18;\n        require(treez <= bonds[myBondedCo2[msg.sender][myBonds[msg.sender]]].amount);\n        bonds[_b].amount -= treez;\n        bonds[_b].co2 -= 5 * treez; \n        uint256 fee = divide(treez,(100/per));\n        trees.transfer(payable(msg.sender), treez - fee);\n        trees.transfer(payable(address(this)), fee);\n        emit Log(logs,msg.sender,address(this),_trees,bytes(\"trees removed from stake\"),block.timestamp);\n        logs++;\n        return true;\n    }\n\n    function calcFreeCo2(uint256 _b) internal returns(uint256,uint256){\n        uint256 total = bonds[_b].duration * 60 * 60 * 24 * 365;\n        uint256 passed = block.timestamp - bonds[_b].stamp;\n        uint256 pDur = divide(100*10**18 , total) * passed;\n        uint256 freeCo2 = divide(100*10**18 , bonds[_b].co2) * pDur;\n        emit Log(logs,msg.sender,address(this),freeCo2,bytes(\"free co2 calculated\"),block.timestamp);\n        logs++;\n        return (freeCo2, passed);\n    }\n\n    function releaseFreeCo2(uint256 _m) external returns(bool){\n        uint256 _b = myBondedCo2[msg.sender][_m]; // get b_id\n        (uint256 free, uint256 passed) = calcFreeCo2(_b); // get free co2 & passed time\n        require(1 * 10 ** 18 <= free); // check amount\n        bonds[_b].co2 -= free;          // edit bonds data subtract\n        bonds[_b].stamp = block.timestamp;\n        uint256 addTime = divide(passed,(100 / per));\n        bonds[_b].duration += addTime;\n\n        uint256 fee = divide(free,(100/per));\n        _mint(msg.sender,(free - fee)); // mint free co2\n        _mint(address(this),fee);\n        emit Log(logs,msg.sender,address(this),free,bytes(\"free co2 minted\"),block.timestamp);\n        logs++;\n        return true;\n    }\n\n    function withdraw(uint256 _eth, uint256 _co2, uint256 _tree) isAdmin() external returns(bool){\n        require(_co2 * 10 ** 18 <= balanceOf(address(this)));\n        require(_tree * 10 ** 18 <= trees.balanceOf(address(this)));\n        require(_eth * 10 ** 18 <= address(this).balance);\n        transfer(payable(author), _co2 * 10 ** 18);\n        trees.transfer(payable(author), _tree * 10 ** 18);\n        payable(author).transfer(_eth * 10 ** 18);\n        emit Log(logs,msg.sender,address(this),999,bytes(\"contract fund balances 0\"),block.timestamp);\n        logs++;\n        return true;\n    }\n}\n\ncontract GardenPool is ERC1155, Init {\n    IERC20 internal TR3EZ;\n    IERC20 internal CO2;\n    IERC20 internal WETH;\n    IERC20 internal lowC;\n    IERC20 internal highC;\n    uint256 private per;\n    uint256 public collectedFees;\n    struct Garden{\n        uint256 id;\n        address low;\n        uint256 lowTotal;\n        address high;\n        bytes description;\n        uint256 low4high; \n        uint256 maxSize;\n        uint256 currentSize;\n    }\n    Garden[] public gardens;\n    uint256 g;\n    constructor(address _trees, address _co2, address _weth, uint256 _percent) ERC1155(\"IMgardens\") {\n        require(msg.sender == author);\n        role[msg.sender] = 99;\n        uData[msg.sender] = bytes('{\"username\":\"@stereoiii6\",\"email\":\"type.stereo@pm.me\"}');\n        TR3EZ = IERC20(_trees);\n        CO2 = IERC20(_co2);\n        WETH = IERC20(_weth);\n        per = _percent;\n        emit Log(logs,msg.sender,address(this),_percent,bytes(\"contract created\"),block.timestamp);\n        logs++;\n    }\n\n    function createGarden(string memory _name, address _hi, address _lo) external returns(bool){\n        _setURI(_name);\n        _mint(address(this),g,100*10**6,bytes(_name)); // 1 : 10 000 // 100 000 weth : 1 000 000 000 trees = 100% // 1 weth : 10 000 trees = 0,001% of max pool size\n        gardens.push(Garden(g,_hi,1000000000,_lo,bytes(_name),10000,100000,0));\n        g++;\n        return true;   \n    }\n\n    function addliquidity(uint256 _id, uint256 _low) external payable returns(bool){\n        uint256 low = _low * 10 ** 6;\n        uint256 high = gardens[_id].low4high * low;    \n        lowC = IERC20(gardens[_id].low);\n        highC = IERC20(gardens[_id].high);\n        require(lowC.balanceOf(msg.sender) >= low);\n        require(highC.balanceOf(msg.sender) >= high);\n        lowC.transferFrom(msg.sender, address(this), low);\n        highC.transferFrom(msg.sender, address(this), high);\n        uint256 gardenDrops = divide(100 * 10 ** 6 , gardens[_id].lowTotal) * low;\n        safeTransferFrom(address(this),msg.sender,gardens[_id].id,gardenDrops,gardens[_id].description);\n        gardens[_id].currentSize += gardenDrops;\n        return true;\n    }\n\n    function removeLiquidity(uint256 _id, uint256 _gardenDrops) external payable returns(bool){\n        uint256 low = divide(100 * 10 ** 6 , gardens[_id].lowTotal) * _gardenDrops;\n        uint256 high = low * gardens[_id].low4high;\n        lowC = IERC20(gardens[_id].low);\n        highC = IERC20(gardens[_id].high);\n        require(lowC.balanceOf(address(this)) >= low);\n        require(highC.balanceOf(address(this)) >= high);\n        lowC.transferFrom(address(this), msg.sender, low);\n        highC.transferFrom(address(this),msg.sender, high);\n        safeTransferFrom(msg.sender,address(this),gardens[_id].id,_gardenDrops,gardens[_id].description);\n        gardens[_id].currentSize -= _gardenDrops;\n        return true;\n    }\n\n    function swapLowHigh(uint256 _id, uint256 _low) external payable returns(bool){\n        uint256 low = _low * 10 ** 6;\n        lowC = IERC20(gardens[_id].low);\n        highC = IERC20(gardens[_id].high);\n        require(lowC.balanceOf(msg.sender) >= low);\n        uint256 fee = divide(100 * 10 ** 6, low) * (100/per);\n        uint256 get = gardens[_id].low4high * (low - fee);\n        require(highC.balanceOf(address(this)) >= get);\n        lowC.transferFrom(msg.sender, address(this), low);\n        highC.transferFrom( address(this), msg.sender, get);\n        collectedFees += fee;\n        return true;\n    }\n\n    function swapHighLow(uint256 _id, uint256 _high) external payable returns(bool){\n        uint256 high = _high * 10 ** 6;\n        lowC = IERC20(gardens[_id].low);\n        highC = IERC20(gardens[_id].high);\n        require(highC.balanceOf(msg.sender) >= high);\n        uint256 fee = divide(100 * 10 ** 6, high) * (100/per);\n        uint256 get = divide(high - fee ,gardens[_id].low4high);\n        require(highC.balanceOf(address(this)) >= get);\n        highC.transferFrom(msg.sender, address(this), high);\n        lowC.transferFrom(address(this), msg.sender, get);\n        collectedFees += fee;\n        return true;\n    }\n\n    function waterGardens(uint256 _id) external payable returns(uint256){\n        lowC = IERC20(gardens[_id].low);\n        highC = IERC20(gardens[_id].high);\n        uint256 lBal = lowC.balanceOf(address(this));\n        uint256 hBal = highC.balanceOf(address(this));\n        uint256 rRatio = divide(hBal , lBal);\n        uint256 eRatio = divide(gardens[_id].low4high, 1);\n        uint256 difRatio = divide(100,eRatio) * rRatio;\n        return difRatio;\n    }\n\n}",
  "sourcePath": "/Users/jediswag/Documents/GitHub/ourPlanet/contracts/Gardens.sol",
  "compiler": {
    "name": "solc",
    "version": "0.8.15+commit.e14f2714.Emscripten.clang"
  },
  "schemaVersion": "3.4.4",
  "updatedAt": "2022-06-17T08:51:22.764Z",
  "devdoc": {
    "kind": "dev",
    "methods": {
      "allowance(address,address)": {
        "details": "See {IERC20-allowance}."
      },
      "approve(address,uint256)": {
        "details": "See {IERC20-approve}. Requirements: - `spender` cannot be the zero address."
      },
      "balanceOf(address)": {
        "details": "See {IERC20-balanceOf}."
      },
      "decimals()": {
        "details": "Returns the number of decimals used to get its user representation. For example, if `decimals` equals `2`, a balance of `505` tokens should be displayed to a user as `5.05` (`505 / 10 ** 2`). Tokens usually opt for a value of 18, imitating the relationship between Ether and Wei. This is the value {ERC20} uses, unless this function is overridden; NOTE: This information is only used for _display_ purposes: it in no way affects any of the arithmetic of the contract, including {IERC20-balanceOf} and {IERC20-transfer}."
      },
      "decreaseAllowance(address,uint256)": {
        "details": "Atomically decreases the allowance granted to `spender` by the caller. This is an alternative to {approve} that can be used as a mitigation for problems described in {IERC20-approve}. Emits an {Approval} event indicating the updated allowance. Requirements: - `spender` cannot be the zero address. - `spender` must have allowance for the caller of at least `subtractedValue`."
      },
      "increaseAllowance(address,uint256)": {
        "details": "Atomically increases the allowance granted to `spender` by the caller. This is an alternative to {approve} that can be used as a mitigation for problems described in {IERC20-approve}. Emits an {Approval} event indicating the updated allowance. Requirements: - `spender` cannot be the zero address."
      },
      "name()": {
        "details": "Returns the name of the token."
      },
      "symbol()": {
        "details": "Returns the symbol of the token, usually a shorter version of the name."
      },
      "totalSupply()": {
        "details": "See {IERC20-totalSupply}."
      },
      "transfer(address,uint256)": {
        "details": "See {IERC20-transfer}. Requirements: - `recipient` cannot be the zero address. - the caller must have a balance of at least `amount`."
      },
      "transferFrom(address,address,uint256)": {
        "details": "See {IERC20-transferFrom}. Emits an {Approval} event indicating the updated allowance. This is not required by the EIP. See the note at the beginning of {ERC20}. Requirements: - `sender` and `recipient` cannot be the zero address. - `sender` must have a balance of at least `amount`. - the caller must have allowance for ``sender``'s tokens of at least `amount`."
      }
    },
    "version": 1
  },
  "userdoc": {
    "kind": "user",
    "methods": {},
    "version": 1
  }
}