{
  "contractName": "EcoMintNFT",
  "abi": [
    {
      "inputs": [
        {
          "internalType": "address",
          "name": "_owner",
          "type": "address"
        },
        {
          "internalType": "string",
          "name": "_name",
          "type": "string"
        },
        {
          "internalType": "string",
          "name": "_sym",
          "type": "string"
        },
        {
          "internalType": "address",
          "name": "_treeAdr",
          "type": "address"
        },
        {
          "internalType": "address",
          "name": "_usdc",
          "type": "address"
        },
        {
          "internalType": "address",
          "name": "_vrf",
          "type": "address"
        },
        {
          "internalType": "address",
          "name": "_mlq",
          "type": "address"
        }
      ],
      "stateMutability": "nonpayable",
      "type": "constructor"
    },
    {
      "anonymous": false,
      "inputs": [
        {
          "indexed": true,
          "internalType": "address",
          "name": "owner",
          "type": "address"
        },
        {
          "indexed": true,
          "internalType": "address",
          "name": "approved",
          "type": "address"
        },
        {
          "indexed": true,
          "internalType": "uint256",
          "name": "tokenId",
          "type": "uint256"
        }
      ],
      "name": "Approval",
      "type": "event"
    },
    {
      "anonymous": false,
      "inputs": [
        {
          "indexed": true,
          "internalType": "address",
          "name": "owner",
          "type": "address"
        },
        {
          "indexed": true,
          "internalType": "address",
          "name": "operator",
          "type": "address"
        },
        {
          "indexed": false,
          "internalType": "bool",
          "name": "approved",
          "type": "bool"
        }
      ],
      "name": "ApprovalForAll",
      "type": "event"
    },
    {
      "anonymous": false,
      "inputs": [
        {
          "indexed": true,
          "internalType": "address",
          "name": "from",
          "type": "address"
        },
        {
          "indexed": true,
          "internalType": "address",
          "name": "to",
          "type": "address"
        },
        {
          "indexed": true,
          "internalType": "uint256",
          "name": "tokenId",
          "type": "uint256"
        }
      ],
      "name": "Transfer",
      "type": "event"
    },
    {
      "inputs": [
        {
          "internalType": "address",
          "name": "to",
          "type": "address"
        },
        {
          "internalType": "uint256",
          "name": "tokenId",
          "type": "uint256"
        }
      ],
      "name": "approve",
      "outputs": [],
      "stateMutability": "nonpayable",
      "type": "function"
    },
    {
      "inputs": [
        {
          "internalType": "address",
          "name": "owner",
          "type": "address"
        }
      ],
      "name": "balanceOf",
      "outputs": [
        {
          "internalType": "uint256",
          "name": "",
          "type": "uint256"
        }
      ],
      "stateMutability": "view",
      "type": "function"
    },
    {
      "inputs": [
        {
          "internalType": "uint256",
          "name": "",
          "type": "uint256"
        }
      ],
      "name": "dias",
      "outputs": [
        {
          "internalType": "bytes",
          "name": "",
          "type": "bytes"
        }
      ],
      "stateMutability": "view",
      "type": "function"
    },
    {
      "inputs": [
        {
          "internalType": "uint256",
          "name": "tokenId",
          "type": "uint256"
        }
      ],
      "name": "getApproved",
      "outputs": [
        {
          "internalType": "address",
          "name": "",
          "type": "address"
        }
      ],
      "stateMutability": "view",
      "type": "function"
    },
    {
      "inputs": [],
      "name": "getName",
      "outputs": [
        {
          "internalType": "string",
          "name": "",
          "type": "string"
        }
      ],
      "stateMutability": "view",
      "type": "function"
    },
    {
      "inputs": [],
      "name": "getSym",
      "outputs": [
        {
          "internalType": "string",
          "name": "",
          "type": "string"
        }
      ],
      "stateMutability": "view",
      "type": "function"
    },
    {
      "inputs": [
        {
          "internalType": "uint256",
          "name": "_id",
          "type": "uint256"
        }
      ],
      "name": "holder",
      "outputs": [
        {
          "internalType": "address",
          "name": "",
          "type": "address"
        }
      ],
      "stateMutability": "view",
      "type": "function"
    },
    {
      "inputs": [
        {
          "internalType": "address",
          "name": "owner",
          "type": "address"
        },
        {
          "internalType": "address",
          "name": "operator",
          "type": "address"
        }
      ],
      "name": "isApprovedForAll",
      "outputs": [
        {
          "internalType": "bool",
          "name": "",
          "type": "bool"
        }
      ],
      "stateMutability": "view",
      "type": "function"
    },
    {
      "inputs": [
        {
          "internalType": "address",
          "name": "_adr",
          "type": "address"
        }
      ],
      "name": "isOwner",
      "outputs": [
        {
          "internalType": "bool",
          "name": "",
          "type": "bool"
        }
      ],
      "stateMutability": "view",
      "type": "function"
    },
    {
      "inputs": [],
      "name": "max",
      "outputs": [
        {
          "internalType": "uint256",
          "name": "",
          "type": "uint256"
        }
      ],
      "stateMutability": "view",
      "type": "function"
    },
    {
      "inputs": [
        {
          "internalType": "uint256",
          "name": "_amnt",
          "type": "uint256"
        }
      ],
      "name": "mint",
      "outputs": [
        {
          "internalType": "uint256",
          "name": "",
          "type": "uint256"
        }
      ],
      "stateMutability": "nonpayable",
      "type": "function"
    },
    {
      "inputs": [],
      "name": "minted",
      "outputs": [
        {
          "internalType": "uint256",
          "name": "",
          "type": "uint256"
        }
      ],
      "stateMutability": "view",
      "type": "function"
    },
    {
      "inputs": [],
      "name": "mlq",
      "outputs": [
        {
          "internalType": "contract MLQ",
          "name": "",
          "type": "address"
        }
      ],
      "stateMutability": "view",
      "type": "function"
    },
    {
      "inputs": [],
      "name": "nam",
      "outputs": [
        {
          "internalType": "string",
          "name": "",
          "type": "string"
        }
      ],
      "stateMutability": "view",
      "type": "function"
    },
    {
      "inputs": [],
      "name": "name",
      "outputs": [
        {
          "internalType": "string",
          "name": "",
          "type": "string"
        }
      ],
      "stateMutability": "view",
      "type": "function"
    },
    {
      "inputs": [],
      "name": "owner",
      "outputs": [
        {
          "internalType": "address",
          "name": "",
          "type": "address"
        }
      ],
      "stateMutability": "view",
      "type": "function"
    },
    {
      "inputs": [
        {
          "internalType": "uint256",
          "name": "tokenId",
          "type": "uint256"
        }
      ],
      "name": "ownerOf",
      "outputs": [
        {
          "internalType": "address",
          "name": "",
          "type": "address"
        }
      ],
      "stateMutability": "view",
      "type": "function"
    },
    {
      "inputs": [
        {
          "internalType": "address",
          "name": "from",
          "type": "address"
        },
        {
          "internalType": "address",
          "name": "to",
          "type": "address"
        },
        {
          "internalType": "uint256",
          "name": "tokenId",
          "type": "uint256"
        }
      ],
      "name": "safeTransferFrom",
      "outputs": [],
      "stateMutability": "nonpayable",
      "type": "function"
    },
    {
      "inputs": [
        {
          "internalType": "address",
          "name": "from",
          "type": "address"
        },
        {
          "internalType": "address",
          "name": "to",
          "type": "address"
        },
        {
          "internalType": "uint256",
          "name": "tokenId",
          "type": "uint256"
        },
        {
          "internalType": "bytes",
          "name": "_data",
          "type": "bytes"
        }
      ],
      "name": "safeTransferFrom",
      "outputs": [],
      "stateMutability": "nonpayable",
      "type": "function"
    },
    {
      "inputs": [
        {
          "internalType": "address",
          "name": "operator",
          "type": "address"
        },
        {
          "internalType": "bool",
          "name": "approved",
          "type": "bool"
        }
      ],
      "name": "setApprovalForAll",
      "outputs": [],
      "stateMutability": "nonpayable",
      "type": "function"
    },
    {
      "inputs": [
        {
          "internalType": "bytes4",
          "name": "interfaceId",
          "type": "bytes4"
        }
      ],
      "name": "supportsInterface",
      "outputs": [
        {
          "internalType": "bool",
          "name": "",
          "type": "bool"
        }
      ],
      "stateMutability": "view",
      "type": "function"
    },
    {
      "inputs": [],
      "name": "sym",
      "outputs": [
        {
          "internalType": "string",
          "name": "",
          "type": "string"
        }
      ],
      "stateMutability": "view",
      "type": "function"
    },
    {
      "inputs": [],
      "name": "symbol",
      "outputs": [
        {
          "internalType": "string",
          "name": "",
          "type": "string"
        }
      ],
      "stateMutability": "view",
      "type": "function"
    },
    {
      "inputs": [
        {
          "internalType": "uint256",
          "name": "tokenId",
          "type": "uint256"
        }
      ],
      "name": "tokenURI",
      "outputs": [
        {
          "internalType": "string",
          "name": "",
          "type": "string"
        }
      ],
      "stateMutability": "view",
      "type": "function"
    },
    {
      "inputs": [
        {
          "internalType": "address",
          "name": "from",
          "type": "address"
        },
        {
          "internalType": "address",
          "name": "to",
          "type": "address"
        },
        {
          "internalType": "uint256",
          "name": "tokenId",
          "type": "uint256"
        }
      ],
      "name": "transferFrom",
      "outputs": [],
      "stateMutability": "nonpayable",
      "type": "function"
    },
    {
      "inputs": [],
      "name": "trees",
      "outputs": [
        {
          "internalType": "contract Trees",
          "name": "",
          "type": "address"
        }
      ],
      "stateMutability": "view",
      "type": "function"
    },
    {
      "inputs": [],
      "name": "usdc",
      "outputs": [
        {
          "internalType": "contract ERC20",
          "name": "",
          "type": "address"
        }
      ],
      "stateMutability": "view",
      "type": "function"
    },
    {
      "inputs": [],
      "name": "vrf",
      "outputs": [
        {
          "internalType": "contract VRFv2Consumer",
          "name": "",
          "type": "address"
        }
      ],
      "stateMutability": "view",
      "type": "function"
    },
    {
      "inputs": [
        {
          "internalType": "uint256",
          "name": "_val",
          "type": "uint256"
        }
      ],
      "name": "setValue",
      "outputs": [
        {
          "internalType": "uint256",
          "name": "",
          "type": "uint256"
        }
      ],
      "stateMutability": "nonpayable",
      "type": "function"
    },
    {
      "inputs": [
        {
          "internalType": "uint256",
          "name": "_amnt",
          "type": "uint256"
        }
      ],
      "name": "ecoMint",
      "outputs": [
        {
          "internalType": "uint256",
          "name": "",
          "type": "uint256"
        }
      ],
      "stateMutability": "nonpayable",
      "type": "function"
    }
  ],
  "bytecode": "0x60806040523480156200001157600080fd5b5060405162003dc738038062003dc7833981810160405281019062000037919062000401565b868686858585848481600090816200005091906200073d565b5080600190816200006291906200073d565b50505085600660006101000a81548173ffffffffffffffffffffffffffffffffffffffff021916908373ffffffffffffffffffffffffffffffffffffffff1602179055506103e86008819055508460099081620000c091906200073d565b5083600a9081620000d291906200073d565b5081600b60006101000a81548173ffffffffffffffffffffffffffffffffffffffff021916908373ffffffffffffffffffffffffffffffffffffffff16021790555082600c60006101000a81548173ffffffffffffffffffffffffffffffffffffffff021916908373ffffffffffffffffffffffffffffffffffffffff16021790555080600d60006101000a81548173ffffffffffffffffffffffffffffffffffffffff021916908373ffffffffffffffffffffffffffffffffffffffff16021790555050505050505083600f60006101000a81548173ffffffffffffffffffffffffffffffffffffffff021916908373ffffffffffffffffffffffffffffffffffffffff16021790555068015af1d78b58c4000060108190555067014df48080e300006011819055505050505050505062000824565b6000604051905090565b600080fd5b600080fd5b600073ffffffffffffffffffffffffffffffffffffffff82169050919050565b60006200024a826200021d565b9050919050565b6200025c816200023d565b81146200026857600080fd5b50565b6000815190506200027c8162000251565b92915050565b600080fd5b600080fd5b6000601f19601f8301169050919050565b7f4e487b7100000000000000000000000000000000000000000000000000000000600052604160045260246000fd5b620002d7826200028c565b810181811067ffffffffffffffff82111715620002f957620002f86200029d565b5b80604052505050565b60006200030e62000209565b90506200031c8282620002cc565b919050565b600067ffffffffffffffff8211156200033f576200033e6200029d565b5b6200034a826200028c565b9050602081019050919050565b60005b83811015620003775780820151818401526020810190506200035a565b60008484015250505050565b60006200039a620003948462000321565b62000302565b905082815260208101848484011115620003b957620003b862000287565b5b620003c684828562000357565b509392505050565b600082601f830112620003e657620003e562000282565b5b8151620003f884826020860162000383565b91505092915050565b600080600080600080600060e0888a03121562000423576200042262000213565b5b6000620004338a828b016200026b565b975050602088015167ffffffffffffffff81111562000457576200045662000218565b5b620004658a828b01620003ce565b965050604088015167ffffffffffffffff81111562000489576200048862000218565b5b620004978a828b01620003ce565b9550506060620004aa8a828b016200026b565b9450506080620004bd8a828b016200026b565b93505060a0620004d08a828b016200026b565b92505060c0620004e38a828b016200026b565b91505092959891949750929550565b600081519050919050565b7f4e487b7100000000000000000000000000000000000000000000000000000000600052602260045260246000fd5b600060028204905060018216806200054557607f821691505b6020821081036200055b576200055a620004fd565b5b50919050565b60008190508160005260206000209050919050565b60006020601f8301049050919050565b600082821b905092915050565b600060088302620005c57fffffffffffffffffffffffffffffffffffffffffffffffffffffffffffffffff8262000586565b620005d1868362000586565b95508019841693508086168417925050509392505050565b6000819050919050565b6000819050919050565b60006200061e620006186200061284620005e9565b620005f3565b620005e9565b9050919050565b6000819050919050565b6200063a83620005fd565b62000652620006498262000625565b84845462000593565b825550505050565b600090565b620006696200065a565b620006768184846200062f565b505050565b5b818110156200069e57620006926000826200065f565b6001810190506200067c565b5050565b601f821115620006ed57620006b78162000561565b620006c28462000576565b81016020851015620006d2578190505b620006ea620006e18562000576565b8301826200067b565b50505b505050565b600082821c905092915050565b60006200071260001984600802620006f2565b1980831691505092915050565b60006200072d8383620006ff565b9150826002028217905092915050565b6200074882620004f2565b67ffffffffffffffff8111156200076457620007636200029d565b5b6200077082546200052c565b6200077d828285620006a2565b600060209050601f831160018114620007b55760008415620007a0578287015190505b620007ac85826200071f565b8655506200081c565b601f198416620007c58662000561565b60005b82811015620007ef57848901518255600182019150602085019450602081019050620007c8565b868310156200080f57848901516200080b601f891682620006ff565b8355505b6001600288020188555050505b505050505050565b61359380620008346000396000f3fe608060405234801561001057600080fd5b50600436106101da5760003560e01c80636352211e116101045780639b4f589f116100a2578063b88d4fde11610071578063b88d4fde14610585578063ba899a2e146105a1578063c87b56dd146105d1578063e985e9c514610601576101da565b80639b4f589f146104d9578063a0712d6814610509578063a22cb46514610539578063a318d2e814610555576101da565b806383813a28116100de57806383813a28146104615780638da5cb5b1461047f57806395d89b411461049d5780639af9bec0146104bb576101da565b80636352211e146103e35780636ac5db191461041357806370a0823114610431576101da565b806317d7de7c1161017c57806342842e0e1161014b57806342842e0e1461035b578063489969f1146103775780634f02c4201461039557806355241077146103b3576101da565b806317d7de7c146102d357806323b872dd146102f15780632f54bf6e1461030d5780633e413bee1461033d576101da565b8063095ea7b3116101b8578063095ea7b31461025d5780630c9490431461027957806312e2dbd814610297578063178bcc93146102b5576101da565b806301ffc9a7146101df57806306fdde031461020f578063081812fc1461022d575b600080fd5b6101f960048036038101906101f49190612249565b610631565b6040516102069190612291565b60405180910390f35b610217610713565b604051610224919061233c565b60405180910390f35b61024760048036038101906102429190612394565b6107a5565b6040516102549190612402565b60405180910390f35b61027760048036038101906102729190612449565b61082a565b005b610281610941565b60405161028e91906124e8565b60405180910390f35b61029f610967565b6040516102ac919061233c565b60405180910390f35b6102bd6109f9565b6040516102ca9190612524565b60405180910390f35b6102db610a1f565b6040516102e8919061233c565b60405180910390f35b61030b6004803603810190610306919061253f565b610ab1565b005b61032760048036038101906103229190612592565b610b11565b6040516103349190612291565b60405180910390f35b610345610b7b565b60405161035291906125e0565b60405180910390f35b6103756004803603810190610370919061253f565b610ba1565b005b61037f610bc1565b60405161038c919061261c565b60405180910390f35b61039d610be7565b6040516103aa9190612646565b60405180910390f35b6103cd60048036038101906103c89190612394565b610bed565b6040516103da9190612646565b60405180910390f35b6103fd60048036038101906103f89190612394565b610bfc565b60405161040a9190612402565b60405180910390f35b61041b610cad565b6040516104289190612646565b60405180910390f35b61044b60048036038101906104469190612592565b610cb3565b6040516104589190612646565b60405180910390f35b610469610d6a565b604051610476919061233c565b60405180910390f35b610487610df8565b6040516104949190612402565b60405180910390f35b6104a5610e1e565b6040516104b2919061233c565b60405180910390f35b6104c3610eb0565b6040516104d0919061233c565b60405180910390f35b6104f360048036038101906104ee9190612394565b610f3e565b60405161050091906126b6565b60405180910390f35b610523600480360381019061051e9190612394565b610fde565b6040516105309190612646565b60405180910390f35b610553600480360381019061054e9190612704565b611004565b005b61056f600480360381019061056a9190612394565b61101a565b60405161057c9190612646565b60405180910390f35b61059f600480360381019061059a9190612879565b611375565b005b6105bb60048036038101906105b69190612394565b6113d7565b6040516105c89190612402565b60405180910390f35b6105eb60048036038101906105e69190612394565b6113e9565b6040516105f8919061233c565b60405180910390f35b61061b600480360381019061061691906128fc565b611490565b6040516106289190612291565b60405180910390f35b60007f80ac58cd000000000000000000000000000000000000000000000000000000007bffffffffffffffffffffffffffffffffffffffffffffffffffffffff1916827bffffffffffffffffffffffffffffffffffffffffffffffffffffffff191614806106fc57507f5b5e139f000000000000000000000000000000000000000000000000000000007bffffffffffffffffffffffffffffffffffffffffffffffffffffffff1916827bffffffffffffffffffffffffffffffffffffffffffffffffffffffff1916145b8061070c575061070b82611524565b5b9050919050565b6060600080546107229061296b565b80601f016020809104026020016040519081016040528092919081815260200182805461074e9061296b565b801561079b5780601f106107705761010080835404028352916020019161079b565b820191906000526020600020905b81548152906001019060200180831161077e57829003601f168201915b5050505050905090565b60006107b08261158e565b6107ef576040517f08c379a00000000000000000000000000000000000000000000000000000000081526004016107e690612a0e565b60405180910390fd5b6004600083815260200190815260200160002060009054906101000a900473ffffffffffffffffffffffffffffffffffffffff169050919050565b600061083582610bfc565b90508073ffffffffffffffffffffffffffffffffffffffff168373ffffffffffffffffffffffffffffffffffffffff16036108a5576040517f08c379a000000000000000000000000000000000000000000000000000000000815260040161089c90612aa0565b60405180910390fd5b8073ffffffffffffffffffffffffffffffffffffffff166108c46115fa565b73ffffffffffffffffffffffffffffffffffffffff1614806108f357506108f2816108ed6115fa565b611490565b5b610932576040517f08c379a000000000000000000000000000000000000000000000000000000000815260040161092990612b32565b60405180910390fd5b61093c8383611602565b505050565b600b60009054906101000a900473ffffffffffffffffffffffffffffffffffffffff1681565b6060600a80546109769061296b565b80601f01602080910402602001604051908101604052809291908181526020018280546109a29061296b565b80156109ef5780601f106109c4576101008083540402835291602001916109ef565b820191906000526020600020905b8154815290600101906020018083116109d257829003601f168201915b5050505050905090565b600f60009054906101000a900473ffffffffffffffffffffffffffffffffffffffff1681565b606060098054610a2e9061296b565b80601f0160208091040260200160405190810160405280929190818152602001828054610a5a9061296b565b8015610aa75780601f10610a7c57610100808354040283529160200191610aa7565b820191906000526020600020905b815481529060010190602001808311610a8a57829003601f168201915b5050505050905090565b610ac2610abc6115fa565b826116bb565b610b01576040517f08c379a0000000000000000000000000000000000000000000000000000000008152600401610af890612bc4565b60405180910390fd5b610b0c838383611799565b505050565b6000600660009054906101000a900473ffffffffffffffffffffffffffffffffffffffff1673ffffffffffffffffffffffffffffffffffffffff168273ffffffffffffffffffffffffffffffffffffffff1603610b715760019050610b76565b600090505b919050565b600c60009054906101000a900473ffffffffffffffffffffffffffffffffffffffff1681565b610bbc83838360405180602001604052806000815250611375565b505050565b600d60009054906101000a900473ffffffffffffffffffffffffffffffffffffffff1681565b60075481565b60008160118190559050919050565b6000806002600084815260200190815260200160002060009054906101000a900473ffffffffffffffffffffffffffffffffffffffff169050600073ffffffffffffffffffffffffffffffffffffffff168173ffffffffffffffffffffffffffffffffffffffff1603610ca4576040517f08c379a0000000000000000000000000000000000000000000000000000000008152600401610c9b90612c56565b60405180910390fd5b80915050919050565b60085481565b60008073ffffffffffffffffffffffffffffffffffffffff168273ffffffffffffffffffffffffffffffffffffffff1603610d23576040517f08c379a0000000000000000000000000000000000000000000000000000000008152600401610d1a90612ce8565b60405180910390fd5b600360008373ffffffffffffffffffffffffffffffffffffffff1673ffffffffffffffffffffffffffffffffffffffff168152602001908152602001600020549050919050565b600a8054610d779061296b565b80601f0160208091040260200160405190810160405280929190818152602001828054610da39061296b565b8015610df05780601f10610dc557610100808354040283529160200191610df0565b820191906000526020600020905b815481529060010190602001808311610dd357829003601f168201915b505050505081565b600660009054906101000a900473ffffffffffffffffffffffffffffffffffffffff1681565b606060018054610e2d9061296b565b80601f0160208091040260200160405190810160405280929190818152602001828054610e599061296b565b8015610ea65780601f10610e7b57610100808354040283529160200191610ea6565b820191906000526020600020905b815481529060010190602001808311610e8957829003601f168201915b5050505050905090565b60098054610ebd9061296b565b80601f0160208091040260200160405190810160405280929190818152602001828054610ee99061296b565b8015610f365780601f10610f0b57610100808354040283529160200191610f36565b820191906000526020600020905b815481529060010190602001808311610f1957829003601f168201915b505050505081565b600e6020528060005260406000206000915090508054610f5d9061296b565b80601f0160208091040260200160405190810160405280929190818152602001828054610f899061296b565b8015610fd65780601f10610fab57610100808354040283529160200191610fd6565b820191906000526020600020905b815481529060010190602001808311610fb957829003601f168201915b505050505081565b600060085460075410610ff057600080fd5b610ff9826119f4565b506007549050919050565b61101661100f6115fa565b8383611b32565b5050565b60006008546007541061102c57600080fd5b600060115460105461103e9190612d37565b90506000818461104e9190612d6b565b905060008467014df48080e300006110669190612d6b565b9050600c60009054906101000a900473ffffffffffffffffffffffffffffffffffffffff1673ffffffffffffffffffffffffffffffffffffffff166370a08231336040518263ffffffff1660e01b81526004016110c39190612402565b602060405180830381865afa1580156110e0573d6000803e3d6000fd5b505050506040513d601f19601f820116820180604052508101906111049190612dda565b81836111109190612d37565b10611150576040517f08c379a000000000000000000000000000000000000000000000000000000000815260040161114790612e53565b60405180910390fd5b600c60009054906101000a900473ffffffffffffffffffffffffffffffffffffffff1673ffffffffffffffffffffffffffffffffffffffff166323b872dd33738cf3c63be0bc3d1478496b6449316babd225f78a846040518463ffffffff1660e01b81526004016111c393929190612e73565b6020604051808303816000875af11580156111e2573d6000803e3d6000fd5b505050506040513d601f19601f820116820180604052508101906112069190612ebf565b50600c60009054906101000a900473ffffffffffffffffffffffffffffffffffffffff1673ffffffffffffffffffffffffffffffffffffffff166323b872dd3330856040518463ffffffff1660e01b815260040161126693929190612e73565b6020604051808303816000875af1158015611285573d6000803e3d6000fd5b505050506040513d601f19601f820116820180604052508101906112a99190612ebf565b50600f60009054906101000a900473ffffffffffffffffffffffffffffffffffffffff1673ffffffffffffffffffffffffffffffffffffffff1663f8fcabe333670de0b6b3a7640000886112fd9190612d6b565b6040518363ffffffff1660e01b815260040161131a929190612eec565b6020604051808303816000875af1158015611339573d6000803e3d6000fd5b505050506040513d601f19601f8201168201806040525081019061135d9190612ebf565b50611367856119f4565b506007549350505050919050565b6113866113806115fa565b836116bb565b6113c5576040517f08c379a00000000000000000000000000000000000000000000000000000000081526004016113bc90612bc4565b60405180910390fd5b6113d184848484611c9e565b50505050565b60006113e282610bfc565b9050919050565b60606113f48261158e565b611433576040517f08c379a000000000000000000000000000000000000000000000000000000000815260040161142a90612f87565b60405180910390fd5b600061143d611cfa565b9050600081511161145d5760405180602001604052806000815250611488565b8061146784611d11565b604051602001611478929190612fe3565b6040516020818303038152906040525b915050919050565b6000600560008473ffffffffffffffffffffffffffffffffffffffff1673ffffffffffffffffffffffffffffffffffffffff16815260200190815260200160002060008373ffffffffffffffffffffffffffffffffffffffff1673ffffffffffffffffffffffffffffffffffffffff16815260200190815260200160002060009054906101000a900460ff16905092915050565b60007f01ffc9a7000000000000000000000000000000000000000000000000000000007bffffffffffffffffffffffffffffffffffffffffffffffffffffffff1916827bffffffffffffffffffffffffffffffffffffffffffffffffffffffff1916149050919050565b60008073ffffffffffffffffffffffffffffffffffffffff166002600084815260200190815260200160002060009054906101000a900473ffffffffffffffffffffffffffffffffffffffff1673ffffffffffffffffffffffffffffffffffffffff1614159050919050565b600033905090565b816004600083815260200190815260200160002060006101000a81548173ffffffffffffffffffffffffffffffffffffffff021916908373ffffffffffffffffffffffffffffffffffffffff160217905550808273ffffffffffffffffffffffffffffffffffffffff1661167583610bfc565b73ffffffffffffffffffffffffffffffffffffffff167f8c5be1e5ebec7d5bd14f71427d1e84f3dd0314c0f7b2291e5b200ac8c7c3b92560405160405180910390a45050565b60006116c68261158e565b611705576040517f08c379a00000000000000000000000000000000000000000000000000000000081526004016116fc90613079565b60405180910390fd5b600061171083610bfc565b90508073ffffffffffffffffffffffffffffffffffffffff168473ffffffffffffffffffffffffffffffffffffffff16148061177f57508373ffffffffffffffffffffffffffffffffffffffff16611767846107a5565b73ffffffffffffffffffffffffffffffffffffffff16145b80611790575061178f8185611490565b5b91505092915050565b8273ffffffffffffffffffffffffffffffffffffffff166117b982610bfc565b73ffffffffffffffffffffffffffffffffffffffff161461180f576040517f08c379a00000000000000000000000000000000000000000000000000000000081526004016118069061310b565b60405180910390fd5b600073ffffffffffffffffffffffffffffffffffffffff168273ffffffffffffffffffffffffffffffffffffffff160361187e576040517f08c379a00000000000000000000000000000000000000000000000000000000081526004016118759061319d565b60405180910390fd5b611889838383611e71565b611894600082611602565b6001600360008573ffffffffffffffffffffffffffffffffffffffff1673ffffffffffffffffffffffffffffffffffffffff16815260200190815260200160002060008282546118e491906131bd565b925050819055506001600360008473ffffffffffffffffffffffffffffffffffffffff1673ffffffffffffffffffffffffffffffffffffffff168152602001908152602001600020600082825461193b9190612d37565b92505081905550816002600083815260200190815260200160002060006101000a81548173ffffffffffffffffffffffffffffffffffffffff021916908373ffffffffffffffffffffffffffffffffffffffff160217905550808273ffffffffffffffffffffffffffffffffffffffff168473ffffffffffffffffffffffffffffffffffffffff167fddf252ad1be2c89b69c2b068fc378daa952ba7f163c4a11628f55a4df523b3ef60405160405180910390a4505050565b6000611a0233600754611e76565b60076000815480929190611a15906131f1565b919050555060028210611b2857611a2e33600754611e76565b60076000815480929190611a41906131f1565b919050555060038210611b2757611a5a33600754611e76565b60076000815480929190611a6d906131f1565b919050555060048210611b2657611a8633600754611e76565b60076000815480929190611a99906131f1565b919050555060058210611b2557611ab233600754611e76565b60076000815480929190611ac5906131f1565b919050555060068210611b2457611ade33600754611e76565b60076000815480929190611af1906131f1565b919050555060078210611b2357611b0a33600754611e76565b60076000815480929190611b1d906131f1565b91905055505b5b5b5b5b5b6007549050919050565b8173ffffffffffffffffffffffffffffffffffffffff168373ffffffffffffffffffffffffffffffffffffffff1603611ba0576040517f08c379a0000000000000000000000000000000000000000000000000000000008152600401611b9790613285565b60405180910390fd5b80600560008573ffffffffffffffffffffffffffffffffffffffff1673ffffffffffffffffffffffffffffffffffffffff16815260200190815260200160002060008473ffffffffffffffffffffffffffffffffffffffff1673ffffffffffffffffffffffffffffffffffffffff16815260200190815260200160002060006101000a81548160ff0219169083151502179055508173ffffffffffffffffffffffffffffffffffffffff168373ffffffffffffffffffffffffffffffffffffffff167f17307eab39ab6107e8899845ad3d59bd9653f200f220920489ca2b5937696c3183604051611c919190612291565b60405180910390a3505050565b611ca9848484611799565b611cb584848484612043565b611cf4576040517f08c379a0000000000000000000000000000000000000000000000000000000008152600401611ceb90613317565b60405180910390fd5b50505050565b606060405180602001604052806000815250905090565b606060008203611d58576040518060400160405280600181526020017f30000000000000000000000000000000000000000000000000000000000000008152509050611e6c565b600082905060005b60008214611d8a578080611d73906131f1565b915050600a82611d839190613366565b9150611d60565b60008167ffffffffffffffff811115611da657611da561274e565b5b6040519080825280601f01601f191660200182016040528015611dd85781602001600182028036833780820191505090505b5090505b60008514611e6557600182611df191906131bd565b9150600a85611e009190613397565b6030611e0c9190612d37565b60f81b818381518110611e2257611e216133c8565b5b60200101907effffffffffffffffffffffffffffffffffffffffffffffffffffffffffffff1916908160001a905350600a85611e5e9190613366565b9450611ddc565b8093505050505b919050565b505050565b600073ffffffffffffffffffffffffffffffffffffffff168273ffffffffffffffffffffffffffffffffffffffff1603611ee5576040517f08c379a0000000000000000000000000000000000000000000000000000000008152600401611edc90613443565b60405180910390fd5b611eee8161158e565b15611f2e576040517f08c379a0000000000000000000000000000000000000000000000000000000008152600401611f25906134af565b60405180910390fd5b611f3a60008383611e71565b6001600360008473ffffffffffffffffffffffffffffffffffffffff1673ffffffffffffffffffffffffffffffffffffffff1681526020019081526020016000206000828254611f8a9190612d37565b92505081905550816002600083815260200190815260200160002060006101000a81548173ffffffffffffffffffffffffffffffffffffffff021916908373ffffffffffffffffffffffffffffffffffffffff160217905550808273ffffffffffffffffffffffffffffffffffffffff16600073ffffffffffffffffffffffffffffffffffffffff167fddf252ad1be2c89b69c2b068fc378daa952ba7f163c4a11628f55a4df523b3ef60405160405180910390a45050565b60006120648473ffffffffffffffffffffffffffffffffffffffff166121ca565b156121bd578373ffffffffffffffffffffffffffffffffffffffff1663150b7a0261208d6115fa565b8786866040518563ffffffff1660e01b81526004016120af94939291906134cf565b6020604051808303816000875af19250505080156120eb57506040513d601f19601f820116820180604052508101906120e89190613530565b60015b61216d573d806000811461211b576040519150601f19603f3d011682016040523d82523d6000602084013e612120565b606091505b506000815103612165576040517f08c379a000000000000000000000000000000000000000000000000000000000815260040161215c90613317565b60405180910390fd5b805181602001fd5b63150b7a0260e01b7bffffffffffffffffffffffffffffffffffffffffffffffffffffffff1916817bffffffffffffffffffffffffffffffffffffffffffffffffffffffff1916149150506121c2565b600190505b949350505050565b600080823b905060008111915050919050565b6000604051905090565b600080fd5b600080fd5b60007fffffffff0000000000000000000000000000000000000000000000000000000082169050919050565b612226816121f1565b811461223157600080fd5b50565b6000813590506122438161221d565b92915050565b60006020828403121561225f5761225e6121e7565b5b600061226d84828501612234565b91505092915050565b60008115159050919050565b61228b81612276565b82525050565b60006020820190506122a66000830184612282565b92915050565b600081519050919050565b600082825260208201905092915050565b60005b838110156122e65780820151818401526020810190506122cb565b60008484015250505050565b6000601f19601f8301169050919050565b600061230e826122ac565b61231881856122b7565b93506123288185602086016122c8565b612331816122f2565b840191505092915050565b600060208201905081810360008301526123568184612303565b905092915050565b6000819050919050565b6123718161235e565b811461237c57600080fd5b50565b60008135905061238e81612368565b92915050565b6000602082840312156123aa576123a96121e7565b5b60006123b88482850161237f565b91505092915050565b600073ffffffffffffffffffffffffffffffffffffffff82169050919050565b60006123ec826123c1565b9050919050565b6123fc816123e1565b82525050565b600060208201905061241760008301846123f3565b92915050565b612426816123e1565b811461243157600080fd5b50565b6000813590506124438161241d565b92915050565b600080604083850312156124605761245f6121e7565b5b600061246e85828601612434565b925050602061247f8582860161237f565b9150509250929050565b6000819050919050565b60006124ae6124a96124a4846123c1565b612489565b6123c1565b9050919050565b60006124c082612493565b9050919050565b60006124d2826124b5565b9050919050565b6124e2816124c7565b82525050565b60006020820190506124fd60008301846124d9565b92915050565b600061250e826124b5565b9050919050565b61251e81612503565b82525050565b60006020820190506125396000830184612515565b92915050565b600080600060608486031215612558576125576121e7565b5b600061256686828701612434565b935050602061257786828701612434565b92505060406125888682870161237f565b9150509250925092565b6000602082840312156125a8576125a76121e7565b5b60006125b684828501612434565b91505092915050565b60006125ca826124b5565b9050919050565b6125da816125bf565b82525050565b60006020820190506125f560008301846125d1565b92915050565b6000612606826124b5565b9050919050565b612616816125fb565b82525050565b6000602082019050612631600083018461260d565b92915050565b6126408161235e565b82525050565b600060208201905061265b6000830184612637565b92915050565b600081519050919050565b600082825260208201905092915050565b600061268882612661565b612692818561266c565b93506126a28185602086016122c8565b6126ab816122f2565b840191505092915050565b600060208201905081810360008301526126d0818461267d565b905092915050565b6126e181612276565b81146126ec57600080fd5b50565b6000813590506126fe816126d8565b92915050565b6000806040838503121561271b5761271a6121e7565b5b600061272985828601612434565b925050602061273a858286016126ef565b9150509250929050565b600080fd5b600080fd5b7f4e487b7100000000000000000000000000000000000000000000000000000000600052604160045260246000fd5b612786826122f2565b810181811067ffffffffffffffff821117156127a5576127a461274e565b5b80604052505050565b60006127b86121dd565b90506127c4828261277d565b919050565b600067ffffffffffffffff8211156127e4576127e361274e565b5b6127ed826122f2565b9050602081019050919050565b82818337600083830152505050565b600061281c612817846127c9565b6127ae565b90508281526020810184848401111561283857612837612749565b5b6128438482856127fa565b509392505050565b600082601f8301126128605761285f612744565b5b8135612870848260208601612809565b91505092915050565b60008060008060808587031215612893576128926121e7565b5b60006128a187828801612434565b94505060206128b287828801612434565b93505060406128c38782880161237f565b925050606085013567ffffffffffffffff8111156128e4576128e36121ec565b5b6128f08782880161284b565b91505092959194509250565b60008060408385031215612913576129126121e7565b5b600061292185828601612434565b925050602061293285828601612434565b9150509250929050565b7f4e487b7100000000000000000000000000000000000000000000000000000000600052602260045260246000fd5b6000600282049050600182168061298357607f821691505b6020821081036129965761299561293c565b5b50919050565b7f4552433732313a20617070726f76656420717565727920666f72206e6f6e657860008201527f697374656e7420746f6b656e0000000000000000000000000000000000000000602082015250565b60006129f8602c836122b7565b9150612a038261299c565b604082019050919050565b60006020820190508181036000830152612a27816129eb565b9050919050565b7f4552433732313a20617070726f76616c20746f2063757272656e74206f776e6560008201527f7200000000000000000000000000000000000000000000000000000000000000602082015250565b6000612a8a6021836122b7565b9150612a9582612a2e565b604082019050919050565b60006020820190508181036000830152612ab981612a7d565b9050919050565b7f4552433732313a20617070726f76652063616c6c6572206973206e6f74206f7760008201527f6e6572206e6f7220617070726f76656420666f7220616c6c0000000000000000602082015250565b6000612b1c6038836122b7565b9150612b2782612ac0565b604082019050919050565b60006020820190508181036000830152612b4b81612b0f565b9050919050565b7f4552433732313a207472616e736665722063616c6c6572206973206e6f74206f60008201527f776e6572206e6f7220617070726f766564000000000000000000000000000000602082015250565b6000612bae6031836122b7565b9150612bb982612b52565b604082019050919050565b60006020820190508181036000830152612bdd81612ba1565b9050919050565b7f4552433732313a206f776e657220717565727920666f72206e6f6e657869737460008201527f656e7420746f6b656e0000000000000000000000000000000000000000000000602082015250565b6000612c406029836122b7565b9150612c4b82612be4565b604082019050919050565b60006020820190508181036000830152612c6f81612c33565b9050919050565b7f4552433732313a2062616c616e636520717565727920666f7220746865207a6560008201527f726f206164647265737300000000000000000000000000000000000000000000602082015250565b6000612cd2602a836122b7565b9150612cdd82612c76565b604082019050919050565b60006020820190508181036000830152612d0181612cc5565b9050919050565b7f4e487b7100000000000000000000000000000000000000000000000000000000600052601160045260246000fd5b6000612d428261235e565b9150612d4d8361235e565b9250828201905080821115612d6557612d64612d08565b5b92915050565b6000612d768261235e565b9150612d818361235e565b9250817fffffffffffffffffffffffffffffffffffffffffffffffffffffffffffffffff0483118215151615612dba57612db9612d08565b5b828202905092915050565b600081519050612dd481612368565b92915050565b600060208284031215612df057612def6121e7565b5b6000612dfe84828501612dc5565b91505092915050565b7f696e73756666696369656e742066756e64730000000000000000000000000000600082015250565b6000612e3d6012836122b7565b9150612e4882612e07565b602082019050919050565b60006020820190508181036000830152612e6c81612e30565b9050919050565b6000606082019050612e8860008301866123f3565b612e9560208301856123f3565b612ea26040830184612637565b949350505050565b600081519050612eb9816126d8565b92915050565b600060208284031215612ed557612ed46121e7565b5b6000612ee384828501612eaa565b91505092915050565b6000604082019050612f0160008301856123f3565b612f0e6020830184612637565b9392505050565b7f4552433732314d657461646174613a2055524920717565727920666f72206e6f60008201527f6e6578697374656e7420746f6b656e0000000000000000000000000000000000602082015250565b6000612f71602f836122b7565b9150612f7c82612f15565b604082019050919050565b60006020820190508181036000830152612fa081612f64565b9050919050565b600081905092915050565b6000612fbd826122ac565b612fc78185612fa7565b9350612fd78185602086016122c8565b80840191505092915050565b6000612fef8285612fb2565b9150612ffb8284612fb2565b91508190509392505050565b7f4552433732313a206f70657261746f7220717565727920666f72206e6f6e657860008201527f697374656e7420746f6b656e0000000000000000000000000000000000000000602082015250565b6000613063602c836122b7565b915061306e82613007565b604082019050919050565b6000602082019050818103600083015261309281613056565b9050919050565b7f4552433732313a207472616e73666572206f6620746f6b656e2074686174206960008201527f73206e6f74206f776e0000000000000000000000000000000000000000000000602082015250565b60006130f56029836122b7565b915061310082613099565b604082019050919050565b60006020820190508181036000830152613124816130e8565b9050919050565b7f4552433732313a207472616e7366657220746f20746865207a65726f2061646460008201527f7265737300000000000000000000000000000000000000000000000000000000602082015250565b60006131876024836122b7565b91506131928261312b565b604082019050919050565b600060208201905081810360008301526131b68161317a565b9050919050565b60006131c88261235e565b91506131d38361235e565b92508282039050818111156131eb576131ea612d08565b5b92915050565b60006131fc8261235e565b91507fffffffffffffffffffffffffffffffffffffffffffffffffffffffffffffffff820361322e5761322d612d08565b5b600182019050919050565b7f4552433732313a20617070726f766520746f2063616c6c657200000000000000600082015250565b600061326f6019836122b7565b915061327a82613239565b602082019050919050565b6000602082019050818103600083015261329e81613262565b9050919050565b7f4552433732313a207472616e7366657220746f206e6f6e20455243373231526560008201527f63656976657220696d706c656d656e7465720000000000000000000000000000602082015250565b60006133016032836122b7565b915061330c826132a5565b604082019050919050565b60006020820190508181036000830152613330816132f4565b9050919050565b7f4e487b7100000000000000000000000000000000000000000000000000000000600052601260045260246000fd5b60006133718261235e565b915061337c8361235e565b92508261338c5761338b613337565b5b828204905092915050565b60006133a28261235e565b91506133ad8361235e565b9250826133bd576133bc613337565b5b828206905092915050565b7f4e487b7100000000000000000000000000000000000000000000000000000000600052603260045260246000fd5b7f4552433732313a206d696e7420746f20746865207a65726f2061646472657373600082015250565b600061342d6020836122b7565b9150613438826133f7565b602082019050919050565b6000602082019050818103600083015261345c81613420565b9050919050565b7f4552433732313a20746f6b656e20616c7265616479206d696e74656400000000600082015250565b6000613499601c836122b7565b91506134a482613463565b602082019050919050565b600060208201905081810360008301526134c88161348c565b9050919050565b60006080820190506134e460008301876123f3565b6134f160208301866123f3565b6134fe6040830185612637565b8181036060830152613510818461267d565b905095945050505050565b60008151905061352a8161221d565b92915050565b600060208284031215613546576135456121e7565b5b60006135548482850161351b565b9150509291505056fea26469706673582212204dc08941a4af7f0d9bce24cb3f163bb5c9620d36e43f2e787814c5c172d752b464736f6c63430008100033",
  "immutableReferences": {},
  "source": "// SPDX-License-Identifier: GPL-3.0\n// // // // // // // // // // // // // // // // // // // // // // // // // // // // // // // // // // // // // // // // // // // // // // // // // // // // // // // // // // // // //\n//\n//              .d8888.  .d88b.  db    db d888888b d88888b d888888b db    db\n//              88'  YP .8P  88. `8b  d8'   `88'   88'     `~~88~~' `8b  d8'\n//              `8bo.   88  d'88  `8bd8'     88    88ooooo    88     `8bd8'\n//                `Y8b. 88 d' 88  .dPYb.     88    88~~~~~    88       88\n//              db   8D `88  d8' .8P  Y8.   .88.   88.        88       88\n//              `8888Y'  `Y88P'  YP    YP Y888888P Y88888P    YP       YP\n//\n// // // // // // // // // // // // // // // // // // // // // // // // // // // // // // // // // // // // // // // // // // // // // // // // // // // // // // // // // // // // //\n//                                                                                                                                                                                  //\n//      @dev            ::              stereoIII6.dao                                                                                                                                          //\n//      @msg            ::              type.stereo@pm.me                                                                                                                                    //\n//      @github         ::              @stereoIII6\n//      @twitter        ::              @stereoIII6                                                                                                                                              //\n//                                                                                                                                                                                  //\n// // // // // // // // // // // // // // // // // // // // // // // // // // // // // // // // // // // // // // // // // // // // // // // // // // // // // // // // // // // // //\n//                                                                                                                                                                                  //\n//      @dev            ::              Juan Xavier Valverde                                                                                                                                    //\n//      @msg            ::              juanxaviervm@hotmail.com                                                                                                                               //\n//      @twitter        ::              @JuanXavier                                                                                                                                             //\n//      @github         ::              @JuanXavier                                                                                                                                             //\n//                                                                                                                                                                                  //                                                                                                                                                                                 //\n// // // // // // // // // // // // // // // // // // // // // // // // // // // // // // // // // // // // // // // // // // // // // // // // // // // // // // // // // // // // //\n//  *   *   *   *   *   *   *   *   *   *   *   *   *   *   *   *   *   *   *   *   *   *   *   *   *   *   *   *   *   *   *   *   *   *   *   *   *   *   *   *   *   *   *   *   //\n// // // // // // // // // // // // // // // // // // // // // // // // // // // // // // // // // // // // // // // // // // // // // // // // // // // // // // // // // // // // //\n//                                                                                                                                                                                  //\n//                                                                                                                                                                                  //\n//      @title          ::              s0xiety Connect                                                                                                                             //\n//      @description    ::              decentral s0xiety                                                                                                                           //\n//      @version        ::              0.0.1                                                                                                                                       //\n//      @purpose        ::              Refer friennds on the blockchain                                                                                                            //\n//                                                                                                                                                                                  //\n//                                                                                                                                                                                  //\n//                                                                                                                                                                                  //\n//                                                                                                                                                                                  //\n//                                                                                                                                                                                  //\n// // // // // // // // // // // // // // // // // // // // // // // // // // // // // // // // // // // // // // // // // // // // // // // // // // // // // // // // // // // // //\n//  *   *   *   *   *   *   *   *   *   *   *   *   *   *   *   *   *   *   *   *   *   *   *   *   *   *   *   *   *   *   *   *   *   *   *   *   *   *   *   *   *   *   *   *   //\n// // // // // // // // // // // // // // // // // // // // // // // // // // // // // // // // // // // // // // // // // // // // // // // // // // // // // // // // // // // // //\n\n/////////////////////////////////////////////////////////////////////////////////////////////////////////////////////\n\n/* \n\nINSTRUCTIONS \n\nHere are the source codes you will need to test the functionality of the eco mint function with USDC payment \n(because of the 0.094$ price) \n\n- USDC is an obvious mockUp with a airdrop function so you can grab some coins !\n- Trees is the TR33 Contract that takes care of the Tree Tokenomics and gives the user his TR33 Tokens\n- MLQ is our Impact.dao Utility and Liquidity Token (unused but a dependency)\n- ECO is the Eco Mint NFT Contract that automates one tree per NFT into the payment process \n\nHope that helps the easiest way is to deploy all the contracts in remix and try to \n\n\n0x20DB02Af8Fcc4D615611fCF6Cc31F623934C4781 :: Migration AVAX FUJI\n0xc278F07732220eB944Ef75ef2C8592d438A0579B :: v2Consumer\n0x5A604d07782B7303Bd2327D133F13A58bd17dc43 :: USDC on AVAX FUJI TESTNET\n0x722085855daB50c949785E4C926df7d6Cda60230 :: MLQ on AVAX FUJI\n0x5Dea8a438763BFFD73A18d8e5298643d33AeE5bD :: TR33 on AVAX FUJI\n0xeeA920766956b54147EA61FA2B8962Ad063402eB :: CO2 on AVAX FUJI\n0x0D0fE0b0D62Ad323355acAD09f0b6B5FDed6353F :: s0x Factory on AVAX FUJI\n0xA15f2a5e6700eEEB98236290e308E3f522494A86 :: ECO NFT on AVAX FUJI\n0x4FFB094260023dcFB5C17ae412a06D712a61a133 :: GardenPool on AVAX FUJI\n\n1 . Deploy USDC \n2 . Deploy MLQ\n3 . Deploy Trees using USDC Adress as input param\n4 . Deploy ECO using a) account address b) token name c) token symbol d) tree contract address e) usdc contract address\n5 . In USDC / call dropUSDC function to collect USDC funds\n6 . In USDC / approve ECO contract as Spender of your USDC balance\n7 . In ECO / call ecoMint using number of tokens to buy as input param\n8 . In Trees / call getClaims to receive TR33 Tokens \n\nThats kind of it !\n\ngreetings and blessings https://stereoIII6.dao\n\n*/\n\n/////////////////////////////////////////////////////////////////////////////////////////////////////////////////////\n\npragma solidity ^0.8.7;\n\nimport \"@openzeppelin/contracts/utils/Counters.sol\";\nimport \"@openzeppelin/contracts/utils/Strings.sol\";\nimport \"@openzeppelin/contracts/token/ERC20/ERC20.sol\";\nimport \"@openzeppelin/contracts/token/ERC20/IERC20.sol\";\nimport \"@openzeppelin/contracts/token/ERC721/ERC721.sol\";\nimport \"@openzeppelin/contracts/token/ERC721/IERC721.sol\";\nimport \"@openzeppelin/contracts/token/ERC1155/ERC1155.sol\";\nimport \"@chainlink/contracts/src/v0.8/interfaces/AggregatorV3Interface.sol\";\nimport \"@chainlink/contracts/src/v0.8/interfaces/LinkTokenInterface.sol\";\nimport \"@chainlink/contracts/src/v0.8/interfaces/VRFCoordinatorV2Interface.sol\";\nimport \"@chainlink/contracts/src/v0.8/VRFConsumerBaseV2.sol\";\n\n/** \n0xb0897686c545045afc77cf20ec7a532e3120e0f1 :: Link Token Polygon Main\n0xAE975071Be8F8eE67addBC1A82488F1C24858067 :: VRF\n0xcc294a196eeeb44da2888d17c0625cc88d70d9760a69d58d853ba6581a9ab0cd :: 500 gwei Keyhash\n0xd729dc84e21ae57ffb6be0053bf2b0668aa2aaf300a2a7b2ddf7dc0bb6e875a8 :: 1000 gwei Keyhash\n\n0x326C977E6efc84E512bB9C30f76E30c160eD06FB :: Link Token Polygon Mumbai\n0x7a1BaC17Ccc5b313516C5E16fb24f7659aA5ebed :: VRF\n0x4b09e658ed251bcafeebbc69400383d49f344ace09b9576fe248bb02c003fe9f :: 500 gwei Keyhash\n\n0x5947BB275c521040051D82396192181b413227A3 :: Link Token AVAX Mainnet\n0xd5D517aBE5cF79B7e95eC98dB0f0277788aFF634 :: VRF\n0x89630569c9567e43c4fe7b1633258df9f2531b62f2352fa721cf3162ee4ecb46 :: 500 gwei Keyhash\n0x06eb0e2ea7cca202fc7c8258397a36f33d88568d2522b37aaa3b14ff6ee1b696 :: 1000 gwei Keyhash\n\n0x0b9d5D9136855f6FEc3c0993feE6E9CE8a297846 :: Link Token AVAX Testnet\n0x2eD832Ba664535e5886b75D64C46EB9a228C2610 :: VRF\n0x354d2f95da55398f44b7cff77da56283d9c6c829a4bdf1bbcaf2ad6a4d081f61 :: 300 gwei Keyhash\n\n0x6f43ff82cca38001b6699a8ac47a2d0e66939407 :: Link Token Fantom Mainnet\n0xd5D517aBE5cF79B7e95eC98dB0f0277788aFF634 :: VRF\n0x5881eea62f9876043df723cf89f0c2bb6f950da25e9dfe66995c24f919c8f8ab :: 10000 gwei Keyhash\n0x64ae04e5dba58bc08ba2d53eb33fe95bf71f5002789692fe78fb3778f16121c9 :: 20000 gwei Keyhash\n\n0xfaFedb041c0DD4fA2Dc0d87a6B0979Ee6FA7af5F :: Link Token Fantom Testnet\n0xbd13f08b8352A3635218ab9418E340c60d6Eb418 :: VRF\n0x121a143066e0f2f08b620784af77cccb35c6242460b4a8ee251b4b416abaebd4 :: 3000 gwei Keyhash\n\n */\ncontract VRFv2Consumer is VRFConsumerBaseV2 {\n    VRFCoordinatorV2Interface COORDINATOR;\n\n    // Your subscription ID.\n    uint64 s_subscriptionId;\n\n    /* => */\n    // AVAX Fuji coordinator. For other networks,\n    // see https://docs.chain.link/docs/vrf-contracts/#configurations\n    address vrfCoordinator = 0x2eD832Ba664535e5886b75D64C46EB9a228C2610;\n    bytes32 keyHash =\n        0x354d2f95da55398f44b7cff77da56283d9c6c829a4bdf1bbcaf2ad6a4d081f61;\n    // */\n\n    /* => / // AVAX Mainnet coordinator. For other networks,\n    // see https://docs.chain.link/docs/vrf-contracts/#configurations\n    address vrfCoordinator = 0xd5D517aBE5cF79B7e95eC98dB0f0277788aFF634;\n    bytes32 keyHash =\n        0x06eb0e2ea7cca202fc7c8258397a36f33d88568d2522b37aaa3b14ff6ee1b696;\n    // */\n\n    uint32 callbackGasLimit = 100000;\n    uint16 requestConfirmations = 3;\n    uint32 numWords = 3;\n\n    mapping(uint256 => uint256[]) public s_requestIdToRandomWords;\n    mapping(uint256 => address) public s_requestIdToAddress;\n    uint256 public s_requestId;\n    address s_owner;\n\n    constructor(uint64 subscriptionId) VRFConsumerBaseV2(vrfCoordinator) {\n        COORDINATOR = VRFCoordinatorV2Interface(vrfCoordinator);\n        s_owner = msg.sender;\n        s_subscriptionId = subscriptionId;\n    }\n\n    function randy(uint256 _rid) external view returns (uint256[] memory) {\n        return s_requestIdToRandomWords[_rid];\n    }\n\n    // Assumes the subscription is funded sufficiently.\n    function requestRandomWords() external returns (uint256) {\n        uint256 requestId = COORDINATOR.requestRandomWords(\n            keyHash,\n            s_subscriptionId,\n            requestConfirmations,\n            callbackGasLimit,\n            numWords\n        );\n        s_requestIdToAddress[requestId] = msg.sender;\n\n        // Store the latest requestId for this example.\n        s_requestId = requestId;\n\n        // Return the requestId to the requester.\n        return requestId;\n    }\n\n    function fulfillRandomWords(uint256 requestId, uint256[] memory randomWords)\n        internal\n        override\n    {\n        // You can return the value to the requester,\n        // but this example simply stores it.\n        s_requestIdToRandomWords[requestId] = randomWords;\n    }\n\n    modifier onlyOwner() {\n        require(msg.sender == s_owner);\n        _;\n    }\n}\n\n// 0 Fuji // 1 Avax // 2 Fantom Test // 4 Fantom Main // 5 Polygon Mumbai // 6 Polygon Main\ncontract PriceConsumerV3 {\n    AggregatorV3Interface internal ethUSDagg;\n    AggregatorV3Interface internal mainUSDagg;\n\n    constructor(uint256 _net) {\n        if (_net == 0) {\n            // AVAX FUJI\n            ethUSDagg = AggregatorV3Interface(\n                0x86d67c3D38D2bCeE722E601025C25a575021c6EA\n            );\n            mainUSDagg = AggregatorV3Interface(\n                0x5498BB86BC934c8D34FDA08E81D444153d0D06aD\n            );\n        } else if (_net == 1) {\n            // AVAX MAINNET\n            ethUSDagg = AggregatorV3Interface(\n                0x976B3D034E162d8bD72D6b9C989d545b839003b0\n            );\n            mainUSDagg = AggregatorV3Interface(\n                0x0A77230d17318075983913bC2145DB16C7366156\n            );\n        } else if (_net == 2) {\n            // Fantom TESTNET\n            ethUSDagg = AggregatorV3Interface(\n                0xB8C458C957a6e6ca7Cc53eD95bEA548c52AFaA24\n            );\n            mainUSDagg = AggregatorV3Interface(\n                0xe04676B9A9A2973BCb0D1478b5E1E9098BBB7f3D\n            );\n        } else if (_net == 3) {\n            // Fantom MAINNET\n            ethUSDagg = AggregatorV3Interface(\n                0x11DdD3d147E5b83D01cee7070027092397d63658\n            );\n            mainUSDagg = AggregatorV3Interface(\n                0xf4766552D15AE4d256Ad41B6cf2933482B0680dc\n            );\n        } else if (_net == 4) {\n            // Polygon Mumbai\n            ethUSDagg = AggregatorV3Interface(\n                0x0715A7794a1dc8e42615F059dD6e406A6594651A\n            );\n            mainUSDagg = AggregatorV3Interface(\n                0xd0D5e3DB44DE05E9F294BB0a3bEEaF030DE24Ada\n            );\n        } else if (_net == 5) {\n            // Polygon Mainnet\n            ethUSDagg = AggregatorV3Interface(\n                0xF9680D99D6C9589e2a93a78A04A279e509205945\n            );\n            mainUSDagg = AggregatorV3Interface(\n                0xAB594600376Ec9fD91F8e885dADF0CE036862dE0\n            );\n        }\n    }\n\n    function EthUsdPrice() public view returns (int256) {\n        (\n            ,\n            /*uint80 roundID */\n            int256 price, /* uint startedAt */ /* uint timeStamp */ /* uint80 answeredInRound */\n            ,\n            ,\n\n        ) = ethUSDagg.latestRoundData();\n        return price;\n    }\n\n    function MainUsdPrice() public view returns (int256) {\n        (\n            ,\n            /*uint80 roundID */\n            int256 price, /* uint startedAt */ /* uint timeStamp */ /* uint80 answeredInRound */\n            ,\n            ,\n\n        ) = mainUSDagg.latestRoundData();\n        return price;\n    }\n}\n\ncontract MathFnx {\n    // Math Function Extension\n    // division function for solidity\n    function divide(uint256 _a, uint256 _b) internal pure returns (uint256) {\n        uint256 rem = _a % _b;\n        return ((_a - rem) / _b);\n    }\n\n    // generates unique id nr\n    function uniqID(string memory _inf) internal pure returns (uint256) {\n        bytes32 BHash = keccak256(abi.encode(_inf));\n        return uint256(BHash);\n    }\n\n    // gives back the smaller wallet address\n    function smaller(address _a, address _b)\n        internal\n        pure\n        returns (address s, address l)\n    {\n        if (_a < _b) {\n            s = _a;\n            l = _b;\n        } else if (_a > _b) {\n            s = _b;\n            l = _a;\n        }\n    }\n}\n\nlibrary mlqLib {\n    // MLQ Token Extension\n    uint256 public constant mlqRate = 100;\n    uint256 public constant mlqDig = 10**18;\n    uint256 public constant maxSupply = 3 * 10**9 * mlqDig;\n    uint256 public constant pubSupply = 1 * 10**9 * mlqDig;\n    uint256 public constant poolReserve = 1 * 10**9 * mlqDig;\n    uint256 public constant circReserve = 1 * 10**9 * mlqDig;\n}\n\ncontract Users {\n    // user data storage for conglomerate\n    address private s0x; // s0x admin\n\n    constructor() {\n        s0x = msg.sender; // admin initialization\n        makeUser(\n            s0x,\n            '{\"name\":\"s0x admin\",\"email\":\"type.stereo@pm.me\",\"image\":\"https://ipfs.io/ipfs/QmXNciGvGJGRV2HHE82oLoicvwatB8sqsydxn7P3NSP1nW\"}',\n            99\n        ); // admin user account setup\n    }\n\n    struct Impact {\n        uint256 action;\n        uint256 connection;\n        uint256 liquidity;\n    }\n    // user profile array // user# => dias%\n    mapping(address => bytes) public users;\n    mapping(address => bool) private isUser;\n    // role // user# => role$\n    mapping(address => uint256) private roles;\n    // only admin allowed function modifier\n    mapping(address => Impact) public impx;\n    modifier isAdmin() {\n        require(msg.sender == s0x);\n        _;\n    }\n\n    // takes address , dias , and role to create and store a user profile in user mapping\n    function makeUser(\n        address _adr,\n        bytes memory _dias,\n        uint256 _r\n    ) internal returns (bool) {\n        users[_adr] = _dias;\n        roles[_adr] = _r;\n        impx[_adr] = Impact(0, 0, 0);\n        return true;\n    }\n\n    // takes dias to create guest user profile\n    function createUserAccount(string memory _dias, address _user)\n        external\n        returns (bool)\n    {\n        return makeUser(_user, bytes(_dias), 2);\n    }\n\n    // takes address , dias , and role to admin edit and store a user profile in user mapping\n    function adminEditUser(\n        address _adr,\n        string memory _dias,\n        uint256 _r\n    ) external isAdmin returns (bool) {\n        return makeUser(_adr, bytes(_dias), _r);\n    }\n\n    // takes address , dias , and role to edit and store your user profile in user mapping\n    function editUser(string memory _dias) external returns (bool) {\n        return makeUser(msg.sender, bytes(_dias), 2);\n    }\n\n    // shows user dias by address input\n    function showUser(address _adr) external view returns (string memory) {\n        return string(users[_adr]);\n    }\n\n    function showImpx(address _adr)\n        external\n        view\n        returns (\n            uint256,\n            uint256,\n            uint256\n        )\n    {\n        return (impx[_adr].action, impx[_adr].connection, impx[_adr].liquidity);\n    }\n\n    // shows role by address input\n    function getRole(address _adr) external view returns (uint256) {\n        return roles[_adr];\n    }\n\n    function isU(address _adr) external view returns (bool) {\n        return isUser[_adr];\n    }\n}\n\ncontract Friends is MathFnx {\n    Users private user;\n    // frenz // you# => frenz# => isfriend?\n    mapping(address => mapping(address => bool)) public frenz; // people following you\n    // degenz // you# => degenz# => isfriend?\n    mapping(address => mapping(address => bool)) public degenz; // people you follow\n    // connection bool // smaller# => bigger# => friends$ // friends : $0=unrelated, $1=hype, $2=nest\n    uint256 c;\n    mapping(address => mapping(address => uint256)) public connection;\n    mapping(address => uint256) public frenzCount;\n    mapping(address => uint256) public degenzCount;\n    mapping(address => mapping(uint256 => address)) public frenzByCount;\n    // user degenerated you\n    modifier degenerated(address _adr) {\n        require(degenz[msg.sender][_adr] == true || msg.sender == _adr); // do you follow or is it yourself\n        _;\n    }\n    // user frenzonned you\n    modifier frenzoned(address _adr) {\n        require(frenz[_adr][msg.sender] || msg.sender == _adr); // is he following or is it yourself\n        _;\n    }\n\n    constructor(address _usrAdr) {\n        user = Users(_usrAdr);\n        c = 1;\n    }\n\n    function showMe() external view returns (string memory) {\n        return user.showUser(msg.sender);\n    }\n\n    function showYou(address _adr) external view returns (string memory) {\n        return user.showUser(_adr);\n    }\n\n    function getRole(address _adr) external view returns (uint256) {\n        return user.getRole(_adr);\n    }\n\n    function follow(address _adr, address _sender) external returns (uint256) {\n        degenz[_adr][_sender] = true;\n        degenzCount[_adr]++;\n        frenz[_sender][_adr] = true;\n        frenzByCount[_sender][frenzCount[_sender]] = _adr;\n        frenzCount[_sender]++;\n        (address s, address l) = smaller(_adr, _sender);\n        if (connection[s][l] == 0) {\n            connection[s][l] = c;\n            c++;\n            return (connection[s][l]);\n        } else return (connection[s][l]);\n    }\n\n    function doShowStatus(address _adr, address _sender)\n        external\n        view\n        returns (\n            uint256,\n            bool,\n            bool,\n            address,\n            address\n        )\n    {\n        (address s, address l) = smaller(_adr, _sender);\n        return (\n            connection[s][l],\n            frenz[_sender][_adr],\n            degenz[_sender][_adr],\n            s,\n            l\n        );\n    }\n\n    function doFrenzCount(address _adr) external view returns (uint256) {\n        return frenzCount[_adr];\n    }\n\n    function doDegenzCount(address _adr) external view returns (uint256) {\n        return degenzCount[_adr];\n    }\n\n    function doShowFrenz(address _adr, uint256 _c)\n        external\n        view\n        returns (address)\n    {\n        return frenzByCount[_adr][_c];\n    }\n\n    function isFrenz(address _a, address _b) external view returns (bool) {\n        return frenz[_a][_b];\n    }\n}\n\ncontract Groups is MathFnx {\n    Users private user; // user contract reference\n    Friends private friend; // friend contract reference\n    address public owner; // owner address\n    string public name; // group name\n    uint256 private m; // member count\n    uint256 private state; // 0-private (no invite), 1-bothchecked, 2-ulike, 3-likeu, 4-bothcheckedofulike, 5-public, 9-secret, 99-admin\n    mapping(uint256 => address) public members; // address by id\n    mapping(address => uint256) public mNum; // id by address\n    uint256 private c; // content count\n    mapping(address => uint256) public myContent; // content count by address\n    mapping(address => mapping(uint256 => bytes)) public content; // content by address => myContent counter\n    mapping(uint256 => bytes) public cntnt; // contentt by cid\n    mapping(uint256 => uint256) public r; // replys by cntnt id c\n    mapping(uint256 => mapping(uint256 => bytes)) public replys; // replys by cid => rply id => reply content\n    mapping(address => uint256) public myRplyCount; // reply count  by useraddress\n    mapping(address => mapping(uint256 => bytes)) public myReplys; // reply content by address and myrplycount\n    mapping(address => bool) public invite;\n\n    constructor(\n        address _user,\n        address _friend,\n        bytes memory _name,\n        uint256 _state,\n        address _o\n    ) {\n        state = _state;\n        user = Users(_user);\n        friend = Friends(_friend);\n        owner = _o;\n        name = string(_name);\n    }\n\n    function addUser(address _adr) external returns (address) {\n        if (state == 0)\n            require(m < 2); // private state one allows 2 users only\n            // require(user.isU(msg.sender) == true);\n            // require(user.isU(_adr) == true);\n        else if (state == 1) {\n            require(friend.isFrenz(owner, _adr));\n            require(friend.isFrenz(_adr, owner));\n        } // only degenz&frenz allowed\n        /*\n        else if(state == 2) {\n          require(friend.isFrenz(owner, _adr));  \n        } // only frenz people you like\n        else if(state == 3) {\n          require(friend.isFrenz(_adr, owner));  \n        } // only degenz people who like you\n        else if(state == 4) {\n            require(friend.isFrenz(msg.sender, _adr));\n            require(friend.isFrenz(_adr, msg.sender));\n        } // only degenz&frenz allowed\n\n        else if(state == 9) require(invite[_adr] == true);\n        else if(state == 99) require(friend.getRole(msg.sender) == 99);\n        */\n        members[m] = _adr;\n        mNum[_adr] = m;\n        m++;\n        return _adr;\n    }\n\n    function removeUser(address _adr) external returns (address) {\n        require(state != 0);\n        members[mNum[_adr]] = 0x0000000000000000000000000000000000000000;\n        mNum[_adr] = 0;\n        return _adr;\n    }\n\n    function addContent(string memory _cnt) external returns (string memory) {\n        content[msg.sender][myContent[msg.sender]] = bytes(_cnt);\n        myContent[msg.sender]++;\n        cntnt[c] = bytes(_cnt);\n        c++;\n        return _cnt;\n    }\n\n    function addReplyToContent(string memory _rply, uint256 _c)\n        external\n        returns (uint256)\n    {\n        replys[_c][r[_c]] = bytes(_rply);\n        myReplys[msg.sender][myRplyCount[msg.sender]] = bytes(_rply);\n        myRplyCount[msg.sender]++;\n        return r[_c]++;\n    }\n}\n\ncontract s0xFactory is Users, MathFnx {\n    Friends public friends;\n    Groups public groups;\n    MLQ public mlq;\n    address private fAdr;\n    mapping(address => uint256) public groupCount;\n    mapping(address => mapping(uint256 => address)) public groupByCount;\n\n    constructor(address _mlq) Users() MathFnx() {\n        mlq = MLQ(_mlq);\n        friends = new Friends(address(this));\n        fAdr = address(friends);\n    }\n\n    function createGroup(string memory _name, uint256 _state)\n        external\n        returns (address)\n    {\n        groups = new Groups(\n            address(this),\n            fAdr,\n            bytes(_name),\n            _state,\n            msg.sender\n        );\n        groupByCount[msg.sender][groupCount[msg.sender]] = address(groups);\n        groupCount[msg.sender]++;\n        return address(groups);\n    }\n\n    function createConvo(\n        address _to,\n        address _from,\n        string memory _msg\n    ) external returns (address) {\n        (address s, address l) = smaller(_to, _from);\n        return makeConvo(s, l, _msg, _from);\n    }\n\n    function makeConvo(\n        address _s,\n        address _l,\n        string memory _name,\n        address _from\n    ) internal returns (address) {\n        groups = new Groups(address(this), fAdr, bytes(_name), 0, _from);\n        groupByCount[_s][groupCount[_s]] = address(groups);\n        groupByCount[_l][groupCount[_l]] = address(groups);\n        groupCount[_s]++;\n        groupCount[_l]++;\n        groups.addUser(_s);\n        groups.addUser(_l);\n        return address(groups);\n    }\n\n    function followAdr(address _adr) external returns (uint256) {\n        return friends.follow(_adr, msg.sender);\n    }\n\n    function showFrenz(address _adr, uint256 _c)\n        external\n        view\n        returns (address)\n    {\n        return friends.doShowFrenz(_adr, _c);\n    }\n\n    function countFrenz(address _adr) external view returns (uint256) {\n        return friends.doFrenzCount(_adr);\n    }\n\n    function countDegenz(address _adr) external view returns (uint256) {\n        return friends.doDegenzCount(_adr);\n    }\n\n    function showStatus(address _adr)\n        external\n        view\n        returns (\n            uint256,\n            bool,\n            bool,\n            address,\n            address\n        )\n    {\n        return friends.doShowStatus(_adr, msg.sender);\n    }\n}\n\ncontract USDC is ERC20 {\n    constructor() ERC20(\"US Dollar Coin\", \"USDC\") {}\n\n    function dropUSDC() external {\n        _mint(msg.sender, 100 * 10**18);\n    }\n}\n\ncontract MLQ is ERC20, MathFnx {\n    using mlqLib for *;\n    address private admin;\n    int256 public rate;\n    uint256 public pubSupply;\n    uint256 mlqRate;\n    uint256 mainRate;\n    PriceConsumerV3 public ethUsdPrice;\n    mapping(address => uint256) public mlqBalance;\n    USDC usdc;\n\n    constructor(address _usdc, address _pc) ERC20(\"Milquidity Token\", \"MLQ\") {\n        admin = msg.sender;\n        usdc = USDC(_usdc);\n        setSupply(mlqLib.pubSupply);\n        ethUsdPrice = PriceConsumerV3(_pc);\n    }\n\n    function setMLQRate() internal returns (int256) {\n        int256 price = ethUsdPrice.EthUsdPrice();\n        uint256 newRate = divide(uint256(price), 100);\n        rate = int256(newRate);\n        return rate;\n    }\n\n    function setMainRate() internal returns (int256) {\n        int256 price = ethUsdPrice.MainUsdPrice();\n        uint256 newRate = divide(uint256(price), 100);\n        rate = int256(newRate);\n        return rate;\n    }\n\n    function setSupply(uint256 _newSupply) internal returns (uint256) {\n        pubSupply = _newSupply;\n        return pubSupply;\n    }\n\n    function buyMlqMain() external payable returns (uint256) {\n        setMLQRate();\n        setMainRate();\n        uint256 swapRate = divide(mainRate, mlqRate);\n        uint256 amnt = msg.value * swapRate;\n        require(amnt > address(this).balance, \"insufficient balance\");\n        // find maincurr price for mlq\n        require(pubSupply >= amnt);\n        _mint(msg.sender, amnt);\n        mlqBalance[msg.sender] += amnt;\n        pubSupply -= amnt;\n        return amnt;\n    }\n\n    function buyMlqUSDC(uint256 _amnt) external payable returns (uint256) {\n        setMLQRate();\n        uint256 amnt = _amnt * uint256(rate) * 10**10;\n        require(pubSupply >= amnt);\n        usdc.transferFrom(msg.sender, address(this), amnt);\n        _mint(msg.sender, _amnt * 10**18);\n        mlqBalance[msg.sender] = _amnt * 10**18;\n        pubSupply -= amnt;\n        return amnt;\n    }\n\n    function mlqBal(address _adr) external view returns (uint256) {\n        return mlqBalance[_adr];\n    }\n\n    function withdraw(uint256 _amnt) external returns (uint256) {\n        uint256 amnt = mlqLib.mlqDig * _amnt;\n        require(admin == msg.sender);\n        require(mlqBalance[address(this)] >= amnt);\n        transferFrom(address(this), admin, amnt);\n        return amnt;\n    }\n\n    function flush() external returns (uint256) {\n        require(admin == msg.sender);\n        transferFrom(address(this), admin, mlqBalance[address(this)]);\n        payable(admin).transfer(address(this).balance);\n        usdc.transferFrom(address(this), admin, usdc.balanceOf(address(this)));\n        return address(this).balance;\n    }\n}\n\ncontract Trees is ERC20, MathFnx {\n    uint256 maxSupply;\n    uint256 rate;\n    uint256 mlqRate;\n    uint256 mainRate;\n    uint256 availSupply;\n    address author;\n    PriceConsumerV3 public ethUsdPrice;\n    IERC20 usdc;\n    MLQ mlq;\n    event Log(uint256 l, address f, address t, uint256 b, uint256 a);\n    uint256 l;\n\n    constructor(\n        address _usdc,\n        address _mlq,\n        address _pc\n    ) ERC20(\"Seedling\", \"S33D\") {\n        maxSupply = 5000000000000 * 10**18;\n        author = msg.sender;\n        usdc = IERC20(_usdc);\n        mlq = MLQ(_mlq);\n        rate = 94 * 10**15;\n        ethUsdPrice = PriceConsumerV3(_pc);\n    }\n\n    modifier isAdmin() {\n        require(msg.sender == author);\n        _;\n    }\n    mapping(address => uint256) public treeClaims;\n\n    function addClaim(address _adr, uint256 _amnt) external returns (bool) {\n        treeClaims[_adr] += _amnt;\n        return true;\n    }\n\n    function getClaims() external returns (bool) {\n        _mint(msg.sender, treeClaims[msg.sender]);\n        treeClaims[msg.sender] = 0;\n        return true;\n    }\n\n    function buyTreeUSDC(uint256 _amount, address _send)\n        external\n        returns (bool)\n    {\n        emit Log(\n            l,\n            _send,\n            0x8cF3c63Be0BC3d1478496B6449316babD225F78a,\n            usdc.balanceOf(_send),\n            usdc.balanceOf(address(this))\n        );\n        l++;\n        require(\n            usdc.balanceOf(_send) >= _amount * rate,\n            \"insufficient usdc balance\"\n        );\n        require(\n            availSupply + _amount * 10**18 < maxSupply,\n            \"insufficient supply\"\n        );\n        usdc.transferFrom(\n            _send,\n            0x8cF3c63Be0BC3d1478496B6449316babD225F78a,\n            ((_amount * rate) / 100) * 85\n        );\n        usdc.transferFrom(\n            _send,\n            0x8cF3c63Be0BC3d1478496B6449316babD225F78a,\n            ((_amount * rate) / 100) * 15\n        );\n        availSupply += _amount * 10**18;\n        _mint(msg.sender, _amount * 10**18);\n        return true;\n    }\n\n    function setMainRate() internal returns (uint256) {\n        int256 mainR = ethUsdPrice.MainUsdPrice();\n        mainRate = uint256(mainR);\n        return (uint256(mainR));\n    }\n\n    function setMLQRates() internal returns (uint256) {\n        int256 mlqR = ethUsdPrice.EthUsdPrice();\n        mlqRate = uint256(mlqR);\n        return (uint256(mlqR));\n    }\n\n    function buyTreeMLQ(uint256 _amount, address _send)\n        external\n        returns (bool)\n    {\n        uint256 swapRate = divide(mlqRate, rate);\n        emit Log(\n            l,\n            _send,\n            0x8cF3c63Be0BC3d1478496B6449316babD225F78a,\n            mlq.balanceOf(_send),\n            mlq.balanceOf(address(this))\n        );\n        l++;\n        require(\n            mlq.balanceOf(_send) >= _amount * swapRate,\n            \"insufficient usdc balance\"\n        );\n        require(\n            availSupply + _amount * 10**18 < maxSupply,\n            \"insufficient supply\"\n        );\n        mlq.transferFrom(\n            _send,\n            0x8cF3c63Be0BC3d1478496B6449316babD225F78a,\n            ((_amount * swapRate) / 100) * 85\n        );\n        mlq.transferFrom(\n            _send,\n            0x8cF3c63Be0BC3d1478496B6449316babD225F78a,\n            ((_amount * swapRate) / 100) * 15\n        );\n        availSupply += _amount * 10**18;\n        _mint(msg.sender, _amount * 10**18);\n        return true;\n    }\n\n    function donateTrees(uint256 _amount) external isAdmin returns (bool) {\n        require(balanceOf(msg.sender) > _amount * 10**18);\n        _burn(msg.sender, _amount * 10**18);\n        return true;\n    }\n\n    function approveContract(address _contract) external returns (bool) {\n        approve(_contract, balanceOf(msg.sender));\n        return true;\n    }\n\n    function setERC20(address _usdc) external isAdmin returns (bool) {\n        usdc = IERC20(_usdc);\n        return true;\n    }\n\n    function setMLQ(address _mlq) external isAdmin returns (bool) {\n        mlq = MLQ(_mlq);\n        return true;\n    }\n\n    function approveUSDC(uint256 _amnt) external pure returns (bool) {\n        // delegated call to approve\n        return _amnt == _amnt;\n    }\n\n    function trimTrees(uint256 _newPrice) external returns (uint256) {\n        rate = _newPrice;\n        return rate;\n    }\n\n    function withdraw(uint256 _eth, uint256 _tree)\n        external\n        isAdmin\n        returns (bool)\n    {\n        require(_tree * 10**18 <= balanceOf(address(this)));\n        require(_eth * 10**18 <= address(this).balance);\n        transfer(payable(author), _tree * 10**18);\n        payable(author).transfer(_eth * 10**18);\n        return true;\n    }\n}\n\ncontract nftProject is ERC721 {\n    address public owner;\n    uint256 public minted;\n    uint256 public max;\n    string public nam;\n    string public sym;\n    VRFv2Consumer public vrf;\n    ERC20 public usdc;\n    MLQ public mlq;\n    mapping(uint256 => bytes) public dias;\n\n    constructor(\n        address _owner,\n        string memory _name,\n        string memory _sym,\n        address _usdc,\n        address _vrf,\n        address _mlq\n    ) ERC721(_name, _sym) {\n        owner = _owner;\n        max = 1000;\n        nam = _name;\n        sym = _sym;\n        vrf = VRFv2Consumer(_vrf);\n        usdc = ERC20(_usdc);\n        mlq = MLQ(_mlq);\n    }\n\n    function isOwner(address _adr) external view returns (bool) {\n        if (_adr == owner) return true;\n        else return false;\n    }\n\n    function getName() external view returns (string memory) {\n        return nam;\n    }\n\n    function getSym() external view returns (string memory) {\n        return sym;\n    }\n\n    function mint(uint256 _amnt) external returns (uint256) {\n        require(minted < max);\n        doMint(_amnt);\n        return minted;\n    }\n\n    function getVrfId() internal returns (uint256[] memory) {\n        uint256 rid = vrf.requestRandomWords();\n        return vrf.randy(rid);\n    }\n\n    function doMint(uint256 _amnt) internal returns (uint256) {\n        _mint(msg.sender, minted);\n        minted++;\n        if (_amnt >= 2) {\n            _mint(msg.sender, minted);\n            minted++;\n\n            if (_amnt >= 3) {\n                _mint(msg.sender, minted);\n                minted++;\n\n                if (_amnt >= 4) {\n                    _mint(msg.sender, minted);\n                    minted++;\n\n                    if (_amnt >= 5) {\n                        _mint(msg.sender, minted);\n                        minted++;\n\n                        if (_amnt >= 6) {\n                            _mint(msg.sender, minted);\n                            minted++;\n\n                            if (_amnt >= 7) {\n                                _mint(msg.sender, minted);\n                                minted++;\n                            }\n                        }\n                    }\n                }\n            }\n        }\n        return minted;\n    }\n\n    function holder(uint256 _id) external view returns (address) {\n        return ownerOf(_id);\n    }\n}\n\ncontract EcoMintNFT is nftProject {\n    Trees public trees;\n    uint256 nftPrice;\n    uint256 val;\n\n    constructor(\n        address _owner,\n        string memory _name,\n        string memory _sym,\n        address _treeAdr,\n        address _usdc,\n        address _vrf,\n        address _mlq\n    ) nftProject(_owner, _name, _sym, _usdc, _vrf, _mlq) {\n        trees = Trees(_treeAdr);\n        nftPrice = 25 * 10**18;\n        val = 94 * 10**15;\n    }\n\n    function setValue(uint256 _val) external returns (uint256) {\n        return val = _val;\n    }\n\n    function ecoMint(uint256 _amnt) external returns (uint256) {\n        require(minted < max);\n        uint256 sub = nftPrice + val;\n        uint256 total = _amnt * sub;\n        uint256 fee = 94 * 10**15 * _amnt;\n        require(total + fee < usdc.balanceOf(msg.sender), \"insufficient funds\");\n        usdc.transferFrom(\n            msg.sender,\n            0x8cF3c63Be0BC3d1478496B6449316babD225F78a,\n            fee\n        );\n        usdc.transferFrom(msg.sender, address(this), total);\n        trees.addClaim(msg.sender, _amnt * 10**18);\n        doMint(_amnt);\n        return minted;\n    }\n}\n\ncontract Co2s is ERC20, MathFnx {\n    IERC20 internal trees;\n    MLQ mlq;\n    uint256 maxSupply;\n    uint256 rate;\n    uint256 availSupply;\n    address author;\n    Friends private friends;\n    struct Bond {\n        uint256 id;\n        address adr;\n        uint256 amount;\n        uint256 region;\n        uint256 stamp;\n        uint256 duration;\n        uint256 co2;\n    }\n\n    mapping(address => uint256) public myBonds;\n    mapping(address => mapping(uint256 => uint256)) public myBondedCo2;\n\n    Bond[] public bonds;\n    uint256 c;\n    uint256 b;\n    uint256 per;\n\n    constructor(\n        address _contract,\n        uint256 _percent,\n        address _mlq\n    ) ERC20(\"Carbon Certificate\", \"C4RB\") {\n        maxSupply = 25000000000000 * 10**18;\n        trees = IERC20(_contract);\n        per = _percent;\n        mlq = MLQ(_mlq);\n        author = msg.sender;\n    }\n\n    modifier isAdmin() {\n        require(msg.sender == author);\n        _;\n    }\n\n    function growTrees(\n        uint256 _trees,\n        uint256 _region,\n        uint256 _duration\n    ) external payable returns (bool) {\n        require(msg.value >= _trees * 10**14, \"not enough funds for asset\");\n        require(_trees <= trees.balanceOf(msg.sender), \"insufficient balance\");\n        require(\n            5 * _trees * 10**18 <= maxSupply - availSupply,\n            \"insufficient supply\"\n        );\n        bonds.push(\n            Bond(\n                b,\n                msg.sender,\n                _trees * 10**18,\n                _region,\n                block.timestamp,\n                _duration,\n                5 * _trees * 10**18\n            )\n        );\n        availSupply += 5 * _trees * 10**18;\n        myBondedCo2[msg.sender][myBonds[msg.sender]] = b;\n        myBonds[msg.sender]++;\n        trees.transferFrom(msg.sender, payable(address(this)), _trees * 10**18);\n        b++;\n        return true;\n    }\n\n    function growMoreTrees(uint256 _trees, uint256 _b)\n        external\n        payable\n        returns (bool)\n    {\n        require(msg.value >= _trees * 10**14);\n        require(_trees <= trees.balanceOf(msg.sender));\n        uint256 treez = _trees * 10**18;\n        require(5 * treez <= maxSupply - availSupply);\n        uint256 p = divide(100, bonds[_b].amount) * treez;\n        bonds[_b].amount += treez;\n        bonds[_b].co2 += 5 * treez;\n        bonds[_b].duration += bonds[_b].duration * p;\n        uint256 fee = divide(treez, (100 / per));\n        trees.transfer(payable(address(this)), treez - fee);\n        trees.transfer(payable(address(this)), fee);\n        return true;\n    }\n\n    function growLessTrees(uint256 _trees, uint256 _b)\n        external\n        payable\n        returns (bool)\n    {\n        require(msg.value >= _trees * 10**15);\n        uint256 treez = _trees * 10**18;\n        require(\n            treez <= bonds[myBondedCo2[msg.sender][myBonds[msg.sender]]].amount\n        );\n        bonds[_b].amount -= treez;\n        bonds[_b].co2 -= 5 * treez;\n        uint256 fee = divide(treez, (100 / per));\n        trees.transfer(payable(msg.sender), treez - fee);\n        trees.transfer(payable(address(this)), fee);\n        return true;\n    }\n\n    function calcFreeCo2(uint256 _b) internal view returns (uint256, uint256) {\n        uint256 total = bonds[_b].duration * 60 * 60 * 24 * 365;\n        uint256 passed = block.timestamp - bonds[_b].stamp;\n        uint256 pDur = divide(100 * 10**18, total) * passed;\n        uint256 freeCo2 = divide(100 * 10**18, bonds[_b].co2) * pDur;\n        return (freeCo2, passed);\n    }\n\n    function releaseFreeCo2(uint256 _m) external returns (bool) {\n        uint256 _b = myBondedCo2[msg.sender][_m]; // get b_id\n        (uint256 free, uint256 passed) = calcFreeCo2(_b); // get free co2 & passed time\n        require(1 * 10**18 <= free); // check amount\n        bonds[_b].co2 -= free; // edit bonds data subtract\n        bonds[_b].stamp = block.timestamp;\n        uint256 addTime = divide(passed, (100 / per));\n        bonds[_b].duration += addTime;\n\n        uint256 fee = divide(free, (100 / per));\n        _mint(msg.sender, (free - fee)); // mint free co2\n        _mint(address(this), fee);\n        return true;\n    }\n\n    function withdraw(\n        uint256 _eth,\n        uint256 _co2,\n        uint256 _tree\n    ) external isAdmin returns (bool) {\n        require(_co2 * 10**18 <= balanceOf(address(this)));\n        require(_tree * 10**18 <= trees.balanceOf(address(this)));\n        require(_eth * 10**18 <= address(this).balance);\n        transfer(payable(author), _co2 * 10**18);\n        trees.transfer(payable(author), _tree * 10**18);\n        payable(author).transfer(_eth * 10**18);\n        return true;\n    }\n}\n\ncontract GardenPool is ERC1155, MathFnx {\n    IERC20 internal TR3EZ;\n    IERC20 internal CO2;\n    IERC20 internal lowC;\n    IERC20 internal highC;\n    address author;\n    uint256 private per;\n    uint256 public collectedFees;\n    struct Garden {\n        uint256 id;\n        address low;\n        uint256 lowTotal;\n        address high;\n        bytes description;\n        uint256 low4high;\n        uint256 maxSize;\n        uint256 currentSize;\n    }\n    Garden[] public gardens;\n    uint256 g;\n\n    constructor(\n        address _trees,\n        address _co2,\n        uint256 _percent\n    ) ERC1155(\"IMgardens\") {\n        author = msg.sender;\n        TR3EZ = IERC20(_trees);\n        CO2 = IERC20(_co2);\n        per = _percent;\n    }\n\n    modifier isAdmin() {\n        require(msg.sender == author);\n        _;\n    }\n\n    function createGarden(\n        string memory _name,\n        address _hi,\n        address _lo\n    ) external returns (bool) {\n        _setURI(_name);\n        _mint(address(this), g, 100 * 10**6, bytes(_name)); // 1 : 10 000 // 100 000 weth : 1 000 000 000 trees = 100% // 1 weth : 10 000 trees = 0,001% of max pool size\n        gardens.push(\n            Garden(g, _hi, 1000000000, _lo, bytes(_name), 10000, 100000, 0)\n        );\n        g++;\n        return true;\n    }\n\n    function addliquidity(uint256 _id, uint256 _low)\n        external\n        payable\n        returns (bool)\n    {\n        uint256 low = _low * 10**6;\n        uint256 high = gardens[_id].low4high * low;\n        lowC = IERC20(gardens[_id].low);\n        highC = IERC20(gardens[_id].high);\n        require(lowC.balanceOf(msg.sender) >= low);\n        require(highC.balanceOf(msg.sender) >= high);\n        lowC.transferFrom(msg.sender, address(this), low);\n        highC.transferFrom(msg.sender, address(this), high);\n        uint256 gardenDrops = divide(100 * 10**6, gardens[_id].lowTotal) * low;\n        safeTransferFrom(\n            address(this),\n            msg.sender,\n            gardens[_id].id,\n            gardenDrops,\n            gardens[_id].description\n        );\n        gardens[_id].currentSize += gardenDrops;\n        return true;\n    }\n\n    function removeLiquidity(uint256 _id, uint256 _gardenDrops)\n        external\n        payable\n        returns (bool)\n    {\n        uint256 low = divide(100 * 10**6, gardens[_id].lowTotal) * _gardenDrops;\n        uint256 high = low * gardens[_id].low4high;\n        lowC = IERC20(gardens[_id].low);\n        highC = IERC20(gardens[_id].high);\n        require(lowC.balanceOf(address(this)) >= low);\n        require(highC.balanceOf(address(this)) >= high);\n        lowC.transferFrom(address(this), msg.sender, low);\n        highC.transferFrom(address(this), msg.sender, high);\n        safeTransferFrom(\n            msg.sender,\n            address(this),\n            gardens[_id].id,\n            _gardenDrops,\n            gardens[_id].description\n        );\n        gardens[_id].currentSize -= _gardenDrops;\n        return true;\n    }\n\n    function swapLowHigh(uint256 _id, uint256 _low)\n        external\n        payable\n        returns (bool)\n    {\n        uint256 low = _low * 10**6;\n        lowC = IERC20(gardens[_id].low);\n        highC = IERC20(gardens[_id].high);\n        require(lowC.balanceOf(msg.sender) >= low);\n        uint256 fee = divide(100 * 10**6, low) * (100 / per);\n        uint256 get = gardens[_id].low4high * (low - fee);\n        require(highC.balanceOf(address(this)) >= get);\n        lowC.transferFrom(msg.sender, address(this), low);\n        highC.transferFrom(address(this), msg.sender, get);\n        collectedFees += fee;\n        return true;\n    }\n\n    function swapHighLow(uint256 _id, uint256 _high)\n        external\n        payable\n        returns (bool)\n    {\n        uint256 high = _high * 10**6;\n        lowC = IERC20(gardens[_id].low);\n        highC = IERC20(gardens[_id].high);\n        require(highC.balanceOf(msg.sender) >= high);\n        uint256 fee = divide(100 * 10**6, high) * (100 / per);\n        uint256 get = divide(high - fee, gardens[_id].low4high);\n        require(highC.balanceOf(address(this)) >= get);\n        highC.transferFrom(msg.sender, address(this), high);\n        lowC.transferFrom(address(this), msg.sender, get);\n        collectedFees += fee;\n        return true;\n    }\n\n    function waterGardens(uint256 _id) external payable returns (uint256) {\n        lowC = IERC20(gardens[_id].low);\n        highC = IERC20(gardens[_id].high);\n        uint256 lBal = lowC.balanceOf(address(this));\n        uint256 hBal = highC.balanceOf(address(this));\n        uint256 rRatio = divide(hBal, lBal);\n        uint256 eRatio = divide(gardens[_id].low4high, 1);\n        uint256 difRatio = divide(100, eRatio) * rRatio;\n        return difRatio;\n    }\n}\n\ncontract COIN is ERC20, MathFnx {\n    using mlqLib for *;\n    address private admin;\n    uint256 public rate;\n    uint256 public pubSupply;\n    uint256 public maxSupply;\n    string public title;\n    mapping(address => uint256) public coinBalance;\n\n    constructor(\n        string memory _name,\n        string memory _sym,\n        uint256 _rate,\n        uint256 _supply,\n        address _admin\n    ) ERC20(_name, _sym) {\n        admin = _admin;\n        setRate(_rate);\n        maxSupply = _supply;\n        title = _name;\n    }\n\n    function setRate(uint256 _newRate) internal returns (uint256) {\n        rate = _newRate;\n        return rate;\n    }\n\n    function getRate() external view returns (uint256) {\n        return rate;\n    }\n\n    function getMax() external view returns (uint256) {\n        return maxSupply;\n    }\n\n    function getName() external view returns (string memory) {\n        return title;\n    }\n\n    function getMinted() external view returns (uint256) {\n        return pubSupply;\n    }\n\n    function buyMlq(uint256 _amnt) external payable returns (uint256) {\n        uint256 amnt = mlqLib.mlqDig * _amnt;\n        require(pubSupply >= amnt);\n        require(divide(msg.value, 100) >= amnt);\n        _mint(msg.sender, amnt);\n        coinBalance[msg.sender] = amnt;\n        pubSupply += amnt;\n        return amnt;\n    }\n\n    function coinBal(address _adr) external view returns (uint256) {\n        return coinBalance[_adr];\n    }\n\n    function withdraw(uint256 _amnt) external returns (uint256) {\n        uint256 amnt = mlqLib.mlqDig * _amnt;\n        require(admin == msg.sender);\n        require(coinBalance[address(this)] >= amnt);\n        transferFrom(address(this), admin, amnt);\n        return amnt;\n    }\n\n    function flush() external returns (uint256) {\n        require(admin == msg.sender);\n        transferFrom(address(this), admin, coinBalance[address(this)]);\n        payable(admin).transfer(address(this).balance);\n        return address(this).balance;\n    }\n}\n\ncontract s0xPool is MathFnx {\n    COIN public coin;\n    COIN public main;\n    COIN public sec;\n    COIN public pool;\n    uint256 p;\n    struct Pool {\n        uint256 id;\n        address pool;\n        address main;\n        uint256 ethByMain;\n        uint256 mainMax;\n        address sec;\n        uint256 ethBySec;\n        uint256 secMax;\n        uint256 distrib;\n        uint256 xRate;\n    }\n    uint256 t;\n    struct Token {\n        uint256 id;\n        string name;\n        address adr;\n        uint256 maxSupply;\n        uint256 mintedSupply;\n        uint256 priceInEth;\n    }\n    uint256 s;\n    struct Safe {\n        uint256 id;\n        address user;\n        address token;\n        uint256 safeBalance;\n    }\n    mapping(uint256 => Pool) public poolz;\n    mapping(uint256 => Token) public tokenz;\n    mapping(uint256 => Safe) public safez;\n\n    function addToken(address _token) external returns (address) {\n        coin = COIN(_token);\n        tokenz[t] = Token(\n            t,\n            coin.getName(),\n            address(coin),\n            coin.getMax(),\n            coin.getMinted(),\n            coin.getRate()\n        );\n        t++;\n        return address(coin);\n    }\n\n    function createToken(\n        string memory _name,\n        string memory _sym,\n        uint256 _rate,\n        uint256 _max\n    ) external returns (address) {\n        coin = new COIN(_name, _sym, _rate, _max, msg.sender);\n        tokenz[t] = Token(t, _name, address(coin), _max, 0, _rate);\n        t++;\n        return address(coin);\n    }\n\n    function createPool(\n        address _main,\n        address _sec,\n        string memory _name,\n        string memory _psym\n    ) external returns (address) {\n        // get token contracts\n        main = COIN(_main);\n        sec = COIN(_sec);\n        // detect currency eth value per token\n        uint256 mEthPrice = divide(10**18, main.getRate()); // example // 10^18 / 100 = 10^16\n        uint256 sEthPrice = divide(10**18, sec.getRate()); // example // 10^18 / 100000 = 10^13\n        // detect dif ratio\n        uint256 dRate; // difference ratio\n        if (sEthPrice < mEthPrice)\n            dRate = divide(mEthPrice, sEthPrice); // example // 10^16 / 10^13 = 1000\n        else dRate = divide(sEthPrice, mEthPrice); // example // null\n        uint256 xRate;\n        xRate =\n            ((mEthPrice * main.getMax()) + (sEthPrice * sec.getMax())) /\n            100;\n        pool = new COIN(_name, _psym, xRate, 100 * 10**18, msg.sender); // example // 100 * 10^18\n        poolz[p] = Pool(\n            p,\n            address(pool),\n            _main,\n            mEthPrice,\n            divide(main.getMax(), 3),\n            _sec,\n            sEthPrice,\n            divide(sec.getMax(), 3),\n            0,\n            xRate\n        );\n\n        p++;\n        /*\n\n        // 0xbd5b354220B250DF257ed5e988Fe8FE81CdB6235 MLQ\n        // 0x7e54D10fda1dBAf0aA2eB842942B3B924fcfd947 LYX\n\n        mlq 10000000000000000eth * 1000000mlq\n        lyx 10000000000000eth * 1000000000lyx\n        shk 600000000000000000000eth * 100shk\n\n        */\n        return address(coin);\n    }\n\n    function addMilquidity(uint256 _p, uint256 _mIn)\n        external\n        returns (\n            uint256,\n            uint256,\n            uint256\n        )\n    {\n        main = COIN(poolz[_p].main);\n        sec = COIN(poolz[_p].sec);\n        coin = COIN(poolz[_p].pool);\n        // uint256 weth = 10**18;\n        return (_mIn, 0, 0);\n    }\n}\n\ncontract ecoverse is ERC721 {\n    address admin;\n    address trees;\n    Trees tree;\n    mapping(uint256 => bytes) dias;\n    mapping(uint256 => uint256) amount;\n    mapping(uint256 => bytes) location;\n    mapping(uint256 => address) ownedBy;\n    mapping(uint256 => uint256) stamped;\n\n    constructor(address _trees) ERC721(\"Tree Token\", \"TR33\") {\n        admin = msg.sender;\n        tree = Trees(_trees);\n    }\n\n    modifier isAdmin() {\n        require(msg.sender == admin);\n        _;\n    }\n\n    function mintCertificate(\n        string memory _dias,\n        uint256 _id,\n        uint256 _amnt,\n        string memory _loc\n    ) external returns (bool) {\n        // get trees from user\n        tree.transferFrom(msg.sender, address(this), _amnt);\n        // place info on certificate dias\n        dias[_id] = bytes(_dias);\n        // set certificate info on contract\n        amount[_id] = _amnt;\n        location[_id] = bytes(_loc);\n        ownedBy[_id] = msg.sender;\n        stamped[_id] = block.timestamp;\n        // mint certificate\n        _mint(msg.sender, _id);\n        // return boolean\n        return true;\n    }\n\n    function editCertificate(\n        uint256 _id,\n        string memory _dias_new,\n        string memory _loc_new\n    ) external isAdmin returns (bool) {\n        // check approval\n        require(msg.sender == ownedBy[_id]);\n        // find certificate\n        // overwrite certificate dias\n        dias[_id] = bytes(_dias_new);\n        location[_id] = bytes(_loc_new);\n        return true;\n    }\n}\n\n// MAINNET CHECKLIST\n\n// safe & clean deploy address\n// 2x multisig exit safe address output wallets\n// token names and symbols\n//\n\n/////////////////////////////////////////////////////////////////////////////////////////////////////////////////////\n",
  "sourcePath": "/Users/iii6/Documents/GitHub/ourPlanet/contracts/s0x.sol",
  "compiler": {
    "name": "solc",
    "version": "0.8.16+commit.07a7930e.Emscripten.clang"
  },
  "schemaVersion": "3.4.8",
  "updatedAt": "2022-08-23T18:54:41.218Z",
  "devdoc": {
    "kind": "dev",
    "methods": {
      "approve(address,uint256)": {
        "details": "See {IERC721-approve}."
      },
      "balanceOf(address)": {
        "details": "See {IERC721-balanceOf}."
      },
      "getApproved(uint256)": {
        "details": "See {IERC721-getApproved}."
      },
      "isApprovedForAll(address,address)": {
        "details": "See {IERC721-isApprovedForAll}."
      },
      "name()": {
        "details": "See {IERC721Metadata-name}."
      },
      "ownerOf(uint256)": {
        "details": "See {IERC721-ownerOf}."
      },
      "safeTransferFrom(address,address,uint256)": {
        "details": "See {IERC721-safeTransferFrom}."
      },
      "safeTransferFrom(address,address,uint256,bytes)": {
        "details": "See {IERC721-safeTransferFrom}."
      },
      "setApprovalForAll(address,bool)": {
        "details": "See {IERC721-setApprovalForAll}."
      },
      "supportsInterface(bytes4)": {
        "details": "See {IERC165-supportsInterface}."
      },
      "symbol()": {
        "details": "See {IERC721Metadata-symbol}."
      },
      "tokenURI(uint256)": {
        "details": "See {IERC721Metadata-tokenURI}."
      },
      "transferFrom(address,address,uint256)": {
        "details": "See {IERC721-transferFrom}."
      }
    },
    "version": 1
  },
  "userdoc": {
    "kind": "user",
    "methods": {},
    "version": 1
  }
}