{
  "contractName": "fx",
  "abi": [
    {
      "inputs": [],
      "name": "initMlqRate",
      "outputs": [
        {
          "internalType": "uint256",
          "name": "",
          "type": "uint256"
        }
      ],
      "stateMutability": "view",
      "type": "function"
    },
    {
      "inputs": [],
      "name": "initRoy",
      "outputs": [
        {
          "internalType": "uint256",
          "name": "",
          "type": "uint256"
        }
      ],
      "stateMutability": "view",
      "type": "function"
    },
    {
      "inputs": [],
      "name": "lyxMax",
      "outputs": [
        {
          "internalType": "uint256",
          "name": "",
          "type": "uint256"
        }
      ],
      "stateMutability": "view",
      "type": "function"
    },
    {
      "inputs": [],
      "name": "lyxRate",
      "outputs": [
        {
          "internalType": "uint256",
          "name": "",
          "type": "uint256"
        }
      ],
      "stateMutability": "view",
      "type": "function"
    },
    {
      "inputs": [],
      "name": "maxRoy",
      "outputs": [
        {
          "internalType": "uint256",
          "name": "",
          "type": "uint256"
        }
      ],
      "stateMutability": "view",
      "type": "function"
    },
    {
      "inputs": [],
      "name": "minRoy",
      "outputs": [
        {
          "internalType": "uint256",
          "name": "",
          "type": "uint256"
        }
      ],
      "stateMutability": "view",
      "type": "function"
    },
    {
      "inputs": [],
      "name": "mlqMax",
      "outputs": [
        {
          "internalType": "uint256",
          "name": "",
          "type": "uint256"
        }
      ],
      "stateMutability": "view",
      "type": "function"
    },
    {
      "inputs": [],
      "name": "shqMax",
      "outputs": [
        {
          "internalType": "uint256",
          "name": "",
          "type": "uint256"
        }
      ],
      "stateMutability": "view",
      "type": "function"
    },
    {
      "inputs": [],
      "name": "vyzMax",
      "outputs": [
        {
          "internalType": "uint256",
          "name": "",
          "type": "uint256"
        }
      ],
      "stateMutability": "view",
      "type": "function"
    },
    {
      "inputs": [],
      "name": "vyzRate",
      "outputs": [
        {
          "internalType": "uint256",
          "name": "",
          "type": "uint256"
        }
      ],
      "stateMutability": "view",
      "type": "function"
    }
  ],
  "bytecode": "0x610352610053600b82828239805160001a607314610046577f4e487b7100000000000000000000000000000000000000000000000000000000600052600060045260246000fd5b30600052607381538281f3fe73000000000000000000000000000000000000000030146080604052600436106100a85760003560e01c8063529fc7e611610070578063529fc7e614610143578063541a1b15146101615780638e0540a01461017f578063ad96fce61461019d578063f6bcfb88146101bb576100a8565b80631d6a4fa7146100ad5780633a1ffc5e146100cb57806340c5d803146100e957806349d4df1b146101075780634f609d7b14610125575b600080fd5b6100b56101d9565b6040516100c29190610278565b60405180910390f35b6100d36101de565b6040516100e09190610278565b60405180910390f35b6100f16101e3565b6040516100fe9190610278565b60405180910390f35b61010f6101e8565b60405161011c9190610278565b60405180910390f35b61012d6101ee565b60405161013a9190610278565b60405180910390f35b61014b61020a565b6040516101589190610278565b60405180910390f35b610169610224565b6040516101769190610278565b60405180910390f35b610187610238565b6040516101949190610278565b60405180910390f35b6101a5610253565b6040516101b29190610278565b60405180910390f35b6101c361025a565b6040516101d09190610278565b60405180910390f35b601e81565b606481565b600a81565b61271081565b670de0b6b3a76400006406fc23ac0061020791906102c2565b81565b670de0b6b3a7640000622dc6c061022191906102c2565b81565b6305f5e100606461023591906102c2565b81565b670de0b6b3a76400006311e1a30061025091906102c2565b81565b620f424081565b601481565b6000819050919050565b6102728161025f565b82525050565b600060208201905061028d6000830184610269565b92915050565b7f4e487b7100000000000000000000000000000000000000000000000000000000600052601160045260246000fd5b60006102cd8261025f565b91506102d88361025f565b9250817fffffffffffffffffffffffffffffffffffffffffffffffffffffffffffffffff048311821515161561031157610310610293565b5b82820290509291505056fea26469706673582212208ea48fb2bf4e08157414816517e7920ea20e6948dace81445622861500e84f6f64736f6c634300080f0033",
  "immutableReferences": {},
  "source": "// SPDX-License-Identifier: GPL-3.0\n// // // // // // // // // // // // // // // // // // // // // // // // // // // // // // // // // // // // // // // // // // // // // // // // // // // // // // // // // // // // //\n//\n//              .d8888.  .d88b.  db    db d888888b d88888b d888888b db    db\n//              88'  YP .8P  88. `8b  d8'   `88'   88'     `~~88~~' `8b  d8'\n//              `8bo.   88  d'88  `8bd8'     88    88ooooo    88     `8bd8'\n//                `Y8b. 88 d' 88  .dPYb.     88    88~~~~~    88       88\n//              db   8D `88  d8' .8P  Y8.   .88.   88.        88       88\n//              `8888Y'  `Y88P'  YP    YP Y888888P Y88888P    YP       YP\n//\n// // // // // // // // // // // // // // // // // // // // // // // // // // // // // // // // // // // // // // // // // // // // // // // // // // // // // // // // // // // // //\n//                                                                                                                                                                                  //\n//      @dev            ::              stereoIII6.dao                                                                                                                                          //\n//      @msg            ::              type.stereo@pm.me                                                                                                                                    //\n//      @github         ::              @stereoIII6\n//      @twitter        ::              @stereoIII6                                                                                                                                              //\n//                                                                                                                                                                                  //\n// // // // // // // // // // // // // // // // // // // // // // // // // // // // // // // // // // // // // // // // // // // // // // // // // // // // // // // // // // // // //\n//                                                                                                                                                                                  //\n//      @dev            ::              Juan Xavier Valverde                                                                                                                                    //\n//      @msg            ::              juanxaviervm@hotmail.com                                                                                                                               //\n//      @twitter        ::              @JuanXavier                                                                                                                                             //\n//      @github         ::              @JuanXavier                                                                                                                                             //\n//                                                                                                                                                                                  //                                                                                                                                                                                 //\n// // // // // // // // // // // // // // // // // // // // // // // // // // // // // // // // // // // // // // // // // // // // // // // // // // // // // // // // // // // // //\n//  *   *   *   *   *   *   *   *   *   *   *   *   *   *   *   *   *   *   *   *   *   *   *   *   *   *   *   *   *   *   *   *   *   *   *   *   *   *   *   *   *   *   *   *   //\n// // // // // // // // // // // // // // // // // // // // // // // // // // // // // // // // // // // // // // // // // // // // // // // // // // // // // // // // // // // // //\n//                                                                                                                                                                                  //\n//                                                                                                                                                                                  //\n//      @title          ::              s0xiety Connect                                                                                                                             //\n//      @description    ::              decentral s0xiety                                                                                                                           //\n//      @version        ::              0.0.1                                                                                                                                       //\n//      @purpose        ::              Refer friennds on the blockchain                                                                                                            //\n//                                                                                                                                                                                  //\n//                                                                                                                                                                                  //\n//                                                                                                                                                                                  //\n//                                                                                                                                                                                  //\n//                                                                                                                                                                                  //\n// // // // // // // // // // // // // // // // // // // // // // // // // // // // // // // // // // // // // // // // // // // // // // // // // // // // // // // // // // // // //\n//  *   *   *   *   *   *   *   *   *   *   *   *   *   *   *   *   *   *   *   *   *   *   *   *   *   *   *   *   *   *   *   *   *   *   *   *   *   *   *   *   *   *   *   *   //\n// // // // // // // // // // // // // // // // // // // // // // // // // // // // // // // // // // // // // // // // // // // // // // // // // // // // // // // // // // // // //\n\npragma solidity ^0.8.7;\n\n// Open Zeppelin Imports\nimport \"@openzeppelin/contracts/utils/Counters.sol\";\nimport \"@openzeppelin/contracts/utils/Strings.sol\";\n\nimport \"@openzeppelin/contracts/token/ERC20/ERC20.sol\";\nimport \"@openzeppelin/contracts/token/ERC20/IERC20.sol\";\n\nimport \"@openzeppelin/contracts/token/ERC721/extensions/ERC721URIStorage.sol\";\nimport \"@openzeppelin/contracts/token/ERC721/ERC721.sol\";\nimport \"@openzeppelin/contracts/token/ERC721/IERC721.sol\";\n\nimport \"@openzeppelin/contracts/token/ERC1155/ERC1155.sol\";\n\n\n// // // // // // // // // // // // // // // // // // // // // // // // // // // // // // // // // // // // // // // // // // // // // // // // // // // // // // // // // // // // //\n//  *   *   *   *   *   *   *   *   *   *   *   *   *   *   *   *   *   *   *   *   *   *   *   *   *   *   *   *   *   *   *   *   *   *   *   *   *   *   *   *   *   *   *   *   //\n// // // // // // // // // // // // // // // // // // // // // // // // // // // // // // // // // // // // // // // // // // // // // // // // // // // // // // // // // // // // //\n// constant library fx                                                                                                                                                              //\n// // // // // // // // // // // // // // // // // // // // // // // // // // // // // // // // // // // // // // // // // // // // // // // // // // // // // // // // // // // // //\nlibrary fx {\n    uint256 constant weidig = 1 * 10**18;\n    uint256 constant findig = 1 * 10**14;\n    uint256 constant shqdig = 1 * 10**8;\n    uint256 public constant mlqMax = 3000000 * weidig;\n    uint256 public constant lyxMax = 300000000 * weidig;\n    uint256 public constant vyzMax = 30000000000 * weidig;\n    uint256 public constant shqMax = 100 * shqdig;\n    uint256 public constant initMlqRate = 100; // 1 ETH == (initMlqRate) MLQ\n    uint256 public constant lyxRate = 10000; // 1 ETH == (lyxRate) LYX\n    uint256 public constant vyzRate = 1000000; // 1 ETH == (vyzRate) VYZ\n    uint256 public constant minRoy = 10;\n    uint256 public constant maxRoy = 30;\n    uint256 public constant initRoy = 20;\n}\n\n// // // // // // // // // // // // // // // // // // // // // // // // // // // // // // // // // // // // // // // // // // // // // // // // // // // // // // // // // // // // //\n//  *   *   *   *   *   *   *   *   *   *   *   *   *   *   *   *   *   *   *   *   *   *   *   *   *   *   *   *   *   *   *   *   *   *   *   *   *   *   *   *   *   *   *   *   //\n// // // // // // // // // // // // // // // // // // // // // // // // // // // // // // // // // // // // // // // // // // // // // // // // // // // // // // // // // // // // //\n//                                                                                                                                                                                  //\n// // // // // // // // // // // // // // // // // // // // // // // // // // // // // // // // // // // // // // // // // // // // // // // // // // // // // // // // // // // // //\nlibrary sc {\n\n}\n\n// // // // // // // // // // // // // // // // // // // // // // // // // // // // // // // // // // // // // // // // // // // // // // // // // // // // // // // // // // // // //\n//  *   *   *   *   *   *   *   *   *   *   *   *   *   *   *   *   *   *   *   *   *   *   *   *   *   *   *   *   *   *   *   *   *   *   *   *   *   *   *   *   *   *   *   *   //\n// // // // // // // // // // // // // // // // // // // // // // // // // // // // // // // // // // // // // // // // // // // // // // // // // // // // // // // // // // // // //\n//                                                                                                                                                                                  //\n// // // // // // // // // // // // // // // // // // // // // // // // // // // // // // // // // // // // // // // // // // // // // // // // // // // // // // // // // // // // //\ncontract all {\n    using fx for *;\n    using sc for *;\n}\n\n// // // // // // // // // // // // // // // // // // // // // // // // // // // // // // // // // // // // // // // // // // // // // // // // // // // // // // // // // // // // //\n//  *   *   *   *   *   *   *   *   *   *   *   *   *   *   *   *   *   *   *   *   *   *   *   *   *   *   *   *   *   *   *   *   *   *   *   *   *   *   *   *   *   *   *   *   //\n// // // // // // // // // // // // // // // // // // // // // // // // // // // // // // // // // // // // // // // // // // // // // // // // // // // // // // // // // // // // //\n//                                                                                                                                                                                  //\n// // // // // // // // // // // // // // // // // // // // // // // // // // // // // // // // // // // // // // // // // // // // // // // // // // // // // // // // // // // // //\ncontract TokenomicSets is all {\n    uint256 public mlqRate; // is to be updated\n    IERC20 internal iMLQ;\n    IERC20 internal iWETH;\n    IERC20 internal iUSDC;\n    IERC20 internal iLYX;\n    IERC20 internal iVYZ;\n    IERC20 internal M_SHQ;\n    IERC20 internal L_SHQ;\n    IERC20 internal V_SHQ;\n    IERC20 internal X_SHQ;\n    IERC20 internal R_SHQ;\n    IERC20 internal Token20;\n    IERC721 internal Token721;\n\n    uint256 public mlqLive;\n    uint256 public lyxLive;\n    uint256 public vyzLive;\n    uint256 public mlqLocked;\n    uint256 public lyxLocked;\n    uint256 public vyzLocked;\n\n    uint256 public roy;\n\n    function setTokenContract(address _contractAddress, uint256 _curr)\n        external\n        returns (bool)\n    {\n        // curr == 0-usdc, 1-weth, 2-mlq, 3-lyx, 4-vyz, 5-mshk, 6-lshk, 7-vshk, 8-xshk, 9-rshk\n        if (_curr == 0) iUSDC = IERC20(_contractAddress);\n        if (_curr == 1) iWETH = IERC20(_contractAddress);\n        if (_curr == 2) iMLQ = IERC20(_contractAddress);\n        if (_curr == 3) iLYX = IERC20(_contractAddress);\n        if (_curr == 4) iVYZ = IERC20(_contractAddress);\n        if (_curr == 5) M_SHQ = IERC20(_contractAddress);\n        if (_curr == 6) L_SHQ = IERC20(_contractAddress);\n        if (_curr == 7) V_SHQ = IERC20(_contractAddress);\n        if (_curr == 8) X_SHQ = IERC20(_contractAddress);\n        if (_curr == 9) R_SHQ = IERC20(_contractAddress);\n        return true;\n    }\n\n    function setMlqRate(uint256 _newRate) internal returns (bool) {\n        mlqRate = _newRate;\n        return (mlqRate == _newRate);\n    }\n}\n\n// // // // // // // // // // // // // // // // // // // // // // // // // // // // // // // // // // // // // // // // // // // // // // // // // // // // // // // // // // // // //\n//  *   *   *   *   *   *   *   *   *   *   *   *   *   *   *   *   *   *   *   *   *   *   *   *   *   *   *   *   *   *   *   *   *   *   *   *   *   *   *   *   *   *   *   *   //\n// // // // // // // // // // // // // // // // // // // // // // // // // // // // // // // // // // // // // // // // // // // // // // // // // // // // // // // // // // // // //\n//                                                                                                                                                                                  //\n// // // // // // // // // // // // // // // // // // // // // // // // // // // // // // // // // // // // // // // // // // // // // // // // // // // // // // // // // // // // //\ncontract Init is TokenomicSets {\n    address public author;\n    address public avax;\n    mapping(address => uint256) public role;\n    mapping(address => bytes) public uData;\n\n    mapping(address => bool) internal isUser;\n    mapping(address => bool) internal blacklist;\n    event Log(\n        uint256 indexed id,\n        address sender,\n        address home,\n        uint256 num,\n        bytes message,\n        uint256 stamp\n    );\n    event Wait(\n        uint256 indexed id,\n        address sender,\n        address home,\n        uint256 num,\n        bytes message,\n        uint256 stamp\n    );\n    uint256 logs;\n    modifier isAdmin() {\n        require(role[msg.sender] == 99, \"you're not admin\");\n        _;\n    }\n    modifier isOwner() {\n        require(author == msg.sender || avax == msg.sender, \"you're not owner\");\n        _;\n    }\n\n    constructor(address _auth, address _avx) {\n        author = _auth;\n        avax = _avx;\n        isUser[author] = true;\n        role[author] = 99;\n        uData[author] = bytes(\n            '{\"username\": \"stereo\",\"usermail\": \"type.stereo@pm.me\",\"usertel\": \"00491631107542\",\"usertwt\": \"@stereoIII6\",\"userstatus\": \"its all reel\" ,\"useravt\":  \"https://www.w3schools.com/w3images/avatar2.png\",\"role\": \"99\"}'\n        );\n        isUser[avax] = true;\n        role[avax] = 99;\n        uData[avax] = bytes(\n            '{\"username\": \"stereo\",\"usermail\": \"type.stereo@pm.me\",\"usertel\": \"00491631107542\",\"usertwt\": \"@stereoIII6\",\"userstatus\": \"its all reel\" ,\"useravt\":  \"https://www.w3schools.com/w3images/avatar2.png\",\"role\": \"99\"}'\n        );\n        setMlqRate(fx.initMlqRate);\n    }\n\n    function getRole(address _adr) external view returns (uint256) {\n        return role[_adr];\n    }\n\n    function isUserBool(address _adr) external view returns (bool) {\n        return isUser[_adr];\n    }\n\n    function editU(\n        address _to,\n        uint256 _role,\n        string memory _data,\n        bool _legit\n    ) external isAdmin() returns (bool) {\n        isUser[_to] = _legit;\n        if (_legit == false) blacklist[_to] = true;\n        role[_to] = _role;\n        uData[_to] = bytes(_data);\n        return isUser[_to];\n    }\n\n    function blackList(address _to) external isAdmin returns (bool) {\n        blacklist[_to] = true;\n        return true;\n    }\n\n    function editMe(string memory _data) external returns (bool) {\n        role[msg.sender] = role[msg.sender];\n        uData[msg.sender] = bytes(_data);\n        return true;\n    }\n\n    function makeU(string memory _data) external returns (bool) {\n        require(isUser[msg.sender] == false, \"not a user\");\n        require(blacklist[msg.sender] == false, \"blacklisted\");\n        isUser[msg.sender] = true;\n        role[msg.sender] = 1;\n        uData[msg.sender] = bytes(_data);\n        return true;\n    }\n\n    function showU() external view returns (string memory, uint256) {\n        return (string(uData[msg.sender]), role[msg.sender]);\n    }\n\n    function showAny(address _to)\n        external\n        view\n        returns (string memory, uint256)\n    {\n        return (string(uData[_to]), role[_to]);\n    }\n\n    function MLQ_Address() external view returns (address) {\n        return address(this);\n    }\n\n    function withdrawToken(address _contract) external isAdmin returns (bool) {\n        Token20 = IERC20(_contract);\n        Token20.transfer(msg.sender, Token20.balanceOf(address(this)));\n        return true;\n    }\n\n    function setRole(uint256 _rl, address _adr) isAdmin() external returns (uint256) {\n        return role[_adr] = _rl;\n    }\n\n    function setUdata(string memory _data, address _adr)\n        external\n        returns (bytes memory)\n    {\n        isUser[_adr] = true;\n        return uData[_adr] = bytes(_data);\n    }\n\n    function isUdata() external returns (bool) {\n        return isUser[msg.sender];\n    }\n\n    function setLogs() external {\n        logs++;\n    }\n\n    function getLogs() external returns (uint256) {\n        return logs;\n    }\n\n    function divide(uint256 _a, uint256 _b)\n        internal\n        pure\n        returns (uint256 res)\n    {\n        uint256 rem = _a % _b;\n        res = (_a - rem) / _b;\n    }\n\n    fallback() external {}\n}\n\n// // // // // // // // // // // // // // // // // // // // // // // // // // // // // // // // // // // // // // // // // // // // // // // // // // // // // // // // // // // // //\n//  *   *   *   *   *   *   *   *   *   *   *   *   *   *   *   *   *   *   *   *   *   *   *   *   *   *   *   *   *   *   *   *   *   *   *   *   *   *   *   *   *   *   *   *   //\n// // // // // // // // // // // // // // // // // // // // // // // // // // // // // // // // // // // // // // // // // // // // // // // // // // // // // // // // // // // // //\n//                                                                                                                                                                                  //\n// // // // // // // // // // // // // // // // // // // // // // // // // // // // // // // // // // // // // // // // // // // // // // // // // // // // // // // // // // // // //\ncontract InitFace {\n    Init public init;\n   \n    constructor(address _initAdr) {\n        init = Init(_initAdr);\n    }\n}\n\n// // // // // // // // // // // // // // // // // // // // // // // // // // // // // // // // // // // // // // // // // // // // // // // // // // // // // // // // // // // // //\n//  *   *   *   *   *   *   *   *   *   *   *   *   *   *   *   *   *   *   *   *   *   *   *   *   *   *   *   *   *   *   *   *   *   *   *   *   *   *   *   *   *   *   *   *   //\n// // // // // // // // // // // // // // // // // // // // // // // // // // // // // // // // // // // // // // // // // // // // // // // // // // // // // // // // // // // // //\n//                                                                                                                                                                                  //\n// // // // // // // // // // // // // // // // // // // // // // // // // // // // // // // // // // // // // // // // // // // // // // // // // // // // // // // // // // // // //\ncontract MLQ is ERC20, Init {\n    uint256 rate;\n    uint256 maxSupply;\n\n    constructor(address _auth, address _avax)\n        ERC20(\"Milq Token\", \"MLQ\")\n        Init(_auth, _avax)\n    {\n        require(msg.sender == author);\n        role[msg.sender] = 99;\n        uData[msg.sender] = bytes(\n            '{\"username\":\"@stereoiii6\",\"email\":\"type.stereo@pm.me\"}'\n        );\n        maxSupply = fx.mlqMax;\n        rate = fx.initMlqRate;\n        // mint(5000);\n    }\n    function balanceOfU(address _u) external returns(uint256){\n        return balanceOf(_u);\n    }\n    function mint(uint256 _amount) internal isOwner returns (bool) {\n        uint256 ts = totalSupply();\n        require((_amount * 10**18) <= maxSupply - ts);\n        _mint(address(this), rate * _amount * 10**18);\n        return true;\n    }\n\n    function buy() external payable returns (bool) {\n        uint256 ts = totalSupply();\n        require((msg.value * rate) <= maxSupply - ts, \"supply\");\n        require(msg.value > 0, \"value\");\n\n        _mint(msg.sender, msg.value * rate);\n        return true;\n    }\n\n    function showSafeWallet() external view isAdmin() returns (uint256, uint256) {\n        return (address(this).balance, balanceOf(address(this)));\n    }\n\n    function withdraw(uint256 _eth, uint256 _mlq)\n        external\n        isAdmin\n        returns (bool)\n    {\n        require(_mlq * 10**18 <= balanceOf(address(this)));\n        require(_eth * 10**18 <= address(this).balance);\n        transfer(payable(author), _mlq * 10**18);\n        payable(author).transfer(_eth * 10**18);\n        return true;\n    }\n}\n\n// Open Zeppelin Imports\n\n\n\ncontract Trees is ERC20, Init {\n    uint256 maxSupply;\n    uint256 rate;\n    uint256 availSupply;\n    MLQ mlq;\n    constructor(address _mlq, address _auth, address _avax) ERC20(\"Impact Tree Token\", \"IMPCTrees\") Init(_auth, _avax){\n        require(msg.sender == author);\n        role[msg.sender] = 99;\n        uData[msg.sender] = bytes('{\"username\":\"@stereoiii6\",\"email\":\"type.stereo@pm.me\"}');\n        maxSupply = 5000000000000 * 10 ** 18;\n        emit Log(logs,msg.sender,address(this),999,bytes(\"contract created\"),block.timestamp);\n        rate = 35;\n        logs++;\n        mlq = MLQ(_mlq);   \n    }\n\n    function plantTree(uint256 _amount) external payable returns(bool){\n        require(msg.value >= _amount * rate * 10 ** 12);\n        require(availSupply < maxSupply);\n        availSupply += msg.value*10000;\n        _mint(msg.sender, _amount * 10 ** 18);\n        emit Log(logs,msg.sender,address(this),_amount,bytes(\"trees minted\"),block.timestamp);\n        logs++;\n        return true;\n    }\n\n    function plantTreeMLQ(uint256 _amount) external payable returns(bool){\n        require(mlq.balanceOfU(msg.sender) >= 100 * _amount * rate * 10 ** 12);\n        require(availSupply < maxSupply);\n        mlq.transferFrom(msg.sender,address(this), 100 * _amount * rate * 10 ** 12);\n        availSupply += msg.value*10000;\n        _mint(msg.sender, _amount * 10 ** 18);\n        emit Log(logs,msg.sender,address(this),_amount,bytes(\"trees minted\"),block.timestamp);\n        logs++;\n        return true;\n    }\n\n    function donateTrees(uint256 _amount) isAdmin() external returns(bool){\n        require(balanceOf(msg.sender) > _amount * 10 ** 18);\n        _burn(msg.sender, _amount * 10 ** 18);\n        emit Log(logs,msg.sender,address(this),_amount,bytes(\"trees burned\"),block.timestamp);\n        logs++;\n        return true;\n    }\n\n    function approveContract(address _contract) isAdmin() external returns(bool){\n        approve(_contract, balanceOf(msg.sender));\n        emit Log(logs,msg.sender,_contract,999,bytes(\"approve contract\"),block.timestamp);\n        logs++;\n        return true;\n    }\n\n    function trimTrees(uint256 _newPrice) external returns(uint256){\n        rate = _newPrice;\n        return rate;\n    }\n\n    function withdraw(uint256 _eth, uint256 _tree) isAdmin() external returns(bool){\n        require(_tree * 10 ** 18 <= balanceOf(address(this)));\n        require(_eth * 10 ** 18 <= address(this).balance);\n        transfer(payable(author), _tree * 10 ** 18);\n        payable(author).transfer(_eth * 10 ** 18);\n        emit Log(logs,msg.sender,address(this),_tree,bytes(\"contract withdraw\"),block.timestamp);\n        logs++;\n        return true;\n    }\n}\n\ncontract Co2s is ERC20, Init  {\n\n    IERC20 internal trees;\n    MLQ mlq;\n    uint256 maxSupply;\n    uint256 rate;\n    uint256 availSupply;\n    struct Bond{\n        uint256 id;\n        address adr;\n        uint256 amount;\n        uint256 region;\n        uint256 stamp;\n        uint256 duration;\n        uint256 co2;\n    }\n\n    mapping(address => uint256) public myBonds;\n    mapping(address => mapping(uint256 => uint256)) public myBondedCo2;\n\n    Bond[] public bonds;\n    uint256 c;\n    uint256 b;\n    uint256 per;\n    constructor(address _contract, uint256 _percent, address _mlq, address _init, address _auth, address _avax) ERC20(\"Carbon token\", \"CO2\") Init(_auth, _avax){\n        require(msg.sender == author);\n        role[msg.sender] = 99;\n        uData[msg.sender] = bytes('{\"username\":\"@stereoiii6\",\"email\":\"type.stereo@pm.me\"}');\n        maxSupply = 25000000000000 * 10 ** 18;\n        trees = IERC20(_contract);  \n        per = _percent;\n        emit Log(logs,msg.sender,address(this),_percent,bytes(\"contract created\"),block.timestamp);\n        mlq = MLQ(_mlq);  \n        logs++;\n    }\n\n    function growTrees(uint256 _trees, uint256 _region, uint256 _duration) external payable returns(bool){\n        require(msg.value >= _trees * 10 ** 14 , \"not enough funds for asset\");\n        require(_trees <= trees.balanceOf(msg.sender), \"insufficient balance\");\n        require(5 * _trees * 10 ** 18 <= maxSupply - availSupply, \"insufficient supply\");\n        bonds.push(Bond(b ,msg.sender ,_trees * 10 ** 18 ,_region ,block.timestamp ,_duration ,5 * _trees * 10 ** 18));\n        availSupply += 5 * _trees * 10 ** 18;  \n        myBondedCo2[msg.sender][myBonds[msg.sender]] = b;\n        myBonds[msg.sender]++;\n        trees.transferFrom(msg.sender,payable(address(this)), _trees * 10 ** 18);\n        b++;\n        emit Log(logs,msg.sender,address(this),_trees,bytes(\"trees staked\"),block.timestamp);\n        logs++;\n        return true;\n    }\n\n    function growMoreTrees(uint256 _trees, uint256 _b) external payable returns(bool){\n        require(msg.value >= _trees * 10 ** 14);\n        require(_trees <= trees.balanceOf(msg.sender));\n        uint256 treez = _trees * 10 ** 18;\n        require(5 * treez <= maxSupply - availSupply);\n        uint256 p = divide(100,bonds[_b].amount) * treez;\n        bonds[_b].amount += treez;\n        bonds[_b].co2 += 5 * treez;\n        bonds[_b].duration += bonds[_b].duration * p;\n        uint256 fee = divide(treez,(100/per));\n        trees.transfer(payable(address(this)), treez - fee);\n        trees.transfer(payable(address(this)), fee);\n        emit Log(logs,msg.sender,address(this),_trees,bytes(\"trees addeed to stake\"),block.timestamp);\n        logs++;\n        return true;\n    }\n\n    function growLessTrees(uint256 _trees, uint256 _b) external payable returns(bool){\n        require(msg.value >= _trees * 10 ** 15);\n        uint256 treez = _trees * 10 ** 18;\n        require(treez <= bonds[myBondedCo2[msg.sender][myBonds[msg.sender]]].amount);\n        bonds[_b].amount -= treez;\n        bonds[_b].co2 -= 5 * treez; \n        uint256 fee = divide(treez,(100/per));\n        trees.transfer(payable(msg.sender), treez - fee);\n        trees.transfer(payable(address(this)), fee);\n        emit Log(logs,msg.sender,address(this),_trees,bytes(\"trees removed from stake\"),block.timestamp);\n        logs++;\n        return true;\n    }\n\n    function calcFreeCo2(uint256 _b) internal returns(uint256,uint256){\n        uint256 total = bonds[_b].duration * 60 * 60 * 24 * 365;\n        uint256 passed = block.timestamp - bonds[_b].stamp;\n        uint256 pDur = divide(100*10**18 , total) * passed;\n        uint256 freeCo2 = divide(100*10**18 , bonds[_b].co2) * pDur;\n        emit Log(logs,msg.sender,address(this),freeCo2,bytes(\"free co2 calculated\"),block.timestamp);\n        logs++;\n        return (freeCo2, passed);\n    }\n\n    function releaseFreeCo2(uint256 _m) external returns(bool){\n        uint256 _b = myBondedCo2[msg.sender][_m]; // get b_id\n        (uint256 free, uint256 passed) = calcFreeCo2(_b); // get free co2 & passed time\n        require(1 * 10 ** 18 <= free); // check amount\n        bonds[_b].co2 -= free;          // edit bonds data subtract\n        bonds[_b].stamp = block.timestamp;\n        uint256 addTime = divide(passed,(100 / per));\n        bonds[_b].duration += addTime;\n\n        uint256 fee = divide(free,(100/per));\n        _mint(msg.sender,(free - fee)); // mint free co2\n        _mint(address(this),fee);\n        emit Log(logs,msg.sender,address(this),free,bytes(\"free co2 minted\"),block.timestamp);\n        logs++;\n        return true;\n    }\n\n    function withdraw(uint256 _eth, uint256 _co2, uint256 _tree) isAdmin() external returns(bool){\n        require(_co2 * 10 ** 18 <= balanceOf(address(this)));\n        require(_tree * 10 ** 18 <= trees.balanceOf(address(this)));\n        require(_eth * 10 ** 18 <= address(this).balance);\n        transfer(payable(author), _co2 * 10 ** 18);\n        trees.transfer(payable(author), _tree * 10 ** 18);\n        payable(author).transfer(_eth * 10 ** 18);\n        emit Log(logs,msg.sender,address(this),999,bytes(\"contract fund balances 0\"),block.timestamp);\n        logs++;\n        return true;\n    }\n}\n\ncontract GardenPool is ERC1155, Init {\n    IERC20 internal TR3EZ;\n    IERC20 internal CO2;\n    IERC20 internal WETH;\n    IERC20 internal lowC;\n    IERC20 internal highC;\n\n    uint256 private per;\n    uint256 public collectedFees;\n    struct Garden{\n        uint256 id;\n        address low;\n        uint256 lowTotal;\n        address high;\n        bytes description;\n        uint256 low4high; \n        uint256 maxSize;\n        uint256 currentSize;\n    }\n    Garden[] public gardens;\n    uint256 g;\n    constructor(address _trees, address _co2, address _weth, uint256 _percent, address _init, address _auth, address _avax) ERC1155(\"IMgardens\") Init(_auth, _avax){\n        require(msg.sender == author);\n        role[msg.sender] = 99;\n        uData[msg.sender] = bytes('{\"username\":\"@stereoiii6\",\"email\":\"type.stereo@pm.me\"}');\n        TR3EZ = IERC20(_trees);\n        CO2 = IERC20(_co2);\n        WETH = IERC20(_weth);\n        per = _percent;\n        emit Log(logs,msg.sender,address(this),_percent,bytes(\"contract created\"),block.timestamp);\n        logs++;\n    }\n\n    function createGarden(string memory _name, address _hi, address _lo) external returns(bool){\n        _setURI(_name);\n        _mint(address(this),g,100*10**6,bytes(_name)); // 1 : 10 000 // 100 000 weth : 1 000 000 000 trees = 100% // 1 weth : 10 000 trees = 0,001% of max pool size\n        gardens.push(Garden(g,_hi,1000000000,_lo,bytes(_name),10000,100000,0));\n        g++;\n        return true;   \n    }\n\n    function addliquidity(uint256 _id, uint256 _low) external payable returns(bool){\n        uint256 low = _low * 10 ** 6;\n        uint256 high = gardens[_id].low4high * low;    \n        lowC = IERC20(gardens[_id].low);\n        highC = IERC20(gardens[_id].high);\n        require(lowC.balanceOf(msg.sender) >= low);\n        require(highC.balanceOf(msg.sender) >= high);\n        lowC.transferFrom(msg.sender, address(this), low);\n        highC.transferFrom(msg.sender, address(this), high);\n        uint256 gardenDrops = divide(100 * 10 ** 6 , gardens[_id].lowTotal) * low;\n        safeTransferFrom(address(this),msg.sender,gardens[_id].id,gardenDrops,gardens[_id].description);\n        gardens[_id].currentSize += gardenDrops;\n        return true;\n    }\n\n    function removeLiquidity(uint256 _id, uint256 _gardenDrops) external payable returns(bool){\n        uint256 low = divide(100 * 10 ** 6 , gardens[_id].lowTotal) * _gardenDrops;\n        uint256 high = low * gardens[_id].low4high;\n        lowC = IERC20(gardens[_id].low);\n        highC = IERC20(gardens[_id].high);\n        require(lowC.balanceOf(address(this)) >= low);\n        require(highC.balanceOf(address(this)) >= high);\n        lowC.transferFrom(address(this), msg.sender, low);\n        highC.transferFrom(address(this),msg.sender, high);\n        safeTransferFrom(msg.sender,address(this),gardens[_id].id,_gardenDrops,gardens[_id].description);\n        gardens[_id].currentSize -= _gardenDrops;\n        return true;\n    }\n\n    function swapLowHigh(uint256 _id, uint256 _low) external payable returns(bool){\n        uint256 low = _low * 10 ** 6;\n        lowC = IERC20(gardens[_id].low);\n        highC = IERC20(gardens[_id].high);\n        require(lowC.balanceOf(msg.sender) >= low);\n        uint256 fee = divide(100 * 10 ** 6, low) * (100/per);\n        uint256 get = gardens[_id].low4high * (low - fee);\n        require(highC.balanceOf(address(this)) >= get);\n        lowC.transferFrom(msg.sender, address(this), low);\n        highC.transferFrom( address(this), msg.sender, get);\n        collectedFees += fee;\n        return true;\n    }\n\n    function swapHighLow(uint256 _id, uint256 _high) external payable returns(bool){\n        uint256 high = _high * 10 ** 6;\n        lowC = IERC20(gardens[_id].low);\n        highC = IERC20(gardens[_id].high);\n        require(highC.balanceOf(msg.sender) >= high);\n        uint256 fee = divide(100 * 10 ** 6, high) * (100/per);\n        uint256 get = divide(high - fee ,gardens[_id].low4high);\n        require(highC.balanceOf(address(this)) >= get);\n        highC.transferFrom(msg.sender, address(this), high);\n        lowC.transferFrom(address(this), msg.sender, get);\n        collectedFees += fee;\n        return true;\n    }\n\n    function waterGardens(uint256 _id) external payable returns(uint256){\n        lowC = IERC20(gardens[_id].low);\n        highC = IERC20(gardens[_id].high);\n        uint256 lBal = lowC.balanceOf(address(this));\n        uint256 hBal = highC.balanceOf(address(this));\n        uint256 rRatio = divide(hBal , lBal);\n        uint256 eRatio = divide(gardens[_id].low4high, 1);\n        uint256 difRatio = divide(100,eRatio) * rRatio;\n        return difRatio;\n    }\n\n}",
  "sourcePath": "/Users/jediswag/Documents/GitHub/ourPlanet/contracts/Gardens.sol",
  "compiler": {
    "name": "solc",
    "version": "0.8.15+commit.e14f2714.Emscripten.clang"
  },
  "schemaVersion": "3.4.4",
  "updatedAt": "2022-06-27T09:24:36.552Z",
  "devdoc": {
    "kind": "dev",
    "methods": {},
    "version": 1
  },
  "userdoc": {
    "kind": "user",
    "methods": {},
    "version": 1
  }
}