{
  "contractName": "GardenPool",
  "abi": [
    {
      "inputs": [
        {
          "internalType": "address",
          "name": "_trees",
          "type": "address"
        },
        {
          "internalType": "address",
          "name": "_co2",
          "type": "address"
        },
        {
          "internalType": "uint256",
          "name": "_percent",
          "type": "uint256"
        }
      ],
      "stateMutability": "nonpayable",
      "type": "constructor"
    },
    {
      "anonymous": false,
      "inputs": [
        {
          "indexed": true,
          "internalType": "address",
          "name": "account",
          "type": "address"
        },
        {
          "indexed": true,
          "internalType": "address",
          "name": "operator",
          "type": "address"
        },
        {
          "indexed": false,
          "internalType": "bool",
          "name": "approved",
          "type": "bool"
        }
      ],
      "name": "ApprovalForAll",
      "type": "event"
    },
    {
      "anonymous": false,
      "inputs": [
        {
          "indexed": true,
          "internalType": "address",
          "name": "operator",
          "type": "address"
        },
        {
          "indexed": true,
          "internalType": "address",
          "name": "from",
          "type": "address"
        },
        {
          "indexed": true,
          "internalType": "address",
          "name": "to",
          "type": "address"
        },
        {
          "indexed": false,
          "internalType": "uint256[]",
          "name": "ids",
          "type": "uint256[]"
        },
        {
          "indexed": false,
          "internalType": "uint256[]",
          "name": "values",
          "type": "uint256[]"
        }
      ],
      "name": "TransferBatch",
      "type": "event"
    },
    {
      "anonymous": false,
      "inputs": [
        {
          "indexed": true,
          "internalType": "address",
          "name": "operator",
          "type": "address"
        },
        {
          "indexed": true,
          "internalType": "address",
          "name": "from",
          "type": "address"
        },
        {
          "indexed": true,
          "internalType": "address",
          "name": "to",
          "type": "address"
        },
        {
          "indexed": false,
          "internalType": "uint256",
          "name": "id",
          "type": "uint256"
        },
        {
          "indexed": false,
          "internalType": "uint256",
          "name": "value",
          "type": "uint256"
        }
      ],
      "name": "TransferSingle",
      "type": "event"
    },
    {
      "anonymous": false,
      "inputs": [
        {
          "indexed": false,
          "internalType": "string",
          "name": "value",
          "type": "string"
        },
        {
          "indexed": true,
          "internalType": "uint256",
          "name": "id",
          "type": "uint256"
        }
      ],
      "name": "URI",
      "type": "event"
    },
    {
      "inputs": [
        {
          "internalType": "address",
          "name": "account",
          "type": "address"
        },
        {
          "internalType": "uint256",
          "name": "id",
          "type": "uint256"
        }
      ],
      "name": "balanceOf",
      "outputs": [
        {
          "internalType": "uint256",
          "name": "",
          "type": "uint256"
        }
      ],
      "stateMutability": "view",
      "type": "function",
      "constant": true
    },
    {
      "inputs": [
        {
          "internalType": "address[]",
          "name": "accounts",
          "type": "address[]"
        },
        {
          "internalType": "uint256[]",
          "name": "ids",
          "type": "uint256[]"
        }
      ],
      "name": "balanceOfBatch",
      "outputs": [
        {
          "internalType": "uint256[]",
          "name": "",
          "type": "uint256[]"
        }
      ],
      "stateMutability": "view",
      "type": "function",
      "constant": true
    },
    {
      "inputs": [],
      "name": "collectedFees",
      "outputs": [
        {
          "internalType": "uint256",
          "name": "",
          "type": "uint256"
        }
      ],
      "stateMutability": "view",
      "type": "function",
      "constant": true
    },
    {
      "inputs": [
        {
          "internalType": "uint256",
          "name": "",
          "type": "uint256"
        }
      ],
      "name": "gardens",
      "outputs": [
        {
          "internalType": "uint256",
          "name": "id",
          "type": "uint256"
        },
        {
          "internalType": "address",
          "name": "low",
          "type": "address"
        },
        {
          "internalType": "uint256",
          "name": "lowTotal",
          "type": "uint256"
        },
        {
          "internalType": "address",
          "name": "high",
          "type": "address"
        },
        {
          "internalType": "bytes",
          "name": "description",
          "type": "bytes"
        },
        {
          "internalType": "uint256",
          "name": "low4high",
          "type": "uint256"
        },
        {
          "internalType": "uint256",
          "name": "maxSize",
          "type": "uint256"
        },
        {
          "internalType": "uint256",
          "name": "currentSize",
          "type": "uint256"
        }
      ],
      "stateMutability": "view",
      "type": "function",
      "constant": true
    },
    {
      "inputs": [
        {
          "internalType": "address",
          "name": "account",
          "type": "address"
        },
        {
          "internalType": "address",
          "name": "operator",
          "type": "address"
        }
      ],
      "name": "isApprovedForAll",
      "outputs": [
        {
          "internalType": "bool",
          "name": "",
          "type": "bool"
        }
      ],
      "stateMutability": "view",
      "type": "function",
      "constant": true
    },
    {
      "inputs": [
        {
          "internalType": "address",
          "name": "from",
          "type": "address"
        },
        {
          "internalType": "address",
          "name": "to",
          "type": "address"
        },
        {
          "internalType": "uint256[]",
          "name": "ids",
          "type": "uint256[]"
        },
        {
          "internalType": "uint256[]",
          "name": "amounts",
          "type": "uint256[]"
        },
        {
          "internalType": "bytes",
          "name": "data",
          "type": "bytes"
        }
      ],
      "name": "safeBatchTransferFrom",
      "outputs": [],
      "stateMutability": "nonpayable",
      "type": "function"
    },
    {
      "inputs": [
        {
          "internalType": "address",
          "name": "from",
          "type": "address"
        },
        {
          "internalType": "address",
          "name": "to",
          "type": "address"
        },
        {
          "internalType": "uint256",
          "name": "id",
          "type": "uint256"
        },
        {
          "internalType": "uint256",
          "name": "amount",
          "type": "uint256"
        },
        {
          "internalType": "bytes",
          "name": "data",
          "type": "bytes"
        }
      ],
      "name": "safeTransferFrom",
      "outputs": [],
      "stateMutability": "nonpayable",
      "type": "function"
    },
    {
      "inputs": [
        {
          "internalType": "address",
          "name": "operator",
          "type": "address"
        },
        {
          "internalType": "bool",
          "name": "approved",
          "type": "bool"
        }
      ],
      "name": "setApprovalForAll",
      "outputs": [],
      "stateMutability": "nonpayable",
      "type": "function"
    },
    {
      "inputs": [
        {
          "internalType": "bytes4",
          "name": "interfaceId",
          "type": "bytes4"
        }
      ],
      "name": "supportsInterface",
      "outputs": [
        {
          "internalType": "bool",
          "name": "",
          "type": "bool"
        }
      ],
      "stateMutability": "view",
      "type": "function",
      "constant": true
    },
    {
      "inputs": [
        {
          "internalType": "uint256",
          "name": "",
          "type": "uint256"
        }
      ],
      "name": "uri",
      "outputs": [
        {
          "internalType": "string",
          "name": "",
          "type": "string"
        }
      ],
      "stateMutability": "view",
      "type": "function",
      "constant": true
    },
    {
      "inputs": [
        {
          "internalType": "string",
          "name": "_name",
          "type": "string"
        },
        {
          "internalType": "address",
          "name": "_hi",
          "type": "address"
        },
        {
          "internalType": "address",
          "name": "_lo",
          "type": "address"
        }
      ],
      "name": "createGarden",
      "outputs": [
        {
          "internalType": "bool",
          "name": "",
          "type": "bool"
        }
      ],
      "stateMutability": "nonpayable",
      "type": "function"
    },
    {
      "inputs": [
        {
          "internalType": "uint256",
          "name": "_id",
          "type": "uint256"
        },
        {
          "internalType": "uint256",
          "name": "_low",
          "type": "uint256"
        }
      ],
      "name": "addliquidity",
      "outputs": [
        {
          "internalType": "bool",
          "name": "",
          "type": "bool"
        }
      ],
      "stateMutability": "payable",
      "type": "function",
      "payable": true
    },
    {
      "inputs": [
        {
          "internalType": "uint256",
          "name": "_id",
          "type": "uint256"
        },
        {
          "internalType": "uint256",
          "name": "_gardenDrops",
          "type": "uint256"
        }
      ],
      "name": "removeLiquidity",
      "outputs": [
        {
          "internalType": "bool",
          "name": "",
          "type": "bool"
        }
      ],
      "stateMutability": "payable",
      "type": "function",
      "payable": true
    },
    {
      "inputs": [
        {
          "internalType": "uint256",
          "name": "_id",
          "type": "uint256"
        },
        {
          "internalType": "uint256",
          "name": "_low",
          "type": "uint256"
        }
      ],
      "name": "swapLowHigh",
      "outputs": [
        {
          "internalType": "bool",
          "name": "",
          "type": "bool"
        }
      ],
      "stateMutability": "payable",
      "type": "function",
      "payable": true
    },
    {
      "inputs": [
        {
          "internalType": "uint256",
          "name": "_id",
          "type": "uint256"
        },
        {
          "internalType": "uint256",
          "name": "_high",
          "type": "uint256"
        }
      ],
      "name": "swapHighLow",
      "outputs": [
        {
          "internalType": "bool",
          "name": "",
          "type": "bool"
        }
      ],
      "stateMutability": "payable",
      "type": "function",
      "payable": true
    },
    {
      "inputs": [
        {
          "internalType": "uint256",
          "name": "_id",
          "type": "uint256"
        }
      ],
      "name": "waterGardens",
      "outputs": [
        {
          "internalType": "uint256",
          "name": "",
          "type": "uint256"
        }
      ],
      "stateMutability": "payable",
      "type": "function",
      "payable": true
    }
  ],
  "bytecode": "0x60806040523480156200001157600080fd5b50604051620050463803806200504683398181016040528101906200003791906200020c565b6040518060400160405280600981526020017f494d67617264656e7300000000000000000000000000000000000000000000008152506200007e816200015260201b60201c565b5033600760006101000a81548173ffffffffffffffffffffffffffffffffffffffff021916908373ffffffffffffffffffffffffffffffffffffffff16021790555082600360006101000a81548173ffffffffffffffffffffffffffffffffffffffff021916908373ffffffffffffffffffffffffffffffffffffffff16021790555081600460006101000a81548173ffffffffffffffffffffffffffffffffffffffff021916908373ffffffffffffffffffffffffffffffffffffffff16021790555080600881905550505050620005bf565b8060029081620001639190620004d8565b5050565b600080fd5b600073ffffffffffffffffffffffffffffffffffffffff82169050919050565b600062000199826200016c565b9050919050565b620001ab816200018c565b8114620001b757600080fd5b50565b600081519050620001cb81620001a0565b92915050565b6000819050919050565b620001e681620001d1565b8114620001f257600080fd5b50565b6000815190506200020681620001db565b92915050565b60008060006060848603121562000228576200022762000167565b5b60006200023886828701620001ba565b93505060206200024b86828701620001ba565b92505060406200025e86828701620001f5565b9150509250925092565b600081519050919050565b7f4e487b7100000000000000000000000000000000000000000000000000000000600052604160045260246000fd5b7f4e487b7100000000000000000000000000000000000000000000000000000000600052602260045260246000fd5b60006002820490506001821680620002ea57607f821691505b6020821081036200030057620002ff620002a2565b5b50919050565b60008190508160005260206000209050919050565b60006020601f8301049050919050565b600082821b905092915050565b6000600883026200036a7fffffffffffffffffffffffffffffffffffffffffffffffffffffffffffffffff826200032b565b6200037686836200032b565b95508019841693508086168417925050509392505050565b6000819050919050565b6000620003b9620003b3620003ad84620001d1565b6200038e565b620001d1565b9050919050565b6000819050919050565b620003d58362000398565b620003ed620003e482620003c0565b84845462000338565b825550505050565b600090565b62000404620003f5565b62000411818484620003ca565b505050565b5b8181101562000439576200042d600082620003fa565b60018101905062000417565b5050565b601f8211156200048857620004528162000306565b6200045d846200031b565b810160208510156200046d578190505b620004856200047c856200031b565b83018262000416565b50505b505050565b600082821c905092915050565b6000620004ad600019846008026200048d565b1980831691505092915050565b6000620004c883836200049a565b9150826002028217905092915050565b620004e38262000268565b67ffffffffffffffff811115620004ff57620004fe62000273565b5b6200050b8254620002d1565b620005188282856200043d565b600060209050601f8311600181146200055057600084156200053b578287015190505b620005478582620004ba565b865550620005b7565b601f198416620005608662000306565b60005b828110156200058a5784890151825560018201915060208501945060208101905062000563565b86831015620005aa5784890151620005a6601f8916826200049a565b8355505b6001600288020188555050505b505050505050565b614a7780620005cf6000396000f3fe6080604052600436106100f25760003560e01c80634ef70ba71161008a578063a22cb46511610059578063a22cb46514610380578063abd1bb76146103a9578063e985e9c5146103d9578063f242432a14610416576100f2565b80634ef70ba7146102a45780639003adfe146102e15780639d7de6b31461030c5780639e18eb391461033c576100f2565b806320aaa60c116100c657806320aaa60c146101de5780632eb2c2d61461020e57806337efe74b146102375780634e1273f414610267576100f2565b8062fdd58e146100f757806301ffc9a7146101345780630e89341c146101715780631daf366c146101ae575b600080fd5b34801561010357600080fd5b5061011e6004803603810190610119919061306c565b61043f565b60405161012b91906130bb565b60405180910390f35b34801561014057600080fd5b5061015b6004803603810190610156919061312e565b610507565b6040516101689190613176565b60405180910390f35b34801561017d57600080fd5b5061019860048036038101906101939190613191565b6105e9565b6040516101a59190613257565b60405180910390f35b6101c860048036038101906101c39190613279565b61067d565b6040516101d59190613176565b60405180910390f35b6101f860048036038101906101f39190613279565b610ac2565b6040516102059190613176565b60405180910390f35b34801561021a57600080fd5b50610235600480360381019061023091906134b6565b610f09565b005b610251600480360381019061024c9190613191565b610faa565b60405161025e91906130bb565b60405180910390f35b34801561027357600080fd5b5061028e60048036038101906102899190613648565b611261565b60405161029b919061377e565b60405180910390f35b3480156102b057600080fd5b506102cb60048036038101906102c69190613841565b61137a565b6040516102d89190613176565b60405180910390f35b3480156102ed57600080fd5b506102f661152f565b60405161030391906130bb565b60405180910390f35b61032660048036038101906103219190613279565b611535565b6040516103339190613176565b60405180910390f35b34801561034857600080fd5b50610363600480360381019061035e9190613191565b611a76565b604051610377989796959493929190613914565b60405180910390f35b34801561038c57600080fd5b506103a760048036038101906103a291906139c5565b611b96565b005b6103c360048036038101906103be9190613279565b611bac565b6040516103d09190613176565b60405180910390f35b3480156103e557600080fd5b5061040060048036038101906103fb9190613a05565b612101565b60405161040d9190613176565b60405180910390f35b34801561042257600080fd5b5061043d60048036038101906104389190613a45565b612195565b005b60008073ffffffffffffffffffffffffffffffffffffffff168373ffffffffffffffffffffffffffffffffffffffff16036104af576040517f08c379a00000000000000000000000000000000000000000000000000000000081526004016104a690613b4e565b60405180910390fd5b60008083815260200190815260200160002060008473ffffffffffffffffffffffffffffffffffffffff1673ffffffffffffffffffffffffffffffffffffffff16815260200190815260200160002054905092915050565b60007fd9b67a26000000000000000000000000000000000000000000000000000000007bffffffffffffffffffffffffffffffffffffffffffffffffffffffff1916827bffffffffffffffffffffffffffffffffffffffffffffffffffffffff191614806105d257507f0e89341c000000000000000000000000000000000000000000000000000000007bffffffffffffffffffffffffffffffffffffffffffffffffffffffff1916827bffffffffffffffffffffffffffffffffffffffffffffffffffffffff1916145b806105e257506105e182612236565b5b9050919050565b6060600280546105f890613b9d565b80601f016020809104026020016040519081016040528092919081815260200182805461062490613b9d565b80156106715780601f1061064657610100808354040283529160200191610671565b820191906000526020600020905b81548152906001019060200180831161065457829003601f168201915b50505050509050919050565b600080620f42408361068f9190613bfd565b9050600a84815481106106a5576106a4613c57565b5b906000526020600020906008020160010160009054906101000a900473ffffffffffffffffffffffffffffffffffffffff16600560006101000a81548173ffffffffffffffffffffffffffffffffffffffff021916908373ffffffffffffffffffffffffffffffffffffffff160217905550600a848154811061072b5761072a613c57565b5b906000526020600020906008020160030160009054906101000a900473ffffffffffffffffffffffffffffffffffffffff16600660006101000a81548173ffffffffffffffffffffffffffffffffffffffff021916908373ffffffffffffffffffffffffffffffffffffffff16021790555080600660009054906101000a900473ffffffffffffffffffffffffffffffffffffffff1673ffffffffffffffffffffffffffffffffffffffff166370a08231336040518263ffffffff1660e01b81526004016107f99190613c86565b602060405180830381865afa158015610816573d6000803e3d6000fd5b505050506040513d601f19601f8201168201806040525081019061083a9190613cb6565b101561084557600080fd5b600060085460646108569190613d12565b6108646305f5e100846122a0565b61086e9190613bfd565b905060006108ac82846108819190613d43565b600a888154811061089557610894613c57565b5b9060005260206000209060080201600501546122a0565b905080600660009054906101000a900473ffffffffffffffffffffffffffffffffffffffff1673ffffffffffffffffffffffffffffffffffffffff166370a08231306040518263ffffffff1660e01b815260040161090a9190613c86565b602060405180830381865afa158015610927573d6000803e3d6000fd5b505050506040513d601f19601f8201168201806040525081019061094b9190613cb6565b101561095657600080fd5b600660009054906101000a900473ffffffffffffffffffffffffffffffffffffffff1673ffffffffffffffffffffffffffffffffffffffff166323b872dd3330866040518463ffffffff1660e01b81526004016109b593929190613d77565b6020604051808303816000875af11580156109d4573d6000803e3d6000fd5b505050506040513d601f19601f820116820180604052508101906109f89190613dc3565b50600560009054906101000a900473ffffffffffffffffffffffffffffffffffffffff1673ffffffffffffffffffffffffffffffffffffffff166323b872dd3033846040518463ffffffff1660e01b8152600401610a5893929190613d77565b6020604051808303816000875af1158015610a77573d6000803e3d6000fd5b505050506040513d601f19601f82011682018060405250810190610a9b9190613dc3565b508160096000828254610aae9190613df0565b925050819055506001935050505092915050565b600080620f424083610ad49190613bfd565b9050600a8481548110610aea57610ae9613c57565b5b906000526020600020906008020160010160009054906101000a900473ffffffffffffffffffffffffffffffffffffffff16600560006101000a81548173ffffffffffffffffffffffffffffffffffffffff021916908373ffffffffffffffffffffffffffffffffffffffff160217905550600a8481548110610b7057610b6f613c57565b5b906000526020600020906008020160030160009054906101000a900473ffffffffffffffffffffffffffffffffffffffff16600660006101000a81548173ffffffffffffffffffffffffffffffffffffffff021916908373ffffffffffffffffffffffffffffffffffffffff16021790555080600560009054906101000a900473ffffffffffffffffffffffffffffffffffffffff1673ffffffffffffffffffffffffffffffffffffffff166370a08231336040518263ffffffff1660e01b8152600401610c3e9190613c86565b602060405180830381865afa158015610c5b573d6000803e3d6000fd5b505050506040513d601f19601f82011682018060405250810190610c7f9190613cb6565b1015610c8a57600080fd5b60006008546064610c9b9190613d12565b610ca96305f5e100846122a0565b610cb39190613bfd565b905060008183610cc39190613d43565b600a8781548110610cd757610cd6613c57565b5b906000526020600020906008020160050154610cf39190613bfd565b905080600660009054906101000a900473ffffffffffffffffffffffffffffffffffffffff1673ffffffffffffffffffffffffffffffffffffffff166370a08231306040518263ffffffff1660e01b8152600401610d519190613c86565b602060405180830381865afa158015610d6e573d6000803e3d6000fd5b505050506040513d601f19601f82011682018060405250810190610d929190613cb6565b1015610d9d57600080fd5b600560009054906101000a900473ffffffffffffffffffffffffffffffffffffffff1673ffffffffffffffffffffffffffffffffffffffff166323b872dd3330866040518463ffffffff1660e01b8152600401610dfc93929190613d77565b6020604051808303816000875af1158015610e1b573d6000803e3d6000fd5b505050506040513d601f19601f82011682018060405250810190610e3f9190613dc3565b50600660009054906101000a900473ffffffffffffffffffffffffffffffffffffffff1673ffffffffffffffffffffffffffffffffffffffff166323b872dd3033846040518463ffffffff1660e01b8152600401610e9f93929190613d77565b6020604051808303816000875af1158015610ebe573d6000803e3d6000fd5b505050506040513d601f19601f82011682018060405250810190610ee29190613dc3565b508160096000828254610ef59190613df0565b925050819055506001935050505092915050565b610f116122d1565b73ffffffffffffffffffffffffffffffffffffffff168573ffffffffffffffffffffffffffffffffffffffff161480610f575750610f5685610f516122d1565b612101565b5b610f96576040517f08c379a0000000000000000000000000000000000000000000000000000000008152600401610f8d90613eb8565b60405180910390fd5b610fa385858585856122d9565b5050505050565b6000600a8281548110610fc057610fbf613c57565b5b906000526020600020906008020160010160009054906101000a900473ffffffffffffffffffffffffffffffffffffffff16600560006101000a81548173ffffffffffffffffffffffffffffffffffffffff021916908373ffffffffffffffffffffffffffffffffffffffff160217905550600a828154811061104657611045613c57565b5b906000526020600020906008020160030160009054906101000a900473ffffffffffffffffffffffffffffffffffffffff16600660006101000a81548173ffffffffffffffffffffffffffffffffffffffff021916908373ffffffffffffffffffffffffffffffffffffffff1602179055506000600560009054906101000a900473ffffffffffffffffffffffffffffffffffffffff1673ffffffffffffffffffffffffffffffffffffffff166370a08231306040518263ffffffff1660e01b81526004016111159190613c86565b602060405180830381865afa158015611132573d6000803e3d6000fd5b505050506040513d601f19601f820116820180604052508101906111569190613cb6565b90506000600660009054906101000a900473ffffffffffffffffffffffffffffffffffffffff1673ffffffffffffffffffffffffffffffffffffffff166370a08231306040518263ffffffff1660e01b81526004016111b59190613c86565b602060405180830381865afa1580156111d2573d6000803e3d6000fd5b505050506040513d601f19601f820116820180604052508101906111f69190613cb6565b9050600061120482846122a0565b90506000611238600a878154811061121f5761121e613c57565b5b90600052602060002090600802016005015460016122a0565b90506000826112486064846122a0565b6112529190613bfd565b90508095505050505050919050565b606081518351146112a7576040517f08c379a000000000000000000000000000000000000000000000000000000000815260040161129e90613f4a565b60405180910390fd5b6000835167ffffffffffffffff8111156112c4576112c36132be565b5b6040519080825280602002602001820160405280156112f25781602001602082028036833780820191505090505b50905060005b845181101561136f5761133f85828151811061131757611316613c57565b5b602002602001015185838151811061133257611331613c57565b5b602002602001015161043f565b82828151811061135257611351613c57565b5b6020026020010181815250508061136890613f6a565b90506112f8565b508091505092915050565b6000611385846125ec565b61139730600b546305f5e100876125ff565b600a604051806101000160405280600b5481526020018573ffffffffffffffffffffffffffffffffffffffff168152602001633b9aca0081526020018473ffffffffffffffffffffffffffffffffffffffff1681526020018681526020016127108152602001620186a08152602001600081525090806001815401808255809150506001900390600052602060002090600802016000909190919091506000820151816000015560208201518160010160006101000a81548173ffffffffffffffffffffffffffffffffffffffff021916908373ffffffffffffffffffffffffffffffffffffffff1602179055506040820151816002015560608201518160030160006101000a81548173ffffffffffffffffffffffffffffffffffffffff021916908373ffffffffffffffffffffffffffffffffffffffff16021790555060808201518160040190816114eb919061415e565b5060a0820151816005015560c0820151816006015560e082015181600701555050600b600081548092919061151f90613f6a565b9190505550600190509392505050565b60095481565b6000808261156c6305f5e100600a878154811061155557611554613c57565b5b9060005260206000209060080201600201546122a0565b6115769190613bfd565b90506000600a858154811061158e5761158d613c57565b5b906000526020600020906008020160050154826115ab9190613bfd565b9050600a85815481106115c1576115c0613c57565b5b906000526020600020906008020160010160009054906101000a900473ffffffffffffffffffffffffffffffffffffffff16600560006101000a81548173ffffffffffffffffffffffffffffffffffffffff021916908373ffffffffffffffffffffffffffffffffffffffff160217905550600a858154811061164757611646613c57565b5b906000526020600020906008020160030160009054906101000a900473ffffffffffffffffffffffffffffffffffffffff16600660006101000a81548173ffffffffffffffffffffffffffffffffffffffff021916908373ffffffffffffffffffffffffffffffffffffffff16021790555081600560009054906101000a900473ffffffffffffffffffffffffffffffffffffffff1673ffffffffffffffffffffffffffffffffffffffff166370a08231306040518263ffffffff1660e01b81526004016117159190613c86565b602060405180830381865afa158015611732573d6000803e3d6000fd5b505050506040513d601f19601f820116820180604052508101906117569190613cb6565b101561176157600080fd5b80600660009054906101000a900473ffffffffffffffffffffffffffffffffffffffff1673ffffffffffffffffffffffffffffffffffffffff166370a08231306040518263ffffffff1660e01b81526004016117bd9190613c86565b602060405180830381865afa1580156117da573d6000803e3d6000fd5b505050506040513d601f19601f820116820180604052508101906117fe9190613cb6565b101561180957600080fd5b600560009054906101000a900473ffffffffffffffffffffffffffffffffffffffff1673ffffffffffffffffffffffffffffffffffffffff166323b872dd3033856040518463ffffffff1660e01b815260040161186893929190613d77565b6020604051808303816000875af1158015611887573d6000803e3d6000fd5b505050506040513d601f19601f820116820180604052508101906118ab9190613dc3565b50600660009054906101000a900473ffffffffffffffffffffffffffffffffffffffff1673ffffffffffffffffffffffffffffffffffffffff166323b872dd3033846040518463ffffffff1660e01b815260040161190b93929190613d77565b6020604051808303816000875af115801561192a573d6000803e3d6000fd5b505050506040513d601f19601f8201168201806040525081019061194e9190613dc3565b50611a2e3330600a888154811061196857611967613c57565b5b90600052602060002090600802016000015487600a8a8154811061198f5761198e613c57565b5b906000526020600020906008020160040180546119ab90613b9d565b80601f01602080910402602001604051908101604052809291908181526020018280546119d790613b9d565b8015611a245780601f106119f957610100808354040283529160200191611a24565b820191906000526020600020905b815481529060010190602001808311611a0757829003601f168201915b5050505050612195565b83600a8681548110611a4357611a42613c57565b5b90600052602060002090600802016007016000828254611a639190613d43565b9250508190555060019250505092915050565b600a8181548110611a8657600080fd5b90600052602060002090600802016000915090508060000154908060010160009054906101000a900473ffffffffffffffffffffffffffffffffffffffff16908060020154908060030160009054906101000a900473ffffffffffffffffffffffffffffffffffffffff1690806004018054611b0190613b9d565b80601f0160208091040260200160405190810160405280929190818152602001828054611b2d90613b9d565b8015611b7a5780601f10611b4f57610100808354040283529160200191611b7a565b820191906000526020600020905b815481529060010190602001808311611b5d57829003601f168201915b5050505050908060050154908060060154908060070154905088565b611ba8611ba16122d1565b8383612794565b5050565b600080620f424083611bbe9190613bfd565b9050600081600a8681548110611bd757611bd6613c57565b5b906000526020600020906008020160050154611bf39190613bfd565b9050600a8581548110611c0957611c08613c57565b5b906000526020600020906008020160010160009054906101000a900473ffffffffffffffffffffffffffffffffffffffff16600560006101000a81548173ffffffffffffffffffffffffffffffffffffffff021916908373ffffffffffffffffffffffffffffffffffffffff160217905550600a8581548110611c8f57611c8e613c57565b5b906000526020600020906008020160030160009054906101000a900473ffffffffffffffffffffffffffffffffffffffff16600660006101000a81548173ffffffffffffffffffffffffffffffffffffffff021916908373ffffffffffffffffffffffffffffffffffffffff16021790555081600560009054906101000a900473ffffffffffffffffffffffffffffffffffffffff1673ffffffffffffffffffffffffffffffffffffffff166370a08231336040518263ffffffff1660e01b8152600401611d5d9190613c86565b602060405180830381865afa158015611d7a573d6000803e3d6000fd5b505050506040513d601f19601f82011682018060405250810190611d9e9190613cb6565b1015611da957600080fd5b80600660009054906101000a900473ffffffffffffffffffffffffffffffffffffffff1673ffffffffffffffffffffffffffffffffffffffff166370a08231336040518263ffffffff1660e01b8152600401611e059190613c86565b602060405180830381865afa158015611e22573d6000803e3d6000fd5b505050506040513d601f19601f82011682018060405250810190611e469190613cb6565b1015611e5157600080fd5b600560009054906101000a900473ffffffffffffffffffffffffffffffffffffffff1673ffffffffffffffffffffffffffffffffffffffff166323b872dd3330856040518463ffffffff1660e01b8152600401611eb093929190613d77565b6020604051808303816000875af1158015611ecf573d6000803e3d6000fd5b505050506040513d601f19601f82011682018060405250810190611ef39190613dc3565b50600660009054906101000a900473ffffffffffffffffffffffffffffffffffffffff1673ffffffffffffffffffffffffffffffffffffffff166323b872dd3330846040518463ffffffff1660e01b8152600401611f5393929190613d77565b6020604051808303816000875af1158015611f72573d6000803e3d6000fd5b505050506040513d601f19601f82011682018060405250810190611f969190613dc3565b50600082611fcd6305f5e100600a8981548110611fb657611fb5613c57565b5b9060005260206000209060080201600201546122a0565b611fd79190613bfd565b90506120b83033600a8981548110611ff257611ff1613c57565b5b90600052602060002090600802016000015484600a8b8154811061201957612018613c57565b5b9060005260206000209060080201600401805461203590613b9d565b80601f016020809104026020016040519081016040528092919081815260200182805461206190613b9d565b80156120ae5780601f10612083576101008083540402835291602001916120ae565b820191906000526020600020905b81548152906001019060200180831161209157829003601f168201915b5050505050612195565b80600a87815481106120cd576120cc613c57565b5b906000526020600020906008020160070160008282546120ed9190613df0565b925050819055506001935050505092915050565b6000600160008473ffffffffffffffffffffffffffffffffffffffff1673ffffffffffffffffffffffffffffffffffffffff16815260200190815260200160002060008373ffffffffffffffffffffffffffffffffffffffff1673ffffffffffffffffffffffffffffffffffffffff16815260200190815260200160002060009054906101000a900460ff16905092915050565b61219d6122d1565b73ffffffffffffffffffffffffffffffffffffffff168573ffffffffffffffffffffffffffffffffffffffff1614806121e357506121e2856121dd6122d1565b612101565b5b612222576040517f08c379a0000000000000000000000000000000000000000000000000000000008152600401612219906142a2565b60405180910390fd5b61222f8585858585612900565b5050505050565b60007f01ffc9a7000000000000000000000000000000000000000000000000000000007bffffffffffffffffffffffffffffffffffffffffffffffffffffffff1916827bffffffffffffffffffffffffffffffffffffffffffffffffffffffff1916149050919050565b60008082846122af91906142c2565b90508281856122be9190613d43565b6122c89190613d12565b91505092915050565b600033905090565b815183511461231d576040517f08c379a000000000000000000000000000000000000000000000000000000000815260040161231490614365565b60405180910390fd5b600073ffffffffffffffffffffffffffffffffffffffff168473ffffffffffffffffffffffffffffffffffffffff160361238c576040517f08c379a0000000000000000000000000000000000000000000000000000000008152600401612383906143f7565b60405180910390fd5b60006123966122d1565b90506123a6818787878787612b81565b60005b84518110156125575760008582815181106123c7576123c6613c57565b5b6020026020010151905060008583815181106123e6576123e5613c57565b5b60200260200101519050600080600084815260200190815260200160002060008b73ffffffffffffffffffffffffffffffffffffffff1673ffffffffffffffffffffffffffffffffffffffff16815260200190815260200160002054905081811015612487576040517f08c379a000000000000000000000000000000000000000000000000000000000815260040161247e90614489565b60405180910390fd5b81810360008085815260200190815260200160002060008c73ffffffffffffffffffffffffffffffffffffffff1673ffffffffffffffffffffffffffffffffffffffff168152602001908152602001600020819055508160008085815260200190815260200160002060008b73ffffffffffffffffffffffffffffffffffffffff1673ffffffffffffffffffffffffffffffffffffffff168152602001908152602001600020600082825461253c9190613df0565b925050819055505050508061255090613f6a565b90506123a9565b508473ffffffffffffffffffffffffffffffffffffffff168673ffffffffffffffffffffffffffffffffffffffff168273ffffffffffffffffffffffffffffffffffffffff167f4a39dc06d4c0dbc64b70af90fd698a233a518aa5d07e595d983b8c0526c8f7fb87876040516125ce9291906144a9565b60405180910390a46125e4818787878787612b89565b505050505050565b80600290816125fb919061453b565b5050565b600073ffffffffffffffffffffffffffffffffffffffff168473ffffffffffffffffffffffffffffffffffffffff160361266e576040517f08c379a00000000000000000000000000000000000000000000000000000000081526004016126659061467f565b60405180910390fd5b60006126786122d1565b90506126998160008761268a88612d60565b61269388612d60565b87612b81565b8260008086815260200190815260200160002060008773ffffffffffffffffffffffffffffffffffffffff1673ffffffffffffffffffffffffffffffffffffffff16815260200190815260200160002060008282546126f89190613df0565b925050819055508473ffffffffffffffffffffffffffffffffffffffff16600073ffffffffffffffffffffffffffffffffffffffff168273ffffffffffffffffffffffffffffffffffffffff167fc3d58168c5ae7397731d063d5bbf3d657854427343f4c083240f7aacaa2d0f62878760405161277692919061469f565b60405180910390a461278d81600087878787612dda565b5050505050565b8173ffffffffffffffffffffffffffffffffffffffff168373ffffffffffffffffffffffffffffffffffffffff1603612802576040517f08c379a00000000000000000000000000000000000000000000000000000000081526004016127f99061473a565b60405180910390fd5b80600160008573ffffffffffffffffffffffffffffffffffffffff1673ffffffffffffffffffffffffffffffffffffffff16815260200190815260200160002060008473ffffffffffffffffffffffffffffffffffffffff1673ffffffffffffffffffffffffffffffffffffffff16815260200190815260200160002060006101000a81548160ff0219169083151502179055508173ffffffffffffffffffffffffffffffffffffffff168373ffffffffffffffffffffffffffffffffffffffff167f17307eab39ab6107e8899845ad3d59bd9653f200f220920489ca2b5937696c31836040516128f39190613176565b60405180910390a3505050565b600073ffffffffffffffffffffffffffffffffffffffff168473ffffffffffffffffffffffffffffffffffffffff160361296f576040517f08c379a0000000000000000000000000000000000000000000000000000000008152600401612966906143f7565b60405180910390fd5b60006129796122d1565b905061299981878761298a88612d60565b61299388612d60565b87612b81565b600080600086815260200190815260200160002060008873ffffffffffffffffffffffffffffffffffffffff1673ffffffffffffffffffffffffffffffffffffffff16815260200190815260200160002054905083811015612a30576040517f08c379a0000000000000000000000000000000000000000000000000000000008152600401612a2790614489565b60405180910390fd5b83810360008087815260200190815260200160002060008973ffffffffffffffffffffffffffffffffffffffff1673ffffffffffffffffffffffffffffffffffffffff168152602001908152602001600020819055508360008087815260200190815260200160002060008873ffffffffffffffffffffffffffffffffffffffff1673ffffffffffffffffffffffffffffffffffffffff1681526020019081526020016000206000828254612ae59190613df0565b925050819055508573ffffffffffffffffffffffffffffffffffffffff168773ffffffffffffffffffffffffffffffffffffffff168373ffffffffffffffffffffffffffffffffffffffff167fc3d58168c5ae7397731d063d5bbf3d657854427343f4c083240f7aacaa2d0f628888604051612b6292919061469f565b60405180910390a4612b78828888888888612dda565b50505050505050565b505050505050565b612ba88473ffffffffffffffffffffffffffffffffffffffff16612fb1565b15612d58578373ffffffffffffffffffffffffffffffffffffffff1663bc197c8187878686866040518663ffffffff1660e01b8152600401612bee95949392919061475a565b6020604051808303816000875af1925050508015612c2a57506040513d601f19601f82011682018060405250810190612c2791906147d7565b60015b612ccf57612c36614811565b806308c379a003612c925750612c4a614833565b80612c555750612c94565b806040517f08c379a0000000000000000000000000000000000000000000000000000000008152600401612c899190613257565b60405180910390fd5b505b6040517f08c379a0000000000000000000000000000000000000000000000000000000008152600401612cc690614935565b60405180910390fd5b63bc197c8160e01b7bffffffffffffffffffffffffffffffffffffffffffffffffffffffff1916817bffffffffffffffffffffffffffffffffffffffffffffffffffffffff191614612d56576040517f08c379a0000000000000000000000000000000000000000000000000000000008152600401612d4d906149c7565b60405180910390fd5b505b505050505050565b60606000600167ffffffffffffffff811115612d7f57612d7e6132be565b5b604051908082528060200260200182016040528015612dad5781602001602082028036833780820191505090505b5090508281600081518110612dc557612dc4613c57565b5b60200260200101818152505080915050919050565b612df98473ffffffffffffffffffffffffffffffffffffffff16612fb1565b15612fa9578373ffffffffffffffffffffffffffffffffffffffff1663f23a6e6187878686866040518663ffffffff1660e01b8152600401612e3f9594939291906149e7565b6020604051808303816000875af1925050508015612e7b57506040513d601f19601f82011682018060405250810190612e7891906147d7565b60015b612f2057612e87614811565b806308c379a003612ee35750612e9b614833565b80612ea65750612ee5565b806040517f08c379a0000000000000000000000000000000000000000000000000000000008152600401612eda9190613257565b60405180910390fd5b505b6040517f08c379a0000000000000000000000000000000000000000000000000000000008152600401612f1790614935565b60405180910390fd5b63f23a6e6160e01b7bffffffffffffffffffffffffffffffffffffffffffffffffffffffff1916817bffffffffffffffffffffffffffffffffffffffffffffffffffffffff191614612fa7576040517f08c379a0000000000000000000000000000000000000000000000000000000008152600401612f9e906149c7565b60405180910390fd5b505b505050505050565b600080823b905060008111915050919050565b6000604051905090565b600080fd5b600080fd5b600073ffffffffffffffffffffffffffffffffffffffff82169050919050565b600061300382612fd8565b9050919050565b61301381612ff8565b811461301e57600080fd5b50565b6000813590506130308161300a565b92915050565b6000819050919050565b61304981613036565b811461305457600080fd5b50565b60008135905061306681613040565b92915050565b6000806040838503121561308357613082612fce565b5b600061309185828601613021565b92505060206130a285828601613057565b9150509250929050565b6130b581613036565b82525050565b60006020820190506130d060008301846130ac565b92915050565b60007fffffffff0000000000000000000000000000000000000000000000000000000082169050919050565b61310b816130d6565b811461311657600080fd5b50565b60008135905061312881613102565b92915050565b60006020828403121561314457613143612fce565b5b600061315284828501613119565b91505092915050565b60008115159050919050565b6131708161315b565b82525050565b600060208201905061318b6000830184613167565b92915050565b6000602082840312156131a7576131a6612fce565b5b60006131b584828501613057565b91505092915050565b600081519050919050565b600082825260208201905092915050565b60005b838110156131f85780820151818401526020810190506131dd565b83811115613207576000848401525b50505050565b6000601f19601f8301169050919050565b6000613229826131be565b61323381856131c9565b93506132438185602086016131da565b61324c8161320d565b840191505092915050565b60006020820190508181036000830152613271818461321e565b905092915050565b600080604083850312156132905761328f612fce565b5b600061329e85828601613057565b92505060206132af85828601613057565b9150509250929050565b600080fd5b7f4e487b7100000000000000000000000000000000000000000000000000000000600052604160045260246000fd5b6132f68261320d565b810181811067ffffffffffffffff82111715613315576133146132be565b5b80604052505050565b6000613328612fc4565b905061333482826132ed565b919050565b600067ffffffffffffffff821115613354576133536132be565b5b602082029050602081019050919050565b600080fd5b600061337d61337884613339565b61331e565b905080838252602082019050602084028301858111156133a05761339f613365565b5b835b818110156133c957806133b58882613057565b8452602084019350506020810190506133a2565b5050509392505050565b600082601f8301126133e8576133e76132b9565b5b81356133f884826020860161336a565b91505092915050565b600080fd5b600067ffffffffffffffff821115613421576134206132be565b5b61342a8261320d565b9050602081019050919050565b82818337600083830152505050565b600061345961345484613406565b61331e565b90508281526020810184848401111561347557613474613401565b5b613480848285613437565b509392505050565b600082601f83011261349d5761349c6132b9565b5b81356134ad848260208601613446565b91505092915050565b600080600080600060a086880312156134d2576134d1612fce565b5b60006134e088828901613021565b95505060206134f188828901613021565b945050604086013567ffffffffffffffff81111561351257613511612fd3565b5b61351e888289016133d3565b935050606086013567ffffffffffffffff81111561353f5761353e612fd3565b5b61354b888289016133d3565b925050608086013567ffffffffffffffff81111561356c5761356b612fd3565b5b61357888828901613488565b9150509295509295909350565b600067ffffffffffffffff8211156135a05761359f6132be565b5b602082029050602081019050919050565b60006135c46135bf84613585565b61331e565b905080838252602082019050602084028301858111156135e7576135e6613365565b5b835b8181101561361057806135fc8882613021565b8452602084019350506020810190506135e9565b5050509392505050565b600082601f83011261362f5761362e6132b9565b5b813561363f8482602086016135b1565b91505092915050565b6000806040838503121561365f5761365e612fce565b5b600083013567ffffffffffffffff81111561367d5761367c612fd3565b5b6136898582860161361a565b925050602083013567ffffffffffffffff8111156136aa576136a9612fd3565b5b6136b6858286016133d3565b9150509250929050565b600081519050919050565b600082825260208201905092915050565b6000819050602082019050919050565b6136f581613036565b82525050565b600061370783836136ec565b60208301905092915050565b6000602082019050919050565b600061372b826136c0565b61373581856136cb565b9350613740836136dc565b8060005b8381101561377157815161375888826136fb565b975061376383613713565b925050600181019050613744565b5085935050505092915050565b600060208201905081810360008301526137988184613720565b905092915050565b600067ffffffffffffffff8211156137bb576137ba6132be565b5b6137c48261320d565b9050602081019050919050565b60006137e46137df846137a0565b61331e565b905082815260208101848484011115613800576137ff613401565b5b61380b848285613437565b509392505050565b600082601f830112613828576138276132b9565b5b81356138388482602086016137d1565b91505092915050565b60008060006060848603121561385a57613859612fce565b5b600084013567ffffffffffffffff81111561387857613877612fd3565b5b61388486828701613813565b935050602061389586828701613021565b92505060406138a686828701613021565b9150509250925092565b6138b981612ff8565b82525050565b600081519050919050565b600082825260208201905092915050565b60006138e6826138bf565b6138f081856138ca565b93506139008185602086016131da565b6139098161320d565b840191505092915050565b60006101008201905061392a600083018b6130ac565b613937602083018a6138b0565b61394460408301896130ac565b61395160608301886138b0565b818103608083015261396381876138db565b905061397260a08301866130ac565b61397f60c08301856130ac565b61398c60e08301846130ac565b9998505050505050505050565b6139a28161315b565b81146139ad57600080fd5b50565b6000813590506139bf81613999565b92915050565b600080604083850312156139dc576139db612fce565b5b60006139ea85828601613021565b92505060206139fb858286016139b0565b9150509250929050565b60008060408385031215613a1c57613a1b612fce565b5b6000613a2a85828601613021565b9250506020613a3b85828601613021565b9150509250929050565b600080600080600060a08688031215613a6157613a60612fce565b5b6000613a6f88828901613021565b9550506020613a8088828901613021565b9450506040613a9188828901613057565b9350506060613aa288828901613057565b925050608086013567ffffffffffffffff811115613ac357613ac2612fd3565b5b613acf88828901613488565b9150509295509295909350565b7f455243313135353a2062616c616e636520717565727920666f7220746865207a60008201527f65726f2061646472657373000000000000000000000000000000000000000000602082015250565b6000613b38602b836131c9565b9150613b4382613adc565b604082019050919050565b60006020820190508181036000830152613b6781613b2b565b9050919050565b7f4e487b7100000000000000000000000000000000000000000000000000000000600052602260045260246000fd5b60006002820490506001821680613bb557607f821691505b602082108103613bc857613bc7613b6e565b5b50919050565b7f4e487b7100000000000000000000000000000000000000000000000000000000600052601160045260246000fd5b6000613c0882613036565b9150613c1383613036565b9250817fffffffffffffffffffffffffffffffffffffffffffffffffffffffffffffffff0483118215151615613c4c57613c4b613bce565b5b828202905092915050565b7f4e487b7100000000000000000000000000000000000000000000000000000000600052603260045260246000fd5b6000602082019050613c9b60008301846138b0565b92915050565b600081519050613cb081613040565b92915050565b600060208284031215613ccc57613ccb612fce565b5b6000613cda84828501613ca1565b91505092915050565b7f4e487b7100000000000000000000000000000000000000000000000000000000600052601260045260246000fd5b6000613d1d82613036565b9150613d2883613036565b925082613d3857613d37613ce3565b5b828204905092915050565b6000613d4e82613036565b9150613d5983613036565b925082821015613d6c57613d6b613bce565b5b828203905092915050565b6000606082019050613d8c60008301866138b0565b613d9960208301856138b0565b613da660408301846130ac565b949350505050565b600081519050613dbd81613999565b92915050565b600060208284031215613dd957613dd8612fce565b5b6000613de784828501613dae565b91505092915050565b6000613dfb82613036565b9150613e0683613036565b9250827fffffffffffffffffffffffffffffffffffffffffffffffffffffffffffffffff03821115613e3b57613e3a613bce565b5b828201905092915050565b7f455243313135353a207472616e736665722063616c6c6572206973206e6f742060008201527f6f776e6572206e6f7220617070726f7665640000000000000000000000000000602082015250565b6000613ea26032836131c9565b9150613ead82613e46565b604082019050919050565b60006020820190508181036000830152613ed181613e95565b9050919050565b7f455243313135353a206163636f756e747320616e6420696473206c656e67746860008201527f206d69736d617463680000000000000000000000000000000000000000000000602082015250565b6000613f346029836131c9565b9150613f3f82613ed8565b604082019050919050565b60006020820190508181036000830152613f6381613f27565b9050919050565b6000613f7582613036565b91507fffffffffffffffffffffffffffffffffffffffffffffffffffffffffffffffff8203613fa757613fa6613bce565b5b600182019050919050565b60008190508160005260206000209050919050565b60006020601f8301049050919050565b600082821b905092915050565b6000600883026140147fffffffffffffffffffffffffffffffffffffffffffffffffffffffffffffffff82613fd7565b61401e8683613fd7565b95508019841693508086168417925050509392505050565b6000819050919050565b600061405b61405661405184613036565b614036565b613036565b9050919050565b6000819050919050565b61407583614040565b61408961408182614062565b848454613fe4565b825550505050565b600090565b61409e614091565b6140a981848461406c565b505050565b5b818110156140cd576140c2600082614096565b6001810190506140af565b5050565b601f821115614112576140e381613fb2565b6140ec84613fc7565b810160208510156140fb578190505b61410f61410785613fc7565b8301826140ae565b50505b505050565b600082821c905092915050565b600061413560001984600802614117565b1980831691505092915050565b600061414e8383614124565b9150826002028217905092915050565b614167826138bf565b67ffffffffffffffff8111156141805761417f6132be565b5b61418a8254613b9d565b6141958282856140d1565b600060209050601f8311600181146141c857600084156141b6578287015190505b6141c08582614142565b865550614228565b601f1984166141d686613fb2565b60005b828110156141fe578489015182556001820191506020850194506020810190506141d9565b8683101561421b5784890151614217601f891682614124565b8355505b6001600288020188555050505b505050505050565b7f455243313135353a2063616c6c6572206973206e6f74206f776e6572206e6f7260008201527f20617070726f7665640000000000000000000000000000000000000000000000602082015250565b600061428c6029836131c9565b915061429782614230565b604082019050919050565b600060208201905081810360008301526142bb8161427f565b9050919050565b60006142cd82613036565b91506142d883613036565b9250826142e8576142e7613ce3565b5b828206905092915050565b7f455243313135353a2069647320616e6420616d6f756e7473206c656e6774682060008201527f6d69736d61746368000000000000000000000000000000000000000000000000602082015250565b600061434f6028836131c9565b915061435a826142f3565b604082019050919050565b6000602082019050818103600083015261437e81614342565b9050919050565b7f455243313135353a207472616e7366657220746f20746865207a65726f20616460008201527f6472657373000000000000000000000000000000000000000000000000000000602082015250565b60006143e16025836131c9565b91506143ec82614385565b604082019050919050565b60006020820190508181036000830152614410816143d4565b9050919050565b7f455243313135353a20696e73756666696369656e742062616c616e636520666f60008201527f72207472616e7366657200000000000000000000000000000000000000000000602082015250565b6000614473602a836131c9565b915061447e82614417565b604082019050919050565b600060208201905081810360008301526144a281614466565b9050919050565b600060408201905081810360008301526144c38185613720565b905081810360208301526144d78184613720565b90509392505050565b60008190508160005260206000209050919050565b601f82111561453657614507816144e0565b61451084613fc7565b8101602085101561451f578190505b61453361452b85613fc7565b8301826140ae565b50505b505050565b614544826131be565b67ffffffffffffffff81111561455d5761455c6132be565b5b6145678254613b9d565b6145728282856144f5565b600060209050601f8311600181146145a55760008415614593578287015190505b61459d8582614142565b865550614605565b601f1984166145b3866144e0565b60005b828110156145db578489015182556001820191506020850194506020810190506145b6565b868310156145f857848901516145f4601f891682614124565b8355505b6001600288020188555050505b505050505050565b7f455243313135353a206d696e7420746f20746865207a65726f2061646472657360008201527f7300000000000000000000000000000000000000000000000000000000000000602082015250565b60006146696021836131c9565b91506146748261460d565b604082019050919050565b600060208201905081810360008301526146988161465c565b9050919050565b60006040820190506146b460008301856130ac565b6146c160208301846130ac565b9392505050565b7f455243313135353a2073657474696e6720617070726f76616c2073746174757360008201527f20666f722073656c660000000000000000000000000000000000000000000000602082015250565b60006147246029836131c9565b915061472f826146c8565b604082019050919050565b6000602082019050818103600083015261475381614717565b9050919050565b600060a08201905061476f60008301886138b0565b61477c60208301876138b0565b818103604083015261478e8186613720565b905081810360608301526147a28185613720565b905081810360808301526147b681846138db565b90509695505050505050565b6000815190506147d181613102565b92915050565b6000602082840312156147ed576147ec612fce565b5b60006147fb848285016147c2565b91505092915050565b60008160e01c9050919050565b600060033d11156148305760046000803e61482d600051614804565b90505b90565b600060443d106148c057614845612fc4565b60043d036004823e80513d602482011167ffffffffffffffff8211171561486d5750506148c0565b808201805167ffffffffffffffff81111561488b57505050506148c0565b80602083010160043d0385018111156148a85750505050506148c0565b6148b7826020018501866132ed565b82955050505050505b90565b7f455243313135353a207472616e7366657220746f206e6f6e204552433131353560008201527f526563656976657220696d706c656d656e746572000000000000000000000000602082015250565b600061491f6034836131c9565b915061492a826148c3565b604082019050919050565b6000602082019050818103600083015261494e81614912565b9050919050565b7f455243313135353a204552433131353552656365697665722072656a6563746560008201527f6420746f6b656e73000000000000000000000000000000000000000000000000602082015250565b60006149b16028836131c9565b91506149bc82614955565b604082019050919050565b600060208201905081810360008301526149e0816149a4565b9050919050565b600060a0820190506149fc60008301886138b0565b614a0960208301876138b0565b614a1660408301866130ac565b614a2360608301856130ac565b8181036080830152614a3581846138db565b9050969550505050505056fea264697066735822122067e051a04f8997e39f0f078ff7ae7936b0742e9520ee3f04139c0350d5aaae4564736f6c634300080f0033",
  "immutableReferences": {},
  "source": "// SPDX-License-Identifier: GPL-3.0\n// // // // // // // // // // // // // // // // // // // // // // // // // // // // // // // // // // // // // // // // // // // // // // // // // // // // // // // // // // // // //\n//\n//              .d8888.  .d88b.  db    db d888888b d88888b d888888b db    db\n//              88'  YP .8P  88. `8b  d8'   `88'   88'     `~~88~~' `8b  d8'\n//              `8bo.   88  d'88  `8bd8'     88    88ooooo    88     `8bd8'\n//                `Y8b. 88 d' 88  .dPYb.     88    88~~~~~    88       88\n//              db   8D `88  d8' .8P  Y8.   .88.   88.        88       88\n//              `8888Y'  `Y88P'  YP    YP Y888888P Y88888P    YP       YP\n//\n// // // // // // // // // // // // // // // // // // // // // // // // // // // // // // // // // // // // // // // // // // // // // // // // // // // // // // // // // // // // //\n//                                                                                                                                                                                  //\n//      @dev            ::              stereoIII6.dao                                                                                                                                          //\n//      @msg            ::              type.stereo@pm.me                                                                                                                                    //\n//      @github         ::              @stereoIII6\n//      @twitter        ::              @stereoIII6                                                                                                                                              //\n//                                                                                                                                                                                  //\n// // // // // // // // // // // // // // // // // // // // // // // // // // // // // // // // // // // // // // // // // // // // // // // // // // // // // // // // // // // // //\n//                                                                                                                                                                                  //\n//      @dev            ::              Juan Xavier Valverde                                                                                                                                    //\n//      @msg            ::              juanxaviervm@hotmail.com                                                                                                                               //\n//      @twitter        ::              @JuanXavier                                                                                                                                             //\n//      @github         ::              @JuanXavier                                                                                                                                             //\n//                                                                                                                                                                                  //                                                                                                                                                                                 //\n// // // // // // // // // // // // // // // // // // // // // // // // // // // // // // // // // // // // // // // // // // // // // // // // // // // // // // // // // // // // //\n//  *   *   *   *   *   *   *   *   *   *   *   *   *   *   *   *   *   *   *   *   *   *   *   *   *   *   *   *   *   *   *   *   *   *   *   *   *   *   *   *   *   *   *   *   //\n// // // // // // // // // // // // // // // // // // // // // // // // // // // // // // // // // // // // // // // // // // // // // // // // // // // // // // // // // // // // //\n//                                                                                                                                                                                  //\n//                                                                                                                                                                                  //\n//      @title          ::              s0xiety Connect                                                                                                                             //\n//      @description    ::              decentral s0xiety                                                                                                                           //\n//      @version        ::              0.0.1                                                                                                                                       //\n//      @purpose        ::              Refer friennds on the blockchain                                                                                                            //\n//                                                                                                                                                                                  //\n//                                                                                                                                                                                  //\n//                                                                                                                                                                                  //\n//                                                                                                                                                                                  //\n//                                                                                                                                                                                  //\n// // // // // // // // // // // // // // // // // // // // // // // // // // // // // // // // // // // // // // // // // // // // // // // // // // // // // // // // // // // // //\n//  *   *   *   *   *   *   *   *   *   *   *   *   *   *   *   *   *   *   *   *   *   *   *   *   *   *   *   *   *   *   *   *   *   *   *   *   *   *   *   *   *   *   *   *   //\n// // // // // // // // // // // // // // // // // // // // // // // // // // // // // // // // // // // // // // // // // // // // // // // // // // // // // // // // // // // // //\n/*\n\n MOCK USER TAG ::: \"{'name':'s0x user','email':'type.stereo@pm.me','image':'https://ipfs.io/ipfs/QmXNciGvGJGRV2HHE82oLoicvwatB8sqsydxn7P3NSP1nW'}\"\n\n*/\n\n/* \n\nINSTRUCTIONS \n\n*/\npragma solidity ^0.8.7;\n\n// Open Zeppelin Imports\nimport \"@openzeppelin/contracts/utils/Counters.sol\";\nimport \"@openzeppelin/contracts/utils/Strings.sol\";\n\nimport \"@openzeppelin/contracts/token/ERC20/ERC20.sol\";\nimport \"@openzeppelin/contracts/token/ERC20/IERC20.sol\";\n\n// import \"@openzeppelin/contracts/token/ERC721/extensions/ERC721URIStorage.sol\";\nimport \"@openzeppelin/contracts/token/ERC721/ERC721.sol\";\nimport \"@openzeppelin/contracts/token/ERC721/IERC721.sol\";\n\nimport \"@openzeppelin/contracts/token/ERC1155/ERC1155.sol\";\n\n// mathematical function for conglomerate\ncontract MathFnx {\n    // division function for solidity\n    function divide(uint256 _a, uint256 _b) internal pure returns (uint256) {\n        uint256 rem = _a % _b;\n        return ((_a - rem) / _b);\n    }\n\n    // generates unique id nr\n    function uniqID(string memory _inf) internal pure returns (uint256) {\n        bytes32 BHash = keccak256(abi.encode(_inf));\n        return uint256(BHash);\n    }\n\n    // gives back the smaller wallet address\n    function smaller(address _a, address _b)\n        internal\n        pure\n        returns (address s, address l)\n    {\n        if (_a < _b) {\n            s = _a;\n            l = _b;\n        } else if (_a > _b) {\n            s = _b;\n            l = _a;\n        }\n    }\n}\n\n// user data storage for conglomerate\ncontract Users {\n    address private s0x; // s0x admin\n\n    constructor() {\n        s0x = msg.sender; // admin initialization\n        makeUser(\n            s0x,\n            '{\"name\":\"s0x admin\",\"email\":\"type.stereo@pm.me\",\"image\":\"https://ipfs.io/ipfs/QmXNciGvGJGRV2HHE82oLoicvwatB8sqsydxn7P3NSP1nW\"}',\n            99\n        ); // admin user account setup\n    }\n\n    struct Impact {\n        uint256 action;\n        uint256 connection;\n        uint256 liquidity;\n    }\n    // user profile array // user# => dias%\n    mapping(address => bytes) public users;\n    mapping(address => bool) private isUser;\n    // role // user# => role$\n    mapping(address => uint256) private roles;\n    // only admin allowed function modifier\n    mapping(address => Impact) public impx;\n    modifier isAdmin() {\n        require(msg.sender == s0x);\n        _;\n    }\n\n    // takes address , dias , and role to create and store a user profile in user mapping\n    function makeUser(\n        address _adr,\n        bytes memory _dias,\n        uint256 _r\n    ) internal returns (bool) {\n        users[_adr] = _dias;\n        roles[_adr] = _r;\n        impx[_adr] = Impact(0, 0, 0);\n        return true;\n    }\n\n    // takes dias to create guest user profile\n    function createUserAccount(string memory _dias, address _user)\n        external\n        returns (bool)\n    {\n        return makeUser(_user, bytes(_dias), 2);\n    }\n\n    // takes address , dias , and role to admin edit and store a user profile in user mapping\n    function adminEditUser(\n        address _adr,\n        string memory _dias,\n        uint256 _r\n    ) external isAdmin returns (bool) {\n        return makeUser(_adr, bytes(_dias), _r);\n    }\n\n    // takes address , dias , and role to edit and store your user profile in user mapping\n    function editUser(string memory _dias) external returns (bool) {\n        return makeUser(msg.sender, bytes(_dias), 2);\n    }\n\n    // shows user dias by address input\n    function showUser(address _adr) external view returns (string memory) {\n        return string(users[_adr]);\n    }\n\n    function showImpx(address _adr)\n        external\n        view\n        returns (\n            uint256,\n            uint256,\n            uint256\n        )\n    {\n        return (impx[_adr].action, impx[_adr].connection, impx[_adr].liquidity);\n    }\n\n    // shows role by address input\n    function getRole(address _adr) external view returns (uint256) {\n        return roles[_adr];\n    }\n\n    function isU(address _adr) external view returns (bool) {\n        return isUser[_adr];\n    }\n}\n\ncontract Friends is MathFnx {\n    Users private user;\n    // frenz // you# => frenz# => isfriend?\n    mapping(address => mapping(address => bool)) public frenz; // people following you\n    // degenz // you# => degenz# => isfriend?\n    mapping(address => mapping(address => bool)) public degenz; // people you follow\n    // connection bool // smaller# => bigger# => friends$ // friends : $0=unrelated, $1=hype, $2=nest\n    uint256 c;\n    mapping(address => mapping(address => uint256)) public connection;\n    mapping(address => uint256) public frenzCount;\n    mapping(address => uint256) public degenzCount;\n    mapping(address => mapping(uint256 => address)) public frenzByCount;\n    // user degenerated you\n    modifier degenerated(address _adr) {\n        require(degenz[msg.sender][_adr] == true || msg.sender == _adr); // do you follow or is it yourself\n        _;\n    }\n    // user frenzonned you\n    modifier frenzoned(address _adr) {\n        require(frenz[_adr][msg.sender] || msg.sender == _adr); // is he following or is it yourself\n        _;\n    }\n\n    constructor(address _usrAdr) {\n        user = Users(_usrAdr);\n        c = 1;\n    }\n\n    function showMe() external view returns (string memory) {\n        return user.showUser(msg.sender);\n    }\n\n    function showYou(address _adr) external view returns (string memory) {\n        return user.showUser(_adr);\n    }\n\n    function getRole(address _adr) external view returns (uint256) {\n        return user.getRole(_adr);\n    }\n\n    function follow(address _adr, address _sender) external returns (uint256) {\n        degenz[_adr][_sender] = true;\n        degenzCount[_adr]++;\n        frenz[_sender][_adr] = true;\n        frenzByCount[_sender][frenzCount[_sender]] = _adr;\n        frenzCount[_sender]++;\n        (address s, address l) = smaller(_adr, _sender);\n        if (connection[s][l] == 0) {\n            connection[s][l] = c;\n            c++;\n            return (connection[s][l]);\n        } else return (connection[s][l]);\n    }\n\n    function doShowStatus(address _adr, address _sender)\n        external\n        view\n        returns (\n            uint256,\n            bool,\n            bool,\n            address,\n            address\n        )\n    {\n        (address s, address l) = smaller(_adr, _sender);\n        return (\n            connection[s][l],\n            frenz[_sender][_adr],\n            degenz[_sender][_adr],\n            s,\n            l\n        );\n    }\n\n    function doFrenzCount(address _adr) external view returns (uint256) {\n        return frenzCount[_adr];\n    }\n\n    function doDegenzCount(address _adr) external view returns (uint256) {\n        return degenzCount[_adr];\n    }\n\n    function doShowFrenz(address _adr, uint256 _c)\n        external\n        view\n        returns (address)\n    {\n        return frenzByCount[_adr][_c];\n    }\n\n    function isFrenz(address _a, address _b) external view returns (bool) {\n        return frenz[_a][_b];\n    }\n}\n\n// groups contract stores groupmembers , posts and comments inside the group on chain\ncontract Groups is MathFnx {\n    Users private user; // user contract reference\n    Friends private friend; // friend contract reference\n    address public owner; // owner address\n    string public name; // group name\n    uint256 private m; // member count\n    uint256 private state; // 0-private (no invite), 1-bothchecked, 2-ulike, 3-likeu, 4-bothcheckedofulike, 5-public, 9-secret, 99-admin\n    mapping(uint256 => address) public members; // address by id\n    mapping(address => uint256) public mNum; // id by address\n    uint256 private c; // content count\n    mapping(address => uint256) public myContent; // content count by address\n    mapping(address => mapping(uint256 => bytes)) public content; // content by address => myContent counter\n    mapping(uint256 => bytes) public cntnt; // contentt by cid\n    mapping(uint256 => uint256) public r; // replys by cntnt id c\n    mapping(uint256 => mapping(uint256 => bytes)) public replys; // replys by cid => rply id => reply content\n    mapping(address => uint256) public myRplyCount; // reply count  by useraddress\n    mapping(address => mapping(uint256 => bytes)) public myReplys; // reply content by address and myrplycount\n    mapping(address => bool) public invite;\n\n    constructor(\n        address _user,\n        address _friend,\n        bytes memory _name,\n        uint256 _state,\n        address _o\n    ) {\n        state = _state;\n        user = Users(_user);\n        friend = Friends(_friend);\n        owner = _o;\n        name = string(_name);\n    }\n\n    function addUser(address _adr) external returns (address) {\n        if (state == 0)\n            require(m < 2); // private state one allows 2 users only\n            // require(user.isU(msg.sender) == true);\n            // require(user.isU(_adr) == true);\n        else if (state == 1) {\n            require(friend.isFrenz(owner, _adr));\n            require(friend.isFrenz(_adr, owner));\n        } // only degenz&frenz allowed\n        /*\n        else if(state == 2) {\n          require(friend.isFrenz(owner, _adr));  \n        } // only frenz people you like\n        else if(state == 3) {\n          require(friend.isFrenz(_adr, owner));  \n        } // only degenz people who like you\n        else if(state == 4) {\n            require(friend.isFrenz(msg.sender, _adr));\n            require(friend.isFrenz(_adr, msg.sender));\n        } // only degenz&frenz allowed\n\n        else if(state == 9) require(invite[_adr] == true);\n        else if(state == 99) require(friend.getRole(msg.sender) == 99);\n        */\n        members[m] = _adr;\n        mNum[_adr] = m;\n        m++;\n        return _adr;\n    }\n\n    function removeUser(address _adr) external returns (address) {\n        require(state != 0);\n        members[mNum[_adr]] = 0x0000000000000000000000000000000000000000;\n        mNum[_adr] = 0;\n        return _adr;\n    }\n\n    function addContent(string memory _cnt) external returns (string memory) {\n        content[msg.sender][myContent[msg.sender]] = bytes(_cnt);\n        myContent[msg.sender]++;\n        cntnt[c] = bytes(_cnt);\n        c++;\n        return _cnt;\n    }\n\n    function addReplyToContent(string memory _rply, uint256 _c)\n        external\n        returns (uint256)\n    {\n        replys[_c][r[_c]] = bytes(_rply);\n        myReplys[msg.sender][myRplyCount[msg.sender]] = bytes(_rply);\n        myRplyCount[msg.sender]++;\n        return r[_c]++;\n    }\n}\n\n// allows users to create groups\ncontract s0xFactory is Users, MathFnx {\n    Friends public friends;\n    Groups public groups;\n    MLQ public mlq;\n    address private fAdr;\n    mapping(address => uint256) public groupCount;\n    mapping(address => mapping(uint256 => address)) public groupByCount;\n\n    constructor(address _mlq) Users() MathFnx() {\n        mlq = MLQ(_mlq);\n        friends = new Friends(address(this));\n        fAdr = address(friends);\n    }\n\n    function createGroup(string memory _name, uint256 _state)\n        external\n        returns (address)\n    {\n        groups = new Groups(\n            address(this),\n            fAdr,\n            bytes(_name),\n            _state,\n            msg.sender\n        );\n        groupByCount[msg.sender][groupCount[msg.sender]] = address(groups);\n        groupCount[msg.sender]++;\n        return address(groups);\n    }\n\n    function createConvo(\n        address _to,\n        address _from,\n        string memory _msg\n    ) external returns (address) {\n        (address s, address l) = smaller(_to, _from);\n        return makeConvo(s, l, _msg, _from);\n    }\n\n    function makeConvo(\n        address _s,\n        address _l,\n        string memory _name,\n        address _from\n    ) internal returns (address) {\n        groups = new Groups(address(this), fAdr, bytes(_name), 0, _from);\n        groupByCount[_s][groupCount[_s]] = address(groups);\n        groupByCount[_l][groupCount[_l]] = address(groups);\n        groupCount[_s]++;\n        groupCount[_l]++;\n        groups.addUser(_s);\n        groups.addUser(_l);\n        return address(groups);\n    }\n\n    function followAdr(address _adr) external returns (uint256) {\n        return friends.follow(_adr, msg.sender);\n    }\n\n    function showFrenz(address _adr, uint256 _c)\n        external\n        view\n        returns (address)\n    {\n        return friends.doShowFrenz(_adr, _c);\n    }\n\n    function countFrenz(address _adr) external view returns (uint256) {\n        return friends.doFrenzCount(_adr);\n    }\n\n    function countDegenz(address _adr) external view returns (uint256) {\n        return friends.doDegenzCount(_adr);\n    }\n\n    function showStatus(address _adr)\n        external\n        view\n        returns (\n            uint256,\n            bool,\n            bool,\n            address,\n            address\n        )\n    {\n        return friends.doShowStatus(_adr, msg.sender);\n    }\n}\n\n// mlq library\nlibrary mlqLib {\n    uint256 public constant mlqRate = 100;\n    uint256 public constant mlqDig = 10**18;\n    uint256 public constant maxSupply = 3 * 10**9 * mlqDig;\n    uint256 public constant pubSupply = 1 * 10**9 * mlqDig;\n    uint256 public constant poolReserve = 1 * 10**9 * mlqDig;\n    uint256 public constant circReserve = 1 * 10**9 * mlqDig;\n}\n\n// mlq token contract\ncontract MLQ is ERC20, MathFnx {\n    using mlqLib for *;\n    address private admin;\n    uint256 public rate;\n    uint256 public pubSupply;\n    mapping(address => uint256) public mlqBalance;\n\n    constructor() ERC20(\"Milquidity Token\", \"MLQ\") {\n        admin = msg.sender;\n        setRate(mlqLib.mlqRate);\n        setSupply(mlqLib.pubSupply);\n    }\n\n    function setRate(uint256 _newRate) internal returns (uint256) {\n        rate = _newRate;\n        return rate;\n    }\n\n    function setSupply(uint256 _newSupply) internal returns (uint256) {\n        pubSupply = _newSupply;\n        return pubSupply;\n    }\n\n    function buyMlq(uint256 _amnt) external payable returns (uint256) {\n        uint256 amnt = mlqLib.mlqDig * _amnt;\n        require(pubSupply >= amnt);\n        require(divide(msg.value, 100) >= amnt);\n        _mint(msg.sender, amnt);\n        mlqBalance[msg.sender] = amnt;\n        pubSupply -= amnt;\n        return amnt;\n    }\n\n    function mlqBal(address _adr) external view returns (uint256) {\n        return mlqBalance[_adr];\n    }\n\n    function withdraw(uint256 _amnt) external returns (uint256) {\n        uint256 amnt = mlqLib.mlqDig * _amnt;\n        require(admin == msg.sender);\n        require(mlqBalance[address(this)] >= amnt);\n        transferFrom(address(this), admin, amnt);\n        return amnt;\n    }\n\n    function flush() external returns (uint256) {\n        require(admin == msg.sender);\n        transferFrom(address(this), admin, mlqBalance[address(this)]);\n        payable(admin).transfer(address(this).balance);\n        return address(this).balance;\n    }\n}\n\ncontract USDC is ERC20 {\n    constructor() ERC20(\"US Dollar Coin\", \"USDC\") {}\n\n    function dropUSDC() external {\n        _mint(msg.sender, 100 * 10**18);\n    }\n}\n\n// any coin tokeen contract\ncontract COIN is ERC20, MathFnx {\n    using mlqLib for *;\n    address private admin;\n    uint256 public rate;\n    uint256 public pubSupply;\n    uint256 public maxSupply;\n    string public title;\n    mapping(address => uint256) public coinBalance;\n\n    constructor(\n        string memory _name,\n        string memory _sym,\n        uint256 _rate,\n        uint256 _supply,\n        address _admin\n    ) ERC20(_name, _sym) {\n        admin = _admin;\n        setRate(_rate);\n        maxSupply = _supply;\n        title = _name;\n    }\n\n    function setRate(uint256 _newRate) internal returns (uint256) {\n        rate = _newRate;\n        return rate;\n    }\n\n    function getRate() external view returns (uint256) {\n        return rate;\n    }\n\n    function getMax() external view returns (uint256) {\n        return maxSupply;\n    }\n\n    function getName() external view returns (string memory) {\n        return title;\n    }\n\n    function getMinted() external view returns (uint256) {\n        return pubSupply;\n    }\n\n    function buyMlq(uint256 _amnt) external payable returns (uint256) {\n        uint256 amnt = mlqLib.mlqDig * _amnt;\n        require(pubSupply >= amnt);\n        require(divide(msg.value, 100) >= amnt);\n        _mint(msg.sender, amnt);\n        coinBalance[msg.sender] = amnt;\n        pubSupply += amnt;\n        return amnt;\n    }\n\n    function coinBal(address _adr) external view returns (uint256) {\n        return coinBalance[_adr];\n    }\n\n    function withdraw(uint256 _amnt) external returns (uint256) {\n        uint256 amnt = mlqLib.mlqDig * _amnt;\n        require(admin == msg.sender);\n        require(coinBalance[address(this)] >= amnt);\n        transferFrom(address(this), admin, amnt);\n        return amnt;\n    }\n\n    function flush() external returns (uint256) {\n        require(admin == msg.sender);\n        transferFrom(address(this), admin, coinBalance[address(this)]);\n        payable(admin).transfer(address(this).balance);\n        return address(this).balance;\n    }\n}\n\ncontract s0xPool is MathFnx {\n    COIN public coin;\n    COIN public main;\n    COIN public sec;\n    COIN public pool;\n    uint256 p;\n    struct Pool {\n        uint256 id;\n        address pool;\n        address main;\n        uint256 ethByMain;\n        uint256 mainMax;\n        address sec;\n        uint256 ethBySec;\n        uint256 secMax;\n        uint256 distrib;\n        uint256 xRate;\n    }\n    uint256 t;\n    struct Token {\n        uint256 id;\n        string name;\n        address adr;\n        uint256 maxSupply;\n        uint256 mintedSupply;\n        uint256 priceInEth;\n    }\n    uint256 s;\n    struct Safe {\n        uint256 id;\n        address user;\n        address token;\n        uint256 safeBalance;\n    }\n    mapping(uint256 => Pool) public poolz;\n    mapping(uint256 => Token) public tokenz;\n    mapping(uint256 => Safe) public safez;\n\n    function addToken(address _token) external returns (address) {\n        coin = COIN(_token);\n        tokenz[t] = Token(\n            t,\n            coin.getName(),\n            address(coin),\n            coin.getMax(),\n            coin.getMinted(),\n            coin.getRate()\n        );\n        t++;\n        return address(coin);\n    }\n\n    function createToken(\n        string memory _name,\n        string memory _sym,\n        uint256 _rate,\n        uint256 _max\n    ) external returns (address) {\n        coin = new COIN(_name, _sym, _rate, _max, msg.sender);\n        tokenz[t] = Token(t, _name, address(coin), _max, 0, _rate);\n        t++;\n        return address(coin);\n    }\n\n    function createPool(\n        address _main,\n        address _sec,\n        string memory _name,\n        string memory _psym\n    ) external returns (address) {\n        // get token contracts\n        main = COIN(_main);\n        sec = COIN(_sec);\n        // detect currency eth value per token\n        uint256 mEthPrice = divide(10**18, main.getRate()); // example // 10^18 / 100 = 10^16\n        uint256 sEthPrice = divide(10**18, sec.getRate()); // example // 10^18 / 100000 = 10^13\n        // detect dif ratio\n        uint256 dRate; // difference ratio\n        if (sEthPrice < mEthPrice)\n            dRate = divide(mEthPrice, sEthPrice); // example // 10^16 / 10^13 = 1000\n        else dRate = divide(sEthPrice, mEthPrice); // example // null\n        uint256 xRate;\n        xRate =\n            ((mEthPrice * main.getMax()) + (sEthPrice * sec.getMax())) /\n            100;\n        pool = new COIN(_name, _psym, xRate, 100 * 10**18, msg.sender); // example // 100 * 10^18\n        poolz[p] = Pool(\n            p,\n            address(pool),\n            _main,\n            mEthPrice,\n            divide(main.getMax(), 3),\n            _sec,\n            sEthPrice,\n            divide(sec.getMax(), 3),\n            0,\n            xRate\n        );\n\n        p++;\n        /*\n\n        // 0xbd5b354220B250DF257ed5e988Fe8FE81CdB6235 MLQ\n        // 0x7e54D10fda1dBAf0aA2eB842942B3B924fcfd947 LYX\n\n        mlq 10000000000000000eth * 1000000mlq\n        lyx 10000000000000eth * 1000000000lyx\n        shk 600000000000000000000eth * 100shk\n\n        */\n        return address(coin);\n    }\n\n    function addMilquidity(uint256 _p, uint256 _mIn)\n        external\n        returns (\n            uint256,\n            uint256,\n            uint256\n        )\n    {\n        main = COIN(poolz[_p].main);\n        sec = COIN(poolz[_p].sec);\n        coin = COIN(poolz[_p].pool);\n        // uint256 weth = 10**18;\n        return (_mIn, 0, 0);\n    }\n}\n\ncontract Trees is ERC20, MathFnx {\n    uint256 maxSupply;\n    uint256 rate;\n    uint256 availSupply;\n    address author;\n    Friends private friends;\n    ERC20 usdc;\n    MLQ mlq;\n\n    constructor(address _con, address _mlq)\n        ERC20(\"Impact Tree Token\", \"IMPCTrees\")\n    {\n        maxSupply = 5000000000000 * 10**18;\n        author = msg.sender;\n        usdc = ERC20(_con);\n        mlq = MLQ(_mlq);\n    }\n\n    modifier isAdmin() {\n        require(msg.sender == author);\n        _;\n    }\n\n    function buyTreeERC20(uint256 _trees) external payable returns (bool) {\n        require(usdc.balanceOf(msg.sender) >= 100 * _trees * 94 * 10**15);\n        require(availSupply < maxSupply);\n        usdc.transferFrom(\n            msg.sender,\n            0x8cF3c63Be0BC3d1478496B6449316babD225F78a,\n            100 * _trees * 94 * 10**15\n        );\n        availSupply += msg.value * 10000;\n        _mint(msg.sender, _trees * 10**18);\n        return true;\n    }\n\n    function buyTreeMLQ(uint256 _trees) external payable returns (bool) {\n        require(\n            mlq.balanceOf(msg.sender) >= rate / (100 * _trees * 94 * 10**15)\n        );\n        require(availSupply < maxSupply);\n        mlq.transferFrom(\n            msg.sender,\n            0x8cF3c63Be0BC3d1478496B6449316babD225F78a,\n            rate / (100 * _trees * 94 * 10**15)\n        );\n        availSupply += msg.value * 10000;\n        _mint(msg.sender, _trees * 10**18);\n        return true;\n    }\n\n    function donateTrees(uint256 _amount) external isAdmin returns (bool) {\n        require(balanceOf(msg.sender) > _amount * 10**18);\n        _burn(msg.sender, _amount * 10**18);\n        return true;\n    }\n\n    function approveContract(address _contract) external returns (bool) {\n        approve(_contract, balanceOf(msg.sender));\n        return true;\n    }\n\n    function setERC20(address _usdc) external isAdmin returns (bool) {\n        usdc = ERC20(_usdc);\n        return true;\n    }\n\n    function setMLQ(address _mlq) external isAdmin returns (bool) {\n        mlq = MLQ(_mlq);\n        return true;\n    }\n\n    function approveUSDC(uint256 _amnt) external returns (bool) {\n        return usdc.approve(address(this), _amnt);\n    }\n\n    function trimTrees(uint256 _newPrice) external returns (uint256) {\n        rate = _newPrice;\n        return rate;\n    }\n\n    function withdraw(uint256 _eth, uint256 _tree)\n        external\n        isAdmin\n        returns (bool)\n    {\n        require(_tree * 10**18 <= balanceOf(address(this)));\n        require(_eth * 10**18 <= address(this).balance);\n        transfer(payable(author), _tree * 10**18);\n        payable(author).transfer(_eth * 10**18);\n        return true;\n    }\n}\n\ncontract Co2s is ERC20, MathFnx {\n    IERC20 internal trees;\n    MLQ mlq;\n    uint256 maxSupply;\n    uint256 rate;\n    uint256 availSupply;\n    address author;\n    Friends private friends;\n    struct Bond {\n        uint256 id;\n        address adr;\n        uint256 amount;\n        uint256 region;\n        uint256 stamp;\n        uint256 duration;\n        uint256 co2;\n    }\n\n    mapping(address => uint256) public myBonds;\n    mapping(address => mapping(uint256 => uint256)) public myBondedCo2;\n\n    Bond[] public bonds;\n    uint256 c;\n    uint256 b;\n    uint256 per;\n\n    constructor(\n        address _contract,\n        uint256 _percent,\n        address _mlq\n    ) ERC20(\"Carbon token\", \"CO2\") {\n        maxSupply = 25000000000000 * 10**18;\n        trees = IERC20(_contract);\n        per = _percent;\n        mlq = MLQ(_mlq);\n        author = msg.sender;\n    }\n\n    modifier isAdmin() {\n        require(msg.sender == author);\n        _;\n    }\n\n    function growTrees(\n        uint256 _trees,\n        uint256 _region,\n        uint256 _duration\n    ) external payable returns (bool) {\n        require(msg.value >= _trees * 10**14, \"not enough funds for asset\");\n        require(_trees <= trees.balanceOf(msg.sender), \"insufficient balance\");\n        require(\n            5 * _trees * 10**18 <= maxSupply - availSupply,\n            \"insufficient supply\"\n        );\n        bonds.push(\n            Bond(\n                b,\n                msg.sender,\n                _trees * 10**18,\n                _region,\n                block.timestamp,\n                _duration,\n                5 * _trees * 10**18\n            )\n        );\n        availSupply += 5 * _trees * 10**18;\n        myBondedCo2[msg.sender][myBonds[msg.sender]] = b;\n        myBonds[msg.sender]++;\n        trees.transferFrom(msg.sender, payable(address(this)), _trees * 10**18);\n        b++;\n        return true;\n    }\n\n    function growMoreTrees(uint256 _trees, uint256 _b)\n        external\n        payable\n        returns (bool)\n    {\n        require(msg.value >= _trees * 10**14);\n        require(_trees <= trees.balanceOf(msg.sender));\n        uint256 treez = _trees * 10**18;\n        require(5 * treez <= maxSupply - availSupply);\n        uint256 p = divide(100, bonds[_b].amount) * treez;\n        bonds[_b].amount += treez;\n        bonds[_b].co2 += 5 * treez;\n        bonds[_b].duration += bonds[_b].duration * p;\n        uint256 fee = divide(treez, (100 / per));\n        trees.transfer(payable(address(this)), treez - fee);\n        trees.transfer(payable(address(this)), fee);\n        return true;\n    }\n\n    function growLessTrees(uint256 _trees, uint256 _b)\n        external\n        payable\n        returns (bool)\n    {\n        require(msg.value >= _trees * 10**15);\n        uint256 treez = _trees * 10**18;\n        require(\n            treez <= bonds[myBondedCo2[msg.sender][myBonds[msg.sender]]].amount\n        );\n        bonds[_b].amount -= treez;\n        bonds[_b].co2 -= 5 * treez;\n        uint256 fee = divide(treez, (100 / per));\n        trees.transfer(payable(msg.sender), treez - fee);\n        trees.transfer(payable(address(this)), fee);\n        return true;\n    }\n\n    function calcFreeCo2(uint256 _b) internal view returns (uint256, uint256) {\n        uint256 total = bonds[_b].duration * 60 * 60 * 24 * 365;\n        uint256 passed = block.timestamp - bonds[_b].stamp;\n        uint256 pDur = divide(100 * 10**18, total) * passed;\n        uint256 freeCo2 = divide(100 * 10**18, bonds[_b].co2) * pDur;\n        return (freeCo2, passed);\n    }\n\n    function releaseFreeCo2(uint256 _m) external returns (bool) {\n        uint256 _b = myBondedCo2[msg.sender][_m]; // get b_id\n        (uint256 free, uint256 passed) = calcFreeCo2(_b); // get free co2 & passed time\n        require(1 * 10**18 <= free); // check amount\n        bonds[_b].co2 -= free; // edit bonds data subtract\n        bonds[_b].stamp = block.timestamp;\n        uint256 addTime = divide(passed, (100 / per));\n        bonds[_b].duration += addTime;\n\n        uint256 fee = divide(free, (100 / per));\n        _mint(msg.sender, (free - fee)); // mint free co2\n        _mint(address(this), fee);\n        return true;\n    }\n\n    function withdraw(\n        uint256 _eth,\n        uint256 _co2,\n        uint256 _tree\n    ) external isAdmin returns (bool) {\n        require(_co2 * 10**18 <= balanceOf(address(this)));\n        require(_tree * 10**18 <= trees.balanceOf(address(this)));\n        require(_eth * 10**18 <= address(this).balance);\n        transfer(payable(author), _co2 * 10**18);\n        trees.transfer(payable(author), _tree * 10**18);\n        payable(author).transfer(_eth * 10**18);\n        return true;\n    }\n}\n\ncontract GardenPool is ERC1155, MathFnx {\n    IERC20 internal TR3EZ;\n    IERC20 internal CO2;\n    IERC20 internal lowC;\n    IERC20 internal highC;\n    address author;\n    uint256 private per;\n    uint256 public collectedFees;\n    struct Garden {\n        uint256 id;\n        address low;\n        uint256 lowTotal;\n        address high;\n        bytes description;\n        uint256 low4high;\n        uint256 maxSize;\n        uint256 currentSize;\n    }\n    Garden[] public gardens;\n    uint256 g;\n\n    constructor(\n        address _trees,\n        address _co2,\n        uint256 _percent\n    ) ERC1155(\"IMgardens\") {\n        author = msg.sender;\n        TR3EZ = IERC20(_trees);\n        CO2 = IERC20(_co2);\n        per = _percent;\n    }\n\n    modifier isAdmin() {\n        require(msg.sender == author);\n        _;\n    }\n\n    function createGarden(\n        string memory _name,\n        address _hi,\n        address _lo\n    ) external returns (bool) {\n        _setURI(_name);\n        _mint(address(this), g, 100 * 10**6, bytes(_name)); // 1 : 10 000 // 100 000 weth : 1 000 000 000 trees = 100% // 1 weth : 10 000 trees = 0,001% of max pool size\n        gardens.push(\n            Garden(g, _hi, 1000000000, _lo, bytes(_name), 10000, 100000, 0)\n        );\n        g++;\n        return true;\n    }\n\n    function addliquidity(uint256 _id, uint256 _low)\n        external\n        payable\n        returns (bool)\n    {\n        uint256 low = _low * 10**6;\n        uint256 high = gardens[_id].low4high * low;\n        lowC = IERC20(gardens[_id].low);\n        highC = IERC20(gardens[_id].high);\n        require(lowC.balanceOf(msg.sender) >= low);\n        require(highC.balanceOf(msg.sender) >= high);\n        lowC.transferFrom(msg.sender, address(this), low);\n        highC.transferFrom(msg.sender, address(this), high);\n        uint256 gardenDrops = divide(100 * 10**6, gardens[_id].lowTotal) * low;\n        safeTransferFrom(\n            address(this),\n            msg.sender,\n            gardens[_id].id,\n            gardenDrops,\n            gardens[_id].description\n        );\n        gardens[_id].currentSize += gardenDrops;\n        return true;\n    }\n\n    function removeLiquidity(uint256 _id, uint256 _gardenDrops)\n        external\n        payable\n        returns (bool)\n    {\n        uint256 low = divide(100 * 10**6, gardens[_id].lowTotal) * _gardenDrops;\n        uint256 high = low * gardens[_id].low4high;\n        lowC = IERC20(gardens[_id].low);\n        highC = IERC20(gardens[_id].high);\n        require(lowC.balanceOf(address(this)) >= low);\n        require(highC.balanceOf(address(this)) >= high);\n        lowC.transferFrom(address(this), msg.sender, low);\n        highC.transferFrom(address(this), msg.sender, high);\n        safeTransferFrom(\n            msg.sender,\n            address(this),\n            gardens[_id].id,\n            _gardenDrops,\n            gardens[_id].description\n        );\n        gardens[_id].currentSize -= _gardenDrops;\n        return true;\n    }\n\n    function swapLowHigh(uint256 _id, uint256 _low)\n        external\n        payable\n        returns (bool)\n    {\n        uint256 low = _low * 10**6;\n        lowC = IERC20(gardens[_id].low);\n        highC = IERC20(gardens[_id].high);\n        require(lowC.balanceOf(msg.sender) >= low);\n        uint256 fee = divide(100 * 10**6, low) * (100 / per);\n        uint256 get = gardens[_id].low4high * (low - fee);\n        require(highC.balanceOf(address(this)) >= get);\n        lowC.transferFrom(msg.sender, address(this), low);\n        highC.transferFrom(address(this), msg.sender, get);\n        collectedFees += fee;\n        return true;\n    }\n\n    function swapHighLow(uint256 _id, uint256 _high)\n        external\n        payable\n        returns (bool)\n    {\n        uint256 high = _high * 10**6;\n        lowC = IERC20(gardens[_id].low);\n        highC = IERC20(gardens[_id].high);\n        require(highC.balanceOf(msg.sender) >= high);\n        uint256 fee = divide(100 * 10**6, high) * (100 / per);\n        uint256 get = divide(high - fee, gardens[_id].low4high);\n        require(highC.balanceOf(address(this)) >= get);\n        highC.transferFrom(msg.sender, address(this), high);\n        lowC.transferFrom(address(this), msg.sender, get);\n        collectedFees += fee;\n        return true;\n    }\n\n    function waterGardens(uint256 _id) external payable returns (uint256) {\n        lowC = IERC20(gardens[_id].low);\n        highC = IERC20(gardens[_id].high);\n        uint256 lBal = lowC.balanceOf(address(this));\n        uint256 hBal = highC.balanceOf(address(this));\n        uint256 rRatio = divide(hBal, lBal);\n        uint256 eRatio = divide(gardens[_id].low4high, 1);\n        uint256 difRatio = divide(100, eRatio) * rRatio;\n        return difRatio;\n    }\n}\n",
  "sourcePath": "/Users/iii6/Documents/GitHub/ourPlanet/contracts/s0x.sol",
  "compiler": {
    "name": "solc",
    "version": "0.8.15+commit.e14f2714.Emscripten.clang"
  },
  "schemaVersion": "3.4.8",
  "updatedAt": "2022-07-27T19:36:38.226Z",
  "networkType": "ethereum",
  "devdoc": {
    "kind": "dev",
    "methods": {
      "balanceOf(address,uint256)": {
        "details": "See {IERC1155-balanceOf}. Requirements: - `account` cannot be the zero address."
      },
      "balanceOfBatch(address[],uint256[])": {
        "details": "See {IERC1155-balanceOfBatch}. Requirements: - `accounts` and `ids` must have the same length."
      },
      "isApprovedForAll(address,address)": {
        "details": "See {IERC1155-isApprovedForAll}."
      },
      "safeBatchTransferFrom(address,address,uint256[],uint256[],bytes)": {
        "details": "See {IERC1155-safeBatchTransferFrom}."
      },
      "safeTransferFrom(address,address,uint256,uint256,bytes)": {
        "details": "See {IERC1155-safeTransferFrom}."
      },
      "setApprovalForAll(address,bool)": {
        "details": "See {IERC1155-setApprovalForAll}."
      },
      "supportsInterface(bytes4)": {
        "details": "See {IERC165-supportsInterface}."
      },
      "uri(uint256)": {
        "details": "See {IERC1155MetadataURI-uri}. This implementation returns the same URI for *all* token types. It relies on the token type ID substitution mechanism https://eips.ethereum.org/EIPS/eip-1155#metadata[defined in the EIP]. Clients calling this function must replace the `\\{id\\}` substring with the actual token type ID."
      }
    },
    "version": 1
  },
  "userdoc": {
    "kind": "user",
    "methods": {},
    "version": 1
  }
}