{
  "contractName": "GardenPool",
  "abi": [
    {
      "inputs": [
        {
          "internalType": "address",
          "name": "_trees",
          "type": "address"
        },
        {
          "internalType": "address",
          "name": "_co2",
          "type": "address"
        },
        {
          "internalType": "address",
          "name": "_weth",
          "type": "address"
        },
        {
          "internalType": "uint256",
          "name": "_percent",
          "type": "uint256"
        }
      ],
      "stateMutability": "nonpayable",
      "type": "constructor"
    },
    {
      "anonymous": false,
      "inputs": [
        {
          "indexed": true,
          "internalType": "address",
          "name": "account",
          "type": "address"
        },
        {
          "indexed": true,
          "internalType": "address",
          "name": "operator",
          "type": "address"
        },
        {
          "indexed": false,
          "internalType": "bool",
          "name": "approved",
          "type": "bool"
        }
      ],
      "name": "ApprovalForAll",
      "type": "event"
    },
    {
      "anonymous": false,
      "inputs": [
        {
          "indexed": true,
          "internalType": "uint256",
          "name": "id",
          "type": "uint256"
        },
        {
          "indexed": false,
          "internalType": "address",
          "name": "sender",
          "type": "address"
        },
        {
          "indexed": false,
          "internalType": "address",
          "name": "home",
          "type": "address"
        },
        {
          "indexed": false,
          "internalType": "uint256",
          "name": "num",
          "type": "uint256"
        },
        {
          "indexed": false,
          "internalType": "bytes",
          "name": "message",
          "type": "bytes"
        },
        {
          "indexed": false,
          "internalType": "uint256",
          "name": "stamp",
          "type": "uint256"
        }
      ],
      "name": "Log",
      "type": "event"
    },
    {
      "anonymous": false,
      "inputs": [
        {
          "indexed": true,
          "internalType": "address",
          "name": "operator",
          "type": "address"
        },
        {
          "indexed": true,
          "internalType": "address",
          "name": "from",
          "type": "address"
        },
        {
          "indexed": true,
          "internalType": "address",
          "name": "to",
          "type": "address"
        },
        {
          "indexed": false,
          "internalType": "uint256[]",
          "name": "ids",
          "type": "uint256[]"
        },
        {
          "indexed": false,
          "internalType": "uint256[]",
          "name": "values",
          "type": "uint256[]"
        }
      ],
      "name": "TransferBatch",
      "type": "event"
    },
    {
      "anonymous": false,
      "inputs": [
        {
          "indexed": true,
          "internalType": "address",
          "name": "operator",
          "type": "address"
        },
        {
          "indexed": true,
          "internalType": "address",
          "name": "from",
          "type": "address"
        },
        {
          "indexed": true,
          "internalType": "address",
          "name": "to",
          "type": "address"
        },
        {
          "indexed": false,
          "internalType": "uint256",
          "name": "id",
          "type": "uint256"
        },
        {
          "indexed": false,
          "internalType": "uint256",
          "name": "value",
          "type": "uint256"
        }
      ],
      "name": "TransferSingle",
      "type": "event"
    },
    {
      "anonymous": false,
      "inputs": [
        {
          "indexed": false,
          "internalType": "string",
          "name": "value",
          "type": "string"
        },
        {
          "indexed": true,
          "internalType": "uint256",
          "name": "id",
          "type": "uint256"
        }
      ],
      "name": "URI",
      "type": "event"
    },
    {
      "anonymous": false,
      "inputs": [
        {
          "indexed": true,
          "internalType": "uint256",
          "name": "id",
          "type": "uint256"
        },
        {
          "indexed": false,
          "internalType": "address",
          "name": "sender",
          "type": "address"
        },
        {
          "indexed": false,
          "internalType": "address",
          "name": "home",
          "type": "address"
        },
        {
          "indexed": false,
          "internalType": "uint256",
          "name": "num",
          "type": "uint256"
        },
        {
          "indexed": false,
          "internalType": "bytes",
          "name": "message",
          "type": "bytes"
        },
        {
          "indexed": false,
          "internalType": "uint256",
          "name": "stamp",
          "type": "uint256"
        }
      ],
      "name": "Wait",
      "type": "event"
    },
    {
      "stateMutability": "nonpayable",
      "type": "fallback"
    },
    {
      "inputs": [
        {
          "internalType": "address",
          "name": "_contract",
          "type": "address"
        },
        {
          "internalType": "uint256",
          "name": "_amnt",
          "type": "uint256"
        }
      ],
      "name": "approveTokenAmount",
      "outputs": [
        {
          "internalType": "bool",
          "name": "",
          "type": "bool"
        }
      ],
      "stateMutability": "nonpayable",
      "type": "function"
    },
    {
      "inputs": [
        {
          "internalType": "address",
          "name": "_contract",
          "type": "address"
        }
      ],
      "name": "approveTokens",
      "outputs": [
        {
          "internalType": "bool",
          "name": "",
          "type": "bool"
        }
      ],
      "stateMutability": "nonpayable",
      "type": "function"
    },
    {
      "inputs": [],
      "name": "author",
      "outputs": [
        {
          "internalType": "address",
          "name": "",
          "type": "address"
        }
      ],
      "stateMutability": "view",
      "type": "function"
    },
    {
      "inputs": [],
      "name": "availSupply",
      "outputs": [
        {
          "internalType": "uint256",
          "name": "",
          "type": "uint256"
        }
      ],
      "stateMutability": "view",
      "type": "function"
    },
    {
      "inputs": [
        {
          "internalType": "address",
          "name": "account",
          "type": "address"
        },
        {
          "internalType": "uint256",
          "name": "id",
          "type": "uint256"
        }
      ],
      "name": "balanceOf",
      "outputs": [
        {
          "internalType": "uint256",
          "name": "",
          "type": "uint256"
        }
      ],
      "stateMutability": "view",
      "type": "function"
    },
    {
      "inputs": [
        {
          "internalType": "address[]",
          "name": "accounts",
          "type": "address[]"
        },
        {
          "internalType": "uint256[]",
          "name": "ids",
          "type": "uint256[]"
        }
      ],
      "name": "balanceOfBatch",
      "outputs": [
        {
          "internalType": "uint256[]",
          "name": "",
          "type": "uint256[]"
        }
      ],
      "stateMutability": "view",
      "type": "function"
    },
    {
      "inputs": [
        {
          "internalType": "address",
          "name": "_to",
          "type": "address"
        },
        {
          "internalType": "uint256",
          "name": "_role",
          "type": "uint256"
        }
      ],
      "name": "changeRole",
      "outputs": [
        {
          "internalType": "bool",
          "name": "",
          "type": "bool"
        }
      ],
      "stateMutability": "nonpayable",
      "type": "function"
    },
    {
      "inputs": [],
      "name": "collectedFees",
      "outputs": [
        {
          "internalType": "uint256",
          "name": "",
          "type": "uint256"
        }
      ],
      "stateMutability": "view",
      "type": "function"
    },
    {
      "inputs": [
        {
          "internalType": "uint256",
          "name": "",
          "type": "uint256"
        }
      ],
      "name": "gardens",
      "outputs": [
        {
          "internalType": "uint256",
          "name": "id",
          "type": "uint256"
        },
        {
          "internalType": "address",
          "name": "low",
          "type": "address"
        },
        {
          "internalType": "uint256",
          "name": "lowTotal",
          "type": "uint256"
        },
        {
          "internalType": "address",
          "name": "high",
          "type": "address"
        },
        {
          "internalType": "bytes",
          "name": "description",
          "type": "bytes"
        },
        {
          "internalType": "uint256",
          "name": "low4high",
          "type": "uint256"
        },
        {
          "internalType": "uint256",
          "name": "maxSize",
          "type": "uint256"
        },
        {
          "internalType": "uint256",
          "name": "currentSize",
          "type": "uint256"
        }
      ],
      "stateMutability": "view",
      "type": "function"
    },
    {
      "inputs": [
        {
          "internalType": "address",
          "name": "account",
          "type": "address"
        },
        {
          "internalType": "address",
          "name": "operator",
          "type": "address"
        }
      ],
      "name": "isApprovedForAll",
      "outputs": [
        {
          "internalType": "bool",
          "name": "",
          "type": "bool"
        }
      ],
      "stateMutability": "view",
      "type": "function"
    },
    {
      "inputs": [
        {
          "internalType": "address",
          "name": "",
          "type": "address"
        }
      ],
      "name": "isUser",
      "outputs": [
        {
          "internalType": "bool",
          "name": "",
          "type": "bool"
        }
      ],
      "stateMutability": "view",
      "type": "function"
    },
    {
      "inputs": [
        {
          "internalType": "string",
          "name": "_data",
          "type": "string"
        }
      ],
      "name": "makeU",
      "outputs": [
        {
          "internalType": "bool",
          "name": "",
          "type": "bool"
        }
      ],
      "stateMutability": "nonpayable",
      "type": "function"
    },
    {
      "inputs": [],
      "name": "maxSupply",
      "outputs": [
        {
          "internalType": "uint256",
          "name": "",
          "type": "uint256"
        }
      ],
      "stateMutability": "view",
      "type": "function"
    },
    {
      "inputs": [
        {
          "internalType": "address",
          "name": "",
          "type": "address"
        }
      ],
      "name": "role",
      "outputs": [
        {
          "internalType": "uint256",
          "name": "",
          "type": "uint256"
        }
      ],
      "stateMutability": "view",
      "type": "function"
    },
    {
      "inputs": [
        {
          "internalType": "address",
          "name": "from",
          "type": "address"
        },
        {
          "internalType": "address",
          "name": "to",
          "type": "address"
        },
        {
          "internalType": "uint256[]",
          "name": "ids",
          "type": "uint256[]"
        },
        {
          "internalType": "uint256[]",
          "name": "amounts",
          "type": "uint256[]"
        },
        {
          "internalType": "bytes",
          "name": "data",
          "type": "bytes"
        }
      ],
      "name": "safeBatchTransferFrom",
      "outputs": [],
      "stateMutability": "nonpayable",
      "type": "function"
    },
    {
      "inputs": [
        {
          "internalType": "address",
          "name": "from",
          "type": "address"
        },
        {
          "internalType": "address",
          "name": "to",
          "type": "address"
        },
        {
          "internalType": "uint256",
          "name": "id",
          "type": "uint256"
        },
        {
          "internalType": "uint256",
          "name": "amount",
          "type": "uint256"
        },
        {
          "internalType": "bytes",
          "name": "data",
          "type": "bytes"
        }
      ],
      "name": "safeTransferFrom",
      "outputs": [],
      "stateMutability": "nonpayable",
      "type": "function"
    },
    {
      "inputs": [
        {
          "internalType": "address",
          "name": "operator",
          "type": "address"
        },
        {
          "internalType": "bool",
          "name": "approved",
          "type": "bool"
        }
      ],
      "name": "setApprovalForAll",
      "outputs": [],
      "stateMutability": "nonpayable",
      "type": "function"
    },
    {
      "inputs": [],
      "name": "showU",
      "outputs": [
        {
          "internalType": "string",
          "name": "",
          "type": "string"
        },
        {
          "internalType": "uint256",
          "name": "",
          "type": "uint256"
        }
      ],
      "stateMutability": "view",
      "type": "function"
    },
    {
      "inputs": [
        {
          "internalType": "bytes4",
          "name": "interfaceId",
          "type": "bytes4"
        }
      ],
      "name": "supportsInterface",
      "outputs": [
        {
          "internalType": "bool",
          "name": "",
          "type": "bool"
        }
      ],
      "stateMutability": "view",
      "type": "function"
    },
    {
      "inputs": [
        {
          "internalType": "address",
          "name": "",
          "type": "address"
        }
      ],
      "name": "uData",
      "outputs": [
        {
          "internalType": "bytes",
          "name": "",
          "type": "bytes"
        }
      ],
      "stateMutability": "view",
      "type": "function"
    },
    {
      "inputs": [
        {
          "internalType": "uint256",
          "name": "",
          "type": "uint256"
        }
      ],
      "name": "uri",
      "outputs": [
        {
          "internalType": "string",
          "name": "",
          "type": "string"
        }
      ],
      "stateMutability": "view",
      "type": "function"
    },
    {
      "inputs": [
        {
          "internalType": "address",
          "name": "_contract",
          "type": "address"
        }
      ],
      "name": "withdrawToken",
      "outputs": [
        {
          "internalType": "bool",
          "name": "",
          "type": "bool"
        }
      ],
      "stateMutability": "nonpayable",
      "type": "function"
    },
    {
      "inputs": [
        {
          "internalType": "string",
          "name": "_name",
          "type": "string"
        },
        {
          "internalType": "address",
          "name": "_hi",
          "type": "address"
        },
        {
          "internalType": "address",
          "name": "_lo",
          "type": "address"
        }
      ],
      "name": "createGarden",
      "outputs": [
        {
          "internalType": "bool",
          "name": "",
          "type": "bool"
        }
      ],
      "stateMutability": "nonpayable",
      "type": "function"
    },
    {
      "inputs": [
        {
          "internalType": "uint256",
          "name": "_id",
          "type": "uint256"
        },
        {
          "internalType": "uint256",
          "name": "_low",
          "type": "uint256"
        }
      ],
      "name": "addliquidity",
      "outputs": [
        {
          "internalType": "bool",
          "name": "",
          "type": "bool"
        }
      ],
      "stateMutability": "payable",
      "type": "function"
    },
    {
      "inputs": [
        {
          "internalType": "uint256",
          "name": "_id",
          "type": "uint256"
        },
        {
          "internalType": "uint256",
          "name": "_gardenDrops",
          "type": "uint256"
        }
      ],
      "name": "removeLiquidity",
      "outputs": [
        {
          "internalType": "bool",
          "name": "",
          "type": "bool"
        }
      ],
      "stateMutability": "payable",
      "type": "function"
    },
    {
      "inputs": [
        {
          "internalType": "uint256",
          "name": "_id",
          "type": "uint256"
        },
        {
          "internalType": "uint256",
          "name": "_low",
          "type": "uint256"
        }
      ],
      "name": "swapLowHigh",
      "outputs": [
        {
          "internalType": "bool",
          "name": "",
          "type": "bool"
        }
      ],
      "stateMutability": "payable",
      "type": "function"
    },
    {
      "inputs": [
        {
          "internalType": "uint256",
          "name": "_id",
          "type": "uint256"
        },
        {
          "internalType": "uint256",
          "name": "_high",
          "type": "uint256"
        }
      ],
      "name": "swapHighLow",
      "outputs": [
        {
          "internalType": "bool",
          "name": "",
          "type": "bool"
        }
      ],
      "stateMutability": "payable",
      "type": "function"
    },
    {
      "inputs": [
        {
          "internalType": "uint256",
          "name": "_id",
          "type": "uint256"
        }
      ],
      "name": "waterGardens",
      "outputs": [
        {
          "internalType": "uint256",
          "name": "",
          "type": "uint256"
        }
      ],
      "stateMutability": "payable",
      "type": "function"
    }
  ],
  "bytecode": "0x6080604052731cd6f4d329d38043a6bdb3665c3a7b06f79b5242600360006101000a81548173ffffffffffffffffffffffffffffffffffffffff021916908373ffffffffffffffffffffffffffffffffffffffff160217905550670de0b6b3a76400006009553480156200007257600080fd5b50604051620062cf380380620062cf833981810160405281019062000098919062000409565b6040518060400160405280600981526020017f494d67617264656e730000000000000000000000000000000000000000000000815250620000df816200034f60201b60201c565b50600360009054906101000a900473ffffffffffffffffffffffffffffffffffffffff1673ffffffffffffffffffffffffffffffffffffffff163373ffffffffffffffffffffffffffffffffffffffff16146200013b57600080fd5b6063600460003373ffffffffffffffffffffffffffffffffffffffff1673ffffffffffffffffffffffffffffffffffffffff168152602001908152602001600020819055506040518060600160405280603681526020016200629960369139600560003373ffffffffffffffffffffffffffffffffffffffff1673ffffffffffffffffffffffffffffffffffffffff1681526020019081526020016000209081620001e79190620006eb565b5083600e60006101000a81548173ffffffffffffffffffffffffffffffffffffffff021916908373ffffffffffffffffffffffffffffffffffffffff16021790555082600f60006101000a81548173ffffffffffffffffffffffffffffffffffffffff021916908373ffffffffffffffffffffffffffffffffffffffff16021790555081601060006101000a81548173ffffffffffffffffffffffffffffffffffffffff021916908373ffffffffffffffffffffffffffffffffffffffff16021790555080601381905550600d547f5c155e8f37136295b53ae72fb3c0f568542d008fa91b541061b2d58d80d2657f3330846040518060400160405280601081526020017f636f6e747261637420637265617465640000000000000000000000000000000081525042604051620003239594939291906200088d565b60405180910390a2600d6000815480929190620003409062000920565b91905055505050505062000ac4565b8060029081620003609190620009dd565b5050565b600080fd5b600073ffffffffffffffffffffffffffffffffffffffff82169050919050565b6000620003968262000369565b9050919050565b620003a88162000389565b8114620003b457600080fd5b50565b600081519050620003c8816200039d565b92915050565b6000819050919050565b620003e381620003ce565b8114620003ef57600080fd5b50565b6000815190506200040381620003d8565b92915050565b6000806000806080858703121562000426576200042562000364565b5b60006200043687828801620003b7565b94505060206200044987828801620003b7565b93505060406200045c87828801620003b7565b92505060606200046f87828801620003f2565b91505092959194509250565b600081519050919050565b7f4e487b7100000000000000000000000000000000000000000000000000000000600052604160045260246000fd5b7f4e487b7100000000000000000000000000000000000000000000000000000000600052602260045260246000fd5b60006002820490506001821680620004fd57607f821691505b602082108103620005135762000512620004b5565b5b50919050565b60008190508160005260206000209050919050565b60006020601f8301049050919050565b600082821b905092915050565b6000600883026200057d7fffffffffffffffffffffffffffffffffffffffffffffffffffffffffffffffff826200053e565b6200058986836200053e565b95508019841693508086168417925050509392505050565b6000819050919050565b6000620005cc620005c6620005c084620003ce565b620005a1565b620003ce565b9050919050565b6000819050919050565b620005e883620005ab565b62000600620005f782620005d3565b8484546200054b565b825550505050565b600090565b6200061762000608565b62000624818484620005dd565b505050565b5b818110156200064c57620006406000826200060d565b6001810190506200062a565b5050565b601f8211156200069b57620006658162000519565b62000670846200052e565b8101602085101562000680578190505b620006986200068f856200052e565b83018262000629565b50505b505050565b600082821c905092915050565b6000620006c060001984600802620006a0565b1980831691505092915050565b6000620006db8383620006ad565b9150826002028217905092915050565b620006f6826200047b565b67ffffffffffffffff81111562000712576200071162000486565b5b6200071e8254620004e4565b6200072b82828562000650565b600060209050601f8311600181146200076357600084156200074e578287015190505b6200075a8582620006cd565b865550620007ca565b601f198416620007738662000519565b60005b828110156200079d5784890151825560018201915060208501945060208101905062000776565b86831015620007bd5784890151620007b9601f891682620006ad565b8355505b6001600288020188555050505b505050505050565b620007dd8162000389565b82525050565b620007ee81620003ce565b82525050565b600082825260208201905092915050565b60005b838110156200082557808201518184015260208101905062000808565b8381111562000835576000848401525b50505050565b6000601f19601f8301169050919050565b600062000859826200047b565b620008658185620007f4565b93506200087781856020860162000805565b62000882816200083b565b840191505092915050565b600060a082019050620008a46000830188620007d2565b620008b36020830187620007d2565b620008c26040830186620007e3565b8181036060830152620008d681856200084c565b9050620008e76080830184620007e3565b9695505050505050565b7f4e487b7100000000000000000000000000000000000000000000000000000000600052601160045260246000fd5b60006200092d82620003ce565b91507fffffffffffffffffffffffffffffffffffffffffffffffffffffffffffffffff8203620009625762000961620008f1565b5b600182019050919050565b600081519050919050565b60008190508160005260206000209050919050565b601f821115620009d857620009a28162000978565b620009ad846200052e565b81016020851015620009bd578190505b620009d5620009cc856200052e565b83018262000629565b50505b505050565b620009e8826200096d565b67ffffffffffffffff81111562000a045762000a0362000486565b5b62000a108254620004e4565b62000a1d8282856200098d565b600060209050601f83116001811462000a55576000841562000a40578287015190505b62000a4c8582620006cd565b86555062000abc565b601f19841662000a658662000978565b60005b8281101562000a8f5784890151825560018201915060208501945060208101905062000a68565b8683101562000aaf578489015162000aab601f891682620006ad565b8355505b6001600288020188555050505b505050505050565b6157c58062000ad46000396000f3fe6080604052600436106101ba5760003560e01c80634ef70ba7116100ec578063a6c3e6b91161008a578063d590f8c911610064578063d590f8c9146106d8578063d5abeb0114610715578063e985e9c514610740578063f242432a1461077d576101bb565b8063a6c3e6b914610640578063abd1bb761461066b578063b7187e351461069b576101bb565b80639d7de6b3116100c65780639d7de6b3146105785780639e18eb39146105a85780639f5215dd146105ec578063a22cb46514610617576101bb565b80634ef70ba7146104d357806389476069146105105780639003adfe1461054d576101bb565b8063268b5227116101595780632eb2c2d6116101335780632eb2c2d61461040057806337efe74b146104295780634209fff1146104595780634e1273f414610496576101bb565b8063268b52271461035a578063274daa351461039757806328a22348146103c3576101bb565b80630e89341c116101955780630e89341c146102805780631daf366c146102bd57806320aaa60c146102ed578063255ec5571461031d576101bb565b8062fdd58e146101c957806301ffc9a7146102065780630acfd58e14610243576101bb565b5b3480156101c757600080fd5b005b3480156101d557600080fd5b506101f060048036038101906101eb9190613c5d565b6107a6565b6040516101fd9190613cac565b60405180910390f35b34801561021257600080fd5b5061022d60048036038101906102289190613d1f565b61086e565b60405161023a9190613d67565b60405180910390f35b34801561024f57600080fd5b5061026a60048036038101906102659190613c5d565b610950565b6040516102779190613d67565b60405180910390f35b34801561028c57600080fd5b506102a760048036038101906102a29190613d82565b610a22565b6040516102b49190613e48565b60405180910390f35b6102d760048036038101906102d29190613e6a565b610ab6565b6040516102e49190613d67565b60405180910390f35b61030760048036038101906103029190613e6a565b610efb565b6040516103149190613d67565b60405180910390f35b34801561032957600080fd5b50610344600480360381019061033f9190613c5d565b611342565b6040516103519190613d67565b60405180910390f35b34801561036657600080fd5b50610381600480360381019061037c9190613fdf565b611430565b60405161038e9190613d67565b60405180910390f35b3480156103a357600080fd5b506103ac611525565b6040516103ba929190614028565b60405180910390f35b3480156103cf57600080fd5b506103ea60048036038101906103e59190614058565b61163c565b6040516103f79190613d67565b60405180910390f35b34801561040c57600080fd5b50610427600480360381019061042291906141ee565b6117c4565b005b610443600480360381019061043e9190613d82565b611865565b6040516104509190613cac565b60405180910390f35b34801561046557600080fd5b50610480600480360381019061047b9190614058565b611b1c565b60405161048d9190613d67565b60405180910390f35b3480156104a257600080fd5b506104bd60048036038101906104b89190614380565b611b3c565b6040516104ca91906144b6565b60405180910390f35b3480156104df57600080fd5b506104fa60048036038101906104f591906144d8565b611c55565b6040516105079190613d67565b60405180910390f35b34801561051c57600080fd5b5061053760048036038101906105329190614058565b611e0a565b6040516105449190613d67565b60405180910390f35b34801561055957600080fd5b50610562612036565b60405161056f9190613cac565b60405180910390f35b610592600480360381019061058d9190613e6a565b61203c565b60405161059f9190613d67565b60405180910390f35b3480156105b457600080fd5b506105cf60048036038101906105ca9190613d82565b61257d565b6040516105e39897969594939291906145ab565b60405180910390f35b3480156105f857600080fd5b5061060161269d565b60405161060e9190613cac565b60405180910390f35b34801561062357600080fd5b5061063e6004803603810190610639919061465c565b6126a3565b005b34801561064c57600080fd5b506106556126b9565b604051610662919061469c565b60405180910390f35b61068560048036038101906106809190613e6a565b6126df565b6040516106929190613d67565b60405180910390f35b3480156106a757600080fd5b506106c260048036038101906106bd9190614058565b612c34565b6040516106cf91906146b7565b60405180910390f35b3480156106e457600080fd5b506106ff60048036038101906106fa9190614058565b612cd4565b60405161070c9190613cac565b60405180910390f35b34801561072157600080fd5b5061072a612cec565b6040516107379190613cac565b60405180910390f35b34801561074c57600080fd5b50610767600480360381019061076291906146d9565b612cf2565b6040516107749190613d67565b60405180910390f35b34801561078957600080fd5b506107a4600480360381019061079f9190614719565b612d86565b005b60008073ffffffffffffffffffffffffffffffffffffffff168373ffffffffffffffffffffffffffffffffffffffff1603610816576040517f08c379a000000000000000000000000000000000000000000000000000000000815260040161080d90614822565b60405180910390fd5b60008083815260200190815260200160002060008473ffffffffffffffffffffffffffffffffffffffff1673ffffffffffffffffffffffffffffffffffffffff16815260200190815260200160002054905092915050565b60007fd9b67a26000000000000000000000000000000000000000000000000000000007bffffffffffffffffffffffffffffffffffffffffffffffffffffffff1916827bffffffffffffffffffffffffffffffffffffffffffffffffffffffff1916148061093957507f0e89341c000000000000000000000000000000000000000000000000000000007bffffffffffffffffffffffffffffffffffffffffffffffffffffffff1916827bffffffffffffffffffffffffffffffffffffffffffffffffffffffff1916145b80610949575061094882612e27565b5b9050919050565b60006063600460003373ffffffffffffffffffffffffffffffffffffffff1673ffffffffffffffffffffffffffffffffffffffff16815260200190815260200160002054146109d4576040517f08c379a00000000000000000000000000000000000000000000000000000000081526004016109cb9061488e565b60405180910390fd5b81600460008573ffffffffffffffffffffffffffffffffffffffff1673ffffffffffffffffffffffffffffffffffffffff168152602001908152602001600020819055506001905092915050565b606060028054610a31906148dd565b80601f0160208091040260200160405190810160405280929190818152602001828054610a5d906148dd565b8015610aaa5780601f10610a7f57610100808354040283529160200191610aaa565b820191906000526020600020905b815481529060010190602001808311610a8d57829003601f168201915b50505050509050919050565b600080620f424083610ac8919061493d565b905060158481548110610ade57610add614997565b5b906000526020600020906008020160010160009054906101000a900473ffffffffffffffffffffffffffffffffffffffff16601160006101000a81548173ffffffffffffffffffffffffffffffffffffffff021916908373ffffffffffffffffffffffffffffffffffffffff16021790555060158481548110610b6457610b63614997565b5b906000526020600020906008020160030160009054906101000a900473ffffffffffffffffffffffffffffffffffffffff16601260006101000a81548173ffffffffffffffffffffffffffffffffffffffff021916908373ffffffffffffffffffffffffffffffffffffffff16021790555080601260009054906101000a900473ffffffffffffffffffffffffffffffffffffffff1673ffffffffffffffffffffffffffffffffffffffff166370a08231336040518263ffffffff1660e01b8152600401610c32919061469c565b602060405180830381865afa158015610c4f573d6000803e3d6000fd5b505050506040513d601f19601f82011682018060405250810190610c7391906149db565b1015610c7e57600080fd5b60006013546064610c8f9190614a37565b610c9d6305f5e10084612e91565b610ca7919061493d565b90506000610ce58284610cba9190614a68565b60158881548110610cce57610ccd614997565b5b906000526020600020906008020160050154612e91565b905080601260009054906101000a900473ffffffffffffffffffffffffffffffffffffffff1673ffffffffffffffffffffffffffffffffffffffff166370a08231306040518263ffffffff1660e01b8152600401610d43919061469c565b602060405180830381865afa158015610d60573d6000803e3d6000fd5b505050506040513d601f19601f82011682018060405250810190610d8491906149db565b1015610d8f57600080fd5b601260009054906101000a900473ffffffffffffffffffffffffffffffffffffffff1673ffffffffffffffffffffffffffffffffffffffff166323b872dd3330866040518463ffffffff1660e01b8152600401610dee93929190614a9c565b6020604051808303816000875af1158015610e0d573d6000803e3d6000fd5b505050506040513d601f19601f82011682018060405250810190610e319190614ae8565b50601160009054906101000a900473ffffffffffffffffffffffffffffffffffffffff1673ffffffffffffffffffffffffffffffffffffffff166323b872dd3033846040518463ffffffff1660e01b8152600401610e9193929190614a9c565b6020604051808303816000875af1158015610eb0573d6000803e3d6000fd5b505050506040513d601f19601f82011682018060405250810190610ed49190614ae8565b508160146000828254610ee79190614b15565b925050819055506001935050505092915050565b600080620f424083610f0d919061493d565b905060158481548110610f2357610f22614997565b5b906000526020600020906008020160010160009054906101000a900473ffffffffffffffffffffffffffffffffffffffff16601160006101000a81548173ffffffffffffffffffffffffffffffffffffffff021916908373ffffffffffffffffffffffffffffffffffffffff16021790555060158481548110610fa957610fa8614997565b5b906000526020600020906008020160030160009054906101000a900473ffffffffffffffffffffffffffffffffffffffff16601260006101000a81548173ffffffffffffffffffffffffffffffffffffffff021916908373ffffffffffffffffffffffffffffffffffffffff16021790555080601160009054906101000a900473ffffffffffffffffffffffffffffffffffffffff1673ffffffffffffffffffffffffffffffffffffffff166370a08231336040518263ffffffff1660e01b8152600401611077919061469c565b602060405180830381865afa158015611094573d6000803e3d6000fd5b505050506040513d601f19601f820116820180604052508101906110b891906149db565b10156110c357600080fd5b600060135460646110d49190614a37565b6110e26305f5e10084612e91565b6110ec919061493d565b9050600081836110fc9190614a68565b601587815481106111105761110f614997565b5b90600052602060002090600802016005015461112c919061493d565b905080601260009054906101000a900473ffffffffffffffffffffffffffffffffffffffff1673ffffffffffffffffffffffffffffffffffffffff166370a08231306040518263ffffffff1660e01b815260040161118a919061469c565b602060405180830381865afa1580156111a7573d6000803e3d6000fd5b505050506040513d601f19601f820116820180604052508101906111cb91906149db565b10156111d657600080fd5b601160009054906101000a900473ffffffffffffffffffffffffffffffffffffffff1673ffffffffffffffffffffffffffffffffffffffff166323b872dd3330866040518463ffffffff1660e01b815260040161123593929190614a9c565b6020604051808303816000875af1158015611254573d6000803e3d6000fd5b505050506040513d601f19601f820116820180604052508101906112789190614ae8565b50601260009054906101000a900473ffffffffffffffffffffffffffffffffffffffff1673ffffffffffffffffffffffffffffffffffffffff166323b872dd3033846040518463ffffffff1660e01b81526004016112d893929190614a9c565b6020604051808303816000875af11580156112f7573d6000803e3d6000fd5b505050506040513d601f19601f8201168201806040525081019061131b9190614ae8565b50816014600082825461132e9190614b15565b925050819055506001935050505092915050565b600082600a60006101000a81548173ffffffffffffffffffffffffffffffffffffffff021916908373ffffffffffffffffffffffffffffffffffffffff160217905550600a60009054906101000a900473ffffffffffffffffffffffffffffffffffffffff1673ffffffffffffffffffffffffffffffffffffffff1663095ea7b330846040518363ffffffff1660e01b81526004016113e2929190614b6b565b6020604051808303816000875af1158015611401573d6000803e3d6000fd5b505050506040513d601f19601f820116820180604052508101906114259190614ae8565b506001905092915050565b60006001600c60003373ffffffffffffffffffffffffffffffffffffffff1673ffffffffffffffffffffffffffffffffffffffff16815260200190815260200160002060006101000a81548160ff0219169083151502179055506001600460003373ffffffffffffffffffffffffffffffffffffffff1673ffffffffffffffffffffffffffffffffffffffff1681526020019081526020016000208190555081600560003373ffffffffffffffffffffffffffffffffffffffff1673ffffffffffffffffffffffffffffffffffffffff168152602001908152602001600020908161151b9190614d40565b5060019050919050565b60606000600560003373ffffffffffffffffffffffffffffffffffffffff1673ffffffffffffffffffffffffffffffffffffffff168152602001908152602001600020600460003373ffffffffffffffffffffffffffffffffffffffff1673ffffffffffffffffffffffffffffffffffffffff168152602001908152602001600020548180546115b4906148dd565b80601f01602080910402602001604051908101604052809291908181526020018280546115e0906148dd565b801561162d5780601f106116025761010080835404028352916020019161162d565b820191906000526020600020905b81548152906001019060200180831161161057829003601f168201915b50505050509150915091509091565b600081600a60006101000a81548173ffffffffffffffffffffffffffffffffffffffff021916908373ffffffffffffffffffffffffffffffffffffffff160217905550600a60009054906101000a900473ffffffffffffffffffffffffffffffffffffffff1673ffffffffffffffffffffffffffffffffffffffff1663095ea7b330600a60009054906101000a900473ffffffffffffffffffffffffffffffffffffffff1673ffffffffffffffffffffffffffffffffffffffff166370a08231336040518263ffffffff1660e01b8152600401611719919061469c565b602060405180830381865afa158015611736573d6000803e3d6000fd5b505050506040513d601f19601f8201168201806040525081019061175a91906149db565b6040518363ffffffff1660e01b8152600401611777929190614b6b565b6020604051808303816000875af1158015611796573d6000803e3d6000fd5b505050506040513d601f19601f820116820180604052508101906117ba9190614ae8565b5060019050919050565b6117cc612ec2565b73ffffffffffffffffffffffffffffffffffffffff168573ffffffffffffffffffffffffffffffffffffffff16148061181257506118118561180c612ec2565b612cf2565b5b611851576040517f08c379a000000000000000000000000000000000000000000000000000000000815260040161184890614e84565b60405180910390fd5b61185e8585858585612eca565b5050505050565b60006015828154811061187b5761187a614997565b5b906000526020600020906008020160010160009054906101000a900473ffffffffffffffffffffffffffffffffffffffff16601160006101000a81548173ffffffffffffffffffffffffffffffffffffffff021916908373ffffffffffffffffffffffffffffffffffffffff1602179055506015828154811061190157611900614997565b5b906000526020600020906008020160030160009054906101000a900473ffffffffffffffffffffffffffffffffffffffff16601260006101000a81548173ffffffffffffffffffffffffffffffffffffffff021916908373ffffffffffffffffffffffffffffffffffffffff1602179055506000601160009054906101000a900473ffffffffffffffffffffffffffffffffffffffff1673ffffffffffffffffffffffffffffffffffffffff166370a08231306040518263ffffffff1660e01b81526004016119d0919061469c565b602060405180830381865afa1580156119ed573d6000803e3d6000fd5b505050506040513d601f19601f82011682018060405250810190611a1191906149db565b90506000601260009054906101000a900473ffffffffffffffffffffffffffffffffffffffff1673ffffffffffffffffffffffffffffffffffffffff166370a08231306040518263ffffffff1660e01b8152600401611a70919061469c565b602060405180830381865afa158015611a8d573d6000803e3d6000fd5b505050506040513d601f19601f82011682018060405250810190611ab191906149db565b90506000611abf8284612e91565b90506000611af360158781548110611ada57611ad9614997565b5b9060005260206000209060080201600501546001612e91565b9050600082611b03606484612e91565b611b0d919061493d565b90508095505050505050919050565b600c6020528060005260406000206000915054906101000a900460ff1681565b60608151835114611b82576040517f08c379a0000000000000000000000000000000000000000000000000000000008152600401611b7990614f16565b60405180910390fd5b6000835167ffffffffffffffff811115611b9f57611b9e613eb4565b5b604051908082528060200260200182016040528015611bcd5781602001602082028036833780820191505090505b50905060005b8451811015611c4a57611c1a858281518110611bf257611bf1614997565b5b6020026020010151858381518110611c0d57611c0c614997565b5b60200260200101516107a6565b828281518110611c2d57611c2c614997565b5b60200260200101818152505080611c4390614f36565b9050611bd3565b508091505092915050565b6000611c60846131dd565b611c72306016546305f5e100876131f0565b601560405180610100016040528060165481526020018573ffffffffffffffffffffffffffffffffffffffff168152602001633b9aca0081526020018473ffffffffffffffffffffffffffffffffffffffff1681526020018681526020016127108152602001620186a08152602001600081525090806001815401808255809150506001900390600052602060002090600802016000909190919091506000820151816000015560208201518160010160006101000a81548173ffffffffffffffffffffffffffffffffffffffff021916908373ffffffffffffffffffffffffffffffffffffffff1602179055506040820151816002015560608201518160030160006101000a81548173ffffffffffffffffffffffffffffffffffffffff021916908373ffffffffffffffffffffffffffffffffffffffff1602179055506080820151816004019081611dc69190614d40565b5060a0820151816005015560c0820151816006015560e08201518160070155505060166000815480929190611dfa90614f36565b9190505550600190509392505050565b60006063600460003373ffffffffffffffffffffffffffffffffffffffff1673ffffffffffffffffffffffffffffffffffffffff1681526020019081526020016000205414611e8e576040517f08c379a0000000000000000000000000000000000000000000000000000000008152600401611e859061488e565b60405180910390fd5b81600a60006101000a81548173ffffffffffffffffffffffffffffffffffffffff021916908373ffffffffffffffffffffffffffffffffffffffff160217905550600a60009054906101000a900473ffffffffffffffffffffffffffffffffffffffff1673ffffffffffffffffffffffffffffffffffffffff1663a9059cbb600360009054906101000a900473ffffffffffffffffffffffffffffffffffffffff16600a60009054906101000a900473ffffffffffffffffffffffffffffffffffffffff1673ffffffffffffffffffffffffffffffffffffffff166370a08231306040518263ffffffff1660e01b8152600401611f8b919061469c565b602060405180830381865afa158015611fa8573d6000803e3d6000fd5b505050506040513d601f19601f82011682018060405250810190611fcc91906149db565b6040518363ffffffff1660e01b8152600401611fe9929190614b6b565b6020604051808303816000875af1158015612008573d6000803e3d6000fd5b505050506040513d601f19601f8201168201806040525081019061202c9190614ae8565b5060019050919050565b60145481565b600080826120736305f5e1006015878154811061205c5761205b614997565b5b906000526020600020906008020160020154612e91565b61207d919061493d565b905060006015858154811061209557612094614997565b5b906000526020600020906008020160050154826120b2919061493d565b9050601585815481106120c8576120c7614997565b5b906000526020600020906008020160010160009054906101000a900473ffffffffffffffffffffffffffffffffffffffff16601160006101000a81548173ffffffffffffffffffffffffffffffffffffffff021916908373ffffffffffffffffffffffffffffffffffffffff1602179055506015858154811061214e5761214d614997565b5b906000526020600020906008020160030160009054906101000a900473ffffffffffffffffffffffffffffffffffffffff16601260006101000a81548173ffffffffffffffffffffffffffffffffffffffff021916908373ffffffffffffffffffffffffffffffffffffffff16021790555081601160009054906101000a900473ffffffffffffffffffffffffffffffffffffffff1673ffffffffffffffffffffffffffffffffffffffff166370a08231306040518263ffffffff1660e01b815260040161221c919061469c565b602060405180830381865afa158015612239573d6000803e3d6000fd5b505050506040513d601f19601f8201168201806040525081019061225d91906149db565b101561226857600080fd5b80601260009054906101000a900473ffffffffffffffffffffffffffffffffffffffff1673ffffffffffffffffffffffffffffffffffffffff166370a08231306040518263ffffffff1660e01b81526004016122c4919061469c565b602060405180830381865afa1580156122e1573d6000803e3d6000fd5b505050506040513d601f19601f8201168201806040525081019061230591906149db565b101561231057600080fd5b601160009054906101000a900473ffffffffffffffffffffffffffffffffffffffff1673ffffffffffffffffffffffffffffffffffffffff166323b872dd3033856040518463ffffffff1660e01b815260040161236f93929190614a9c565b6020604051808303816000875af115801561238e573d6000803e3d6000fd5b505050506040513d601f19601f820116820180604052508101906123b29190614ae8565b50601260009054906101000a900473ffffffffffffffffffffffffffffffffffffffff1673ffffffffffffffffffffffffffffffffffffffff166323b872dd3033846040518463ffffffff1660e01b815260040161241293929190614a9c565b6020604051808303816000875af1158015612431573d6000803e3d6000fd5b505050506040513d601f19601f820116820180604052508101906124559190614ae8565b5061253533306015888154811061246f5761246e614997565b5b9060005260206000209060080201600001548760158a8154811061249657612495614997565b5b906000526020600020906008020160040180546124b2906148dd565b80601f01602080910402602001604051908101604052809291908181526020018280546124de906148dd565b801561252b5780601f106125005761010080835404028352916020019161252b565b820191906000526020600020905b81548152906001019060200180831161250e57829003601f168201915b5050505050612d86565b836015868154811061254a57612549614997565b5b9060005260206000209060080201600701600082825461256a9190614a68565b9250508190555060019250505092915050565b6015818154811061258d57600080fd5b90600052602060002090600802016000915090508060000154908060010160009054906101000a900473ffffffffffffffffffffffffffffffffffffffff16908060020154908060030160009054906101000a900473ffffffffffffffffffffffffffffffffffffffff1690806004018054612608906148dd565b80601f0160208091040260200160405190810160405280929190818152602001828054612634906148dd565b80156126815780601f1061265657610100808354040283529160200191612681565b820191906000526020600020905b81548152906001019060200180831161266457829003601f168201915b5050505050908060050154908060060154908060070154905088565b60075481565b6126b56126ae612ec2565b8383613385565b5050565b600360009054906101000a900473ffffffffffffffffffffffffffffffffffffffff1681565b600080620f4240836126f1919061493d565b90506000816015868154811061270a57612709614997565b5b906000526020600020906008020160050154612726919061493d565b90506015858154811061273c5761273b614997565b5b906000526020600020906008020160010160009054906101000a900473ffffffffffffffffffffffffffffffffffffffff16601160006101000a81548173ffffffffffffffffffffffffffffffffffffffff021916908373ffffffffffffffffffffffffffffffffffffffff160217905550601585815481106127c2576127c1614997565b5b906000526020600020906008020160030160009054906101000a900473ffffffffffffffffffffffffffffffffffffffff16601260006101000a81548173ffffffffffffffffffffffffffffffffffffffff021916908373ffffffffffffffffffffffffffffffffffffffff16021790555081601160009054906101000a900473ffffffffffffffffffffffffffffffffffffffff1673ffffffffffffffffffffffffffffffffffffffff166370a08231336040518263ffffffff1660e01b8152600401612890919061469c565b602060405180830381865afa1580156128ad573d6000803e3d6000fd5b505050506040513d601f19601f820116820180604052508101906128d191906149db565b10156128dc57600080fd5b80601260009054906101000a900473ffffffffffffffffffffffffffffffffffffffff1673ffffffffffffffffffffffffffffffffffffffff166370a08231336040518263ffffffff1660e01b8152600401612938919061469c565b602060405180830381865afa158015612955573d6000803e3d6000fd5b505050506040513d601f19601f8201168201806040525081019061297991906149db565b101561298457600080fd5b601160009054906101000a900473ffffffffffffffffffffffffffffffffffffffff1673ffffffffffffffffffffffffffffffffffffffff166323b872dd3330856040518463ffffffff1660e01b81526004016129e393929190614a9c565b6020604051808303816000875af1158015612a02573d6000803e3d6000fd5b505050506040513d601f19601f82011682018060405250810190612a269190614ae8565b50601260009054906101000a900473ffffffffffffffffffffffffffffffffffffffff1673ffffffffffffffffffffffffffffffffffffffff166323b872dd3330846040518463ffffffff1660e01b8152600401612a8693929190614a9c565b6020604051808303816000875af1158015612aa5573d6000803e3d6000fd5b505050506040513d601f19601f82011682018060405250810190612ac99190614ae8565b50600082612b006305f5e10060158981548110612ae957612ae8614997565b5b906000526020600020906008020160020154612e91565b612b0a919061493d565b9050612beb303360158981548110612b2557612b24614997565b5b9060005260206000209060080201600001548460158b81548110612b4c57612b4b614997565b5b90600052602060002090600802016004018054612b68906148dd565b80601f0160208091040260200160405190810160405280929190818152602001828054612b94906148dd565b8015612be15780601f10612bb657610100808354040283529160200191612be1565b820191906000526020600020905b815481529060010190602001808311612bc457829003601f168201915b5050505050612d86565b8060158781548110612c0057612bff614997565b5b90600052602060002090600802016007016000828254612c209190614b15565b925050819055506001935050505092915050565b60056020528060005260406000206000915090508054612c53906148dd565b80601f0160208091040260200160405190810160405280929190818152602001828054612c7f906148dd565b8015612ccc5780601f10612ca157610100808354040283529160200191612ccc565b820191906000526020600020905b815481529060010190602001808311612caf57829003601f168201915b505050505081565b60046020528060005260406000206000915090505481565b60065481565b6000600160008473ffffffffffffffffffffffffffffffffffffffff1673ffffffffffffffffffffffffffffffffffffffff16815260200190815260200160002060008373ffffffffffffffffffffffffffffffffffffffff1673ffffffffffffffffffffffffffffffffffffffff16815260200190815260200160002060009054906101000a900460ff16905092915050565b612d8e612ec2565b73ffffffffffffffffffffffffffffffffffffffff168573ffffffffffffffffffffffffffffffffffffffff161480612dd45750612dd385612dce612ec2565b612cf2565b5b612e13576040517f08c379a0000000000000000000000000000000000000000000000000000000008152600401612e0a90614ff0565b60405180910390fd5b612e2085858585856134f1565b5050505050565b60007f01ffc9a7000000000000000000000000000000000000000000000000000000007bffffffffffffffffffffffffffffffffffffffffffffffffffffffff1916827bffffffffffffffffffffffffffffffffffffffffffffffffffffffff1916149050919050565b6000808284612ea09190615010565b9050828185612eaf9190614a68565b612eb99190614a37565b91505092915050565b600033905090565b8151835114612f0e576040517f08c379a0000000000000000000000000000000000000000000000000000000008152600401612f05906150b3565b60405180910390fd5b600073ffffffffffffffffffffffffffffffffffffffff168473ffffffffffffffffffffffffffffffffffffffff1603612f7d576040517f08c379a0000000000000000000000000000000000000000000000000000000008152600401612f7490615145565b60405180910390fd5b6000612f87612ec2565b9050612f97818787878787613772565b60005b8451811015613148576000858281518110612fb857612fb7614997565b5b602002602001015190506000858381518110612fd757612fd6614997565b5b60200260200101519050600080600084815260200190815260200160002060008b73ffffffffffffffffffffffffffffffffffffffff1673ffffffffffffffffffffffffffffffffffffffff16815260200190815260200160002054905081811015613078576040517f08c379a000000000000000000000000000000000000000000000000000000000815260040161306f906151d7565b60405180910390fd5b81810360008085815260200190815260200160002060008c73ffffffffffffffffffffffffffffffffffffffff1673ffffffffffffffffffffffffffffffffffffffff168152602001908152602001600020819055508160008085815260200190815260200160002060008b73ffffffffffffffffffffffffffffffffffffffff1673ffffffffffffffffffffffffffffffffffffffff168152602001908152602001600020600082825461312d9190614b15565b925050819055505050508061314190614f36565b9050612f9a565b508473ffffffffffffffffffffffffffffffffffffffff168673ffffffffffffffffffffffffffffffffffffffff168273ffffffffffffffffffffffffffffffffffffffff167f4a39dc06d4c0dbc64b70af90fd698a233a518aa5d07e595d983b8c0526c8f7fb87876040516131bf9291906151f7565b60405180910390a46131d581878787878761377a565b505050505050565b80600290816131ec9190615289565b5050565b600073ffffffffffffffffffffffffffffffffffffffff168473ffffffffffffffffffffffffffffffffffffffff160361325f576040517f08c379a0000000000000000000000000000000000000000000000000000000008152600401613256906153cd565b60405180910390fd5b6000613269612ec2565b905061328a8160008761327b88613951565b61328488613951565b87613772565b8260008086815260200190815260200160002060008773ffffffffffffffffffffffffffffffffffffffff1673ffffffffffffffffffffffffffffffffffffffff16815260200190815260200160002060008282546132e99190614b15565b925050819055508473ffffffffffffffffffffffffffffffffffffffff16600073ffffffffffffffffffffffffffffffffffffffff168273ffffffffffffffffffffffffffffffffffffffff167fc3d58168c5ae7397731d063d5bbf3d657854427343f4c083240f7aacaa2d0f6287876040516133679291906153ed565b60405180910390a461337e816000878787876139cb565b5050505050565b8173ffffffffffffffffffffffffffffffffffffffff168373ffffffffffffffffffffffffffffffffffffffff16036133f3576040517f08c379a00000000000000000000000000000000000000000000000000000000081526004016133ea90615488565b60405180910390fd5b80600160008573ffffffffffffffffffffffffffffffffffffffff1673ffffffffffffffffffffffffffffffffffffffff16815260200190815260200160002060008473ffffffffffffffffffffffffffffffffffffffff1673ffffffffffffffffffffffffffffffffffffffff16815260200190815260200160002060006101000a81548160ff0219169083151502179055508173ffffffffffffffffffffffffffffffffffffffff168373ffffffffffffffffffffffffffffffffffffffff167f17307eab39ab6107e8899845ad3d59bd9653f200f220920489ca2b5937696c31836040516134e49190613d67565b60405180910390a3505050565b600073ffffffffffffffffffffffffffffffffffffffff168473ffffffffffffffffffffffffffffffffffffffff1603613560576040517f08c379a000000000000000000000000000000000000000000000000000000000815260040161355790615145565b60405180910390fd5b600061356a612ec2565b905061358a81878761357b88613951565b61358488613951565b87613772565b600080600086815260200190815260200160002060008873ffffffffffffffffffffffffffffffffffffffff1673ffffffffffffffffffffffffffffffffffffffff16815260200190815260200160002054905083811015613621576040517f08c379a0000000000000000000000000000000000000000000000000000000008152600401613618906151d7565b60405180910390fd5b83810360008087815260200190815260200160002060008973ffffffffffffffffffffffffffffffffffffffff1673ffffffffffffffffffffffffffffffffffffffff168152602001908152602001600020819055508360008087815260200190815260200160002060008873ffffffffffffffffffffffffffffffffffffffff1673ffffffffffffffffffffffffffffffffffffffff16815260200190815260200160002060008282546136d69190614b15565b925050819055508573ffffffffffffffffffffffffffffffffffffffff168773ffffffffffffffffffffffffffffffffffffffff168373ffffffffffffffffffffffffffffffffffffffff167fc3d58168c5ae7397731d063d5bbf3d657854427343f4c083240f7aacaa2d0f6288886040516137539291906153ed565b60405180910390a46137698288888888886139cb565b50505050505050565b505050505050565b6137998473ffffffffffffffffffffffffffffffffffffffff16613ba2565b15613949578373ffffffffffffffffffffffffffffffffffffffff1663bc197c8187878686866040518663ffffffff1660e01b81526004016137df9594939291906154a8565b6020604051808303816000875af192505050801561381b57506040513d601f19601f820116820180604052508101906138189190615525565b60015b6138c05761382761555f565b806308c379a003613883575061383b615581565b806138465750613885565b806040517f08c379a000000000000000000000000000000000000000000000000000000000815260040161387a9190613e48565b60405180910390fd5b505b6040517f08c379a00000000000000000000000000000000000000000000000000000000081526004016138b790615683565b60405180910390fd5b63bc197c8160e01b7bffffffffffffffffffffffffffffffffffffffffffffffffffffffff1916817bffffffffffffffffffffffffffffffffffffffffffffffffffffffff191614613947576040517f08c379a000000000000000000000000000000000000000000000000000000000815260040161393e90615715565b60405180910390fd5b505b505050505050565b60606000600167ffffffffffffffff8111156139705761396f613eb4565b5b60405190808252806020026020018201604052801561399e5781602001602082028036833780820191505090505b50905082816000815181106139b6576139b5614997565b5b60200260200101818152505080915050919050565b6139ea8473ffffffffffffffffffffffffffffffffffffffff16613ba2565b15613b9a578373ffffffffffffffffffffffffffffffffffffffff1663f23a6e6187878686866040518663ffffffff1660e01b8152600401613a30959493929190615735565b6020604051808303816000875af1925050508015613a6c57506040513d601f19601f82011682018060405250810190613a699190615525565b60015b613b1157613a7861555f565b806308c379a003613ad45750613a8c615581565b80613a975750613ad6565b806040517f08c379a0000000000000000000000000000000000000000000000000000000008152600401613acb9190613e48565b60405180910390fd5b505b6040517f08c379a0000000000000000000000000000000000000000000000000000000008152600401613b0890615683565b60405180910390fd5b63f23a6e6160e01b7bffffffffffffffffffffffffffffffffffffffffffffffffffffffff1916817bffffffffffffffffffffffffffffffffffffffffffffffffffffffff191614613b98576040517f08c379a0000000000000000000000000000000000000000000000000000000008152600401613b8f90615715565b60405180910390fd5b505b505050505050565b600080823b905060008111915050919050565b6000604051905090565b600080fd5b600080fd5b600073ffffffffffffffffffffffffffffffffffffffff82169050919050565b6000613bf482613bc9565b9050919050565b613c0481613be9565b8114613c0f57600080fd5b50565b600081359050613c2181613bfb565b92915050565b6000819050919050565b613c3a81613c27565b8114613c4557600080fd5b50565b600081359050613c5781613c31565b92915050565b60008060408385031215613c7457613c73613bbf565b5b6000613c8285828601613c12565b9250506020613c9385828601613c48565b9150509250929050565b613ca681613c27565b82525050565b6000602082019050613cc16000830184613c9d565b92915050565b60007fffffffff0000000000000000000000000000000000000000000000000000000082169050919050565b613cfc81613cc7565b8114613d0757600080fd5b50565b600081359050613d1981613cf3565b92915050565b600060208284031215613d3557613d34613bbf565b5b6000613d4384828501613d0a565b91505092915050565b60008115159050919050565b613d6181613d4c565b82525050565b6000602082019050613d7c6000830184613d58565b92915050565b600060208284031215613d9857613d97613bbf565b5b6000613da684828501613c48565b91505092915050565b600081519050919050565b600082825260208201905092915050565b60005b83811015613de9578082015181840152602081019050613dce565b83811115613df8576000848401525b50505050565b6000601f19601f8301169050919050565b6000613e1a82613daf565b613e248185613dba565b9350613e34818560208601613dcb565b613e3d81613dfe565b840191505092915050565b60006020820190508181036000830152613e628184613e0f565b905092915050565b60008060408385031215613e8157613e80613bbf565b5b6000613e8f85828601613c48565b9250506020613ea085828601613c48565b9150509250929050565b600080fd5b600080fd5b7f4e487b7100000000000000000000000000000000000000000000000000000000600052604160045260246000fd5b613eec82613dfe565b810181811067ffffffffffffffff82111715613f0b57613f0a613eb4565b5b80604052505050565b6000613f1e613bb5565b9050613f2a8282613ee3565b919050565b600067ffffffffffffffff821115613f4a57613f49613eb4565b5b613f5382613dfe565b9050602081019050919050565b82818337600083830152505050565b6000613f82613f7d84613f2f565b613f14565b905082815260208101848484011115613f9e57613f9d613eaf565b5b613fa9848285613f60565b509392505050565b600082601f830112613fc657613fc5613eaa565b5b8135613fd6848260208601613f6f565b91505092915050565b600060208284031215613ff557613ff4613bbf565b5b600082013567ffffffffffffffff81111561401357614012613bc4565b5b61401f84828501613fb1565b91505092915050565b600060408201905081810360008301526140428185613e0f565b90506140516020830184613c9d565b9392505050565b60006020828403121561406e5761406d613bbf565b5b600061407c84828501613c12565b91505092915050565b600067ffffffffffffffff8211156140a05761409f613eb4565b5b602082029050602081019050919050565b600080fd5b60006140c96140c484614085565b613f14565b905080838252602082019050602084028301858111156140ec576140eb6140b1565b5b835b8181101561411557806141018882613c48565b8452602084019350506020810190506140ee565b5050509392505050565b600082601f83011261413457614133613eaa565b5b81356141448482602086016140b6565b91505092915050565b600067ffffffffffffffff82111561416857614167613eb4565b5b61417182613dfe565b9050602081019050919050565b600061419161418c8461414d565b613f14565b9050828152602081018484840111156141ad576141ac613eaf565b5b6141b8848285613f60565b509392505050565b600082601f8301126141d5576141d4613eaa565b5b81356141e584826020860161417e565b91505092915050565b600080600080600060a0868803121561420a57614209613bbf565b5b600061421888828901613c12565b955050602061422988828901613c12565b945050604086013567ffffffffffffffff81111561424a57614249613bc4565b5b6142568882890161411f565b935050606086013567ffffffffffffffff81111561427757614276613bc4565b5b6142838882890161411f565b925050608086013567ffffffffffffffff8111156142a4576142a3613bc4565b5b6142b0888289016141c0565b9150509295509295909350565b600067ffffffffffffffff8211156142d8576142d7613eb4565b5b602082029050602081019050919050565b60006142fc6142f7846142bd565b613f14565b9050808382526020820190506020840283018581111561431f5761431e6140b1565b5b835b8181101561434857806143348882613c12565b845260208401935050602081019050614321565b5050509392505050565b600082601f83011261436757614366613eaa565b5b81356143778482602086016142e9565b91505092915050565b6000806040838503121561439757614396613bbf565b5b600083013567ffffffffffffffff8111156143b5576143b4613bc4565b5b6143c185828601614352565b925050602083013567ffffffffffffffff8111156143e2576143e1613bc4565b5b6143ee8582860161411f565b9150509250929050565b600081519050919050565b600082825260208201905092915050565b6000819050602082019050919050565b61442d81613c27565b82525050565b600061443f8383614424565b60208301905092915050565b6000602082019050919050565b6000614463826143f8565b61446d8185614403565b935061447883614414565b8060005b838110156144a95781516144908882614433565b975061449b8361444b565b92505060018101905061447c565b5085935050505092915050565b600060208201905081810360008301526144d08184614458565b905092915050565b6000806000606084860312156144f1576144f0613bbf565b5b600084013567ffffffffffffffff81111561450f5761450e613bc4565b5b61451b86828701613fb1565b935050602061452c86828701613c12565b925050604061453d86828701613c12565b9150509250925092565b61455081613be9565b82525050565b600081519050919050565b600082825260208201905092915050565b600061457d82614556565b6145878185614561565b9350614597818560208601613dcb565b6145a081613dfe565b840191505092915050565b6000610100820190506145c1600083018b613c9d565b6145ce602083018a614547565b6145db6040830189613c9d565b6145e86060830188614547565b81810360808301526145fa8187614572565b905061460960a0830186613c9d565b61461660c0830185613c9d565b61462360e0830184613c9d565b9998505050505050505050565b61463981613d4c565b811461464457600080fd5b50565b60008135905061465681614630565b92915050565b6000806040838503121561467357614672613bbf565b5b600061468185828601613c12565b925050602061469285828601614647565b9150509250929050565b60006020820190506146b16000830184614547565b92915050565b600060208201905081810360008301526146d18184614572565b905092915050565b600080604083850312156146f0576146ef613bbf565b5b60006146fe85828601613c12565b925050602061470f85828601613c12565b9150509250929050565b600080600080600060a0868803121561473557614734613bbf565b5b600061474388828901613c12565b955050602061475488828901613c12565b945050604061476588828901613c48565b935050606061477688828901613c48565b925050608086013567ffffffffffffffff81111561479757614796613bc4565b5b6147a3888289016141c0565b9150509295509295909350565b7f455243313135353a2062616c616e636520717565727920666f7220746865207a60008201527f65726f2061646472657373000000000000000000000000000000000000000000602082015250565b600061480c602b83613dba565b9150614817826147b0565b604082019050919050565b6000602082019050818103600083015261483b816147ff565b9050919050565b7f796f75277265206e6f742061646d696e00000000000000000000000000000000600082015250565b6000614878601083613dba565b915061488382614842565b602082019050919050565b600060208201905081810360008301526148a78161486b565b9050919050565b7f4e487b7100000000000000000000000000000000000000000000000000000000600052602260045260246000fd5b600060028204905060018216806148f557607f821691505b602082108103614908576149076148ae565b5b50919050565b7f4e487b7100000000000000000000000000000000000000000000000000000000600052601160045260246000fd5b600061494882613c27565b915061495383613c27565b9250817fffffffffffffffffffffffffffffffffffffffffffffffffffffffffffffffff048311821515161561498c5761498b61490e565b5b828202905092915050565b7f4e487b7100000000000000000000000000000000000000000000000000000000600052603260045260246000fd5b6000815190506149d581613c31565b92915050565b6000602082840312156149f1576149f0613bbf565b5b60006149ff848285016149c6565b91505092915050565b7f4e487b7100000000000000000000000000000000000000000000000000000000600052601260045260246000fd5b6000614a4282613c27565b9150614a4d83613c27565b925082614a5d57614a5c614a08565b5b828204905092915050565b6000614a7382613c27565b9150614a7e83613c27565b925082821015614a9157614a9061490e565b5b828203905092915050565b6000606082019050614ab16000830186614547565b614abe6020830185614547565b614acb6040830184613c9d565b949350505050565b600081519050614ae281614630565b92915050565b600060208284031215614afe57614afd613bbf565b5b6000614b0c84828501614ad3565b91505092915050565b6000614b2082613c27565b9150614b2b83613c27565b9250827fffffffffffffffffffffffffffffffffffffffffffffffffffffffffffffffff03821115614b6057614b5f61490e565b5b828201905092915050565b6000604082019050614b806000830185614547565b614b8d6020830184613c9d565b9392505050565b60008190508160005260206000209050919050565b60006020601f8301049050919050565b600082821b905092915050565b600060088302614bf67fffffffffffffffffffffffffffffffffffffffffffffffffffffffffffffffff82614bb9565b614c008683614bb9565b95508019841693508086168417925050509392505050565b6000819050919050565b6000614c3d614c38614c3384613c27565b614c18565b613c27565b9050919050565b6000819050919050565b614c5783614c22565b614c6b614c6382614c44565b848454614bc6565b825550505050565b600090565b614c80614c73565b614c8b818484614c4e565b505050565b5b81811015614caf57614ca4600082614c78565b600181019050614c91565b5050565b601f821115614cf457614cc581614b94565b614cce84614ba9565b81016020851015614cdd578190505b614cf1614ce985614ba9565b830182614c90565b50505b505050565b600082821c905092915050565b6000614d1760001984600802614cf9565b1980831691505092915050565b6000614d308383614d06565b9150826002028217905092915050565b614d4982614556565b67ffffffffffffffff811115614d6257614d61613eb4565b5b614d6c82546148dd565b614d77828285614cb3565b600060209050601f831160018114614daa5760008415614d98578287015190505b614da28582614d24565b865550614e0a565b601f198416614db886614b94565b60005b82811015614de057848901518255600182019150602085019450602081019050614dbb565b86831015614dfd5784890151614df9601f891682614d06565b8355505b6001600288020188555050505b505050505050565b7f455243313135353a207472616e736665722063616c6c6572206973206e6f742060008201527f6f776e6572206e6f7220617070726f7665640000000000000000000000000000602082015250565b6000614e6e603283613dba565b9150614e7982614e12565b604082019050919050565b60006020820190508181036000830152614e9d81614e61565b9050919050565b7f455243313135353a206163636f756e747320616e6420696473206c656e67746860008201527f206d69736d617463680000000000000000000000000000000000000000000000602082015250565b6000614f00602983613dba565b9150614f0b82614ea4565b604082019050919050565b60006020820190508181036000830152614f2f81614ef3565b9050919050565b6000614f4182613c27565b91507fffffffffffffffffffffffffffffffffffffffffffffffffffffffffffffffff8203614f7357614f7261490e565b5b600182019050919050565b7f455243313135353a2063616c6c6572206973206e6f74206f776e6572206e6f7260008201527f20617070726f7665640000000000000000000000000000000000000000000000602082015250565b6000614fda602983613dba565b9150614fe582614f7e565b604082019050919050565b6000602082019050818103600083015261500981614fcd565b9050919050565b600061501b82613c27565b915061502683613c27565b92508261503657615035614a08565b5b828206905092915050565b7f455243313135353a2069647320616e6420616d6f756e7473206c656e6774682060008201527f6d69736d61746368000000000000000000000000000000000000000000000000602082015250565b600061509d602883613dba565b91506150a882615041565b604082019050919050565b600060208201905081810360008301526150cc81615090565b9050919050565b7f455243313135353a207472616e7366657220746f20746865207a65726f20616460008201527f6472657373000000000000000000000000000000000000000000000000000000602082015250565b600061512f602583613dba565b915061513a826150d3565b604082019050919050565b6000602082019050818103600083015261515e81615122565b9050919050565b7f455243313135353a20696e73756666696369656e742062616c616e636520666f60008201527f72207472616e7366657200000000000000000000000000000000000000000000602082015250565b60006151c1602a83613dba565b91506151cc82615165565b604082019050919050565b600060208201905081810360008301526151f0816151b4565b9050919050565b600060408201905081810360008301526152118185614458565b905081810360208301526152258184614458565b90509392505050565b60008190508160005260206000209050919050565b601f821115615284576152558161522e565b61525e84614ba9565b8101602085101561526d578190505b61528161527985614ba9565b830182614c90565b50505b505050565b61529282613daf565b67ffffffffffffffff8111156152ab576152aa613eb4565b5b6152b582546148dd565b6152c0828285615243565b600060209050601f8311600181146152f357600084156152e1578287015190505b6152eb8582614d24565b865550615353565b601f1984166153018661522e565b60005b8281101561532957848901518255600182019150602085019450602081019050615304565b868310156153465784890151615342601f891682614d06565b8355505b6001600288020188555050505b505050505050565b7f455243313135353a206d696e7420746f20746865207a65726f2061646472657360008201527f7300000000000000000000000000000000000000000000000000000000000000602082015250565b60006153b7602183613dba565b91506153c28261535b565b604082019050919050565b600060208201905081810360008301526153e6816153aa565b9050919050565b60006040820190506154026000830185613c9d565b61540f6020830184613c9d565b9392505050565b7f455243313135353a2073657474696e6720617070726f76616c2073746174757360008201527f20666f722073656c660000000000000000000000000000000000000000000000602082015250565b6000615472602983613dba565b915061547d82615416565b604082019050919050565b600060208201905081810360008301526154a181615465565b9050919050565b600060a0820190506154bd6000830188614547565b6154ca6020830187614547565b81810360408301526154dc8186614458565b905081810360608301526154f08185614458565b905081810360808301526155048184614572565b90509695505050505050565b60008151905061551f81613cf3565b92915050565b60006020828403121561553b5761553a613bbf565b5b600061554984828501615510565b91505092915050565b60008160e01c9050919050565b600060033d111561557e5760046000803e61557b600051615552565b90505b90565b600060443d1061560e57615593613bb5565b60043d036004823e80513d602482011167ffffffffffffffff821117156155bb57505061560e565b808201805167ffffffffffffffff8111156155d9575050505061560e565b80602083010160043d0385018111156155f657505050505061560e565b61560582602001850186613ee3565b82955050505050505b90565b7f455243313135353a207472616e7366657220746f206e6f6e204552433131353560008201527f526563656976657220696d706c656d656e746572000000000000000000000000602082015250565b600061566d603483613dba565b915061567882615611565b604082019050919050565b6000602082019050818103600083015261569c81615660565b9050919050565b7f455243313135353a204552433131353552656365697665722072656a6563746560008201527f6420746f6b656e73000000000000000000000000000000000000000000000000602082015250565b60006156ff602883613dba565b915061570a826156a3565b604082019050919050565b6000602082019050818103600083015261572e816156f2565b9050919050565b600060a08201905061574a6000830188614547565b6157576020830187614547565b6157646040830186613c9d565b6157716060830185613c9d565b81810360808301526157838184614572565b9050969550505050505056fea26469706673582212209f476bc315283a4281904d2e58f51b9c01c8d51cd0ccc63d65c8279a5430f80964736f6c634300080f00337b22757365726e616d65223a224073746572656f69696936222c22656d61696c223a22747970652e73746572656f40706d2e6d65227d",
  "immutableReferences": {},
  "source": "// SPDX-License-Identifier: GPL-3.0\n// // // // // // // // // // // // // // // // // // // // // // // // // // // // // // // // // // // // // // // // // // // // // // // // // // // // // // // // // // // // //\n//   \n//                                                 \n//      \n//      \n//\n// // // // // // // // // // // // // // // // // // // // // // // // // // // // // // // // // // // // // // // // // // // // // // // // // // // // // // // // // // // // //\n//                                                                                                                                                                                  //\n//                                                                                                                                                                                  //\n//                                                                                                                                                                                  //\n//                                                                                                                                                                                  //\n//                                                                                                                                                                                  //\n//      @artist ::          stereoIII6.eth                                                                                                                                          //\n//      @msg ::             stereoIII6.eth.chat                                                                                                                                     //\n//      @github ::          stereoIII6                                                                                                                                              //\n//                                                                                                                                                                                  //\n//      @dev ::             stereoIII6.eth                                                                                                                                          //\n//      @msg ::             stereoIII6.eth.chat                                                                                                                                     //\n//      @github ::          stereoIII6                                                                                                                                              //\n//                                                                                                                                                                                  //\n//      @author ::          stereoIII6.eth                                                                                                                                          //\n//      @msg ::             stereoIII6.eth.chat                                                                                                                                     //\n//      @github ::          stereoIII6                                                                                                                                              //\n//                                                                                                                                                                                  //\n//                                                                                                                                                                                  //\n//                                                                                                                                                                                  //\n// // // // // // // // // // // // // // // // // // // // // // // // // // // // // // // // // // // // // // // // // // // // // // // // // // // // // // // // // // // // //\n//                                                                                                                                                                                  //\n// // // // // // // // // // // // // // // // // // // // // // // // // // // // // // // // // // // // // // // // // // // // // // // // // // // // // // // // // // // // //\n//                                                                                                                                                                                  //\n//                                                                                                                                                                                  //\n//      @title ::           safe contract                                                                                                                                           //\n//      @description ::     Decentral Social Network Experiment                                                                                                                     //\n//      @version ::         0.0.1                                                                                                                                                   //\n//      @purpose ::         Bring real life into the Blockchain                                                                                                                     //\n//                                                                                                                                                                                  //\n//                                                                                                                                                                                  //\n//                                                                                                                                                                                  //\n//                                                                                                                                                                                  //\n//                                                                                                                                                                                  //\n// // // // // // // // // // // // // // // // // // // // // // // // // // // // // // // // // // // // // // // // // // // // // // // // // // // // // // // // // // // // //\n\npragma solidity ^0.8.0;\n\n// Open Zeppelin Imports\nimport \"@openzeppelin/contracts/token/ERC20/ERC20.sol\";\nimport \"@openzeppelin/contracts/token/ERC20/IERC20.sol\";\n\n// import \"@openzeppelin/contracts/token/ERC721/IERC721.sol\";\n// import \"@openzeppelin/contracts/token/ERC721/ERC721.sol\";\n\nimport \"@openzeppelin/contracts/token/ERC1155/ERC1155.sol\";\n// import \"@openzeppelin/contracts/token/ERC1155/IERC1155.sol\";\n\n// Chainlink Imports\n// import \"@chainlink/contracts/src/v0.8/VRFConsumerBase.sol\";\n\ncontract Init{\n    address public author = 0x1Cd6F4D329D38043a6bDB3665c3a7b06F79B5242;\n    mapping(address => uint256) public role;\n    mapping(address => bytes) public uData;\n    uint256 public maxSupply;\n    uint256 public availSupply;\n    uint256 rate;\n    uint256 digits = 1 * 10 ** 18;\n    IERC20 internal Token;\n    IERC20 internal MLQ;\n    mapping(address => bool) public isUser;\n    event Log(uint256 indexed id, address sender, address home, uint256 num, bytes message, uint256 stamp);\n    event Wait(uint256 indexed id, address sender, address home, uint256 num, bytes message, uint256 stamp);\n    uint256 logs;\n    modifier isAdmin() {\n        require(role[msg.sender] == 99, \"you're not admin\");\n        _;\n    }\n    modifier isOwner() {\n        require(author == msg.sender, \"you're not owner\");\n        _;\n    }\n    function changeRole(address _to, uint256 _role) external isAdmin() returns(bool){\n        role[_to] = _role;\n        return true;\n    }\n    function makeU(string memory _data) external returns(bool){\n        isUser[msg.sender] = true;\n        role[msg.sender] = 1;\n        uData[msg.sender] = bytes(_data);\n        return true;\n    }\n    function showU() external view returns(string memory, uint256){\n        return(string(uData[msg.sender]),role[msg.sender]);\n    }\n    function approveTokens(address _contract) external returns(bool){\n        Token = IERC20(_contract);\n        Token.approve(address(this),Token.balanceOf(msg.sender));\n        return true;\n    }\n    function approveTokenAmount(address _contract, uint256 _amnt) external returns(bool){\n        Token = IERC20(_contract);\n        Token.approve(address(this),_amnt);\n        return true;\n    }\n    function withdrawToken(address _contract) external isAdmin() returns(bool){\n        Token = IERC20(_contract);  \n        Token.transfer(author,Token.balanceOf(address(this)));\n        return true;\n    }\n    function divide(uint256 _a, uint256 _b) internal pure returns(uint256 res){\n        uint256 rem = _a % _b;\n        res = (_a - rem) / _b;\n    }\n    fallback() external{\n\n    }\n}\n\ncontract Trees is ERC20, Init{\n\n    constructor(address _mlq) ERC20(\"Impact Tree Token\", \"IMPCTrees\"){\n        require(msg.sender == author);\n        role[msg.sender] = 99;\n        uData[msg.sender] = bytes('{\"username\":\"@stereoiii6\",\"email\":\"type.stereo@pm.me\"}');\n        maxSupply = 5000000000000 * 10 ** 18;\n        emit Log(logs,msg.sender,address(this),999,bytes(\"contract created\"),block.timestamp);\n        rate = 35;\n        logs++;\n        MLQ = IERC20(_mlq);   \n    }\n\n    function plantTree(uint256 _amount) external payable returns(bool){\n        require(msg.value >= _amount * rate * 10 ** 12);\n        require(availSupply < maxSupply);\n        availSupply += msg.value*10000;\n        _mint(msg.sender, _amount * 10 ** 18);\n        emit Log(logs,msg.sender,address(this),_amount,bytes(\"trees minted\"),block.timestamp);\n        logs++;\n        return true;\n    }\n\n    function plantTreeMLQ(uint256 _amount) external payable returns(bool){\n        require(MLQ.balanceOf(msg.sender) >= 100 * _amount * rate * 10 ** 12);\n        require(availSupply < maxSupply);\n        MLQ.transferFrom(msg.sender,address(this), 100 * _amount * rate * 10 ** 12);\n        availSupply += msg.value*10000;\n        _mint(msg.sender, _amount * 10 ** 18);\n        emit Log(logs,msg.sender,address(this),_amount,bytes(\"trees minted\"),block.timestamp);\n        logs++;\n        return true;\n    }\n\n    function donateTrees(uint256 _amount) external returns(bool){\n        require(balanceOf(msg.sender) > _amount * 10 ** 18);\n        _burn(msg.sender, _amount * 10 ** 18);\n        emit Log(logs,msg.sender,address(this),_amount,bytes(\"trees burned\"),block.timestamp);\n        logs++;\n        return true;\n    }\n\n    function approveContract(address _contract) external returns(bool){\n        approve(_contract, balanceOf(msg.sender));\n        emit Log(logs,msg.sender,_contract,999,bytes(\"approve contract\"),block.timestamp);\n        logs++;\n        return true;\n    }\n\n    function trimTreesl(uint256 _newPrice) isAdmin() external returns(bool){\n        rate = _newPrice;\n        return true;\n    }\n\n    function withdraw(uint256 _eth, uint256 _tree) isAdmin() external returns(bool){\n        require(_tree * 10 ** 18 <= balanceOf(address(this)));\n        require(_eth * 10 ** 18 <= address(this).balance);\n        transfer(payable(author), _tree * 10 ** 18);\n        payable(author).transfer(_eth * 10 ** 18);\n        emit Log(logs,msg.sender,address(this),_tree,bytes(\"contract withdraw\"),block.timestamp);\n        logs++;\n        return true;\n    }\n}\n\ncontract Co2s is ERC20, Init {\n\n    IERC20 internal trees;\n\n    struct Bond{\n        uint256 id;\n        address adr;\n        uint256 amount;\n        uint256 region;\n        uint256 stamp;\n        uint256 duration;\n        uint256 co2;\n    }\n\n    mapping(address => uint256) public myBonds;\n    mapping(address => mapping(uint256 => uint256)) public myBondedCo2;\n\n    Bond[] public bonds;\n    uint256 c;\n    uint256 b;\n    uint256 per;\n    constructor(address _contract, uint256 _percent, address _mlq) ERC20(\"Carbon token\", \"CO2\"){\n        require(msg.sender == author);\n        role[msg.sender] = 99;\n        uData[msg.sender] = bytes('{\"username\":\"@stereoiii6\",\"email\":\"type.stereo@pm.me\"}');\n        maxSupply = 25000000000000 * 10 ** 18;\n        trees = IERC20(_contract);  \n        per = _percent;\n        emit Log(logs,msg.sender,address(this),_percent,bytes(\"contract created\"),block.timestamp);\n        MLQ = IERC20(_mlq);  \n        logs++;\n    }\n\n    function growTrees(uint256 _trees, uint256 _region, uint256 _duration) external payable returns(bool){\n        require(msg.value >= _trees * 10 ** 14 , \"not enough funds for asset\");\n        require(_trees <= trees.balanceOf(msg.sender), \"insufficient balance\");\n        require(5 * _trees * 10 ** 18 <= maxSupply - availSupply, \"insufficient supply\");\n        bonds.push(Bond(b ,msg.sender ,_trees * 10 ** 18 ,_region ,block.timestamp ,_duration ,5 * _trees * 10 ** 18));\n        availSupply += 5 * _trees * 10 ** 18;  \n        myBondedCo2[msg.sender][myBonds[msg.sender]] = b;\n        myBonds[msg.sender]++;\n        trees.transferFrom(msg.sender,payable(address(this)), _trees * 10 ** 18);\n        b++;\n        emit Log(logs,msg.sender,address(this),_trees,bytes(\"trees staked\"),block.timestamp);\n        logs++;\n        return true;\n    }\n\n    function growMoreTrees(uint256 _trees, uint256 _b) external payable returns(bool){\n        require(msg.value >= _trees * 10 ** 14);\n        require(_trees <= trees.balanceOf(msg.sender));\n        uint256 treez = _trees * 10 ** 18;\n        require(5 * treez <= maxSupply - availSupply);\n        uint256 p = divide(100,bonds[_b].amount) * treez;\n        bonds[_b].amount += treez;\n        bonds[_b].co2 += 5 * treez;\n        bonds[_b].duration += bonds[_b].duration * p;\n        uint256 fee = divide(treez,(100/per));\n        trees.transfer(payable(address(this)), treez - fee);\n        trees.transfer(payable(address(this)), fee);\n        emit Log(logs,msg.sender,address(this),_trees,bytes(\"trees addeed to stake\"),block.timestamp);\n        logs++;\n        return true;\n    }\n\n    function growLessTrees(uint256 _trees, uint256 _b) external payable returns(bool){\n        require(msg.value >= _trees * 10 ** 15);\n        uint256 treez = _trees * 10 ** 18;\n        require(treez <= bonds[myBondedCo2[msg.sender][myBonds[msg.sender]]].amount);\n        bonds[_b].amount -= treez;\n        bonds[_b].co2 -= 5 * treez; \n        uint256 fee = divide(treez,(100/per));\n        trees.transfer(payable(msg.sender), treez - fee);\n        trees.transfer(payable(address(this)), fee);\n        emit Log(logs,msg.sender,address(this),_trees,bytes(\"trees removed from stake\"),block.timestamp);\n        logs++;\n        return true;\n    }\n\n    function calcFreeCo2(uint256 _b) internal returns(uint256,uint256){\n        uint256 total = bonds[_b].duration * 60 * 60 * 24 * 365;\n        uint256 passed = block.timestamp - bonds[_b].stamp;\n        uint256 pDur = divide(100*10**18 , total) * passed;\n        uint256 freeCo2 = divide(100*10**18 , bonds[_b].co2) * pDur;\n        emit Log(logs,msg.sender,address(this),freeCo2,bytes(\"free co2 calculated\"),block.timestamp);\n        logs++;\n        return (freeCo2, passed);\n    }\n\n    function releaseFreeCo2(uint256 _m) external returns(bool){\n        uint256 _b = myBondedCo2[msg.sender][_m]; // get b_id\n        (uint256 free, uint256 passed) = calcFreeCo2(_b); // get free co2 & passed time\n        require(1 * 10 ** 18 <= free); // check amount\n        bonds[_b].co2 -= free;          // edit bonds data subtract\n        bonds[_b].stamp = block.timestamp;\n        uint256 addTime = divide(passed,(100 / per));\n        bonds[_b].duration += addTime;\n\n        uint256 fee = divide(free,(100/per));\n        _mint(msg.sender,(free - fee)); // mint free co2\n        _mint(address(this),fee);\n        emit Log(logs,msg.sender,address(this),free,bytes(\"free co2 minted\"),block.timestamp);\n        logs++;\n        return true;\n    }\n\n    function withdraw(uint256 _eth, uint256 _co2, uint256 _tree) isAdmin() external returns(bool){\n        require(_co2 * 10 ** 18 <= balanceOf(address(this)));\n        require(_tree * 10 ** 18 <= trees.balanceOf(address(this)));\n        require(_eth * 10 ** 18 <= address(this).balance);\n        transfer(payable(author), _co2 * 10 ** 18);\n        trees.transfer(payable(author), _tree * 10 ** 18);\n        payable(author).transfer(_eth * 10 ** 18);\n        emit Log(logs,msg.sender,address(this),999,bytes(\"contract fund balances 0\"),block.timestamp);\n        logs++;\n        return true;\n    }\n}\n\ncontract GardenPool is ERC1155, Init {\n    IERC20 internal TR3EZ;\n    IERC20 internal CO2;\n    IERC20 internal WETH;\n    IERC20 internal lowC;\n    IERC20 internal highC;\n    uint256 private per;\n    uint256 public collectedFees;\n    struct Garden{\n        uint256 id;\n        address low;\n        uint256 lowTotal;\n        address high;\n        bytes description;\n        uint256 low4high; \n        uint256 maxSize;\n        uint256 currentSize;\n    }\n    Garden[] public gardens;\n    uint256 g;\n    constructor(address _trees, address _co2, address _weth, uint256 _percent) ERC1155(\"IMgardens\") {\n        require(msg.sender == author);\n        role[msg.sender] = 99;\n        uData[msg.sender] = bytes('{\"username\":\"@stereoiii6\",\"email\":\"type.stereo@pm.me\"}');\n        TR3EZ = IERC20(_trees);\n        CO2 = IERC20(_co2);\n        WETH = IERC20(_weth);\n        per = _percent;\n        emit Log(logs,msg.sender,address(this),_percent,bytes(\"contract created\"),block.timestamp);\n        logs++;\n    }\n\n    function createGarden(string memory _name, address _hi, address _lo) external returns(bool){\n        _setURI(_name);\n        _mint(address(this),g,100*10**6,bytes(_name)); // 1 : 10 000 // 100 000 weth : 1 000 000 000 trees = 100% // 1 weth : 10 000 trees = 0,001% of max pool size\n        gardens.push(Garden(g,_hi,1000000000,_lo,bytes(_name),10000,100000,0));\n        g++;\n        return true;   \n    }\n\n    function addliquidity(uint256 _id, uint256 _low) external payable returns(bool){\n        uint256 low = _low * 10 ** 6;\n        uint256 high = gardens[_id].low4high * low;    \n        lowC = IERC20(gardens[_id].low);\n        highC = IERC20(gardens[_id].high);\n        require(lowC.balanceOf(msg.sender) >= low);\n        require(highC.balanceOf(msg.sender) >= high);\n        lowC.transferFrom(msg.sender, address(this), low);\n        highC.transferFrom(msg.sender, address(this), high);\n        uint256 gardenDrops = divide(100 * 10 ** 6 , gardens[_id].lowTotal) * low;\n        safeTransferFrom(address(this),msg.sender,gardens[_id].id,gardenDrops,gardens[_id].description);\n        gardens[_id].currentSize += gardenDrops;\n        return true;\n    }\n\n    function removeLiquidity(uint256 _id, uint256 _gardenDrops) external payable returns(bool){\n        uint256 low = divide(100 * 10 ** 6 , gardens[_id].lowTotal) * _gardenDrops;\n        uint256 high = low * gardens[_id].low4high;\n        lowC = IERC20(gardens[_id].low);\n        highC = IERC20(gardens[_id].high);\n        require(lowC.balanceOf(address(this)) >= low);\n        require(highC.balanceOf(address(this)) >= high);\n        lowC.transferFrom(address(this), msg.sender, low);\n        highC.transferFrom(address(this),msg.sender, high);\n        safeTransferFrom(msg.sender,address(this),gardens[_id].id,_gardenDrops,gardens[_id].description);\n        gardens[_id].currentSize -= _gardenDrops;\n        return true;\n    }\n\n    function swapLowHigh(uint256 _id, uint256 _low) external payable returns(bool){\n        uint256 low = _low * 10 ** 6;\n        lowC = IERC20(gardens[_id].low);\n        highC = IERC20(gardens[_id].high);\n        require(lowC.balanceOf(msg.sender) >= low);\n        uint256 fee = divide(100 * 10 ** 6, low) * (100/per);\n        uint256 get = gardens[_id].low4high * (low - fee);\n        require(highC.balanceOf(address(this)) >= get);\n        lowC.transferFrom(msg.sender, address(this), low);\n        highC.transferFrom( address(this), msg.sender, get);\n        collectedFees += fee;\n        return true;\n    }\n\n    function swapHighLow(uint256 _id, uint256 _high) external payable returns(bool){\n        uint256 high = _high * 10 ** 6;\n        lowC = IERC20(gardens[_id].low);\n        highC = IERC20(gardens[_id].high);\n        require(highC.balanceOf(msg.sender) >= high);\n        uint256 fee = divide(100 * 10 ** 6, high) * (100/per);\n        uint256 get = divide(high - fee ,gardens[_id].low4high);\n        require(highC.balanceOf(address(this)) >= get);\n        highC.transferFrom(msg.sender, address(this), high);\n        lowC.transferFrom(address(this), msg.sender, get);\n        collectedFees += fee;\n        return true;\n    }\n\n    function waterGardens(uint256 _id) external payable returns(uint256){\n        lowC = IERC20(gardens[_id].low);\n        highC = IERC20(gardens[_id].high);\n        uint256 lBal = lowC.balanceOf(address(this));\n        uint256 hBal = highC.balanceOf(address(this));\n        uint256 rRatio = divide(hBal , lBal);\n        uint256 eRatio = divide(gardens[_id].low4high, 1);\n        uint256 difRatio = divide(100,eRatio) * rRatio;\n        return difRatio;\n    }\n\n}",
  "sourcePath": "/Users/jediswag/Documents/GitHub/ourPlanet/contracts/Gardens.sol",
  "compiler": {
    "name": "solc",
    "version": "0.8.15+commit.e14f2714.Emscripten.clang"
  },
  "schemaVersion": "3.4.4",
  "updatedAt": "2022-06-17T08:51:22.820Z",
  "devdoc": {
    "kind": "dev",
    "methods": {
      "balanceOf(address,uint256)": {
        "details": "See {IERC1155-balanceOf}. Requirements: - `account` cannot be the zero address."
      },
      "balanceOfBatch(address[],uint256[])": {
        "details": "See {IERC1155-balanceOfBatch}. Requirements: - `accounts` and `ids` must have the same length."
      },
      "isApprovedForAll(address,address)": {
        "details": "See {IERC1155-isApprovedForAll}."
      },
      "safeBatchTransferFrom(address,address,uint256[],uint256[],bytes)": {
        "details": "See {IERC1155-safeBatchTransferFrom}."
      },
      "safeTransferFrom(address,address,uint256,uint256,bytes)": {
        "details": "See {IERC1155-safeTransferFrom}."
      },
      "setApprovalForAll(address,bool)": {
        "details": "See {IERC1155-setApprovalForAll}."
      },
      "supportsInterface(bytes4)": {
        "details": "See {IERC165-supportsInterface}."
      },
      "uri(uint256)": {
        "details": "See {IERC1155MetadataURI-uri}. This implementation returns the same URI for *all* token types. It relies on the token type ID substitution mechanism https://eips.ethereum.org/EIPS/eip-1155#metadata[defined in the EIP]. Clients calling this function must replace the `\\{id\\}` substring with the actual token type ID."
      }
    },
    "version": 1
  },
  "userdoc": {
    "kind": "user",
    "methods": {},
    "version": 1
  }
}