{
  "contractName": "Init",
  "abi": [
    {
      "inputs": [
        {
          "internalType": "address",
          "name": "_auth",
          "type": "address"
        },
        {
          "internalType": "address",
          "name": "_avx",
          "type": "address"
        }
      ],
      "stateMutability": "nonpayable",
      "type": "constructor"
    },
    {
      "anonymous": false,
      "inputs": [
        {
          "indexed": true,
          "internalType": "uint256",
          "name": "id",
          "type": "uint256"
        },
        {
          "indexed": false,
          "internalType": "address",
          "name": "sender",
          "type": "address"
        },
        {
          "indexed": false,
          "internalType": "address",
          "name": "home",
          "type": "address"
        },
        {
          "indexed": false,
          "internalType": "uint256",
          "name": "num",
          "type": "uint256"
        },
        {
          "indexed": false,
          "internalType": "bytes",
          "name": "message",
          "type": "bytes"
        },
        {
          "indexed": false,
          "internalType": "uint256",
          "name": "stamp",
          "type": "uint256"
        }
      ],
      "name": "Log",
      "type": "event"
    },
    {
      "anonymous": false,
      "inputs": [
        {
          "indexed": true,
          "internalType": "uint256",
          "name": "id",
          "type": "uint256"
        },
        {
          "indexed": false,
          "internalType": "address",
          "name": "sender",
          "type": "address"
        },
        {
          "indexed": false,
          "internalType": "address",
          "name": "home",
          "type": "address"
        },
        {
          "indexed": false,
          "internalType": "uint256",
          "name": "num",
          "type": "uint256"
        },
        {
          "indexed": false,
          "internalType": "bytes",
          "name": "message",
          "type": "bytes"
        },
        {
          "indexed": false,
          "internalType": "uint256",
          "name": "stamp",
          "type": "uint256"
        }
      ],
      "name": "Wait",
      "type": "event"
    },
    {
      "stateMutability": "nonpayable",
      "type": "fallback"
    },
    {
      "inputs": [],
      "name": "author",
      "outputs": [
        {
          "internalType": "address",
          "name": "",
          "type": "address"
        }
      ],
      "stateMutability": "view",
      "type": "function"
    },
    {
      "inputs": [],
      "name": "avax",
      "outputs": [
        {
          "internalType": "address",
          "name": "",
          "type": "address"
        }
      ],
      "stateMutability": "view",
      "type": "function"
    },
    {
      "inputs": [],
      "name": "lyxLive",
      "outputs": [
        {
          "internalType": "uint256",
          "name": "",
          "type": "uint256"
        }
      ],
      "stateMutability": "view",
      "type": "function"
    },
    {
      "inputs": [],
      "name": "lyxLocked",
      "outputs": [
        {
          "internalType": "uint256",
          "name": "",
          "type": "uint256"
        }
      ],
      "stateMutability": "view",
      "type": "function"
    },
    {
      "inputs": [],
      "name": "mlqLive",
      "outputs": [
        {
          "internalType": "uint256",
          "name": "",
          "type": "uint256"
        }
      ],
      "stateMutability": "view",
      "type": "function"
    },
    {
      "inputs": [],
      "name": "mlqLocked",
      "outputs": [
        {
          "internalType": "uint256",
          "name": "",
          "type": "uint256"
        }
      ],
      "stateMutability": "view",
      "type": "function"
    },
    {
      "inputs": [],
      "name": "mlqRate",
      "outputs": [
        {
          "internalType": "uint256",
          "name": "",
          "type": "uint256"
        }
      ],
      "stateMutability": "view",
      "type": "function"
    },
    {
      "inputs": [
        {
          "internalType": "address",
          "name": "",
          "type": "address"
        }
      ],
      "name": "role",
      "outputs": [
        {
          "internalType": "uint256",
          "name": "",
          "type": "uint256"
        }
      ],
      "stateMutability": "view",
      "type": "function"
    },
    {
      "inputs": [],
      "name": "roy",
      "outputs": [
        {
          "internalType": "uint256",
          "name": "",
          "type": "uint256"
        }
      ],
      "stateMutability": "view",
      "type": "function"
    },
    {
      "inputs": [
        {
          "internalType": "address",
          "name": "_contractAddress",
          "type": "address"
        },
        {
          "internalType": "uint256",
          "name": "_curr",
          "type": "uint256"
        }
      ],
      "name": "setTokenContract",
      "outputs": [
        {
          "internalType": "bool",
          "name": "",
          "type": "bool"
        }
      ],
      "stateMutability": "nonpayable",
      "type": "function"
    },
    {
      "inputs": [
        {
          "internalType": "address",
          "name": "",
          "type": "address"
        }
      ],
      "name": "uData",
      "outputs": [
        {
          "internalType": "bytes",
          "name": "",
          "type": "bytes"
        }
      ],
      "stateMutability": "view",
      "type": "function"
    },
    {
      "inputs": [],
      "name": "vyzLive",
      "outputs": [
        {
          "internalType": "uint256",
          "name": "",
          "type": "uint256"
        }
      ],
      "stateMutability": "view",
      "type": "function"
    },
    {
      "inputs": [],
      "name": "vyzLocked",
      "outputs": [
        {
          "internalType": "uint256",
          "name": "",
          "type": "uint256"
        }
      ],
      "stateMutability": "view",
      "type": "function"
    },
    {
      "inputs": [
        {
          "internalType": "address",
          "name": "_adr",
          "type": "address"
        }
      ],
      "name": "getRole",
      "outputs": [
        {
          "internalType": "uint256",
          "name": "",
          "type": "uint256"
        }
      ],
      "stateMutability": "view",
      "type": "function"
    },
    {
      "inputs": [
        {
          "internalType": "address",
          "name": "_adr",
          "type": "address"
        }
      ],
      "name": "isUserBool",
      "outputs": [
        {
          "internalType": "bool",
          "name": "",
          "type": "bool"
        }
      ],
      "stateMutability": "view",
      "type": "function"
    },
    {
      "inputs": [
        {
          "internalType": "address",
          "name": "_to",
          "type": "address"
        },
        {
          "internalType": "uint256",
          "name": "_role",
          "type": "uint256"
        },
        {
          "internalType": "string",
          "name": "_data",
          "type": "string"
        },
        {
          "internalType": "bool",
          "name": "_legit",
          "type": "bool"
        }
      ],
      "name": "editU",
      "outputs": [
        {
          "internalType": "bool",
          "name": "",
          "type": "bool"
        }
      ],
      "stateMutability": "nonpayable",
      "type": "function"
    },
    {
      "inputs": [
        {
          "internalType": "address",
          "name": "_to",
          "type": "address"
        }
      ],
      "name": "blackList",
      "outputs": [
        {
          "internalType": "bool",
          "name": "",
          "type": "bool"
        }
      ],
      "stateMutability": "nonpayable",
      "type": "function"
    },
    {
      "inputs": [
        {
          "internalType": "string",
          "name": "_data",
          "type": "string"
        }
      ],
      "name": "editMe",
      "outputs": [
        {
          "internalType": "bool",
          "name": "",
          "type": "bool"
        }
      ],
      "stateMutability": "nonpayable",
      "type": "function"
    },
    {
      "inputs": [
        {
          "internalType": "string",
          "name": "_data",
          "type": "string"
        }
      ],
      "name": "makeU",
      "outputs": [
        {
          "internalType": "bool",
          "name": "",
          "type": "bool"
        }
      ],
      "stateMutability": "nonpayable",
      "type": "function"
    },
    {
      "inputs": [],
      "name": "showU",
      "outputs": [
        {
          "internalType": "string",
          "name": "",
          "type": "string"
        },
        {
          "internalType": "uint256",
          "name": "",
          "type": "uint256"
        }
      ],
      "stateMutability": "view",
      "type": "function"
    },
    {
      "inputs": [
        {
          "internalType": "address",
          "name": "_to",
          "type": "address"
        }
      ],
      "name": "showAny",
      "outputs": [
        {
          "internalType": "string",
          "name": "",
          "type": "string"
        },
        {
          "internalType": "uint256",
          "name": "",
          "type": "uint256"
        }
      ],
      "stateMutability": "view",
      "type": "function"
    },
    {
      "inputs": [],
      "name": "MLQ_Address",
      "outputs": [
        {
          "internalType": "address",
          "name": "",
          "type": "address"
        }
      ],
      "stateMutability": "view",
      "type": "function"
    },
    {
      "inputs": [
        {
          "internalType": "address",
          "name": "_contract",
          "type": "address"
        }
      ],
      "name": "withdrawToken",
      "outputs": [
        {
          "internalType": "bool",
          "name": "",
          "type": "bool"
        }
      ],
      "stateMutability": "nonpayable",
      "type": "function"
    },
    {
      "inputs": [
        {
          "internalType": "uint256",
          "name": "_rl",
          "type": "uint256"
        },
        {
          "internalType": "address",
          "name": "_adr",
          "type": "address"
        }
      ],
      "name": "setRole",
      "outputs": [
        {
          "internalType": "uint256",
          "name": "",
          "type": "uint256"
        }
      ],
      "stateMutability": "nonpayable",
      "type": "function"
    },
    {
      "inputs": [
        {
          "internalType": "string",
          "name": "_data",
          "type": "string"
        },
        {
          "internalType": "address",
          "name": "_adr",
          "type": "address"
        }
      ],
      "name": "setUdata",
      "outputs": [
        {
          "internalType": "bytes",
          "name": "",
          "type": "bytes"
        }
      ],
      "stateMutability": "nonpayable",
      "type": "function"
    },
    {
      "inputs": [],
      "name": "isUdata",
      "outputs": [
        {
          "internalType": "bool",
          "name": "",
          "type": "bool"
        }
      ],
      "stateMutability": "nonpayable",
      "type": "function"
    },
    {
      "inputs": [],
      "name": "setLogs",
      "outputs": [],
      "stateMutability": "nonpayable",
      "type": "function"
    },
    {
      "inputs": [],
      "name": "getLogs",
      "outputs": [
        {
          "internalType": "uint256",
          "name": "",
          "type": "uint256"
        }
      ],
      "stateMutability": "nonpayable",
      "type": "function"
    }
  ],
  "bytecode": "0x60806040523480156200001157600080fd5b5060405162002b4738038062002b4783398181016040528101906200003791906200042b565b81601460006101000a81548173ffffffffffffffffffffffffffffffffffffffff021916908373ffffffffffffffffffffffffffffffffffffffff16021790555080601560006101000a81548173ffffffffffffffffffffffffffffffffffffffff021916908373ffffffffffffffffffffffffffffffffffffffff160217905550600160186000601460009054906101000a900473ffffffffffffffffffffffffffffffffffffffff1673ffffffffffffffffffffffffffffffffffffffff1673ffffffffffffffffffffffffffffffffffffffff16815260200190815260200160002060006101000a81548160ff021916908315150217905550606360166000601460009054906101000a900473ffffffffffffffffffffffffffffffffffffffff1673ffffffffffffffffffffffffffffffffffffffff1673ffffffffffffffffffffffffffffffffffffffff1681526020019081526020016000208190555060405180610100016040528060d3815260200162002a7460d3913960176000601460009054906101000a900473ffffffffffffffffffffffffffffffffffffffff1673ffffffffffffffffffffffffffffffffffffffff1673ffffffffffffffffffffffffffffffffffffffff1681526020019081526020016000209081620002249190620006ec565b50600160186000601560009054906101000a900473ffffffffffffffffffffffffffffffffffffffff1673ffffffffffffffffffffffffffffffffffffffff1673ffffffffffffffffffffffffffffffffffffffff16815260200190815260200160002060006101000a81548160ff021916908315150217905550606360166000601560009054906101000a900473ffffffffffffffffffffffffffffffffffffffff1673ffffffffffffffffffffffffffffffffffffffff1673ffffffffffffffffffffffffffffffffffffffff1681526020019081526020016000208190555060405180610100016040528060d3815260200162002a7460d3913960176000601560009054906101000a900473ffffffffffffffffffffffffffffffffffffffff1673ffffffffffffffffffffffffffffffffffffffff1673ffffffffffffffffffffffffffffffffffffffff1681526020019081526020016000209081620003909190620006ec565b50620003a36064620003ac60201b60201c565b505050620007d3565b60008160008190555081600054149050919050565b600080fd5b600073ffffffffffffffffffffffffffffffffffffffff82169050919050565b6000620003f382620003c6565b9050919050565b6200040581620003e6565b81146200041157600080fd5b50565b6000815190506200042581620003fa565b92915050565b60008060408385031215620004455762000444620003c1565b5b6000620004558582860162000414565b9250506020620004688582860162000414565b9150509250929050565b600081519050919050565b7f4e487b7100000000000000000000000000000000000000000000000000000000600052604160045260246000fd5b7f4e487b7100000000000000000000000000000000000000000000000000000000600052602260045260246000fd5b60006002820490506001821680620004f457607f821691505b6020821081036200050a5762000509620004ac565b5b50919050565b60008190508160005260206000209050919050565b60006020601f8301049050919050565b600082821b905092915050565b600060088302620005747fffffffffffffffffffffffffffffffffffffffffffffffffffffffffffffffff8262000535565b62000580868362000535565b95508019841693508086168417925050509392505050565b6000819050919050565b6000819050919050565b6000620005cd620005c7620005c18462000598565b620005a2565b62000598565b9050919050565b6000819050919050565b620005e983620005ac565b62000601620005f882620005d4565b84845462000542565b825550505050565b600090565b6200061862000609565b62000625818484620005de565b505050565b5b818110156200064d57620006416000826200060e565b6001810190506200062b565b5050565b601f8211156200069c57620006668162000510565b620006718462000525565b8101602085101562000681578190505b62000699620006908562000525565b8301826200062a565b50505b505050565b600082821c905092915050565b6000620006c160001984600802620006a1565b1980831691505092915050565b6000620006dc8383620006ae565b9150826002028217905092915050565b620006f78262000472565b67ffffffffffffffff8111156200071357620007126200047d565b5b6200071f8254620004db565b6200072c82828562000651565b600060209050601f8311600181146200076457600084156200074f578287015190505b6200075b8582620006ce565b865550620007cb565b601f198416620007748662000510565b60005b828110156200079e5784890151825560018201915060208501945060208101905062000777565b86831015620007be5784890151620007ba601f891682620006ae565b8355505b6001600288020188555050505b505050505050565b61229180620007e36000396000f3fe608060405234801561001057600080fd5b50600436106101c75760003560e01c806368465168116100f9578063a6c3e6b911610097578063b4676c9511610071578063b4676c951461053b578063b7187e351461056c578063d590f8c91461059c578063fe290ccb146105cc576101c8565b8063a6c3e6b9146104bd578063aa03f625146104db578063afece2691461050b576101c8565b806389476069116100d357806389476069146104335780638b6dc3dd1461046357806393f01e5614610481578063940b54a81461049f576101c8565b806368465168146103c757806368980256146103f757806386e2b51714610415576101c8565b80633323b227116101665780634427673311610140578063442767331461032b5780634838d1651461035b578063487c184c1461038b578063641f3d99146103a9576101c8565b80633323b227146102bf5780633a36c1fe146102dd57806342a6112b146102fb576101c8565b8063274daa35116101a2578063274daa35146102225780632abdee3c1461024157806330a25f301461025f57806330d313ce1461028f576101c8565b806253d555146101ca578063136f9904146101e8578063268b5227146101f2576101c8565b5b005b6101d26105ea565b6040516101df91906117ae565b60405180910390f35b6101f0610610565b005b61020c60048036038101906102079190611923565b61062a565b6040516102199190611987565b60405180910390f35b61022a610844565b604051610238929190611a43565b60405180910390f35b61024961095b565b6040516102569190611a73565b60405180910390f35b61027960048036038101906102749190611b12565b610961565b6040516102869190611987565b60405180910390f35b6102a960048036038101906102a49190611b95565b610b89565b6040516102b69190611987565b60405180910390f35b6102c7610bdf565b6040516102d49190611a73565b60405180910390f35b6102e5610be5565b6040516102f29190611a73565b60405180910390f35b61031560048036038101906103109190611bc2565b610beb565b6040516103229190611987565b60405180910390f35b61034560048036038101906103409190611b95565b610eda565b6040516103529190611a73565b60405180910390f35b61037560048036038101906103709190611b95565b610f23565b6040516103829190611987565b60405180910390f35b610393611008565b6040516103a09190611a73565b60405180910390f35b6103b161100e565b6040516103be9190611a73565b60405180910390f35b6103e160048036038101906103dc9190611923565b611014565b6040516103ee9190611987565b60405180910390f35b6103ff6110ef565b60405161040c91906117ae565b60405180910390f35b61041d6110f7565b60405161042a9190611a73565b60405180910390f35b61044d60048036038101906104489190611b95565b6110fd565b60405161045a9190611987565b60405180910390f35b61046b611307565b6040516104789190611a73565b60405180910390f35b61048961130d565b6040516104969190611987565b60405180910390f35b6104a7611361565b6040516104b49190611a73565b60405180910390f35b6104c5611367565b6040516104d291906117ae565b60405180910390f35b6104f560048036038101906104f09190611c02565b61138d565b6040516105029190611a73565b60405180910390f35b61052560048036038101906105209190611c42565b61145c565b6040516105329190611cf3565b60405180910390f35b61055560048036038101906105509190611b95565b611593565b604051610563929190611a43565b60405180910390f35b61058660048036038101906105819190611b95565b6116ab565b6040516105939190611cf3565b60405180910390f35b6105b660048036038101906105b19190611b95565b61174b565b6040516105c39190611a73565b60405180910390f35b6105d4611763565b6040516105e19190611a73565b60405180910390f35b601560009054906101000a900473ffffffffffffffffffffffffffffffffffffffff1681565b601a600081548092919061062390611d44565b9190505550565b6000801515601860003373ffffffffffffffffffffffffffffffffffffffff1673ffffffffffffffffffffffffffffffffffffffff16815260200190815260200160002060009054906101000a900460ff161515146106be576040517f08c379a00000000000000000000000000000000000000000000000000000000081526004016106b590611dd8565b60405180910390fd5b60001515601960003373ffffffffffffffffffffffffffffffffffffffff1673ffffffffffffffffffffffffffffffffffffffff16815260200190815260200160002060009054906101000a900460ff16151514610751576040517f08c379a000000000000000000000000000000000000000000000000000000000815260040161074890611e44565b60405180910390fd5b6001601860003373ffffffffffffffffffffffffffffffffffffffff1673ffffffffffffffffffffffffffffffffffffffff16815260200190815260200160002060006101000a81548160ff0219169083151502179055506001601660003373ffffffffffffffffffffffffffffffffffffffff1673ffffffffffffffffffffffffffffffffffffffff1681526020019081526020016000208190555081601760003373ffffffffffffffffffffffffffffffffffffffff1673ffffffffffffffffffffffffffffffffffffffff168152602001908152602001600020908161083a9190612070565b5060019050919050565b60606000601760003373ffffffffffffffffffffffffffffffffffffffff1673ffffffffffffffffffffffffffffffffffffffff168152602001908152602001600020601660003373ffffffffffffffffffffffffffffffffffffffff1673ffffffffffffffffffffffffffffffffffffffff168152602001908152602001600020548180546108d390611e93565b80601f01602080910402602001604051908101604052809291908181526020018280546108ff90611e93565b801561094c5780601f106109215761010080835404028352916020019161094c565b820191906000526020600020905b81548152906001019060200180831161092f57829003601f168201915b50505050509150915091509091565b60115481565b60006063601660003373ffffffffffffffffffffffffffffffffffffffff1673ffffffffffffffffffffffffffffffffffffffff16815260200190815260200160002054146109e5576040517f08c379a00000000000000000000000000000000000000000000000000000000081526004016109dc9061218e565b60405180910390fd5b81601860008773ffffffffffffffffffffffffffffffffffffffff1673ffffffffffffffffffffffffffffffffffffffff16815260200190815260200160002060006101000a81548160ff0219169083151502179055506000151582151503610aa1576001601960008773ffffffffffffffffffffffffffffffffffffffff1673ffffffffffffffffffffffffffffffffffffffff16815260200190815260200160002060006101000a81548160ff0219169083151502179055505b83601660008773ffffffffffffffffffffffffffffffffffffffff1673ffffffffffffffffffffffffffffffffffffffff1681526020019081526020016000208190555082601760008773ffffffffffffffffffffffffffffffffffffffff1673ffffffffffffffffffffffffffffffffffffffff1681526020019081526020016000209081610b319190612070565b50601860008673ffffffffffffffffffffffffffffffffffffffff1673ffffffffffffffffffffffffffffffffffffffff16815260200190815260200160002060009054906101000a900460ff169050949350505050565b6000601860008373ffffffffffffffffffffffffffffffffffffffff1673ffffffffffffffffffffffffffffffffffffffff16815260200190815260200160002060009054906101000a900460ff169050919050565b600e5481565b600d5481565b6000808203610c365782600360006101000a81548173ffffffffffffffffffffffffffffffffffffffff021916908373ffffffffffffffffffffffffffffffffffffffff1602179055505b60018203610c805782600260006101000a81548173ffffffffffffffffffffffffffffffffffffffff021916908373ffffffffffffffffffffffffffffffffffffffff1602179055505b60028203610cca5782600160006101000a81548173ffffffffffffffffffffffffffffffffffffffff021916908373ffffffffffffffffffffffffffffffffffffffff1602179055505b60038203610d145782600460006101000a81548173ffffffffffffffffffffffffffffffffffffffff021916908373ffffffffffffffffffffffffffffffffffffffff1602179055505b60048203610d5e5782600560006101000a81548173ffffffffffffffffffffffffffffffffffffffff021916908373ffffffffffffffffffffffffffffffffffffffff1602179055505b60058203610da85782600660006101000a81548173ffffffffffffffffffffffffffffffffffffffff021916908373ffffffffffffffffffffffffffffffffffffffff1602179055505b60068203610df25782600760006101000a81548173ffffffffffffffffffffffffffffffffffffffff021916908373ffffffffffffffffffffffffffffffffffffffff1602179055505b60078203610e3c5782600860006101000a81548173ffffffffffffffffffffffffffffffffffffffff021916908373ffffffffffffffffffffffffffffffffffffffff1602179055505b60088203610e865782600960006101000a81548173ffffffffffffffffffffffffffffffffffffffff021916908373ffffffffffffffffffffffffffffffffffffffff1602179055505b60098203610ed05782600a60006101000a81548173ffffffffffffffffffffffffffffffffffffffff021916908373ffffffffffffffffffffffffffffffffffffffff1602179055505b6001905092915050565b6000601660008373ffffffffffffffffffffffffffffffffffffffff1673ffffffffffffffffffffffffffffffffffffffff168152602001908152602001600020549050919050565b60006063601660003373ffffffffffffffffffffffffffffffffffffffff1673ffffffffffffffffffffffffffffffffffffffff1681526020019081526020016000205414610fa7576040517f08c379a0000000000000000000000000000000000000000000000000000000008152600401610f9e9061218e565b60405180910390fd5b6001601960008473ffffffffffffffffffffffffffffffffffffffff1673ffffffffffffffffffffffffffffffffffffffff16815260200190815260200160002060006101000a81548160ff02191690831515021790555060019050919050565b60125481565b600f5481565b6000601660003373ffffffffffffffffffffffffffffffffffffffff1673ffffffffffffffffffffffffffffffffffffffff16815260200190815260200160002054601660003373ffffffffffffffffffffffffffffffffffffffff1673ffffffffffffffffffffffffffffffffffffffff1681526020019081526020016000208190555081601760003373ffffffffffffffffffffffffffffffffffffffff1673ffffffffffffffffffffffffffffffffffffffff16815260200190815260200160002090816110e59190612070565b5060019050919050565b600030905090565b60105481565b60006063601660003373ffffffffffffffffffffffffffffffffffffffff1673ffffffffffffffffffffffffffffffffffffffff1681526020019081526020016000205414611181576040517f08c379a00000000000000000000000000000000000000000000000000000000081526004016111789061218e565b60405180910390fd5b81600b60006101000a81548173ffffffffffffffffffffffffffffffffffffffff021916908373ffffffffffffffffffffffffffffffffffffffff160217905550600b60009054906101000a900473ffffffffffffffffffffffffffffffffffffffff1673ffffffffffffffffffffffffffffffffffffffff1663a9059cbb33600b60009054906101000a900473ffffffffffffffffffffffffffffffffffffffff1673ffffffffffffffffffffffffffffffffffffffff166370a08231306040518263ffffffff1660e01b815260040161125c91906117ae565b602060405180830381865afa158015611279573d6000803e3d6000fd5b505050506040513d601f19601f8201168201806040525081019061129d91906121c3565b6040518363ffffffff1660e01b81526004016112ba9291906121f0565b6020604051808303816000875af11580156112d9573d6000803e3d6000fd5b505050506040513d601f19601f820116820180604052508101906112fd919061222e565b5060019050919050565b60005481565b6000601860003373ffffffffffffffffffffffffffffffffffffffff1673ffffffffffffffffffffffffffffffffffffffff16815260200190815260200160002060009054906101000a900460ff16905090565b60135481565b601460009054906101000a900473ffffffffffffffffffffffffffffffffffffffff1681565b60006063601660003373ffffffffffffffffffffffffffffffffffffffff1673ffffffffffffffffffffffffffffffffffffffff1681526020019081526020016000205414611411576040517f08c379a00000000000000000000000000000000000000000000000000000000081526004016114089061218e565b60405180910390fd5b82601660008473ffffffffffffffffffffffffffffffffffffffff1673ffffffffffffffffffffffffffffffffffffffff168152602001908152602001600020819055905092915050565b60606001601860008473ffffffffffffffffffffffffffffffffffffffff1673ffffffffffffffffffffffffffffffffffffffff16815260200190815260200160002060006101000a81548160ff02191690831515021790555082601760008473ffffffffffffffffffffffffffffffffffffffff1673ffffffffffffffffffffffffffffffffffffffff16815260200190815260200160002090816115029190612070565b805461150d90611e93565b80601f016020809104026020016040519081016040528092919081815260200182805461153990611e93565b80156115865780601f1061155b57610100808354040283529160200191611586565b820191906000526020600020905b81548152906001019060200180831161156957829003601f168201915b5050505050905092915050565b60606000601760008473ffffffffffffffffffffffffffffffffffffffff1673ffffffffffffffffffffffffffffffffffffffff168152602001908152602001600020601660008573ffffffffffffffffffffffffffffffffffffffff1673ffffffffffffffffffffffffffffffffffffffff1681526020019081526020016000205481805461162290611e93565b80601f016020809104026020016040519081016040528092919081815260200182805461164e90611e93565b801561169b5780601f106116705761010080835404028352916020019161169b565b820191906000526020600020905b81548152906001019060200180831161167e57829003601f168201915b5050505050915091509150915091565b601760205280600052604060002060009150905080546116ca90611e93565b80601f01602080910402602001604051908101604052809291908181526020018280546116f690611e93565b80156117435780601f1061171857610100808354040283529160200191611743565b820191906000526020600020905b81548152906001019060200180831161172657829003601f168201915b505050505081565b60166020528060005260406000206000915090505481565b6000601a54905090565b600073ffffffffffffffffffffffffffffffffffffffff82169050919050565b60006117988261176d565b9050919050565b6117a88161178d565b82525050565b60006020820190506117c3600083018461179f565b92915050565b6000604051905090565b600080fd5b600080fd5b600080fd5b600080fd5b6000601f19601f8301169050919050565b7f4e487b7100000000000000000000000000000000000000000000000000000000600052604160045260246000fd5b611830826117e7565b810181811067ffffffffffffffff8211171561184f5761184e6117f8565b5b80604052505050565b60006118626117c9565b905061186e8282611827565b919050565b600067ffffffffffffffff82111561188e5761188d6117f8565b5b611897826117e7565b9050602081019050919050565b82818337600083830152505050565b60006118c66118c184611873565b611858565b9050828152602081018484840111156118e2576118e16117e2565b5b6118ed8482856118a4565b509392505050565b600082601f83011261190a576119096117dd565b5b813561191a8482602086016118b3565b91505092915050565b600060208284031215611939576119386117d3565b5b600082013567ffffffffffffffff811115611957576119566117d8565b5b611963848285016118f5565b91505092915050565b60008115159050919050565b6119818161196c565b82525050565b600060208201905061199c6000830184611978565b92915050565b600081519050919050565b600082825260208201905092915050565b60005b838110156119dc5780820151818401526020810190506119c1565b838111156119eb576000848401525b50505050565b60006119fc826119a2565b611a0681856119ad565b9350611a168185602086016119be565b611a1f816117e7565b840191505092915050565b6000819050919050565b611a3d81611a2a565b82525050565b60006040820190508181036000830152611a5d81856119f1565b9050611a6c6020830184611a34565b9392505050565b6000602082019050611a886000830184611a34565b92915050565b611a978161178d565b8114611aa257600080fd5b50565b600081359050611ab481611a8e565b92915050565b611ac381611a2a565b8114611ace57600080fd5b50565b600081359050611ae081611aba565b92915050565b611aef8161196c565b8114611afa57600080fd5b50565b600081359050611b0c81611ae6565b92915050565b60008060008060808587031215611b2c57611b2b6117d3565b5b6000611b3a87828801611aa5565b9450506020611b4b87828801611ad1565b935050604085013567ffffffffffffffff811115611b6c57611b6b6117d8565b5b611b78878288016118f5565b9250506060611b8987828801611afd565b91505092959194509250565b600060208284031215611bab57611baa6117d3565b5b6000611bb984828501611aa5565b91505092915050565b60008060408385031215611bd957611bd86117d3565b5b6000611be785828601611aa5565b9250506020611bf885828601611ad1565b9150509250929050565b60008060408385031215611c1957611c186117d3565b5b6000611c2785828601611ad1565b9250506020611c3885828601611aa5565b9150509250929050565b60008060408385031215611c5957611c586117d3565b5b600083013567ffffffffffffffff811115611c7757611c766117d8565b5b611c83858286016118f5565b9250506020611c9485828601611aa5565b9150509250929050565b600081519050919050565b600082825260208201905092915050565b6000611cc582611c9e565b611ccf8185611ca9565b9350611cdf8185602086016119be565b611ce8816117e7565b840191505092915050565b60006020820190508181036000830152611d0d8184611cba565b905092915050565b7f4e487b7100000000000000000000000000000000000000000000000000000000600052601160045260246000fd5b6000611d4f82611a2a565b91507fffffffffffffffffffffffffffffffffffffffffffffffffffffffffffffffff8203611d8157611d80611d15565b5b600182019050919050565b7f6e6f742061207573657200000000000000000000000000000000000000000000600082015250565b6000611dc2600a836119ad565b9150611dcd82611d8c565b602082019050919050565b60006020820190508181036000830152611df181611db5565b9050919050565b7f626c61636b6c6973746564000000000000000000000000000000000000000000600082015250565b6000611e2e600b836119ad565b9150611e3982611df8565b602082019050919050565b60006020820190508181036000830152611e5d81611e21565b9050919050565b7f4e487b7100000000000000000000000000000000000000000000000000000000600052602260045260246000fd5b60006002820490506001821680611eab57607f821691505b602082108103611ebe57611ebd611e64565b5b50919050565b60008190508160005260206000209050919050565b60006020601f8301049050919050565b600082821b905092915050565b600060088302611f267fffffffffffffffffffffffffffffffffffffffffffffffffffffffffffffffff82611ee9565b611f308683611ee9565b95508019841693508086168417925050509392505050565b6000819050919050565b6000611f6d611f68611f6384611a2a565b611f48565b611a2a565b9050919050565b6000819050919050565b611f8783611f52565b611f9b611f9382611f74565b848454611ef6565b825550505050565b600090565b611fb0611fa3565b611fbb818484611f7e565b505050565b5b81811015611fdf57611fd4600082611fa8565b600181019050611fc1565b5050565b601f82111561202457611ff581611ec4565b611ffe84611ed9565b8101602085101561200d578190505b61202161201985611ed9565b830182611fc0565b50505b505050565b600082821c905092915050565b600061204760001984600802612029565b1980831691505092915050565b60006120608383612036565b9150826002028217905092915050565b61207982611c9e565b67ffffffffffffffff811115612092576120916117f8565b5b61209c8254611e93565b6120a7828285611fe3565b600060209050601f8311600181146120da57600084156120c8578287015190505b6120d28582612054565b86555061213a565b601f1984166120e886611ec4565b60005b82811015612110578489015182556001820191506020850194506020810190506120eb565b8683101561212d5784890151612129601f891682612036565b8355505b6001600288020188555050505b505050505050565b7f796f75277265206e6f742061646d696e00000000000000000000000000000000600082015250565b60006121786010836119ad565b915061218382612142565b602082019050919050565b600060208201905081810360008301526121a78161216b565b9050919050565b6000815190506121bd81611aba565b92915050565b6000602082840312156121d9576121d86117d3565b5b60006121e7848285016121ae565b91505092915050565b6000604082019050612205600083018561179f565b6122126020830184611a34565b9392505050565b60008151905061222881611ae6565b92915050565b600060208284031215612244576122436117d3565b5b600061225284828501612219565b9150509291505056fea2646970667358221220e0f07dad0b6a713e2821e1785fe64be44a6c037144de04ca75a00bd8042c922964736f6c634300080f00337b22757365726e616d65223a202273746572656f222c22757365726d61696c223a2022747970652e73746572656f40706d2e6d65222c227573657274656c223a20223030343931363331313037353432222c2275736572747774223a20224073746572656f49494936222c2275736572737461747573223a202269747320616c6c207265656c22202c2275736572617674223a20202268747470733a2f2f7777772e77337363686f6f6c732e636f6d2f7733696d616765732f617661746172322e706e67222c22726f6c65223a20223939227d",
  "immutableReferences": {},
  "source": "// SPDX-License-Identifier: GPL-3.0\n// // // // // // // // // // // // // // // // // // // // // // // // // // // // // // // // // // // // // // // // // // // // // // // // // // // // // // // // // // // // //\n//\n//              .d8888.  .d88b.  db    db d888888b d88888b d888888b db    db\n//              88'  YP .8P  88. `8b  d8'   `88'   88'     `~~88~~' `8b  d8'\n//              `8bo.   88  d'88  `8bd8'     88    88ooooo    88     `8bd8'\n//                `Y8b. 88 d' 88  .dPYb.     88    88~~~~~    88       88\n//              db   8D `88  d8' .8P  Y8.   .88.   88.        88       88\n//              `8888Y'  `Y88P'  YP    YP Y888888P Y88888P    YP       YP\n//\n// // // // // // // // // // // // // // // // // // // // // // // // // // // // // // // // // // // // // // // // // // // // // // // // // // // // // // // // // // // // //\n//                                                                                                                                                                                  //\n//      @dev            ::              stereoIII6.dao                                                                                                                                          //\n//      @msg            ::              type.stereo@pm.me                                                                                                                                    //\n//      @github         ::              @stereoIII6\n//      @twitter        ::              @stereoIII6                                                                                                                                              //\n//                                                                                                                                                                                  //\n// // // // // // // // // // // // // // // // // // // // // // // // // // // // // // // // // // // // // // // // // // // // // // // // // // // // // // // // // // // // //\n//                                                                                                                                                                                  //\n//      @dev            ::              Juan Xavier Valverde                                                                                                                                    //\n//      @msg            ::              juanxaviervm@hotmail.com                                                                                                                               //\n//      @twitter        ::              @JuanXavier                                                                                                                                             //\n//      @github         ::              @JuanXavier                                                                                                                                             //\n//                                                                                                                                                                                  //                                                                                                                                                                                 //\n// // // // // // // // // // // // // // // // // // // // // // // // // // // // // // // // // // // // // // // // // // // // // // // // // // // // // // // // // // // // //\n//  *   *   *   *   *   *   *   *   *   *   *   *   *   *   *   *   *   *   *   *   *   *   *   *   *   *   *   *   *   *   *   *   *   *   *   *   *   *   *   *   *   *   *   *   //\n// // // // // // // // // // // // // // // // // // // // // // // // // // // // // // // // // // // // // // // // // // // // // // // // // // // // // // // // // // // // //\n//                                                                                                                                                                                  //\n//                                                                                                                                                                                  //\n//      @title          ::              s0xiety Connect                                                                                                                             //\n//      @description    ::              decentral s0xiety                                                                                                                           //\n//      @version        ::              0.0.1                                                                                                                                       //\n//      @purpose        ::              Refer friennds on the blockchain                                                                                                            //\n//                                                                                                                                                                                  //\n//                                                                                                                                                                                  //\n//                                                                                                                                                                                  //\n//                                                                                                                                                                                  //\n//                                                                                                                                                                                  //\n// // // // // // // // // // // // // // // // // // // // // // // // // // // // // // // // // // // // // // // // // // // // // // // // // // // // // // // // // // // // //\n//  *   *   *   *   *   *   *   *   *   *   *   *   *   *   *   *   *   *   *   *   *   *   *   *   *   *   *   *   *   *   *   *   *   *   *   *   *   *   *   *   *   *   *   *   //\n// // // // // // // // // // // // // // // // // // // // // // // // // // // // // // // // // // // // // // // // // // // // // // // // // // // // // // // // // // // // //\n\npragma solidity ^0.8.7;\n\n// Open Zeppelin Imports\nimport \"@openzeppelin/contracts/utils/Counters.sol\";\nimport \"@openzeppelin/contracts/utils/Strings.sol\";\n\nimport \"@openzeppelin/contracts/token/ERC20/ERC20.sol\";\nimport \"@openzeppelin/contracts/token/ERC20/IERC20.sol\";\n\nimport \"@openzeppelin/contracts/token/ERC721/extensions/ERC721URIStorage.sol\";\nimport \"@openzeppelin/contracts/token/ERC721/ERC721.sol\";\nimport \"@openzeppelin/contracts/token/ERC721/IERC721.sol\";\n\nimport \"@openzeppelin/contracts/token/ERC1155/ERC1155.sol\";\n\n\n// // // // // // // // // // // // // // // // // // // // // // // // // // // // // // // // // // // // // // // // // // // // // // // // // // // // // // // // // // // // //\n//  *   *   *   *   *   *   *   *   *   *   *   *   *   *   *   *   *   *   *   *   *   *   *   *   *   *   *   *   *   *   *   *   *   *   *   *   *   *   *   *   *   *   *   *   //\n// // // // // // // // // // // // // // // // // // // // // // // // // // // // // // // // // // // // // // // // // // // // // // // // // // // // // // // // // // // // //\n// constant library fx                                                                                                                                                              //\n// // // // // // // // // // // // // // // // // // // // // // // // // // // // // // // // // // // // // // // // // // // // // // // // // // // // // // // // // // // // //\nlibrary fx {\n    uint256 constant weidig = 1 * 10**18;\n    uint256 constant findig = 1 * 10**14;\n    uint256 constant shqdig = 1 * 10**8;\n    uint256 public constant mlqMax = 3000000 * weidig;\n    uint256 public constant lyxMax = 300000000 * weidig;\n    uint256 public constant vyzMax = 30000000000 * weidig;\n    uint256 public constant shqMax = 100 * shqdig;\n    uint256 public constant initMlqRate = 100; // 1 ETH == (initMlqRate) MLQ\n    uint256 public constant lyxRate = 10000; // 1 ETH == (lyxRate) LYX\n    uint256 public constant vyzRate = 1000000; // 1 ETH == (vyzRate) VYZ\n    uint256 public constant minRoy = 10;\n    uint256 public constant maxRoy = 30;\n    uint256 public constant initRoy = 20;\n}\n\n// // // // // // // // // // // // // // // // // // // // // // // // // // // // // // // // // // // // // // // // // // // // // // // // // // // // // // // // // // // // //\n//  *   *   *   *   *   *   *   *   *   *   *   *   *   *   *   *   *   *   *   *   *   *   *   *   *   *   *   *   *   *   *   *   *   *   *   *   *   *   *   *   *   *   *   *   //\n// // // // // // // // // // // // // // // // // // // // // // // // // // // // // // // // // // // // // // // // // // // // // // // // // // // // // // // // // // // // //\n//                                                                                                                                                                                  //\n// // // // // // // // // // // // // // // // // // // // // // // // // // // // // // // // // // // // // // // // // // // // // // // // // // // // // // // // // // // // //\nlibrary sc {\n\n}\n\n// // // // // // // // // // // // // // // // // // // // // // // // // // // // // // // // // // // // // // // // // // // // // // // // // // // // // // // // // // // // //\n//  *   *   *   *   *   *   *   *   *   *   *   *   *   *   *   *   *   *   *   *   *   *   *   *   *   *   *   *   *   *   *   *   *   *   *   *   *   *   *   *   *   *   *   *   //\n// // // // // // // // // // // // // // // // // // // // // // // // // // // // // // // // // // // // // // // // // // // // // // // // // // // // // // // // // // // // //\n//                                                                                                                                                                                  //\n// // // // // // // // // // // // // // // // // // // // // // // // // // // // // // // // // // // // // // // // // // // // // // // // // // // // // // // // // // // // //\ncontract all {\n    using fx for *;\n    using sc for *;\n}\n\n// // // // // // // // // // // // // // // // // // // // // // // // // // // // // // // // // // // // // // // // // // // // // // // // // // // // // // // // // // // // //\n//  *   *   *   *   *   *   *   *   *   *   *   *   *   *   *   *   *   *   *   *   *   *   *   *   *   *   *   *   *   *   *   *   *   *   *   *   *   *   *   *   *   *   *   *   //\n// // // // // // // // // // // // // // // // // // // // // // // // // // // // // // // // // // // // // // // // // // // // // // // // // // // // // // // // // // // // //\n//                                                                                                                                                                                  //\n// // // // // // // // // // // // // // // // // // // // // // // // // // // // // // // // // // // // // // // // // // // // // // // // // // // // // // // // // // // // //\ncontract TokenomicSets is all {\n    uint256 public mlqRate; // is to be updated\n    IERC20 internal iMLQ;\n    IERC20 internal iWETH;\n    IERC20 internal iUSDC;\n    IERC20 internal iLYX;\n    IERC20 internal iVYZ;\n    IERC20 internal M_SHQ;\n    IERC20 internal L_SHQ;\n    IERC20 internal V_SHQ;\n    IERC20 internal X_SHQ;\n    IERC20 internal R_SHQ;\n    IERC20 internal Token20;\n    IERC721 internal Token721;\n\n    uint256 public mlqLive;\n    uint256 public lyxLive;\n    uint256 public vyzLive;\n    uint256 public mlqLocked;\n    uint256 public lyxLocked;\n    uint256 public vyzLocked;\n\n    uint256 public roy;\n\n    function setTokenContract(address _contractAddress, uint256 _curr)\n        external\n        returns (bool)\n    {\n        // curr == 0-usdc, 1-weth, 2-mlq, 3-lyx, 4-vyz, 5-mshk, 6-lshk, 7-vshk, 8-xshk, 9-rshk\n        if (_curr == 0) iUSDC = IERC20(_contractAddress);\n        if (_curr == 1) iWETH = IERC20(_contractAddress);\n        if (_curr == 2) iMLQ = IERC20(_contractAddress);\n        if (_curr == 3) iLYX = IERC20(_contractAddress);\n        if (_curr == 4) iVYZ = IERC20(_contractAddress);\n        if (_curr == 5) M_SHQ = IERC20(_contractAddress);\n        if (_curr == 6) L_SHQ = IERC20(_contractAddress);\n        if (_curr == 7) V_SHQ = IERC20(_contractAddress);\n        if (_curr == 8) X_SHQ = IERC20(_contractAddress);\n        if (_curr == 9) R_SHQ = IERC20(_contractAddress);\n        return true;\n    }\n\n    function setMlqRate(uint256 _newRate) internal returns (bool) {\n        mlqRate = _newRate;\n        return (mlqRate == _newRate);\n    }\n}\n\n// // // // // // // // // // // // // // // // // // // // // // // // // // // // // // // // // // // // // // // // // // // // // // // // // // // // // // // // // // // // //\n//  *   *   *   *   *   *   *   *   *   *   *   *   *   *   *   *   *   *   *   *   *   *   *   *   *   *   *   *   *   *   *   *   *   *   *   *   *   *   *   *   *   *   *   *   //\n// // // // // // // // // // // // // // // // // // // // // // // // // // // // // // // // // // // // // // // // // // // // // // // // // // // // // // // // // // // // //\n//                                                                                                                                                                                  //\n// // // // // // // // // // // // // // // // // // // // // // // // // // // // // // // // // // // // // // // // // // // // // // // // // // // // // // // // // // // // //\ncontract Init is TokenomicSets {\n    address public author;\n    address public avax;\n    mapping(address => uint256) public role;\n    mapping(address => bytes) public uData;\n\n    mapping(address => bool) internal isUser;\n    mapping(address => bool) internal blacklist;\n    event Log(\n        uint256 indexed id,\n        address sender,\n        address home,\n        uint256 num,\n        bytes message,\n        uint256 stamp\n    );\n    event Wait(\n        uint256 indexed id,\n        address sender,\n        address home,\n        uint256 num,\n        bytes message,\n        uint256 stamp\n    );\n    uint256 logs;\n    modifier isAdmin() {\n        require(role[msg.sender] == 99, \"you're not admin\");\n        _;\n    }\n    modifier isOwner() {\n        require(author == msg.sender || avax == msg.sender, \"you're not owner\");\n        _;\n    }\n\n    constructor(address _auth, address _avx) {\n        author = _auth;\n        avax = _avx;\n        isUser[author] = true;\n        role[author] = 99;\n        uData[author] = bytes(\n            '{\"username\": \"stereo\",\"usermail\": \"type.stereo@pm.me\",\"usertel\": \"00491631107542\",\"usertwt\": \"@stereoIII6\",\"userstatus\": \"its all reel\" ,\"useravt\":  \"https://www.w3schools.com/w3images/avatar2.png\",\"role\": \"99\"}'\n        );\n        isUser[avax] = true;\n        role[avax] = 99;\n        uData[avax] = bytes(\n            '{\"username\": \"stereo\",\"usermail\": \"type.stereo@pm.me\",\"usertel\": \"00491631107542\",\"usertwt\": \"@stereoIII6\",\"userstatus\": \"its all reel\" ,\"useravt\":  \"https://www.w3schools.com/w3images/avatar2.png\",\"role\": \"99\"}'\n        );\n        setMlqRate(fx.initMlqRate);\n    }\n\n    function getRole(address _adr) external view returns (uint256) {\n        return role[_adr];\n    }\n\n    function isUserBool(address _adr) external view returns (bool) {\n        return isUser[_adr];\n    }\n\n    function editU(\n        address _to,\n        uint256 _role,\n        string memory _data,\n        bool _legit\n    ) external isAdmin() returns (bool) {\n        isUser[_to] = _legit;\n        if (_legit == false) blacklist[_to] = true;\n        role[_to] = _role;\n        uData[_to] = bytes(_data);\n        return isUser[_to];\n    }\n\n    function blackList(address _to) external isAdmin returns (bool) {\n        blacklist[_to] = true;\n        return true;\n    }\n\n    function editMe(string memory _data) external returns (bool) {\n        role[msg.sender] = role[msg.sender];\n        uData[msg.sender] = bytes(_data);\n        return true;\n    }\n\n    function makeU(string memory _data) external returns (bool) {\n        require(isUser[msg.sender] == false, \"not a user\");\n        require(blacklist[msg.sender] == false, \"blacklisted\");\n        isUser[msg.sender] = true;\n        role[msg.sender] = 1;\n        uData[msg.sender] = bytes(_data);\n        return true;\n    }\n\n    function showU() external view returns (string memory, uint256) {\n        return (string(uData[msg.sender]), role[msg.sender]);\n    }\n\n    function showAny(address _to)\n        external\n        view\n        returns (string memory, uint256)\n    {\n        return (string(uData[_to]), role[_to]);\n    }\n\n    function MLQ_Address() external view returns (address) {\n        return address(this);\n    }\n\n    function withdrawToken(address _contract) external isAdmin returns (bool) {\n        Token20 = IERC20(_contract);\n        Token20.transfer(msg.sender, Token20.balanceOf(address(this)));\n        return true;\n    }\n\n    function setRole(uint256 _rl, address _adr) isAdmin() external returns (uint256) {\n        return role[_adr] = _rl;\n    }\n\n    function setUdata(string memory _data, address _adr)\n        external\n        returns (bytes memory)\n    {\n        isUser[_adr] = true;\n        return uData[_adr] = bytes(_data);\n    }\n\n    function isUdata() external returns (bool) {\n        return isUser[msg.sender];\n    }\n\n    function setLogs() external {\n        logs++;\n    }\n\n    function getLogs() external returns (uint256) {\n        return logs;\n    }\n\n    function divide(uint256 _a, uint256 _b)\n        internal\n        pure\n        returns (uint256 res)\n    {\n        uint256 rem = _a % _b;\n        res = (_a - rem) / _b;\n    }\n\n    fallback() external {}\n}\n\n// // // // // // // // // // // // // // // // // // // // // // // // // // // // // // // // // // // // // // // // // // // // // // // // // // // // // // // // // // // // //\n//  *   *   *   *   *   *   *   *   *   *   *   *   *   *   *   *   *   *   *   *   *   *   *   *   *   *   *   *   *   *   *   *   *   *   *   *   *   *   *   *   *   *   *   *   //\n// // // // // // // // // // // // // // // // // // // // // // // // // // // // // // // // // // // // // // // // // // // // // // // // // // // // // // // // // // // // //\n//                                                                                                                                                                                  //\n// // // // // // // // // // // // // // // // // // // // // // // // // // // // // // // // // // // // // // // // // // // // // // // // // // // // // // // // // // // // //\ncontract InitFace {\n    Init public init;\n   \n    constructor(address _initAdr) {\n        init = Init(_initAdr);\n    }\n}\n\n// // // // // // // // // // // // // // // // // // // // // // // // // // // // // // // // // // // // // // // // // // // // // // // // // // // // // // // // // // // // //\n//  *   *   *   *   *   *   *   *   *   *   *   *   *   *   *   *   *   *   *   *   *   *   *   *   *   *   *   *   *   *   *   *   *   *   *   *   *   *   *   *   *   *   *   *   //\n// // // // // // // // // // // // // // // // // // // // // // // // // // // // // // // // // // // // // // // // // // // // // // // // // // // // // // // // // // // // //\n//                                                                                                                                                                                  //\n// // // // // // // // // // // // // // // // // // // // // // // // // // // // // // // // // // // // // // // // // // // // // // // // // // // // // // // // // // // // //\ncontract MLQ is ERC20, Init {\n    uint256 rate;\n    uint256 maxSupply;\n\n    constructor(address _auth, address _avax)\n        ERC20(\"Milq Token\", \"MLQ\")\n        Init(_auth, _avax)\n    {\n        require(msg.sender == author);\n        role[msg.sender] = 99;\n        uData[msg.sender] = bytes(\n            '{\"username\":\"@stereoiii6\",\"email\":\"type.stereo@pm.me\"}'\n        );\n        maxSupply = fx.mlqMax;\n        rate = fx.initMlqRate;\n        // mint(5000);\n    }\n    function balanceOfU(address _u) external returns(uint256){\n        return balanceOf(_u);\n    }\n    function mint(uint256 _amount) internal isOwner returns (bool) {\n        uint256 ts = totalSupply();\n        require((_amount * 10**18) <= maxSupply - ts);\n        _mint(address(this), rate * _amount * 10**18);\n        return true;\n    }\n\n    function buy() external payable returns (bool) {\n        uint256 ts = totalSupply();\n        require((msg.value * rate) <= maxSupply - ts, \"supply\");\n        require(msg.value > 0, \"value\");\n\n        _mint(msg.sender, msg.value * rate);\n        return true;\n    }\n\n    function showSafeWallet() external view isAdmin() returns (uint256, uint256) {\n        return (address(this).balance, balanceOf(address(this)));\n    }\n\n    function withdraw(uint256 _eth, uint256 _mlq)\n        external\n        isAdmin\n        returns (bool)\n    {\n        require(_mlq * 10**18 <= balanceOf(address(this)));\n        require(_eth * 10**18 <= address(this).balance);\n        transfer(payable(author), _mlq * 10**18);\n        payable(author).transfer(_eth * 10**18);\n        return true;\n    }\n}\n\n// Open Zeppelin Imports\n\n\n\ncontract Trees is ERC20, Init {\n    uint256 maxSupply;\n    uint256 rate;\n    uint256 availSupply;\n    MLQ mlq;\n    constructor(address _mlq, address _auth, address _avax) ERC20(\"Impact Tree Token\", \"IMPCTrees\") Init(_auth, _avax){\n        require(msg.sender == author);\n        role[msg.sender] = 99;\n        uData[msg.sender] = bytes('{\"username\":\"@stereoiii6\",\"email\":\"type.stereo@pm.me\"}');\n        maxSupply = 5000000000000 * 10 ** 18;\n        emit Log(logs,msg.sender,address(this),999,bytes(\"contract created\"),block.timestamp);\n        rate = 35;\n        logs++;\n        mlq = MLQ(_mlq);   \n    }\n\n    function plantTree(uint256 _amount) external payable returns(bool){\n        require(msg.value >= _amount * rate * 10 ** 12);\n        require(availSupply < maxSupply);\n        availSupply += msg.value*10000;\n        _mint(msg.sender, _amount * 10 ** 18);\n        emit Log(logs,msg.sender,address(this),_amount,bytes(\"trees minted\"),block.timestamp);\n        logs++;\n        return true;\n    }\n\n    function plantTreeMLQ(uint256 _amount) external payable returns(bool){\n        require(mlq.balanceOfU(msg.sender) >= 100 * _amount * rate * 10 ** 12);\n        require(availSupply < maxSupply);\n        mlq.transferFrom(msg.sender,address(this), 100 * _amount * rate * 10 ** 12);\n        availSupply += msg.value*10000;\n        _mint(msg.sender, _amount * 10 ** 18);\n        emit Log(logs,msg.sender,address(this),_amount,bytes(\"trees minted\"),block.timestamp);\n        logs++;\n        return true;\n    }\n\n    function donateTrees(uint256 _amount) isAdmin() external returns(bool){\n        require(balanceOf(msg.sender) > _amount * 10 ** 18);\n        _burn(msg.sender, _amount * 10 ** 18);\n        emit Log(logs,msg.sender,address(this),_amount,bytes(\"trees burned\"),block.timestamp);\n        logs++;\n        return true;\n    }\n\n    function approveContract(address _contract) isAdmin() external returns(bool){\n        approve(_contract, balanceOf(msg.sender));\n        emit Log(logs,msg.sender,_contract,999,bytes(\"approve contract\"),block.timestamp);\n        logs++;\n        return true;\n    }\n\n    function trimTrees(uint256 _newPrice) external returns(uint256){\n        rate = _newPrice;\n        return rate;\n    }\n\n    function withdraw(uint256 _eth, uint256 _tree) isAdmin() external returns(bool){\n        require(_tree * 10 ** 18 <= balanceOf(address(this)));\n        require(_eth * 10 ** 18 <= address(this).balance);\n        transfer(payable(author), _tree * 10 ** 18);\n        payable(author).transfer(_eth * 10 ** 18);\n        emit Log(logs,msg.sender,address(this),_tree,bytes(\"contract withdraw\"),block.timestamp);\n        logs++;\n        return true;\n    }\n}\n\ncontract Co2s is ERC20, Init  {\n\n    IERC20 internal trees;\n    MLQ mlq;\n    uint256 maxSupply;\n    uint256 rate;\n    uint256 availSupply;\n    struct Bond{\n        uint256 id;\n        address adr;\n        uint256 amount;\n        uint256 region;\n        uint256 stamp;\n        uint256 duration;\n        uint256 co2;\n    }\n\n    mapping(address => uint256) public myBonds;\n    mapping(address => mapping(uint256 => uint256)) public myBondedCo2;\n\n    Bond[] public bonds;\n    uint256 c;\n    uint256 b;\n    uint256 per;\n    constructor(address _contract, uint256 _percent, address _mlq, address _init, address _auth, address _avax) ERC20(\"Carbon token\", \"CO2\") Init(_auth, _avax){\n        require(msg.sender == author);\n        role[msg.sender] = 99;\n        uData[msg.sender] = bytes('{\"username\":\"@stereoiii6\",\"email\":\"type.stereo@pm.me\"}');\n        maxSupply = 25000000000000 * 10 ** 18;\n        trees = IERC20(_contract);  \n        per = _percent;\n        emit Log(logs,msg.sender,address(this),_percent,bytes(\"contract created\"),block.timestamp);\n        mlq = MLQ(_mlq);  \n        logs++;\n    }\n\n    function growTrees(uint256 _trees, uint256 _region, uint256 _duration) external payable returns(bool){\n        require(msg.value >= _trees * 10 ** 14 , \"not enough funds for asset\");\n        require(_trees <= trees.balanceOf(msg.sender), \"insufficient balance\");\n        require(5 * _trees * 10 ** 18 <= maxSupply - availSupply, \"insufficient supply\");\n        bonds.push(Bond(b ,msg.sender ,_trees * 10 ** 18 ,_region ,block.timestamp ,_duration ,5 * _trees * 10 ** 18));\n        availSupply += 5 * _trees * 10 ** 18;  \n        myBondedCo2[msg.sender][myBonds[msg.sender]] = b;\n        myBonds[msg.sender]++;\n        trees.transferFrom(msg.sender,payable(address(this)), _trees * 10 ** 18);\n        b++;\n        emit Log(logs,msg.sender,address(this),_trees,bytes(\"trees staked\"),block.timestamp);\n        logs++;\n        return true;\n    }\n\n    function growMoreTrees(uint256 _trees, uint256 _b) external payable returns(bool){\n        require(msg.value >= _trees * 10 ** 14);\n        require(_trees <= trees.balanceOf(msg.sender));\n        uint256 treez = _trees * 10 ** 18;\n        require(5 * treez <= maxSupply - availSupply);\n        uint256 p = divide(100,bonds[_b].amount) * treez;\n        bonds[_b].amount += treez;\n        bonds[_b].co2 += 5 * treez;\n        bonds[_b].duration += bonds[_b].duration * p;\n        uint256 fee = divide(treez,(100/per));\n        trees.transfer(payable(address(this)), treez - fee);\n        trees.transfer(payable(address(this)), fee);\n        emit Log(logs,msg.sender,address(this),_trees,bytes(\"trees addeed to stake\"),block.timestamp);\n        logs++;\n        return true;\n    }\n\n    function growLessTrees(uint256 _trees, uint256 _b) external payable returns(bool){\n        require(msg.value >= _trees * 10 ** 15);\n        uint256 treez = _trees * 10 ** 18;\n        require(treez <= bonds[myBondedCo2[msg.sender][myBonds[msg.sender]]].amount);\n        bonds[_b].amount -= treez;\n        bonds[_b].co2 -= 5 * treez; \n        uint256 fee = divide(treez,(100/per));\n        trees.transfer(payable(msg.sender), treez - fee);\n        trees.transfer(payable(address(this)), fee);\n        emit Log(logs,msg.sender,address(this),_trees,bytes(\"trees removed from stake\"),block.timestamp);\n        logs++;\n        return true;\n    }\n\n    function calcFreeCo2(uint256 _b) internal returns(uint256,uint256){\n        uint256 total = bonds[_b].duration * 60 * 60 * 24 * 365;\n        uint256 passed = block.timestamp - bonds[_b].stamp;\n        uint256 pDur = divide(100*10**18 , total) * passed;\n        uint256 freeCo2 = divide(100*10**18 , bonds[_b].co2) * pDur;\n        emit Log(logs,msg.sender,address(this),freeCo2,bytes(\"free co2 calculated\"),block.timestamp);\n        logs++;\n        return (freeCo2, passed);\n    }\n\n    function releaseFreeCo2(uint256 _m) external returns(bool){\n        uint256 _b = myBondedCo2[msg.sender][_m]; // get b_id\n        (uint256 free, uint256 passed) = calcFreeCo2(_b); // get free co2 & passed time\n        require(1 * 10 ** 18 <= free); // check amount\n        bonds[_b].co2 -= free;          // edit bonds data subtract\n        bonds[_b].stamp = block.timestamp;\n        uint256 addTime = divide(passed,(100 / per));\n        bonds[_b].duration += addTime;\n\n        uint256 fee = divide(free,(100/per));\n        _mint(msg.sender,(free - fee)); // mint free co2\n        _mint(address(this),fee);\n        emit Log(logs,msg.sender,address(this),free,bytes(\"free co2 minted\"),block.timestamp);\n        logs++;\n        return true;\n    }\n\n    function withdraw(uint256 _eth, uint256 _co2, uint256 _tree) isAdmin() external returns(bool){\n        require(_co2 * 10 ** 18 <= balanceOf(address(this)));\n        require(_tree * 10 ** 18 <= trees.balanceOf(address(this)));\n        require(_eth * 10 ** 18 <= address(this).balance);\n        transfer(payable(author), _co2 * 10 ** 18);\n        trees.transfer(payable(author), _tree * 10 ** 18);\n        payable(author).transfer(_eth * 10 ** 18);\n        emit Log(logs,msg.sender,address(this),999,bytes(\"contract fund balances 0\"),block.timestamp);\n        logs++;\n        return true;\n    }\n}\n\ncontract GardenPool is ERC1155, Init {\n    IERC20 internal TR3EZ;\n    IERC20 internal CO2;\n    IERC20 internal WETH;\n    IERC20 internal lowC;\n    IERC20 internal highC;\n\n    uint256 private per;\n    uint256 public collectedFees;\n    struct Garden{\n        uint256 id;\n        address low;\n        uint256 lowTotal;\n        address high;\n        bytes description;\n        uint256 low4high; \n        uint256 maxSize;\n        uint256 currentSize;\n    }\n    Garden[] public gardens;\n    uint256 g;\n    constructor(address _trees, address _co2, address _weth, uint256 _percent, address _init, address _auth, address _avax) ERC1155(\"IMgardens\") Init(_auth, _avax){\n        require(msg.sender == author);\n        role[msg.sender] = 99;\n        uData[msg.sender] = bytes('{\"username\":\"@stereoiii6\",\"email\":\"type.stereo@pm.me\"}');\n        TR3EZ = IERC20(_trees);\n        CO2 = IERC20(_co2);\n        WETH = IERC20(_weth);\n        per = _percent;\n        emit Log(logs,msg.sender,address(this),_percent,bytes(\"contract created\"),block.timestamp);\n        logs++;\n    }\n\n    function createGarden(string memory _name, address _hi, address _lo) external returns(bool){\n        _setURI(_name);\n        _mint(address(this),g,100*10**6,bytes(_name)); // 1 : 10 000 // 100 000 weth : 1 000 000 000 trees = 100% // 1 weth : 10 000 trees = 0,001% of max pool size\n        gardens.push(Garden(g,_hi,1000000000,_lo,bytes(_name),10000,100000,0));\n        g++;\n        return true;   \n    }\n\n    function addliquidity(uint256 _id, uint256 _low) external payable returns(bool){\n        uint256 low = _low * 10 ** 6;\n        uint256 high = gardens[_id].low4high * low;    \n        lowC = IERC20(gardens[_id].low);\n        highC = IERC20(gardens[_id].high);\n        require(lowC.balanceOf(msg.sender) >= low);\n        require(highC.balanceOf(msg.sender) >= high);\n        lowC.transferFrom(msg.sender, address(this), low);\n        highC.transferFrom(msg.sender, address(this), high);\n        uint256 gardenDrops = divide(100 * 10 ** 6 , gardens[_id].lowTotal) * low;\n        safeTransferFrom(address(this),msg.sender,gardens[_id].id,gardenDrops,gardens[_id].description);\n        gardens[_id].currentSize += gardenDrops;\n        return true;\n    }\n\n    function removeLiquidity(uint256 _id, uint256 _gardenDrops) external payable returns(bool){\n        uint256 low = divide(100 * 10 ** 6 , gardens[_id].lowTotal) * _gardenDrops;\n        uint256 high = low * gardens[_id].low4high;\n        lowC = IERC20(gardens[_id].low);\n        highC = IERC20(gardens[_id].high);\n        require(lowC.balanceOf(address(this)) >= low);\n        require(highC.balanceOf(address(this)) >= high);\n        lowC.transferFrom(address(this), msg.sender, low);\n        highC.transferFrom(address(this),msg.sender, high);\n        safeTransferFrom(msg.sender,address(this),gardens[_id].id,_gardenDrops,gardens[_id].description);\n        gardens[_id].currentSize -= _gardenDrops;\n        return true;\n    }\n\n    function swapLowHigh(uint256 _id, uint256 _low) external payable returns(bool){\n        uint256 low = _low * 10 ** 6;\n        lowC = IERC20(gardens[_id].low);\n        highC = IERC20(gardens[_id].high);\n        require(lowC.balanceOf(msg.sender) >= low);\n        uint256 fee = divide(100 * 10 ** 6, low) * (100/per);\n        uint256 get = gardens[_id].low4high * (low - fee);\n        require(highC.balanceOf(address(this)) >= get);\n        lowC.transferFrom(msg.sender, address(this), low);\n        highC.transferFrom( address(this), msg.sender, get);\n        collectedFees += fee;\n        return true;\n    }\n\n    function swapHighLow(uint256 _id, uint256 _high) external payable returns(bool){\n        uint256 high = _high * 10 ** 6;\n        lowC = IERC20(gardens[_id].low);\n        highC = IERC20(gardens[_id].high);\n        require(highC.balanceOf(msg.sender) >= high);\n        uint256 fee = divide(100 * 10 ** 6, high) * (100/per);\n        uint256 get = divide(high - fee ,gardens[_id].low4high);\n        require(highC.balanceOf(address(this)) >= get);\n        highC.transferFrom(msg.sender, address(this), high);\n        lowC.transferFrom(address(this), msg.sender, get);\n        collectedFees += fee;\n        return true;\n    }\n\n    function waterGardens(uint256 _id) external payable returns(uint256){\n        lowC = IERC20(gardens[_id].low);\n        highC = IERC20(gardens[_id].high);\n        uint256 lBal = lowC.balanceOf(address(this));\n        uint256 hBal = highC.balanceOf(address(this));\n        uint256 rRatio = divide(hBal , lBal);\n        uint256 eRatio = divide(gardens[_id].low4high, 1);\n        uint256 difRatio = divide(100,eRatio) * rRatio;\n        return difRatio;\n    }\n\n}",
  "sourcePath": "/Users/jediswag/Documents/GitHub/ourPlanet/contracts/Gardens.sol",
  "compiler": {
    "name": "solc",
    "version": "0.8.15+commit.e14f2714.Emscripten.clang"
  },
  "schemaVersion": "3.4.4",
  "updatedAt": "2022-06-27T09:24:36.215Z",
  "devdoc": {
    "kind": "dev",
    "methods": {},
    "version": 1
  },
  "userdoc": {
    "kind": "user",
    "methods": {},
    "version": 1
  }
}