{
  "contractName": "Init",
  "abi": [
    {
      "anonymous": false,
      "inputs": [
        {
          "indexed": true,
          "internalType": "uint256",
          "name": "id",
          "type": "uint256"
        },
        {
          "indexed": false,
          "internalType": "address",
          "name": "sender",
          "type": "address"
        },
        {
          "indexed": false,
          "internalType": "address",
          "name": "home",
          "type": "address"
        },
        {
          "indexed": false,
          "internalType": "uint256",
          "name": "num",
          "type": "uint256"
        },
        {
          "indexed": false,
          "internalType": "bytes",
          "name": "message",
          "type": "bytes"
        },
        {
          "indexed": false,
          "internalType": "uint256",
          "name": "stamp",
          "type": "uint256"
        }
      ],
      "name": "Log",
      "type": "event"
    },
    {
      "anonymous": false,
      "inputs": [
        {
          "indexed": true,
          "internalType": "uint256",
          "name": "id",
          "type": "uint256"
        },
        {
          "indexed": false,
          "internalType": "address",
          "name": "sender",
          "type": "address"
        },
        {
          "indexed": false,
          "internalType": "address",
          "name": "home",
          "type": "address"
        },
        {
          "indexed": false,
          "internalType": "uint256",
          "name": "num",
          "type": "uint256"
        },
        {
          "indexed": false,
          "internalType": "bytes",
          "name": "message",
          "type": "bytes"
        },
        {
          "indexed": false,
          "internalType": "uint256",
          "name": "stamp",
          "type": "uint256"
        }
      ],
      "name": "Wait",
      "type": "event"
    },
    {
      "stateMutability": "nonpayable",
      "type": "fallback"
    },
    {
      "inputs": [],
      "name": "author",
      "outputs": [
        {
          "internalType": "address",
          "name": "",
          "type": "address"
        }
      ],
      "stateMutability": "view",
      "type": "function"
    },
    {
      "inputs": [],
      "name": "availSupply",
      "outputs": [
        {
          "internalType": "uint256",
          "name": "",
          "type": "uint256"
        }
      ],
      "stateMutability": "view",
      "type": "function"
    },
    {
      "inputs": [
        {
          "internalType": "address",
          "name": "",
          "type": "address"
        }
      ],
      "name": "isUser",
      "outputs": [
        {
          "internalType": "bool",
          "name": "",
          "type": "bool"
        }
      ],
      "stateMutability": "view",
      "type": "function"
    },
    {
      "inputs": [],
      "name": "maxSupply",
      "outputs": [
        {
          "internalType": "uint256",
          "name": "",
          "type": "uint256"
        }
      ],
      "stateMutability": "view",
      "type": "function"
    },
    {
      "inputs": [
        {
          "internalType": "address",
          "name": "",
          "type": "address"
        }
      ],
      "name": "role",
      "outputs": [
        {
          "internalType": "uint256",
          "name": "",
          "type": "uint256"
        }
      ],
      "stateMutability": "view",
      "type": "function"
    },
    {
      "inputs": [
        {
          "internalType": "address",
          "name": "",
          "type": "address"
        }
      ],
      "name": "uData",
      "outputs": [
        {
          "internalType": "bytes",
          "name": "",
          "type": "bytes"
        }
      ],
      "stateMutability": "view",
      "type": "function"
    },
    {
      "inputs": [
        {
          "internalType": "address",
          "name": "_to",
          "type": "address"
        },
        {
          "internalType": "uint256",
          "name": "_role",
          "type": "uint256"
        }
      ],
      "name": "changeRole",
      "outputs": [
        {
          "internalType": "bool",
          "name": "",
          "type": "bool"
        }
      ],
      "stateMutability": "nonpayable",
      "type": "function"
    },
    {
      "inputs": [
        {
          "internalType": "string",
          "name": "_data",
          "type": "string"
        }
      ],
      "name": "makeU",
      "outputs": [
        {
          "internalType": "bool",
          "name": "",
          "type": "bool"
        }
      ],
      "stateMutability": "nonpayable",
      "type": "function"
    },
    {
      "inputs": [],
      "name": "showU",
      "outputs": [
        {
          "internalType": "string",
          "name": "",
          "type": "string"
        },
        {
          "internalType": "uint256",
          "name": "",
          "type": "uint256"
        }
      ],
      "stateMutability": "view",
      "type": "function"
    },
    {
      "inputs": [
        {
          "internalType": "address",
          "name": "_contract",
          "type": "address"
        }
      ],
      "name": "approveTokens",
      "outputs": [
        {
          "internalType": "bool",
          "name": "",
          "type": "bool"
        }
      ],
      "stateMutability": "nonpayable",
      "type": "function"
    },
    {
      "inputs": [
        {
          "internalType": "address",
          "name": "_contract",
          "type": "address"
        },
        {
          "internalType": "uint256",
          "name": "_amnt",
          "type": "uint256"
        }
      ],
      "name": "approveTokenAmount",
      "outputs": [
        {
          "internalType": "bool",
          "name": "",
          "type": "bool"
        }
      ],
      "stateMutability": "nonpayable",
      "type": "function"
    },
    {
      "inputs": [
        {
          "internalType": "address",
          "name": "_contract",
          "type": "address"
        }
      ],
      "name": "withdrawToken",
      "outputs": [
        {
          "internalType": "bool",
          "name": "",
          "type": "bool"
        }
      ],
      "stateMutability": "nonpayable",
      "type": "function"
    }
  ],
  "bytecode": "0x6080604052731cd6f4d329d38043a6bdb3665c3a7b06f79b52426000806101000a81548173ffffffffffffffffffffffffffffffffffffffff021916908373ffffffffffffffffffffffffffffffffffffffff160217905550670de0b6b3a764000060065534801561007057600080fd5b506113da806100806000396000f3fe608060405234801561001057600080fd5b50600436106100b85760003560e01c8063894760691161007157806389476069146101ca5780639f5215dd146101fa578063a6c3e6b914610218578063b7187e3514610236578063d590f8c914610266578063d5abeb0114610296576100b9565b80630acfd58e146100bb578063255ec557146100eb578063268b52271461011b578063274daa351461014b57806328a223481461016a5780634209fff11461019a576100b9565b5b005b6100d560048036038101906100d09190610be1565b6102b4565b6040516100e29190610c3c565b60405180910390f35b61010560048036038101906101009190610be1565b610386565b6040516101129190610c3c565b60405180910390f35b61013560048036038101906101309190610d9d565b610474565b6040516101429190610c3c565b60405180910390f35b610153610568565b604051610161929190610e7d565b60405180910390f35b610184600480360381019061017f9190610ead565b61067f565b6040516101919190610c3c565b60405180910390f35b6101b460048036038101906101af9190610ead565b610807565b6040516101c19190610c3c565b60405180910390f35b6101e460048036038101906101df9190610ead565b610827565b6040516101f19190610c3c565b60405180910390f35b610202610a51565b60405161020f9190610eda565b60405180910390f35b610220610a57565b60405161022d9190610f04565b60405180910390f35b610250600480360381019061024b9190610ead565b610a7b565b60405161025d9190610f74565b60405180910390f35b610280600480360381019061027b9190610ead565b610b1b565b60405161028d9190610eda565b60405180910390f35b61029e610b33565b6040516102ab9190610eda565b60405180910390f35b60006063600160003373ffffffffffffffffffffffffffffffffffffffff1673ffffffffffffffffffffffffffffffffffffffff1681526020019081526020016000205414610338576040517f08c379a000000000000000000000000000000000000000000000000000000000815260040161032f90610fe2565b60405180910390fd5b81600160008573ffffffffffffffffffffffffffffffffffffffff1673ffffffffffffffffffffffffffffffffffffffff168152602001908152602001600020819055506001905092915050565b600082600760006101000a81548173ffffffffffffffffffffffffffffffffffffffff021916908373ffffffffffffffffffffffffffffffffffffffff160217905550600760009054906101000a900473ffffffffffffffffffffffffffffffffffffffff1673ffffffffffffffffffffffffffffffffffffffff1663095ea7b330846040518363ffffffff1660e01b8152600401610426929190611002565b6020604051808303816000875af1158015610445573d6000803e3d6000fd5b505050506040513d601f19601f820116820180604052508101906104699190611057565b506001905092915050565b60006001600960003373ffffffffffffffffffffffffffffffffffffffff1673ffffffffffffffffffffffffffffffffffffffff16815260200190815260200160002060006101000a81548160ff02191690831515021790555060018060003373ffffffffffffffffffffffffffffffffffffffff1673ffffffffffffffffffffffffffffffffffffffff1681526020019081526020016000208190555081600260003373ffffffffffffffffffffffffffffffffffffffff1673ffffffffffffffffffffffffffffffffffffffff168152602001908152602001600020908161055e9190611290565b5060019050919050565b60606000600260003373ffffffffffffffffffffffffffffffffffffffff1673ffffffffffffffffffffffffffffffffffffffff168152602001908152602001600020600160003373ffffffffffffffffffffffffffffffffffffffff1673ffffffffffffffffffffffffffffffffffffffff168152602001908152602001600020548180546105f7906110b3565b80601f0160208091040260200160405190810160405280929190818152602001828054610623906110b3565b80156106705780601f1061064557610100808354040283529160200191610670565b820191906000526020600020905b81548152906001019060200180831161065357829003601f168201915b50505050509150915091509091565b600081600760006101000a81548173ffffffffffffffffffffffffffffffffffffffff021916908373ffffffffffffffffffffffffffffffffffffffff160217905550600760009054906101000a900473ffffffffffffffffffffffffffffffffffffffff1673ffffffffffffffffffffffffffffffffffffffff1663095ea7b330600760009054906101000a900473ffffffffffffffffffffffffffffffffffffffff1673ffffffffffffffffffffffffffffffffffffffff166370a08231336040518263ffffffff1660e01b815260040161075c9190610f04565b602060405180830381865afa158015610779573d6000803e3d6000fd5b505050506040513d601f19601f8201168201806040525081019061079d9190611377565b6040518363ffffffff1660e01b81526004016107ba929190611002565b6020604051808303816000875af11580156107d9573d6000803e3d6000fd5b505050506040513d601f19601f820116820180604052508101906107fd9190611057565b5060019050919050565b60096020528060005260406000206000915054906101000a900460ff1681565b60006063600160003373ffffffffffffffffffffffffffffffffffffffff1673ffffffffffffffffffffffffffffffffffffffff16815260200190815260200160002054146108ab576040517f08c379a00000000000000000000000000000000000000000000000000000000081526004016108a290610fe2565b60405180910390fd5b81600760006101000a81548173ffffffffffffffffffffffffffffffffffffffff021916908373ffffffffffffffffffffffffffffffffffffffff160217905550600760009054906101000a900473ffffffffffffffffffffffffffffffffffffffff1673ffffffffffffffffffffffffffffffffffffffff1663a9059cbb60008054906101000a900473ffffffffffffffffffffffffffffffffffffffff16600760009054906101000a900473ffffffffffffffffffffffffffffffffffffffff1673ffffffffffffffffffffffffffffffffffffffff166370a08231306040518263ffffffff1660e01b81526004016109a69190610f04565b602060405180830381865afa1580156109c3573d6000803e3d6000fd5b505050506040513d601f19601f820116820180604052508101906109e79190611377565b6040518363ffffffff1660e01b8152600401610a04929190611002565b6020604051808303816000875af1158015610a23573d6000803e3d6000fd5b505050506040513d601f19601f82011682018060405250810190610a479190611057565b5060019050919050565b60045481565b60008054906101000a900473ffffffffffffffffffffffffffffffffffffffff1681565b60026020528060005260406000206000915090508054610a9a906110b3565b80601f0160208091040260200160405190810160405280929190818152602001828054610ac6906110b3565b8015610b135780601f10610ae857610100808354040283529160200191610b13565b820191906000526020600020905b815481529060010190602001808311610af657829003601f168201915b505050505081565b60016020528060005260406000206000915090505481565b60035481565b6000604051905090565b600080fd5b600080fd5b600073ffffffffffffffffffffffffffffffffffffffff82169050919050565b6000610b7882610b4d565b9050919050565b610b8881610b6d565b8114610b9357600080fd5b50565b600081359050610ba581610b7f565b92915050565b6000819050919050565b610bbe81610bab565b8114610bc957600080fd5b50565b600081359050610bdb81610bb5565b92915050565b60008060408385031215610bf857610bf7610b43565b5b6000610c0685828601610b96565b9250506020610c1785828601610bcc565b9150509250929050565b60008115159050919050565b610c3681610c21565b82525050565b6000602082019050610c516000830184610c2d565b92915050565b600080fd5b600080fd5b6000601f19601f8301169050919050565b7f4e487b7100000000000000000000000000000000000000000000000000000000600052604160045260246000fd5b610caa82610c61565b810181811067ffffffffffffffff82111715610cc957610cc8610c72565b5b80604052505050565b6000610cdc610b39565b9050610ce88282610ca1565b919050565b600067ffffffffffffffff821115610d0857610d07610c72565b5b610d1182610c61565b9050602081019050919050565b82818337600083830152505050565b6000610d40610d3b84610ced565b610cd2565b905082815260208101848484011115610d5c57610d5b610c5c565b5b610d67848285610d1e565b509392505050565b600082601f830112610d8457610d83610c57565b5b8135610d94848260208601610d2d565b91505092915050565b600060208284031215610db357610db2610b43565b5b600082013567ffffffffffffffff811115610dd157610dd0610b48565b5b610ddd84828501610d6f565b91505092915050565b600081519050919050565b600082825260208201905092915050565b60005b83811015610e20578082015181840152602081019050610e05565b83811115610e2f576000848401525b50505050565b6000610e4082610de6565b610e4a8185610df1565b9350610e5a818560208601610e02565b610e6381610c61565b840191505092915050565b610e7781610bab565b82525050565b60006040820190508181036000830152610e978185610e35565b9050610ea66020830184610e6e565b9392505050565b600060208284031215610ec357610ec2610b43565b5b6000610ed184828501610b96565b91505092915050565b6000602082019050610eef6000830184610e6e565b92915050565b610efe81610b6d565b82525050565b6000602082019050610f196000830184610ef5565b92915050565b600081519050919050565b600082825260208201905092915050565b6000610f4682610f1f565b610f508185610f2a565b9350610f60818560208601610e02565b610f6981610c61565b840191505092915050565b60006020820190508181036000830152610f8e8184610f3b565b905092915050565b7f796f75277265206e6f742061646d696e00000000000000000000000000000000600082015250565b6000610fcc601083610df1565b9150610fd782610f96565b602082019050919050565b60006020820190508181036000830152610ffb81610fbf565b9050919050565b60006040820190506110176000830185610ef5565b6110246020830184610e6e565b9392505050565b61103481610c21565b811461103f57600080fd5b50565b6000815190506110518161102b565b92915050565b60006020828403121561106d5761106c610b43565b5b600061107b84828501611042565b91505092915050565b7f4e487b7100000000000000000000000000000000000000000000000000000000600052602260045260246000fd5b600060028204905060018216806110cb57607f821691505b6020821081036110de576110dd611084565b5b50919050565b60008190508160005260206000209050919050565b60006020601f8301049050919050565b600082821b905092915050565b6000600883026111467fffffffffffffffffffffffffffffffffffffffffffffffffffffffffffffffff82611109565b6111508683611109565b95508019841693508086168417925050509392505050565b6000819050919050565b600061118d61118861118384610bab565b611168565b610bab565b9050919050565b6000819050919050565b6111a783611172565b6111bb6111b382611194565b848454611116565b825550505050565b600090565b6111d06111c3565b6111db81848461119e565b505050565b5b818110156111ff576111f46000826111c8565b6001810190506111e1565b5050565b601f82111561124457611215816110e4565b61121e846110f9565b8101602085101561122d578190505b611241611239856110f9565b8301826111e0565b50505b505050565b600082821c905092915050565b600061126760001984600802611249565b1980831691505092915050565b60006112808383611256565b9150826002028217905092915050565b61129982610f1f565b67ffffffffffffffff8111156112b2576112b1610c72565b5b6112bc82546110b3565b6112c7828285611203565b600060209050601f8311600181146112fa57600084156112e8578287015190505b6112f28582611274565b86555061135a565b601f198416611308866110e4565b60005b828110156113305784890151825560018201915060208501945060208101905061130b565b8683101561134d5784890151611349601f891682611256565b8355505b6001600288020188555050505b505050505050565b60008151905061137181610bb5565b92915050565b60006020828403121561138d5761138c610b43565b5b600061139b84828501611362565b9150509291505056fea2646970667358221220462c63f5b669e4c5bda743628ef32ccb31bfc7405ca2dd1c9b99b7151b0db45964736f6c634300080f0033",
  "immutableReferences": {},
  "source": "// SPDX-License-Identifier: GPL-3.0\n// // // // // // // // // // // // // // // // // // // // // // // // // // // // // // // // // // // // // // // // // // // // // // // // // // // // // // // // // // // // //\n//   \n//                                                 \n//      \n//      \n//\n// // // // // // // // // // // // // // // // // // // // // // // // // // // // // // // // // // // // // // // // // // // // // // // // // // // // // // // // // // // // //\n//                                                                                                                                                                                  //\n//                                                                                                                                                                                  //\n//                                                                                                                                                                                  //\n//                                                                                                                                                                                  //\n//                                                                                                                                                                                  //\n//      @artist ::          stereoIII6.eth                                                                                                                                          //\n//      @msg ::             stereoIII6.eth.chat                                                                                                                                     //\n//      @github ::          stereoIII6                                                                                                                                              //\n//                                                                                                                                                                                  //\n//      @dev ::             stereoIII6.eth                                                                                                                                          //\n//      @msg ::             stereoIII6.eth.chat                                                                                                                                     //\n//      @github ::          stereoIII6                                                                                                                                              //\n//                                                                                                                                                                                  //\n//      @author ::          stereoIII6.eth                                                                                                                                          //\n//      @msg ::             stereoIII6.eth.chat                                                                                                                                     //\n//      @github ::          stereoIII6                                                                                                                                              //\n//                                                                                                                                                                                  //\n//                                                                                                                                                                                  //\n//                                                                                                                                                                                  //\n// // // // // // // // // // // // // // // // // // // // // // // // // // // // // // // // // // // // // // // // // // // // // // // // // // // // // // // // // // // // //\n//                                                                                                                                                                                  //\n// // // // // // // // // // // // // // // // // // // // // // // // // // // // // // // // // // // // // // // // // // // // // // // // // // // // // // // // // // // // //\n//                                                                                                                                                                                  //\n//                                                                                                                                                                                  //\n//      @title ::           safe contract                                                                                                                                           //\n//      @description ::     Decentral Social Network Experiment                                                                                                                     //\n//      @version ::         0.0.1                                                                                                                                                   //\n//      @purpose ::         Bring real life into the Blockchain                                                                                                                     //\n//                                                                                                                                                                                  //\n//                                                                                                                                                                                  //\n//                                                                                                                                                                                  //\n//                                                                                                                                                                                  //\n//                                                                                                                                                                                  //\n// // // // // // // // // // // // // // // // // // // // // // // // // // // // // // // // // // // // // // // // // // // // // // // // // // // // // // // // // // // // //\n\npragma solidity ^0.8.0;\n\n// Open Zeppelin Imports\nimport \"@openzeppelin/contracts/token/ERC20/ERC20.sol\";\nimport \"@openzeppelin/contracts/token/ERC20/IERC20.sol\";\n\n// import \"@openzeppelin/contracts/token/ERC721/IERC721.sol\";\n// import \"@openzeppelin/contracts/token/ERC721/ERC721.sol\";\n\nimport \"@openzeppelin/contracts/token/ERC1155/ERC1155.sol\";\n// import \"@openzeppelin/contracts/token/ERC1155/IERC1155.sol\";\n\n// Chainlink Imports\n// import \"@chainlink/contracts/src/v0.8/VRFConsumerBase.sol\";\n\ncontract Init{\n    address public author = 0x1Cd6F4D329D38043a6bDB3665c3a7b06F79B5242;\n    mapping(address => uint256) public role;\n    mapping(address => bytes) public uData;\n    uint256 public maxSupply;\n    uint256 public availSupply;\n    uint256 rate;\n    uint256 digits = 1 * 10 ** 18;\n    IERC20 internal Token;\n    IERC20 internal MLQ;\n    mapping(address => bool) public isUser;\n    event Log(uint256 indexed id, address sender, address home, uint256 num, bytes message, uint256 stamp);\n    event Wait(uint256 indexed id, address sender, address home, uint256 num, bytes message, uint256 stamp);\n    uint256 logs;\n    modifier isAdmin() {\n        require(role[msg.sender] == 99, \"you're not admin\");\n        _;\n    }\n    modifier isOwner() {\n        require(author == msg.sender, \"you're not owner\");\n        _;\n    }\n    function changeRole(address _to, uint256 _role) external isAdmin() returns(bool){\n        role[_to] = _role;\n        return true;\n    }\n    function makeU(string memory _data) external returns(bool){\n        isUser[msg.sender] = true;\n        role[msg.sender] = 1;\n        uData[msg.sender] = bytes(_data);\n        return true;\n    }\n    function showU() external view returns(string memory, uint256){\n        return(string(uData[msg.sender]),role[msg.sender]);\n    }\n    function approveTokens(address _contract) external returns(bool){\n        Token = IERC20(_contract);\n        Token.approve(address(this),Token.balanceOf(msg.sender));\n        return true;\n    }\n    function approveTokenAmount(address _contract, uint256 _amnt) external returns(bool){\n        Token = IERC20(_contract);\n        Token.approve(address(this),_amnt);\n        return true;\n    }\n    function withdrawToken(address _contract) external isAdmin() returns(bool){\n        Token = IERC20(_contract);  \n        Token.transfer(author,Token.balanceOf(address(this)));\n        return true;\n    }\n    function divide(uint256 _a, uint256 _b) internal pure returns(uint256 res){\n        uint256 rem = _a % _b;\n        res = (_a - rem) / _b;\n    }\n    fallback() external{\n\n    }\n}\n\ncontract Trees is ERC20, Init{\n\n    constructor(address _mlq) ERC20(\"Impact Tree Token\", \"IMPCTrees\"){\n        require(msg.sender == author);\n        role[msg.sender] = 99;\n        uData[msg.sender] = bytes('{\"username\":\"@stereoiii6\",\"email\":\"type.stereo@pm.me\"}');\n        maxSupply = 5000000000000 * 10 ** 18;\n        emit Log(logs,msg.sender,address(this),999,bytes(\"contract created\"),block.timestamp);\n        rate = 35;\n        logs++;\n        MLQ = IERC20(_mlq);   \n    }\n\n    function plantTree(uint256 _amount) external payable returns(bool){\n        require(msg.value >= _amount * rate * 10 ** 12);\n        require(availSupply < maxSupply);\n        availSupply += msg.value*10000;\n        _mint(msg.sender, _amount * 10 ** 18);\n        emit Log(logs,msg.sender,address(this),_amount,bytes(\"trees minted\"),block.timestamp);\n        logs++;\n        return true;\n    }\n\n    function plantTreeMLQ(uint256 _amount) external payable returns(bool){\n        require(MLQ.balanceOf(msg.sender) >= 100 * _amount * rate * 10 ** 12);\n        require(availSupply < maxSupply);\n        MLQ.transferFrom(msg.sender,address(this), 100 * _amount * rate * 10 ** 12);\n        availSupply += msg.value*10000;\n        _mint(msg.sender, _amount * 10 ** 18);\n        emit Log(logs,msg.sender,address(this),_amount,bytes(\"trees minted\"),block.timestamp);\n        logs++;\n        return true;\n    }\n\n    function donateTrees(uint256 _amount) external returns(bool){\n        require(balanceOf(msg.sender) > _amount * 10 ** 18);\n        _burn(msg.sender, _amount * 10 ** 18);\n        emit Log(logs,msg.sender,address(this),_amount,bytes(\"trees burned\"),block.timestamp);\n        logs++;\n        return true;\n    }\n\n    function approveContract(address _contract) external returns(bool){\n        approve(_contract, balanceOf(msg.sender));\n        emit Log(logs,msg.sender,_contract,999,bytes(\"approve contract\"),block.timestamp);\n        logs++;\n        return true;\n    }\n\n    function trimTreesl(uint256 _newPrice) isAdmin() external returns(bool){\n        rate = _newPrice;\n        return true;\n    }\n\n    function withdraw(uint256 _eth, uint256 _tree) isAdmin() external returns(bool){\n        require(_tree * 10 ** 18 <= balanceOf(address(this)));\n        require(_eth * 10 ** 18 <= address(this).balance);\n        transfer(payable(author), _tree * 10 ** 18);\n        payable(author).transfer(_eth * 10 ** 18);\n        emit Log(logs,msg.sender,address(this),_tree,bytes(\"contract withdraw\"),block.timestamp);\n        logs++;\n        return true;\n    }\n}\n\ncontract Co2s is ERC20, Init {\n\n    IERC20 internal trees;\n\n    struct Bond{\n        uint256 id;\n        address adr;\n        uint256 amount;\n        uint256 region;\n        uint256 stamp;\n        uint256 duration;\n        uint256 co2;\n    }\n\n    mapping(address => uint256) public myBonds;\n    mapping(address => mapping(uint256 => uint256)) public myBondedCo2;\n\n    Bond[] public bonds;\n    uint256 c;\n    uint256 b;\n    uint256 per;\n    constructor(address _contract, uint256 _percent, address _mlq) ERC20(\"Carbon token\", \"CO2\"){\n        require(msg.sender == author);\n        role[msg.sender] = 99;\n        uData[msg.sender] = bytes('{\"username\":\"@stereoiii6\",\"email\":\"type.stereo@pm.me\"}');\n        maxSupply = 25000000000000 * 10 ** 18;\n        trees = IERC20(_contract);  \n        per = _percent;\n        emit Log(logs,msg.sender,address(this),_percent,bytes(\"contract created\"),block.timestamp);\n        MLQ = IERC20(_mlq);  \n        logs++;\n    }\n\n    function growTrees(uint256 _trees, uint256 _region, uint256 _duration) external payable returns(bool){\n        require(msg.value >= _trees * 10 ** 14 , \"not enough funds for asset\");\n        require(_trees <= trees.balanceOf(msg.sender), \"insufficient balance\");\n        require(5 * _trees * 10 ** 18 <= maxSupply - availSupply, \"insufficient supply\");\n        bonds.push(Bond(b ,msg.sender ,_trees * 10 ** 18 ,_region ,block.timestamp ,_duration ,5 * _trees * 10 ** 18));\n        availSupply += 5 * _trees * 10 ** 18;  \n        myBondedCo2[msg.sender][myBonds[msg.sender]] = b;\n        myBonds[msg.sender]++;\n        trees.transferFrom(msg.sender,payable(address(this)), _trees * 10 ** 18);\n        b++;\n        emit Log(logs,msg.sender,address(this),_trees,bytes(\"trees staked\"),block.timestamp);\n        logs++;\n        return true;\n    }\n\n    function growMoreTrees(uint256 _trees, uint256 _b) external payable returns(bool){\n        require(msg.value >= _trees * 10 ** 14);\n        require(_trees <= trees.balanceOf(msg.sender));\n        uint256 treez = _trees * 10 ** 18;\n        require(5 * treez <= maxSupply - availSupply);\n        uint256 p = divide(100,bonds[_b].amount) * treez;\n        bonds[_b].amount += treez;\n        bonds[_b].co2 += 5 * treez;\n        bonds[_b].duration += bonds[_b].duration * p;\n        uint256 fee = divide(treez,(100/per));\n        trees.transfer(payable(address(this)), treez - fee);\n        trees.transfer(payable(address(this)), fee);\n        emit Log(logs,msg.sender,address(this),_trees,bytes(\"trees addeed to stake\"),block.timestamp);\n        logs++;\n        return true;\n    }\n\n    function growLessTrees(uint256 _trees, uint256 _b) external payable returns(bool){\n        require(msg.value >= _trees * 10 ** 15);\n        uint256 treez = _trees * 10 ** 18;\n        require(treez <= bonds[myBondedCo2[msg.sender][myBonds[msg.sender]]].amount);\n        bonds[_b].amount -= treez;\n        bonds[_b].co2 -= 5 * treez; \n        uint256 fee = divide(treez,(100/per));\n        trees.transfer(payable(msg.sender), treez - fee);\n        trees.transfer(payable(address(this)), fee);\n        emit Log(logs,msg.sender,address(this),_trees,bytes(\"trees removed from stake\"),block.timestamp);\n        logs++;\n        return true;\n    }\n\n    function calcFreeCo2(uint256 _b) internal returns(uint256,uint256){\n        uint256 total = bonds[_b].duration * 60 * 60 * 24 * 365;\n        uint256 passed = block.timestamp - bonds[_b].stamp;\n        uint256 pDur = divide(100*10**18 , total) * passed;\n        uint256 freeCo2 = divide(100*10**18 , bonds[_b].co2) * pDur;\n        emit Log(logs,msg.sender,address(this),freeCo2,bytes(\"free co2 calculated\"),block.timestamp);\n        logs++;\n        return (freeCo2, passed);\n    }\n\n    function releaseFreeCo2(uint256 _m) external returns(bool){\n        uint256 _b = myBondedCo2[msg.sender][_m]; // get b_id\n        (uint256 free, uint256 passed) = calcFreeCo2(_b); // get free co2 & passed time\n        require(1 * 10 ** 18 <= free); // check amount\n        bonds[_b].co2 -= free;          // edit bonds data subtract\n        bonds[_b].stamp = block.timestamp;\n        uint256 addTime = divide(passed,(100 / per));\n        bonds[_b].duration += addTime;\n\n        uint256 fee = divide(free,(100/per));\n        _mint(msg.sender,(free - fee)); // mint free co2\n        _mint(address(this),fee);\n        emit Log(logs,msg.sender,address(this),free,bytes(\"free co2 minted\"),block.timestamp);\n        logs++;\n        return true;\n    }\n\n    function withdraw(uint256 _eth, uint256 _co2, uint256 _tree) isAdmin() external returns(bool){\n        require(_co2 * 10 ** 18 <= balanceOf(address(this)));\n        require(_tree * 10 ** 18 <= trees.balanceOf(address(this)));\n        require(_eth * 10 ** 18 <= address(this).balance);\n        transfer(payable(author), _co2 * 10 ** 18);\n        trees.transfer(payable(author), _tree * 10 ** 18);\n        payable(author).transfer(_eth * 10 ** 18);\n        emit Log(logs,msg.sender,address(this),999,bytes(\"contract fund balances 0\"),block.timestamp);\n        logs++;\n        return true;\n    }\n}\n\ncontract GardenPool is ERC1155, Init {\n    IERC20 internal TR3EZ;\n    IERC20 internal CO2;\n    IERC20 internal WETH;\n    IERC20 internal lowC;\n    IERC20 internal highC;\n    uint256 private per;\n    uint256 public collectedFees;\n    struct Garden{\n        uint256 id;\n        address low;\n        uint256 lowTotal;\n        address high;\n        bytes description;\n        uint256 low4high; \n        uint256 maxSize;\n        uint256 currentSize;\n    }\n    Garden[] public gardens;\n    uint256 g;\n    constructor(address _trees, address _co2, address _weth, uint256 _percent) ERC1155(\"IMgardens\") {\n        require(msg.sender == author);\n        role[msg.sender] = 99;\n        uData[msg.sender] = bytes('{\"username\":\"@stereoiii6\",\"email\":\"type.stereo@pm.me\"}');\n        TR3EZ = IERC20(_trees);\n        CO2 = IERC20(_co2);\n        WETH = IERC20(_weth);\n        per = _percent;\n        emit Log(logs,msg.sender,address(this),_percent,bytes(\"contract created\"),block.timestamp);\n        logs++;\n    }\n\n    function createGarden(string memory _name, address _hi, address _lo) external returns(bool){\n        _setURI(_name);\n        _mint(address(this),g,100*10**6,bytes(_name)); // 1 : 10 000 // 100 000 weth : 1 000 000 000 trees = 100% // 1 weth : 10 000 trees = 0,001% of max pool size\n        gardens.push(Garden(g,_hi,1000000000,_lo,bytes(_name),10000,100000,0));\n        g++;\n        return true;   \n    }\n\n    function addliquidity(uint256 _id, uint256 _low) external payable returns(bool){\n        uint256 low = _low * 10 ** 6;\n        uint256 high = gardens[_id].low4high * low;    \n        lowC = IERC20(gardens[_id].low);\n        highC = IERC20(gardens[_id].high);\n        require(lowC.balanceOf(msg.sender) >= low);\n        require(highC.balanceOf(msg.sender) >= high);\n        lowC.transferFrom(msg.sender, address(this), low);\n        highC.transferFrom(msg.sender, address(this), high);\n        uint256 gardenDrops = divide(100 * 10 ** 6 , gardens[_id].lowTotal) * low;\n        safeTransferFrom(address(this),msg.sender,gardens[_id].id,gardenDrops,gardens[_id].description);\n        gardens[_id].currentSize += gardenDrops;\n        return true;\n    }\n\n    function removeLiquidity(uint256 _id, uint256 _gardenDrops) external payable returns(bool){\n        uint256 low = divide(100 * 10 ** 6 , gardens[_id].lowTotal) * _gardenDrops;\n        uint256 high = low * gardens[_id].low4high;\n        lowC = IERC20(gardens[_id].low);\n        highC = IERC20(gardens[_id].high);\n        require(lowC.balanceOf(address(this)) >= low);\n        require(highC.balanceOf(address(this)) >= high);\n        lowC.transferFrom(address(this), msg.sender, low);\n        highC.transferFrom(address(this),msg.sender, high);\n        safeTransferFrom(msg.sender,address(this),gardens[_id].id,_gardenDrops,gardens[_id].description);\n        gardens[_id].currentSize -= _gardenDrops;\n        return true;\n    }\n\n    function swapLowHigh(uint256 _id, uint256 _low) external payable returns(bool){\n        uint256 low = _low * 10 ** 6;\n        lowC = IERC20(gardens[_id].low);\n        highC = IERC20(gardens[_id].high);\n        require(lowC.balanceOf(msg.sender) >= low);\n        uint256 fee = divide(100 * 10 ** 6, low) * (100/per);\n        uint256 get = gardens[_id].low4high * (low - fee);\n        require(highC.balanceOf(address(this)) >= get);\n        lowC.transferFrom(msg.sender, address(this), low);\n        highC.transferFrom( address(this), msg.sender, get);\n        collectedFees += fee;\n        return true;\n    }\n\n    function swapHighLow(uint256 _id, uint256 _high) external payable returns(bool){\n        uint256 high = _high * 10 ** 6;\n        lowC = IERC20(gardens[_id].low);\n        highC = IERC20(gardens[_id].high);\n        require(highC.balanceOf(msg.sender) >= high);\n        uint256 fee = divide(100 * 10 ** 6, high) * (100/per);\n        uint256 get = divide(high - fee ,gardens[_id].low4high);\n        require(highC.balanceOf(address(this)) >= get);\n        highC.transferFrom(msg.sender, address(this), high);\n        lowC.transferFrom(address(this), msg.sender, get);\n        collectedFees += fee;\n        return true;\n    }\n\n    function waterGardens(uint256 _id) external payable returns(uint256){\n        lowC = IERC20(gardens[_id].low);\n        highC = IERC20(gardens[_id].high);\n        uint256 lBal = lowC.balanceOf(address(this));\n        uint256 hBal = highC.balanceOf(address(this));\n        uint256 rRatio = divide(hBal , lBal);\n        uint256 eRatio = divide(gardens[_id].low4high, 1);\n        uint256 difRatio = divide(100,eRatio) * rRatio;\n        return difRatio;\n    }\n\n}",
  "sourcePath": "/Users/jediswag/Documents/GitHub/ourPlanet/contracts/Gardens.sol",
  "compiler": {
    "name": "solc",
    "version": "0.8.15+commit.e14f2714.Emscripten.clang"
  },
  "schemaVersion": "3.4.4",
  "updatedAt": "2022-06-17T08:51:22.894Z",
  "devdoc": {
    "kind": "dev",
    "methods": {},
    "version": 1
  },
  "userdoc": {
    "kind": "user",
    "methods": {},
    "version": 1
  }
}