{
  "contractName": "MLQlib",
  "abi": [
    {
      "inputs": [],
      "name": "CIRC_RESERVE",
      "outputs": [
        {
          "internalType": "uint256",
          "name": "",
          "type": "uint256"
        }
      ],
      "stateMutability": "view",
      "type": "function"
    },
    {
      "inputs": [],
      "name": "MAX_SUPPLY",
      "outputs": [
        {
          "internalType": "uint256",
          "name": "",
          "type": "uint256"
        }
      ],
      "stateMutability": "view",
      "type": "function"
    },
    {
      "inputs": [],
      "name": "MLQ_DIG",
      "outputs": [
        {
          "internalType": "uint256",
          "name": "",
          "type": "uint256"
        }
      ],
      "stateMutability": "view",
      "type": "function"
    },
    {
      "inputs": [],
      "name": "MLQ_RATE",
      "outputs": [
        {
          "internalType": "uint256",
          "name": "",
          "type": "uint256"
        }
      ],
      "stateMutability": "view",
      "type": "function"
    },
    {
      "inputs": [],
      "name": "POOL_RESERVE",
      "outputs": [
        {
          "internalType": "uint256",
          "name": "",
          "type": "uint256"
        }
      ],
      "stateMutability": "view",
      "type": "function"
    },
    {
      "inputs": [],
      "name": "PUB_SUPPLY",
      "outputs": [
        {
          "internalType": "uint256",
          "name": "",
          "type": "uint256"
        }
      ],
      "stateMutability": "view",
      "type": "function"
    }
  ],
  "bytecode": "0x61027d610053600b82828239805160001a607314610046577f4e487b7100000000000000000000000000000000000000000000000000000000600052600060045260246000fd5b30600052607381538281f3fe730000000000000000000000000000000000000000301460806040526004361061006c5760003560e01c8063201a49d61461007157806332cb6b0c1461008f578063664872e1146100ad578063e73553ff146100cb578063f18f12fd146100e9578063f57f4c2a14610107575b600080fd5b610079610125565b60405161008691906101bb565b60405180910390f35b610097610140565b6040516100a491906101bb565b60405180910390f35b6100b561015b565b6040516100c291906101bb565b60405180910390f35b6100d3610176565b6040516100e091906101bb565b60405180910390f35b6100f1610182565b6040516100fe91906101bb565b60405180910390f35b61010f610187565b60405161011c91906101bb565b60405180910390f35b670de0b6b3a7640000633b9aca0061013d9190610205565b81565b670de0b6b3a764000063b2d05e006101589190610205565b81565b670de0b6b3a7640000633b9aca006101739190610205565b81565b670de0b6b3a764000081565b606481565b670de0b6b3a7640000633b9aca0061019f9190610205565b81565b6000819050919050565b6101b5816101a2565b82525050565b60006020820190506101d060008301846101ac565b92915050565b7f4e487b7100000000000000000000000000000000000000000000000000000000600052601160045260246000fd5b6000610210826101a2565b915061021b836101a2565b9250828202610229816101a2565b915082820484148315176102405761023f6101d6565b5b509291505056fea2646970667358221220088a1a1155a680cea9a0b081cfe2a045a27017de433ce364d1657475dc3fc68d64736f6c63430008110033",
  "immutableReferences": {},
  "source": "// SPDX-License-Identifier: GPL-3.0\n// // // // // // // // // // // // // // // // // // // // // // // // // // // // // // // // // // // // // // // // // // // // // // // // // // // // // // // // // // // // //\n//\n//              .d8888.  .d88b.  db    db d888888b d88888b d888888b db    db\n//              88'  YP .8P  88. `8b  d8'   `88'   88'     `~~88~~' `8b  d8'\n//              `8bo.   88  d'88  `8bd8'     88    88ooooo    88     `8bd8'\n//                `Y8b. 88 d' 88  .dPYb.     88    88~~~~~    88       88\n//              db   8D `88  d8' .8P  Y8.   .88.   88.        88       88\n//              `8888Y'  `Y88P'  YP    YP Y888888P Y88888P    YP       YP\n//\n// // // // // // // // // // // // // // // // // // // // // // // // // // // // // // // // // // // // // // // // // // // // // // // // // // // // // // // // // // // // //\n//                                                                                                                                                                                  //\n//      @dev            ::              stereoIII6.dao                                                                                                                                          //\n//      @msg            ::              type.stereo@pm.me                                                                                                                                    //\n//      @github         ::              @stereoIII6\n//      @twitter        ::              @stereoIII6                                                                                                                                              //\n//                                                                                                                                                                                  //\n// // // // // // // // // // // // // // // // // // // // // // // // // // // // // // // // // // // // // // // // // // // // // // // // // // // // // // // // // // // // //\n//                                                                                                                                                                                  //\n//      @dev            ::              Juan Xavier Valverde                                                                                                                                    //\n//      @msg            ::              juanxaviervm@hotmail.com                                                                                                                               //\n//      @twitter        ::              @JuanXavier                                                                                                                                             //\n//      @github         ::              @JuanXavier                                                                                                                                             //\n//                                                                                                                                                                                  //                                                                                                                                                                                 //\n// // // // // // // // // // // // // // // // // // // // // // // // // // // // // // // // // // // // // // // // // // // // // // // // // // // // // // // // // // // // //\n//  *   *   *   *   *   *   *   *   *   *   *   *   *   *   *   *   *   *   *   *   *   *   *   *   *   *   *   *   *   *   *   *   *   *   *   *   *   *   *   *   *   *   *   *   //\n// // // // // // // // // // // // // // // // // // // // // // // // // // // // // // // // // // // // // // // // // // // // // // // // // // // // // // // // // // // // //\n//                                                                                                                                                                                  //\n//                                                                                                                                                                                  //\n//      @title          ::              s0xiety Connect                                                                                                                             //\n//      @description    ::              decentral s0xiety                                                                                                                           //\n//      @version        ::              0.0.1                                                                                                                                       //\n//      @purpose        ::              Refer friennds on the blockchain                                                                                                            //\n//                                                                                                                                                                                  //\n//                                                                                                                                                                                  //\n//                                                                                                                                                                                  //\n//                                                                                                                                                                                  //\n//                                                                                                                                                                                  //\n// // // // // // // // // // // // // // // // // // // // // // // // // // // // // // // // // // // // // // // // // // // // // // // // // // // // // // // // // // // // //\n//  *   *   *   *   *   *   *   *   *   *   *   *   *   *   *   *   *   *   *   *   *   *   *   *   *   *   *   *   *   *   *   *   *   *   *   *   *   *   *   *   *   *   *   *   //\n// // // // // // // // // // // // // // // // // // // // // // // // // // // // // // // // // // // // // // // // // // // // // // // // // // // // // // // // // // // // //\n\n/////////////////////////////////////////////////////////////////////////////////////////////////////////////////////\n\n/* \n\nINSTRUCTIONS \n\nHere are the source codes you will need to test the functionality of the eco mint function with USDC payment \n(because of the 0.094$ price) \n\n- USDC is an obvious mockUp with a airdrop function so you can grab some coins !\n- Trees is the TR33 Contract that takes care of the Tree Tokenomics and gives the user his TR33 Tokens\n- MLQ is our Impact.dao Utility and Liquidity Token (unused but a dependency)\n- ECO is the Eco Mint NFT Contract that automates one tree per NFT into the payment process \n\nHope that helps the easiest way is to deploy all the contracts in remix and try to \n\n\nThats kind of it !\n\ngreetings and blessings https://stereoIII6.dao\n\n*/\n\n/////////////////////////////////////////////////////////////////////////////////////////////////////////////////////\n\npragma solidity ^0.8.7;\n\nimport \"@openzeppelin/contracts/utils/Counters.sol\";\nimport \"@openzeppelin/contracts/utils/Strings.sol\";\nimport \"@openzeppelin/contracts/token/ERC20/ERC20.sol\";\nimport \"@openzeppelin/contracts/token/ERC20/IERC20.sol\";\nimport \"@openzeppelin/contracts/token/ERC721/ERC721.sol\";\nimport \"@openzeppelin/contracts/token/ERC721/IERC721.sol\";\nimport \"@openzeppelin/contracts/token/ERC1155/ERC1155.sol\";\nimport \"@chainlink/contracts/src/v0.8/interfaces/AggregatorV3Interface.sol\";\nimport \"@chainlink/contracts/src/v0.8/interfaces/LinkTokenInterface.sol\";\nimport \"@chainlink/contracts/src/v0.8/interfaces/VRFCoordinatorV2Interface.sol\";\nimport \"@chainlink/contracts/src/v0.8/VRFConsumerBaseV2.sol\";\n\n//      MINIMAL LAUNCH CHECKLIST AVAX, FANTOM, POLYGON , XDAI                                               (√)\n//                                                                                                          /#/\n// 1 ) validation that safe adrress is accessible for everyone                                              (√)\n// 2 ) production VRF subscription ID                                                                       ( )\n// 3 ) validate vrf consumer addresses                                                                      ( )\n// 4 ) validate price consumer addresses                                                                    ( )\n// 5 ) test price exchange rates weth/usdc mlq/usdc main/usdc on all networks from frontend                 ( )\n//      a ) MLQ                                                                                             ( )\n//      b ) S33D                                                                                            ( )\n//      c ) CO2                                                                                             ( )\n// 6 ) test direct payment on contract with ud ens and ether address                                        ( )\n//      a ) MLQ                                                                                             ( )\n//      b ) S33D                                                                                            ( )\n//      c ) NFT & ECONFT **                                                                                 ( )**\n// 7 ) test carbon vesting in high speed                                                                    ( )\n// 8 ) test user profile and ipfs pinning function **                                                       ( )**\n// 9 ) test group , posting and direct messaging **                                                         ( )**\n// 10 ) test impact solbond profile NFT interface **                                                        ( )**\n// 11 ) test impact marketplace dias interface **                                                           ( )**\n//      a ) Layers **                                                                                       ( )**\n//      b ) Keys **                                                                                         ( )**\n//      c ) Actions **                                                                                      ( )**\n//      d ) Spec Combos **                                                                                  ( )**\n// 12 ) fractio testing dias object syntax ****                                                             ( )****\n// 13 ) afl8 testing ****                                                                                   ( )****\n// 14 ) drntl testing ****                                                                                  ( )****\n//      a ) Governance ****                                                                                 ( )****\n//      b ) Umbrella ****                                                                                   ( )****\n//      c ) Project ****                                                                                    ( )****\n//      d ) Holder ****                                                                                     ( )****\n//\n//      Phase 1 Migration Script\n//      ** Phase 2 Migration Script\n//      **** Phase 3 Migration Script\n\n// tasks\n\n/**\n\nUpload Form integration for avatar image \n\nProfile section under profile button \n\nSoulbound Profile Extension \n\nTREE Token Display \n\n\n */\n\n// 0 Fuji // 1 Avax // 2 Fantom Test // 3 Fantom Main // 4 Polygon Mumbai // 5 Polygon Main\ncontract exitSafes {\n    // ** CHECKLIST **\n    // validation that safe adrress is accessible for everyone\n    address impact;\n    address fortrees;\n\n    constructor(uint256 _net) {\n        if (_net == 1) {\n            // AVAX\n            impact = 0x7c3348aa2Cb61784952EC22cD06e69594c47b785;\n            fortrees = 0x6A583112f5536f6cC1c45019b8e61Ccc828B1368;\n        } else if (_net == 3) {\n            // FANTOM Opera\n            impact = 0x26C546A99D845B836E4938B120791C5DA2c32a7d;\n            fortrees = 0xF4D48CcD13A54400FcC3F5555dA95143a5470dbC;\n        } else if (_net == 2) {\n            // Fantom Test\n            impact = 0xB668bB8c7E4B0bCEd0A4099beF6d6d7D42F3B810;\n            fortrees = 0x9e84864E46Ca1644d2e60D89A127FDC7347ee056;\n        } else if (_net == 5) {\n            // Polygon\n            impact = 0x34E9108143157FfDb4168d6C8861987e81089306;\n            fortrees = 0x0cA8dD80519B7cEE294f25DdC132d8Fc1DbD7218;\n        } else {\n            // FALLBACK\n            impact = 0x47d77319d00A8FFc5ebbdCFd706B50F10bd8Da57;\n            fortrees = 0x7a1579D65c0BD9028c48B8e0C350aB0F625AA45d;\n        }\n    }\n}\n\ncontract VRFv2Consumer is VRFConsumerBaseV2 {\n    VRFCoordinatorV2Interface COORDINATOR;\n\n    // Your subscription ID.\n    uint64 s_subscriptionId;\n    uint256 net;\n\n    uint32 constant callbackGasLimit = 100000;\n    uint16 constant requestConfirmations = 3;\n    uint32 constant numWords = 7;\n\n    mapping(uint256 => uint256[]) public s_requestIdToRandomWords;\n    mapping(uint256 => address) public s_requestIdToAddress;\n    uint256 public s_requestId;\n    address s_owner;\n\n    // 0 Fuji // 1 Avax // 2 Fantom Test // 3 Fantom Main // 4 Polygon Mumbai // 5 Polygon Main\n    /* 5 => /\n    // Polygon Main coordinator. For other networks,\n    // see https://docs.chain.link/docs/vrf-contracts/#configurations\n    address vrfCoordinator = 0xAE975071Be8F8eE67addBC1A82488F1C24858067;\n    bytes32 keyHash =\n        0xd729dc84e21ae57ffb6be0053bf2b0668aa2aaf300a2a7b2ddf7dc0bb6e875a8;\n    // */\n\n    /* 4 => /\n    // Polygon Mumbai coordinator. For other networks,\n    // see https://docs.chain.link/docs/vrf-contracts/#configurations\n    address vrfCoordinator = 0x7a1BaC17Ccc5b313516C5E16fb24f7659aA5ebed;\n    bytes32 keyHash =\n        0x4b09e658ed251bcafeebbc69400383d49f344ace09b9576fe248bb02c003fe9f;\n\n    // */\n\n    /* 3 => /\n    // Fantom Main coordinator. For other networks,\n    // see https://docs.chain.link/docs/vrf-contracts/#configurations\n    address vrfCoordinator = 0xd5D517aBE5cF79B7e95eC98dB0f0277788aFF634;\n    bytes32 keyHash =\n        0x64ae04e5dba58bc08ba2d53eb33fe95bf71f5002789692fe78fb3778f16121c9;\n\n    // */\n\n    /* 2 => /\n    // Fantom Test coordinator. For other networks,\n    // see https://docs.chain.link/docs/vrf-contracts/#configurations\n    address vrfCoordinator = 0xbd13f08b8352A3635218ab9418E340c60d6Eb418;\n    bytes32 keyHash =\n        0x121a143066e0f2f08b620784af77cccb35c6242460b4a8ee251b4b416abaebd4;\n    // */\n\n    /* 1 => /\n    // AVAX coordinator. For other networks,\n    // see https://docs.chain.link/docs/vrf-contracts/#configurations\n    address vrfCoordinator = 0x2eD832Ba664535e5886b75D64C46EB9a228C2610;\n    bytes32 keyHash =\n        0x06eb0e2ea7cca202fc7c8258397a36f33d88568d2522b37aaa3b14ff6ee1b696;\n    // */\n\n    /* 0 => */\n    // AVAX Fuji coordinator. For other networks,\n    // see https://docs.chain.link/docs/vrf-contracts/#configurations\n    address vrfCoordinator = 0x2eD832Ba664535e5886b75D64C46EB9a228C2610;\n    bytes32 keyHash =\n        0x354d2f95da55398f44b7cff77da56283d9c6c829a4bdf1bbcaf2ad6a4d081f61;\n\n    // */\n\n    constructor(uint64 subscriptionId) VRFConsumerBaseV2(vrfCoordinator) {\n        COORDINATOR = VRFCoordinatorV2Interface(vrfCoordinator);\n        s_owner = msg.sender;\n        s_subscriptionId = subscriptionId;\n    }\n\n    function randy(uint256 _rid) external view returns (uint256[] memory) {\n        return s_requestIdToRandomWords[_rid];\n    }\n\n    // Assumes the subscription is funded sufficiently.\n    function requestRandomWords() external returns (uint256) {\n        uint256 requestId = COORDINATOR.requestRandomWords(\n            keyHash,\n            s_subscriptionId,\n            requestConfirmations,\n            callbackGasLimit,\n            numWords\n        );\n        s_requestIdToAddress[requestId] = msg.sender;\n\n        // Store the latest requestId for this example.\n        s_requestId = requestId;\n\n        // Return the requestId to the requester.\n        return requestId;\n    }\n\n    function fulfillRandomWords(uint256 requestId, uint256[] memory randomWords)\n        internal\n        override\n    {\n        // You can return the value to the requester,\n        // but this example simply stores it.\n        s_requestIdToRandomWords[requestId] = randomWords;\n    }\n}\n\n// 0 Fuji // 1 Avax // 2 Fantom Test // 4 Fantom Main // 5 Polygon Mumbai // 6 Polygon Main\ncontract PriceConsumerV3 {\n    AggregatorV3Interface internal ethUSDagg;\n    AggregatorV3Interface internal mainUSDagg;\n\n    constructor(uint256 _net) {\n        if (_net == 0) {\n            // AVAX FUJI\n            ethUSDagg = AggregatorV3Interface(\n                0x86d67c3D38D2bCeE722E601025C25a575021c6EA\n            );\n            mainUSDagg = AggregatorV3Interface(\n                0x5498BB86BC934c8D34FDA08E81D444153d0D06aD\n            );\n        } else if (_net == 1) {\n            // AVAX MAINNET\n            ethUSDagg = AggregatorV3Interface(\n                0x976B3D034E162d8bD72D6b9C989d545b839003b0\n            );\n            mainUSDagg = AggregatorV3Interface(\n                0x0A77230d17318075983913bC2145DB16C7366156\n            );\n        } else if (_net == 2) {\n            // Fantom TESTNET\n            ethUSDagg = AggregatorV3Interface(\n                0xB8C458C957a6e6ca7Cc53eD95bEA548c52AFaA24\n            );\n            mainUSDagg = AggregatorV3Interface(\n                0xe04676B9A9A2973BCb0D1478b5E1E9098BBB7f3D\n            );\n        } else if (_net == 3) {\n            // Fantom MAINNET\n            ethUSDagg = AggregatorV3Interface(\n                0x11DdD3d147E5b83D01cee7070027092397d63658\n            );\n            mainUSDagg = AggregatorV3Interface(\n                0xf4766552D15AE4d256Ad41B6cf2933482B0680dc\n            );\n        } else if (_net == 4) {\n            // Polygon Mumbai\n            ethUSDagg = AggregatorV3Interface(\n                0x0715A7794a1dc8e42615F059dD6e406A6594651A\n            );\n            mainUSDagg = AggregatorV3Interface(\n                0xd0D5e3DB44DE05E9F294BB0a3bEEaF030DE24Ada\n            );\n        } else if (_net == 5) {\n            // Polygon Mainnet\n            ethUSDagg = AggregatorV3Interface(\n                0xF9680D99D6C9589e2a93a78A04A279e509205945\n            );\n            mainUSDagg = AggregatorV3Interface(\n                0xAB594600376Ec9fD91F8e885dADF0CE036862dE0\n            );\n        }\n    }\n\n    // gives back weth price in $\n    function EthUsdPrice() external view returns (int256 price) {\n        (, price, , , ) = ethUSDagg.latestRoundData();\n    }\n\n    // gives back network gas currency price in $\n    function MainUsdPrice() external view returns (int256 price) {\n        (, price, , , ) = mainUSDagg.latestRoundData();\n    }\n}\n\ncontract MathFnx {\n    // Math Function Extension\n    // division function for solidity\n    function divide(uint256 _a, uint256 _b) internal pure returns (uint256) {\n        uint256 rem = _a % _b;\n        return ((_a - rem) / _b);\n    }\n\n    // generates unique id nr\n    function uniqID(string memory _inf) internal pure returns (uint256) {\n        bytes32 BHash = keccak256(abi.encode(_inf));\n        return uint256(BHash);\n    }\n\n    // gives back the smaller wallet address\n    function smaller(address _a, address _b)\n        internal\n        pure\n        returns (address s, address l)\n    {\n        if (_a < _b) {\n            s = _a;\n            l = _b;\n        } else if (_a > _b) {\n            s = _b;\n            l = _a;\n        }\n    }\n}\n\nlibrary MLQlib {\n    // MLQ Token Extension\n    uint256 public constant MLQ_RATE = 100;\n    uint256 public constant MLQ_DIG = 10**18;\n    uint256 public constant MAX_SUPPLY = 3 * 10**9 * MLQ_DIG;\n    uint256 public constant PUB_SUPPLY = 1 * 10**9 * MLQ_DIG;\n    uint256 public constant POOL_RESERVE = 1 * 10**9 * MLQ_DIG;\n    uint256 public constant CIRC_RESERVE = 1 * 10**9 * MLQ_DIG;\n}\n\ncontract Users {\n    // user data storage for conglomerate\n    address private s0x; // s0x admin\n\n    struct Impact {\n        uint256 action;\n        uint256 connection;\n        uint256 liquidity;\n    }\n    // user profile array // user# => dias%\n    mapping(address => bytes) public users;\n    mapping(address => bool) private isUser;\n    // role // user# => role$\n    mapping(address => uint256) private roles;\n    // only admin allowed function modifier\n    mapping(address => Impact) public impx;\n    mapping(address => string) public name;\n\n    modifier isAdmin() {\n        require(msg.sender == s0x);\n        _;\n    }\n\n    constructor() {\n        s0x = msg.sender; // admin initialization\n        makeUser(\n            s0x,\n            '{\"name\":\"s0xAdmin\",\"email\":\"type.stereo@pm.me\",\"image\":\"https://ipfs.io/ipfs/QmXNciGvGJGRV2HHE82oLoicvwatB8sqsydxn7P3NSP1nW\"}',\n            99,\n            \"s0xAdmin\"\n        ); // admin user account setup\n    }\n\n    // takes address , dias , and role to create and store a user profile in user mapping\n    function makeUser(\n        address _adr,\n        bytes memory _dias,\n        uint256 _r,\n        string memory _name\n    ) internal returns (bool) {\n        users[_adr] = _dias;\n        roles[_adr] = _r;\n        impx[_adr] = Impact(0, 0, 0);\n        name[_adr] = _name;\n        isUser[_adr] = true;\n        return true;\n    }\n\n    // takes dias to create guest user profile\n    function createUserAccount(\n        string memory _dias,\n        address _user,\n        string calldata _name\n    ) external returns (bool) {\n        return makeUser(_user, bytes(_dias), 2, _name);\n    }\n\n    // takes address , dias , and role to admin edit and store a user profile in user mapping\n    function adminEditUser(\n        address _adr,\n        string memory _dias,\n        uint256 _r\n    ) external isAdmin returns (bool) {\n        string memory _name = name[_adr];\n        return makeUser(_adr, bytes(_dias), _r, _name);\n    }\n\n    // takes address , dias , and role to edit and store your user profile in user mapping\n    function editUser(string memory _dias) external returns (bool) {\n        string memory _name = name[msg.sender];\n        return makeUser(msg.sender, bytes(_dias), 2, _name);\n    }\n\n    // shows user dias by address input\n    function showUser(address _adr) external view returns (string memory) {\n        return string(users[_adr]);\n    }\n\n    function showImpx(address _adr)\n        external\n        view\n        returns (\n            uint256,\n            uint256,\n            uint256\n        )\n    {\n        return (impx[_adr].action, impx[_adr].connection, impx[_adr].liquidity);\n    }\n\n    // shows role by address input\n    function getRole(address _adr) external view returns (uint256) {\n        return roles[_adr];\n    }\n\n    function getName(address _adr) external view returns (string memory) {\n        return name[_adr];\n    }\n\n    function isU(address _adr) external view returns (bool) {\n        return isUser[_adr];\n    }\n}\n\ncontract Friends is MathFnx {\n    Users private user;\n    // frenz // you# => frenz# => isfriend?\n    mapping(address => mapping(address => bool)) public frenz; // people following you\n    // degenz // you# => degenz# => isfriend?\n    mapping(address => mapping(address => bool)) public degenz; // people you follow\n    // connection bool // smaller# => bigger# => friends$ // friends : $0=unrelated, $1=hype, $2=nest\n    uint256 c;\n    mapping(address => mapping(address => uint256)) public connection;\n    mapping(address => uint256) public frenzCount;\n    mapping(address => uint256) public degenzCount;\n    mapping(address => mapping(uint256 => address)) public frenzByCount;\n    // user degenerated you\n    modifier degenerated(address _adr) {\n        require(degenz[msg.sender][_adr] == true || msg.sender == _adr); // do you follow or is it yourself\n        _;\n    }\n    // user frenzonned you\n    modifier frenzoned(address _adr) {\n        require(frenz[_adr][msg.sender] || msg.sender == _adr); // is he following or is it yourself\n        _;\n    }\n\n    constructor(address _usrAdr) {\n        user = Users(_usrAdr);\n        c = 1;\n    }\n\n    function showMe() external view returns (string memory) {\n        return user.showUser(msg.sender);\n    }\n\n    function showYou(address _adr) external view returns (string memory) {\n        return user.showUser(_adr);\n    }\n\n    function getRole(address _adr) external view returns (uint256) {\n        return user.getRole(_adr);\n    }\n\n    function follow(address _adr, address _sender) external returns (uint256) {\n        degenz[_adr][_sender] = true;\n        degenzCount[_adr]++;\n        frenz[_sender][_adr] = true;\n        frenzByCount[_sender][frenzCount[_sender]] = _adr;\n        frenzCount[_sender]++;\n        (address s, address l) = smaller(_adr, _sender);\n        if (connection[s][l] == 0) {\n            connection[s][l] = c;\n            c++;\n            return (connection[s][l]);\n        } else return (connection[s][l]);\n    }\n\n    function doShowStatus(address _adr, address _sender)\n        external\n        view\n        returns (\n            uint256,\n            bool,\n            bool,\n            address,\n            address\n        )\n    {\n        (address s, address l) = smaller(_adr, _sender);\n        return (\n            connection[s][l],\n            frenz[_sender][_adr],\n            degenz[_sender][_adr],\n            s,\n            l\n        );\n    }\n\n    function doFrenzCount(address _adr) external view returns (uint256) {\n        return frenzCount[_adr];\n    }\n\n    function doDegenzCount(address _adr) external view returns (uint256) {\n        return degenzCount[_adr];\n    }\n\n    function doShowFrenz(address _adr, uint256 _c)\n        external\n        view\n        returns (address)\n    {\n        return frenzByCount[_adr][_c];\n    }\n\n    function isFrenz(address _a, address _b) external view returns (bool) {\n        return frenz[_a][_b];\n    }\n}\n\ncontract Groups is MathFnx {\n    Users private user; // user contract reference\n    Friends private friend; // friend contract reference\n    address public owner; // owner address\n    string public name; // group name\n    uint256 private m; // member count\n    uint256 private state; // 0-private (no invite), 1-bothchecked, 2-ulike, 3-likeu, 4-bothcheckedofulike, 5-public, 9-secret, 99-admin\n    mapping(uint256 => address) public members; // address by id\n    mapping(address => uint256) public mNum; // id by address\n    uint256 private c; // content count\n    mapping(address => uint256) public myContent; // content count by address\n    mapping(address => mapping(uint256 => bytes)) public content; // content by address => myContent counter\n    mapping(uint256 => bytes) public cntnt; // contentt by cid\n    mapping(uint256 => uint256) public r; // replys by cntnt id c\n    mapping(uint256 => mapping(uint256 => bytes)) public replys; // replys by cid => rply id => reply content\n    mapping(address => uint256) public myRplyCount; // reply count  by useraddress\n    mapping(address => mapping(uint256 => bytes)) public myReplys; // reply content by address and myrplycount\n    mapping(address => bool) public invite;\n\n    constructor(\n        address _user,\n        address _friend,\n        bytes memory _name,\n        uint256 _state,\n        address _o\n    ) {\n        state = _state;\n        user = Users(_user);\n        friend = Friends(_friend);\n        owner = _o;\n        name = string(_name);\n    }\n\n    function addUser(address _adr) external returns (address) {\n        if (state == 0)\n            require(m < 2); // private state one allows 2 users only\n            // require(user.isU(msg.sender) == true);\n            // require(user.isU(_adr) == true);\n        else if (state == 1) {\n            require(friend.isFrenz(owner, _adr));\n            require(friend.isFrenz(_adr, owner));\n        } // only degenz&frenz allowed\n        /*\n        else if(state == 2) {\n          require(friend.isFrenz(owner, _adr));  \n        } // only frenz people you like\n        else if(state == 3) {\n          require(friend.isFrenz(_adr, owner));  \n        } // only degenz people who like you\n        else if(state == 4) {\n            require(friend.isFrenz(msg.sender, _adr));\n            require(friend.isFrenz(_adr, msg.sender));\n        } // only degenz&frenz allowed\n\n        else if(state == 9) require(invite[_adr] == true);\n        else if(state == 99) require(friend.getRole(msg.sender) == 99);\n        */\n        members[m] = _adr;\n        mNum[_adr] = m;\n        m++;\n        return _adr;\n    }\n\n    function removeUser(address _adr) external returns (address) {\n        require(state != 0);\n        members[mNum[_adr]] = 0x0000000000000000000000000000000000000000;\n        mNum[_adr] = 0;\n        return _adr;\n    }\n\n    function addContent(string memory _cnt) external returns (string memory) {\n        content[msg.sender][myContent[msg.sender]] = bytes(_cnt);\n        myContent[msg.sender]++;\n        cntnt[c] = bytes(_cnt);\n        c++;\n        return _cnt;\n    }\n\n    function addReplyToContent(string memory _rply, uint256 _c)\n        external\n        returns (uint256)\n    {\n        replys[_c][r[_c]] = bytes(_rply);\n        myReplys[msg.sender][myRplyCount[msg.sender]] = bytes(_rply);\n        myRplyCount[msg.sender]++;\n        return r[_c]++;\n    }\n}\n\ncontract s0xFactory is Users, MathFnx {\n    Friends public friends;\n    Groups public groups;\n    MLQ public mlq;\n    address private fAdr;\n    mapping(address => uint256) public groupCount;\n    mapping(address => mapping(uint256 => address)) public groupByCount;\n\n    constructor(address _mlq) Users() MathFnx() {\n        mlq = MLQ(payable(_mlq));\n        friends = new Friends(address(this));\n        fAdr = address(friends);\n    }\n\n    function createGroup(string memory _name, uint256 _state)\n        external\n        returns (address)\n    {\n        groups = new Groups(\n            address(this),\n            fAdr,\n            bytes(_name),\n            _state,\n            msg.sender\n        );\n        groupByCount[msg.sender][groupCount[msg.sender]] = address(groups);\n        groupCount[msg.sender]++;\n        return address(groups);\n    }\n\n    function createConvo(\n        address _to,\n        address _from,\n        string memory _msg\n    ) external returns (address) {\n        (address s, address l) = smaller(_to, _from);\n        return makeConvo(s, l, _msg, _from);\n    }\n\n    function makeConvo(\n        address _s,\n        address _l,\n        string memory _name,\n        address _from\n    ) internal returns (address) {\n        groups = new Groups(address(this), fAdr, bytes(_name), 0, _from);\n        groupByCount[_s][groupCount[_s]] = address(groups);\n        groupByCount[_l][groupCount[_l]] = address(groups);\n        groupCount[_s]++;\n        groupCount[_l]++;\n        groups.addUser(_s);\n        groups.addUser(_l);\n        return address(groups);\n    }\n\n    function followAdr(address _adr) external returns (uint256) {\n        return friends.follow(_adr, msg.sender);\n    }\n\n    function showFrenz(address _adr, uint256 _c)\n        external\n        view\n        returns (address)\n    {\n        return friends.doShowFrenz(_adr, _c);\n    }\n\n    function countFrenz(address _adr) external view returns (uint256) {\n        return friends.doFrenzCount(_adr);\n    }\n\n    function countDegenz(address _adr) external view returns (uint256) {\n        return friends.doDegenzCount(_adr);\n    }\n\n    function showStatus(address _adr)\n        external\n        view\n        returns (\n            uint256,\n            bool,\n            bool,\n            address,\n            address\n        )\n    {\n        return friends.doShowStatus(_adr, msg.sender);\n    }\n}\n\ncontract USDC is ERC20 {\n    constructor() ERC20(\"US Dollar Coin\", \"USDC\") {}\n\n    function dropUSDC() external {\n        _mint(msg.sender, 100 * 10**18);\n    }\n}\n\n// 0 Fuji // 1 Avax // 2 Fantom Test // 4 Fantom Main // 5 Polygon Mumbai // 6 Polygon Main\ncontract MLQ is ERC20, MathFnx, exitSafes {\n    using MLQlib for *;\n    address private admin;\n    int256 public rate;\n    uint256 public PUB_SUPPLY;\n    uint256 MLQ_RATE;\n    uint256 mainRate;\n    PriceConsumerV3 public ethUsdPrice;\n    mapping(address => uint256) public mlqBalance;\n    USDC usdc;\n\n    constructor(\n        address _usdc,\n        address _pc,\n        uint256 _net\n    ) ERC20(\"Milquidity Token\", \"MLQ\") exitSafes(_net) {\n        admin = msg.sender;\n        usdc = USDC(_usdc);\n        setSupply(MLQlib.PUB_SUPPLY);\n        ethUsdPrice = PriceConsumerV3(_pc);\n    }\n\n    function setMLQRate() internal returns (int256) {\n        int256 price = ethUsdPrice.EthUsdPrice();\n        uint256 newRate = divide(uint256(price), 100);\n        rate = int256(newRate);\n        return rate;\n    }\n\n    function setMainRate() internal returns (int256) {\n        int256 price = ethUsdPrice.MainUsdPrice();\n        uint256 newRate = divide(uint256(price), 100);\n        rate = int256(newRate);\n        return rate;\n    }\n\n    function setSupply(uint256 _newSupply) internal returns (uint256) {\n        PUB_SUPPLY = _newSupply;\n        return PUB_SUPPLY;\n    }\n\n    function buyMlqMain() external payable returns (uint256) {\n        setMLQRate();\n        setMainRate();\n        uint256 swapRate = divide(mainRate, MLQ_RATE);\n        uint256 amnt = msg.value * swapRate;\n        require(amnt > address(this).balance, \"insufficient balance\");\n        // find maincurr price for mlq\n        require(PUB_SUPPLY >= amnt);\n        _mint(msg.sender, amnt);\n        mlqBalance[msg.sender] += amnt;\n        PUB_SUPPLY -= amnt;\n        return amnt;\n    }\n\n    function buyMlqUSDC(uint256 _amnt) external payable returns (uint256) {\n        setMLQRate();\n        uint256 amnt = _amnt * uint256(rate) * 10**10;\n        require(PUB_SUPPLY >= amnt);\n        usdc.transferFrom(msg.sender, address(this), amnt);\n        _mint(msg.sender, _amnt * 10**18);\n        mlqBalance[msg.sender] = _amnt * 10**18;\n        PUB_SUPPLY -= amnt;\n        return amnt;\n    }\n\n    function mlqBal(address _adr) external view returns (uint256) {\n        return mlqBalance[_adr];\n    }\n\n    function withdraw(uint256 _amnt) external returns (uint256) {\n        uint256 amnt = MLQlib.MLQ_DIG * _amnt;\n        require(admin == msg.sender);\n        require(mlqBalance[address(this)] >= amnt);\n        transferFrom(address(this), admin, amnt);\n        return amnt;\n    }\n\n    function flush() external returns (uint256) {\n        require(admin == msg.sender);\n        transferFrom(address(this), admin, mlqBalance[address(this)]);\n        payable(admin).transfer(address(this).balance);\n        usdc.transferFrom(address(this), admin, usdc.balanceOf(address(this)));\n        return address(this).balance;\n    }\n\n    receive() external payable {\n        uint256 ethAmntImpact = divide(msg.value, 100) * 15;\n        uint256 ethAmntTrees = msg.value - ethAmntImpact;\n        payable(impact).transfer(ethAmntImpact);\n        payable(fortrees).transfer(ethAmntTrees);\n        uint256 swapRate = divide(MLQ_RATE, uint256(rate));\n        uint256 trees = msg.value * swapRate;\n        transfer(msg.sender, trees);\n    }\n}\n\n// 0 Fuji // 1 Avax // 2 Fantom Test // 4 Fantom Main // 5 Polygon Mumbai // 6 Polygon Main\ncontract Trees is ERC20, MathFnx, exitSafes {\n    uint256 MAX_SUPPLY;\n    uint256 rate;\n    uint256 MLQ_RATE;\n    uint256 mainRate;\n    uint256 availSupply;\n    address author;\n    PriceConsumerV3 public ethUsdPrice;\n    IERC20 usdc;\n    MLQ mlq;\n    event Log(uint256 l, address f, address t, uint256 b, uint256 a);\n    uint256 l;\n\n    constructor(\n        address _usdc,\n        address _mlq,\n        address _pc,\n        uint256 _net\n    ) ERC20(\"Seedling\", \"S33D\") exitSafes(_net) {\n        MAX_SUPPLY = 5000000000000 * 10**18;\n        author = msg.sender;\n        usdc = IERC20(_usdc);\n        mlq = MLQ(payable(_mlq));\n        rate = 94 * 10**15;\n        ethUsdPrice = PriceConsumerV3(_pc);\n    }\n\n    modifier isAdmin() {\n        require(msg.sender == author);\n        _;\n    }\n    mapping(address => uint256) public treeClaims;\n\n    function addClaim(address _adr, uint256 _amnt) external returns (bool) {\n        treeClaims[_adr] += _amnt;\n        return true;\n    }\n\n    function getClaims() external returns (bool) {\n        _mint(msg.sender, treeClaims[msg.sender]);\n        treeClaims[msg.sender] = 0;\n        return true;\n    }\n\n    function buyTreeUSDC(uint256 _amount, address _send)\n        external\n        returns (bool)\n    {\n        emit Log(\n            l,\n            _send,\n            impact,\n            usdc.balanceOf(_send),\n            usdc.balanceOf(address(this))\n        );\n        l++;\n        require(\n            usdc.balanceOf(_send) >= _amount * rate,\n            \"insufficient usdc balance\"\n        );\n        require(\n            availSupply + _amount * 10**18 < MAX_SUPPLY,\n            \"insufficient supply\"\n        );\n        usdc.transferFrom(_send, fortrees, ((_amount * rate) / 100) * 85);\n        usdc.transferFrom(_send, impact, ((_amount * rate) / 100) * 15);\n        availSupply += _amount * 10**18;\n        _mint(msg.sender, _amount * 10**18);\n        return true;\n    }\n\n    function buyTreesMainnet(uint256 _amount, address _send)\n        external\n        payable\n        returns (uint256)\n    {}\n\n    function setMainRate() internal returns (uint256) {\n        int256 mainR = ethUsdPrice.MainUsdPrice();\n        mainRate = uint256(mainR);\n        return (uint256(mainR));\n    }\n\n    function setMLQRates() internal returns (uint256) {\n        int256 mlqR = ethUsdPrice.EthUsdPrice();\n        MLQ_RATE = uint256(mlqR);\n        return (uint256(mlqR));\n    }\n\n    function buyTreeMLQ(uint256 _amount, address _send)\n        external\n        returns (bool)\n    {\n        uint256 swapRate = divide(MLQ_RATE, rate);\n        emit Log(\n            l,\n            _send,\n            fortrees,\n            mlq.balanceOf(_send),\n            mlq.balanceOf(address(this))\n        );\n        l++;\n        require(\n            mlq.balanceOf(_send) >= _amount * swapRate,\n            \"insufficient usdc balance\"\n        );\n        require(\n            availSupply + _amount * 10**18 < MAX_SUPPLY,\n            \"insufficient supply\"\n        );\n        mlq.transferFrom(_send, fortrees, ((_amount * swapRate) / 100) * 85);\n        mlq.transferFrom(_send, impact, ((_amount * swapRate) / 100) * 15);\n        availSupply += _amount * 10**18;\n        _mint(msg.sender, _amount * 10**18);\n        return true;\n    }\n\n    function donateTrees(uint256 _amount) external isAdmin returns (bool) {\n        require(balanceOf(msg.sender) > _amount * 10**18);\n        _burn(msg.sender, _amount * 10**18);\n        return true;\n    }\n\n    function approveContract(address _contract) external returns (bool) {\n        approve(_contract, balanceOf(msg.sender));\n        return true;\n    }\n\n    function setERC20(address _usdc) external isAdmin returns (bool) {\n        usdc = IERC20(_usdc);\n        return true;\n    }\n\n    function setMLQ(address _mlq) external isAdmin returns (bool) {\n        mlq = MLQ(payable(_mlq));\n        return true;\n    }\n\n    function approveUSDC(uint256 _amnt) external pure returns (bool) {\n        // delegated call to approve\n        return _amnt == _amnt;\n    }\n\n    function trimTrees(uint256 _newPrice) external returns (uint256) {\n        rate = _newPrice;\n        return rate;\n    }\n\n    receive() external payable {\n        uint256 ethAmntImpact = divide(msg.value, 100) * 15;\n        uint256 ethAmntTrees = msg.value - ethAmntImpact;\n        payable(impact).transfer(ethAmntImpact);\n        payable(fortrees).transfer(ethAmntTrees);\n        uint256 swapRate = divide(MLQ_RATE, rate);\n        uint256 trees = msg.value * swapRate;\n        transfer(msg.sender, trees);\n    }\n\n    function withdraw(uint256 _eth, uint256 _tree)\n        external\n        isAdmin\n        returns (bool)\n    {\n        require(_tree * 10**18 <= balanceOf(address(this)));\n        require(_eth * 10**18 <= address(this).balance);\n        transfer(payable(impact), _tree * 10**18);\n        payable(impact).transfer(_eth * 10**18);\n        return true;\n    }\n}\n\ncontract nftProject is ERC721 {\n    address public owner;\n    uint256 public minted;\n    uint256 public max;\n    string public nam;\n    string public sym;\n    VRFv2Consumer public vrf;\n    ERC20 public usdc;\n    MLQ public mlq;\n    mapping(uint256 => bytes) public dias;\n\n    constructor(\n        address _owner,\n        string memory _name,\n        string memory _sym,\n        address _usdc,\n        address _vrf,\n        address _mlq\n    ) ERC721(_name, _sym) {\n        owner = _owner;\n        max = 1000;\n        nam = _name;\n        sym = _sym;\n        vrf = VRFv2Consumer(_vrf);\n        usdc = ERC20(_usdc);\n        mlq = MLQ(payable(_mlq));\n    }\n\n    function isOwner(address _adr) external view returns (bool) {\n        if (_adr == owner) return true;\n        else return false;\n    }\n\n    function getName() external view returns (string memory) {\n        return nam;\n    }\n\n    function getSym() external view returns (string memory) {\n        return sym;\n    }\n\n    function mint(uint256 _amnt) external returns (uint256) {\n        require(minted < max);\n        doMint(_amnt);\n        return minted;\n    }\n\n    function getVrfId() internal returns (uint256[] memory) {\n        uint256 rid = vrf.requestRandomWords();\n        return vrf.randy(rid);\n    }\n\n    function doMint(uint256 _amnt) internal returns (uint256) {\n        _mint(msg.sender, minted);\n        minted++;\n        if (_amnt >= 2) {\n            _mint(msg.sender, minted);\n            minted++;\n\n            if (_amnt >= 3) {\n                _mint(msg.sender, minted);\n                minted++;\n\n                if (_amnt >= 4) {\n                    _mint(msg.sender, minted);\n                    minted++;\n\n                    if (_amnt >= 5) {\n                        _mint(msg.sender, minted);\n                        minted++;\n\n                        if (_amnt >= 6) {\n                            _mint(msg.sender, minted);\n                            minted++;\n\n                            if (_amnt >= 7) {\n                                _mint(msg.sender, minted);\n                                minted++;\n                            }\n                        }\n                    }\n                }\n            }\n        }\n        return minted;\n    }\n\n    function holder(uint256 _id) external view returns (address) {\n        return ownerOf(_id);\n    }\n}\n\n// 0 Fuji // 1 Avax // 2 Fantom Test // 4 Fantom Main // 5 Polygon Mumbai // 6 Polygon Main\ncontract EcoMintNFT is nftProject, exitSafes, MathFnx {\n    Trees public trees;\n    uint256 nftPrice;\n    uint256 val;\n\n    constructor(\n        address _owner,\n        string memory _name,\n        string memory _sym,\n        address _treeAdr,\n        address _usdc,\n        address _vrf,\n        address _mlq,\n        uint256 _net\n    ) nftProject(_owner, _name, _sym, _usdc, _vrf, _mlq) exitSafes(_net) {\n        trees = Trees(payable(_treeAdr));\n        nftPrice = 25 * 10**18;\n        val = 94 * 10**15;\n    }\n\n    function setValue(uint256 _val) external returns (uint256) {\n        return val = _val;\n    }\n\n    function ecoMint(uint256 _amnt) external returns (uint256) {\n        require(minted < max);\n        uint256 sub = nftPrice + val;\n        uint256 total = _amnt * sub;\n        uint256 fee = 3 * 10**18;\n        require(total + fee < usdc.balanceOf(msg.sender), \"insufficient funds\");\n        usdc.transferFrom(msg.sender, impact, fee);\n        usdc.transferFrom(msg.sender, fortrees, divide(total, 100) * 85);\n        usdc.transferFrom(msg.sender, impact, divide(total, 100) * 15);\n        trees.addClaim(msg.sender, _amnt * 10**18);\n        doMint(_amnt);\n        return minted;\n    }\n}\n\ncontract RiteWhabbits is EcoMintNFT {\n    constructor(\n        address _owner,\n        string memory _name,\n        string memory _sym,\n        address _treeAdr,\n        address _usdc,\n        address _vrf,\n        address _mlq,\n        uint256 _net\n    ) EcoMintNFT(_owner, _name, _sym, _treeAdr, _usdc, _vrf, _mlq, _net) {}\n\n    mapping(uint256 => bytes) private _tokenStatus;\n    mapping(uint256 => uint256) private _tokenVRF;\n    mapping(uint256 => bytes) private _tokenTraitScramble;\n    struct Traits {\n        uint256 bg0; // far landscape\n        uint256 bg1; // mid\n        uint256 bg2; // near\n        uint256 bodybg0; // min body shape\n        uint256 bodybg1; // female shape < .5\n        uint256 bodybg2; // male shape >= .5\n        uint256 hair;\n        uint256 hat;\n        uint256 eyes;\n        uint256 eyebrows;\n        uint256 glasses;\n        uint256 nose;\n        uint256 mouth;\n        uint256 beard;\n    }\n}\n\ncontract Co2s is ERC20, MathFnx {\n    IERC20 internal trees;\n    MLQ mlq;\n    uint256 MAX_SUPPLY;\n    uint256 rate;\n    uint256 availSupply;\n    address author;\n    Friends private friends;\n    struct Bond {\n        uint256 id;\n        address adr;\n        uint256 amount;\n        uint256 region;\n        uint256 stamp;\n        uint256 duration;\n        uint256 co2;\n    }\n\n    mapping(address => uint256) public myBonds;\n    mapping(address => mapping(uint256 => uint256)) public myBondedCo2;\n\n    Bond[] public bonds;\n    uint256 c;\n    uint256 b;\n    uint256 per;\n\n    constructor(\n        address _contract,\n        uint256 _percent,\n        address _mlq\n    ) ERC20(\"Carbon Certificate\", \"C4RB\") {\n        MAX_SUPPLY = 25000000000000 * 10**18;\n        trees = IERC20(_contract);\n        per = _percent;\n        mlq = MLQ(payable(_mlq));\n        author = msg.sender;\n    }\n\n    modifier isAdmin() {\n        require(msg.sender == author);\n        _;\n    }\n\n    function growTrees(\n        uint256 _trees,\n        uint256 _region,\n        uint256 _duration\n    ) external payable returns (bool) {\n        require(msg.value >= _trees * 10**14, \"not enough funds for asset\");\n        require(_trees <= trees.balanceOf(msg.sender), \"insufficient balance\");\n        require(\n            5 * _trees * 10**18 <= MAX_SUPPLY - availSupply,\n            \"insufficient supply\"\n        );\n        bonds.push(\n            Bond(\n                b,\n                msg.sender,\n                _trees * 10**18,\n                _region,\n                block.timestamp,\n                _duration,\n                5 * _trees * 10**18\n            )\n        );\n        availSupply += 5 * _trees * 10**18;\n        myBondedCo2[msg.sender][myBonds[msg.sender]] = b;\n        myBonds[msg.sender]++;\n        trees.transferFrom(msg.sender, payable(address(this)), _trees * 10**18);\n        b++;\n        return true;\n    }\n\n    function growMoreTrees(uint256 _trees, uint256 _b)\n        external\n        payable\n        returns (bool)\n    {\n        require(msg.value >= _trees * 10**14);\n        require(_trees <= trees.balanceOf(msg.sender));\n        uint256 treez = _trees * 10**18;\n        require(5 * treez <= MAX_SUPPLY - availSupply);\n        uint256 p = divide(100, bonds[_b].amount) * treez;\n        bonds[_b].amount += treez;\n        bonds[_b].co2 += 5 * treez;\n        bonds[_b].duration += bonds[_b].duration * p;\n        uint256 fee = divide(treez, (100 / per));\n        trees.transfer(payable(address(this)), treez - fee);\n        trees.transfer(payable(address(this)), fee);\n        return true;\n    }\n\n    function growLessTrees(uint256 _trees, uint256 _b)\n        external\n        payable\n        returns (bool)\n    {\n        require(msg.value >= _trees * 10**15);\n        uint256 treez = _trees * 10**18;\n        require(\n            treez <= bonds[myBondedCo2[msg.sender][myBonds[msg.sender]]].amount\n        );\n        bonds[_b].amount -= treez;\n        bonds[_b].co2 -= 5 * treez;\n        uint256 fee = divide(treez, (100 / per));\n        trees.transfer(payable(msg.sender), treez - fee);\n        trees.transfer(payable(address(this)), fee);\n        return true;\n    }\n\n    function calcFreeCo2(uint256 _b) internal view returns (uint256, uint256) {\n        uint256 total = bonds[_b].duration * 60 * 60 * 24 * 365;\n        uint256 passed = block.timestamp - bonds[_b].stamp;\n        uint256 pDur = divide(100 * 10**18, total) * passed;\n        uint256 freeCo2 = divide(100 * 10**18, bonds[_b].co2) * pDur;\n        return (freeCo2, passed);\n    }\n\n    function releaseFreeCo2(uint256 _m) external returns (bool) {\n        uint256 _b = myBondedCo2[msg.sender][_m]; // get b_id\n        (uint256 free, uint256 passed) = calcFreeCo2(_b); // get free co2 & passed time\n        require(1 * 10**18 <= free); // check amount\n        bonds[_b].co2 -= free; // edit bonds data subtract\n        bonds[_b].stamp = block.timestamp;\n        uint256 addTime = divide(passed, (100 / per));\n        bonds[_b].duration += addTime;\n\n        uint256 fee = divide(free, (100 / per));\n        _mint(msg.sender, (free - fee)); // mint free co2\n        _mint(address(this), fee);\n        return true;\n    }\n\n    function withdraw(\n        uint256 _eth,\n        uint256 _co2,\n        uint256 _tree\n    ) external isAdmin returns (bool) {\n        require(_co2 * 10**18 <= balanceOf(address(this)));\n        require(_tree * 10**18 <= trees.balanceOf(address(this)));\n        require(_eth * 10**18 <= address(this).balance);\n        transfer(payable(author), _co2 * 10**18);\n        trees.transfer(payable(author), _tree * 10**18);\n        payable(author).transfer(_eth * 10**18);\n        return true;\n    }\n}\n\ncontract GardenPool is ERC1155, MathFnx {\n    IERC20 internal TR3EZ;\n    IERC20 internal CO2;\n    IERC20 internal lowC;\n    IERC20 internal highC;\n    address author;\n    uint256 private per;\n    uint256 public collectedFees;\n    struct Garden {\n        uint256 id;\n        address low;\n        uint256 lowTotal;\n        address high;\n        bytes description;\n        uint256 low4high;\n        uint256 maxSize;\n        uint256 currentSize;\n    }\n    Garden[] public gardens;\n    uint256 g;\n\n    constructor(\n        address _trees,\n        address _co2,\n        uint256 _percent\n    ) ERC1155(\"IMgardens\") {\n        author = msg.sender;\n        TR3EZ = IERC20(_trees);\n        CO2 = IERC20(_co2);\n        per = _percent;\n    }\n\n    modifier isAdmin() {\n        require(msg.sender == author);\n        _;\n    }\n\n    function createGarden(\n        string memory _name,\n        address _hi,\n        address _lo\n    ) external returns (bool) {\n        _setURI(_name);\n        _mint(address(this), g, 100 * 10**6, bytes(_name)); // 1 : 10 000 // 100 000 weth : 1 000 000 000 trees = 100% // 1 weth : 10 000 trees = 0,001% of max pool size\n        gardens.push(\n            Garden(g, _hi, 1000000000, _lo, bytes(_name), 10000, 100000, 0)\n        );\n        g++;\n        return true;\n    }\n\n    function addliquidity(uint256 _id, uint256 _low)\n        external\n        payable\n        returns (bool)\n    {\n        uint256 low = _low * 10**6;\n        uint256 high = gardens[_id].low4high * low;\n        lowC = IERC20(gardens[_id].low);\n        highC = IERC20(gardens[_id].high);\n        require(lowC.balanceOf(msg.sender) >= low);\n        require(highC.balanceOf(msg.sender) >= high);\n        lowC.transferFrom(msg.sender, address(this), low);\n        highC.transferFrom(msg.sender, address(this), high);\n        uint256 gardenDrops = divide(100 * 10**6, gardens[_id].lowTotal) * low;\n        safeTransferFrom(\n            address(this),\n            msg.sender,\n            gardens[_id].id,\n            gardenDrops,\n            gardens[_id].description\n        );\n        gardens[_id].currentSize += gardenDrops;\n        return true;\n    }\n\n    function removeLiquidity(uint256 _id, uint256 _gardenDrops)\n        external\n        payable\n        returns (bool)\n    {\n        uint256 low = divide(100 * 10**6, gardens[_id].lowTotal) * _gardenDrops;\n        uint256 high = low * gardens[_id].low4high;\n        lowC = IERC20(gardens[_id].low);\n        highC = IERC20(gardens[_id].high);\n        require(lowC.balanceOf(address(this)) >= low);\n        require(highC.balanceOf(address(this)) >= high);\n        lowC.transferFrom(address(this), msg.sender, low);\n        highC.transferFrom(address(this), msg.sender, high);\n        safeTransferFrom(\n            msg.sender,\n            address(this),\n            gardens[_id].id,\n            _gardenDrops,\n            gardens[_id].description\n        );\n        gardens[_id].currentSize -= _gardenDrops;\n        return true;\n    }\n\n    function swapLowHigh(uint256 _id, uint256 _low)\n        external\n        payable\n        returns (bool)\n    {\n        uint256 low = _low * 10**6;\n        lowC = IERC20(gardens[_id].low);\n        highC = IERC20(gardens[_id].high);\n        require(lowC.balanceOf(msg.sender) >= low);\n        uint256 fee = divide(100 * 10**6, low) * (100 / per);\n        uint256 get = gardens[_id].low4high * (low - fee);\n        require(highC.balanceOf(address(this)) >= get);\n        lowC.transferFrom(msg.sender, address(this), low);\n        highC.transferFrom(address(this), msg.sender, get);\n        collectedFees += fee;\n        return true;\n    }\n\n    function swapHighLow(uint256 _id, uint256 _high)\n        external\n        payable\n        returns (bool)\n    {\n        uint256 high = _high * 10**6;\n        lowC = IERC20(gardens[_id].low);\n        highC = IERC20(gardens[_id].high);\n        require(highC.balanceOf(msg.sender) >= high);\n        uint256 fee = divide(100 * 10**6, high) * (100 / per);\n        uint256 get = divide(high - fee, gardens[_id].low4high);\n        require(highC.balanceOf(address(this)) >= get);\n        highC.transferFrom(msg.sender, address(this), high);\n        lowC.transferFrom(address(this), msg.sender, get);\n        collectedFees += fee;\n        return true;\n    }\n\n    function waterGardens(uint256 _id) external payable returns (uint256) {\n        lowC = IERC20(gardens[_id].low);\n        highC = IERC20(gardens[_id].high);\n        uint256 lBal = lowC.balanceOf(address(this));\n        uint256 hBal = highC.balanceOf(address(this));\n        uint256 rRatio = divide(hBal, lBal);\n        uint256 eRatio = divide(gardens[_id].low4high, 1);\n        uint256 difRatio = divide(100, eRatio) * rRatio;\n        return difRatio;\n    }\n}\n\ncontract COIN is ERC20, MathFnx {\n    using MLQlib for *;\n    address private admin;\n    uint256 public rate;\n    uint256 public PUB_SUPPLY;\n    uint256 public MAX_SUPPLY;\n    string public title;\n    mapping(address => uint256) public coinBalance;\n\n    constructor(\n        string memory _name,\n        string memory _sym,\n        uint256 _rate,\n        uint256 _supply,\n        address _admin\n    ) ERC20(_name, _sym) {\n        admin = _admin;\n        setRate(_rate);\n        MAX_SUPPLY = _supply;\n        title = _name;\n    }\n\n    function setRate(uint256 _newRate) internal returns (uint256) {\n        rate = _newRate;\n        return rate;\n    }\n\n    function getRate() external view returns (uint256) {\n        return rate;\n    }\n\n    function getMax() external view returns (uint256) {\n        return MAX_SUPPLY;\n    }\n\n    function getName() external view returns (string memory) {\n        return title;\n    }\n\n    function getMinted() external view returns (uint256) {\n        return PUB_SUPPLY;\n    }\n\n    function buyMlq(uint256 _amnt) external payable returns (uint256) {\n        uint256 amnt = MLQlib.MLQ_DIG * _amnt;\n        require(PUB_SUPPLY >= amnt);\n        require(divide(msg.value, 100) >= amnt);\n        _mint(msg.sender, amnt);\n        coinBalance[msg.sender] = amnt;\n        PUB_SUPPLY += amnt;\n        return amnt;\n    }\n\n    function coinBal(address _adr) external view returns (uint256) {\n        return coinBalance[_adr];\n    }\n\n    function withdraw(uint256 _amnt) external returns (uint256) {\n        uint256 amnt = MLQlib.MLQ_DIG * _amnt;\n        require(admin == msg.sender);\n        require(coinBalance[address(this)] >= amnt);\n        transferFrom(address(this), admin, amnt);\n        return amnt;\n    }\n\n    function flush() external returns (uint256) {\n        require(admin == msg.sender);\n        transferFrom(address(this), admin, coinBalance[address(this)]);\n        payable(admin).transfer(address(this).balance);\n        return address(this).balance;\n    }\n}\n\ncontract s0xPool is MathFnx {\n    COIN public coin;\n    COIN public main;\n    COIN public sec;\n    COIN public pool;\n    uint256 p;\n    struct Pool {\n        uint256 id;\n        address pool;\n        address main;\n        uint256 ethByMain;\n        uint256 mainMax;\n        address sec;\n        uint256 ethBySec;\n        uint256 secMax;\n        uint256 distrib;\n        uint256 xRate;\n    }\n    uint256 t;\n    struct Token {\n        uint256 id;\n        string name;\n        address adr;\n        uint256 MAX_SUPPLY;\n        uint256 mintedSupply;\n        uint256 priceInEth;\n    }\n    uint256 s;\n    struct Safe {\n        uint256 id;\n        address user;\n        address token;\n        uint256 safeBalance;\n    }\n    mapping(uint256 => Pool) public poolz;\n    mapping(uint256 => Token) public tokenz;\n    mapping(uint256 => Safe) public safez;\n\n    function addToken(address _token) external returns (address) {\n        coin = COIN(_token);\n        tokenz[t] = Token(\n            t,\n            coin.getName(),\n            address(coin),\n            coin.getMax(),\n            coin.getMinted(),\n            coin.getRate()\n        );\n        t++;\n        return address(coin);\n    }\n\n    function createToken(\n        string memory _name,\n        string memory _sym,\n        uint256 _rate,\n        uint256 _max\n    ) external returns (address) {\n        coin = new COIN(_name, _sym, _rate, _max, msg.sender);\n        tokenz[t] = Token(t, _name, address(coin), _max, 0, _rate);\n        t++;\n        return address(coin);\n    }\n\n    function createPool(\n        address _main,\n        address _sec,\n        string memory _name,\n        string memory _psym\n    ) external returns (address) {\n        // get token contracts\n        main = COIN(_main);\n        sec = COIN(_sec);\n        // detect currency eth value per token\n        uint256 mEthPrice = divide(10**18, main.getRate()); // example // 10^18 / 100 = 10^16\n        uint256 sEthPrice = divide(10**18, sec.getRate()); // example // 10^18 / 100000 = 10^13\n        // detect dif ratio\n        uint256 dRate; // difference ratio\n        if (sEthPrice < mEthPrice)\n            dRate = divide(mEthPrice, sEthPrice); // example // 10^16 / 10^13 = 1000\n        else dRate = divide(sEthPrice, mEthPrice); // example // null\n        uint256 xRate;\n        xRate =\n            ((mEthPrice * main.getMax()) + (sEthPrice * sec.getMax())) /\n            100;\n        pool = new COIN(_name, _psym, xRate, 100 * 10**18, msg.sender); // example // 100 * 10^18\n        poolz[p] = Pool(\n            p,\n            address(pool),\n            _main,\n            mEthPrice,\n            divide(main.getMax(), 3),\n            _sec,\n            sEthPrice,\n            divide(sec.getMax(), 3),\n            0,\n            xRate\n        );\n\n        p++;\n        /*\n\n        // 0xbd5b354220B250DF257ed5e988Fe8FE81CdB6235 MLQ\n        // 0x7e54D10fda1dBAf0aA2eB842942B3B924fcfd947 LYX\n\n        mlq 10000000000000000eth * 1000000mlq\n        lyx 10000000000000eth * 1000000000lyx\n        shk 600000000000000000000eth * 100shk\n\n        */\n        return address(coin);\n    }\n\n    function addMilquidity(uint256 _p, uint256 _mIn)\n        external\n        returns (\n            uint256,\n            uint256,\n            uint256\n        )\n    {\n        main = COIN(poolz[_p].main);\n        sec = COIN(poolz[_p].sec);\n        coin = COIN(poolz[_p].pool);\n        // uint256 weth = 10**18;\n        return (_mIn, 0, 0);\n    }\n}\n\ncontract ecoverse is nftProject {\n    address admin;\n    address trees;\n    Trees tree;\n    mapping(uint256 => uint256) amount;\n    mapping(uint256 => bytes) location;\n    mapping(uint256 => address) ownedBy;\n    mapping(uint256 => uint256) stamped;\n\n    constructor(\n        address _trees,\n        address _usdc,\n        address _mlq,\n        address _vrf\n    )\n        nftProject(\n            msg.sender,\n            \"Plantation Certificate\",\n            \"PLNT8\",\n            _usdc,\n            _vrf,\n            _mlq\n        )\n    {\n        admin = msg.sender;\n        tree = Trees(payable(_trees));\n    }\n\n    modifier isAdmin() {\n        require(msg.sender == admin);\n        _;\n    }\n\n    function mintCertificate(\n        string memory _dias,\n        uint256 _id,\n        uint256 _amnt,\n        string memory _loc\n    ) external returns (bool) {\n        // get trees from user\n        tree.transferFrom(msg.sender, address(this), _amnt);\n        // place info on certificate dias\n        dias[_id] = bytes(_dias);\n        // set certificate info on contract\n        amount[_id] = _amnt;\n        location[_id] = bytes(_loc);\n        ownedBy[_id] = msg.sender;\n        stamped[_id] = block.timestamp;\n        // mint certificate\n        _mint(msg.sender, _id);\n        // return boolean\n        return true;\n    }\n\n    function editCertificate(\n        uint256 _id,\n        string memory _dias_new,\n        string memory _loc_new\n    ) external isAdmin returns (bool) {\n        // check approval\n        require(msg.sender == ownedBy[_id]);\n        // find certificate\n        // overwrite certificate dias\n        dias[_id] = bytes(_dias_new);\n        location[_id] = bytes(_loc_new);\n        return true;\n    }\n}\n\n// MAINNET CHECKLIST\n\n// safe & clean deploy address\n// 2x multisig exit safe address output wallets\n// token names and symbols\n//\n\n/////////////////////////////////////////////////////////////////////////////////////////////////////////////////////\n",
  "sourcePath": "/Users/iii6/Documents/GitHub/ourPlanet/contracts/s0x.sol",
  "compiler": {
    "name": "solc",
    "version": "0.8.17+commit.8df45f5f.Emscripten.clang"
  },
  "schemaVersion": "3.4.8",
  "updatedAt": "2022-09-22T11:28:49.200Z",
  "devdoc": {
    "kind": "dev",
    "methods": {},
    "version": 1
  },
  "userdoc": {
    "kind": "user",
    "methods": {},
    "version": 1
  }
}