{
  "contractName": "mlqLib",
  "abi": [
    {
      "inputs": [],
      "name": "circReserve",
      "outputs": [
        {
          "internalType": "uint256",
          "name": "",
          "type": "uint256"
        }
      ],
      "stateMutability": "view",
      "type": "function"
    },
    {
      "inputs": [],
      "name": "maxSupply",
      "outputs": [
        {
          "internalType": "uint256",
          "name": "",
          "type": "uint256"
        }
      ],
      "stateMutability": "view",
      "type": "function"
    },
    {
      "inputs": [],
      "name": "mlqDig",
      "outputs": [
        {
          "internalType": "uint256",
          "name": "",
          "type": "uint256"
        }
      ],
      "stateMutability": "view",
      "type": "function"
    },
    {
      "inputs": [],
      "name": "mlqRate",
      "outputs": [
        {
          "internalType": "uint256",
          "name": "",
          "type": "uint256"
        }
      ],
      "stateMutability": "view",
      "type": "function"
    },
    {
      "inputs": [],
      "name": "poolReserve",
      "outputs": [
        {
          "internalType": "uint256",
          "name": "",
          "type": "uint256"
        }
      ],
      "stateMutability": "view",
      "type": "function"
    },
    {
      "inputs": [],
      "name": "pubSupply",
      "outputs": [
        {
          "internalType": "uint256",
          "name": "",
          "type": "uint256"
        }
      ],
      "stateMutability": "view",
      "type": "function"
    }
  ],
  "bytecode": "0x610295610053600b82828239805160001a607314610046577f4e487b7100000000000000000000000000000000000000000000000000000000600052600060045260246000fd5b30600052607381538281f3fe730000000000000000000000000000000000000000301460806040526004361061006c5760003560e01c80634fff9a60146100715780638b6dc3dd1461008f5780639b11ccd6146100ad578063a3c338f2146100cb578063d5abeb01146100e9578063d7f94fac14610107575b600080fd5b610079610125565b60405161008691906101bb565b60405180910390f35b610097610131565b6040516100a491906101bb565b60405180910390f35b6100b5610136565b6040516100c291906101bb565b60405180910390f35b6100d3610151565b6040516100e091906101bb565b60405180910390f35b6100f161016c565b6040516100fe91906101bb565b60405180910390f35b61010f610187565b60405161011c91906101bb565b60405180910390f35b670de0b6b3a764000081565b606481565b670de0b6b3a7640000633b9aca0061014e9190610205565b81565b670de0b6b3a7640000633b9aca006101699190610205565b81565b670de0b6b3a764000063b2d05e006101849190610205565b81565b670de0b6b3a7640000633b9aca0061019f9190610205565b81565b6000819050919050565b6101b5816101a2565b82525050565b60006020820190506101d060008301846101ac565b92915050565b7f4e487b7100000000000000000000000000000000000000000000000000000000600052601160045260246000fd5b6000610210826101a2565b915061021b836101a2565b9250817fffffffffffffffffffffffffffffffffffffffffffffffffffffffffffffffff0483118215151615610254576102536101d6565b5b82820290509291505056fea2646970667358221220eedc2d072e3fe40e38e42d25a5f757e99dcd9bc6d54a8721ec34ebc8094971d664736f6c634300080f0033",
  "immutableReferences": {},
  "source": "// SPDX-License-Identifier: GPL-3.0\n// // // // // // // // // // // // // // // // // // // // // // // // // // // // // // // // // // // // // // // // // // // // // // // // // // // // // // // // // // // // //\n//\n//              .d8888.  .d88b.  db    db d888888b d88888b d888888b db    db\n//              88'  YP .8P  88. `8b  d8'   `88'   88'     `~~88~~' `8b  d8'\n//              `8bo.   88  d'88  `8bd8'     88    88ooooo    88     `8bd8'\n//                `Y8b. 88 d' 88  .dPYb.     88    88~~~~~    88       88\n//              db   8D `88  d8' .8P  Y8.   .88.   88.        88       88\n//              `8888Y'  `Y88P'  YP    YP Y888888P Y88888P    YP       YP\n//\n// // // // // // // // // // // // // // // // // // // // // // // // // // // // // // // // // // // // // // // // // // // // // // // // // // // // // // // // // // // // //\n//                                                                                                                                                                                  //\n//      @dev            ::              stereoIII6.dao                                                                                                                                          //\n//      @msg            ::              type.stereo@pm.me                                                                                                                                    //\n//      @github         ::              @stereoIII6\n//      @twitter        ::              @stereoIII6                                                                                                                                              //\n//                                                                                                                                                                                  //\n// // // // // // // // // // // // // // // // // // // // // // // // // // // // // // // // // // // // // // // // // // // // // // // // // // // // // // // // // // // // //\n//                                                                                                                                                                                  //\n//      @dev            ::              Juan Xavier Valverde                                                                                                                                    //\n//      @msg            ::              juanxaviervm@hotmail.com                                                                                                                               //\n//      @twitter        ::              @JuanXavier                                                                                                                                             //\n//      @github         ::              @JuanXavier                                                                                                                                             //\n//                                                                                                                                                                                  //                                                                                                                                                                                 //\n// // // // // // // // // // // // // // // // // // // // // // // // // // // // // // // // // // // // // // // // // // // // // // // // // // // // // // // // // // // // //\n//  *   *   *   *   *   *   *   *   *   *   *   *   *   *   *   *   *   *   *   *   *   *   *   *   *   *   *   *   *   *   *   *   *   *   *   *   *   *   *   *   *   *   *   *   //\n// // // // // // // // // // // // // // // // // // // // // // // // // // // // // // // // // // // // // // // // // // // // // // // // // // // // // // // // // // // // //\n//                                                                                                                                                                                  //\n//                                                                                                                                                                                  //\n//      @title          ::              s0xiety Connect                                                                                                                             //\n//      @description    ::              decentral s0xiety                                                                                                                           //\n//      @version        ::              0.0.1                                                                                                                                       //\n//      @purpose        ::              Refer friennds on the blockchain                                                                                                            //\n//                                                                                                                                                                                  //\n//                                                                                                                                                                                  //\n//                                                                                                                                                                                  //\n//                                                                                                                                                                                  //\n//                                                                                                                                                                                  //\n// // // // // // // // // // // // // // // // // // // // // // // // // // // // // // // // // // // // // // // // // // // // // // // // // // // // // // // // // // // // //\n//  *   *   *   *   *   *   *   *   *   *   *   *   *   *   *   *   *   *   *   *   *   *   *   *   *   *   *   *   *   *   *   *   *   *   *   *   *   *   *   *   *   *   *   *   //\n// // // // // // // // // // // // // // // // // // // // // // // // // // // // // // // // // // // // // // // // // // // // // // // // // // // // // // // // // // // // //\n/*\n\n MOCK USER TAG ::: \"{'name':'s0x user','email':'type.stereo@pm.me','image':'https://ipfs.io/ipfs/QmXNciGvGJGRV2HHE82oLoicvwatB8sqsydxn7P3NSP1nW'}\"\n\n*/\n\n/* \n\nINSTRUCTIONS \n\n*/\npragma solidity ^0.8.7;\n\n// Open Zeppelin Imports\nimport \"@openzeppelin/contracts/utils/Counters.sol\";\nimport \"@openzeppelin/contracts/utils/Strings.sol\";\n\nimport \"@openzeppelin/contracts/token/ERC20/ERC20.sol\";\nimport \"@openzeppelin/contracts/token/ERC20/IERC20.sol\";\n\n// import \"@openzeppelin/contracts/token/ERC721/extensions/ERC721URIStorage.sol\";\nimport \"@openzeppelin/contracts/token/ERC721/ERC721.sol\";\nimport \"@openzeppelin/contracts/token/ERC721/IERC721.sol\";\n\nimport \"@openzeppelin/contracts/token/ERC1155/ERC1155.sol\";\n\n// mathematical function for conglomerate\ncontract MathFnx {\n    // division function for solidity\n    function divide(uint256 _a, uint256 _b) internal pure returns (uint256) {\n        uint256 rem = _a % _b;\n        return ((_a - rem) / _b);\n    }\n\n    // generates unique id nr\n    function uniqID(string memory _inf) internal pure returns (uint256) {\n        bytes32 BHash = keccak256(abi.encode(_inf));\n        return uint256(BHash);\n    }\n\n    // gives back the smaller wallet address\n    function smaller(address _a, address _b)\n        internal\n        pure\n        returns (address s, address l)\n    {\n        if (_a < _b) {\n            s = _a;\n            l = _b;\n        } else if (_a > _b) {\n            s = _b;\n            l = _a;\n        }\n    }\n}\n\n// user data storage for conglomerate\ncontract Users {\n    address private s0x; // s0x admin\n\n    constructor() {\n        s0x = msg.sender; // admin initialization\n        makeUser(\n            s0x,\n            '{\"name\":\"s0x admin\",\"email\":\"type.stereo@pm.me\",\"image\":\"https://ipfs.io/ipfs/QmXNciGvGJGRV2HHE82oLoicvwatB8sqsydxn7P3NSP1nW\"}',\n            99\n        ); // admin user account setup\n    }\n\n    struct Impact {\n        uint256 action;\n        uint256 connection;\n        uint256 liquidity;\n    }\n    // user profile array // user# => dias%\n    mapping(address => bytes) public users;\n    mapping(address => bool) private isUser;\n    // role // user# => role$\n    mapping(address => uint256) private roles;\n    // only admin allowed function modifier\n    mapping(address => Impact) public impx;\n    modifier isAdmin() {\n        require(msg.sender == s0x);\n        _;\n    }\n\n    // takes address , dias , and role to create and store a user profile in user mapping\n    function makeUser(\n        address _adr,\n        bytes memory _dias,\n        uint256 _r\n    ) internal returns (bool) {\n        users[_adr] = _dias;\n        roles[_adr] = _r;\n        impx[_adr] = Impact(0, 0, 0);\n        return true;\n    }\n\n    // takes dias to create guest user profile\n    function createUserAccount(string memory _dias) external returns (bool) {\n        return makeUser(msg.sender, bytes(_dias), 2);\n    }\n\n    // takes address , dias , and role to admin edit and store a user profile in user mapping\n    function adminEditUser(\n        address _adr,\n        string memory _dias,\n        uint256 _r\n    ) external isAdmin returns (bool) {\n        return makeUser(_adr, bytes(_dias), _r);\n    }\n\n    // takes address , dias , and role to edit and store your user profile in user mapping\n    function editUser(string memory _dias) external returns (bool) {\n        return makeUser(msg.sender, bytes(_dias), 2);\n    }\n\n    // shows user dias by address input\n    function showUser(address _adr) external view returns (string memory) {\n        return string(users[_adr]);\n    }\n\n    function showImpx(address _adr)\n        external\n        view\n        returns (\n            uint256,\n            uint256,\n            uint256\n        )\n    {\n        return (impx[_adr].action, impx[_adr].connection, impx[_adr].liquidity);\n    }\n\n    // shows role by address input\n    function getRole(address _adr) external view returns (uint256) {\n        return roles[_adr];\n    }\n\n    function isU(address _adr) external view returns (bool) {\n        return isUser[_adr];\n    }\n}\n\ncontract Friends is MathFnx {\n    Users private user;\n    // frenz // you# => frenz# => isfriend?\n    mapping(address => mapping(address => bool)) public frenz; // people following you\n    // degenz // you# => degenz# => isfriend?\n    mapping(address => mapping(address => bool)) public degenz; // people you follow\n    // connection bool // smaller# => bigger# => friends$ // friends : $0=unrelated, $1=hype, $2=nest\n    uint256 c;\n    mapping(address => mapping(address => uint256)) public connection;\n    mapping(address => uint256) public frenzCount;\n    mapping(address => uint256) public degenzCount;\n    mapping(address => mapping(uint256 => address)) public frenzByCount;\n    // user degenerated you\n    modifier degenerated(address _adr) {\n        require(degenz[msg.sender][_adr] == true || msg.sender == _adr); // do you follow or is it yourself\n        _;\n    }\n    // user frenzonned you\n    modifier frenzoned(address _adr) {\n        require(frenz[_adr][msg.sender] || msg.sender == _adr); // is he following or is it yourself\n        _;\n    }\n\n    constructor(address _usrAdr) {\n        user = Users(_usrAdr);\n        c = 1;\n    }\n\n    function showMe() external view returns (string memory) {\n        return user.showUser(msg.sender);\n    }\n\n    function showYou(address _adr) external view returns (string memory) {\n        return user.showUser(_adr);\n    }\n\n    function getRole(address _adr) external view returns (uint256) {\n        return user.getRole(_adr);\n    }\n\n    function follow(address _adr, address _sender) external returns (uint256) {\n        degenz[_adr][_sender] = true;\n        degenzCount[_adr]++;\n        frenz[_sender][_adr] = true;\n        frenzByCount[_sender][frenzCount[_sender]] = _adr;\n        frenzCount[_sender]++;\n        (address s, address l) = smaller(_adr, _sender);\n        if (connection[s][l] == 0) {\n            connection[s][l] = c;\n            c++;\n            return (connection[s][l]);\n        } else return (connection[s][l]);\n    }\n\n    function doShowStatus(address _adr, address _sender)\n        external\n        view\n        returns (\n            uint256,\n            bool,\n            bool,\n            address,\n            address\n        )\n    {\n        (address s, address l) = smaller(_adr, _sender);\n        return (\n            connection[s][l],\n            frenz[_sender][_adr],\n            degenz[_sender][_adr],\n            s,\n            l\n        );\n    }\n\n    function doFrenzCount(address _adr) external view returns (uint256) {\n        return frenzCount[_adr];\n    }\n\n    function doDegenzCount(address _adr) external view returns (uint256) {\n        return degenzCount[_adr];\n    }\n\n    function doShowFrenz(address _adr, uint256 _c)\n        external\n        view\n        returns (address)\n    {\n        return frenzByCount[_adr][_c];\n    }\n\n    function isFrenz(address _a, address _b) external view returns (bool) {\n        return frenz[_a][_b];\n    }\n}\n\n// groups contract stores groupmembers , posts and comments inside the group on chain\ncontract Groups is MathFnx {\n    Users private user; // user contract reference\n    Friends private friend; // friend contract reference\n    address public owner; // owner address\n    string public name; // group name\n    uint256 private m; // member count\n    uint256 private state; // 0-private (no invite), 1-bothchecked, 2-ulike, 3-likeu, 4-bothcheckedofulike, 5-public, 9-secret, 99-admin\n    mapping(uint256 => address) public members; // address by id\n    mapping(address => uint256) public mNum; // id by address\n    uint256 private c; // content count\n    mapping(address => uint256) public myContent; // content count by address\n    mapping(address => mapping(uint256 => bytes)) public content; // content by address => myContent counter\n    mapping(uint256 => bytes) public cntnt; // contentt by cid\n    mapping(uint256 => uint256) public r; // replys by cntnt id c\n    mapping(uint256 => mapping(uint256 => bytes)) public replys; // replys by cid => rply id => reply content\n    mapping(address => uint256) public myRplyCount; // reply count  by useraddress\n    mapping(address => mapping(uint256 => bytes)) public myReplys; // reply content by address and myrplycount\n    mapping(address => bool) public invite;\n\n    constructor(\n        address _user,\n        address _friend,\n        bytes memory _name,\n        uint256 _state,\n        address _o\n    ) {\n        state = _state;\n        user = Users(_user);\n        friend = Friends(_friend);\n        owner = _o;\n        name = string(_name);\n    }\n\n    function addUser(address _adr) external returns (address) {\n        if (state == 0)\n            require(m < 2); // private state one allows 2 users only\n            // require(user.isU(msg.sender) == true);\n            // require(user.isU(_adr) == true);\n        else if (state == 1) {\n            require(friend.isFrenz(owner, _adr));\n            require(friend.isFrenz(_adr, owner));\n        } // only degenz&frenz allowed\n        /*\n        else if(state == 2) {\n          require(friend.isFrenz(owner, _adr));  \n        } // only frenz people you like\n        else if(state == 3) {\n          require(friend.isFrenz(_adr, owner));  \n        } // only degenz people who like you\n        else if(state == 4) {\n            require(friend.isFrenz(msg.sender, _adr));\n            require(friend.isFrenz(_adr, msg.sender));\n        } // only degenz&frenz allowed\n\n        else if(state == 9) require(invite[_adr] == true);\n        else if(state == 99) require(friend.getRole(msg.sender) == 99);\n        */\n        members[m] = _adr;\n        mNum[_adr] = m;\n        m++;\n        return _adr;\n    }\n\n    function removeUser(address _adr) external returns (address) {\n        require(state != 0);\n        members[mNum[_adr]] = 0x0000000000000000000000000000000000000000;\n        mNum[_adr] = 0;\n        return _adr;\n    }\n\n    function addContent(string memory _cnt) external returns (string memory) {\n        content[msg.sender][myContent[msg.sender]] = bytes(_cnt);\n        myContent[msg.sender]++;\n        cntnt[c] = bytes(_cnt);\n        c++;\n        return _cnt;\n    }\n\n    function addReplyToContent(string memory _rply, uint256 _c)\n        external\n        returns (uint256)\n    {\n        replys[_c][r[_c]] = bytes(_rply);\n        myReplys[msg.sender][myRplyCount[msg.sender]] = bytes(_rply);\n        myRplyCount[msg.sender]++;\n        return r[_c]++;\n    }\n}\n\n// allows users to create groups\ncontract s0xFactory is Users, MathFnx {\n    Friends public friends;\n    Groups public groups;\n    MLQ public mlq;\n    address private fAdr;\n    mapping(address => uint256) public groupCount;\n    mapping(address => mapping(uint256 => address)) public groupByCount;\n\n    constructor(address _mlq) Users() MathFnx() {\n        mlq = MLQ(_mlq);\n        friends = new Friends(address(this));\n        fAdr = address(friends);\n    }\n\n    function createGroup(string memory _name, uint256 _state)\n        external\n        returns (address)\n    {\n        groups = new Groups(\n            address(this),\n            fAdr,\n            bytes(_name),\n            _state,\n            msg.sender\n        );\n        groupByCount[msg.sender][groupCount[msg.sender]] = address(groups);\n        groupCount[msg.sender]++;\n        return address(groups);\n    }\n\n    function createConvo(\n        address _to,\n        address _from,\n        string memory _msg\n    ) external returns (address) {\n        (address s, address l) = smaller(_to, _from);\n        return makeConvo(s, l, _msg, _from);\n    }\n\n    function makeConvo(\n        address _s,\n        address _l,\n        string memory _name,\n        address _from\n    ) internal returns (address) {\n        groups = new Groups(address(this), fAdr, bytes(_name), 0, _from);\n        groupByCount[_s][groupCount[_s]] = address(groups);\n        groupByCount[_l][groupCount[_l]] = address(groups);\n        groupCount[_s]++;\n        groupCount[_l]++;\n        groups.addUser(_s);\n        groups.addUser(_l);\n        return address(groups);\n    }\n\n    function followAdr(address _adr) external returns (uint256) {\n        return friends.follow(_adr, msg.sender);\n    }\n\n    function showFrenz(address _adr, uint256 _c)\n        external\n        view\n        returns (address)\n    {\n        return friends.doShowFrenz(_adr, _c);\n    }\n\n    function countFrenz(address _adr) external view returns (uint256) {\n        return friends.doFrenzCount(_adr);\n    }\n\n    function countDegenz(address _adr) external view returns (uint256) {\n        return friends.doDegenzCount(_adr);\n    }\n\n    function showStatus(address _adr)\n        external\n        view\n        returns (\n            uint256,\n            bool,\n            bool,\n            address,\n            address\n        )\n    {\n        return friends.doShowStatus(_adr, msg.sender);\n    }\n}\n\n// mlq library\nlibrary mlqLib {\n    uint256 public constant mlqRate = 100;\n    uint256 public constant mlqDig = 10**18;\n    uint256 public constant maxSupply = 3 * 10**9 * mlqDig;\n    uint256 public constant pubSupply = 1 * 10**9 * mlqDig;\n    uint256 public constant poolReserve = 1 * 10**9 * mlqDig;\n    uint256 public constant circReserve = 1 * 10**9 * mlqDig;\n}\n\n// mlq token contract\ncontract MLQ is ERC20, MathFnx {\n    using mlqLib for *;\n    address private admin;\n    uint256 public rate;\n    uint256 public pubSupply;\n    mapping(address => uint256) public mlqBalance;\n\n    constructor() ERC20(\"Milquidity Token\", \"MLQ\") {\n        admin = msg.sender;\n        setRate(mlqLib.mlqRate);\n        setSupply(mlqLib.pubSupply);\n    }\n\n    function setRate(uint256 _newRate) internal returns (uint256) {\n        rate = _newRate;\n        return rate;\n    }\n\n    function setSupply(uint256 _newSupply) internal returns (uint256) {\n        pubSupply = _newSupply;\n        return pubSupply;\n    }\n\n    function buyMlq(uint256 _amnt) external payable returns (uint256) {\n        uint256 amnt = mlqLib.mlqDig * _amnt;\n        require(pubSupply >= amnt);\n        require(divide(msg.value, 100) >= amnt);\n        _mint(msg.sender, amnt);\n        mlqBalance[msg.sender] = amnt;\n        pubSupply -= amnt;\n        return amnt;\n    }\n\n    function mlqBal(address _adr) external view returns (uint256) {\n        return mlqBalance[_adr];\n    }\n\n    function withdraw(uint256 _amnt) external returns (uint256) {\n        uint256 amnt = mlqLib.mlqDig * _amnt;\n        require(admin == msg.sender);\n        require(mlqBalance[address(this)] >= amnt);\n        transferFrom(address(this), admin, amnt);\n        return amnt;\n    }\n\n    function flush() external returns (uint256) {\n        require(admin == msg.sender);\n        transferFrom(address(this), admin, mlqBalance[address(this)]);\n        payable(admin).transfer(address(this).balance);\n        return address(this).balance;\n    }\n}\n\ncontract USDC is ERC20 {\n    constructor() ERC20(\"US Dollar Coin\", \"USDC\") {}\n\n    function dropUSDC() external {\n        _mint(msg.sender, 100 * 10**18);\n    }\n}\n\n// any coin tokeen contract\ncontract COIN is ERC20, MathFnx {\n    using mlqLib for *;\n    address private admin;\n    uint256 public rate;\n    uint256 public pubSupply;\n    uint256 public maxSupply;\n    string public title;\n    mapping(address => uint256) public coinBalance;\n\n    constructor(\n        string memory _name,\n        string memory _sym,\n        uint256 _rate,\n        uint256 _supply,\n        address _admin\n    ) ERC20(_name, _sym) {\n        admin = _admin;\n        setRate(_rate);\n        maxSupply = _supply;\n        title = _name;\n    }\n\n    function setRate(uint256 _newRate) internal returns (uint256) {\n        rate = _newRate;\n        return rate;\n    }\n\n    function getRate() external view returns (uint256) {\n        return rate;\n    }\n\n    function getMax() external view returns (uint256) {\n        return maxSupply;\n    }\n\n    function getName() external view returns (string memory) {\n        return title;\n    }\n\n    function getMinted() external view returns (uint256) {\n        return pubSupply;\n    }\n\n    function buyMlq(uint256 _amnt) external payable returns (uint256) {\n        uint256 amnt = mlqLib.mlqDig * _amnt;\n        require(pubSupply >= amnt);\n        require(divide(msg.value, 100) >= amnt);\n        _mint(msg.sender, amnt);\n        coinBalance[msg.sender] = amnt;\n        pubSupply += amnt;\n        return amnt;\n    }\n\n    function coinBal(address _adr) external view returns (uint256) {\n        return coinBalance[_adr];\n    }\n\n    function withdraw(uint256 _amnt) external returns (uint256) {\n        uint256 amnt = mlqLib.mlqDig * _amnt;\n        require(admin == msg.sender);\n        require(coinBalance[address(this)] >= amnt);\n        transferFrom(address(this), admin, amnt);\n        return amnt;\n    }\n\n    function flush() external returns (uint256) {\n        require(admin == msg.sender);\n        transferFrom(address(this), admin, coinBalance[address(this)]);\n        payable(admin).transfer(address(this).balance);\n        return address(this).balance;\n    }\n}\n\ncontract s0xPool is MathFnx {\n    COIN public coin;\n    COIN public main;\n    COIN public sec;\n    COIN public pool;\n    uint256 p;\n    struct Pool {\n        uint256 id;\n        address pool;\n        address main;\n        uint256 ethByMain;\n        uint256 mainMax;\n        address sec;\n        uint256 ethBySec;\n        uint256 secMax;\n        uint256 distrib;\n        uint256 xRate;\n    }\n    uint256 t;\n    struct Token {\n        uint256 id;\n        string name;\n        address adr;\n        uint256 maxSupply;\n        uint256 mintedSupply;\n        uint256 priceInEth;\n    }\n    uint256 s;\n    struct Safe {\n        uint256 id;\n        address user;\n        address token;\n        uint256 safeBalance;\n    }\n    mapping(uint256 => Pool) public poolz;\n    mapping(uint256 => Token) public tokenz;\n    mapping(uint256 => Safe) public safez;\n\n    function addToken(address _token) external returns (address) {\n        coin = COIN(_token);\n        tokenz[t] = Token(\n            t,\n            coin.getName(),\n            address(coin),\n            coin.getMax(),\n            coin.getMinted(),\n            coin.getRate()\n        );\n        t++;\n        return address(coin);\n    }\n\n    function createToken(\n        string memory _name,\n        string memory _sym,\n        uint256 _rate,\n        uint256 _max\n    ) external returns (address) {\n        coin = new COIN(_name, _sym, _rate, _max, msg.sender);\n        tokenz[t] = Token(t, _name, address(coin), _max, 0, _rate);\n        t++;\n        return address(coin);\n    }\n\n    function createPool(\n        address _main,\n        address _sec,\n        string memory _name,\n        string memory _psym\n    ) external returns (address) {\n        // get token contracts\n        main = COIN(_main);\n        sec = COIN(_sec);\n        // detect currency eth value per token\n        uint256 mEthPrice = divide(10**18, main.getRate()); // example // 10^18 / 100 = 10^16\n        uint256 sEthPrice = divide(10**18, sec.getRate()); // example // 10^18 / 100000 = 10^13\n        // detect dif ratio\n        uint256 dRate; // difference ratio\n        if (sEthPrice < mEthPrice)\n            dRate = divide(mEthPrice, sEthPrice); // example // 10^16 / 10^13 = 1000\n        else dRate = divide(sEthPrice, mEthPrice); // example // null\n        uint256 xRate;\n        xRate =\n            ((mEthPrice * main.getMax()) + (sEthPrice * sec.getMax())) /\n            100;\n        pool = new COIN(_name, _psym, xRate, 100 * 10**18, msg.sender); // example // 100 * 10^18\n        poolz[p] = Pool(\n            p,\n            address(pool),\n            _main,\n            mEthPrice,\n            divide(main.getMax(), 3),\n            _sec,\n            sEthPrice,\n            divide(sec.getMax(), 3),\n            0,\n            xRate\n        );\n\n        p++;\n        /*\n\n        // 0xbd5b354220B250DF257ed5e988Fe8FE81CdB6235 MLQ\n        // 0x7e54D10fda1dBAf0aA2eB842942B3B924fcfd947 LYX\n\n        mlq 10000000000000000eth * 1000000mlq\n        lyx 10000000000000eth * 1000000000lyx\n        shk 600000000000000000000eth * 100shk\n\n        */\n        return address(coin);\n    }\n\n    function addMilquidity(uint256 _p, uint256 _mIn)\n        external\n        returns (\n            uint256,\n            uint256,\n            uint256\n        )\n    {\n        main = COIN(poolz[_p].main);\n        sec = COIN(poolz[_p].sec);\n        coin = COIN(poolz[_p].pool);\n        // uint256 weth = 10**18;\n        return (_mIn, 0, 0);\n    }\n}\n\ncontract Trees is ERC20, MathFnx {\n    uint256 maxSupply;\n    uint256 rate;\n    uint256 availSupply;\n    address author;\n    Friends private friends;\n    ERC20 usdc;\n    MLQ mlq;\n\n    constructor(address _con, address _mlq)\n        ERC20(\"Impact Tree Token\", \"IMPCTrees\")\n    {\n        maxSupply = 5000000000000 * 10**18;\n        author = msg.sender;\n        usdc = ERC20(_con);\n        mlq = MLQ(_mlq);\n    }\n\n    modifier isAdmin() {\n        require(msg.sender == author);\n        _;\n    }\n\n    function buyTreeERC20(uint256 _trees) external payable returns (bool) {\n        require(usdc.balanceOf(msg.sender) >= 100 * _trees * 94 * 10**15);\n        require(availSupply < maxSupply);\n        usdc.transferFrom(\n            msg.sender,\n            0x8cF3c63Be0BC3d1478496B6449316babD225F78a,\n            100 * _trees * 94 * 10**15\n        );\n        availSupply += msg.value * 10000;\n        _mint(msg.sender, _trees * 10**18);\n        return true;\n    }\n\n    function buyTreeMLQ(uint256 _trees) external payable returns (bool) {\n        require(\n            mlq.balanceOf(msg.sender) >= rate / (100 * _trees * 94 * 10**15)\n        );\n        require(availSupply < maxSupply);\n        mlq.transferFrom(\n            msg.sender,\n            0x8cF3c63Be0BC3d1478496B6449316babD225F78a,\n            rate / (100 * _trees * 94 * 10**15)\n        );\n        availSupply += msg.value * 10000;\n        _mint(msg.sender, _trees * 10**18);\n        return true;\n    }\n\n    function donateTrees(uint256 _amount) external isAdmin returns (bool) {\n        require(balanceOf(msg.sender) > _amount * 10**18);\n        _burn(msg.sender, _amount * 10**18);\n        return true;\n    }\n\n    function approveContract(address _contract) external returns (bool) {\n        approve(_contract, balanceOf(msg.sender));\n        return true;\n    }\n\n    function setERC20(address _usdc) external isAdmin returns (bool) {\n        usdc = ERC20(_usdc);\n        return true;\n    }\n\n    function setMLQ(address _mlq) external isAdmin returns (bool) {\n        mlq = MLQ(_mlq);\n        return true;\n    }\n\n    function approveUSDC(uint256 _amnt) external returns (bool) {\n        return usdc.approve(address(this), _amnt);\n    }\n\n    function trimTrees(uint256 _newPrice) external returns (uint256) {\n        rate = _newPrice;\n        return rate;\n    }\n\n    function withdraw(uint256 _eth, uint256 _tree)\n        external\n        isAdmin\n        returns (bool)\n    {\n        require(_tree * 10**18 <= balanceOf(address(this)));\n        require(_eth * 10**18 <= address(this).balance);\n        transfer(payable(author), _tree * 10**18);\n        payable(author).transfer(_eth * 10**18);\n        return true;\n    }\n}\n\ncontract Co2s is ERC20, MathFnx {\n    IERC20 internal trees;\n    MLQ mlq;\n    uint256 maxSupply;\n    uint256 rate;\n    uint256 availSupply;\n    address author;\n    Friends private friends;\n    struct Bond {\n        uint256 id;\n        address adr;\n        uint256 amount;\n        uint256 region;\n        uint256 stamp;\n        uint256 duration;\n        uint256 co2;\n    }\n\n    mapping(address => uint256) public myBonds;\n    mapping(address => mapping(uint256 => uint256)) public myBondedCo2;\n\n    Bond[] public bonds;\n    uint256 c;\n    uint256 b;\n    uint256 per;\n\n    constructor(\n        address _contract,\n        uint256 _percent,\n        address _mlq\n    ) ERC20(\"Carbon token\", \"CO2\") {\n        maxSupply = 25000000000000 * 10**18;\n        trees = IERC20(_contract);\n        per = _percent;\n        mlq = MLQ(_mlq);\n        author = msg.sender;\n    }\n\n    modifier isAdmin() {\n        require(msg.sender == author);\n        _;\n    }\n\n    function growTrees(\n        uint256 _trees,\n        uint256 _region,\n        uint256 _duration\n    ) external payable returns (bool) {\n        require(msg.value >= _trees * 10**14, \"not enough funds for asset\");\n        require(_trees <= trees.balanceOf(msg.sender), \"insufficient balance\");\n        require(\n            5 * _trees * 10**18 <= maxSupply - availSupply,\n            \"insufficient supply\"\n        );\n        bonds.push(\n            Bond(\n                b,\n                msg.sender,\n                _trees * 10**18,\n                _region,\n                block.timestamp,\n                _duration,\n                5 * _trees * 10**18\n            )\n        );\n        availSupply += 5 * _trees * 10**18;\n        myBondedCo2[msg.sender][myBonds[msg.sender]] = b;\n        myBonds[msg.sender]++;\n        trees.transferFrom(msg.sender, payable(address(this)), _trees * 10**18);\n        b++;\n        return true;\n    }\n\n    function growMoreTrees(uint256 _trees, uint256 _b)\n        external\n        payable\n        returns (bool)\n    {\n        require(msg.value >= _trees * 10**14);\n        require(_trees <= trees.balanceOf(msg.sender));\n        uint256 treez = _trees * 10**18;\n        require(5 * treez <= maxSupply - availSupply);\n        uint256 p = divide(100, bonds[_b].amount) * treez;\n        bonds[_b].amount += treez;\n        bonds[_b].co2 += 5 * treez;\n        bonds[_b].duration += bonds[_b].duration * p;\n        uint256 fee = divide(treez, (100 / per));\n        trees.transfer(payable(address(this)), treez - fee);\n        trees.transfer(payable(address(this)), fee);\n        return true;\n    }\n\n    function growLessTrees(uint256 _trees, uint256 _b)\n        external\n        payable\n        returns (bool)\n    {\n        require(msg.value >= _trees * 10**15);\n        uint256 treez = _trees * 10**18;\n        require(\n            treez <= bonds[myBondedCo2[msg.sender][myBonds[msg.sender]]].amount\n        );\n        bonds[_b].amount -= treez;\n        bonds[_b].co2 -= 5 * treez;\n        uint256 fee = divide(treez, (100 / per));\n        trees.transfer(payable(msg.sender), treez - fee);\n        trees.transfer(payable(address(this)), fee);\n        return true;\n    }\n\n    function calcFreeCo2(uint256 _b) internal view returns (uint256, uint256) {\n        uint256 total = bonds[_b].duration * 60 * 60 * 24 * 365;\n        uint256 passed = block.timestamp - bonds[_b].stamp;\n        uint256 pDur = divide(100 * 10**18, total) * passed;\n        uint256 freeCo2 = divide(100 * 10**18, bonds[_b].co2) * pDur;\n        return (freeCo2, passed);\n    }\n\n    function releaseFreeCo2(uint256 _m) external returns (bool) {\n        uint256 _b = myBondedCo2[msg.sender][_m]; // get b_id\n        (uint256 free, uint256 passed) = calcFreeCo2(_b); // get free co2 & passed time\n        require(1 * 10**18 <= free); // check amount\n        bonds[_b].co2 -= free; // edit bonds data subtract\n        bonds[_b].stamp = block.timestamp;\n        uint256 addTime = divide(passed, (100 / per));\n        bonds[_b].duration += addTime;\n\n        uint256 fee = divide(free, (100 / per));\n        _mint(msg.sender, (free - fee)); // mint free co2\n        _mint(address(this), fee);\n        return true;\n    }\n\n    function withdraw(\n        uint256 _eth,\n        uint256 _co2,\n        uint256 _tree\n    ) external isAdmin returns (bool) {\n        require(_co2 * 10**18 <= balanceOf(address(this)));\n        require(_tree * 10**18 <= trees.balanceOf(address(this)));\n        require(_eth * 10**18 <= address(this).balance);\n        transfer(payable(author), _co2 * 10**18);\n        trees.transfer(payable(author), _tree * 10**18);\n        payable(author).transfer(_eth * 10**18);\n        return true;\n    }\n}\n\ncontract GardenPool is ERC1155, MathFnx {\n    IERC20 internal TR3EZ;\n    IERC20 internal CO2;\n    IERC20 internal lowC;\n    IERC20 internal highC;\n    address author;\n    uint256 private per;\n    uint256 public collectedFees;\n    struct Garden {\n        uint256 id;\n        address low;\n        uint256 lowTotal;\n        address high;\n        bytes description;\n        uint256 low4high;\n        uint256 maxSize;\n        uint256 currentSize;\n    }\n    Garden[] public gardens;\n    uint256 g;\n\n    constructor(\n        address _trees,\n        address _co2,\n        uint256 _percent\n    ) ERC1155(\"IMgardens\") {\n        author = msg.sender;\n        TR3EZ = IERC20(_trees);\n        CO2 = IERC20(_co2);\n        per = _percent;\n    }\n\n    modifier isAdmin() {\n        require(msg.sender == author);\n        _;\n    }\n\n    function createGarden(\n        string memory _name,\n        address _hi,\n        address _lo\n    ) external returns (bool) {\n        _setURI(_name);\n        _mint(address(this), g, 100 * 10**6, bytes(_name)); // 1 : 10 000 // 100 000 weth : 1 000 000 000 trees = 100% // 1 weth : 10 000 trees = 0,001% of max pool size\n        gardens.push(\n            Garden(g, _hi, 1000000000, _lo, bytes(_name), 10000, 100000, 0)\n        );\n        g++;\n        return true;\n    }\n\n    function addliquidity(uint256 _id, uint256 _low)\n        external\n        payable\n        returns (bool)\n    {\n        uint256 low = _low * 10**6;\n        uint256 high = gardens[_id].low4high * low;\n        lowC = IERC20(gardens[_id].low);\n        highC = IERC20(gardens[_id].high);\n        require(lowC.balanceOf(msg.sender) >= low);\n        require(highC.balanceOf(msg.sender) >= high);\n        lowC.transferFrom(msg.sender, address(this), low);\n        highC.transferFrom(msg.sender, address(this), high);\n        uint256 gardenDrops = divide(100 * 10**6, gardens[_id].lowTotal) * low;\n        safeTransferFrom(\n            address(this),\n            msg.sender,\n            gardens[_id].id,\n            gardenDrops,\n            gardens[_id].description\n        );\n        gardens[_id].currentSize += gardenDrops;\n        return true;\n    }\n\n    function removeLiquidity(uint256 _id, uint256 _gardenDrops)\n        external\n        payable\n        returns (bool)\n    {\n        uint256 low = divide(100 * 10**6, gardens[_id].lowTotal) * _gardenDrops;\n        uint256 high = low * gardens[_id].low4high;\n        lowC = IERC20(gardens[_id].low);\n        highC = IERC20(gardens[_id].high);\n        require(lowC.balanceOf(address(this)) >= low);\n        require(highC.balanceOf(address(this)) >= high);\n        lowC.transferFrom(address(this), msg.sender, low);\n        highC.transferFrom(address(this), msg.sender, high);\n        safeTransferFrom(\n            msg.sender,\n            address(this),\n            gardens[_id].id,\n            _gardenDrops,\n            gardens[_id].description\n        );\n        gardens[_id].currentSize -= _gardenDrops;\n        return true;\n    }\n\n    function swapLowHigh(uint256 _id, uint256 _low)\n        external\n        payable\n        returns (bool)\n    {\n        uint256 low = _low * 10**6;\n        lowC = IERC20(gardens[_id].low);\n        highC = IERC20(gardens[_id].high);\n        require(lowC.balanceOf(msg.sender) >= low);\n        uint256 fee = divide(100 * 10**6, low) * (100 / per);\n        uint256 get = gardens[_id].low4high * (low - fee);\n        require(highC.balanceOf(address(this)) >= get);\n        lowC.transferFrom(msg.sender, address(this), low);\n        highC.transferFrom(address(this), msg.sender, get);\n        collectedFees += fee;\n        return true;\n    }\n\n    function swapHighLow(uint256 _id, uint256 _high)\n        external\n        payable\n        returns (bool)\n    {\n        uint256 high = _high * 10**6;\n        lowC = IERC20(gardens[_id].low);\n        highC = IERC20(gardens[_id].high);\n        require(highC.balanceOf(msg.sender) >= high);\n        uint256 fee = divide(100 * 10**6, high) * (100 / per);\n        uint256 get = divide(high - fee, gardens[_id].low4high);\n        require(highC.balanceOf(address(this)) >= get);\n        highC.transferFrom(msg.sender, address(this), high);\n        lowC.transferFrom(address(this), msg.sender, get);\n        collectedFees += fee;\n        return true;\n    }\n\n    function waterGardens(uint256 _id) external payable returns (uint256) {\n        lowC = IERC20(gardens[_id].low);\n        highC = IERC20(gardens[_id].high);\n        uint256 lBal = lowC.balanceOf(address(this));\n        uint256 hBal = highC.balanceOf(address(this));\n        uint256 rRatio = divide(hBal, lBal);\n        uint256 eRatio = divide(gardens[_id].low4high, 1);\n        uint256 difRatio = divide(100, eRatio) * rRatio;\n        return difRatio;\n    }\n}\n",
  "sourcePath": "/Users/iii6/Documents/GitHub/ourPlanet/contracts/s0x.sol",
  "compiler": {
    "name": "solc",
    "version": "0.8.15+commit.e14f2714.Emscripten.clang"
  },
  "schemaVersion": "3.4.8",
  "updatedAt": "2022-07-27T15:45:57.174Z",
  "devdoc": {
    "kind": "dev",
    "methods": {},
    "version": 1
  },
  "userdoc": {
    "kind": "user",
    "methods": {},
    "version": 1
  }
}