{
  "contractName": "s0xFactory",
  "abi": [
    {
      "inputs": [
        {
          "internalType": "address",
          "name": "_mlq",
          "type": "address"
        }
      ],
      "stateMutability": "nonpayable",
      "type": "constructor"
    },
    {
      "inputs": [
        {
          "internalType": "address",
          "name": "_adr",
          "type": "address"
        },
        {
          "internalType": "string",
          "name": "_dias",
          "type": "string"
        },
        {
          "internalType": "uint256",
          "name": "_r",
          "type": "uint256"
        }
      ],
      "name": "adminEditUser",
      "outputs": [
        {
          "internalType": "bool",
          "name": "",
          "type": "bool"
        }
      ],
      "stateMutability": "nonpayable",
      "type": "function"
    },
    {
      "inputs": [
        {
          "internalType": "string",
          "name": "_dias",
          "type": "string"
        },
        {
          "internalType": "address",
          "name": "_user",
          "type": "address"
        }
      ],
      "name": "createUserAccount",
      "outputs": [
        {
          "internalType": "bool",
          "name": "",
          "type": "bool"
        }
      ],
      "stateMutability": "nonpayable",
      "type": "function"
    },
    {
      "inputs": [
        {
          "internalType": "string",
          "name": "_dias",
          "type": "string"
        }
      ],
      "name": "editUser",
      "outputs": [
        {
          "internalType": "bool",
          "name": "",
          "type": "bool"
        }
      ],
      "stateMutability": "nonpayable",
      "type": "function"
    },
    {
      "inputs": [],
      "name": "friends",
      "outputs": [
        {
          "internalType": "contract Friends",
          "name": "",
          "type": "address"
        }
      ],
      "stateMutability": "view",
      "type": "function",
      "constant": true
    },
    {
      "inputs": [
        {
          "internalType": "address",
          "name": "_adr",
          "type": "address"
        }
      ],
      "name": "getRole",
      "outputs": [
        {
          "internalType": "uint256",
          "name": "",
          "type": "uint256"
        }
      ],
      "stateMutability": "view",
      "type": "function",
      "constant": true
    },
    {
      "inputs": [
        {
          "internalType": "address",
          "name": "",
          "type": "address"
        },
        {
          "internalType": "uint256",
          "name": "",
          "type": "uint256"
        }
      ],
      "name": "groupByCount",
      "outputs": [
        {
          "internalType": "address",
          "name": "",
          "type": "address"
        }
      ],
      "stateMutability": "view",
      "type": "function",
      "constant": true
    },
    {
      "inputs": [
        {
          "internalType": "address",
          "name": "",
          "type": "address"
        }
      ],
      "name": "groupCount",
      "outputs": [
        {
          "internalType": "uint256",
          "name": "",
          "type": "uint256"
        }
      ],
      "stateMutability": "view",
      "type": "function",
      "constant": true
    },
    {
      "inputs": [],
      "name": "groups",
      "outputs": [
        {
          "internalType": "contract Groups",
          "name": "",
          "type": "address"
        }
      ],
      "stateMutability": "view",
      "type": "function",
      "constant": true
    },
    {
      "inputs": [
        {
          "internalType": "address",
          "name": "",
          "type": "address"
        }
      ],
      "name": "impx",
      "outputs": [
        {
          "internalType": "uint256",
          "name": "action",
          "type": "uint256"
        },
        {
          "internalType": "uint256",
          "name": "connection",
          "type": "uint256"
        },
        {
          "internalType": "uint256",
          "name": "liquidity",
          "type": "uint256"
        }
      ],
      "stateMutability": "view",
      "type": "function",
      "constant": true
    },
    {
      "inputs": [
        {
          "internalType": "address",
          "name": "_adr",
          "type": "address"
        }
      ],
      "name": "isU",
      "outputs": [
        {
          "internalType": "bool",
          "name": "",
          "type": "bool"
        }
      ],
      "stateMutability": "view",
      "type": "function",
      "constant": true
    },
    {
      "inputs": [],
      "name": "mlq",
      "outputs": [
        {
          "internalType": "contract MLQ",
          "name": "",
          "type": "address"
        }
      ],
      "stateMutability": "view",
      "type": "function",
      "constant": true
    },
    {
      "inputs": [
        {
          "internalType": "address",
          "name": "_adr",
          "type": "address"
        }
      ],
      "name": "showImpx",
      "outputs": [
        {
          "internalType": "uint256",
          "name": "",
          "type": "uint256"
        },
        {
          "internalType": "uint256",
          "name": "",
          "type": "uint256"
        },
        {
          "internalType": "uint256",
          "name": "",
          "type": "uint256"
        }
      ],
      "stateMutability": "view",
      "type": "function",
      "constant": true
    },
    {
      "inputs": [
        {
          "internalType": "address",
          "name": "_adr",
          "type": "address"
        }
      ],
      "name": "showUser",
      "outputs": [
        {
          "internalType": "string",
          "name": "",
          "type": "string"
        }
      ],
      "stateMutability": "view",
      "type": "function",
      "constant": true
    },
    {
      "inputs": [
        {
          "internalType": "address",
          "name": "",
          "type": "address"
        }
      ],
      "name": "users",
      "outputs": [
        {
          "internalType": "bytes",
          "name": "",
          "type": "bytes"
        }
      ],
      "stateMutability": "view",
      "type": "function",
      "constant": true
    },
    {
      "inputs": [
        {
          "internalType": "string",
          "name": "_name",
          "type": "string"
        },
        {
          "internalType": "uint256",
          "name": "_state",
          "type": "uint256"
        }
      ],
      "name": "createGroup",
      "outputs": [
        {
          "internalType": "address",
          "name": "",
          "type": "address"
        }
      ],
      "stateMutability": "nonpayable",
      "type": "function"
    },
    {
      "inputs": [
        {
          "internalType": "address",
          "name": "_to",
          "type": "address"
        },
        {
          "internalType": "address",
          "name": "_from",
          "type": "address"
        },
        {
          "internalType": "string",
          "name": "_msg",
          "type": "string"
        }
      ],
      "name": "createConvo",
      "outputs": [
        {
          "internalType": "address",
          "name": "",
          "type": "address"
        }
      ],
      "stateMutability": "nonpayable",
      "type": "function"
    },
    {
      "inputs": [
        {
          "internalType": "address",
          "name": "_adr",
          "type": "address"
        }
      ],
      "name": "followAdr",
      "outputs": [
        {
          "internalType": "uint256",
          "name": "",
          "type": "uint256"
        }
      ],
      "stateMutability": "nonpayable",
      "type": "function"
    },
    {
      "inputs": [
        {
          "internalType": "address",
          "name": "_adr",
          "type": "address"
        },
        {
          "internalType": "uint256",
          "name": "_c",
          "type": "uint256"
        }
      ],
      "name": "showFrenz",
      "outputs": [
        {
          "internalType": "address",
          "name": "",
          "type": "address"
        }
      ],
      "stateMutability": "view",
      "type": "function",
      "constant": true
    },
    {
      "inputs": [
        {
          "internalType": "address",
          "name": "_adr",
          "type": "address"
        }
      ],
      "name": "countFrenz",
      "outputs": [
        {
          "internalType": "uint256",
          "name": "",
          "type": "uint256"
        }
      ],
      "stateMutability": "view",
      "type": "function",
      "constant": true
    },
    {
      "inputs": [
        {
          "internalType": "address",
          "name": "_adr",
          "type": "address"
        }
      ],
      "name": "countDegenz",
      "outputs": [
        {
          "internalType": "uint256",
          "name": "",
          "type": "uint256"
        }
      ],
      "stateMutability": "view",
      "type": "function",
      "constant": true
    },
    {
      "inputs": [
        {
          "internalType": "address",
          "name": "_adr",
          "type": "address"
        }
      ],
      "name": "showStatus",
      "outputs": [
        {
          "internalType": "uint256",
          "name": "",
          "type": "uint256"
        },
        {
          "internalType": "bool",
          "name": "",
          "type": "bool"
        },
        {
          "internalType": "bool",
          "name": "",
          "type": "bool"
        },
        {
          "internalType": "address",
          "name": "",
          "type": "address"
        },
        {
          "internalType": "address",
          "name": "",
          "type": "address"
        }
      ],
      "stateMutability": "view",
      "type": "function",
      "constant": true
    }
  ],
  "bytecode": "0x60806040523480156200001157600080fd5b50604051620060c9380380620060c983398181016040528101906200003791906200037f565b336000806101000a81548173ffffffffffffffffffffffffffffffffffffffff021916908373ffffffffffffffffffffffffffffffffffffffff160217905550620000c460008054906101000a900473ffffffffffffffffffffffffffffffffffffffff166040518060a00160405280607e81526020016200604b607e91396063620001e960201b60201c565b5080600760006101000a81548173ffffffffffffffffffffffffffffffffffffffff021916908373ffffffffffffffffffffffffffffffffffffffff16021790555030604051620001159062000307565b620001219190620003c2565b604051809103906000f0801580156200013e573d6000803e3d6000fd5b50600560006101000a81548173ffffffffffffffffffffffffffffffffffffffff021916908373ffffffffffffffffffffffffffffffffffffffff160217905550600560009054906101000a900473ffffffffffffffffffffffffffffffffffffffff16600860006101000a81548173ffffffffffffffffffffffffffffffffffffffff021916908373ffffffffffffffffffffffffffffffffffffffff1602179055505062000740565b600082600160008673ffffffffffffffffffffffffffffffffffffffff1673ffffffffffffffffffffffffffffffffffffffff168152602001908152602001600020908162000239919062000659565b5081600360008673ffffffffffffffffffffffffffffffffffffffff1673ffffffffffffffffffffffffffffffffffffffff16815260200190815260200160002081905550604051806060016040528060008152602001600081526020016000815250600460008673ffffffffffffffffffffffffffffffffffffffff1673ffffffffffffffffffffffffffffffffffffffff168152602001908152602001600020600082015181600001556020820151816001015560408201518160020155905050600190509392505050565b6115e98062004a6283390190565b600080fd5b600073ffffffffffffffffffffffffffffffffffffffff82169050919050565b600062000347826200031a565b9050919050565b62000359816200033a565b81146200036557600080fd5b50565b60008151905062000379816200034e565b92915050565b60006020828403121562000398576200039762000315565b5b6000620003a88482850162000368565b91505092915050565b620003bc816200033a565b82525050565b6000602082019050620003d96000830184620003b1565b92915050565b600081519050919050565b7f4e487b7100000000000000000000000000000000000000000000000000000000600052604160045260246000fd5b7f4e487b7100000000000000000000000000000000000000000000000000000000600052602260045260246000fd5b600060028204905060018216806200046157607f821691505b60208210810362000477576200047662000419565b5b50919050565b60008190508160005260206000209050919050565b60006020601f8301049050919050565b600082821b905092915050565b600060088302620004e17fffffffffffffffffffffffffffffffffffffffffffffffffffffffffffffffff82620004a2565b620004ed8683620004a2565b95508019841693508086168417925050509392505050565b6000819050919050565b6000819050919050565b60006200053a620005346200052e8462000505565b6200050f565b62000505565b9050919050565b6000819050919050565b620005568362000519565b6200056e620005658262000541565b848454620004af565b825550505050565b600090565b6200058562000576565b620005928184846200054b565b505050565b5b81811015620005ba57620005ae6000826200057b565b60018101905062000598565b5050565b601f8211156200060957620005d3816200047d565b620005de8462000492565b81016020851015620005ee578190505b62000606620005fd8562000492565b83018262000597565b50505b505050565b600082821c905092915050565b60006200062e600019846008026200060e565b1980831691505092915050565b60006200064983836200061b565b9150826002028217905092915050565b6200066482620003df565b67ffffffffffffffff81111562000680576200067f620003ea565b5b6200068c825462000448565b62000699828285620005be565b600060209050601f831160018114620006d15760008415620006bc578287015190505b620006c885826200063b565b86555062000738565b601f198416620006e1866200047d565b60005b828110156200070b57848901518255600182019150602085019450602081019050620006e4565b868310156200072b578489015162000727601f8916826200061b565b8355505b6001600288020188555050505b505050505050565b61431280620007506000396000f3fe60806040523480156200001157600080fd5b5060043610620001545760003560e01c806382f7a58811620000c9578063b0ca278e1162000087578063b0ca278e146200044d578063b8bbdaed1462000483578063c2a59c7714620004b9578063ca52fcc014620004f1578063dad5d22f1462000527578063e367fc6a146200055d5762000154565b806382f7a58814620003515780638784e00814620003895780638b006d6c14620003ab578063a50ec7a314620003e1578063a87430ba14620004175762000154565b8063517fe4de1162000117578063517fe4de14620002575780635bf89d9e146200028d57806365c68f0a14620002af578063714ac16b14620002e557806381754494146200031b5762000154565b80631fcc608b14620001595780632dc25a63146200018f5780634427673314620001c9578063489969f114620001ff5780635119a0e91462000221575b600080fd5b620001776004803603810190620001719190620016e8565b62000593565b60405162000186919062001740565b60405180910390f35b620001ad6004803603810190620001a791906200175d565b620005d5565b604051620001c0959493929190620017bd565b60405180910390f35b620001e76004803603810190620001e191906200175d565b62000693565b604051620001f691906200181a565b60405180910390f35b62000209620006dc565b604051620002189190620018a2565b60405180910390f35b6200023f60048036038101906200023991906200175d565b62000702565b6040516200024e9190620018bf565b60405180910390f35b6200027560048036038101906200026f91906200175d565b62000758565b60405162000284919062001980565b60405180910390f35b6200029762000831565b604051620002a69190620019c9565b60405180910390f35b620002cd6004803603810190620002c7919062001b37565b62000857565b604051620002dc919062001740565b60405180910390f35b620003036004803603810190620002fd91906200175d565b62000885565b6040516200031291906200181a565b60405180910390f35b62000339600480360381019062000333919062001bb2565b6200092f565b604051620003489190620018bf565b60405180910390f35b6200036f60048036038101906200036991906200175d565b62000946565b604051620003809392919062001c03565b60405180910390f35b6200039362000a21565b604051620003a2919062001c65565b60405180910390f35b620003c96004803603810190620003c3919062001c82565b62000a47565b604051620003d89190620018bf565b60405180910390f35b620003ff6004803603810190620003f99190620016e8565b62000ab9565b6040516200040e919062001740565b60405180910390f35b6200043560048036038101906200042f91906200175d565b62000b66565b60405162000444919062001d5a565b60405180910390f35b6200046b60048036038101906200046591906200175d565b62000c0e565b6040516200047a91906200181a565b60405180910390f35b620004a160048036038101906200049b91906200175d565b62000c26565b604051620004b091906200181a565b60405180910390f35b620004d76004803603810190620004d191906200175d565b62000cd0565b604051620004e89392919062001c03565b60405180910390f35b6200050f60048036038101906200050991906200175d565b62000cfa565b6040516200051e91906200181a565b60405180910390f35b6200054560048036038101906200053f919062001d7e565b62000da8565b604051620005549190620018bf565b60405180910390f35b6200057b600480360381019062000575919062001de4565b62000dc0565b6040516200058a919062001740565b60405180910390f35b600a6020528160005260406000206020528060005260406000206000915091509054906101000a900473ffffffffffffffffffffffffffffffffffffffff1681565b6000806000806000600560009054906101000a900473ffffffffffffffffffffffffffffffffffffffff1673ffffffffffffffffffffffffffffffffffffffff1663eeefd7c687336040518363ffffffff1660e01b81526004016200063c92919062001e4a565b60a060405180830381865afa1580156200065a573d6000803e3d6000fd5b505050506040513d601f19601f8201168201806040525081019062000680919062001ed6565b9450945094509450945091939590929450565b6000600360008373ffffffffffffffffffffffffffffffffffffffff1673ffffffffffffffffffffffffffffffffffffffff168152602001908152602001600020549050919050565b600760009054906101000a900473ffffffffffffffffffffffffffffffffffffffff1681565b6000600260008373ffffffffffffffffffffffffffffffffffffffff1673ffffffffffffffffffffffffffffffffffffffff16815260200190815260200160002060009054906101000a900460ff169050919050565b6060600160008373ffffffffffffffffffffffffffffffffffffffff1673ffffffffffffffffffffffffffffffffffffffff1681526020019081526020016000208054620007a69062001f8d565b80601f0160208091040260200160405190810160405280929190818152602001828054620007d49062001f8d565b8015620008255780601f10620007f95761010080835404028352916020019162000825565b820191906000526020600020905b8154815290600101906020018083116200080757829003601f168201915b50505050509050919050565b600660009054906101000a900473ffffffffffffffffffffffffffffffffffffffff1681565b600080600062000868868662000fd7565b915091506200087a828286886200105f565b925050509392505050565b6000600560009054906101000a900473ffffffffffffffffffffffffffffffffffffffff1673ffffffffffffffffffffffffffffffffffffffff1663651c62de836040518263ffffffff1660e01b8152600401620008e4919062001740565b602060405180830381865afa15801562000902573d6000803e3d6000fd5b505050506040513d601f19601f8201168201806040525081019062000928919062001fc2565b9050919050565b60006200093f3383600262001508565b9050919050565b6000806000600460008573ffffffffffffffffffffffffffffffffffffffff1673ffffffffffffffffffffffffffffffffffffffff16815260200190815260200160002060000154600460008673ffffffffffffffffffffffffffffffffffffffff1673ffffffffffffffffffffffffffffffffffffffff16815260200190815260200160002060010154600460008773ffffffffffffffffffffffffffffffffffffffff1673ffffffffffffffffffffffffffffffffffffffff168152602001908152602001600020600201549250925092509193909250565b600560009054906101000a900473ffffffffffffffffffffffffffffffffffffffff1681565b60008060009054906101000a900473ffffffffffffffffffffffffffffffffffffffff1673ffffffffffffffffffffffffffffffffffffffff163373ffffffffffffffffffffffffffffffffffffffff161462000aa357600080fd5b62000ab084848462001508565b90509392505050565b6000600560009054906101000a900473ffffffffffffffffffffffffffffffffffffffff1673ffffffffffffffffffffffffffffffffffffffff1663498095f884846040518363ffffffff1660e01b815260040162000b1a92919062001ff4565b602060405180830381865afa15801562000b38573d6000803e3d6000fd5b505050506040513d601f19601f8201168201806040525081019062000b5e919062002021565b905092915050565b6001602052806000526040600020600091509050805462000b879062001f8d565b80601f016020809104026020016040519081016040528092919081815260200182805462000bb59062001f8d565b801562000c065780601f1062000bda5761010080835404028352916020019162000c06565b820191906000526020600020905b81548152906001019060200180831162000be857829003601f168201915b505050505081565b60096020528060005260406000206000915090505481565b6000600560009054906101000a900473ffffffffffffffffffffffffffffffffffffffff1673ffffffffffffffffffffffffffffffffffffffff1663f597a031836040518263ffffffff1660e01b815260040162000c85919062001740565b602060405180830381865afa15801562000ca3573d6000803e3d6000fd5b505050506040513d601f19601f8201168201806040525081019062000cc9919062001fc2565b9050919050565b60046020528060005260406000206000915090508060000154908060010154908060020154905083565b6000600560009054906101000a900473ffffffffffffffffffffffffffffffffffffffff1673ffffffffffffffffffffffffffffffffffffffff166399d147c283336040518363ffffffff1660e01b815260040162000d5b92919062001e4a565b6020604051808303816000875af115801562000d7b573d6000803e3d6000fd5b505050506040513d601f19601f8201168201806040525081019062000da1919062001fc2565b9050919050565b600062000db88284600262001508565b905092915050565b600030600860009054906101000a900473ffffffffffffffffffffffffffffffffffffffff1684843360405162000df79062001626565b62000e0795949392919062002053565b604051809103906000f08015801562000e24573d6000803e3d6000fd5b50600660006101000a81548173ffffffffffffffffffffffffffffffffffffffff021916908373ffffffffffffffffffffffffffffffffffffffff160217905550600660009054906101000a900473ffffffffffffffffffffffffffffffffffffffff16600a60003373ffffffffffffffffffffffffffffffffffffffff1673ffffffffffffffffffffffffffffffffffffffff1681526020019081526020016000206000600960003373ffffffffffffffffffffffffffffffffffffffff1673ffffffffffffffffffffffffffffffffffffffff16815260200190815260200160002054815260200190815260200160002060006101000a81548173ffffffffffffffffffffffffffffffffffffffff021916908373ffffffffffffffffffffffffffffffffffffffff160217905550600960003373ffffffffffffffffffffffffffffffffffffffff1673ffffffffffffffffffffffffffffffffffffffff168152602001908152602001600020600081548092919062000fa790620020e6565b9190505550600660009054906101000a900473ffffffffffffffffffffffffffffffffffffffff16905092915050565b6000808273ffffffffffffffffffffffffffffffffffffffff168473ffffffffffffffffffffffffffffffffffffffff1610156200101b5783915082905062001058565b8273ffffffffffffffffffffffffffffffffffffffff168473ffffffffffffffffffffffffffffffffffffffff16111562001057578291508390505b5b9250929050565b600030600860009054906101000a900473ffffffffffffffffffffffffffffffffffffffff1684600085604051620010979062001626565b620010a795949392919062002176565b604051809103906000f080158015620010c4573d6000803e3d6000fd5b50600660006101000a81548173ffffffffffffffffffffffffffffffffffffffff021916908373ffffffffffffffffffffffffffffffffffffffff160217905550600660009054906101000a900473ffffffffffffffffffffffffffffffffffffffff16600a60008773ffffffffffffffffffffffffffffffffffffffff1673ffffffffffffffffffffffffffffffffffffffff1681526020019081526020016000206000600960008973ffffffffffffffffffffffffffffffffffffffff1673ffffffffffffffffffffffffffffffffffffffff16815260200190815260200160002054815260200190815260200160002060006101000a81548173ffffffffffffffffffffffffffffffffffffffff021916908373ffffffffffffffffffffffffffffffffffffffff160217905550600660009054906101000a900473ffffffffffffffffffffffffffffffffffffffff16600a60008673ffffffffffffffffffffffffffffffffffffffff1673ffffffffffffffffffffffffffffffffffffffff1681526020019081526020016000206000600960008873ffffffffffffffffffffffffffffffffffffffff1673ffffffffffffffffffffffffffffffffffffffff16815260200190815260200160002054815260200190815260200160002060006101000a81548173ffffffffffffffffffffffffffffffffffffffff021916908373ffffffffffffffffffffffffffffffffffffffff160217905550600960008673ffffffffffffffffffffffffffffffffffffffff1673ffffffffffffffffffffffffffffffffffffffff16815260200190815260200160002060008154809291906200133790620020e6565b9190505550600960008573ffffffffffffffffffffffffffffffffffffffff1673ffffffffffffffffffffffffffffffffffffffff16815260200190815260200160002060008154809291906200138e90620020e6565b9190505550600660009054906101000a900473ffffffffffffffffffffffffffffffffffffffff1673ffffffffffffffffffffffffffffffffffffffff1663421b2d8b866040518263ffffffff1660e01b8152600401620013f0919062001740565b6020604051808303816000875af115801562001410573d6000803e3d6000fd5b505050506040513d601f19601f8201168201806040525081019062001436919062002021565b50600660009054906101000a900473ffffffffffffffffffffffffffffffffffffffff1673ffffffffffffffffffffffffffffffffffffffff1663421b2d8b856040518263ffffffff1660e01b815260040162001494919062001740565b6020604051808303816000875af1158015620014b4573d6000803e3d6000fd5b505050506040513d601f19601f82011682018060405250810190620014da919062002021565b50600660009054906101000a900473ffffffffffffffffffffffffffffffffffffffff169050949350505050565b600082600160008673ffffffffffffffffffffffffffffffffffffffff1673ffffffffffffffffffffffffffffffffffffffff1681526020019081526020016000209081620015589190620023a2565b5081600360008673ffffffffffffffffffffffffffffffffffffffff1673ffffffffffffffffffffffffffffffffffffffff16815260200190815260200160002081905550604051806060016040528060008152602001600081526020016000815250600460008673ffffffffffffffffffffffffffffffffffffffff1673ffffffffffffffffffffffffffffffffffffffff168152602001908152602001600020600082015181600001556020820151816001015560408201518160020155905050600190509392505050565b611e53806200248a83390190565b6000604051905090565b600080fd5b600080fd5b600073ffffffffffffffffffffffffffffffffffffffff82169050919050565b6000620016758262001648565b9050919050565b620016878162001668565b81146200169357600080fd5b50565b600081359050620016a7816200167c565b92915050565b6000819050919050565b620016c281620016ad565b8114620016ce57600080fd5b50565b600081359050620016e281620016b7565b92915050565b600080604083850312156200170257620017016200163e565b5b6000620017128582860162001696565b92505060206200172585828601620016d1565b9150509250929050565b6200173a8162001668565b82525050565b60006020820190506200175760008301846200172f565b92915050565b6000602082840312156200177657620017756200163e565b5b6000620017868482850162001696565b91505092915050565b6200179a81620016ad565b82525050565b60008115159050919050565b620017b781620017a0565b82525050565b600060a082019050620017d460008301886200178f565b620017e36020830187620017ac565b620017f26040830186620017ac565b6200180160608301856200172f565b6200181060808301846200172f565b9695505050505050565b60006020820190506200183160008301846200178f565b92915050565b6000819050919050565b6000620018626200185c620018568462001648565b62001837565b62001648565b9050919050565b6000620018768262001841565b9050919050565b60006200188a8262001869565b9050919050565b6200189c816200187d565b82525050565b6000602082019050620018b9600083018462001891565b92915050565b6000602082019050620018d66000830184620017ac565b92915050565b600081519050919050565b600082825260208201905092915050565b60005b8381101562001918578082015181840152602081019050620018fb565b8381111562001928576000848401525b50505050565b6000601f19601f8301169050919050565b60006200194c82620018dc565b620019588185620018e7565b93506200196a818560208601620018f8565b62001975816200192e565b840191505092915050565b600060208201905081810360008301526200199c81846200193f565b905092915050565b6000620019b18262001869565b9050919050565b620019c381620019a4565b82525050565b6000602082019050620019e06000830184620019b8565b92915050565b600080fd5b600080fd5b7f4e487b7100000000000000000000000000000000000000000000000000000000600052604160045260246000fd5b62001a2a826200192e565b810181811067ffffffffffffffff8211171562001a4c5762001a4b620019f0565b5b80604052505050565b600062001a6162001634565b905062001a6f828262001a1f565b919050565b600067ffffffffffffffff82111562001a925762001a91620019f0565b5b62001a9d826200192e565b9050602081019050919050565b82818337600083830152505050565b600062001ad062001aca8462001a74565b62001a55565b90508281526020810184848401111562001aef5762001aee620019eb565b5b62001afc84828562001aaa565b509392505050565b600082601f83011262001b1c5762001b1b620019e6565b5b813562001b2e84826020860162001ab9565b91505092915050565b60008060006060848603121562001b535762001b526200163e565b5b600062001b638682870162001696565b935050602062001b768682870162001696565b925050604084013567ffffffffffffffff81111562001b9a5762001b9962001643565b5b62001ba88682870162001b04565b9150509250925092565b60006020828403121562001bcb5762001bca6200163e565b5b600082013567ffffffffffffffff81111562001bec5762001beb62001643565b5b62001bfa8482850162001b04565b91505092915050565b600060608201905062001c1a60008301866200178f565b62001c2960208301856200178f565b62001c3860408301846200178f565b949350505050565b600062001c4d8262001869565b9050919050565b62001c5f8162001c40565b82525050565b600060208201905062001c7c600083018462001c54565b92915050565b60008060006060848603121562001c9e5762001c9d6200163e565b5b600062001cae8682870162001696565b935050602084013567ffffffffffffffff81111562001cd25762001cd162001643565b5b62001ce08682870162001b04565b925050604062001cf386828701620016d1565b9150509250925092565b600081519050919050565b600082825260208201905092915050565b600062001d268262001cfd565b62001d32818562001d08565b935062001d44818560208601620018f8565b62001d4f816200192e565b840191505092915050565b6000602082019050818103600083015262001d76818462001d19565b905092915050565b6000806040838503121562001d985762001d976200163e565b5b600083013567ffffffffffffffff81111562001db95762001db862001643565b5b62001dc78582860162001b04565b925050602062001dda8582860162001696565b9150509250929050565b6000806040838503121562001dfe5762001dfd6200163e565b5b600083013567ffffffffffffffff81111562001e1f5762001e1e62001643565b5b62001e2d8582860162001b04565b925050602062001e4085828601620016d1565b9150509250929050565b600060408201905062001e6160008301856200172f565b62001e7060208301846200172f565b9392505050565b60008151905062001e8881620016b7565b92915050565b62001e9981620017a0565b811462001ea557600080fd5b50565b60008151905062001eb98162001e8e565b92915050565b60008151905062001ed0816200167c565b92915050565b600080600080600060a0868803121562001ef55762001ef46200163e565b5b600062001f058882890162001e77565b955050602062001f188882890162001ea8565b945050604062001f2b8882890162001ea8565b935050606062001f3e8882890162001ebf565b925050608062001f518882890162001ebf565b9150509295509295909350565b7f4e487b7100000000000000000000000000000000000000000000000000000000600052602260045260246000fd5b6000600282049050600182168062001fa657607f821691505b60208210810362001fbc5762001fbb62001f5e565b5b50919050565b60006020828403121562001fdb5762001fda6200163e565b5b600062001feb8482850162001e77565b91505092915050565b60006040820190506200200b60008301856200172f565b6200201a60208301846200178f565b9392505050565b6000602082840312156200203a57620020396200163e565b5b60006200204a8482850162001ebf565b91505092915050565b600060a0820190506200206a60008301886200172f565b6200207960208301876200172f565b81810360408301526200208d818662001d19565b90506200209e60608301856200178f565b620020ad60808301846200172f565b9695505050505050565b7f4e487b7100000000000000000000000000000000000000000000000000000000600052601160045260246000fd5b6000620020f382620016ad565b91507fffffffffffffffffffffffffffffffffffffffffffffffffffffffffffffffff8203620021285762002127620020b7565b5b600182019050919050565b6000819050919050565b60006200215e62002158620021528462002133565b62001837565b620016ad565b9050919050565b62002170816200213d565b82525050565b600060a0820190506200218d60008301886200172f565b6200219c60208301876200172f565b8181036040830152620021b0818662001d19565b9050620021c1606083018562002165565b620021d060808301846200172f565b9695505050505050565b60008190508160005260206000209050919050565b60006020601f8301049050919050565b600082821b905092915050565b6000600883026200223e7fffffffffffffffffffffffffffffffffffffffffffffffffffffffffffffffff82620021ff565b6200224a8683620021ff565b95508019841693508086168417925050509392505050565b6000620022836200227d6200227784620016ad565b62001837565b620016ad565b9050919050565b6000819050919050565b6200229f8362002262565b620022b7620022ae826200228a565b8484546200220c565b825550505050565b600090565b620022ce620022bf565b620022db81848462002294565b505050565b5b818110156200230357620022f7600082620022c4565b600181019050620022e1565b5050565b601f82111562002352576200231c81620021da565b6200232784620021ef565b8101602085101562002337578190505b6200234f6200234685620021ef565b830182620022e0565b50505b505050565b600082821c905092915050565b6000620023776000198460080262002357565b1980831691505092915050565b600062002392838362002364565b9150826002028217905092915050565b620023ad8262001cfd565b67ffffffffffffffff811115620023c957620023c8620019f0565b5b620023d5825462001f8d565b620023e282828562002307565b600060209050601f8311600181146200241a576000841562002405578287015190505b62002411858262002384565b86555062002481565b601f1984166200242a86620021da565b60005b8281101562002454578489015182556001820191506020850194506020810190506200242d565b8683101562002474578489015162002470601f89168262002364565b8355505b6001600288020188555050505b50505050505056fe60806040523480156200001157600080fd5b5060405162001e5338038062001e5383398181016040528101906200003791906200035a565b81600581905550846000806101000a81548173ffffffffffffffffffffffffffffffffffffffff021916908373ffffffffffffffffffffffffffffffffffffffff16021790555083600160006101000a81548173ffffffffffffffffffffffffffffffffffffffff021916908373ffffffffffffffffffffffffffffffffffffffff16021790555080600260006101000a81548173ffffffffffffffffffffffffffffffffffffffff021916908373ffffffffffffffffffffffffffffffffffffffff160217905550826003908162000111919062000642565b50505050505062000729565b6000604051905090565b600080fd5b600080fd5b600073ffffffffffffffffffffffffffffffffffffffff82169050919050565b60006200015e8262000131565b9050919050565b620001708162000151565b81146200017c57600080fd5b50565b600081519050620001908162000165565b92915050565b600080fd5b600080fd5b6000601f19601f8301169050919050565b7f4e487b7100000000000000000000000000000000000000000000000000000000600052604160045260246000fd5b620001eb82620001a0565b810181811067ffffffffffffffff821117156200020d576200020c620001b1565b5b80604052505050565b6000620002226200011d565b9050620002308282620001e0565b919050565b600067ffffffffffffffff821115620002535762000252620001b1565b5b6200025e82620001a0565b9050602081019050919050565b60005b838110156200028b5780820151818401526020810190506200026e565b838111156200029b576000848401525b50505050565b6000620002b8620002b28462000235565b62000216565b905082815260208101848484011115620002d757620002d66200019b565b5b620002e48482856200026b565b509392505050565b600082601f83011262000304576200030362000196565b5b815162000316848260208601620002a1565b91505092915050565b6000819050919050565b62000334816200031f565b81146200034057600080fd5b50565b600081519050620003548162000329565b92915050565b600080600080600060a0868803121562000379576200037862000127565b5b600062000389888289016200017f565b95505060206200039c888289016200017f565b945050604086015167ffffffffffffffff811115620003c057620003bf6200012c565b5b620003ce88828901620002ec565b9350506060620003e18882890162000343565b9250506080620003f4888289016200017f565b9150509295509295909350565b600081519050919050565b7f4e487b7100000000000000000000000000000000000000000000000000000000600052602260045260246000fd5b600060028204905060018216806200045457607f821691505b6020821081036200046a57620004696200040c565b5b50919050565b60008190508160005260206000209050919050565b60006020601f8301049050919050565b600082821b905092915050565b600060088302620004d47fffffffffffffffffffffffffffffffffffffffffffffffffffffffffffffffff8262000495565b620004e0868362000495565b95508019841693508086168417925050509392505050565b6000819050919050565b6000620005236200051d62000517846200031f565b620004f8565b6200031f565b9050919050565b6000819050919050565b6200053f8362000502565b620005576200054e826200052a565b848454620004a2565b825550505050565b600090565b6200056e6200055f565b6200057b81848462000534565b505050565b5b81811015620005a3576200059760008262000564565b60018101905062000581565b5050565b601f821115620005f257620005bc8162000470565b620005c78462000485565b81016020851015620005d7578190505b620005ef620005e68562000485565b83018262000580565b50505b505050565b600082821c905092915050565b60006200061760001984600802620005f7565b1980831691505092915050565b600062000632838362000604565b9150826002028217905092915050565b6200064d8262000401565b67ffffffffffffffff811115620006695762000668620001b1565b5b6200067582546200043b565b62000682828285620005a7565b600060209050601f831160018114620006ba5760008415620006a5578287015190505b620006b1858262000624565b86555062000721565b601f198416620006ca8662000470565b60005b82811015620006f457848901518255600182019150602085019450602081019050620006cd565b8683101562000714578489015162000710601f89168262000604565b8355505b6001600288020188555050505b505050505050565b61171a80620007396000396000f3fe608060405234801561001057600080fd5b50600436106101005760003560e01c806382f8fc5d11610097578063d13e240311610066578063d13e240314610321578063d3758c2a14610351578063f471d7ac14610381578063f6ed3c43146103b157610100565b806382f8fc5d146102735780638da5cb5b146102a357806398575188146102c15780639a76a6d7146102f157610100565b80632f5300e4116100d35780632f5300e4146101b3578063421b2d8b146101e35780634b77c468146102135780635daf08ca1461024357610100565b806306fdde03146101055780630a0b138f146101235780631bea2627146101535780632cdd0d5c14610183575b600080fd5b61010d6103e1565b60405161011a9190610e8e565b60405180910390f35b61013d60048036038101906101389190610f22565b61046f565b60405161014a9190610f68565b60405180910390f35b61016d60048036038101906101689190610faf565b610487565b60405161017a9190611031565b60405180910390f35b61019d60048036038101906101989190611053565b610527565b6040516101aa9190611031565b60405180910390f35b6101cd60048036038101906101c89190610f22565b6105d4565b6040516101da9190610f68565b60405180910390f35b6101fd60048036038101906101f89190610f22565b6105ec565b60405161020a91906110a2565b60405180910390f35b61022d60048036038101906102289190610f22565b610863565b60405161023a91906110d8565b60405180910390f35b61025d60048036038101906102589190610faf565b610883565b60405161026a91906110a2565b60405180910390f35b61028d60048036038101906102889190611228565b6108b6565b60405161029a9190610e8e565b60405180910390f35b6102ab6109ed565b6040516102b891906110a2565b60405180910390f35b6102db60048036038101906102d69190610f22565b610a13565b6040516102e891906110a2565b60405180910390f35b61030b60048036038101906103069190610f22565b610b02565b6040516103189190610f68565b60405180910390f35b61033b60048036038101906103369190611271565b610b1a565b6040516103489190610f68565b60405180910390f35b61036b600480360381019061036691906112cd565b610c83565b6040516103789190611031565b60405180910390f35b61039b60048036038101906103969190610faf565b610d30565b6040516103a89190610f68565b60405180910390f35b6103cb60048036038101906103c691906112cd565b610d48565b6040516103d89190611031565b60405180910390f35b600380546103ee9061133c565b80601f016020809104026020016040519081016040528092919081815260200182805461041a9061133c565b80156104675780601f1061043c57610100808354040283529160200191610467565b820191906000526020600020905b81548152906001019060200180831161044a57829003601f168201915b505050505081565b60096020528060005260406000206000915090505481565b600b60205280600052604060002060009150905080546104a69061133c565b80601f01602080910402602001604051908101604052809291908181526020018280546104d29061133c565b801561051f5780601f106104f45761010080835404028352916020019161051f565b820191906000526020600020905b81548152906001019060200180831161050257829003601f168201915b505050505081565b600d6020528160005260406000206020528060005260406000206000915091505080546105539061133c565b80601f016020809104026020016040519081016040528092919081815260200182805461057f9061133c565b80156105cc5780601f106105a1576101008083540402835291602001916105cc565b820191906000526020600020905b8154815290600101906020018083116105af57829003601f168201915b505050505081565b60076020528060005260406000206000915090505481565b6000806005540361060b5760026004541061060657600080fd5b6107a9565b6001600554036107a857600160009054906101000a900473ffffffffffffffffffffffffffffffffffffffff1673ffffffffffffffffffffffffffffffffffffffff1663caac27ae600260009054906101000a900473ffffffffffffffffffffffffffffffffffffffff16846040518363ffffffff1660e01b815260040161069492919061136d565b602060405180830381865afa1580156106b1573d6000803e3d6000fd5b505050506040513d601f19601f820116820180604052508101906106d591906113c2565b6106de57600080fd5b600160009054906101000a900473ffffffffffffffffffffffffffffffffffffffff1673ffffffffffffffffffffffffffffffffffffffff1663caac27ae83600260009054906101000a900473ffffffffffffffffffffffffffffffffffffffff166040518363ffffffff1660e01b815260040161075d92919061136d565b602060405180830381865afa15801561077a573d6000803e3d6000fd5b505050506040513d601f19601f8201168201806040525081019061079e91906113c2565b6107a757600080fd5b5b5b8160066000600454815260200190815260200160002060006101000a81548173ffffffffffffffffffffffffffffffffffffffff021916908373ffffffffffffffffffffffffffffffffffffffff160217905550600454600760008473ffffffffffffffffffffffffffffffffffffffff1673ffffffffffffffffffffffffffffffffffffffff16815260200190815260200160002081905550600460008154809291906108569061141e565b9190505550819050919050565b60106020528060005260406000206000915054906101000a900460ff1681565b60066020528060005260406000206000915054906101000a900473ffffffffffffffffffffffffffffffffffffffff1681565b606081600a60003373ffffffffffffffffffffffffffffffffffffffff1673ffffffffffffffffffffffffffffffffffffffff1681526020019081526020016000206000600960003373ffffffffffffffffffffffffffffffffffffffff1673ffffffffffffffffffffffffffffffffffffffff16815260200190815260200160002054815260200190815260200160002090816109549190611612565b50600960003373ffffffffffffffffffffffffffffffffffffffff1673ffffffffffffffffffffffffffffffffffffffff16815260200190815260200160002060008154809291906109a59061141e565b919050555081600b6000600854815260200190815260200160002090816109cc9190611612565b50600860008154809291906109e09061141e565b9190505550819050919050565b600260009054906101000a900473ffffffffffffffffffffffffffffffffffffffff1681565b60008060055403610a2357600080fd5b600060066000600760008673ffffffffffffffffffffffffffffffffffffffff1673ffffffffffffffffffffffffffffffffffffffff16815260200190815260200160002054815260200190815260200160002060006101000a81548173ffffffffffffffffffffffffffffffffffffffff021916908373ffffffffffffffffffffffffffffffffffffffff1602179055506000600760008473ffffffffffffffffffffffffffffffffffffffff1673ffffffffffffffffffffffffffffffffffffffff16815260200190815260200160002081905550819050919050565b600e6020528060005260406000206000915090505481565b600082600d60008481526020019081526020016000206000600c60008681526020019081526020016000205481526020019081526020016000209081610b609190611612565b5082600f60003373ffffffffffffffffffffffffffffffffffffffff1673ffffffffffffffffffffffffffffffffffffffff1681526020019081526020016000206000600e60003373ffffffffffffffffffffffffffffffffffffffff1673ffffffffffffffffffffffffffffffffffffffff1681526020019081526020016000205481526020019081526020016000209081610bfd9190611612565b50600e60003373ffffffffffffffffffffffffffffffffffffffff1673ffffffffffffffffffffffffffffffffffffffff1681526020019081526020016000206000815480929190610c4e9061141e565b9190505550600c60008381526020019081526020016000206000815480929190610c779061141e565b91905055905092915050565b600a602052816000526040600020602052806000526040600020600091509150508054610caf9061133c565b80601f0160208091040260200160405190810160405280929190818152602001828054610cdb9061133c565b8015610d285780601f10610cfd57610100808354040283529160200191610d28565b820191906000526020600020905b815481529060010190602001808311610d0b57829003601f168201915b505050505081565b600c6020528060005260406000206000915090505481565b600f602052816000526040600020602052806000526040600020600091509150508054610d749061133c565b80601f0160208091040260200160405190810160405280929190818152602001828054610da09061133c565b8015610ded5780601f10610dc257610100808354040283529160200191610ded565b820191906000526020600020905b815481529060010190602001808311610dd057829003601f168201915b505050505081565b600081519050919050565b600082825260208201905092915050565b60005b83811015610e2f578082015181840152602081019050610e14565b83811115610e3e576000848401525b50505050565b6000601f19601f8301169050919050565b6000610e6082610df5565b610e6a8185610e00565b9350610e7a818560208601610e11565b610e8381610e44565b840191505092915050565b60006020820190508181036000830152610ea88184610e55565b905092915050565b6000604051905090565b600080fd5b600080fd5b600073ffffffffffffffffffffffffffffffffffffffff82169050919050565b6000610eef82610ec4565b9050919050565b610eff81610ee4565b8114610f0a57600080fd5b50565b600081359050610f1c81610ef6565b92915050565b600060208284031215610f3857610f37610eba565b5b6000610f4684828501610f0d565b91505092915050565b6000819050919050565b610f6281610f4f565b82525050565b6000602082019050610f7d6000830184610f59565b92915050565b610f8c81610f4f565b8114610f9757600080fd5b50565b600081359050610fa981610f83565b92915050565b600060208284031215610fc557610fc4610eba565b5b6000610fd384828501610f9a565b91505092915050565b600081519050919050565b600082825260208201905092915050565b600061100382610fdc565b61100d8185610fe7565b935061101d818560208601610e11565b61102681610e44565b840191505092915050565b6000602082019050818103600083015261104b8184610ff8565b905092915050565b6000806040838503121561106a57611069610eba565b5b600061107885828601610f9a565b925050602061108985828601610f9a565b9150509250929050565b61109c81610ee4565b82525050565b60006020820190506110b76000830184611093565b92915050565b60008115159050919050565b6110d2816110bd565b82525050565b60006020820190506110ed60008301846110c9565b92915050565b600080fd5b600080fd5b7f4e487b7100000000000000000000000000000000000000000000000000000000600052604160045260246000fd5b61113582610e44565b810181811067ffffffffffffffff82111715611154576111536110fd565b5b80604052505050565b6000611167610eb0565b9050611173828261112c565b919050565b600067ffffffffffffffff821115611193576111926110fd565b5b61119c82610e44565b9050602081019050919050565b82818337600083830152505050565b60006111cb6111c684611178565b61115d565b9050828152602081018484840111156111e7576111e66110f8565b5b6111f28482856111a9565b509392505050565b600082601f83011261120f5761120e6110f3565b5b813561121f8482602086016111b8565b91505092915050565b60006020828403121561123e5761123d610eba565b5b600082013567ffffffffffffffff81111561125c5761125b610ebf565b5b611268848285016111fa565b91505092915050565b6000806040838503121561128857611287610eba565b5b600083013567ffffffffffffffff8111156112a6576112a5610ebf565b5b6112b2858286016111fa565b92505060206112c385828601610f9a565b9150509250929050565b600080604083850312156112e4576112e3610eba565b5b60006112f285828601610f0d565b925050602061130385828601610f9a565b9150509250929050565b7f4e487b7100000000000000000000000000000000000000000000000000000000600052602260045260246000fd5b6000600282049050600182168061135457607f821691505b6020821081036113675761136661130d565b5b50919050565b60006040820190506113826000830185611093565b61138f6020830184611093565b9392505050565b61139f816110bd565b81146113aa57600080fd5b50565b6000815190506113bc81611396565b92915050565b6000602082840312156113d8576113d7610eba565b5b60006113e6848285016113ad565b91505092915050565b7f4e487b7100000000000000000000000000000000000000000000000000000000600052601160045260246000fd5b600061142982610f4f565b91507fffffffffffffffffffffffffffffffffffffffffffffffffffffffffffffffff820361145b5761145a6113ef565b5b600182019050919050565b60008190508160005260206000209050919050565b60006020601f8301049050919050565b600082821b905092915050565b6000600883026114c87fffffffffffffffffffffffffffffffffffffffffffffffffffffffffffffffff8261148b565b6114d2868361148b565b95508019841693508086168417925050509392505050565b6000819050919050565b600061150f61150a61150584610f4f565b6114ea565b610f4f565b9050919050565b6000819050919050565b611529836114f4565b61153d61153582611516565b848454611498565b825550505050565b600090565b611552611545565b61155d818484611520565b505050565b5b818110156115815761157660008261154a565b600181019050611563565b5050565b601f8211156115c65761159781611466565b6115a08461147b565b810160208510156115af578190505b6115c36115bb8561147b565b830182611562565b50505b505050565b600082821c905092915050565b60006115e9600019846008026115cb565b1980831691505092915050565b600061160283836115d8565b9150826002028217905092915050565b61161b82610fdc565b67ffffffffffffffff811115611634576116336110fd565b5b61163e825461133c565b611649828285611585565b600060209050601f83116001811461167c576000841561166a578287015190505b61167485826115f6565b8655506116dc565b601f19841661168a86611466565b60005b828110156116b25784890151825560018201915060208501945060208101905061168d565b868310156116cf57848901516116cb601f8916826115d8565b8355505b6001600288020188555050505b50505050505056fea26469706673582212209c6c059225976f7eba69746c3b935563ce9b3993740707b6d72c99c2c790562f64736f6c634300080f0033a2646970667358221220dc3aff3b615a519ae1cc08550609c7e5fdaafd9da01f14f92e2774402485ad2964736f6c634300080f003360806040523480156200001157600080fd5b50604051620015e9380380620015e98339818101604052810190620000379190620000f0565b806000806101000a81548173ffffffffffffffffffffffffffffffffffffffff021916908373ffffffffffffffffffffffffffffffffffffffff16021790555060016003819055505062000122565b600080fd5b600073ffffffffffffffffffffffffffffffffffffffff82169050919050565b6000620000b8826200008b565b9050919050565b620000ca81620000ab565b8114620000d657600080fd5b50565b600081519050620000ea81620000bf565b92915050565b60006020828403121562000109576200010862000086565b5b60006200011984828501620000d9565b91505092915050565b6114b780620001326000396000f3fe608060405234801561001057600080fd5b50600436106100f55760003560e01c8063b03b610111610097578063ee64d34911610066578063ee64d349146102f8578063eeefd7c614610328578063f0f668f11461035c578063f597a0311461038c576100f5565b8063b03b610114610238578063bd49739714610268578063caac27ae14610298578063d77d72ca146102c8576100f5565b8063651c62de116100d3578063651c62de1461018a57806399d147c2146101ba578063a34cc936146101ea578063acddfb2914610208576100f5565b80633a1c09cf146100fa578063442767331461012a578063498095f81461015a575b600080fd5b610114600480360381019061010f9190610fde565b6103bc565b6040516101219190611024565b60405180910390f35b610144600480360381019061013f9190610fde565b6103d4565b6040516101519190611024565b60405180910390f35b610174600480360381019061016f919061106b565b610478565b60405161018191906110ba565b60405180910390f35b6101a4600480360381019061019f9190610fde565b6104f3565b6040516101b19190611024565b60405180910390f35b6101d460048036038101906101cf91906110d5565b61053c565b6040516101e19190611024565b60405180910390f35b6101f2610a1d565b6040516101ff91906111ae565b60405180910390f35b610222600480360381019061021d919061106b565b610ac3565b60405161022f91906110ba565b60405180910390f35b610252600480360381019061024d9190610fde565b610b05565b60405161025f9190611024565b60405180910390f35b610282600480360381019061027d9190610fde565b610b1d565b60405161028f91906111ae565b60405180910390f35b6102b260048036038101906102ad91906110d5565b610bc5565b6040516102bf91906111eb565b60405180910390f35b6102e260048036038101906102dd91906110d5565b610c59565b6040516102ef9190611024565b60405180910390f35b610312600480360381019061030d91906110d5565b610c7e565b60405161031f91906111eb565b60405180910390f35b610342600480360381019061033d91906110d5565b610cad565b604051610353959493929190611206565b60405180910390f35b610376600480360381019061037191906110d5565b610e6f565b60405161038391906111eb565b60405180910390f35b6103a660048036038101906103a19190610fde565b610e9e565b6040516103b39190611024565b60405180910390f35b60066020528060005260406000206000915090505481565b60008060009054906101000a900473ffffffffffffffffffffffffffffffffffffffff1673ffffffffffffffffffffffffffffffffffffffff166344276733836040518263ffffffff1660e01b815260040161043091906110ba565b602060405180830381865afa15801561044d573d6000803e3d6000fd5b505050506040513d601f19601f82011682018060405250810190610471919061126e565b9050919050565b6000600760008473ffffffffffffffffffffffffffffffffffffffff1673ffffffffffffffffffffffffffffffffffffffff168152602001908152602001600020600083815260200190815260200160002060009054906101000a900473ffffffffffffffffffffffffffffffffffffffff16905092915050565b6000600560008373ffffffffffffffffffffffffffffffffffffffff1673ffffffffffffffffffffffffffffffffffffffff168152602001908152602001600020549050919050565b60006001600260008573ffffffffffffffffffffffffffffffffffffffff1673ffffffffffffffffffffffffffffffffffffffff16815260200190815260200160002060008473ffffffffffffffffffffffffffffffffffffffff1673ffffffffffffffffffffffffffffffffffffffff16815260200190815260200160002060006101000a81548160ff021916908315150217905550600660008473ffffffffffffffffffffffffffffffffffffffff1673ffffffffffffffffffffffffffffffffffffffff1681526020019081526020016000206000815480929190610623906112ca565b919050555060018060008473ffffffffffffffffffffffffffffffffffffffff1673ffffffffffffffffffffffffffffffffffffffff16815260200190815260200160002060008573ffffffffffffffffffffffffffffffffffffffff1673ffffffffffffffffffffffffffffffffffffffff16815260200190815260200160002060006101000a81548160ff02191690831515021790555082600760008473ffffffffffffffffffffffffffffffffffffffff1673ffffffffffffffffffffffffffffffffffffffff1681526020019081526020016000206000600560008673ffffffffffffffffffffffffffffffffffffffff1673ffffffffffffffffffffffffffffffffffffffff16815260200190815260200160002054815260200190815260200160002060006101000a81548173ffffffffffffffffffffffffffffffffffffffff021916908373ffffffffffffffffffffffffffffffffffffffff160217905550600560008373ffffffffffffffffffffffffffffffffffffffff1673ffffffffffffffffffffffffffffffffffffffff16815260200190815260200160002060008154809291906107da906112ca565b91905055506000806107ec8585610ee7565b915091506000600460008473ffffffffffffffffffffffffffffffffffffffff1673ffffffffffffffffffffffffffffffffffffffff16815260200190815260200160002060008373ffffffffffffffffffffffffffffffffffffffff1673ffffffffffffffffffffffffffffffffffffffff168152602001908152602001600020540361099557600354600460008473ffffffffffffffffffffffffffffffffffffffff1673ffffffffffffffffffffffffffffffffffffffff16815260200190815260200160002060008373ffffffffffffffffffffffffffffffffffffffff1673ffffffffffffffffffffffffffffffffffffffff168152602001908152602001600020819055506003600081548092919061090a906112ca565b9190505550600460008373ffffffffffffffffffffffffffffffffffffffff1673ffffffffffffffffffffffffffffffffffffffff16815260200190815260200160002060008273ffffffffffffffffffffffffffffffffffffffff1673ffffffffffffffffffffffffffffffffffffffff1681526020019081526020016000205492505050610a17565b600460008373ffffffffffffffffffffffffffffffffffffffff1673ffffffffffffffffffffffffffffffffffffffff16815260200190815260200160002060008273ffffffffffffffffffffffffffffffffffffffff1673ffffffffffffffffffffffffffffffffffffffff16815260200190815260200160002054925050505b92915050565b606060008054906101000a900473ffffffffffffffffffffffffffffffffffffffff1673ffffffffffffffffffffffffffffffffffffffff1663517fe4de336040518263ffffffff1660e01b8152600401610a7891906110ba565b600060405180830381865afa158015610a95573d6000803e3d6000fd5b505050506040513d6000823e3d601f19601f82011682018060405250810190610abe9190611438565b905090565b60076020528160005260406000206020528060005260406000206000915091509054906101000a900473ffffffffffffffffffffffffffffffffffffffff1681565b60056020528060005260406000206000915090505481565b606060008054906101000a900473ffffffffffffffffffffffffffffffffffffffff1673ffffffffffffffffffffffffffffffffffffffff1663517fe4de836040518263ffffffff1660e01b8152600401610b7891906110ba565b600060405180830381865afa158015610b95573d6000803e3d6000fd5b505050506040513d6000823e3d601f19601f82011682018060405250810190610bbe9190611438565b9050919050565b6000600160008473ffffffffffffffffffffffffffffffffffffffff1673ffffffffffffffffffffffffffffffffffffffff16815260200190815260200160002060008373ffffffffffffffffffffffffffffffffffffffff1673ffffffffffffffffffffffffffffffffffffffff16815260200190815260200160002060009054906101000a900460ff16905092915050565b6004602052816000526040600020602052806000526040600020600091509150505481565b60016020528160005260406000206020528060005260406000206000915091509054906101000a900460ff1681565b6000806000806000806000610cc28989610ee7565b91509150600460008373ffffffffffffffffffffffffffffffffffffffff1673ffffffffffffffffffffffffffffffffffffffff16815260200190815260200160002060008273ffffffffffffffffffffffffffffffffffffffff1673ffffffffffffffffffffffffffffffffffffffff16815260200190815260200160002054600160008a73ffffffffffffffffffffffffffffffffffffffff1673ffffffffffffffffffffffffffffffffffffffff16815260200190815260200160002060008b73ffffffffffffffffffffffffffffffffffffffff1673ffffffffffffffffffffffffffffffffffffffff16815260200190815260200160002060009054906101000a900460ff16600260008b73ffffffffffffffffffffffffffffffffffffffff1673ffffffffffffffffffffffffffffffffffffffff16815260200190815260200160002060008c73ffffffffffffffffffffffffffffffffffffffff1673ffffffffffffffffffffffffffffffffffffffff16815260200190815260200160002060009054906101000a900460ff1684849650965096509650965050509295509295909350565b60026020528160005260406000206020528060005260406000206000915091509054906101000a900460ff1681565b6000600660008373ffffffffffffffffffffffffffffffffffffffff1673ffffffffffffffffffffffffffffffffffffffff168152602001908152602001600020549050919050565b6000808273ffffffffffffffffffffffffffffffffffffffff168473ffffffffffffffffffffffffffffffffffffffff161015610f2957839150829050610f65565b8273ffffffffffffffffffffffffffffffffffffffff168473ffffffffffffffffffffffffffffffffffffffff161115610f64578291508390505b5b9250929050565b6000604051905090565b600080fd5b600080fd5b600073ffffffffffffffffffffffffffffffffffffffff82169050919050565b6000610fab82610f80565b9050919050565b610fbb81610fa0565b8114610fc657600080fd5b50565b600081359050610fd881610fb2565b92915050565b600060208284031215610ff457610ff3610f76565b5b600061100284828501610fc9565b91505092915050565b6000819050919050565b61101e8161100b565b82525050565b60006020820190506110396000830184611015565b92915050565b6110488161100b565b811461105357600080fd5b50565b6000813590506110658161103f565b92915050565b6000806040838503121561108257611081610f76565b5b600061109085828601610fc9565b92505060206110a185828601611056565b9150509250929050565b6110b481610fa0565b82525050565b60006020820190506110cf60008301846110ab565b92915050565b600080604083850312156110ec576110eb610f76565b5b60006110fa85828601610fc9565b925050602061110b85828601610fc9565b9150509250929050565b600081519050919050565b600082825260208201905092915050565b60005b8381101561114f578082015181840152602081019050611134565b8381111561115e576000848401525b50505050565b6000601f19601f8301169050919050565b600061118082611115565b61118a8185611120565b935061119a818560208601611131565b6111a381611164565b840191505092915050565b600060208201905081810360008301526111c88184611175565b905092915050565b60008115159050919050565b6111e5816111d0565b82525050565b600060208201905061120060008301846111dc565b92915050565b600060a08201905061121b6000830188611015565b61122860208301876111dc565b61123560408301866111dc565b61124260608301856110ab565b61124f60808301846110ab565b9695505050505050565b6000815190506112688161103f565b92915050565b60006020828403121561128457611283610f76565b5b600061129284828501611259565b91505092915050565b7f4e487b7100000000000000000000000000000000000000000000000000000000600052601160045260246000fd5b60006112d58261100b565b91507fffffffffffffffffffffffffffffffffffffffffffffffffffffffffffffffff82036113075761130661129b565b5b600182019050919050565b600080fd5b600080fd5b7f4e487b7100000000000000000000000000000000000000000000000000000000600052604160045260246000fd5b61135482611164565b810181811067ffffffffffffffff821117156113735761137261131c565b5b80604052505050565b6000611386610f6c565b9050611392828261134b565b919050565b600067ffffffffffffffff8211156113b2576113b161131c565b5b6113bb82611164565b9050602081019050919050565b60006113db6113d684611397565b61137c565b9050828152602081018484840111156113f7576113f6611317565b5b611402848285611131565b509392505050565b600082601f83011261141f5761141e611312565b5b815161142f8482602086016113c8565b91505092915050565b60006020828403121561144e5761144d610f76565b5b600082015167ffffffffffffffff81111561146c5761146b610f7b565b5b6114788482850161140a565b9150509291505056fea2646970667358221220f626b6882fb3de9822c7e5f22528eedee00a3f2ee92084a6c4fec70a04d304e364736f6c634300080f00337b226e616d65223a227330782061646d696e222c22656d61696c223a22747970652e73746572656f40706d2e6d65222c22696d616765223a2268747470733a2f2f697066732e696f2f697066732f516d584e63694776474a4752563248484538326f4c6f69637677617442387371737964786e3750334e5350316e57227d",
  "immutableReferences": {},
  "source": "// SPDX-License-Identifier: GPL-3.0\n// // // // // // // // // // // // // // // // // // // // // // // // // // // // // // // // // // // // // // // // // // // // // // // // // // // // // // // // // // // // //\n//\n//              .d8888.  .d88b.  db    db d888888b d88888b d888888b db    db\n//              88'  YP .8P  88. `8b  d8'   `88'   88'     `~~88~~' `8b  d8'\n//              `8bo.   88  d'88  `8bd8'     88    88ooooo    88     `8bd8'\n//                `Y8b. 88 d' 88  .dPYb.     88    88~~~~~    88       88\n//              db   8D `88  d8' .8P  Y8.   .88.   88.        88       88\n//              `8888Y'  `Y88P'  YP    YP Y888888P Y88888P    YP       YP\n//\n// // // // // // // // // // // // // // // // // // // // // // // // // // // // // // // // // // // // // // // // // // // // // // // // // // // // // // // // // // // // //\n//                                                                                                                                                                                  //\n//      @dev            ::              stereoIII6.dao                                                                                                                                          //\n//      @msg            ::              type.stereo@pm.me                                                                                                                                    //\n//      @github         ::              @stereoIII6\n//      @twitter        ::              @stereoIII6                                                                                                                                              //\n//                                                                                                                                                                                  //\n// // // // // // // // // // // // // // // // // // // // // // // // // // // // // // // // // // // // // // // // // // // // // // // // // // // // // // // // // // // // //\n//                                                                                                                                                                                  //\n//      @dev            ::              Juan Xavier Valverde                                                                                                                                    //\n//      @msg            ::              juanxaviervm@hotmail.com                                                                                                                               //\n//      @twitter        ::              @JuanXavier                                                                                                                                             //\n//      @github         ::              @JuanXavier                                                                                                                                             //\n//                                                                                                                                                                                  //                                                                                                                                                                                 //\n// // // // // // // // // // // // // // // // // // // // // // // // // // // // // // // // // // // // // // // // // // // // // // // // // // // // // // // // // // // // //\n//  *   *   *   *   *   *   *   *   *   *   *   *   *   *   *   *   *   *   *   *   *   *   *   *   *   *   *   *   *   *   *   *   *   *   *   *   *   *   *   *   *   *   *   *   //\n// // // // // // // // // // // // // // // // // // // // // // // // // // // // // // // // // // // // // // // // // // // // // // // // // // // // // // // // // // // // //\n//                                                                                                                                                                                  //\n//                                                                                                                                                                                  //\n//      @title          ::              s0xiety Connect                                                                                                                             //\n//      @description    ::              decentral s0xiety                                                                                                                           //\n//      @version        ::              0.0.1                                                                                                                                       //\n//      @purpose        ::              Refer friennds on the blockchain                                                                                                            //\n//                                                                                                                                                                                  //\n//                                                                                                                                                                                  //\n//                                                                                                                                                                                  //\n//                                                                                                                                                                                  //\n//                                                                                                                                                                                  //\n// // // // // // // // // // // // // // // // // // // // // // // // // // // // // // // // // // // // // // // // // // // // // // // // // // // // // // // // // // // // //\n//  *   *   *   *   *   *   *   *   *   *   *   *   *   *   *   *   *   *   *   *   *   *   *   *   *   *   *   *   *   *   *   *   *   *   *   *   *   *   *   *   *   *   *   *   //\n// // // // // // // // // // // // // // // // // // // // // // // // // // // // // // // // // // // // // // // // // // // // // // // // // // // // // // // // // // // // //\n/*\n\n MOCK USER TAG ::: \"{'name':'s0x user','email':'type.stereo@pm.me','image':'https://ipfs.io/ipfs/QmXNciGvGJGRV2HHE82oLoicvwatB8sqsydxn7P3NSP1nW'}\"\n\n*/\n\n/* \n\nINSTRUCTIONS \n\n*/\npragma solidity ^0.8.7;\n\n// Open Zeppelin Imports\nimport \"@openzeppelin/contracts/utils/Counters.sol\";\nimport \"@openzeppelin/contracts/utils/Strings.sol\";\n\nimport \"@openzeppelin/contracts/token/ERC20/ERC20.sol\";\nimport \"@openzeppelin/contracts/token/ERC20/IERC20.sol\";\n\n// import \"@openzeppelin/contracts/token/ERC721/extensions/ERC721URIStorage.sol\";\nimport \"@openzeppelin/contracts/token/ERC721/ERC721.sol\";\nimport \"@openzeppelin/contracts/token/ERC721/IERC721.sol\";\n\nimport \"@openzeppelin/contracts/token/ERC1155/ERC1155.sol\";\n\n// mathematical function for conglomerate\ncontract MathFnx {\n    // division function for solidity\n    function divide(uint256 _a, uint256 _b) internal pure returns (uint256) {\n        uint256 rem = _a % _b;\n        return ((_a - rem) / _b);\n    }\n\n    // generates unique id nr\n    function uniqID(string memory _inf) internal pure returns (uint256) {\n        bytes32 BHash = keccak256(abi.encode(_inf));\n        return uint256(BHash);\n    }\n\n    // gives back the smaller wallet address\n    function smaller(address _a, address _b)\n        internal\n        pure\n        returns (address s, address l)\n    {\n        if (_a < _b) {\n            s = _a;\n            l = _b;\n        } else if (_a > _b) {\n            s = _b;\n            l = _a;\n        }\n    }\n}\n\n// user data storage for conglomerate\ncontract Users {\n    address private s0x; // s0x admin\n\n    constructor() {\n        s0x = msg.sender; // admin initialization\n        makeUser(\n            s0x,\n            '{\"name\":\"s0x admin\",\"email\":\"type.stereo@pm.me\",\"image\":\"https://ipfs.io/ipfs/QmXNciGvGJGRV2HHE82oLoicvwatB8sqsydxn7P3NSP1nW\"}',\n            99\n        ); // admin user account setup\n    }\n\n    struct Impact {\n        uint256 action;\n        uint256 connection;\n        uint256 liquidity;\n    }\n    // user profile array // user# => dias%\n    mapping(address => bytes) public users;\n    mapping(address => bool) private isUser;\n    // role // user# => role$\n    mapping(address => uint256) private roles;\n    // only admin allowed function modifier\n    mapping(address => Impact) public impx;\n    modifier isAdmin() {\n        require(msg.sender == s0x);\n        _;\n    }\n\n    // takes address , dias , and role to create and store a user profile in user mapping\n    function makeUser(\n        address _adr,\n        bytes memory _dias,\n        uint256 _r\n    ) internal returns (bool) {\n        users[_adr] = _dias;\n        roles[_adr] = _r;\n        impx[_adr] = Impact(0, 0, 0);\n        return true;\n    }\n\n    // takes dias to create guest user profile\n    function createUserAccount(string memory _dias, address _user)\n        external\n        returns (bool)\n    {\n        return makeUser(_user, bytes(_dias), 2);\n    }\n\n    // takes address , dias , and role to admin edit and store a user profile in user mapping\n    function adminEditUser(\n        address _adr,\n        string memory _dias,\n        uint256 _r\n    ) external isAdmin returns (bool) {\n        return makeUser(_adr, bytes(_dias), _r);\n    }\n\n    // takes address , dias , and role to edit and store your user profile in user mapping\n    function editUser(string memory _dias) external returns (bool) {\n        return makeUser(msg.sender, bytes(_dias), 2);\n    }\n\n    // shows user dias by address input\n    function showUser(address _adr) external view returns (string memory) {\n        return string(users[_adr]);\n    }\n\n    function showImpx(address _adr)\n        external\n        view\n        returns (\n            uint256,\n            uint256,\n            uint256\n        )\n    {\n        return (impx[_adr].action, impx[_adr].connection, impx[_adr].liquidity);\n    }\n\n    // shows role by address input\n    function getRole(address _adr) external view returns (uint256) {\n        return roles[_adr];\n    }\n\n    function isU(address _adr) external view returns (bool) {\n        return isUser[_adr];\n    }\n}\n\ncontract Friends is MathFnx {\n    Users private user;\n    // frenz // you# => frenz# => isfriend?\n    mapping(address => mapping(address => bool)) public frenz; // people following you\n    // degenz // you# => degenz# => isfriend?\n    mapping(address => mapping(address => bool)) public degenz; // people you follow\n    // connection bool // smaller# => bigger# => friends$ // friends : $0=unrelated, $1=hype, $2=nest\n    uint256 c;\n    mapping(address => mapping(address => uint256)) public connection;\n    mapping(address => uint256) public frenzCount;\n    mapping(address => uint256) public degenzCount;\n    mapping(address => mapping(uint256 => address)) public frenzByCount;\n    // user degenerated you\n    modifier degenerated(address _adr) {\n        require(degenz[msg.sender][_adr] == true || msg.sender == _adr); // do you follow or is it yourself\n        _;\n    }\n    // user frenzonned you\n    modifier frenzoned(address _adr) {\n        require(frenz[_adr][msg.sender] || msg.sender == _adr); // is he following or is it yourself\n        _;\n    }\n\n    constructor(address _usrAdr) {\n        user = Users(_usrAdr);\n        c = 1;\n    }\n\n    function showMe() external view returns (string memory) {\n        return user.showUser(msg.sender);\n    }\n\n    function showYou(address _adr) external view returns (string memory) {\n        return user.showUser(_adr);\n    }\n\n    function getRole(address _adr) external view returns (uint256) {\n        return user.getRole(_adr);\n    }\n\n    function follow(address _adr, address _sender) external returns (uint256) {\n        degenz[_adr][_sender] = true;\n        degenzCount[_adr]++;\n        frenz[_sender][_adr] = true;\n        frenzByCount[_sender][frenzCount[_sender]] = _adr;\n        frenzCount[_sender]++;\n        (address s, address l) = smaller(_adr, _sender);\n        if (connection[s][l] == 0) {\n            connection[s][l] = c;\n            c++;\n            return (connection[s][l]);\n        } else return (connection[s][l]);\n    }\n\n    function doShowStatus(address _adr, address _sender)\n        external\n        view\n        returns (\n            uint256,\n            bool,\n            bool,\n            address,\n            address\n        )\n    {\n        (address s, address l) = smaller(_adr, _sender);\n        return (\n            connection[s][l],\n            frenz[_sender][_adr],\n            degenz[_sender][_adr],\n            s,\n            l\n        );\n    }\n\n    function doFrenzCount(address _adr) external view returns (uint256) {\n        return frenzCount[_adr];\n    }\n\n    function doDegenzCount(address _adr) external view returns (uint256) {\n        return degenzCount[_adr];\n    }\n\n    function doShowFrenz(address _adr, uint256 _c)\n        external\n        view\n        returns (address)\n    {\n        return frenzByCount[_adr][_c];\n    }\n\n    function isFrenz(address _a, address _b) external view returns (bool) {\n        return frenz[_a][_b];\n    }\n}\n\n// groups contract stores groupmembers , posts and comments inside the group on chain\ncontract Groups is MathFnx {\n    Users private user; // user contract reference\n    Friends private friend; // friend contract reference\n    address public owner; // owner address\n    string public name; // group name\n    uint256 private m; // member count\n    uint256 private state; // 0-private (no invite), 1-bothchecked, 2-ulike, 3-likeu, 4-bothcheckedofulike, 5-public, 9-secret, 99-admin\n    mapping(uint256 => address) public members; // address by id\n    mapping(address => uint256) public mNum; // id by address\n    uint256 private c; // content count\n    mapping(address => uint256) public myContent; // content count by address\n    mapping(address => mapping(uint256 => bytes)) public content; // content by address => myContent counter\n    mapping(uint256 => bytes) public cntnt; // contentt by cid\n    mapping(uint256 => uint256) public r; // replys by cntnt id c\n    mapping(uint256 => mapping(uint256 => bytes)) public replys; // replys by cid => rply id => reply content\n    mapping(address => uint256) public myRplyCount; // reply count  by useraddress\n    mapping(address => mapping(uint256 => bytes)) public myReplys; // reply content by address and myrplycount\n    mapping(address => bool) public invite;\n\n    constructor(\n        address _user,\n        address _friend,\n        bytes memory _name,\n        uint256 _state,\n        address _o\n    ) {\n        state = _state;\n        user = Users(_user);\n        friend = Friends(_friend);\n        owner = _o;\n        name = string(_name);\n    }\n\n    function addUser(address _adr) external returns (address) {\n        if (state == 0)\n            require(m < 2); // private state one allows 2 users only\n            // require(user.isU(msg.sender) == true);\n            // require(user.isU(_adr) == true);\n        else if (state == 1) {\n            require(friend.isFrenz(owner, _adr));\n            require(friend.isFrenz(_adr, owner));\n        } // only degenz&frenz allowed\n        /*\n        else if(state == 2) {\n          require(friend.isFrenz(owner, _adr));  \n        } // only frenz people you like\n        else if(state == 3) {\n          require(friend.isFrenz(_adr, owner));  \n        } // only degenz people who like you\n        else if(state == 4) {\n            require(friend.isFrenz(msg.sender, _adr));\n            require(friend.isFrenz(_adr, msg.sender));\n        } // only degenz&frenz allowed\n\n        else if(state == 9) require(invite[_adr] == true);\n        else if(state == 99) require(friend.getRole(msg.sender) == 99);\n        */\n        members[m] = _adr;\n        mNum[_adr] = m;\n        m++;\n        return _adr;\n    }\n\n    function removeUser(address _adr) external returns (address) {\n        require(state != 0);\n        members[mNum[_adr]] = 0x0000000000000000000000000000000000000000;\n        mNum[_adr] = 0;\n        return _adr;\n    }\n\n    function addContent(string memory _cnt) external returns (string memory) {\n        content[msg.sender][myContent[msg.sender]] = bytes(_cnt);\n        myContent[msg.sender]++;\n        cntnt[c] = bytes(_cnt);\n        c++;\n        return _cnt;\n    }\n\n    function addReplyToContent(string memory _rply, uint256 _c)\n        external\n        returns (uint256)\n    {\n        replys[_c][r[_c]] = bytes(_rply);\n        myReplys[msg.sender][myRplyCount[msg.sender]] = bytes(_rply);\n        myRplyCount[msg.sender]++;\n        return r[_c]++;\n    }\n}\n\n// allows users to create groups\ncontract s0xFactory is Users, MathFnx {\n    Friends public friends;\n    Groups public groups;\n    MLQ public mlq;\n    address private fAdr;\n    mapping(address => uint256) public groupCount;\n    mapping(address => mapping(uint256 => address)) public groupByCount;\n\n    constructor(address _mlq) Users() MathFnx() {\n        mlq = MLQ(_mlq);\n        friends = new Friends(address(this));\n        fAdr = address(friends);\n    }\n\n    function createGroup(string memory _name, uint256 _state)\n        external\n        returns (address)\n    {\n        groups = new Groups(\n            address(this),\n            fAdr,\n            bytes(_name),\n            _state,\n            msg.sender\n        );\n        groupByCount[msg.sender][groupCount[msg.sender]] = address(groups);\n        groupCount[msg.sender]++;\n        return address(groups);\n    }\n\n    function createConvo(\n        address _to,\n        address _from,\n        string memory _msg\n    ) external returns (address) {\n        (address s, address l) = smaller(_to, _from);\n        return makeConvo(s, l, _msg, _from);\n    }\n\n    function makeConvo(\n        address _s,\n        address _l,\n        string memory _name,\n        address _from\n    ) internal returns (address) {\n        groups = new Groups(address(this), fAdr, bytes(_name), 0, _from);\n        groupByCount[_s][groupCount[_s]] = address(groups);\n        groupByCount[_l][groupCount[_l]] = address(groups);\n        groupCount[_s]++;\n        groupCount[_l]++;\n        groups.addUser(_s);\n        groups.addUser(_l);\n        return address(groups);\n    }\n\n    function followAdr(address _adr) external returns (uint256) {\n        return friends.follow(_adr, msg.sender);\n    }\n\n    function showFrenz(address _adr, uint256 _c)\n        external\n        view\n        returns (address)\n    {\n        return friends.doShowFrenz(_adr, _c);\n    }\n\n    function countFrenz(address _adr) external view returns (uint256) {\n        return friends.doFrenzCount(_adr);\n    }\n\n    function countDegenz(address _adr) external view returns (uint256) {\n        return friends.doDegenzCount(_adr);\n    }\n\n    function showStatus(address _adr)\n        external\n        view\n        returns (\n            uint256,\n            bool,\n            bool,\n            address,\n            address\n        )\n    {\n        return friends.doShowStatus(_adr, msg.sender);\n    }\n}\n\n// mlq library\nlibrary mlqLib {\n    uint256 public constant mlqRate = 100;\n    uint256 public constant mlqDig = 10**18;\n    uint256 public constant maxSupply = 3 * 10**9 * mlqDig;\n    uint256 public constant pubSupply = 1 * 10**9 * mlqDig;\n    uint256 public constant poolReserve = 1 * 10**9 * mlqDig;\n    uint256 public constant circReserve = 1 * 10**9 * mlqDig;\n}\n\n// mlq token contract\ncontract MLQ is ERC20, MathFnx {\n    using mlqLib for *;\n    address private admin;\n    uint256 public rate;\n    uint256 public pubSupply;\n    mapping(address => uint256) public mlqBalance;\n\n    constructor() ERC20(\"Milquidity Token\", \"MLQ\") {\n        admin = msg.sender;\n        setRate(mlqLib.mlqRate);\n        setSupply(mlqLib.pubSupply);\n    }\n\n    function setRate(uint256 _newRate) internal returns (uint256) {\n        rate = _newRate;\n        return rate;\n    }\n\n    function setSupply(uint256 _newSupply) internal returns (uint256) {\n        pubSupply = _newSupply;\n        return pubSupply;\n    }\n\n    function buyMlq(uint256 _amnt) external payable returns (uint256) {\n        uint256 amnt = mlqLib.mlqDig * _amnt;\n        require(pubSupply >= amnt);\n        require(divide(msg.value, 100) >= amnt);\n        _mint(msg.sender, amnt);\n        mlqBalance[msg.sender] = amnt;\n        pubSupply -= amnt;\n        return amnt;\n    }\n\n    function mlqBal(address _adr) external view returns (uint256) {\n        return mlqBalance[_adr];\n    }\n\n    function withdraw(uint256 _amnt) external returns (uint256) {\n        uint256 amnt = mlqLib.mlqDig * _amnt;\n        require(admin == msg.sender);\n        require(mlqBalance[address(this)] >= amnt);\n        transferFrom(address(this), admin, amnt);\n        return amnt;\n    }\n\n    function flush() external returns (uint256) {\n        require(admin == msg.sender);\n        transferFrom(address(this), admin, mlqBalance[address(this)]);\n        payable(admin).transfer(address(this).balance);\n        return address(this).balance;\n    }\n}\n\ncontract USDC is ERC20 {\n    constructor() ERC20(\"US Dollar Coin\", \"USDC\") {}\n\n    function dropUSDC() external {\n        _mint(msg.sender, 100 * 10**18);\n    }\n}\n\n// any coin tokeen contract\ncontract COIN is ERC20, MathFnx {\n    using mlqLib for *;\n    address private admin;\n    uint256 public rate;\n    uint256 public pubSupply;\n    uint256 public maxSupply;\n    string public title;\n    mapping(address => uint256) public coinBalance;\n\n    constructor(\n        string memory _name,\n        string memory _sym,\n        uint256 _rate,\n        uint256 _supply,\n        address _admin\n    ) ERC20(_name, _sym) {\n        admin = _admin;\n        setRate(_rate);\n        maxSupply = _supply;\n        title = _name;\n    }\n\n    function setRate(uint256 _newRate) internal returns (uint256) {\n        rate = _newRate;\n        return rate;\n    }\n\n    function getRate() external view returns (uint256) {\n        return rate;\n    }\n\n    function getMax() external view returns (uint256) {\n        return maxSupply;\n    }\n\n    function getName() external view returns (string memory) {\n        return title;\n    }\n\n    function getMinted() external view returns (uint256) {\n        return pubSupply;\n    }\n\n    function buyMlq(uint256 _amnt) external payable returns (uint256) {\n        uint256 amnt = mlqLib.mlqDig * _amnt;\n        require(pubSupply >= amnt);\n        require(divide(msg.value, 100) >= amnt);\n        _mint(msg.sender, amnt);\n        coinBalance[msg.sender] = amnt;\n        pubSupply += amnt;\n        return amnt;\n    }\n\n    function coinBal(address _adr) external view returns (uint256) {\n        return coinBalance[_adr];\n    }\n\n    function withdraw(uint256 _amnt) external returns (uint256) {\n        uint256 amnt = mlqLib.mlqDig * _amnt;\n        require(admin == msg.sender);\n        require(coinBalance[address(this)] >= amnt);\n        transferFrom(address(this), admin, amnt);\n        return amnt;\n    }\n\n    function flush() external returns (uint256) {\n        require(admin == msg.sender);\n        transferFrom(address(this), admin, coinBalance[address(this)]);\n        payable(admin).transfer(address(this).balance);\n        return address(this).balance;\n    }\n}\n\ncontract s0xPool is MathFnx {\n    COIN public coin;\n    COIN public main;\n    COIN public sec;\n    COIN public pool;\n    uint256 p;\n    struct Pool {\n        uint256 id;\n        address pool;\n        address main;\n        uint256 ethByMain;\n        uint256 mainMax;\n        address sec;\n        uint256 ethBySec;\n        uint256 secMax;\n        uint256 distrib;\n        uint256 xRate;\n    }\n    uint256 t;\n    struct Token {\n        uint256 id;\n        string name;\n        address adr;\n        uint256 maxSupply;\n        uint256 mintedSupply;\n        uint256 priceInEth;\n    }\n    uint256 s;\n    struct Safe {\n        uint256 id;\n        address user;\n        address token;\n        uint256 safeBalance;\n    }\n    mapping(uint256 => Pool) public poolz;\n    mapping(uint256 => Token) public tokenz;\n    mapping(uint256 => Safe) public safez;\n\n    function addToken(address _token) external returns (address) {\n        coin = COIN(_token);\n        tokenz[t] = Token(\n            t,\n            coin.getName(),\n            address(coin),\n            coin.getMax(),\n            coin.getMinted(),\n            coin.getRate()\n        );\n        t++;\n        return address(coin);\n    }\n\n    function createToken(\n        string memory _name,\n        string memory _sym,\n        uint256 _rate,\n        uint256 _max\n    ) external returns (address) {\n        coin = new COIN(_name, _sym, _rate, _max, msg.sender);\n        tokenz[t] = Token(t, _name, address(coin), _max, 0, _rate);\n        t++;\n        return address(coin);\n    }\n\n    function createPool(\n        address _main,\n        address _sec,\n        string memory _name,\n        string memory _psym\n    ) external returns (address) {\n        // get token contracts\n        main = COIN(_main);\n        sec = COIN(_sec);\n        // detect currency eth value per token\n        uint256 mEthPrice = divide(10**18, main.getRate()); // example // 10^18 / 100 = 10^16\n        uint256 sEthPrice = divide(10**18, sec.getRate()); // example // 10^18 / 100000 = 10^13\n        // detect dif ratio\n        uint256 dRate; // difference ratio\n        if (sEthPrice < mEthPrice)\n            dRate = divide(mEthPrice, sEthPrice); // example // 10^16 / 10^13 = 1000\n        else dRate = divide(sEthPrice, mEthPrice); // example // null\n        uint256 xRate;\n        xRate =\n            ((mEthPrice * main.getMax()) + (sEthPrice * sec.getMax())) /\n            100;\n        pool = new COIN(_name, _psym, xRate, 100 * 10**18, msg.sender); // example // 100 * 10^18\n        poolz[p] = Pool(\n            p,\n            address(pool),\n            _main,\n            mEthPrice,\n            divide(main.getMax(), 3),\n            _sec,\n            sEthPrice,\n            divide(sec.getMax(), 3),\n            0,\n            xRate\n        );\n\n        p++;\n        /*\n\n        // 0xbd5b354220B250DF257ed5e988Fe8FE81CdB6235 MLQ\n        // 0x7e54D10fda1dBAf0aA2eB842942B3B924fcfd947 LYX\n\n        mlq 10000000000000000eth * 1000000mlq\n        lyx 10000000000000eth * 1000000000lyx\n        shk 600000000000000000000eth * 100shk\n\n        */\n        return address(coin);\n    }\n\n    function addMilquidity(uint256 _p, uint256 _mIn)\n        external\n        returns (\n            uint256,\n            uint256,\n            uint256\n        )\n    {\n        main = COIN(poolz[_p].main);\n        sec = COIN(poolz[_p].sec);\n        coin = COIN(poolz[_p].pool);\n        // uint256 weth = 10**18;\n        return (_mIn, 0, 0);\n    }\n}\n\ncontract Trees is ERC20, MathFnx {\n    uint256 maxSupply;\n    uint256 rate;\n    uint256 availSupply;\n    address author;\n    Friends private friends;\n    ERC20 usdc;\n    MLQ mlq;\n\n    constructor(address _con, address _mlq)\n        ERC20(\"Impact Tree Token\", \"IMPCTrees\")\n    {\n        maxSupply = 5000000000000 * 10**18;\n        author = msg.sender;\n        usdc = ERC20(_con);\n        mlq = MLQ(_mlq);\n    }\n\n    modifier isAdmin() {\n        require(msg.sender == author);\n        _;\n    }\n\n    function buyTreeERC20(uint256 _trees) external payable returns (bool) {\n        require(usdc.balanceOf(msg.sender) >= 100 * _trees * 94 * 10**15);\n        require(availSupply < maxSupply);\n        usdc.transferFrom(\n            msg.sender,\n            0x8cF3c63Be0BC3d1478496B6449316babD225F78a,\n            100 * _trees * 94 * 10**15\n        );\n        availSupply += msg.value * 10000;\n        _mint(msg.sender, _trees * 10**18);\n        return true;\n    }\n\n    function buyTreeMLQ(uint256 _trees) external payable returns (bool) {\n        require(\n            mlq.balanceOf(msg.sender) >= rate / (100 * _trees * 94 * 10**15)\n        );\n        require(availSupply < maxSupply);\n        mlq.transferFrom(\n            msg.sender,\n            0x8cF3c63Be0BC3d1478496B6449316babD225F78a,\n            rate / (100 * _trees * 94 * 10**15)\n        );\n        availSupply += msg.value * 10000;\n        _mint(msg.sender, _trees * 10**18);\n        return true;\n    }\n\n    function donateTrees(uint256 _amount) external isAdmin returns (bool) {\n        require(balanceOf(msg.sender) > _amount * 10**18);\n        _burn(msg.sender, _amount * 10**18);\n        return true;\n    }\n\n    function approveContract(address _contract) external returns (bool) {\n        approve(_contract, balanceOf(msg.sender));\n        return true;\n    }\n\n    function setERC20(address _usdc) external isAdmin returns (bool) {\n        usdc = ERC20(_usdc);\n        return true;\n    }\n\n    function setMLQ(address _mlq) external isAdmin returns (bool) {\n        mlq = MLQ(_mlq);\n        return true;\n    }\n\n    function approveUSDC(uint256 _amnt) external returns (bool) {\n        return usdc.approve(address(this), _amnt);\n    }\n\n    function trimTrees(uint256 _newPrice) external returns (uint256) {\n        rate = _newPrice;\n        return rate;\n    }\n\n    function withdraw(uint256 _eth, uint256 _tree)\n        external\n        isAdmin\n        returns (bool)\n    {\n        require(_tree * 10**18 <= balanceOf(address(this)));\n        require(_eth * 10**18 <= address(this).balance);\n        transfer(payable(author), _tree * 10**18);\n        payable(author).transfer(_eth * 10**18);\n        return true;\n    }\n}\n\ncontract Co2s is ERC20, MathFnx {\n    IERC20 internal trees;\n    MLQ mlq;\n    uint256 maxSupply;\n    uint256 rate;\n    uint256 availSupply;\n    address author;\n    Friends private friends;\n    struct Bond {\n        uint256 id;\n        address adr;\n        uint256 amount;\n        uint256 region;\n        uint256 stamp;\n        uint256 duration;\n        uint256 co2;\n    }\n\n    mapping(address => uint256) public myBonds;\n    mapping(address => mapping(uint256 => uint256)) public myBondedCo2;\n\n    Bond[] public bonds;\n    uint256 c;\n    uint256 b;\n    uint256 per;\n\n    constructor(\n        address _contract,\n        uint256 _percent,\n        address _mlq\n    ) ERC20(\"Carbon token\", \"CO2\") {\n        maxSupply = 25000000000000 * 10**18;\n        trees = IERC20(_contract);\n        per = _percent;\n        mlq = MLQ(_mlq);\n        author = msg.sender;\n    }\n\n    modifier isAdmin() {\n        require(msg.sender == author);\n        _;\n    }\n\n    function growTrees(\n        uint256 _trees,\n        uint256 _region,\n        uint256 _duration\n    ) external payable returns (bool) {\n        require(msg.value >= _trees * 10**14, \"not enough funds for asset\");\n        require(_trees <= trees.balanceOf(msg.sender), \"insufficient balance\");\n        require(\n            5 * _trees * 10**18 <= maxSupply - availSupply,\n            \"insufficient supply\"\n        );\n        bonds.push(\n            Bond(\n                b,\n                msg.sender,\n                _trees * 10**18,\n                _region,\n                block.timestamp,\n                _duration,\n                5 * _trees * 10**18\n            )\n        );\n        availSupply += 5 * _trees * 10**18;\n        myBondedCo2[msg.sender][myBonds[msg.sender]] = b;\n        myBonds[msg.sender]++;\n        trees.transferFrom(msg.sender, payable(address(this)), _trees * 10**18);\n        b++;\n        return true;\n    }\n\n    function growMoreTrees(uint256 _trees, uint256 _b)\n        external\n        payable\n        returns (bool)\n    {\n        require(msg.value >= _trees * 10**14);\n        require(_trees <= trees.balanceOf(msg.sender));\n        uint256 treez = _trees * 10**18;\n        require(5 * treez <= maxSupply - availSupply);\n        uint256 p = divide(100, bonds[_b].amount) * treez;\n        bonds[_b].amount += treez;\n        bonds[_b].co2 += 5 * treez;\n        bonds[_b].duration += bonds[_b].duration * p;\n        uint256 fee = divide(treez, (100 / per));\n        trees.transfer(payable(address(this)), treez - fee);\n        trees.transfer(payable(address(this)), fee);\n        return true;\n    }\n\n    function growLessTrees(uint256 _trees, uint256 _b)\n        external\n        payable\n        returns (bool)\n    {\n        require(msg.value >= _trees * 10**15);\n        uint256 treez = _trees * 10**18;\n        require(\n            treez <= bonds[myBondedCo2[msg.sender][myBonds[msg.sender]]].amount\n        );\n        bonds[_b].amount -= treez;\n        bonds[_b].co2 -= 5 * treez;\n        uint256 fee = divide(treez, (100 / per));\n        trees.transfer(payable(msg.sender), treez - fee);\n        trees.transfer(payable(address(this)), fee);\n        return true;\n    }\n\n    function calcFreeCo2(uint256 _b) internal view returns (uint256, uint256) {\n        uint256 total = bonds[_b].duration * 60 * 60 * 24 * 365;\n        uint256 passed = block.timestamp - bonds[_b].stamp;\n        uint256 pDur = divide(100 * 10**18, total) * passed;\n        uint256 freeCo2 = divide(100 * 10**18, bonds[_b].co2) * pDur;\n        return (freeCo2, passed);\n    }\n\n    function releaseFreeCo2(uint256 _m) external returns (bool) {\n        uint256 _b = myBondedCo2[msg.sender][_m]; // get b_id\n        (uint256 free, uint256 passed) = calcFreeCo2(_b); // get free co2 & passed time\n        require(1 * 10**18 <= free); // check amount\n        bonds[_b].co2 -= free; // edit bonds data subtract\n        bonds[_b].stamp = block.timestamp;\n        uint256 addTime = divide(passed, (100 / per));\n        bonds[_b].duration += addTime;\n\n        uint256 fee = divide(free, (100 / per));\n        _mint(msg.sender, (free - fee)); // mint free co2\n        _mint(address(this), fee);\n        return true;\n    }\n\n    function withdraw(\n        uint256 _eth,\n        uint256 _co2,\n        uint256 _tree\n    ) external isAdmin returns (bool) {\n        require(_co2 * 10**18 <= balanceOf(address(this)));\n        require(_tree * 10**18 <= trees.balanceOf(address(this)));\n        require(_eth * 10**18 <= address(this).balance);\n        transfer(payable(author), _co2 * 10**18);\n        trees.transfer(payable(author), _tree * 10**18);\n        payable(author).transfer(_eth * 10**18);\n        return true;\n    }\n}\n\ncontract GardenPool is ERC1155, MathFnx {\n    IERC20 internal TR3EZ;\n    IERC20 internal CO2;\n    IERC20 internal lowC;\n    IERC20 internal highC;\n    address author;\n    uint256 private per;\n    uint256 public collectedFees;\n    struct Garden {\n        uint256 id;\n        address low;\n        uint256 lowTotal;\n        address high;\n        bytes description;\n        uint256 low4high;\n        uint256 maxSize;\n        uint256 currentSize;\n    }\n    Garden[] public gardens;\n    uint256 g;\n\n    constructor(\n        address _trees,\n        address _co2,\n        uint256 _percent\n    ) ERC1155(\"IMgardens\") {\n        author = msg.sender;\n        TR3EZ = IERC20(_trees);\n        CO2 = IERC20(_co2);\n        per = _percent;\n    }\n\n    modifier isAdmin() {\n        require(msg.sender == author);\n        _;\n    }\n\n    function createGarden(\n        string memory _name,\n        address _hi,\n        address _lo\n    ) external returns (bool) {\n        _setURI(_name);\n        _mint(address(this), g, 100 * 10**6, bytes(_name)); // 1 : 10 000 // 100 000 weth : 1 000 000 000 trees = 100% // 1 weth : 10 000 trees = 0,001% of max pool size\n        gardens.push(\n            Garden(g, _hi, 1000000000, _lo, bytes(_name), 10000, 100000, 0)\n        );\n        g++;\n        return true;\n    }\n\n    function addliquidity(uint256 _id, uint256 _low)\n        external\n        payable\n        returns (bool)\n    {\n        uint256 low = _low * 10**6;\n        uint256 high = gardens[_id].low4high * low;\n        lowC = IERC20(gardens[_id].low);\n        highC = IERC20(gardens[_id].high);\n        require(lowC.balanceOf(msg.sender) >= low);\n        require(highC.balanceOf(msg.sender) >= high);\n        lowC.transferFrom(msg.sender, address(this), low);\n        highC.transferFrom(msg.sender, address(this), high);\n        uint256 gardenDrops = divide(100 * 10**6, gardens[_id].lowTotal) * low;\n        safeTransferFrom(\n            address(this),\n            msg.sender,\n            gardens[_id].id,\n            gardenDrops,\n            gardens[_id].description\n        );\n        gardens[_id].currentSize += gardenDrops;\n        return true;\n    }\n\n    function removeLiquidity(uint256 _id, uint256 _gardenDrops)\n        external\n        payable\n        returns (bool)\n    {\n        uint256 low = divide(100 * 10**6, gardens[_id].lowTotal) * _gardenDrops;\n        uint256 high = low * gardens[_id].low4high;\n        lowC = IERC20(gardens[_id].low);\n        highC = IERC20(gardens[_id].high);\n        require(lowC.balanceOf(address(this)) >= low);\n        require(highC.balanceOf(address(this)) >= high);\n        lowC.transferFrom(address(this), msg.sender, low);\n        highC.transferFrom(address(this), msg.sender, high);\n        safeTransferFrom(\n            msg.sender,\n            address(this),\n            gardens[_id].id,\n            _gardenDrops,\n            gardens[_id].description\n        );\n        gardens[_id].currentSize -= _gardenDrops;\n        return true;\n    }\n\n    function swapLowHigh(uint256 _id, uint256 _low)\n        external\n        payable\n        returns (bool)\n    {\n        uint256 low = _low * 10**6;\n        lowC = IERC20(gardens[_id].low);\n        highC = IERC20(gardens[_id].high);\n        require(lowC.balanceOf(msg.sender) >= low);\n        uint256 fee = divide(100 * 10**6, low) * (100 / per);\n        uint256 get = gardens[_id].low4high * (low - fee);\n        require(highC.balanceOf(address(this)) >= get);\n        lowC.transferFrom(msg.sender, address(this), low);\n        highC.transferFrom(address(this), msg.sender, get);\n        collectedFees += fee;\n        return true;\n    }\n\n    function swapHighLow(uint256 _id, uint256 _high)\n        external\n        payable\n        returns (bool)\n    {\n        uint256 high = _high * 10**6;\n        lowC = IERC20(gardens[_id].low);\n        highC = IERC20(gardens[_id].high);\n        require(highC.balanceOf(msg.sender) >= high);\n        uint256 fee = divide(100 * 10**6, high) * (100 / per);\n        uint256 get = divide(high - fee, gardens[_id].low4high);\n        require(highC.balanceOf(address(this)) >= get);\n        highC.transferFrom(msg.sender, address(this), high);\n        lowC.transferFrom(address(this), msg.sender, get);\n        collectedFees += fee;\n        return true;\n    }\n\n    function waterGardens(uint256 _id) external payable returns (uint256) {\n        lowC = IERC20(gardens[_id].low);\n        highC = IERC20(gardens[_id].high);\n        uint256 lBal = lowC.balanceOf(address(this));\n        uint256 hBal = highC.balanceOf(address(this));\n        uint256 rRatio = divide(hBal, lBal);\n        uint256 eRatio = divide(gardens[_id].low4high, 1);\n        uint256 difRatio = divide(100, eRatio) * rRatio;\n        return difRatio;\n    }\n}\n",
  "sourcePath": "/Users/iii6/Documents/GitHub/ourPlanet/contracts/s0x.sol",
  "compiler": {
    "name": "solc",
    "version": "0.8.15+commit.e14f2714.Emscripten.clang"
  },
  "schemaVersion": "3.4.8",
  "updatedAt": "2022-07-27T19:35:17.460Z",
  "networkType": "ethereum",
  "devdoc": {
    "kind": "dev",
    "methods": {},
    "version": 1
  },
  "userdoc": {
    "kind": "user",
    "methods": {},
    "version": 1
  }
}