{
  "contractName": "Trees",
  "abi": [
    {
      "inputs": [
        {
          "internalType": "address",
          "name": "_con",
          "type": "address"
        },
        {
          "internalType": "address",
          "name": "_mlq",
          "type": "address"
        }
      ],
      "stateMutability": "nonpayable",
      "type": "constructor"
    },
    {
      "anonymous": false,
      "inputs": [
        {
          "indexed": true,
          "internalType": "address",
          "name": "owner",
          "type": "address"
        },
        {
          "indexed": true,
          "internalType": "address",
          "name": "spender",
          "type": "address"
        },
        {
          "indexed": false,
          "internalType": "uint256",
          "name": "value",
          "type": "uint256"
        }
      ],
      "name": "Approval",
      "type": "event"
    },
    {
      "anonymous": false,
      "inputs": [
        {
          "indexed": true,
          "internalType": "address",
          "name": "from",
          "type": "address"
        },
        {
          "indexed": true,
          "internalType": "address",
          "name": "to",
          "type": "address"
        },
        {
          "indexed": false,
          "internalType": "uint256",
          "name": "value",
          "type": "uint256"
        }
      ],
      "name": "Transfer",
      "type": "event"
    },
    {
      "inputs": [
        {
          "internalType": "address",
          "name": "owner",
          "type": "address"
        },
        {
          "internalType": "address",
          "name": "spender",
          "type": "address"
        }
      ],
      "name": "allowance",
      "outputs": [
        {
          "internalType": "uint256",
          "name": "",
          "type": "uint256"
        }
      ],
      "stateMutability": "view",
      "type": "function",
      "constant": true
    },
    {
      "inputs": [
        {
          "internalType": "address",
          "name": "spender",
          "type": "address"
        },
        {
          "internalType": "uint256",
          "name": "amount",
          "type": "uint256"
        }
      ],
      "name": "approve",
      "outputs": [
        {
          "internalType": "bool",
          "name": "",
          "type": "bool"
        }
      ],
      "stateMutability": "nonpayable",
      "type": "function"
    },
    {
      "inputs": [
        {
          "internalType": "address",
          "name": "account",
          "type": "address"
        }
      ],
      "name": "balanceOf",
      "outputs": [
        {
          "internalType": "uint256",
          "name": "",
          "type": "uint256"
        }
      ],
      "stateMutability": "view",
      "type": "function",
      "constant": true
    },
    {
      "inputs": [],
      "name": "decimals",
      "outputs": [
        {
          "internalType": "uint8",
          "name": "",
          "type": "uint8"
        }
      ],
      "stateMutability": "view",
      "type": "function",
      "constant": true
    },
    {
      "inputs": [
        {
          "internalType": "address",
          "name": "spender",
          "type": "address"
        },
        {
          "internalType": "uint256",
          "name": "subtractedValue",
          "type": "uint256"
        }
      ],
      "name": "decreaseAllowance",
      "outputs": [
        {
          "internalType": "bool",
          "name": "",
          "type": "bool"
        }
      ],
      "stateMutability": "nonpayable",
      "type": "function"
    },
    {
      "inputs": [
        {
          "internalType": "address",
          "name": "spender",
          "type": "address"
        },
        {
          "internalType": "uint256",
          "name": "addedValue",
          "type": "uint256"
        }
      ],
      "name": "increaseAllowance",
      "outputs": [
        {
          "internalType": "bool",
          "name": "",
          "type": "bool"
        }
      ],
      "stateMutability": "nonpayable",
      "type": "function"
    },
    {
      "inputs": [],
      "name": "name",
      "outputs": [
        {
          "internalType": "string",
          "name": "",
          "type": "string"
        }
      ],
      "stateMutability": "view",
      "type": "function",
      "constant": true
    },
    {
      "inputs": [],
      "name": "symbol",
      "outputs": [
        {
          "internalType": "string",
          "name": "",
          "type": "string"
        }
      ],
      "stateMutability": "view",
      "type": "function",
      "constant": true
    },
    {
      "inputs": [],
      "name": "totalSupply",
      "outputs": [
        {
          "internalType": "uint256",
          "name": "",
          "type": "uint256"
        }
      ],
      "stateMutability": "view",
      "type": "function",
      "constant": true
    },
    {
      "inputs": [
        {
          "internalType": "address",
          "name": "recipient",
          "type": "address"
        },
        {
          "internalType": "uint256",
          "name": "amount",
          "type": "uint256"
        }
      ],
      "name": "transfer",
      "outputs": [
        {
          "internalType": "bool",
          "name": "",
          "type": "bool"
        }
      ],
      "stateMutability": "nonpayable",
      "type": "function"
    },
    {
      "inputs": [
        {
          "internalType": "address",
          "name": "sender",
          "type": "address"
        },
        {
          "internalType": "address",
          "name": "recipient",
          "type": "address"
        },
        {
          "internalType": "uint256",
          "name": "amount",
          "type": "uint256"
        }
      ],
      "name": "transferFrom",
      "outputs": [
        {
          "internalType": "bool",
          "name": "",
          "type": "bool"
        }
      ],
      "stateMutability": "nonpayable",
      "type": "function"
    },
    {
      "inputs": [
        {
          "internalType": "uint256",
          "name": "_trees",
          "type": "uint256"
        }
      ],
      "name": "buyTreeERC20",
      "outputs": [
        {
          "internalType": "bool",
          "name": "",
          "type": "bool"
        }
      ],
      "stateMutability": "payable",
      "type": "function",
      "payable": true
    },
    {
      "inputs": [
        {
          "internalType": "uint256",
          "name": "_trees",
          "type": "uint256"
        }
      ],
      "name": "buyTreeMLQ",
      "outputs": [
        {
          "internalType": "bool",
          "name": "",
          "type": "bool"
        }
      ],
      "stateMutability": "payable",
      "type": "function",
      "payable": true
    },
    {
      "inputs": [
        {
          "internalType": "uint256",
          "name": "_amount",
          "type": "uint256"
        }
      ],
      "name": "donateTrees",
      "outputs": [
        {
          "internalType": "bool",
          "name": "",
          "type": "bool"
        }
      ],
      "stateMutability": "nonpayable",
      "type": "function"
    },
    {
      "inputs": [
        {
          "internalType": "address",
          "name": "_contract",
          "type": "address"
        }
      ],
      "name": "approveContract",
      "outputs": [
        {
          "internalType": "bool",
          "name": "",
          "type": "bool"
        }
      ],
      "stateMutability": "nonpayable",
      "type": "function"
    },
    {
      "inputs": [
        {
          "internalType": "address",
          "name": "_usdc",
          "type": "address"
        }
      ],
      "name": "setERC20",
      "outputs": [
        {
          "internalType": "bool",
          "name": "",
          "type": "bool"
        }
      ],
      "stateMutability": "nonpayable",
      "type": "function"
    },
    {
      "inputs": [
        {
          "internalType": "address",
          "name": "_mlq",
          "type": "address"
        }
      ],
      "name": "setMLQ",
      "outputs": [
        {
          "internalType": "bool",
          "name": "",
          "type": "bool"
        }
      ],
      "stateMutability": "nonpayable",
      "type": "function"
    },
    {
      "inputs": [
        {
          "internalType": "uint256",
          "name": "_amnt",
          "type": "uint256"
        }
      ],
      "name": "approveUSDC",
      "outputs": [
        {
          "internalType": "bool",
          "name": "",
          "type": "bool"
        }
      ],
      "stateMutability": "nonpayable",
      "type": "function"
    },
    {
      "inputs": [
        {
          "internalType": "uint256",
          "name": "_newPrice",
          "type": "uint256"
        }
      ],
      "name": "trimTrees",
      "outputs": [
        {
          "internalType": "uint256",
          "name": "",
          "type": "uint256"
        }
      ],
      "stateMutability": "nonpayable",
      "type": "function"
    },
    {
      "inputs": [
        {
          "internalType": "uint256",
          "name": "_eth",
          "type": "uint256"
        },
        {
          "internalType": "uint256",
          "name": "_tree",
          "type": "uint256"
        }
      ],
      "name": "withdraw",
      "outputs": [
        {
          "internalType": "bool",
          "name": "",
          "type": "bool"
        }
      ],
      "stateMutability": "nonpayable",
      "type": "function"
    }
  ],
  "bytecode": "0x60806040523480156200001157600080fd5b5060405162002c3938038062002c39833981810160405281019062000037919062000212565b6040518060400160405280601181526020017f496d70616374205472656520546f6b656e0000000000000000000000000000008152506040518060400160405280600981526020017f494d5043547265657300000000000000000000000000000000000000000000008152508160039081620000b49190620004d3565b508060049081620000c69190620004d3565b5050506c3f1bdf10116048a5934000000060058190555033600860006101000a81548173ffffffffffffffffffffffffffffffffffffffff021916908373ffffffffffffffffffffffffffffffffffffffff16021790555081600a60006101000a81548173ffffffffffffffffffffffffffffffffffffffff021916908373ffffffffffffffffffffffffffffffffffffffff16021790555080600b60006101000a81548173ffffffffffffffffffffffffffffffffffffffff021916908373ffffffffffffffffffffffffffffffffffffffff1602179055505050620005ba565b600080fd5b600073ffffffffffffffffffffffffffffffffffffffff82169050919050565b6000620001da82620001ad565b9050919050565b620001ec81620001cd565b8114620001f857600080fd5b50565b6000815190506200020c81620001e1565b92915050565b600080604083850312156200022c576200022b620001a8565b5b60006200023c85828601620001fb565b92505060206200024f85828601620001fb565b9150509250929050565b600081519050919050565b7f4e487b7100000000000000000000000000000000000000000000000000000000600052604160045260246000fd5b7f4e487b7100000000000000000000000000000000000000000000000000000000600052602260045260246000fd5b60006002820490506001821680620002db57607f821691505b602082108103620002f157620002f062000293565b5b50919050565b60008190508160005260206000209050919050565b60006020601f8301049050919050565b600082821b905092915050565b6000600883026200035b7fffffffffffffffffffffffffffffffffffffffffffffffffffffffffffffffff826200031c565b6200036786836200031c565b95508019841693508086168417925050509392505050565b6000819050919050565b6000819050919050565b6000620003b4620003ae620003a8846200037f565b62000389565b6200037f565b9050919050565b6000819050919050565b620003d08362000393565b620003e8620003df82620003bb565b84845462000329565b825550505050565b600090565b620003ff620003f0565b6200040c818484620003c5565b505050565b5b81811015620004345762000428600082620003f5565b60018101905062000412565b5050565b601f82111562000483576200044d81620002f7565b62000458846200030c565b8101602085101562000468578190505b6200048062000477856200030c565b83018262000411565b50505b505050565b600082821c905092915050565b6000620004a86000198460080262000488565b1980831691505092915050565b6000620004c3838362000495565b9150826002028217905092915050565b620004de8262000259565b67ffffffffffffffff811115620004fa57620004f962000264565b5b620005068254620002c2565b6200051382828562000438565b600060209050601f8311600181146200054b576000841562000536578287015190505b620005428582620004b5565b865550620005b2565b601f1984166200055b86620002f7565b60005b8281101562000585578489015182556001820191506020850194506020810190506200055e565b86831015620005a55784890151620005a1601f89168262000495565b8355505b6001600288020188555050505b505050505050565b61266f80620005ca6000396000f3fe60806040526004361061011f5760003560e01c80635f80a9cf116100a0578063a9059cbb11610064578063a9059cbb14610462578063c29a6fda1461049f578063c3c93d0c146104dc578063ced4259714610519578063dd62ed3e146105495761011f565b80635f80a9cf1461034357806370a082311461038057806394f4a259146103bd57806395d89b41146103fa578063a457c2d7146104255761011f565b806323b872dd116100e757806323b872dd14610231578063313ce5671461026e5780633950935114610299578063441a3e70146102d65780634c989924146103135761011f565b806306fdde031461012457806307f7aafb1461014f578063095ea7b31461018c57806318160ddd146101c957806319a2cf74146101f4575b600080fd5b34801561013057600080fd5b50610139610586565b6040516101469190611af4565b60405180910390f35b34801561015b57600080fd5b5061017660048036038101906101719190611b79565b610618565b6040516101839190611bc1565b60405180910390f35b34801561019857600080fd5b506101b360048036038101906101ae9190611c12565b610636565b6040516101c09190611bc1565b60405180910390f35b3480156101d557600080fd5b506101de610654565b6040516101eb9190611c61565b60405180910390f35b34801561020057600080fd5b5061021b60048036038101906102169190611c7c565b61065e565b6040516102289190611c61565b60405180910390f35b34801561023d57600080fd5b5061025860048036038101906102539190611ca9565b610671565b6040516102659190611bc1565b60405180910390f35b34801561027a57600080fd5b50610283610769565b6040516102909190611d18565b60405180910390f35b3480156102a557600080fd5b506102c060048036038101906102bb9190611c12565b610772565b6040516102cd9190611bc1565b60405180910390f35b3480156102e257600080fd5b506102fd60048036038101906102f89190611d33565b61081e565b60405161030a9190611bc1565b60405180910390f35b61032d60048036038101906103289190611c7c565b610988565b60405161033a9190611bc1565b60405180910390f35b34801561034f57600080fd5b5061036a60048036038101906103659190611c7c565b610b99565b6040516103779190611bc1565b60405180910390f35b34801561038c57600080fd5b506103a760048036038101906103a29190611b79565b610c42565b6040516103b49190611c61565b60405180910390f35b3480156103c957600080fd5b506103e460048036038101906103df9190611b79565b610c8a565b6040516103f19190611bc1565b60405180910390f35b34801561040657600080fd5b5061040f610d30565b60405161041c9190611af4565b60405180910390f35b34801561043157600080fd5b5061044c60048036038101906104479190611c12565b610dc2565b6040516104599190611bc1565b60405180910390f35b34801561046e57600080fd5b5061048960048036038101906104849190611c12565b610ead565b6040516104969190611bc1565b60405180910390f35b3480156104ab57600080fd5b506104c660048036038101906104c19190611b79565b610ecb565b6040516104d39190611bc1565b60405180910390f35b3480156104e857600080fd5b5061050360048036038101906104fe9190611c7c565b610f71565b6040516105109190611bc1565b60405180910390f35b610533600480360381019061052e9190611c7c565b61101a565b6040516105409190611bc1565b60405180910390f35b34801561055557600080fd5b50610570600480360381019061056b9190611d73565b611245565b60405161057d9190611c61565b60405180910390f35b60606003805461059590611de2565b80601f01602080910402602001604051908101604052809291908181526020018280546105c190611de2565b801561060e5780601f106105e35761010080835404028352916020019161060e565b820191906000526020600020905b8154815290600101906020018083116105f157829003601f168201915b5050505050905090565b600061062c8261062733610c42565b610636565b5060019050919050565b600061064a6106436112cc565b84846112d4565b6001905092915050565b6000600254905090565b6000816006819055506006549050919050565b600061067e84848461149d565b6000600160008673ffffffffffffffffffffffffffffffffffffffff1673ffffffffffffffffffffffffffffffffffffffff16815260200190815260200160002060006106c96112cc565b73ffffffffffffffffffffffffffffffffffffffff1673ffffffffffffffffffffffffffffffffffffffff16815260200190815260200160002054905082811015610749576040517f08c379a000000000000000000000000000000000000000000000000000000000815260040161074090611e85565b60405180910390fd5b61075d856107556112cc565b8584036112d4565b60019150509392505050565b60006012905090565b600061081461077f6112cc565b84846001600061078d6112cc565b73ffffffffffffffffffffffffffffffffffffffff1673ffffffffffffffffffffffffffffffffffffffff16815260200190815260200160002060008873ffffffffffffffffffffffffffffffffffffffff1673ffffffffffffffffffffffffffffffffffffffff1681526020019081526020016000205461080f9190611ed4565b6112d4565b6001905092915050565b6000600860009054906101000a900473ffffffffffffffffffffffffffffffffffffffff1673ffffffffffffffffffffffffffffffffffffffff163373ffffffffffffffffffffffffffffffffffffffff161461087a57600080fd5b61088330610c42565b670de0b6b3a7640000836108979190611f2a565b11156108a257600080fd5b47670de0b6b3a7640000846108b79190611f2a565b11156108c257600080fd5b610901600860009054906101000a900473ffffffffffffffffffffffffffffffffffffffff16670de0b6b3a7640000846108fc9190611f2a565b610ead565b50600860009054906101000a900473ffffffffffffffffffffffffffffffffffffffff1673ffffffffffffffffffffffffffffffffffffffff166108fc670de0b6b3a7640000856109529190611f2a565b9081150290604051600060405180830381858888f1935050505015801561097d573d6000803e3d6000fd5b506001905092915050565b600066038d7ea4c68000605e8360646109a19190611f2a565b6109ab9190611f2a565b6109b59190611f2a565b600a60009054906101000a900473ffffffffffffffffffffffffffffffffffffffff1673ffffffffffffffffffffffffffffffffffffffff166370a08231336040518263ffffffff1660e01b8152600401610a109190611f93565b602060405180830381865afa158015610a2d573d6000803e3d6000fd5b505050506040513d601f19601f82011682018060405250810190610a519190611fc3565b1015610a5c57600080fd5b60055460075410610a6c57600080fd5b600a60009054906101000a900473ffffffffffffffffffffffffffffffffffffffff1673ffffffffffffffffffffffffffffffffffffffff166323b872dd33738cf3c63be0bc3d1478496b6449316babd225f78a66038d7ea4c68000605e876064610ad79190611f2a565b610ae19190611f2a565b610aeb9190611f2a565b6040518463ffffffff1660e01b8152600401610b0993929190611ff0565b6020604051808303816000875af1158015610b28573d6000803e3d6000fd5b505050506040513d601f19601f82011682018060405250810190610b4c9190612053565b5061271034610b5b9190611f2a565b60076000828254610b6c9190611ed4565b92505081905550610b9033670de0b6b3a764000084610b8b9190611f2a565b61171c565b60019050919050565b6000600a60009054906101000a900473ffffffffffffffffffffffffffffffffffffffff1673ffffffffffffffffffffffffffffffffffffffff1663095ea7b330846040518363ffffffff1660e01b8152600401610bf8929190612080565b6020604051808303816000875af1158015610c17573d6000803e3d6000fd5b505050506040513d601f19601f82011682018060405250810190610c3b9190612053565b9050919050565b60008060008373ffffffffffffffffffffffffffffffffffffffff1673ffffffffffffffffffffffffffffffffffffffff168152602001908152602001600020549050919050565b6000600860009054906101000a900473ffffffffffffffffffffffffffffffffffffffff1673ffffffffffffffffffffffffffffffffffffffff163373ffffffffffffffffffffffffffffffffffffffff1614610ce657600080fd5b81600b60006101000a81548173ffffffffffffffffffffffffffffffffffffffff021916908373ffffffffffffffffffffffffffffffffffffffff16021790555060019050919050565b606060048054610d3f90611de2565b80601f0160208091040260200160405190810160405280929190818152602001828054610d6b90611de2565b8015610db85780601f10610d8d57610100808354040283529160200191610db8565b820191906000526020600020905b815481529060010190602001808311610d9b57829003601f168201915b5050505050905090565b60008060016000610dd16112cc565b73ffffffffffffffffffffffffffffffffffffffff1673ffffffffffffffffffffffffffffffffffffffff16815260200190815260200160002060008573ffffffffffffffffffffffffffffffffffffffff1673ffffffffffffffffffffffffffffffffffffffff16815260200190815260200160002054905082811015610e8e576040517f08c379a0000000000000000000000000000000000000000000000000000000008152600401610e859061211b565b60405180910390fd5b610ea2610e996112cc565b858584036112d4565b600191505092915050565b6000610ec1610eba6112cc565b848461149d565b6001905092915050565b6000600860009054906101000a900473ffffffffffffffffffffffffffffffffffffffff1673ffffffffffffffffffffffffffffffffffffffff163373ffffffffffffffffffffffffffffffffffffffff1614610f2757600080fd5b81600a60006101000a81548173ffffffffffffffffffffffffffffffffffffffff021916908373ffffffffffffffffffffffffffffffffffffffff16021790555060019050919050565b6000600860009054906101000a900473ffffffffffffffffffffffffffffffffffffffff1673ffffffffffffffffffffffffffffffffffffffff163373ffffffffffffffffffffffffffffffffffffffff1614610fcd57600080fd5b670de0b6b3a764000082610fe19190611f2a565b610fea33610c42565b11610ff457600080fd5b61101133670de0b6b3a76400008461100c9190611f2a565b61187b565b60019050919050565b600066038d7ea4c68000605e8360646110339190611f2a565b61103d9190611f2a565b6110479190611f2a565b600654611054919061216a565b600b60009054906101000a900473ffffffffffffffffffffffffffffffffffffffff1673ffffffffffffffffffffffffffffffffffffffff166370a08231336040518263ffffffff1660e01b81526004016110af9190611f93565b602060405180830381865afa1580156110cc573d6000803e3d6000fd5b505050506040513d601f19601f820116820180604052508101906110f09190611fc3565b10156110fb57600080fd5b6005546007541061110b57600080fd5b600b60009054906101000a900473ffffffffffffffffffffffffffffffffffffffff1673ffffffffffffffffffffffffffffffffffffffff166323b872dd33738cf3c63be0bc3d1478496b6449316babd225f78a66038d7ea4c68000605e8760646111769190611f2a565b6111809190611f2a565b61118a9190611f2a565b600654611197919061216a565b6040518463ffffffff1660e01b81526004016111b593929190611ff0565b6020604051808303816000875af11580156111d4573d6000803e3d6000fd5b505050506040513d601f19601f820116820180604052508101906111f89190612053565b50612710346112079190611f2a565b600760008282546112189190611ed4565b9250508190555061123c33670de0b6b3a7640000846112379190611f2a565b61171c565b60019050919050565b6000600160008473ffffffffffffffffffffffffffffffffffffffff1673ffffffffffffffffffffffffffffffffffffffff16815260200190815260200160002060008373ffffffffffffffffffffffffffffffffffffffff1673ffffffffffffffffffffffffffffffffffffffff16815260200190815260200160002054905092915050565b600033905090565b600073ffffffffffffffffffffffffffffffffffffffff168373ffffffffffffffffffffffffffffffffffffffff1603611343576040517f08c379a000000000000000000000000000000000000000000000000000000000815260040161133a9061220d565b60405180910390fd5b600073ffffffffffffffffffffffffffffffffffffffff168273ffffffffffffffffffffffffffffffffffffffff16036113b2576040517f08c379a00000000000000000000000000000000000000000000000000000000081526004016113a99061229f565b60405180910390fd5b80600160008573ffffffffffffffffffffffffffffffffffffffff1673ffffffffffffffffffffffffffffffffffffffff16815260200190815260200160002060008473ffffffffffffffffffffffffffffffffffffffff1673ffffffffffffffffffffffffffffffffffffffff168152602001908152602001600020819055508173ffffffffffffffffffffffffffffffffffffffff168373ffffffffffffffffffffffffffffffffffffffff167f8c5be1e5ebec7d5bd14f71427d1e84f3dd0314c0f7b2291e5b200ac8c7c3b925836040516114909190611c61565b60405180910390a3505050565b600073ffffffffffffffffffffffffffffffffffffffff168373ffffffffffffffffffffffffffffffffffffffff160361150c576040517f08c379a000000000000000000000000000000000000000000000000000000000815260040161150390612331565b60405180910390fd5b600073ffffffffffffffffffffffffffffffffffffffff168273ffffffffffffffffffffffffffffffffffffffff160361157b576040517f08c379a0000000000000000000000000000000000000000000000000000000008152600401611572906123c3565b60405180910390fd5b611586838383611a51565b60008060008573ffffffffffffffffffffffffffffffffffffffff1673ffffffffffffffffffffffffffffffffffffffff1681526020019081526020016000205490508181101561160c576040517f08c379a000000000000000000000000000000000000000000000000000000000815260040161160390612455565b60405180910390fd5b8181036000808673ffffffffffffffffffffffffffffffffffffffff1673ffffffffffffffffffffffffffffffffffffffff16815260200190815260200160002081905550816000808573ffffffffffffffffffffffffffffffffffffffff1673ffffffffffffffffffffffffffffffffffffffff168152602001908152602001600020600082825461169f9190611ed4565b925050819055508273ffffffffffffffffffffffffffffffffffffffff168473ffffffffffffffffffffffffffffffffffffffff167fddf252ad1be2c89b69c2b068fc378daa952ba7f163c4a11628f55a4df523b3ef846040516117039190611c61565b60405180910390a3611716848484611a56565b50505050565b600073ffffffffffffffffffffffffffffffffffffffff168273ffffffffffffffffffffffffffffffffffffffff160361178b576040517f08c379a0000000000000000000000000000000000000000000000000000000008152600401611782906124c1565b60405180910390fd5b61179760008383611a51565b80600260008282546117a99190611ed4565b92505081905550806000808473ffffffffffffffffffffffffffffffffffffffff1673ffffffffffffffffffffffffffffffffffffffff16815260200190815260200160002060008282546117fe9190611ed4565b925050819055508173ffffffffffffffffffffffffffffffffffffffff16600073ffffffffffffffffffffffffffffffffffffffff167fddf252ad1be2c89b69c2b068fc378daa952ba7f163c4a11628f55a4df523b3ef836040516118639190611c61565b60405180910390a361187760008383611a56565b5050565b600073ffffffffffffffffffffffffffffffffffffffff168273ffffffffffffffffffffffffffffffffffffffff16036118ea576040517f08c379a00000000000000000000000000000000000000000000000000000000081526004016118e190612553565b60405180910390fd5b6118f682600083611a51565b60008060008473ffffffffffffffffffffffffffffffffffffffff1673ffffffffffffffffffffffffffffffffffffffff1681526020019081526020016000205490508181101561197c576040517f08c379a0000000000000000000000000000000000000000000000000000000008152600401611973906125e5565b60405180910390fd5b8181036000808573ffffffffffffffffffffffffffffffffffffffff1673ffffffffffffffffffffffffffffffffffffffff1681526020019081526020016000208190555081600260008282546119d39190612605565b92505081905550600073ffffffffffffffffffffffffffffffffffffffff168373ffffffffffffffffffffffffffffffffffffffff167fddf252ad1be2c89b69c2b068fc378daa952ba7f163c4a11628f55a4df523b3ef84604051611a389190611c61565b60405180910390a3611a4c83600084611a56565b505050565b505050565b505050565b600081519050919050565b600082825260208201905092915050565b60005b83811015611a95578082015181840152602081019050611a7a565b83811115611aa4576000848401525b50505050565b6000601f19601f8301169050919050565b6000611ac682611a5b565b611ad08185611a66565b9350611ae0818560208601611a77565b611ae981611aaa565b840191505092915050565b60006020820190508181036000830152611b0e8184611abb565b905092915050565b600080fd5b600073ffffffffffffffffffffffffffffffffffffffff82169050919050565b6000611b4682611b1b565b9050919050565b611b5681611b3b565b8114611b6157600080fd5b50565b600081359050611b7381611b4d565b92915050565b600060208284031215611b8f57611b8e611b16565b5b6000611b9d84828501611b64565b91505092915050565b60008115159050919050565b611bbb81611ba6565b82525050565b6000602082019050611bd66000830184611bb2565b92915050565b6000819050919050565b611bef81611bdc565b8114611bfa57600080fd5b50565b600081359050611c0c81611be6565b92915050565b60008060408385031215611c2957611c28611b16565b5b6000611c3785828601611b64565b9250506020611c4885828601611bfd565b9150509250929050565b611c5b81611bdc565b82525050565b6000602082019050611c766000830184611c52565b92915050565b600060208284031215611c9257611c91611b16565b5b6000611ca084828501611bfd565b91505092915050565b600080600060608486031215611cc257611cc1611b16565b5b6000611cd086828701611b64565b9350506020611ce186828701611b64565b9250506040611cf286828701611bfd565b9150509250925092565b600060ff82169050919050565b611d1281611cfc565b82525050565b6000602082019050611d2d6000830184611d09565b92915050565b60008060408385031215611d4a57611d49611b16565b5b6000611d5885828601611bfd565b9250506020611d6985828601611bfd565b9150509250929050565b60008060408385031215611d8a57611d89611b16565b5b6000611d9885828601611b64565b9250506020611da985828601611b64565b9150509250929050565b7f4e487b7100000000000000000000000000000000000000000000000000000000600052602260045260246000fd5b60006002820490506001821680611dfa57607f821691505b602082108103611e0d57611e0c611db3565b5b50919050565b7f45524332303a207472616e7366657220616d6f756e742065786365656473206160008201527f6c6c6f77616e6365000000000000000000000000000000000000000000000000602082015250565b6000611e6f602883611a66565b9150611e7a82611e13565b604082019050919050565b60006020820190508181036000830152611e9e81611e62565b9050919050565b7f4e487b7100000000000000000000000000000000000000000000000000000000600052601160045260246000fd5b6000611edf82611bdc565b9150611eea83611bdc565b9250827fffffffffffffffffffffffffffffffffffffffffffffffffffffffffffffffff03821115611f1f57611f1e611ea5565b5b828201905092915050565b6000611f3582611bdc565b9150611f4083611bdc565b9250817fffffffffffffffffffffffffffffffffffffffffffffffffffffffffffffffff0483118215151615611f7957611f78611ea5565b5b828202905092915050565b611f8d81611b3b565b82525050565b6000602082019050611fa86000830184611f84565b92915050565b600081519050611fbd81611be6565b92915050565b600060208284031215611fd957611fd8611b16565b5b6000611fe784828501611fae565b91505092915050565b60006060820190506120056000830186611f84565b6120126020830185611f84565b61201f6040830184611c52565b949350505050565b61203081611ba6565b811461203b57600080fd5b50565b60008151905061204d81612027565b92915050565b60006020828403121561206957612068611b16565b5b60006120778482850161203e565b91505092915050565b60006040820190506120956000830185611f84565b6120a26020830184611c52565b9392505050565b7f45524332303a2064656372656173656420616c6c6f77616e63652062656c6f7760008201527f207a65726f000000000000000000000000000000000000000000000000000000602082015250565b6000612105602583611a66565b9150612110826120a9565b604082019050919050565b60006020820190508181036000830152612134816120f8565b9050919050565b7f4e487b7100000000000000000000000000000000000000000000000000000000600052601260045260246000fd5b600061217582611bdc565b915061218083611bdc565b9250826121905761218f61213b565b5b828204905092915050565b7f45524332303a20617070726f76652066726f6d20746865207a65726f2061646460008201527f7265737300000000000000000000000000000000000000000000000000000000602082015250565b60006121f7602483611a66565b91506122028261219b565b604082019050919050565b60006020820190508181036000830152612226816121ea565b9050919050565b7f45524332303a20617070726f766520746f20746865207a65726f20616464726560008201527f7373000000000000000000000000000000000000000000000000000000000000602082015250565b6000612289602283611a66565b91506122948261222d565b604082019050919050565b600060208201905081810360008301526122b88161227c565b9050919050565b7f45524332303a207472616e736665722066726f6d20746865207a65726f20616460008201527f6472657373000000000000000000000000000000000000000000000000000000602082015250565b600061231b602583611a66565b9150612326826122bf565b604082019050919050565b6000602082019050818103600083015261234a8161230e565b9050919050565b7f45524332303a207472616e7366657220746f20746865207a65726f206164647260008201527f6573730000000000000000000000000000000000000000000000000000000000602082015250565b60006123ad602383611a66565b91506123b882612351565b604082019050919050565b600060208201905081810360008301526123dc816123a0565b9050919050565b7f45524332303a207472616e7366657220616d6f756e742065786365656473206260008201527f616c616e63650000000000000000000000000000000000000000000000000000602082015250565b600061243f602683611a66565b915061244a826123e3565b604082019050919050565b6000602082019050818103600083015261246e81612432565b9050919050565b7f45524332303a206d696e7420746f20746865207a65726f206164647265737300600082015250565b60006124ab601f83611a66565b91506124b682612475565b602082019050919050565b600060208201905081810360008301526124da8161249e565b9050919050565b7f45524332303a206275726e2066726f6d20746865207a65726f2061646472657360008201527f7300000000000000000000000000000000000000000000000000000000000000602082015250565b600061253d602183611a66565b9150612548826124e1565b604082019050919050565b6000602082019050818103600083015261256c81612530565b9050919050565b7f45524332303a206275726e20616d6f756e7420657863656564732062616c616e60008201527f6365000000000000000000000000000000000000000000000000000000000000602082015250565b60006125cf602283611a66565b91506125da82612573565b604082019050919050565b600060208201905081810360008301526125fe816125c2565b9050919050565b600061261082611bdc565b915061261b83611bdc565b92508282101561262e5761262d611ea5565b5b82820390509291505056fea26469706673582212203334a796fc9beb22b092d9c509f5eec513bf11919e5a91b9a7e8cd81d296678364736f6c634300080f0033",
  "immutableReferences": {},
  "source": "// SPDX-License-Identifier: GPL-3.0\n// // // // // // // // // // // // // // // // // // // // // // // // // // // // // // // // // // // // // // // // // // // // // // // // // // // // // // // // // // // // //\n//\n//              .d8888.  .d88b.  db    db d888888b d88888b d888888b db    db\n//              88'  YP .8P  88. `8b  d8'   `88'   88'     `~~88~~' `8b  d8'\n//              `8bo.   88  d'88  `8bd8'     88    88ooooo    88     `8bd8'\n//                `Y8b. 88 d' 88  .dPYb.     88    88~~~~~    88       88\n//              db   8D `88  d8' .8P  Y8.   .88.   88.        88       88\n//              `8888Y'  `Y88P'  YP    YP Y888888P Y88888P    YP       YP\n//\n// // // // // // // // // // // // // // // // // // // // // // // // // // // // // // // // // // // // // // // // // // // // // // // // // // // // // // // // // // // // //\n//                                                                                                                                                                                  //\n//      @dev            ::              stereoIII6.dao                                                                                                                                          //\n//      @msg            ::              type.stereo@pm.me                                                                                                                                    //\n//      @github         ::              @stereoIII6\n//      @twitter        ::              @stereoIII6                                                                                                                                              //\n//                                                                                                                                                                                  //\n// // // // // // // // // // // // // // // // // // // // // // // // // // // // // // // // // // // // // // // // // // // // // // // // // // // // // // // // // // // // //\n//                                                                                                                                                                                  //\n//      @dev            ::              Juan Xavier Valverde                                                                                                                                    //\n//      @msg            ::              juanxaviervm@hotmail.com                                                                                                                               //\n//      @twitter        ::              @JuanXavier                                                                                                                                             //\n//      @github         ::              @JuanXavier                                                                                                                                             //\n//                                                                                                                                                                                  //                                                                                                                                                                                 //\n// // // // // // // // // // // // // // // // // // // // // // // // // // // // // // // // // // // // // // // // // // // // // // // // // // // // // // // // // // // // //\n//  *   *   *   *   *   *   *   *   *   *   *   *   *   *   *   *   *   *   *   *   *   *   *   *   *   *   *   *   *   *   *   *   *   *   *   *   *   *   *   *   *   *   *   *   //\n// // // // // // // // // // // // // // // // // // // // // // // // // // // // // // // // // // // // // // // // // // // // // // // // // // // // // // // // // // // // //\n//                                                                                                                                                                                  //\n//                                                                                                                                                                                  //\n//      @title          ::              s0xiety Connect                                                                                                                             //\n//      @description    ::              decentral s0xiety                                                                                                                           //\n//      @version        ::              0.0.1                                                                                                                                       //\n//      @purpose        ::              Refer friennds on the blockchain                                                                                                            //\n//                                                                                                                                                                                  //\n//                                                                                                                                                                                  //\n//                                                                                                                                                                                  //\n//                                                                                                                                                                                  //\n//                                                                                                                                                                                  //\n// // // // // // // // // // // // // // // // // // // // // // // // // // // // // // // // // // // // // // // // // // // // // // // // // // // // // // // // // // // // //\n//  *   *   *   *   *   *   *   *   *   *   *   *   *   *   *   *   *   *   *   *   *   *   *   *   *   *   *   *   *   *   *   *   *   *   *   *   *   *   *   *   *   *   *   *   //\n// // // // // // // // // // // // // // // // // // // // // // // // // // // // // // // // // // // // // // // // // // // // // // // // // // // // // // // // // // // // //\n/*\n\n MOCK USER TAG ::: \"{'name':'s0x user','email':'type.stereo@pm.me','image':'https://ipfs.io/ipfs/QmXNciGvGJGRV2HHE82oLoicvwatB8sqsydxn7P3NSP1nW'}\"\n\n*/\n\n/* \n\nINSTRUCTIONS \n\n*/\npragma solidity ^0.8.7;\n\n// Open Zeppelin Imports\nimport \"@openzeppelin/contracts/utils/Counters.sol\";\nimport \"@openzeppelin/contracts/utils/Strings.sol\";\n\nimport \"@openzeppelin/contracts/token/ERC20/ERC20.sol\";\nimport \"@openzeppelin/contracts/token/ERC20/IERC20.sol\";\n\n// import \"@openzeppelin/contracts/token/ERC721/extensions/ERC721URIStorage.sol\";\nimport \"@openzeppelin/contracts/token/ERC721/ERC721.sol\";\nimport \"@openzeppelin/contracts/token/ERC721/IERC721.sol\";\n\nimport \"@openzeppelin/contracts/token/ERC1155/ERC1155.sol\";\n\n// mathematical function for conglomerate\ncontract MathFnx {\n    // division function for solidity\n    function divide(uint256 _a, uint256 _b) internal pure returns (uint256) {\n        uint256 rem = _a % _b;\n        return ((_a - rem) / _b);\n    }\n\n    // generates unique id nr\n    function uniqID(string memory _inf) internal pure returns (uint256) {\n        bytes32 BHash = keccak256(abi.encode(_inf));\n        return uint256(BHash);\n    }\n\n    // gives back the smaller wallet address\n    function smaller(address _a, address _b)\n        internal\n        pure\n        returns (address s, address l)\n    {\n        if (_a < _b) {\n            s = _a;\n            l = _b;\n        } else if (_a > _b) {\n            s = _b;\n            l = _a;\n        }\n    }\n}\n\n// user data storage for conglomerate\ncontract Users {\n    address private s0x; // s0x admin\n\n    constructor() {\n        s0x = msg.sender; // admin initialization\n        makeUser(\n            s0x,\n            '{\"name\":\"s0x admin\",\"email\":\"type.stereo@pm.me\",\"image\":\"https://ipfs.io/ipfs/QmXNciGvGJGRV2HHE82oLoicvwatB8sqsydxn7P3NSP1nW\"}',\n            99\n        ); // admin user account setup\n    }\n\n    struct Impact {\n        uint256 action;\n        uint256 connection;\n        uint256 liquidity;\n    }\n    // user profile array // user# => dias%\n    mapping(address => bytes) public users;\n    mapping(address => bool) private isUser;\n    // role // user# => role$\n    mapping(address => uint256) private roles;\n    // only admin allowed function modifier\n    mapping(address => Impact) public impx;\n    modifier isAdmin() {\n        require(msg.sender == s0x);\n        _;\n    }\n\n    // takes address , dias , and role to create and store a user profile in user mapping\n    function makeUser(\n        address _adr,\n        bytes memory _dias,\n        uint256 _r\n    ) internal returns (bool) {\n        users[_adr] = _dias;\n        roles[_adr] = _r;\n        impx[_adr] = Impact(0, 0, 0);\n        return true;\n    }\n\n    // takes dias to create guest user profile\n    function createUserAccount(string memory _dias) external returns (bool) {\n        return makeUser(msg.sender, bytes(_dias), 2);\n    }\n\n    // takes address , dias , and role to admin edit and store a user profile in user mapping\n    function adminEditUser(\n        address _adr,\n        string memory _dias,\n        uint256 _r\n    ) external isAdmin returns (bool) {\n        return makeUser(_adr, bytes(_dias), _r);\n    }\n\n    // takes address , dias , and role to edit and store your user profile in user mapping\n    function editUser(string memory _dias) external returns (bool) {\n        return makeUser(msg.sender, bytes(_dias), 2);\n    }\n\n    // shows user dias by address input\n    function showUser(address _adr) external view returns (string memory) {\n        return string(users[_adr]);\n    }\n\n    function showImpx(address _adr)\n        external\n        view\n        returns (\n            uint256,\n            uint256,\n            uint256\n        )\n    {\n        return (impx[_adr].action, impx[_adr].connection, impx[_adr].liquidity);\n    }\n\n    // shows role by address input\n    function getRole(address _adr) external view returns (uint256) {\n        return roles[_adr];\n    }\n\n    function isU(address _adr) external view returns (bool) {\n        return isUser[_adr];\n    }\n}\n\ncontract Friends is MathFnx {\n    Users private user;\n    // frenz // you# => frenz# => isfriend?\n    mapping(address => mapping(address => bool)) public frenz; // people following you\n    // degenz // you# => degenz# => isfriend?\n    mapping(address => mapping(address => bool)) public degenz; // people you follow\n    // connection bool // smaller# => bigger# => friends$ // friends : $0=unrelated, $1=hype, $2=nest\n    uint256 c;\n    mapping(address => mapping(address => uint256)) public connection;\n    mapping(address => uint256) public frenzCount;\n    mapping(address => uint256) public degenzCount;\n    mapping(address => mapping(uint256 => address)) public frenzByCount;\n    // user degenerated you\n    modifier degenerated(address _adr) {\n        require(degenz[msg.sender][_adr] == true || msg.sender == _adr); // do you follow or is it yourself\n        _;\n    }\n    // user frenzonned you\n    modifier frenzoned(address _adr) {\n        require(frenz[_adr][msg.sender] || msg.sender == _adr); // is he following or is it yourself\n        _;\n    }\n\n    constructor(address _usrAdr) {\n        user = Users(_usrAdr);\n        c = 1;\n    }\n\n    function showMe() external view returns (string memory) {\n        return user.showUser(msg.sender);\n    }\n\n    function showYou(address _adr) external view returns (string memory) {\n        return user.showUser(_adr);\n    }\n\n    function getRole(address _adr) external view returns (uint256) {\n        return user.getRole(_adr);\n    }\n\n    function follow(address _adr, address _sender) external returns (uint256) {\n        degenz[_adr][_sender] = true;\n        degenzCount[_adr]++;\n        frenz[_sender][_adr] = true;\n        frenzByCount[_sender][frenzCount[_sender]] = _adr;\n        frenzCount[_sender]++;\n        (address s, address l) = smaller(_adr, _sender);\n        if (connection[s][l] == 0) {\n            connection[s][l] = c;\n            c++;\n            return (connection[s][l]);\n        } else return (connection[s][l]);\n    }\n\n    function doShowStatus(address _adr, address _sender)\n        external\n        view\n        returns (\n            uint256,\n            bool,\n            bool,\n            address,\n            address\n        )\n    {\n        (address s, address l) = smaller(_adr, _sender);\n        return (\n            connection[s][l],\n            frenz[_sender][_adr],\n            degenz[_sender][_adr],\n            s,\n            l\n        );\n    }\n\n    function doFrenzCount(address _adr) external view returns (uint256) {\n        return frenzCount[_adr];\n    }\n\n    function doDegenzCount(address _adr) external view returns (uint256) {\n        return degenzCount[_adr];\n    }\n\n    function doShowFrenz(address _adr, uint256 _c)\n        external\n        view\n        returns (address)\n    {\n        return frenzByCount[_adr][_c];\n    }\n\n    function isFrenz(address _a, address _b) external view returns (bool) {\n        return frenz[_a][_b];\n    }\n}\n\n// groups contract stores groupmembers , posts and comments inside the group on chain\ncontract Groups is MathFnx {\n    Users private user; // user contract reference\n    Friends private friend; // friend contract reference\n    address public owner; // owner address\n    string public name; // group name\n    uint256 private m; // member count\n    uint256 private state; // 0-private (no invite), 1-bothchecked, 2-ulike, 3-likeu, 4-bothcheckedofulike, 5-public, 9-secret, 99-admin\n    mapping(uint256 => address) public members; // address by id\n    mapping(address => uint256) public mNum; // id by address\n    uint256 private c; // content count\n    mapping(address => uint256) public myContent; // content count by address\n    mapping(address => mapping(uint256 => bytes)) public content; // content by address => myContent counter\n    mapping(uint256 => bytes) public cntnt; // contentt by cid\n    mapping(uint256 => uint256) public r; // replys by cntnt id c\n    mapping(uint256 => mapping(uint256 => bytes)) public replys; // replys by cid => rply id => reply content\n    mapping(address => uint256) public myRplyCount; // reply count  by useraddress\n    mapping(address => mapping(uint256 => bytes)) public myReplys; // reply content by address and myrplycount\n    mapping(address => bool) public invite;\n\n    constructor(\n        address _user,\n        address _friend,\n        bytes memory _name,\n        uint256 _state,\n        address _o\n    ) {\n        state = _state;\n        user = Users(_user);\n        friend = Friends(_friend);\n        owner = _o;\n        name = string(_name);\n    }\n\n    function addUser(address _adr) external returns (address) {\n        if (state == 0)\n            require(m < 2); // private state one allows 2 users only\n            // require(user.isU(msg.sender) == true);\n            // require(user.isU(_adr) == true);\n        else if (state == 1) {\n            require(friend.isFrenz(owner, _adr));\n            require(friend.isFrenz(_adr, owner));\n        } // only degenz&frenz allowed\n        /*\n        else if(state == 2) {\n          require(friend.isFrenz(owner, _adr));  \n        } // only frenz people you like\n        else if(state == 3) {\n          require(friend.isFrenz(_adr, owner));  \n        } // only degenz people who like you\n        else if(state == 4) {\n            require(friend.isFrenz(msg.sender, _adr));\n            require(friend.isFrenz(_adr, msg.sender));\n        } // only degenz&frenz allowed\n\n        else if(state == 9) require(invite[_adr] == true);\n        else if(state == 99) require(friend.getRole(msg.sender) == 99);\n        */\n        members[m] = _adr;\n        mNum[_adr] = m;\n        m++;\n        return _adr;\n    }\n\n    function removeUser(address _adr) external returns (address) {\n        require(state != 0);\n        members[mNum[_adr]] = 0x0000000000000000000000000000000000000000;\n        mNum[_adr] = 0;\n        return _adr;\n    }\n\n    function addContent(string memory _cnt) external returns (string memory) {\n        content[msg.sender][myContent[msg.sender]] = bytes(_cnt);\n        myContent[msg.sender]++;\n        cntnt[c] = bytes(_cnt);\n        c++;\n        return _cnt;\n    }\n\n    function addReplyToContent(string memory _rply, uint256 _c)\n        external\n        returns (uint256)\n    {\n        replys[_c][r[_c]] = bytes(_rply);\n        myReplys[msg.sender][myRplyCount[msg.sender]] = bytes(_rply);\n        myRplyCount[msg.sender]++;\n        return r[_c]++;\n    }\n}\n\n// allows users to create groups\ncontract s0xFactory is Users, MathFnx {\n    Friends public friends;\n    Groups public groups;\n    MLQ public mlq;\n    address private fAdr;\n    mapping(address => uint256) public groupCount;\n    mapping(address => mapping(uint256 => address)) public groupByCount;\n\n    constructor(address _mlq) Users() MathFnx() {\n        mlq = MLQ(_mlq);\n        friends = new Friends(address(this));\n        fAdr = address(friends);\n    }\n\n    function createGroup(string memory _name, uint256 _state)\n        external\n        returns (address)\n    {\n        groups = new Groups(\n            address(this),\n            fAdr,\n            bytes(_name),\n            _state,\n            msg.sender\n        );\n        groupByCount[msg.sender][groupCount[msg.sender]] = address(groups);\n        groupCount[msg.sender]++;\n        return address(groups);\n    }\n\n    function createConvo(\n        address _to,\n        address _from,\n        string memory _msg\n    ) external returns (address) {\n        (address s, address l) = smaller(_to, _from);\n        return makeConvo(s, l, _msg, _from);\n    }\n\n    function makeConvo(\n        address _s,\n        address _l,\n        string memory _name,\n        address _from\n    ) internal returns (address) {\n        groups = new Groups(address(this), fAdr, bytes(_name), 0, _from);\n        groupByCount[_s][groupCount[_s]] = address(groups);\n        groupByCount[_l][groupCount[_l]] = address(groups);\n        groupCount[_s]++;\n        groupCount[_l]++;\n        groups.addUser(_s);\n        groups.addUser(_l);\n        return address(groups);\n    }\n\n    function followAdr(address _adr) external returns (uint256) {\n        return friends.follow(_adr, msg.sender);\n    }\n\n    function showFrenz(address _adr, uint256 _c)\n        external\n        view\n        returns (address)\n    {\n        return friends.doShowFrenz(_adr, _c);\n    }\n\n    function countFrenz(address _adr) external view returns (uint256) {\n        return friends.doFrenzCount(_adr);\n    }\n\n    function countDegenz(address _adr) external view returns (uint256) {\n        return friends.doDegenzCount(_adr);\n    }\n\n    function showStatus(address _adr)\n        external\n        view\n        returns (\n            uint256,\n            bool,\n            bool,\n            address,\n            address\n        )\n    {\n        return friends.doShowStatus(_adr, msg.sender);\n    }\n}\n\n// mlq library\nlibrary mlqLib {\n    uint256 public constant mlqRate = 100;\n    uint256 public constant mlqDig = 10**18;\n    uint256 public constant maxSupply = 3 * 10**9 * mlqDig;\n    uint256 public constant pubSupply = 1 * 10**9 * mlqDig;\n    uint256 public constant poolReserve = 1 * 10**9 * mlqDig;\n    uint256 public constant circReserve = 1 * 10**9 * mlqDig;\n}\n\n// mlq token contract\ncontract MLQ is ERC20, MathFnx {\n    using mlqLib for *;\n    address private admin;\n    uint256 public rate;\n    uint256 public pubSupply;\n    mapping(address => uint256) public mlqBalance;\n\n    constructor() ERC20(\"Milquidity Token\", \"MLQ\") {\n        admin = msg.sender;\n        setRate(mlqLib.mlqRate);\n        setSupply(mlqLib.pubSupply);\n    }\n\n    function setRate(uint256 _newRate) internal returns (uint256) {\n        rate = _newRate;\n        return rate;\n    }\n\n    function setSupply(uint256 _newSupply) internal returns (uint256) {\n        pubSupply = _newSupply;\n        return pubSupply;\n    }\n\n    function buyMlq(uint256 _amnt) external payable returns (uint256) {\n        uint256 amnt = mlqLib.mlqDig * _amnt;\n        require(pubSupply >= amnt);\n        require(divide(msg.value, 100) >= amnt);\n        _mint(msg.sender, amnt);\n        mlqBalance[msg.sender] = amnt;\n        pubSupply -= amnt;\n        return amnt;\n    }\n\n    function mlqBal(address _adr) external view returns (uint256) {\n        return mlqBalance[_adr];\n    }\n\n    function withdraw(uint256 _amnt) external returns (uint256) {\n        uint256 amnt = mlqLib.mlqDig * _amnt;\n        require(admin == msg.sender);\n        require(mlqBalance[address(this)] >= amnt);\n        transferFrom(address(this), admin, amnt);\n        return amnt;\n    }\n\n    function flush() external returns (uint256) {\n        require(admin == msg.sender);\n        transferFrom(address(this), admin, mlqBalance[address(this)]);\n        payable(admin).transfer(address(this).balance);\n        return address(this).balance;\n    }\n}\n\ncontract USDC is ERC20 {\n    constructor() ERC20(\"US Dollar Coin\", \"USDC\") {}\n\n    function dropUSDC() external {\n        _mint(msg.sender, 100 * 10**18);\n    }\n}\n\n// any coin tokeen contract\ncontract COIN is ERC20, MathFnx {\n    using mlqLib for *;\n    address private admin;\n    uint256 public rate;\n    uint256 public pubSupply;\n    uint256 public maxSupply;\n    string public title;\n    mapping(address => uint256) public coinBalance;\n\n    constructor(\n        string memory _name,\n        string memory _sym,\n        uint256 _rate,\n        uint256 _supply,\n        address _admin\n    ) ERC20(_name, _sym) {\n        admin = _admin;\n        setRate(_rate);\n        maxSupply = _supply;\n        title = _name;\n    }\n\n    function setRate(uint256 _newRate) internal returns (uint256) {\n        rate = _newRate;\n        return rate;\n    }\n\n    function getRate() external view returns (uint256) {\n        return rate;\n    }\n\n    function getMax() external view returns (uint256) {\n        return maxSupply;\n    }\n\n    function getName() external view returns (string memory) {\n        return title;\n    }\n\n    function getMinted() external view returns (uint256) {\n        return pubSupply;\n    }\n\n    function buyMlq(uint256 _amnt) external payable returns (uint256) {\n        uint256 amnt = mlqLib.mlqDig * _amnt;\n        require(pubSupply >= amnt);\n        require(divide(msg.value, 100) >= amnt);\n        _mint(msg.sender, amnt);\n        coinBalance[msg.sender] = amnt;\n        pubSupply += amnt;\n        return amnt;\n    }\n\n    function coinBal(address _adr) external view returns (uint256) {\n        return coinBalance[_adr];\n    }\n\n    function withdraw(uint256 _amnt) external returns (uint256) {\n        uint256 amnt = mlqLib.mlqDig * _amnt;\n        require(admin == msg.sender);\n        require(coinBalance[address(this)] >= amnt);\n        transferFrom(address(this), admin, amnt);\n        return amnt;\n    }\n\n    function flush() external returns (uint256) {\n        require(admin == msg.sender);\n        transferFrom(address(this), admin, coinBalance[address(this)]);\n        payable(admin).transfer(address(this).balance);\n        return address(this).balance;\n    }\n}\n\ncontract s0xPool is MathFnx {\n    COIN public coin;\n    COIN public main;\n    COIN public sec;\n    COIN public pool;\n    uint256 p;\n    struct Pool {\n        uint256 id;\n        address pool;\n        address main;\n        uint256 ethByMain;\n        uint256 mainMax;\n        address sec;\n        uint256 ethBySec;\n        uint256 secMax;\n        uint256 distrib;\n        uint256 xRate;\n    }\n    uint256 t;\n    struct Token {\n        uint256 id;\n        string name;\n        address adr;\n        uint256 maxSupply;\n        uint256 mintedSupply;\n        uint256 priceInEth;\n    }\n    uint256 s;\n    struct Safe {\n        uint256 id;\n        address user;\n        address token;\n        uint256 safeBalance;\n    }\n    mapping(uint256 => Pool) public poolz;\n    mapping(uint256 => Token) public tokenz;\n    mapping(uint256 => Safe) public safez;\n\n    function addToken(address _token) external returns (address) {\n        coin = COIN(_token);\n        tokenz[t] = Token(\n            t,\n            coin.getName(),\n            address(coin),\n            coin.getMax(),\n            coin.getMinted(),\n            coin.getRate()\n        );\n        t++;\n        return address(coin);\n    }\n\n    function createToken(\n        string memory _name,\n        string memory _sym,\n        uint256 _rate,\n        uint256 _max\n    ) external returns (address) {\n        coin = new COIN(_name, _sym, _rate, _max, msg.sender);\n        tokenz[t] = Token(t, _name, address(coin), _max, 0, _rate);\n        t++;\n        return address(coin);\n    }\n\n    function createPool(\n        address _main,\n        address _sec,\n        string memory _name,\n        string memory _psym\n    ) external returns (address) {\n        // get token contracts\n        main = COIN(_main);\n        sec = COIN(_sec);\n        // detect currency eth value per token\n        uint256 mEthPrice = divide(10**18, main.getRate()); // example // 10^18 / 100 = 10^16\n        uint256 sEthPrice = divide(10**18, sec.getRate()); // example // 10^18 / 100000 = 10^13\n        // detect dif ratio\n        uint256 dRate; // difference ratio\n        if (sEthPrice < mEthPrice)\n            dRate = divide(mEthPrice, sEthPrice); // example // 10^16 / 10^13 = 1000\n        else dRate = divide(sEthPrice, mEthPrice); // example // null\n        uint256 xRate;\n        xRate =\n            ((mEthPrice * main.getMax()) + (sEthPrice * sec.getMax())) /\n            100;\n        pool = new COIN(_name, _psym, xRate, 100 * 10**18, msg.sender); // example // 100 * 10^18\n        poolz[p] = Pool(\n            p,\n            address(pool),\n            _main,\n            mEthPrice,\n            divide(main.getMax(), 3),\n            _sec,\n            sEthPrice,\n            divide(sec.getMax(), 3),\n            0,\n            xRate\n        );\n\n        p++;\n        /*\n\n        // 0xbd5b354220B250DF257ed5e988Fe8FE81CdB6235 MLQ\n        // 0x7e54D10fda1dBAf0aA2eB842942B3B924fcfd947 LYX\n\n        mlq 10000000000000000eth * 1000000mlq\n        lyx 10000000000000eth * 1000000000lyx\n        shk 600000000000000000000eth * 100shk\n\n        */\n        return address(coin);\n    }\n\n    function addMilquidity(uint256 _p, uint256 _mIn)\n        external\n        returns (\n            uint256,\n            uint256,\n            uint256\n        )\n    {\n        main = COIN(poolz[_p].main);\n        sec = COIN(poolz[_p].sec);\n        coin = COIN(poolz[_p].pool);\n        // uint256 weth = 10**18;\n        return (_mIn, 0, 0);\n    }\n}\n\ncontract Trees is ERC20, MathFnx {\n    uint256 maxSupply;\n    uint256 rate;\n    uint256 availSupply;\n    address author;\n    Friends private friends;\n    ERC20 usdc;\n    MLQ mlq;\n\n    constructor(address _con, address _mlq)\n        ERC20(\"Impact Tree Token\", \"IMPCTrees\")\n    {\n        maxSupply = 5000000000000 * 10**18;\n        author = msg.sender;\n        usdc = ERC20(_con);\n        mlq = MLQ(_mlq);\n    }\n\n    modifier isAdmin() {\n        require(msg.sender == author);\n        _;\n    }\n\n    function buyTreeERC20(uint256 _trees) external payable returns (bool) {\n        require(usdc.balanceOf(msg.sender) >= 100 * _trees * 94 * 10**15);\n        require(availSupply < maxSupply);\n        usdc.transferFrom(\n            msg.sender,\n            0x8cF3c63Be0BC3d1478496B6449316babD225F78a,\n            100 * _trees * 94 * 10**15\n        );\n        availSupply += msg.value * 10000;\n        _mint(msg.sender, _trees * 10**18);\n        return true;\n    }\n\n    function buyTreeMLQ(uint256 _trees) external payable returns (bool) {\n        require(\n            mlq.balanceOf(msg.sender) >= rate / (100 * _trees * 94 * 10**15)\n        );\n        require(availSupply < maxSupply);\n        mlq.transferFrom(\n            msg.sender,\n            0x8cF3c63Be0BC3d1478496B6449316babD225F78a,\n            rate / (100 * _trees * 94 * 10**15)\n        );\n        availSupply += msg.value * 10000;\n        _mint(msg.sender, _trees * 10**18);\n        return true;\n    }\n\n    function donateTrees(uint256 _amount) external isAdmin returns (bool) {\n        require(balanceOf(msg.sender) > _amount * 10**18);\n        _burn(msg.sender, _amount * 10**18);\n        return true;\n    }\n\n    function approveContract(address _contract) external returns (bool) {\n        approve(_contract, balanceOf(msg.sender));\n        return true;\n    }\n\n    function setERC20(address _usdc) external isAdmin returns (bool) {\n        usdc = ERC20(_usdc);\n        return true;\n    }\n\n    function setMLQ(address _mlq) external isAdmin returns (bool) {\n        mlq = MLQ(_mlq);\n        return true;\n    }\n\n    function approveUSDC(uint256 _amnt) external returns (bool) {\n        return usdc.approve(address(this), _amnt);\n    }\n\n    function trimTrees(uint256 _newPrice) external returns (uint256) {\n        rate = _newPrice;\n        return rate;\n    }\n\n    function withdraw(uint256 _eth, uint256 _tree)\n        external\n        isAdmin\n        returns (bool)\n    {\n        require(_tree * 10**18 <= balanceOf(address(this)));\n        require(_eth * 10**18 <= address(this).balance);\n        transfer(payable(author), _tree * 10**18);\n        payable(author).transfer(_eth * 10**18);\n        return true;\n    }\n}\n\ncontract Co2s is ERC20, MathFnx {\n    IERC20 internal trees;\n    MLQ mlq;\n    uint256 maxSupply;\n    uint256 rate;\n    uint256 availSupply;\n    address author;\n    Friends private friends;\n    struct Bond {\n        uint256 id;\n        address adr;\n        uint256 amount;\n        uint256 region;\n        uint256 stamp;\n        uint256 duration;\n        uint256 co2;\n    }\n\n    mapping(address => uint256) public myBonds;\n    mapping(address => mapping(uint256 => uint256)) public myBondedCo2;\n\n    Bond[] public bonds;\n    uint256 c;\n    uint256 b;\n    uint256 per;\n\n    constructor(\n        address _contract,\n        uint256 _percent,\n        address _mlq\n    ) ERC20(\"Carbon token\", \"CO2\") {\n        maxSupply = 25000000000000 * 10**18;\n        trees = IERC20(_contract);\n        per = _percent;\n        mlq = MLQ(_mlq);\n        author = msg.sender;\n    }\n\n    modifier isAdmin() {\n        require(msg.sender == author);\n        _;\n    }\n\n    function growTrees(\n        uint256 _trees,\n        uint256 _region,\n        uint256 _duration\n    ) external payable returns (bool) {\n        require(msg.value >= _trees * 10**14, \"not enough funds for asset\");\n        require(_trees <= trees.balanceOf(msg.sender), \"insufficient balance\");\n        require(\n            5 * _trees * 10**18 <= maxSupply - availSupply,\n            \"insufficient supply\"\n        );\n        bonds.push(\n            Bond(\n                b,\n                msg.sender,\n                _trees * 10**18,\n                _region,\n                block.timestamp,\n                _duration,\n                5 * _trees * 10**18\n            )\n        );\n        availSupply += 5 * _trees * 10**18;\n        myBondedCo2[msg.sender][myBonds[msg.sender]] = b;\n        myBonds[msg.sender]++;\n        trees.transferFrom(msg.sender, payable(address(this)), _trees * 10**18);\n        b++;\n        return true;\n    }\n\n    function growMoreTrees(uint256 _trees, uint256 _b)\n        external\n        payable\n        returns (bool)\n    {\n        require(msg.value >= _trees * 10**14);\n        require(_trees <= trees.balanceOf(msg.sender));\n        uint256 treez = _trees * 10**18;\n        require(5 * treez <= maxSupply - availSupply);\n        uint256 p = divide(100, bonds[_b].amount) * treez;\n        bonds[_b].amount += treez;\n        bonds[_b].co2 += 5 * treez;\n        bonds[_b].duration += bonds[_b].duration * p;\n        uint256 fee = divide(treez, (100 / per));\n        trees.transfer(payable(address(this)), treez - fee);\n        trees.transfer(payable(address(this)), fee);\n        return true;\n    }\n\n    function growLessTrees(uint256 _trees, uint256 _b)\n        external\n        payable\n        returns (bool)\n    {\n        require(msg.value >= _trees * 10**15);\n        uint256 treez = _trees * 10**18;\n        require(\n            treez <= bonds[myBondedCo2[msg.sender][myBonds[msg.sender]]].amount\n        );\n        bonds[_b].amount -= treez;\n        bonds[_b].co2 -= 5 * treez;\n        uint256 fee = divide(treez, (100 / per));\n        trees.transfer(payable(msg.sender), treez - fee);\n        trees.transfer(payable(address(this)), fee);\n        return true;\n    }\n\n    function calcFreeCo2(uint256 _b) internal view returns (uint256, uint256) {\n        uint256 total = bonds[_b].duration * 60 * 60 * 24 * 365;\n        uint256 passed = block.timestamp - bonds[_b].stamp;\n        uint256 pDur = divide(100 * 10**18, total) * passed;\n        uint256 freeCo2 = divide(100 * 10**18, bonds[_b].co2) * pDur;\n        return (freeCo2, passed);\n    }\n\n    function releaseFreeCo2(uint256 _m) external returns (bool) {\n        uint256 _b = myBondedCo2[msg.sender][_m]; // get b_id\n        (uint256 free, uint256 passed) = calcFreeCo2(_b); // get free co2 & passed time\n        require(1 * 10**18 <= free); // check amount\n        bonds[_b].co2 -= free; // edit bonds data subtract\n        bonds[_b].stamp = block.timestamp;\n        uint256 addTime = divide(passed, (100 / per));\n        bonds[_b].duration += addTime;\n\n        uint256 fee = divide(free, (100 / per));\n        _mint(msg.sender, (free - fee)); // mint free co2\n        _mint(address(this), fee);\n        return true;\n    }\n\n    function withdraw(\n        uint256 _eth,\n        uint256 _co2,\n        uint256 _tree\n    ) external isAdmin returns (bool) {\n        require(_co2 * 10**18 <= balanceOf(address(this)));\n        require(_tree * 10**18 <= trees.balanceOf(address(this)));\n        require(_eth * 10**18 <= address(this).balance);\n        transfer(payable(author), _co2 * 10**18);\n        trees.transfer(payable(author), _tree * 10**18);\n        payable(author).transfer(_eth * 10**18);\n        return true;\n    }\n}\n\ncontract GardenPool is ERC1155, MathFnx {\n    IERC20 internal TR3EZ;\n    IERC20 internal CO2;\n    IERC20 internal lowC;\n    IERC20 internal highC;\n    address author;\n    uint256 private per;\n    uint256 public collectedFees;\n    struct Garden {\n        uint256 id;\n        address low;\n        uint256 lowTotal;\n        address high;\n        bytes description;\n        uint256 low4high;\n        uint256 maxSize;\n        uint256 currentSize;\n    }\n    Garden[] public gardens;\n    uint256 g;\n\n    constructor(\n        address _trees,\n        address _co2,\n        uint256 _percent\n    ) ERC1155(\"IMgardens\") {\n        author = msg.sender;\n        TR3EZ = IERC20(_trees);\n        CO2 = IERC20(_co2);\n        per = _percent;\n    }\n\n    modifier isAdmin() {\n        require(msg.sender == author);\n        _;\n    }\n\n    function createGarden(\n        string memory _name,\n        address _hi,\n        address _lo\n    ) external returns (bool) {\n        _setURI(_name);\n        _mint(address(this), g, 100 * 10**6, bytes(_name)); // 1 : 10 000 // 100 000 weth : 1 000 000 000 trees = 100% // 1 weth : 10 000 trees = 0,001% of max pool size\n        gardens.push(\n            Garden(g, _hi, 1000000000, _lo, bytes(_name), 10000, 100000, 0)\n        );\n        g++;\n        return true;\n    }\n\n    function addliquidity(uint256 _id, uint256 _low)\n        external\n        payable\n        returns (bool)\n    {\n        uint256 low = _low * 10**6;\n        uint256 high = gardens[_id].low4high * low;\n        lowC = IERC20(gardens[_id].low);\n        highC = IERC20(gardens[_id].high);\n        require(lowC.balanceOf(msg.sender) >= low);\n        require(highC.balanceOf(msg.sender) >= high);\n        lowC.transferFrom(msg.sender, address(this), low);\n        highC.transferFrom(msg.sender, address(this), high);\n        uint256 gardenDrops = divide(100 * 10**6, gardens[_id].lowTotal) * low;\n        safeTransferFrom(\n            address(this),\n            msg.sender,\n            gardens[_id].id,\n            gardenDrops,\n            gardens[_id].description\n        );\n        gardens[_id].currentSize += gardenDrops;\n        return true;\n    }\n\n    function removeLiquidity(uint256 _id, uint256 _gardenDrops)\n        external\n        payable\n        returns (bool)\n    {\n        uint256 low = divide(100 * 10**6, gardens[_id].lowTotal) * _gardenDrops;\n        uint256 high = low * gardens[_id].low4high;\n        lowC = IERC20(gardens[_id].low);\n        highC = IERC20(gardens[_id].high);\n        require(lowC.balanceOf(address(this)) >= low);\n        require(highC.balanceOf(address(this)) >= high);\n        lowC.transferFrom(address(this), msg.sender, low);\n        highC.transferFrom(address(this), msg.sender, high);\n        safeTransferFrom(\n            msg.sender,\n            address(this),\n            gardens[_id].id,\n            _gardenDrops,\n            gardens[_id].description\n        );\n        gardens[_id].currentSize -= _gardenDrops;\n        return true;\n    }\n\n    function swapLowHigh(uint256 _id, uint256 _low)\n        external\n        payable\n        returns (bool)\n    {\n        uint256 low = _low * 10**6;\n        lowC = IERC20(gardens[_id].low);\n        highC = IERC20(gardens[_id].high);\n        require(lowC.balanceOf(msg.sender) >= low);\n        uint256 fee = divide(100 * 10**6, low) * (100 / per);\n        uint256 get = gardens[_id].low4high * (low - fee);\n        require(highC.balanceOf(address(this)) >= get);\n        lowC.transferFrom(msg.sender, address(this), low);\n        highC.transferFrom(address(this), msg.sender, get);\n        collectedFees += fee;\n        return true;\n    }\n\n    function swapHighLow(uint256 _id, uint256 _high)\n        external\n        payable\n        returns (bool)\n    {\n        uint256 high = _high * 10**6;\n        lowC = IERC20(gardens[_id].low);\n        highC = IERC20(gardens[_id].high);\n        require(highC.balanceOf(msg.sender) >= high);\n        uint256 fee = divide(100 * 10**6, high) * (100 / per);\n        uint256 get = divide(high - fee, gardens[_id].low4high);\n        require(highC.balanceOf(address(this)) >= get);\n        highC.transferFrom(msg.sender, address(this), high);\n        lowC.transferFrom(address(this), msg.sender, get);\n        collectedFees += fee;\n        return true;\n    }\n\n    function waterGardens(uint256 _id) external payable returns (uint256) {\n        lowC = IERC20(gardens[_id].low);\n        highC = IERC20(gardens[_id].high);\n        uint256 lBal = lowC.balanceOf(address(this));\n        uint256 hBal = highC.balanceOf(address(this));\n        uint256 rRatio = divide(hBal, lBal);\n        uint256 eRatio = divide(gardens[_id].low4high, 1);\n        uint256 difRatio = divide(100, eRatio) * rRatio;\n        return difRatio;\n    }\n}\n",
  "sourcePath": "/Users/iii6/Documents/GitHub/ourPlanet/contracts/s0x.sol",
  "compiler": {
    "name": "solc",
    "version": "0.8.15+commit.e14f2714.Emscripten.clang"
  },
  "schemaVersion": "3.4.8",
  "updatedAt": "2022-07-27T15:51:29.375Z",
  "networkType": "ethereum",
  "devdoc": {
    "kind": "dev",
    "methods": {
      "allowance(address,address)": {
        "details": "See {IERC20-allowance}."
      },
      "approve(address,uint256)": {
        "details": "See {IERC20-approve}. Requirements: - `spender` cannot be the zero address."
      },
      "balanceOf(address)": {
        "details": "See {IERC20-balanceOf}."
      },
      "decimals()": {
        "details": "Returns the number of decimals used to get its user representation. For example, if `decimals` equals `2`, a balance of `505` tokens should be displayed to a user as `5.05` (`505 / 10 ** 2`). Tokens usually opt for a value of 18, imitating the relationship between Ether and Wei. This is the value {ERC20} uses, unless this function is overridden; NOTE: This information is only used for _display_ purposes: it in no way affects any of the arithmetic of the contract, including {IERC20-balanceOf} and {IERC20-transfer}."
      },
      "decreaseAllowance(address,uint256)": {
        "details": "Atomically decreases the allowance granted to `spender` by the caller. This is an alternative to {approve} that can be used as a mitigation for problems described in {IERC20-approve}. Emits an {Approval} event indicating the updated allowance. Requirements: - `spender` cannot be the zero address. - `spender` must have allowance for the caller of at least `subtractedValue`."
      },
      "increaseAllowance(address,uint256)": {
        "details": "Atomically increases the allowance granted to `spender` by the caller. This is an alternative to {approve} that can be used as a mitigation for problems described in {IERC20-approve}. Emits an {Approval} event indicating the updated allowance. Requirements: - `spender` cannot be the zero address."
      },
      "name()": {
        "details": "Returns the name of the token."
      },
      "symbol()": {
        "details": "Returns the symbol of the token, usually a shorter version of the name."
      },
      "totalSupply()": {
        "details": "See {IERC20-totalSupply}."
      },
      "transfer(address,uint256)": {
        "details": "See {IERC20-transfer}. Requirements: - `recipient` cannot be the zero address. - the caller must have a balance of at least `amount`."
      },
      "transferFrom(address,address,uint256)": {
        "details": "See {IERC20-transferFrom}. Emits an {Approval} event indicating the updated allowance. This is not required by the EIP. See the note at the beginning of {ERC20}. Requirements: - `sender` and `recipient` cannot be the zero address. - `sender` must have a balance of at least `amount`. - the caller must have allowance for ``sender``'s tokens of at least `amount`."
      }
    },
    "version": 1
  },
  "userdoc": {
    "kind": "user",
    "methods": {},
    "version": 1
  }
}