{
  "contractName": "Trees",
  "abi": [
    {
      "inputs": [
        {
          "internalType": "address",
          "name": "_mlq",
          "type": "address"
        }
      ],
      "stateMutability": "nonpayable",
      "type": "constructor"
    },
    {
      "anonymous": false,
      "inputs": [
        {
          "indexed": true,
          "internalType": "address",
          "name": "owner",
          "type": "address"
        },
        {
          "indexed": true,
          "internalType": "address",
          "name": "spender",
          "type": "address"
        },
        {
          "indexed": false,
          "internalType": "uint256",
          "name": "value",
          "type": "uint256"
        }
      ],
      "name": "Approval",
      "type": "event"
    },
    {
      "anonymous": false,
      "inputs": [
        {
          "indexed": true,
          "internalType": "uint256",
          "name": "id",
          "type": "uint256"
        },
        {
          "indexed": false,
          "internalType": "address",
          "name": "sender",
          "type": "address"
        },
        {
          "indexed": false,
          "internalType": "address",
          "name": "home",
          "type": "address"
        },
        {
          "indexed": false,
          "internalType": "uint256",
          "name": "num",
          "type": "uint256"
        },
        {
          "indexed": false,
          "internalType": "bytes",
          "name": "message",
          "type": "bytes"
        },
        {
          "indexed": false,
          "internalType": "uint256",
          "name": "stamp",
          "type": "uint256"
        }
      ],
      "name": "Log",
      "type": "event"
    },
    {
      "anonymous": false,
      "inputs": [
        {
          "indexed": true,
          "internalType": "address",
          "name": "from",
          "type": "address"
        },
        {
          "indexed": true,
          "internalType": "address",
          "name": "to",
          "type": "address"
        },
        {
          "indexed": false,
          "internalType": "uint256",
          "name": "value",
          "type": "uint256"
        }
      ],
      "name": "Transfer",
      "type": "event"
    },
    {
      "anonymous": false,
      "inputs": [
        {
          "indexed": true,
          "internalType": "uint256",
          "name": "id",
          "type": "uint256"
        },
        {
          "indexed": false,
          "internalType": "address",
          "name": "sender",
          "type": "address"
        },
        {
          "indexed": false,
          "internalType": "address",
          "name": "home",
          "type": "address"
        },
        {
          "indexed": false,
          "internalType": "uint256",
          "name": "num",
          "type": "uint256"
        },
        {
          "indexed": false,
          "internalType": "bytes",
          "name": "message",
          "type": "bytes"
        },
        {
          "indexed": false,
          "internalType": "uint256",
          "name": "stamp",
          "type": "uint256"
        }
      ],
      "name": "Wait",
      "type": "event"
    },
    {
      "stateMutability": "nonpayable",
      "type": "fallback"
    },
    {
      "inputs": [
        {
          "internalType": "address",
          "name": "owner",
          "type": "address"
        },
        {
          "internalType": "address",
          "name": "spender",
          "type": "address"
        }
      ],
      "name": "allowance",
      "outputs": [
        {
          "internalType": "uint256",
          "name": "",
          "type": "uint256"
        }
      ],
      "stateMutability": "view",
      "type": "function"
    },
    {
      "inputs": [
        {
          "internalType": "address",
          "name": "spender",
          "type": "address"
        },
        {
          "internalType": "uint256",
          "name": "amount",
          "type": "uint256"
        }
      ],
      "name": "approve",
      "outputs": [
        {
          "internalType": "bool",
          "name": "",
          "type": "bool"
        }
      ],
      "stateMutability": "nonpayable",
      "type": "function"
    },
    {
      "inputs": [
        {
          "internalType": "address",
          "name": "_contract",
          "type": "address"
        },
        {
          "internalType": "uint256",
          "name": "_amnt",
          "type": "uint256"
        }
      ],
      "name": "approveTokenAmount",
      "outputs": [
        {
          "internalType": "bool",
          "name": "",
          "type": "bool"
        }
      ],
      "stateMutability": "nonpayable",
      "type": "function"
    },
    {
      "inputs": [
        {
          "internalType": "address",
          "name": "_contract",
          "type": "address"
        }
      ],
      "name": "approveTokens",
      "outputs": [
        {
          "internalType": "bool",
          "name": "",
          "type": "bool"
        }
      ],
      "stateMutability": "nonpayable",
      "type": "function"
    },
    {
      "inputs": [],
      "name": "author",
      "outputs": [
        {
          "internalType": "address",
          "name": "",
          "type": "address"
        }
      ],
      "stateMutability": "view",
      "type": "function"
    },
    {
      "inputs": [],
      "name": "availSupply",
      "outputs": [
        {
          "internalType": "uint256",
          "name": "",
          "type": "uint256"
        }
      ],
      "stateMutability": "view",
      "type": "function"
    },
    {
      "inputs": [
        {
          "internalType": "address",
          "name": "account",
          "type": "address"
        }
      ],
      "name": "balanceOf",
      "outputs": [
        {
          "internalType": "uint256",
          "name": "",
          "type": "uint256"
        }
      ],
      "stateMutability": "view",
      "type": "function"
    },
    {
      "inputs": [
        {
          "internalType": "address",
          "name": "_to",
          "type": "address"
        },
        {
          "internalType": "uint256",
          "name": "_role",
          "type": "uint256"
        }
      ],
      "name": "changeRole",
      "outputs": [
        {
          "internalType": "bool",
          "name": "",
          "type": "bool"
        }
      ],
      "stateMutability": "nonpayable",
      "type": "function"
    },
    {
      "inputs": [],
      "name": "decimals",
      "outputs": [
        {
          "internalType": "uint8",
          "name": "",
          "type": "uint8"
        }
      ],
      "stateMutability": "view",
      "type": "function"
    },
    {
      "inputs": [
        {
          "internalType": "address",
          "name": "spender",
          "type": "address"
        },
        {
          "internalType": "uint256",
          "name": "subtractedValue",
          "type": "uint256"
        }
      ],
      "name": "decreaseAllowance",
      "outputs": [
        {
          "internalType": "bool",
          "name": "",
          "type": "bool"
        }
      ],
      "stateMutability": "nonpayable",
      "type": "function"
    },
    {
      "inputs": [
        {
          "internalType": "address",
          "name": "spender",
          "type": "address"
        },
        {
          "internalType": "uint256",
          "name": "addedValue",
          "type": "uint256"
        }
      ],
      "name": "increaseAllowance",
      "outputs": [
        {
          "internalType": "bool",
          "name": "",
          "type": "bool"
        }
      ],
      "stateMutability": "nonpayable",
      "type": "function"
    },
    {
      "inputs": [
        {
          "internalType": "address",
          "name": "",
          "type": "address"
        }
      ],
      "name": "isUser",
      "outputs": [
        {
          "internalType": "bool",
          "name": "",
          "type": "bool"
        }
      ],
      "stateMutability": "view",
      "type": "function"
    },
    {
      "inputs": [
        {
          "internalType": "string",
          "name": "_data",
          "type": "string"
        }
      ],
      "name": "makeU",
      "outputs": [
        {
          "internalType": "bool",
          "name": "",
          "type": "bool"
        }
      ],
      "stateMutability": "nonpayable",
      "type": "function"
    },
    {
      "inputs": [],
      "name": "maxSupply",
      "outputs": [
        {
          "internalType": "uint256",
          "name": "",
          "type": "uint256"
        }
      ],
      "stateMutability": "view",
      "type": "function"
    },
    {
      "inputs": [],
      "name": "name",
      "outputs": [
        {
          "internalType": "string",
          "name": "",
          "type": "string"
        }
      ],
      "stateMutability": "view",
      "type": "function"
    },
    {
      "inputs": [
        {
          "internalType": "address",
          "name": "",
          "type": "address"
        }
      ],
      "name": "role",
      "outputs": [
        {
          "internalType": "uint256",
          "name": "",
          "type": "uint256"
        }
      ],
      "stateMutability": "view",
      "type": "function"
    },
    {
      "inputs": [],
      "name": "showU",
      "outputs": [
        {
          "internalType": "string",
          "name": "",
          "type": "string"
        },
        {
          "internalType": "uint256",
          "name": "",
          "type": "uint256"
        }
      ],
      "stateMutability": "view",
      "type": "function"
    },
    {
      "inputs": [],
      "name": "symbol",
      "outputs": [
        {
          "internalType": "string",
          "name": "",
          "type": "string"
        }
      ],
      "stateMutability": "view",
      "type": "function"
    },
    {
      "inputs": [],
      "name": "totalSupply",
      "outputs": [
        {
          "internalType": "uint256",
          "name": "",
          "type": "uint256"
        }
      ],
      "stateMutability": "view",
      "type": "function"
    },
    {
      "inputs": [
        {
          "internalType": "address",
          "name": "recipient",
          "type": "address"
        },
        {
          "internalType": "uint256",
          "name": "amount",
          "type": "uint256"
        }
      ],
      "name": "transfer",
      "outputs": [
        {
          "internalType": "bool",
          "name": "",
          "type": "bool"
        }
      ],
      "stateMutability": "nonpayable",
      "type": "function"
    },
    {
      "inputs": [
        {
          "internalType": "address",
          "name": "sender",
          "type": "address"
        },
        {
          "internalType": "address",
          "name": "recipient",
          "type": "address"
        },
        {
          "internalType": "uint256",
          "name": "amount",
          "type": "uint256"
        }
      ],
      "name": "transferFrom",
      "outputs": [
        {
          "internalType": "bool",
          "name": "",
          "type": "bool"
        }
      ],
      "stateMutability": "nonpayable",
      "type": "function"
    },
    {
      "inputs": [
        {
          "internalType": "address",
          "name": "",
          "type": "address"
        }
      ],
      "name": "uData",
      "outputs": [
        {
          "internalType": "bytes",
          "name": "",
          "type": "bytes"
        }
      ],
      "stateMutability": "view",
      "type": "function"
    },
    {
      "inputs": [
        {
          "internalType": "address",
          "name": "_contract",
          "type": "address"
        }
      ],
      "name": "withdrawToken",
      "outputs": [
        {
          "internalType": "bool",
          "name": "",
          "type": "bool"
        }
      ],
      "stateMutability": "nonpayable",
      "type": "function"
    },
    {
      "inputs": [
        {
          "internalType": "uint256",
          "name": "_amount",
          "type": "uint256"
        }
      ],
      "name": "plantTree",
      "outputs": [
        {
          "internalType": "bool",
          "name": "",
          "type": "bool"
        }
      ],
      "stateMutability": "payable",
      "type": "function"
    },
    {
      "inputs": [
        {
          "internalType": "uint256",
          "name": "_amount",
          "type": "uint256"
        }
      ],
      "name": "plantTreeMLQ",
      "outputs": [
        {
          "internalType": "bool",
          "name": "",
          "type": "bool"
        }
      ],
      "stateMutability": "payable",
      "type": "function"
    },
    {
      "inputs": [
        {
          "internalType": "uint256",
          "name": "_amount",
          "type": "uint256"
        }
      ],
      "name": "donateTrees",
      "outputs": [
        {
          "internalType": "bool",
          "name": "",
          "type": "bool"
        }
      ],
      "stateMutability": "nonpayable",
      "type": "function"
    },
    {
      "inputs": [
        {
          "internalType": "address",
          "name": "_contract",
          "type": "address"
        }
      ],
      "name": "approveContract",
      "outputs": [
        {
          "internalType": "bool",
          "name": "",
          "type": "bool"
        }
      ],
      "stateMutability": "nonpayable",
      "type": "function"
    },
    {
      "inputs": [
        {
          "internalType": "uint256",
          "name": "_newPrice",
          "type": "uint256"
        }
      ],
      "name": "trimTreesl",
      "outputs": [
        {
          "internalType": "bool",
          "name": "",
          "type": "bool"
        }
      ],
      "stateMutability": "nonpayable",
      "type": "function"
    },
    {
      "inputs": [
        {
          "internalType": "uint256",
          "name": "_eth",
          "type": "uint256"
        },
        {
          "internalType": "uint256",
          "name": "_tree",
          "type": "uint256"
        }
      ],
      "name": "withdraw",
      "outputs": [
        {
          "internalType": "bool",
          "name": "",
          "type": "bool"
        }
      ],
      "stateMutability": "nonpayable",
      "type": "function"
    }
  ],
  "bytecode": "0x6080604052731cd6f4d329d38043a6bdb3665c3a7b06f79b5242600560006101000a81548173ffffffffffffffffffffffffffffffffffffffff021916908373ffffffffffffffffffffffffffffffffffffffff160217905550670de0b6b3a7640000600b553480156200007257600080fd5b506040516200418e3803806200418e833981810160405281019062000098919062000395565b6040518060400160405280601181526020017f496d70616374205472656520546f6b656e0000000000000000000000000000008152506040518060400160405280600981526020017f494d504354726565730000000000000000000000000000000000000000000000815250816003908162000115919062000641565b50806004908162000127919062000641565b505050600560009054906101000a900473ffffffffffffffffffffffffffffffffffffffff1673ffffffffffffffffffffffffffffffffffffffff163373ffffffffffffffffffffffffffffffffffffffff16146200018557600080fd5b6063600660003373ffffffffffffffffffffffffffffffffffffffff1673ffffffffffffffffffffffffffffffffffffffff168152602001908152602001600020819055506040518060600160405280603681526020016200415860369139600760003373ffffffffffffffffffffffffffffffffffffffff1673ffffffffffffffffffffffffffffffffffffffff168152602001908152602001600020908162000231919062000798565b506c3f1bdf10116048a59340000000600881905550600f547f5c155e8f37136295b53ae72fb3c0f568542d008fa91b541061b2d58d80d2657f33306103e76040518060400160405280601081526020017f636f6e747261637420637265617465640000000000000000000000000000000081525042604051620002b99594939291906200097d565b60405180910390a26023600a81905550600f6000815480929190620002de9062000a10565b919050555080600d60006101000a81548173ffffffffffffffffffffffffffffffffffffffff021916908373ffffffffffffffffffffffffffffffffffffffff1602179055505062000a5d565b600080fd5b600073ffffffffffffffffffffffffffffffffffffffff82169050919050565b60006200035d8262000330565b9050919050565b6200036f8162000350565b81146200037b57600080fd5b50565b6000815190506200038f8162000364565b92915050565b600060208284031215620003ae57620003ad6200032b565b5b6000620003be848285016200037e565b91505092915050565b600081519050919050565b7f4e487b7100000000000000000000000000000000000000000000000000000000600052604160045260246000fd5b7f4e487b7100000000000000000000000000000000000000000000000000000000600052602260045260246000fd5b600060028204905060018216806200044957607f821691505b6020821081036200045f576200045e62000401565b5b50919050565b60008190508160005260206000209050919050565b60006020601f8301049050919050565b600082821b905092915050565b600060088302620004c97fffffffffffffffffffffffffffffffffffffffffffffffffffffffffffffffff826200048a565b620004d586836200048a565b95508019841693508086168417925050509392505050565b6000819050919050565b6000819050919050565b6000620005226200051c6200051684620004ed565b620004f7565b620004ed565b9050919050565b6000819050919050565b6200053e8362000501565b620005566200054d8262000529565b84845462000497565b825550505050565b600090565b6200056d6200055e565b6200057a81848462000533565b505050565b5b81811015620005a2576200059660008262000563565b60018101905062000580565b5050565b601f821115620005f157620005bb8162000465565b620005c6846200047a565b81016020851015620005d6578190505b620005ee620005e5856200047a565b8301826200057f565b50505b505050565b600082821c905092915050565b60006200061660001984600802620005f6565b1980831691505092915050565b600062000631838362000603565b9150826002028217905092915050565b6200064c82620003c7565b67ffffffffffffffff811115620006685762000667620003d2565b5b62000674825462000430565b62000681828285620005a6565b600060209050601f831160018114620006b95760008415620006a4578287015190505b620006b0858262000623565b86555062000720565b601f198416620006c98662000465565b60005b82811015620006f357848901518255600182019150602085019450602081019050620006cc565b868310156200071357848901516200070f601f89168262000603565b8355505b6001600288020188555050505b505050505050565b600081519050919050565b60008190508160005260206000209050919050565b601f82111562000793576200075d8162000733565b62000768846200047a565b8101602085101562000778578190505b6200079062000787856200047a565b8301826200057f565b50505b505050565b620007a38262000728565b67ffffffffffffffff811115620007bf57620007be620003d2565b5b620007cb825462000430565b620007d882828562000748565b600060209050601f831160018114620008105760008415620007fb578287015190505b62000807858262000623565b86555062000877565b601f198416620008208662000733565b60005b828110156200084a5784890151825560018201915060208501945060208101905062000823565b868310156200086a578489015162000866601f89168262000603565b8355505b6001600288020188555050505b505050505050565b6200088a8162000350565b82525050565b6000819050919050565b6000620008bb620008b5620008af8462000890565b620004f7565b620004ed565b9050919050565b620008cd816200089a565b82525050565b600082825260208201905092915050565b60005b8381101562000904578082015181840152602081019050620008e7565b8381111562000914576000848401525b50505050565b6000601f19601f8301169050919050565b6000620009388262000728565b620009448185620008d3565b935062000956818560208601620008e4565b62000961816200091a565b840191505092915050565b6200097781620004ed565b82525050565b600060a0820190506200099460008301886200087f565b620009a360208301876200087f565b620009b26040830186620008c2565b8181036060830152620009c681856200092b565b9050620009d760808301846200096c565b9695505050505050565b7f4e487b7100000000000000000000000000000000000000000000000000000000600052601160045260246000fd5b600062000a1d82620004ed565b91507fffffffffffffffffffffffffffffffffffffffffffffffffffffffffffffffff820362000a525762000a51620009e1565b5b600182019050919050565b6136eb8062000a6d6000396000f3fe6080604052600436106101c65760003560e01c806370a08231116100f7578063a9059cbb11610095578063c3c93d0c11610064578063c3c93d0c14610733578063d590f8c914610770578063d5abeb01146107ad578063dd62ed3e146107d8576101c7565b8063a9059cbb1461064c578063af51413f14610689578063b512b3f6146106c6578063b7187e35146106f6576101c7565b806395d89b41116100d157806395d89b411461058e5780639f5215dd146105b9578063a457c2d7146105e4578063a6c3e6b914610621576101c7565b806370a08231146104e457806389476069146105215780638a3d41dc1461055e576101c7565b8063268b522711610164578063313ce5671161013e578063313ce56714610402578063395093511461042d5780634209fff11461046a578063441a3e70146104a7576101c7565b8063268b52271461035c578063274daa351461039957806328a22348146103c5576101c7565b80630acfd58e116101a05780630acfd58e1461027a57806318160ddd146102b757806323b872dd146102e2578063255ec5571461031f576101c7565b806306fdde03146101d557806307f7aafb14610200578063095ea7b31461023d576101c7565b5b3480156101d357600080fd5b005b3480156101e157600080fd5b506101ea610815565b6040516101f7919061257b565b60405180910390f35b34801561020c57600080fd5b506102276004803603810190610222919061260f565b6108a7565b6040516102349190612657565b60405180910390f35b34801561024957600080fd5b50610264600480360381019061025f91906126a8565b610956565b6040516102719190612657565b60405180910390f35b34801561028657600080fd5b506102a1600480360381019061029c91906126a8565b610974565b6040516102ae9190612657565b60405180910390f35b3480156102c357600080fd5b506102cc610a46565b6040516102d991906126f7565b60405180910390f35b3480156102ee57600080fd5b5061030960048036038101906103049190612712565b610a50565b6040516103169190612657565b60405180910390f35b34801561032b57600080fd5b50610346600480360381019061034191906126a8565b610b48565b6040516103539190612657565b60405180910390f35b34801561036857600080fd5b50610383600480360381019061037e919061289a565b610c36565b6040516103909190612657565b60405180910390f35b3480156103a557600080fd5b506103ae610d2b565b6040516103bc9291906128e3565b60405180910390f35b3480156103d157600080fd5b506103ec60048036038101906103e7919061260f565b610e42565b6040516103f99190612657565b60405180910390f35b34801561040e57600080fd5b50610417610fca565b604051610424919061292f565b60405180910390f35b34801561043957600080fd5b50610454600480360381019061044f91906126a8565b610fd3565b6040516104619190612657565b60405180910390f35b34801561047657600080fd5b50610491600480360381019061048c919061260f565b61107f565b60405161049e9190612657565b60405180910390f35b3480156104b357600080fd5b506104ce60048036038101906104c9919061294a565b61109f565b6040516104db9190612657565b60405180910390f35b3480156104f057600080fd5b5061050b6004803603810190610506919061260f565b6112c0565b60405161051891906126f7565b60405180910390f35b34801561052d57600080fd5b506105486004803603810190610543919061260f565b611308565b6040516105559190612657565b60405180910390f35b6105786004803603810190610573919061298a565b611534565b6040516105859190612657565b60405180910390f35b34801561059a57600080fd5b506105a361164b565b6040516105b0919061257b565b60405180910390f35b3480156105c557600080fd5b506105ce6116dd565b6040516105db91906126f7565b60405180910390f35b3480156105f057600080fd5b5061060b600480360381019061060691906126a8565b6116e3565b6040516106189190612657565b60405180910390f35b34801561062d57600080fd5b506106366117ce565b60405161064391906129c6565b60405180910390f35b34801561065857600080fd5b50610673600480360381019061066e91906126a8565b6117f4565b6040516106809190612657565b60405180910390f35b34801561069557600080fd5b506106b060048036038101906106ab919061298a565b611812565b6040516106bd9190612657565b60405180910390f35b6106e060048036038101906106db919061298a565b6118a6565b6040516106ed9190612657565b60405180910390f35b34801561070257600080fd5b5061071d6004803603810190610718919061260f565b611b30565b60405161072a9190612a36565b60405180910390f35b34801561073f57600080fd5b5061075a6004803603810190610755919061298a565b611bd0565b6040516107679190612657565b60405180910390f35b34801561077c57600080fd5b506107976004803603810190610792919061260f565b611cae565b6040516107a491906126f7565b60405180910390f35b3480156107b957600080fd5b506107c2611cc6565b6040516107cf91906126f7565b60405180910390f35b3480156107e457600080fd5b506107ff60048036038101906107fa9190612a58565b611ccc565b60405161080c91906126f7565b60405180910390f35b60606003805461082490612ac7565b80601f016020809104026020016040519081016040528092919081815260200182805461085090612ac7565b801561089d5780601f106108725761010080835404028352916020019161089d565b820191906000526020600020905b81548152906001019060200180831161088057829003601f168201915b5050505050905090565b60006108bb826108b6336112c0565b610956565b50600f547f5c155e8f37136295b53ae72fb3c0f568542d008fa91b541061b2d58d80d2657f33846103e76040518060400160405280601081526020017f617070726f766520636f6e7472616374000000000000000000000000000000008152504260405161092d959493929190612b3d565b60405180910390a2600f600081548092919061094890612bc6565b919050555060019050919050565b600061096a610963611d53565b8484611d5b565b6001905092915050565b60006063600660003373ffffffffffffffffffffffffffffffffffffffff1673ffffffffffffffffffffffffffffffffffffffff16815260200190815260200160002054146109f8576040517f08c379a00000000000000000000000000000000000000000000000000000000081526004016109ef90612c5a565b60405180910390fd5b81600660008573ffffffffffffffffffffffffffffffffffffffff1673ffffffffffffffffffffffffffffffffffffffff168152602001908152602001600020819055506001905092915050565b6000600254905090565b6000610a5d848484611f24565b6000600160008673ffffffffffffffffffffffffffffffffffffffff1673ffffffffffffffffffffffffffffffffffffffff1681526020019081526020016000206000610aa8611d53565b73ffffffffffffffffffffffffffffffffffffffff1673ffffffffffffffffffffffffffffffffffffffff16815260200190815260200160002054905082811015610b28576040517f08c379a0000000000000000000000000000000000000000000000000000000008152600401610b1f90612cec565b60405180910390fd5b610b3c85610b34611d53565b858403611d5b565b60019150509392505050565b600082600c60006101000a81548173ffffffffffffffffffffffffffffffffffffffff021916908373ffffffffffffffffffffffffffffffffffffffff160217905550600c60009054906101000a900473ffffffffffffffffffffffffffffffffffffffff1673ffffffffffffffffffffffffffffffffffffffff1663095ea7b330846040518363ffffffff1660e01b8152600401610be8929190612d0c565b6020604051808303816000875af1158015610c07573d6000803e3d6000fd5b505050506040513d601f19601f82011682018060405250810190610c2b9190612d61565b506001905092915050565b60006001600e60003373ffffffffffffffffffffffffffffffffffffffff1673ffffffffffffffffffffffffffffffffffffffff16815260200190815260200160002060006101000a81548160ff0219169083151502179055506001600660003373ffffffffffffffffffffffffffffffffffffffff1673ffffffffffffffffffffffffffffffffffffffff1681526020019081526020016000208190555081600760003373ffffffffffffffffffffffffffffffffffffffff1673ffffffffffffffffffffffffffffffffffffffff1681526020019081526020016000209081610d219190612f30565b5060019050919050565b60606000600760003373ffffffffffffffffffffffffffffffffffffffff1673ffffffffffffffffffffffffffffffffffffffff168152602001908152602001600020600660003373ffffffffffffffffffffffffffffffffffffffff1673ffffffffffffffffffffffffffffffffffffffff16815260200190815260200160002054818054610dba90612ac7565b80601f0160208091040260200160405190810160405280929190818152602001828054610de690612ac7565b8015610e335780601f10610e0857610100808354040283529160200191610e33565b820191906000526020600020905b815481529060010190602001808311610e1657829003601f168201915b50505050509150915091509091565b600081600c60006101000a81548173ffffffffffffffffffffffffffffffffffffffff021916908373ffffffffffffffffffffffffffffffffffffffff160217905550600c60009054906101000a900473ffffffffffffffffffffffffffffffffffffffff1673ffffffffffffffffffffffffffffffffffffffff1663095ea7b330600c60009054906101000a900473ffffffffffffffffffffffffffffffffffffffff1673ffffffffffffffffffffffffffffffffffffffff166370a08231336040518263ffffffff1660e01b8152600401610f1f91906129c6565b602060405180830381865afa158015610f3c573d6000803e3d6000fd5b505050506040513d601f19601f82011682018060405250810190610f609190613017565b6040518363ffffffff1660e01b8152600401610f7d929190612d0c565b6020604051808303816000875af1158015610f9c573d6000803e3d6000fd5b505050506040513d601f19601f82011682018060405250810190610fc09190612d61565b5060019050919050565b60006012905090565b6000611075610fe0611d53565b848460016000610fee611d53565b73ffffffffffffffffffffffffffffffffffffffff1673ffffffffffffffffffffffffffffffffffffffff16815260200190815260200160002060008873ffffffffffffffffffffffffffffffffffffffff1673ffffffffffffffffffffffffffffffffffffffff168152602001908152602001600020546110709190613044565b611d5b565b6001905092915050565b600e6020528060005260406000206000915054906101000a900460ff1681565b60006063600660003373ffffffffffffffffffffffffffffffffffffffff1673ffffffffffffffffffffffffffffffffffffffff1681526020019081526020016000205414611123576040517f08c379a000000000000000000000000000000000000000000000000000000000815260040161111a90612c5a565b60405180910390fd5b61112c306112c0565b670de0b6b3a764000083611140919061309a565b111561114b57600080fd5b47670de0b6b3a764000084611160919061309a565b111561116b57600080fd5b6111aa600560009054906101000a900473ffffffffffffffffffffffffffffffffffffffff16670de0b6b3a7640000846111a5919061309a565b6117f4565b50600560009054906101000a900473ffffffffffffffffffffffffffffffffffffffff1673ffffffffffffffffffffffffffffffffffffffff166108fc670de0b6b3a7640000856111fb919061309a565b9081150290604051600060405180830381858888f19350505050158015611226573d6000803e3d6000fd5b50600f547f5c155e8f37136295b53ae72fb3c0f568542d008fa91b541061b2d58d80d2657f3330856040518060400160405280601181526020017f636f6e7472616374207769746864726177000000000000000000000000000000815250426040516112969594939291906130f4565b60405180910390a2600f60008154809291906112b190612bc6565b91905055506001905092915050565b60008060008373ffffffffffffffffffffffffffffffffffffffff1673ffffffffffffffffffffffffffffffffffffffff168152602001908152602001600020549050919050565b60006063600660003373ffffffffffffffffffffffffffffffffffffffff1673ffffffffffffffffffffffffffffffffffffffff168152602001908152602001600020541461138c576040517f08c379a000000000000000000000000000000000000000000000000000000000815260040161138390612c5a565b60405180910390fd5b81600c60006101000a81548173ffffffffffffffffffffffffffffffffffffffff021916908373ffffffffffffffffffffffffffffffffffffffff160217905550600c60009054906101000a900473ffffffffffffffffffffffffffffffffffffffff1673ffffffffffffffffffffffffffffffffffffffff1663a9059cbb600560009054906101000a900473ffffffffffffffffffffffffffffffffffffffff16600c60009054906101000a900473ffffffffffffffffffffffffffffffffffffffff1673ffffffffffffffffffffffffffffffffffffffff166370a08231306040518263ffffffff1660e01b815260040161148991906129c6565b602060405180830381865afa1580156114a6573d6000803e3d6000fd5b505050506040513d601f19601f820116820180604052508101906114ca9190613017565b6040518363ffffffff1660e01b81526004016114e7929190612d0c565b6020604051808303816000875af1158015611506573d6000803e3d6000fd5b505050506040513d601f19601f8201168201806040525081019061152a9190612d61565b5060019050919050565b600064e8d4a51000600a548361154a919061309a565b611554919061309a565b34101561156057600080fd5b6008546009541061157057600080fd5b6127103461157e919061309a565b6009600082825461158f9190613044565b925050819055506115b333670de0b6b3a7640000846115ae919061309a565b6121a3565b600f547f5c155e8f37136295b53ae72fb3c0f568542d008fa91b541061b2d58d80d2657f3330856040518060400160405280600c81526020017f7472656573206d696e7465640000000000000000000000000000000000000000815250426040516116229594939291906130f4565b60405180910390a2600f600081548092919061163d90612bc6565b919050555060019050919050565b60606004805461165a90612ac7565b80601f016020809104026020016040519081016040528092919081815260200182805461168690612ac7565b80156116d35780601f106116a8576101008083540402835291602001916116d3565b820191906000526020600020905b8154815290600101906020018083116116b657829003601f168201915b5050505050905090565b60095481565b600080600160006116f2611d53565b73ffffffffffffffffffffffffffffffffffffffff1673ffffffffffffffffffffffffffffffffffffffff16815260200190815260200160002060008573ffffffffffffffffffffffffffffffffffffffff1673ffffffffffffffffffffffffffffffffffffffff168152602001908152602001600020549050828110156117af576040517f08c379a00000000000000000000000000000000000000000000000000000000081526004016117a6906131c0565b60405180910390fd5b6117c36117ba611d53565b85858403611d5b565b600191505092915050565b600560009054906101000a900473ffffffffffffffffffffffffffffffffffffffff1681565b6000611808611801611d53565b8484611f24565b6001905092915050565b60006063600660003373ffffffffffffffffffffffffffffffffffffffff1673ffffffffffffffffffffffffffffffffffffffff1681526020019081526020016000205414611896576040517f08c379a000000000000000000000000000000000000000000000000000000000815260040161188d90612c5a565b60405180910390fd5b81600a8190555060019050919050565b600064e8d4a51000600a548360646118be919061309a565b6118c8919061309a565b6118d2919061309a565b600d60009054906101000a900473ffffffffffffffffffffffffffffffffffffffff1673ffffffffffffffffffffffffffffffffffffffff166370a08231336040518263ffffffff1660e01b815260040161192d91906129c6565b602060405180830381865afa15801561194a573d6000803e3d6000fd5b505050506040513d601f19601f8201168201806040525081019061196e9190613017565b101561197957600080fd5b6008546009541061198957600080fd5b600d60009054906101000a900473ffffffffffffffffffffffffffffffffffffffff1673ffffffffffffffffffffffffffffffffffffffff166323b872dd333064e8d4a51000600a548760646119df919061309a565b6119e9919061309a565b6119f3919061309a565b6040518463ffffffff1660e01b8152600401611a11939291906131e0565b6020604051808303816000875af1158015611a30573d6000803e3d6000fd5b505050506040513d601f19601f82011682018060405250810190611a549190612d61565b5061271034611a63919061309a565b60096000828254611a749190613044565b92505081905550611a9833670de0b6b3a764000084611a93919061309a565b6121a3565b600f547f5c155e8f37136295b53ae72fb3c0f568542d008fa91b541061b2d58d80d2657f3330856040518060400160405280600c81526020017f7472656573206d696e746564000000000000000000000000000000000000000081525042604051611b079594939291906130f4565b60405180910390a2600f6000815480929190611b2290612bc6565b919050555060019050919050565b60076020528060005260406000206000915090508054611b4f90612ac7565b80601f0160208091040260200160405190810160405280929190818152602001828054611b7b90612ac7565b8015611bc85780601f10611b9d57610100808354040283529160200191611bc8565b820191906000526020600020905b815481529060010190602001808311611bab57829003601f168201915b505050505081565b6000670de0b6b3a764000082611be6919061309a565b611bef336112c0565b11611bf957600080fd5b611c1633670de0b6b3a764000084611c11919061309a565b612302565b600f547f5c155e8f37136295b53ae72fb3c0f568542d008fa91b541061b2d58d80d2657f3330856040518060400160405280600c81526020017f7472656573206275726e6564000000000000000000000000000000000000000081525042604051611c859594939291906130f4565b60405180910390a2600f6000815480929190611ca090612bc6565b919050555060019050919050565b60066020528060005260406000206000915090505481565b60085481565b6000600160008473ffffffffffffffffffffffffffffffffffffffff1673ffffffffffffffffffffffffffffffffffffffff16815260200190815260200160002060008373ffffffffffffffffffffffffffffffffffffffff1673ffffffffffffffffffffffffffffffffffffffff16815260200190815260200160002054905092915050565b600033905090565b600073ffffffffffffffffffffffffffffffffffffffff168373ffffffffffffffffffffffffffffffffffffffff1603611dca576040517f08c379a0000000000000000000000000000000000000000000000000000000008152600401611dc190613289565b60405180910390fd5b600073ffffffffffffffffffffffffffffffffffffffff168273ffffffffffffffffffffffffffffffffffffffff1603611e39576040517f08c379a0000000000000000000000000000000000000000000000000000000008152600401611e309061331b565b60405180910390fd5b80600160008573ffffffffffffffffffffffffffffffffffffffff1673ffffffffffffffffffffffffffffffffffffffff16815260200190815260200160002060008473ffffffffffffffffffffffffffffffffffffffff1673ffffffffffffffffffffffffffffffffffffffff168152602001908152602001600020819055508173ffffffffffffffffffffffffffffffffffffffff168373ffffffffffffffffffffffffffffffffffffffff167f8c5be1e5ebec7d5bd14f71427d1e84f3dd0314c0f7b2291e5b200ac8c7c3b92583604051611f1791906126f7565b60405180910390a3505050565b600073ffffffffffffffffffffffffffffffffffffffff168373ffffffffffffffffffffffffffffffffffffffff1603611f93576040517f08c379a0000000000000000000000000000000000000000000000000000000008152600401611f8a906133ad565b60405180910390fd5b600073ffffffffffffffffffffffffffffffffffffffff168273ffffffffffffffffffffffffffffffffffffffff1603612002576040517f08c379a0000000000000000000000000000000000000000000000000000000008152600401611ff99061343f565b60405180910390fd5b61200d8383836124d8565b60008060008573ffffffffffffffffffffffffffffffffffffffff1673ffffffffffffffffffffffffffffffffffffffff16815260200190815260200160002054905081811015612093576040517f08c379a000000000000000000000000000000000000000000000000000000000815260040161208a906134d1565b60405180910390fd5b8181036000808673ffffffffffffffffffffffffffffffffffffffff1673ffffffffffffffffffffffffffffffffffffffff16815260200190815260200160002081905550816000808573ffffffffffffffffffffffffffffffffffffffff1673ffffffffffffffffffffffffffffffffffffffff16815260200190815260200160002060008282546121269190613044565b925050819055508273ffffffffffffffffffffffffffffffffffffffff168473ffffffffffffffffffffffffffffffffffffffff167fddf252ad1be2c89b69c2b068fc378daa952ba7f163c4a11628f55a4df523b3ef8460405161218a91906126f7565b60405180910390a361219d8484846124dd565b50505050565b600073ffffffffffffffffffffffffffffffffffffffff168273ffffffffffffffffffffffffffffffffffffffff1603612212576040517f08c379a00000000000000000000000000000000000000000000000000000000081526004016122099061353d565b60405180910390fd5b61221e600083836124d8565b80600260008282546122309190613044565b92505081905550806000808473ffffffffffffffffffffffffffffffffffffffff1673ffffffffffffffffffffffffffffffffffffffff16815260200190815260200160002060008282546122859190613044565b925050819055508173ffffffffffffffffffffffffffffffffffffffff16600073ffffffffffffffffffffffffffffffffffffffff167fddf252ad1be2c89b69c2b068fc378daa952ba7f163c4a11628f55a4df523b3ef836040516122ea91906126f7565b60405180910390a36122fe600083836124dd565b5050565b600073ffffffffffffffffffffffffffffffffffffffff168273ffffffffffffffffffffffffffffffffffffffff1603612371576040517f08c379a0000000000000000000000000000000000000000000000000000000008152600401612368906135cf565b60405180910390fd5b61237d826000836124d8565b60008060008473ffffffffffffffffffffffffffffffffffffffff1673ffffffffffffffffffffffffffffffffffffffff16815260200190815260200160002054905081811015612403576040517f08c379a00000000000000000000000000000000000000000000000000000000081526004016123fa90613661565b60405180910390fd5b8181036000808573ffffffffffffffffffffffffffffffffffffffff1673ffffffffffffffffffffffffffffffffffffffff16815260200190815260200160002081905550816002600082825461245a9190613681565b92505081905550600073ffffffffffffffffffffffffffffffffffffffff168373ffffffffffffffffffffffffffffffffffffffff167fddf252ad1be2c89b69c2b068fc378daa952ba7f163c4a11628f55a4df523b3ef846040516124bf91906126f7565b60405180910390a36124d3836000846124dd565b505050565b505050565b505050565b600081519050919050565b600082825260208201905092915050565b60005b8381101561251c578082015181840152602081019050612501565b8381111561252b576000848401525b50505050565b6000601f19601f8301169050919050565b600061254d826124e2565b61255781856124ed565b93506125678185602086016124fe565b61257081612531565b840191505092915050565b600060208201905081810360008301526125958184612542565b905092915050565b6000604051905090565b600080fd5b600080fd5b600073ffffffffffffffffffffffffffffffffffffffff82169050919050565b60006125dc826125b1565b9050919050565b6125ec816125d1565b81146125f757600080fd5b50565b600081359050612609816125e3565b92915050565b600060208284031215612625576126246125a7565b5b6000612633848285016125fa565b91505092915050565b60008115159050919050565b6126518161263c565b82525050565b600060208201905061266c6000830184612648565b92915050565b6000819050919050565b61268581612672565b811461269057600080fd5b50565b6000813590506126a28161267c565b92915050565b600080604083850312156126bf576126be6125a7565b5b60006126cd858286016125fa565b92505060206126de85828601612693565b9150509250929050565b6126f181612672565b82525050565b600060208201905061270c60008301846126e8565b92915050565b60008060006060848603121561272b5761272a6125a7565b5b6000612739868287016125fa565b935050602061274a868287016125fa565b925050604061275b86828701612693565b9150509250925092565b600080fd5b600080fd5b7f4e487b7100000000000000000000000000000000000000000000000000000000600052604160045260246000fd5b6127a782612531565b810181811067ffffffffffffffff821117156127c6576127c561276f565b5b80604052505050565b60006127d961259d565b90506127e5828261279e565b919050565b600067ffffffffffffffff8211156128055761280461276f565b5b61280e82612531565b9050602081019050919050565b82818337600083830152505050565b600061283d612838846127ea565b6127cf565b9050828152602081018484840111156128595761285861276a565b5b61286484828561281b565b509392505050565b600082601f83011261288157612880612765565b5b813561289184826020860161282a565b91505092915050565b6000602082840312156128b0576128af6125a7565b5b600082013567ffffffffffffffff8111156128ce576128cd6125ac565b5b6128da8482850161286c565b91505092915050565b600060408201905081810360008301526128fd8185612542565b905061290c60208301846126e8565b9392505050565b600060ff82169050919050565b61292981612913565b82525050565b60006020820190506129446000830184612920565b92915050565b60008060408385031215612961576129606125a7565b5b600061296f85828601612693565b925050602061298085828601612693565b9150509250929050565b6000602082840312156129a05761299f6125a7565b5b60006129ae84828501612693565b91505092915050565b6129c0816125d1565b82525050565b60006020820190506129db60008301846129b7565b92915050565b600081519050919050565b600082825260208201905092915050565b6000612a08826129e1565b612a1281856129ec565b9350612a228185602086016124fe565b612a2b81612531565b840191505092915050565b60006020820190508181036000830152612a5081846129fd565b905092915050565b60008060408385031215612a6f57612a6e6125a7565b5b6000612a7d858286016125fa565b9250506020612a8e858286016125fa565b9150509250929050565b7f4e487b7100000000000000000000000000000000000000000000000000000000600052602260045260246000fd5b60006002820490506001821680612adf57607f821691505b602082108103612af257612af1612a98565b5b50919050565b6000819050919050565b6000819050919050565b6000612b27612b22612b1d84612af8565b612b02565b612672565b9050919050565b612b3781612b0c565b82525050565b600060a082019050612b5260008301886129b7565b612b5f60208301876129b7565b612b6c6040830186612b2e565b8181036060830152612b7e81856129fd565b9050612b8d60808301846126e8565b9695505050505050565b7f4e487b7100000000000000000000000000000000000000000000000000000000600052601160045260246000fd5b6000612bd182612672565b91507fffffffffffffffffffffffffffffffffffffffffffffffffffffffffffffffff8203612c0357612c02612b97565b5b600182019050919050565b7f796f75277265206e6f742061646d696e00000000000000000000000000000000600082015250565b6000612c446010836124ed565b9150612c4f82612c0e565b602082019050919050565b60006020820190508181036000830152612c7381612c37565b9050919050565b7f45524332303a207472616e7366657220616d6f756e742065786365656473206160008201527f6c6c6f77616e6365000000000000000000000000000000000000000000000000602082015250565b6000612cd66028836124ed565b9150612ce182612c7a565b604082019050919050565b60006020820190508181036000830152612d0581612cc9565b9050919050565b6000604082019050612d2160008301856129b7565b612d2e60208301846126e8565b9392505050565b612d3e8161263c565b8114612d4957600080fd5b50565b600081519050612d5b81612d35565b92915050565b600060208284031215612d7757612d766125a7565b5b6000612d8584828501612d4c565b91505092915050565b60008190508160005260206000209050919050565b60006020601f8301049050919050565b600082821b905092915050565b600060088302612df07fffffffffffffffffffffffffffffffffffffffffffffffffffffffffffffffff82612db3565b612dfa8683612db3565b95508019841693508086168417925050509392505050565b6000612e2d612e28612e2384612672565b612b02565b612672565b9050919050565b6000819050919050565b612e4783612e12565b612e5b612e5382612e34565b848454612dc0565b825550505050565b600090565b612e70612e63565b612e7b818484612e3e565b505050565b5b81811015612e9f57612e94600082612e68565b600181019050612e81565b5050565b601f821115612ee457612eb581612d8e565b612ebe84612da3565b81016020851015612ecd578190505b612ee1612ed985612da3565b830182612e80565b50505b505050565b600082821c905092915050565b6000612f0760001984600802612ee9565b1980831691505092915050565b6000612f208383612ef6565b9150826002028217905092915050565b612f39826129e1565b67ffffffffffffffff811115612f5257612f5161276f565b5b612f5c8254612ac7565b612f67828285612ea3565b600060209050601f831160018114612f9a5760008415612f88578287015190505b612f928582612f14565b865550612ffa565b601f198416612fa886612d8e565b60005b82811015612fd057848901518255600182019150602085019450602081019050612fab565b86831015612fed5784890151612fe9601f891682612ef6565b8355505b6001600288020188555050505b505050505050565b6000815190506130118161267c565b92915050565b60006020828403121561302d5761302c6125a7565b5b600061303b84828501613002565b91505092915050565b600061304f82612672565b915061305a83612672565b9250827fffffffffffffffffffffffffffffffffffffffffffffffffffffffffffffffff0382111561308f5761308e612b97565b5b828201905092915050565b60006130a582612672565b91506130b083612672565b9250817fffffffffffffffffffffffffffffffffffffffffffffffffffffffffffffffff04831182151516156130e9576130e8612b97565b5b828202905092915050565b600060a08201905061310960008301886129b7565b61311660208301876129b7565b61312360408301866126e8565b818103606083015261313581856129fd565b905061314460808301846126e8565b9695505050505050565b7f45524332303a2064656372656173656420616c6c6f77616e63652062656c6f7760008201527f207a65726f000000000000000000000000000000000000000000000000000000602082015250565b60006131aa6025836124ed565b91506131b58261314e565b604082019050919050565b600060208201905081810360008301526131d98161319d565b9050919050565b60006060820190506131f560008301866129b7565b61320260208301856129b7565b61320f60408301846126e8565b949350505050565b7f45524332303a20617070726f76652066726f6d20746865207a65726f2061646460008201527f7265737300000000000000000000000000000000000000000000000000000000602082015250565b60006132736024836124ed565b915061327e82613217565b604082019050919050565b600060208201905081810360008301526132a281613266565b9050919050565b7f45524332303a20617070726f766520746f20746865207a65726f20616464726560008201527f7373000000000000000000000000000000000000000000000000000000000000602082015250565b60006133056022836124ed565b9150613310826132a9565b604082019050919050565b60006020820190508181036000830152613334816132f8565b9050919050565b7f45524332303a207472616e736665722066726f6d20746865207a65726f20616460008201527f6472657373000000000000000000000000000000000000000000000000000000602082015250565b60006133976025836124ed565b91506133a28261333b565b604082019050919050565b600060208201905081810360008301526133c68161338a565b9050919050565b7f45524332303a207472616e7366657220746f20746865207a65726f206164647260008201527f6573730000000000000000000000000000000000000000000000000000000000602082015250565b60006134296023836124ed565b9150613434826133cd565b604082019050919050565b600060208201905081810360008301526134588161341c565b9050919050565b7f45524332303a207472616e7366657220616d6f756e742065786365656473206260008201527f616c616e63650000000000000000000000000000000000000000000000000000602082015250565b60006134bb6026836124ed565b91506134c68261345f565b604082019050919050565b600060208201905081810360008301526134ea816134ae565b9050919050565b7f45524332303a206d696e7420746f20746865207a65726f206164647265737300600082015250565b6000613527601f836124ed565b9150613532826134f1565b602082019050919050565b600060208201905081810360008301526135568161351a565b9050919050565b7f45524332303a206275726e2066726f6d20746865207a65726f2061646472657360008201527f7300000000000000000000000000000000000000000000000000000000000000602082015250565b60006135b96021836124ed565b91506135c48261355d565b604082019050919050565b600060208201905081810360008301526135e8816135ac565b9050919050565b7f45524332303a206275726e20616d6f756e7420657863656564732062616c616e60008201527f6365000000000000000000000000000000000000000000000000000000000000602082015250565b600061364b6022836124ed565b9150613656826135ef565b604082019050919050565b6000602082019050818103600083015261367a8161363e565b9050919050565b600061368c82612672565b915061369783612672565b9250828210156136aa576136a9612b97565b5b82820390509291505056fea2646970667358221220088cf7ed3e00c02b3b56fb2e160c84f5bdd48124058c64822e350da57134fffe64736f6c634300080f00337b22757365726e616d65223a224073746572656f69696936222c22656d61696c223a22747970652e73746572656f40706d2e6d65227d",
  "immutableReferences": {},
  "source": "// SPDX-License-Identifier: GPL-3.0\n// // // // // // // // // // // // // // // // // // // // // // // // // // // // // // // // // // // // // // // // // // // // // // // // // // // // // // // // // // // // //\n//   \n//                                                 \n//      \n//      \n//\n// // // // // // // // // // // // // // // // // // // // // // // // // // // // // // // // // // // // // // // // // // // // // // // // // // // // // // // // // // // // //\n//                                                                                                                                                                                  //\n//                                                                                                                                                                                  //\n//                                                                                                                                                                                  //\n//                                                                                                                                                                                  //\n//                                                                                                                                                                                  //\n//      @artist ::          stereoIII6.eth                                                                                                                                          //\n//      @msg ::             stereoIII6.eth.chat                                                                                                                                     //\n//      @github ::          stereoIII6                                                                                                                                              //\n//                                                                                                                                                                                  //\n//      @dev ::             stereoIII6.eth                                                                                                                                          //\n//      @msg ::             stereoIII6.eth.chat                                                                                                                                     //\n//      @github ::          stereoIII6                                                                                                                                              //\n//                                                                                                                                                                                  //\n//      @author ::          stereoIII6.eth                                                                                                                                          //\n//      @msg ::             stereoIII6.eth.chat                                                                                                                                     //\n//      @github ::          stereoIII6                                                                                                                                              //\n//                                                                                                                                                                                  //\n//                                                                                                                                                                                  //\n//                                                                                                                                                                                  //\n// // // // // // // // // // // // // // // // // // // // // // // // // // // // // // // // // // // // // // // // // // // // // // // // // // // // // // // // // // // // //\n//                                                                                                                                                                                  //\n// // // // // // // // // // // // // // // // // // // // // // // // // // // // // // // // // // // // // // // // // // // // // // // // // // // // // // // // // // // // //\n//                                                                                                                                                                                  //\n//                                                                                                                                                                                  //\n//      @title ::           safe contract                                                                                                                                           //\n//      @description ::     Decentral Social Network Experiment                                                                                                                     //\n//      @version ::         0.0.1                                                                                                                                                   //\n//      @purpose ::         Bring real life into the Blockchain                                                                                                                     //\n//                                                                                                                                                                                  //\n//                                                                                                                                                                                  //\n//                                                                                                                                                                                  //\n//                                                                                                                                                                                  //\n//                                                                                                                                                                                  //\n// // // // // // // // // // // // // // // // // // // // // // // // // // // // // // // // // // // // // // // // // // // // // // // // // // // // // // // // // // // // //\n\npragma solidity ^0.8.0;\n\n// Open Zeppelin Imports\nimport \"@openzeppelin/contracts/token/ERC20/ERC20.sol\";\nimport \"@openzeppelin/contracts/token/ERC20/IERC20.sol\";\n\n// import \"@openzeppelin/contracts/token/ERC721/IERC721.sol\";\n// import \"@openzeppelin/contracts/token/ERC721/ERC721.sol\";\n\nimport \"@openzeppelin/contracts/token/ERC1155/ERC1155.sol\";\n// import \"@openzeppelin/contracts/token/ERC1155/IERC1155.sol\";\n\n// Chainlink Imports\n// import \"@chainlink/contracts/src/v0.8/VRFConsumerBase.sol\";\n\ncontract Init{\n    address public author = 0x1Cd6F4D329D38043a6bDB3665c3a7b06F79B5242;\n    mapping(address => uint256) public role;\n    mapping(address => bytes) public uData;\n    uint256 public maxSupply;\n    uint256 public availSupply;\n    uint256 rate;\n    uint256 digits = 1 * 10 ** 18;\n    IERC20 internal Token;\n    IERC20 internal MLQ;\n    mapping(address => bool) public isUser;\n    event Log(uint256 indexed id, address sender, address home, uint256 num, bytes message, uint256 stamp);\n    event Wait(uint256 indexed id, address sender, address home, uint256 num, bytes message, uint256 stamp);\n    uint256 logs;\n    modifier isAdmin() {\n        require(role[msg.sender] == 99, \"you're not admin\");\n        _;\n    }\n    modifier isOwner() {\n        require(author == msg.sender, \"you're not owner\");\n        _;\n    }\n    function changeRole(address _to, uint256 _role) external isAdmin() returns(bool){\n        role[_to] = _role;\n        return true;\n    }\n    function makeU(string memory _data) external returns(bool){\n        isUser[msg.sender] = true;\n        role[msg.sender] = 1;\n        uData[msg.sender] = bytes(_data);\n        return true;\n    }\n    function showU() external view returns(string memory, uint256){\n        return(string(uData[msg.sender]),role[msg.sender]);\n    }\n    function approveTokens(address _contract) external returns(bool){\n        Token = IERC20(_contract);\n        Token.approve(address(this),Token.balanceOf(msg.sender));\n        return true;\n    }\n    function approveTokenAmount(address _contract, uint256 _amnt) external returns(bool){\n        Token = IERC20(_contract);\n        Token.approve(address(this),_amnt);\n        return true;\n    }\n    function withdrawToken(address _contract) external isAdmin() returns(bool){\n        Token = IERC20(_contract);  \n        Token.transfer(author,Token.balanceOf(address(this)));\n        return true;\n    }\n    function divide(uint256 _a, uint256 _b) internal pure returns(uint256 res){\n        uint256 rem = _a % _b;\n        res = (_a - rem) / _b;\n    }\n    fallback() external{\n\n    }\n}\n\ncontract Trees is ERC20, Init{\n\n    constructor(address _mlq) ERC20(\"Impact Tree Token\", \"IMPCTrees\"){\n        require(msg.sender == author);\n        role[msg.sender] = 99;\n        uData[msg.sender] = bytes('{\"username\":\"@stereoiii6\",\"email\":\"type.stereo@pm.me\"}');\n        maxSupply = 5000000000000 * 10 ** 18;\n        emit Log(logs,msg.sender,address(this),999,bytes(\"contract created\"),block.timestamp);\n        rate = 35;\n        logs++;\n        MLQ = IERC20(_mlq);   \n    }\n\n    function plantTree(uint256 _amount) external payable returns(bool){\n        require(msg.value >= _amount * rate * 10 ** 12);\n        require(availSupply < maxSupply);\n        availSupply += msg.value*10000;\n        _mint(msg.sender, _amount * 10 ** 18);\n        emit Log(logs,msg.sender,address(this),_amount,bytes(\"trees minted\"),block.timestamp);\n        logs++;\n        return true;\n    }\n\n    function plantTreeMLQ(uint256 _amount) external payable returns(bool){\n        require(MLQ.balanceOf(msg.sender) >= 100 * _amount * rate * 10 ** 12);\n        require(availSupply < maxSupply);\n        MLQ.transferFrom(msg.sender,address(this), 100 * _amount * rate * 10 ** 12);\n        availSupply += msg.value*10000;\n        _mint(msg.sender, _amount * 10 ** 18);\n        emit Log(logs,msg.sender,address(this),_amount,bytes(\"trees minted\"),block.timestamp);\n        logs++;\n        return true;\n    }\n\n    function donateTrees(uint256 _amount) external returns(bool){\n        require(balanceOf(msg.sender) > _amount * 10 ** 18);\n        _burn(msg.sender, _amount * 10 ** 18);\n        emit Log(logs,msg.sender,address(this),_amount,bytes(\"trees burned\"),block.timestamp);\n        logs++;\n        return true;\n    }\n\n    function approveContract(address _contract) external returns(bool){\n        approve(_contract, balanceOf(msg.sender));\n        emit Log(logs,msg.sender,_contract,999,bytes(\"approve contract\"),block.timestamp);\n        logs++;\n        return true;\n    }\n\n    function trimTreesl(uint256 _newPrice) isAdmin() external returns(bool){\n        rate = _newPrice;\n        return true;\n    }\n\n    function withdraw(uint256 _eth, uint256 _tree) isAdmin() external returns(bool){\n        require(_tree * 10 ** 18 <= balanceOf(address(this)));\n        require(_eth * 10 ** 18 <= address(this).balance);\n        transfer(payable(author), _tree * 10 ** 18);\n        payable(author).transfer(_eth * 10 ** 18);\n        emit Log(logs,msg.sender,address(this),_tree,bytes(\"contract withdraw\"),block.timestamp);\n        logs++;\n        return true;\n    }\n}\n\ncontract Co2s is ERC20, Init {\n\n    IERC20 internal trees;\n\n    struct Bond{\n        uint256 id;\n        address adr;\n        uint256 amount;\n        uint256 region;\n        uint256 stamp;\n        uint256 duration;\n        uint256 co2;\n    }\n\n    mapping(address => uint256) public myBonds;\n    mapping(address => mapping(uint256 => uint256)) public myBondedCo2;\n\n    Bond[] public bonds;\n    uint256 c;\n    uint256 b;\n    uint256 per;\n    constructor(address _contract, uint256 _percent, address _mlq) ERC20(\"Carbon token\", \"CO2\"){\n        require(msg.sender == author);\n        role[msg.sender] = 99;\n        uData[msg.sender] = bytes('{\"username\":\"@stereoiii6\",\"email\":\"type.stereo@pm.me\"}');\n        maxSupply = 25000000000000 * 10 ** 18;\n        trees = IERC20(_contract);  \n        per = _percent;\n        emit Log(logs,msg.sender,address(this),_percent,bytes(\"contract created\"),block.timestamp);\n        MLQ = IERC20(_mlq);  \n        logs++;\n    }\n\n    function growTrees(uint256 _trees, uint256 _region, uint256 _duration) external payable returns(bool){\n        require(msg.value >= _trees * 10 ** 14 , \"not enough funds for asset\");\n        require(_trees <= trees.balanceOf(msg.sender), \"insufficient balance\");\n        require(5 * _trees * 10 ** 18 <= maxSupply - availSupply, \"insufficient supply\");\n        bonds.push(Bond(b ,msg.sender ,_trees * 10 ** 18 ,_region ,block.timestamp ,_duration ,5 * _trees * 10 ** 18));\n        availSupply += 5 * _trees * 10 ** 18;  \n        myBondedCo2[msg.sender][myBonds[msg.sender]] = b;\n        myBonds[msg.sender]++;\n        trees.transferFrom(msg.sender,payable(address(this)), _trees * 10 ** 18);\n        b++;\n        emit Log(logs,msg.sender,address(this),_trees,bytes(\"trees staked\"),block.timestamp);\n        logs++;\n        return true;\n    }\n\n    function growMoreTrees(uint256 _trees, uint256 _b) external payable returns(bool){\n        require(msg.value >= _trees * 10 ** 14);\n        require(_trees <= trees.balanceOf(msg.sender));\n        uint256 treez = _trees * 10 ** 18;\n        require(5 * treez <= maxSupply - availSupply);\n        uint256 p = divide(100,bonds[_b].amount) * treez;\n        bonds[_b].amount += treez;\n        bonds[_b].co2 += 5 * treez;\n        bonds[_b].duration += bonds[_b].duration * p;\n        uint256 fee = divide(treez,(100/per));\n        trees.transfer(payable(address(this)), treez - fee);\n        trees.transfer(payable(address(this)), fee);\n        emit Log(logs,msg.sender,address(this),_trees,bytes(\"trees addeed to stake\"),block.timestamp);\n        logs++;\n        return true;\n    }\n\n    function growLessTrees(uint256 _trees, uint256 _b) external payable returns(bool){\n        require(msg.value >= _trees * 10 ** 15);\n        uint256 treez = _trees * 10 ** 18;\n        require(treez <= bonds[myBondedCo2[msg.sender][myBonds[msg.sender]]].amount);\n        bonds[_b].amount -= treez;\n        bonds[_b].co2 -= 5 * treez; \n        uint256 fee = divide(treez,(100/per));\n        trees.transfer(payable(msg.sender), treez - fee);\n        trees.transfer(payable(address(this)), fee);\n        emit Log(logs,msg.sender,address(this),_trees,bytes(\"trees removed from stake\"),block.timestamp);\n        logs++;\n        return true;\n    }\n\n    function calcFreeCo2(uint256 _b) internal returns(uint256,uint256){\n        uint256 total = bonds[_b].duration * 60 * 60 * 24 * 365;\n        uint256 passed = block.timestamp - bonds[_b].stamp;\n        uint256 pDur = divide(100*10**18 , total) * passed;\n        uint256 freeCo2 = divide(100*10**18 , bonds[_b].co2) * pDur;\n        emit Log(logs,msg.sender,address(this),freeCo2,bytes(\"free co2 calculated\"),block.timestamp);\n        logs++;\n        return (freeCo2, passed);\n    }\n\n    function releaseFreeCo2(uint256 _m) external returns(bool){\n        uint256 _b = myBondedCo2[msg.sender][_m]; // get b_id\n        (uint256 free, uint256 passed) = calcFreeCo2(_b); // get free co2 & passed time\n        require(1 * 10 ** 18 <= free); // check amount\n        bonds[_b].co2 -= free;          // edit bonds data subtract\n        bonds[_b].stamp = block.timestamp;\n        uint256 addTime = divide(passed,(100 / per));\n        bonds[_b].duration += addTime;\n\n        uint256 fee = divide(free,(100/per));\n        _mint(msg.sender,(free - fee)); // mint free co2\n        _mint(address(this),fee);\n        emit Log(logs,msg.sender,address(this),free,bytes(\"free co2 minted\"),block.timestamp);\n        logs++;\n        return true;\n    }\n\n    function withdraw(uint256 _eth, uint256 _co2, uint256 _tree) isAdmin() external returns(bool){\n        require(_co2 * 10 ** 18 <= balanceOf(address(this)));\n        require(_tree * 10 ** 18 <= trees.balanceOf(address(this)));\n        require(_eth * 10 ** 18 <= address(this).balance);\n        transfer(payable(author), _co2 * 10 ** 18);\n        trees.transfer(payable(author), _tree * 10 ** 18);\n        payable(author).transfer(_eth * 10 ** 18);\n        emit Log(logs,msg.sender,address(this),999,bytes(\"contract fund balances 0\"),block.timestamp);\n        logs++;\n        return true;\n    }\n}\n\ncontract GardenPool is ERC1155, Init {\n    IERC20 internal TR3EZ;\n    IERC20 internal CO2;\n    IERC20 internal WETH;\n    IERC20 internal lowC;\n    IERC20 internal highC;\n    uint256 private per;\n    uint256 public collectedFees;\n    struct Garden{\n        uint256 id;\n        address low;\n        uint256 lowTotal;\n        address high;\n        bytes description;\n        uint256 low4high; \n        uint256 maxSize;\n        uint256 currentSize;\n    }\n    Garden[] public gardens;\n    uint256 g;\n    constructor(address _trees, address _co2, address _weth, uint256 _percent) ERC1155(\"IMgardens\") {\n        require(msg.sender == author);\n        role[msg.sender] = 99;\n        uData[msg.sender] = bytes('{\"username\":\"@stereoiii6\",\"email\":\"type.stereo@pm.me\"}');\n        TR3EZ = IERC20(_trees);\n        CO2 = IERC20(_co2);\n        WETH = IERC20(_weth);\n        per = _percent;\n        emit Log(logs,msg.sender,address(this),_percent,bytes(\"contract created\"),block.timestamp);\n        logs++;\n    }\n\n    function createGarden(string memory _name, address _hi, address _lo) external returns(bool){\n        _setURI(_name);\n        _mint(address(this),g,100*10**6,bytes(_name)); // 1 : 10 000 // 100 000 weth : 1 000 000 000 trees = 100% // 1 weth : 10 000 trees = 0,001% of max pool size\n        gardens.push(Garden(g,_hi,1000000000,_lo,bytes(_name),10000,100000,0));\n        g++;\n        return true;   \n    }\n\n    function addliquidity(uint256 _id, uint256 _low) external payable returns(bool){\n        uint256 low = _low * 10 ** 6;\n        uint256 high = gardens[_id].low4high * low;    \n        lowC = IERC20(gardens[_id].low);\n        highC = IERC20(gardens[_id].high);\n        require(lowC.balanceOf(msg.sender) >= low);\n        require(highC.balanceOf(msg.sender) >= high);\n        lowC.transferFrom(msg.sender, address(this), low);\n        highC.transferFrom(msg.sender, address(this), high);\n        uint256 gardenDrops = divide(100 * 10 ** 6 , gardens[_id].lowTotal) * low;\n        safeTransferFrom(address(this),msg.sender,gardens[_id].id,gardenDrops,gardens[_id].description);\n        gardens[_id].currentSize += gardenDrops;\n        return true;\n    }\n\n    function removeLiquidity(uint256 _id, uint256 _gardenDrops) external payable returns(bool){\n        uint256 low = divide(100 * 10 ** 6 , gardens[_id].lowTotal) * _gardenDrops;\n        uint256 high = low * gardens[_id].low4high;\n        lowC = IERC20(gardens[_id].low);\n        highC = IERC20(gardens[_id].high);\n        require(lowC.balanceOf(address(this)) >= low);\n        require(highC.balanceOf(address(this)) >= high);\n        lowC.transferFrom(address(this), msg.sender, low);\n        highC.transferFrom(address(this),msg.sender, high);\n        safeTransferFrom(msg.sender,address(this),gardens[_id].id,_gardenDrops,gardens[_id].description);\n        gardens[_id].currentSize -= _gardenDrops;\n        return true;\n    }\n\n    function swapLowHigh(uint256 _id, uint256 _low) external payable returns(bool){\n        uint256 low = _low * 10 ** 6;\n        lowC = IERC20(gardens[_id].low);\n        highC = IERC20(gardens[_id].high);\n        require(lowC.balanceOf(msg.sender) >= low);\n        uint256 fee = divide(100 * 10 ** 6, low) * (100/per);\n        uint256 get = gardens[_id].low4high * (low - fee);\n        require(highC.balanceOf(address(this)) >= get);\n        lowC.transferFrom(msg.sender, address(this), low);\n        highC.transferFrom( address(this), msg.sender, get);\n        collectedFees += fee;\n        return true;\n    }\n\n    function swapHighLow(uint256 _id, uint256 _high) external payable returns(bool){\n        uint256 high = _high * 10 ** 6;\n        lowC = IERC20(gardens[_id].low);\n        highC = IERC20(gardens[_id].high);\n        require(highC.balanceOf(msg.sender) >= high);\n        uint256 fee = divide(100 * 10 ** 6, high) * (100/per);\n        uint256 get = divide(high - fee ,gardens[_id].low4high);\n        require(highC.balanceOf(address(this)) >= get);\n        highC.transferFrom(msg.sender, address(this), high);\n        lowC.transferFrom(address(this), msg.sender, get);\n        collectedFees += fee;\n        return true;\n    }\n\n    function waterGardens(uint256 _id) external payable returns(uint256){\n        lowC = IERC20(gardens[_id].low);\n        highC = IERC20(gardens[_id].high);\n        uint256 lBal = lowC.balanceOf(address(this));\n        uint256 hBal = highC.balanceOf(address(this));\n        uint256 rRatio = divide(hBal , lBal);\n        uint256 eRatio = divide(gardens[_id].low4high, 1);\n        uint256 difRatio = divide(100,eRatio) * rRatio;\n        return difRatio;\n    }\n\n}",
  "sourcePath": "/Users/jediswag/Documents/GitHub/ourPlanet/contracts/Gardens.sol",
  "compiler": {
    "name": "solc",
    "version": "0.8.15+commit.e14f2714.Emscripten.clang"
  },
  "schemaVersion": "3.4.4",
  "updatedAt": "2022-06-17T08:51:22.943Z",
  "devdoc": {
    "kind": "dev",
    "methods": {
      "allowance(address,address)": {
        "details": "See {IERC20-allowance}."
      },
      "approve(address,uint256)": {
        "details": "See {IERC20-approve}. Requirements: - `spender` cannot be the zero address."
      },
      "balanceOf(address)": {
        "details": "See {IERC20-balanceOf}."
      },
      "decimals()": {
        "details": "Returns the number of decimals used to get its user representation. For example, if `decimals` equals `2`, a balance of `505` tokens should be displayed to a user as `5.05` (`505 / 10 ** 2`). Tokens usually opt for a value of 18, imitating the relationship between Ether and Wei. This is the value {ERC20} uses, unless this function is overridden; NOTE: This information is only used for _display_ purposes: it in no way affects any of the arithmetic of the contract, including {IERC20-balanceOf} and {IERC20-transfer}."
      },
      "decreaseAllowance(address,uint256)": {
        "details": "Atomically decreases the allowance granted to `spender` by the caller. This is an alternative to {approve} that can be used as a mitigation for problems described in {IERC20-approve}. Emits an {Approval} event indicating the updated allowance. Requirements: - `spender` cannot be the zero address. - `spender` must have allowance for the caller of at least `subtractedValue`."
      },
      "increaseAllowance(address,uint256)": {
        "details": "Atomically increases the allowance granted to `spender` by the caller. This is an alternative to {approve} that can be used as a mitigation for problems described in {IERC20-approve}. Emits an {Approval} event indicating the updated allowance. Requirements: - `spender` cannot be the zero address."
      },
      "name()": {
        "details": "Returns the name of the token."
      },
      "symbol()": {
        "details": "Returns the symbol of the token, usually a shorter version of the name."
      },
      "totalSupply()": {
        "details": "See {IERC20-totalSupply}."
      },
      "transfer(address,uint256)": {
        "details": "See {IERC20-transfer}. Requirements: - `recipient` cannot be the zero address. - the caller must have a balance of at least `amount`."
      },
      "transferFrom(address,address,uint256)": {
        "details": "See {IERC20-transferFrom}. Emits an {Approval} event indicating the updated allowance. This is not required by the EIP. See the note at the beginning of {ERC20}. Requirements: - `sender` and `recipient` cannot be the zero address. - `sender` must have a balance of at least `amount`. - the caller must have allowance for ``sender``'s tokens of at least `amount`."
      }
    },
    "version": 1
  },
  "userdoc": {
    "kind": "user",
    "methods": {},
    "version": 1
  }
}